{
  "_format": "hh-sol-artifact-1",
  "contractName": "UnifiedProTrack",
  "sourceName": "contracts/ProTrack.sol",
  "abi": [
    {
      "inputs": [],
      "stateMutability": "nonpayable",
      "type": "constructor"
    },
    {
      "inputs": [],
      "name": "AccessControlBadConfirmation",
      "type": "error"
    },
    {
      "inputs": [
        {
          "internalType": "address",
          "name": "account",
          "type": "address"
        },
        {
          "internalType": "bytes32",
          "name": "neededRole",
          "type": "bytes32"
        }
      ],
      "name": "AccessControlUnauthorizedAccount",
      "type": "error"
    },
    {
      "inputs": [
        {
          "internalType": "address",
          "name": "sender",
          "type": "address"
        },
        {
          "internalType": "uint256",
          "name": "tokenId",
          "type": "uint256"
        },
        {
          "internalType": "address",
          "name": "owner",
          "type": "address"
        }
      ],
      "name": "ERC721IncorrectOwner",
      "type": "error"
    },
    {
      "inputs": [
        {
          "internalType": "address",
          "name": "operator",
          "type": "address"
        },
        {
          "internalType": "uint256",
          "name": "tokenId",
          "type": "uint256"
        }
      ],
      "name": "ERC721InsufficientApproval",
      "type": "error"
    },
    {
      "inputs": [
        {
          "internalType": "address",
          "name": "approver",
          "type": "address"
        }
      ],
      "name": "ERC721InvalidApprover",
      "type": "error"
    },
    {
      "inputs": [
        {
          "internalType": "address",
          "name": "operator",
          "type": "address"
        }
      ],
      "name": "ERC721InvalidOperator",
      "type": "error"
    },
    {
      "inputs": [
        {
          "internalType": "address",
          "name": "owner",
          "type": "address"
        }
      ],
      "name": "ERC721InvalidOwner",
      "type": "error"
    },
    {
      "inputs": [
        {
          "internalType": "address",
          "name": "receiver",
          "type": "address"
        }
      ],
      "name": "ERC721InvalidReceiver",
      "type": "error"
    },
    {
      "inputs": [
        {
          "internalType": "address",
          "name": "sender",
          "type": "address"
        }
      ],
      "name": "ERC721InvalidSender",
      "type": "error"
    },
    {
      "inputs": [
        {
          "internalType": "uint256",
          "name": "tokenId",
          "type": "uint256"
        }
      ],
      "name": "ERC721NonexistentToken",
      "type": "error"
    },
    {
      "inputs": [],
      "name": "InvalidInput",
      "type": "error"
    },
    {
      "inputs": [],
      "name": "InvalidStatus",
      "type": "error"
    },
    {
      "inputs": [],
      "name": "InvalidTimestamp",
      "type": "error"
    },
    {
      "inputs": [],
      "name": "ProductAlreadyExists",
      "type": "error"
    },
    {
      "inputs": [],
      "name": "ProductAlreadyRecalled",
      "type": "error"
    },
    {
      "inputs": [],
      "name": "ProductNotFound",
      "type": "error"
    },
    {
      "inputs": [],
      "name": "ReentrancyGuardReentrantCall",
      "type": "error"
    },
    {
      "inputs": [],
      "name": "ShipmentNotFound",
      "type": "error"
    },
    {
      "inputs": [],
      "name": "StringTooLong",
      "type": "error"
    },
    {
      "inputs": [],
      "name": "TokenIsSoulbound",
      "type": "error"
    },
    {
      "inputs": [],
      "name": "Unauthorized",
      "type": "error"
    },
    {
      "anonymous": false,
      "inputs": [
        {
          "indexed": true,
          "internalType": "uint256",
          "name": "tokenId",
          "type": "uint256"
        },
        {
          "indexed": true,
          "internalType": "address",
          "name": "user",
          "type": "address"
        }
      ],
      "name": "AccessGranted",
      "type": "event"
    },
    {
      "anonymous": false,
      "inputs": [
        {
          "indexed": true,
          "internalType": "uint256",
          "name": "tokenId",
          "type": "uint256"
        },
        {
          "indexed": true,
          "internalType": "address",
          "name": "user",
          "type": "address"
        }
      ],
      "name": "AccessRevoked",
      "type": "event"
    },
    {
      "anonymous": false,
      "inputs": [
        {
          "indexed": true,
          "internalType": "address",
          "name": "owner",
          "type": "address"
        },
        {
          "indexed": true,
          "internalType": "address",
          "name": "approved",
          "type": "address"
        },
        {
          "indexed": true,
          "internalType": "uint256",
          "name": "tokenId",
          "type": "uint256"
        }
      ],
      "name": "Approval",
      "type": "event"
    },
    {
      "anonymous": false,
      "inputs": [
        {
          "indexed": true,
          "internalType": "address",
          "name": "owner",
          "type": "address"
        },
        {
          "indexed": true,
          "internalType": "address",
          "name": "operator",
          "type": "address"
        },
        {
          "indexed": false,
          "internalType": "bool",
          "name": "approved",
          "type": "bool"
        }
      ],
      "name": "ApprovalForAll",
      "type": "event"
    },
    {
      "anonymous": false,
      "inputs": [
        {
          "indexed": false,
          "internalType": "uint256",
          "name": "_fromTokenId",
          "type": "uint256"
        },
        {
          "indexed": false,
          "internalType": "uint256",
          "name": "_toTokenId",
          "type": "uint256"
        }
      ],
      "name": "BatchMetadataUpdate",
      "type": "event"
    },
    {
      "anonymous": false,
      "inputs": [
        {
          "indexed": true,
          "internalType": "uint256",
          "name": "productId",
          "type": "uint256"
        },
        {
          "indexed": false,
          "internalType": "enum UnifiedProTrack.ComplianceStatus",
          "name": "status",
          "type": "uint8"
        },
        {
          "indexed": false,
          "internalType": "address",
          "name": "reviewer",
          "type": "address"
        }
      ],
      "name": "ComplianceReviewed",
      "type": "event"
    },
    {
      "anonymous": false,
      "inputs": [
        {
          "indexed": true,
          "internalType": "uint256",
          "name": "tokenId",
          "type": "uint256"
        },
        {
          "indexed": true,
          "internalType": "address",
          "name": "from",
          "type": "address"
        },
        {
          "indexed": true,
          "internalType": "address",
          "name": "to",
          "type": "address"
        },
        {
          "indexed": false,
          "internalType": "string",
          "name": "location",
          "type": "string"
        }
      ],
      "name": "CustodyTransferred",
      "type": "event"
    },
    {
      "anonymous": false,
      "inputs": [
        {
          "indexed": true,
          "internalType": "uint256",
          "name": "tokenId",
          "type": "uint256"
        },
        {
          "indexed": false,
          "internalType": "enum UnifiedProTrack.SensorType",
          "name": "sensorType",
          "type": "uint8"
        },
        {
          "indexed": false,
          "internalType": "int256",
          "name": "value",
          "type": "int256"
        },
        {
          "indexed": false,
          "internalType": "uint256",
          "name": "timestamp",
          "type": "uint256"
        }
      ],
      "name": "IoTDataRecorded",
      "type": "event"
    },
    {
      "anonymous": false,
      "inputs": [
        {
          "indexed": true,
          "internalType": "uint256",
          "name": "tokenId",
          "type": "uint256"
        },
        {
          "indexed": false,
          "internalType": "string",
          "name": "newLocation",
          "type": "string"
        },
        {
          "indexed": false,
          "internalType": "address",
          "name": "updatedBy",
          "type": "address"
        }
      ],
      "name": "LocationUpdated",
      "type": "event"
    },
    {
      "anonymous": false,
      "inputs": [
        {
          "indexed": false,
          "internalType": "uint256",
          "name": "_tokenId",
          "type": "uint256"
        }
      ],
      "name": "MetadataUpdate",
      "type": "event"
    },
    {
      "anonymous": false,
      "inputs": [
        {
          "indexed": true,
          "internalType": "uint256",
          "name": "suggestionId",
          "type": "uint256"
        },
        {
          "indexed": false,
          "internalType": "address",
          "name": "implementedBy",
          "type": "address"
        }
      ],
      "name": "OptimizationImplemented",
      "type": "event"
    },
    {
      "anonymous": false,
      "inputs": [
        {
          "indexed": true,
          "internalType": "uint256",
          "name": "suggestionId",
          "type": "uint256"
        },
        {
          "indexed": false,
          "internalType": "string",
          "name": "description",
          "type": "string"
        }
      ],
      "name": "OptimizationSuggested",
      "type": "event"
    },
    {
      "anonymous": false,
      "inputs": [
        {
          "indexed": true,
          "internalType": "uint256",
          "name": "tokenId",
          "type": "uint256"
        },
        {
          "indexed": false,
          "internalType": "string",
          "name": "rfidHash",
          "type": "string"
        },
        {
          "indexed": false,
          "internalType": "string",
          "name": "barcode",
          "type": "string"
        },
        {
          "indexed": true,
          "internalType": "address",
          "name": "manufacturer",
          "type": "address"
        },
        {
          "indexed": false,
          "internalType": "string",
          "name": "productName",
          "type": "string"
        }
      ],
      "name": "ProductMinted",
      "type": "event"
    },
    {
      "anonymous": false,
      "inputs": [
        {
          "indexed": true,
          "internalType": "uint256",
          "name": "tokenId",
          "type": "uint256"
        },
        {
          "indexed": false,
          "internalType": "string",
          "name": "batchId",
          "type": "string"
        }
      ],
      "name": "ProductPackaged",
      "type": "event"
    },
    {
      "anonymous": false,
      "inputs": [
        {
          "indexed": true,
          "internalType": "uint256",
          "name": "tokenId",
          "type": "uint256"
        },
        {
          "indexed": true,
          "internalType": "address",
          "name": "initiator",
          "type": "address"
        },
        {
          "indexed": false,
          "internalType": "string",
          "name": "reason",
          "type": "string"
        }
      ],
      "name": "ProductRecalled",
      "type": "event"
    },
    {
      "anonymous": false,
      "inputs": [
        {
          "indexed": true,
          "internalType": "uint256",
          "name": "tokenId",
          "type": "uint256"
        },
        {
          "indexed": false,
          "internalType": "enum UnifiedProTrack.ProductStatus",
          "name": "status",
          "type": "uint8"
        },
        {
          "indexed": false,
          "internalType": "address",
          "name": "updatedBy",
          "type": "address"
        }
      ],
      "name": "ProductStatusUpdated",
      "type": "event"
    },
    {
      "anonymous": false,
      "inputs": [
        {
          "indexed": true,
          "internalType": "uint256",
          "name": "productId",
          "type": "uint256"
        },
        {
          "indexed": false,
          "internalType": "enum UnifiedProTrack.QualityStatus",
          "name": "status",
          "type": "uint8"
        },
        {
          "indexed": false,
          "internalType": "address",
          "name": "inspector",
          "type": "address"
        }
      ],
      "name": "QualityChecked",
      "type": "event"
    },
    {
      "anonymous": false,
      "inputs": [
        {
          "indexed": true,
          "internalType": "bytes32",
          "name": "role",
          "type": "bytes32"
        },
        {
          "indexed": true,
          "internalType": "bytes32",
          "name": "previousAdminRole",
          "type": "bytes32"
        },
        {
          "indexed": true,
          "internalType": "bytes32",
          "name": "newAdminRole",
          "type": "bytes32"
        }
      ],
      "name": "RoleAdminChanged",
      "type": "event"
    },
    {
      "anonymous": false,
      "inputs": [
        {
          "indexed": true,
          "internalType": "bytes32",
          "name": "role",
          "type": "bytes32"
        },
        {
          "indexed": true,
          "internalType": "address",
          "name": "account",
          "type": "address"
        },
        {
          "indexed": true,
          "internalType": "address",
          "name": "sender",
          "type": "address"
        }
      ],
      "name": "RoleGranted",
      "type": "event"
    },
    {
      "anonymous": false,
      "inputs": [
        {
          "indexed": true,
          "internalType": "bytes32",
          "name": "role",
          "type": "bytes32"
        },
        {
          "indexed": true,
          "internalType": "address",
          "name": "account",
          "type": "address"
        },
        {
          "indexed": true,
          "internalType": "address",
          "name": "sender",
          "type": "address"
        }
      ],
      "name": "RoleRevoked",
      "type": "event"
    },
    {
      "anonymous": false,
      "inputs": [
        {
          "indexed": true,
          "internalType": "uint256",
          "name": "tokenId",
          "type": "uint256"
        },
        {
          "indexed": false,
          "internalType": "enum UnifiedProTrack.SensorType",
          "name": "sensorType",
          "type": "uint8"
        },
        {
          "indexed": false,
          "internalType": "int256",
          "name": "value",
          "type": "int256"
        },
        {
          "indexed": false,
          "internalType": "int256",
          "name": "minThreshold",
          "type": "int256"
        },
        {
          "indexed": false,
          "internalType": "int256",
          "name": "maxThreshold",
          "type": "int256"
        }
      ],
      "name": "SensorThresholdAlert",
      "type": "event"
    },
    {
      "anonymous": false,
      "inputs": [
        {
          "indexed": true,
          "internalType": "uint256",
          "name": "tokenId",
          "type": "uint256"
        },
        {
          "indexed": false,
          "internalType": "enum UnifiedProTrack.SensorType",
          "name": "sensorType",
          "type": "uint8"
        },
        {
          "indexed": false,
          "internalType": "int256",
          "name": "minValue",
          "type": "int256"
        },
        {
          "indexed": false,
          "internalType": "int256",
          "name": "maxValue",
          "type": "int256"
        }
      ],
      "name": "SensorThresholdUpdated",
      "type": "event"
    },
    {
      "anonymous": false,
      "inputs": [
        {
          "indexed": true,
          "internalType": "uint256",
          "name": "shipmentId",
          "type": "uint256"
        },
        {
          "indexed": false,
          "internalType": "string",
          "name": "tempKeyId",
          "type": "string"
        }
      ],
      "name": "ShipmentApproved",
      "type": "event"
    },
    {
      "anonymous": false,
      "inputs": [
        {
          "indexed": true,
          "internalType": "uint256",
          "name": "shipmentId",
          "type": "uint256"
        },
        {
          "indexed": false,
          "internalType": "address",
          "name": "cancelledBy",
          "type": "address"
        },
        {
          "indexed": false,
          "internalType": "string",
          "name": "reason",
          "type": "string"
        }
      ],
      "name": "ShipmentCancelled",
      "type": "event"
    },
    {
      "anonymous": false,
      "inputs": [
        {
          "indexed": true,
          "internalType": "uint256",
          "name": "shipmentId",
          "type": "uint256"
        },
        {
          "indexed": false,
          "internalType": "uint256",
          "name": "confirmedAt",
          "type": "uint256"
        }
      ],
      "name": "ShipmentConfirmed",
      "type": "event"
    },
    {
      "anonymous": false,
      "inputs": [
        {
          "indexed": true,
          "internalType": "uint256",
          "name": "shipmentId",
          "type": "uint256"
        },
        {
          "indexed": false,
          "internalType": "uint256",
          "name": "deliveredAt",
          "type": "uint256"
        }
      ],
      "name": "ShipmentDelivered",
      "type": "event"
    },
    {
      "anonymous": false,
      "inputs": [
        {
          "indexed": true,
          "internalType": "uint256",
          "name": "shipmentId",
          "type": "uint256"
        },
        {
          "indexed": true,
          "internalType": "uint256",
          "name": "productId",
          "type": "uint256"
        },
        {
          "indexed": true,
          "internalType": "address",
          "name": "from",
          "type": "address"
        },
        {
          "indexed": false,
          "internalType": "address",
          "name": "to",
          "type": "address"
        }
      ],
      "name": "ShipmentRequested",
      "type": "event"
    },
    {
      "anonymous": false,
      "inputs": [
        {
          "indexed": true,
          "internalType": "uint256",
          "name": "tokenId",
          "type": "uint256"
        },
        {
          "indexed": false,
          "internalType": "address",
          "name": "by",
          "type": "address"
        }
      ],
      "name": "TokenMadeSoulbound",
      "type": "event"
    },
    {
      "anonymous": false,
      "inputs": [
        {
          "indexed": true,
          "internalType": "address",
          "name": "from",
          "type": "address"
        },
        {
          "indexed": true,
          "internalType": "address",
          "name": "to",
          "type": "address"
        },
        {
          "indexed": true,
          "internalType": "uint256",
          "name": "tokenId",
          "type": "uint256"
        }
      ],
      "name": "Transfer",
      "type": "event"
    },
    {
      "inputs": [],
      "name": "ADMIN_ROLE",
      "outputs": [
        {
          "internalType": "bytes32",
          "name": "",
          "type": "bytes32"
        }
      ],
      "stateMutability": "view",
      "type": "function"
    },
    {
      "inputs": [],
      "name": "COMPLIANCE_ROLE",
      "outputs": [
        {
          "internalType": "bytes32",
          "name": "",
          "type": "bytes32"
        }
      ],
      "stateMutability": "view",
      "type": "function"
    },
    {
      "inputs": [],
      "name": "CUSTOMER_ROLE",
      "outputs": [
        {
          "internalType": "bytes32",
          "name": "",
          "type": "bytes32"
        }
      ],
      "stateMutability": "view",
      "type": "function"
    },
    {
      "inputs": [],
      "name": "DEFAULT_ADMIN_ROLE",
      "outputs": [
        {
          "internalType": "bytes32",
          "name": "",
          "type": "bytes32"
        }
      ],
      "stateMutability": "view",
      "type": "function"
    },
    {
      "inputs": [],
      "name": "INSPECTOR_ROLE",
      "outputs": [
        {
          "internalType": "bytes32",
          "name": "",
          "type": "bytes32"
        }
      ],
      "stateMutability": "view",
      "type": "function"
    },
    {
      "inputs": [],
      "name": "MANUFACTURER_ROLE",
      "outputs": [
        {
          "internalType": "bytes32",
          "name": "",
          "type": "bytes32"
        }
      ],
      "stateMutability": "view",
      "type": "function"
    },
    {
      "inputs": [],
      "name": "ORACLE_ROLE",
      "outputs": [
        {
          "internalType": "bytes32",
          "name": "",
          "type": "bytes32"
        }
      ],
      "stateMutability": "view",
      "type": "function"
    },
    {
      "inputs": [],
      "name": "PACKAGER_ROLE",
      "outputs": [
        {
          "internalType": "bytes32",
          "name": "",
          "type": "bytes32"
        }
      ],
      "stateMutability": "view",
      "type": "function"
    },
    {
      "inputs": [],
      "name": "QUALITY_CONTROL_ROLE",
      "outputs": [
        {
          "internalType": "bytes32",
          "name": "",
          "type": "bytes32"
        }
      ],
      "stateMutability": "view",
      "type": "function"
    },
    {
      "inputs": [],
      "name": "RETAILER_ROLE",
      "outputs": [
        {
          "internalType": "bytes32",
          "name": "",
          "type": "bytes32"
        }
      ],
      "stateMutability": "view",
      "type": "function"
    },
    {
      "inputs": [],
      "name": "TRANSPORTER_ROLE",
      "outputs": [
        {
          "internalType": "bytes32",
          "name": "",
          "type": "bytes32"
        }
      ],
      "stateMutability": "view",
      "type": "function"
    },
    {
      "inputs": [],
      "name": "WHOLESALER_ROLE",
      "outputs": [
        {
          "internalType": "bytes32",
          "name": "",
          "type": "bytes32"
        }
      ],
      "stateMutability": "view",
      "type": "function"
    },
    {
      "inputs": [
        {
          "internalType": "address",
          "name": "to",
          "type": "address"
        },
        {
          "internalType": "uint256",
          "name": "tokenId",
          "type": "uint256"
        }
      ],
      "name": "approve",
      "outputs": [],
      "stateMutability": "nonpayable",
      "type": "function"
    },
    {
      "inputs": [
        {
          "internalType": "uint256",
          "name": "shipmentId",
          "type": "uint256"
        }
      ],
      "name": "approveShipment",
      "outputs": [],
      "stateMutability": "nonpayable",
      "type": "function"
    },
    {
      "inputs": [
        {
          "internalType": "uint256",
          "name": "",
          "type": "uint256"
        },
        {
          "internalType": "address",
          "name": "",
          "type": "address"
        }
      ],
      "name": "authorizedViewers",
      "outputs": [
        {
          "internalType": "bool",
          "name": "",
          "type": "bool"
        }
      ],
      "stateMutability": "view",
      "type": "function"
    },
    {
      "inputs": [
        {
          "internalType": "address",
          "name": "owner",
          "type": "address"
        }
      ],
      "name": "balanceOf",
      "outputs": [
        {
          "internalType": "uint256",
          "name": "",
          "type": "uint256"
        }
      ],
      "stateMutability": "view",
      "type": "function"
    },
    {
      "inputs": [
        {
          "internalType": "string",
          "name": "",
          "type": "string"
        }
      ],
      "name": "barcodeToTokenId",
      "outputs": [
        {
          "internalType": "uint256",
          "name": "",
          "type": "uint256"
        }
      ],
      "stateMutability": "view",
      "type": "function"
    },
    {
      "inputs": [
        {
          "internalType": "uint256",
          "name": "shipmentId",
          "type": "uint256"
        },
        {
          "internalType": "string",
          "name": "reason",
          "type": "string"
        }
      ],
      "name": "cancelShipment",
      "outputs": [],
      "stateMutability": "nonpayable",
      "type": "function"
    },
    {
      "inputs": [
        {
          "internalType": "uint256",
          "name": "shipmentId",
          "type": "uint256"
        },
        {
          "internalType": "string",
          "name": "location",
          "type": "string"
        }
      ],
      "name": "confirmReceipt",
      "outputs": [],
      "stateMutability": "nonpayable",
      "type": "function"
    },
    {
      "inputs": [
        {
          "internalType": "uint256",
          "name": "shipmentId",
          "type": "uint256"
        }
      ],
      "name": "confirmShipmentCompletion",
      "outputs": [],
      "stateMutability": "nonpayable",
      "type": "function"
    },
    {
      "inputs": [],
      "name": "currentAnalytics",
      "outputs": [
        {
          "internalType": "uint256",
          "name": "productsCreated",
          "type": "uint256"
        },
        {
          "internalType": "uint256",
          "name": "productsShipped",
          "type": "uint256"
        },
        {
          "internalType": "uint256",
          "name": "productsDelivered",
          "type": "uint256"
        },
        {
          "internalType": "uint256",
          "name": "qualityChecksPassed",
          "type": "uint256"
        },
        {
          "internalType": "uint256",
          "name": "qualityChecksFailed",
          "type": "uint256"
        },
        {
          "internalType": "uint256",
          "name": "complianceApproved",
          "type": "uint256"
        },
        {
          "internalType": "uint256",
          "name": "complianceRejected",
          "type": "uint256"
        },
        {
          "internalType": "uint256",
          "name": "totalShipments",
          "type": "uint256"
        },
        {
          "internalType": "uint256",
          "name": "delayedShipments",
          "type": "uint256"
        },
        {
          "internalType": "uint256",
          "name": "onTimeShipments",
          "type": "uint256"
        },
        {
          "internalType": "uint256",
          "name": "totalCO2Emissions",
          "type": "uint256"
        },
        {
          "internalType": "uint256",
          "name": "totalCosts",
          "type": "uint256"
        }
      ],
      "stateMutability": "view",
      "type": "function"
    },
    {
      "inputs": [
        {
          "internalType": "uint256",
          "name": "tokenId",
          "type": "uint256"
        }
      ],
      "name": "getApproved",
      "outputs": [
        {
          "internalType": "address",
          "name": "",
          "type": "address"
        }
      ],
      "stateMutability": "view",
      "type": "function"
    },
    {
      "inputs": [],
      "name": "getCurrentAnalytics",
      "outputs": [
        {
          "components": [
            {
              "internalType": "uint256",
              "name": "productsCreated",
              "type": "uint256"
            },
            {
              "internalType": "uint256",
              "name": "productsShipped",
              "type": "uint256"
            },
            {
              "internalType": "uint256",
              "name": "productsDelivered",
              "type": "uint256"
            },
            {
              "internalType": "uint256",
              "name": "qualityChecksPassed",
              "type": "uint256"
            },
            {
              "internalType": "uint256",
              "name": "qualityChecksFailed",
              "type": "uint256"
            },
            {
              "internalType": "uint256",
              "name": "complianceApproved",
              "type": "uint256"
            },
            {
              "internalType": "uint256",
              "name": "complianceRejected",
              "type": "uint256"
            },
            {
              "internalType": "uint256",
              "name": "totalShipments",
              "type": "uint256"
            },
            {
              "internalType": "uint256",
              "name": "delayedShipments",
              "type": "uint256"
            },
            {
              "internalType": "uint256",
              "name": "onTimeShipments",
              "type": "uint256"
            },
            {
              "internalType": "uint256",
              "name": "totalCO2Emissions",
              "type": "uint256"
            },
            {
              "internalType": "uint256",
              "name": "totalCosts",
              "type": "uint256"
            }
          ],
          "internalType": "struct UnifiedProTrack.AnalyticsData",
          "name": "",
          "type": "tuple"
        }
      ],
      "stateMutability": "view",
      "type": "function"
    },
    {
      "inputs": [
        {
          "internalType": "uint256",
          "name": "tokenId",
          "type": "uint256"
        },
        {
          "internalType": "uint256",
          "name": "offset",
          "type": "uint256"
        },
        {
          "internalType": "uint256",
          "name": "limit",
          "type": "uint256"
        }
      ],
      "name": "getIoTData",
      "outputs": [
        {
          "components": [
            {
              "internalType": "uint256",
              "name": "productId",
              "type": "uint256"
            },
            {
              "internalType": "enum UnifiedProTrack.SensorType",
              "name": "sensorType",
              "type": "uint8"
            },
            {
              "internalType": "int256",
              "name": "value",
              "type": "int256"
            },
            {
              "internalType": "string",
              "name": "unit",
              "type": "string"
            },
            {
              "internalType": "string",
              "name": "gpsCoordinates",
              "type": "string"
            },
            {
              "internalType": "address",
              "name": "provider",
              "type": "address"
            },
            {
              "internalType": "uint128",
              "name": "timestamp",
              "type": "uint128"
            },
            {
              "internalType": "bool",
              "name": "verified",
              "type": "bool"
            },
            {
              "internalType": "string",
              "name": "ipfsCID",
              "type": "string"
            }
          ],
          "internalType": "struct UnifiedProTrack.IoTData[]",
          "name": "",
          "type": "tuple[]"
        },
        {
          "internalType": "uint256",
          "name": "total",
          "type": "uint256"
        }
      ],
      "stateMutability": "view",
      "type": "function"
    },
    {
      "inputs": [
        {
          "internalType": "uint256",
          "name": "suggestionId",
          "type": "uint256"
        }
      ],
      "name": "getOptimizationSuggestion",
      "outputs": [
        {
          "components": [
            {
              "internalType": "uint256",
              "name": "id",
              "type": "uint256"
            },
            {
              "internalType": "string",
              "name": "description",
              "type": "string"
            },
            {
              "internalType": "string",
              "name": "impact",
              "type": "string"
            },
            {
              "internalType": "uint128",
              "name": "timestamp",
              "type": "uint128"
            },
            {
              "internalType": "bool",
              "name": "implemented",
              "type": "bool"
            }
          ],
          "internalType": "struct UnifiedProTrack.OptimizationSuggestion",
          "name": "",
          "type": "tuple"
        }
      ],
      "stateMutability": "view",
      "type": "function"
    },
    {
      "inputs": [
        {
          "internalType": "uint256",
          "name": "tokenId",
          "type": "uint256"
        }
      ],
      "name": "getProduct",
      "outputs": [
        {
          "components": [
            {
              "internalType": "string",
              "name": "rfidHash",
              "type": "string"
            },
            {
              "internalType": "string",
              "name": "barcode",
              "type": "string"
            },
            {
              "internalType": "string",
              "name": "productName",
              "type": "string"
            },
            {
              "internalType": "string",
              "name": "sku",
              "type": "string"
            },
            {
              "internalType": "address",
              "name": "manufacturerId",
              "type": "address"
            },
            {
              "internalType": "uint128",
              "name": "manufactureDate",
              "type": "uint128"
            },
            {
              "internalType": "uint128",
              "name": "expiryDate",
              "type": "uint128"
            },
            {
              "internalType": "string",
              "name": "batchId",
              "type": "string"
            },
            {
              "internalType": "string",
              "name": "ipfsMetadataCID",
              "type": "string"
            },
            {
              "internalType": "enum UnifiedProTrack.ProductStatus",
              "name": "status",
              "type": "uint8"
            },
            {
              "internalType": "address",
              "name": "manufacturer",
              "type": "address"
            },
            {
              "internalType": "address",
              "name": "currentCustodian",
              "type": "address"
            },
            {
              "internalType": "string",
              "name": "currentLocation",
              "type": "string"
            },
            {
              "internalType": "uint128",
              "name": "lastUpdated",
              "type": "uint128"
            },
            {
              "internalType": "bool",
              "name": "isSoulbound",
              "type": "bool"
            },
            {
              "internalType": "bool",
              "name": "isRecalled",
              "type": "bool"
            },
            {
              "internalType": "enum UnifiedProTrack.QualityStatus",
              "name": "qualityStatus",
              "type": "uint8"
            },
            {
              "internalType": "enum UnifiedProTrack.ComplianceStatus",
              "name": "complianceStatus",
              "type": "uint8"
            },
            {
              "internalType": "bytes32",
              "name": "productHash",
              "type": "bytes32"
            },
            {
              "internalType": "uint256",
              "name": "price",
              "type": "uint256"
            },
            {
              "internalType": "string",
              "name": "currency",
              "type": "string"
            },
            {
              "internalType": "uint256",
              "name": "weight",
              "type": "uint256"
            }
          ],
          "internalType": "struct UnifiedProTrack.Product",
          "name": "",
          "type": "tuple"
        }
      ],
      "stateMutability": "view",
      "type": "function"
    },
    {
      "inputs": [
        {
          "internalType": "uint256",
          "name": "tokenId",
          "type": "uint256"
        },
        {
          "internalType": "uint256",
          "name": "offset",
          "type": "uint256"
        },
        {
          "internalType": "uint256",
          "name": "limit",
          "type": "uint256"
        }
      ],
      "name": "getProductComplianceRecords",
      "outputs": [
        {
          "components": [
            {
              "internalType": "uint256",
              "name": "productId",
              "type": "uint256"
            },
            {
              "internalType": "address",
              "name": "reviewer",
              "type": "address"
            },
            {
              "internalType": "enum UnifiedProTrack.ComplianceStatus",
              "name": "status",
              "type": "uint8"
            },
            {
              "internalType": "string",
              "name": "certificateCID",
              "type": "string"
            },
            {
              "internalType": "string",
              "name": "notes",
              "type": "string"
            },
            {
              "internalType": "uint128",
              "name": "timestamp",
              "type": "uint128"
            },
            {
              "internalType": "uint128",
              "name": "expiryDate",
              "type": "uint128"
            }
          ],
          "internalType": "struct UnifiedProTrack.ComplianceRecord[]",
          "name": "",
          "type": "tuple[]"
        },
        {
          "internalType": "uint256",
          "name": "total",
          "type": "uint256"
        }
      ],
      "stateMutability": "view",
      "type": "function"
    },
    {
      "inputs": [
        {
          "internalType": "uint256",
          "name": "tokenId",
          "type": "uint256"
        },
        {
          "internalType": "uint256",
          "name": "offset",
          "type": "uint256"
        },
        {
          "internalType": "uint256",
          "name": "limit",
          "type": "uint256"
        }
      ],
      "name": "getProductQualityRecords",
      "outputs": [
        {
          "components": [
            {
              "internalType": "uint256",
              "name": "productId",
              "type": "uint256"
            },
            {
              "internalType": "address",
              "name": "inspector",
              "type": "address"
            },
            {
              "internalType": "enum UnifiedProTrack.QualityStatus",
              "name": "status",
              "type": "uint8"
            },
            {
              "internalType": "string",
              "name": "reportCID",
              "type": "string"
            },
            {
              "internalType": "string",
              "name": "notes",
              "type": "string"
            },
            {
              "internalType": "uint128",
              "name": "timestamp",
              "type": "uint128"
            }
          ],
          "internalType": "struct UnifiedProTrack.QualityRecord[]",
          "name": "",
          "type": "tuple[]"
        },
        {
          "internalType": "uint256",
          "name": "total",
          "type": "uint256"
        }
      ],
      "stateMutability": "view",
      "type": "function"
    },
    {
      "inputs": [
        {
          "internalType": "uint256",
          "name": "tokenId",
          "type": "uint256"
        }
      ],
      "name": "getProductShipments",
      "outputs": [
        {
          "internalType": "uint256[]",
          "name": "",
          "type": "uint256[]"
        }
      ],
      "stateMutability": "view",
      "type": "function"
    },
    {
      "inputs": [
        {
          "internalType": "bytes32",
          "name": "role",
          "type": "bytes32"
        }
      ],
      "name": "getRoleAdmin",
      "outputs": [
        {
          "internalType": "bytes32",
          "name": "",
          "type": "bytes32"
        }
      ],
      "stateMutability": "view",
      "type": "function"
    },
    {
      "inputs": [
        {
          "internalType": "uint256",
          "name": "tokenId",
          "type": "uint256"
        },
        {
          "internalType": "enum UnifiedProTrack.SensorType",
          "name": "sensorType",
          "type": "uint8"
        }
      ],
      "name": "getSensorThreshold",
      "outputs": [
        {
          "components": [
            {
              "internalType": "int256",
              "name": "minValue",
              "type": "int256"
            },
            {
              "internalType": "int256",
              "name": "maxValue",
              "type": "int256"
            },
            {
              "internalType": "bool",
              "name": "isSet",
              "type": "bool"
            }
          ],
          "internalType": "struct UnifiedProTrack.SensorThreshold",
          "name": "",
          "type": "tuple"
        }
      ],
      "stateMutability": "view",
      "type": "function"
    },
    {
      "inputs": [
        {
          "internalType": "uint256",
          "name": "shipmentId",
          "type": "uint256"
        }
      ],
      "name": "getShipment",
      "outputs": [
        {
          "components": [
            {
              "internalType": "uint256",
              "name": "shipmentId",
              "type": "uint256"
            },
            {
              "internalType": "uint256",
              "name": "productId",
              "type": "uint256"
            },
            {
              "internalType": "address",
              "name": "fromParty",
              "type": "address"
            },
            {
              "internalType": "address",
              "name": "toParty",
              "type": "address"
            },
            {
              "internalType": "address",
              "name": "carrierId",
              "type": "address"
            },
            {
              "internalType": "string",
              "name": "origin",
              "type": "string"
            },
            {
              "internalType": "string",
              "name": "destination",
              "type": "string"
            },
            {
              "internalType": "uint128",
              "name": "expectedETD",
              "type": "uint128"
            },
            {
              "internalType": "uint128",
              "name": "expectedETA",
              "type": "uint128"
            },
            {
              "internalType": "enum UnifiedProTrack.ShipmentStatus",
              "name": "status",
              "type": "uint8"
            },
            {
              "internalType": "string",
              "name": "tempKeyId",
              "type": "string"
            },
            {
              "internalType": "string",
              "name": "trackingInfo",
              "type": "string"
            },
            {
              "internalType": "uint128",
              "name": "requestedAt",
              "type": "uint128"
            },
            {
              "internalType": "uint128",
              "name": "approvedAt",
              "type": "uint128"
            },
            {
              "internalType": "uint128",
              "name": "shippedAt",
              "type": "uint128"
            },
            {
              "internalType": "uint128",
              "name": "deliveredAt",
              "type": "uint128"
            },
            {
              "internalType": "uint128",
              "name": "confirmedAt",
              "type": "uint128"
            },
            {
              "internalType": "string[]",
              "name": "packingList",
              "type": "string[]"
            },
            {
              "internalType": "string",
              "name": "insurancePolicy",
              "type": "string"
            },
            {
              "internalType": "string",
              "name": "slaAgreement",
              "type": "string"
            },
            {
              "internalType": "uint256",
              "name": "estimatedDistance",
              "type": "uint256"
            },
            {
              "internalType": "uint256",
              "name": "co2Emissions",
              "type": "uint256"
            },
            {
              "internalType": "uint256",
              "name": "estimatedCost",
              "type": "uint256"
            },
            {
              "internalType": "uint256",
              "name": "actualCost",
              "type": "uint256"
            },
            {
              "internalType": "string",
              "name": "currency",
              "type": "string"
            },
            {
              "internalType": "string",
              "name": "priority",
              "type": "string"
            },
            {
              "internalType": "string",
              "name": "driverName",
              "type": "string"
            },
            {
              "internalType": "string",
              "name": "driverLicense",
              "type": "string"
            },
            {
              "internalType": "string",
              "name": "driverContact",
              "type": "string"
            },
            {
              "internalType": "string",
              "name": "vehicleType",
              "type": "string"
            },
            {
              "internalType": "string",
              "name": "vehiclePlateNumber",
              "type": "string"
            },
            {
              "internalType": "string",
              "name": "vehicleCapacity",
              "type": "string"
            }
          ],
          "internalType": "struct UnifiedProTrack.Shipment",
          "name": "",
          "type": "tuple"
        }
      ],
      "stateMutability": "view",
      "type": "function"
    },
    {
      "inputs": [
        {
          "internalType": "uint256",
          "name": "tokenId",
          "type": "uint256"
        },
        {
          "internalType": "address",
          "name": "user",
          "type": "address"
        }
      ],
      "name": "grantAccess",
      "outputs": [],
      "stateMutability": "nonpayable",
      "type": "function"
    },
    {
      "inputs": [
        {
          "internalType": "bytes32",
          "name": "role",
          "type": "bytes32"
        },
        {
          "internalType": "address",
          "name": "account",
          "type": "address"
        }
      ],
      "name": "grantRole",
      "outputs": [],
      "stateMutability": "nonpayable",
      "type": "function"
    },
    {
      "inputs": [
        {
          "internalType": "uint256",
          "name": "tokenId",
          "type": "uint256"
        },
        {
          "internalType": "address",
          "name": "user",
          "type": "address"
        }
      ],
      "name": "hasProductAccess",
      "outputs": [
        {
          "internalType": "bool",
          "name": "",
          "type": "bool"
        }
      ],
      "stateMutability": "view",
      "type": "function"
    },
    {
      "inputs": [
        {
          "internalType": "bytes32",
          "name": "role",
          "type": "bytes32"
        },
        {
          "internalType": "address",
          "name": "account",
          "type": "address"
        }
      ],
      "name": "hasRole",
      "outputs": [
        {
          "internalType": "bool",
          "name": "",
          "type": "bool"
        }
      ],
      "stateMutability": "view",
      "type": "function"
    },
    {
      "inputs": [
        {
          "internalType": "uint256",
          "name": "suggestionId",
          "type": "uint256"
        }
      ],
      "name": "implementOptimization",
      "outputs": [],
      "stateMutability": "nonpayable",
      "type": "function"
    },
    {
      "inputs": [
        {
          "internalType": "address",
          "name": "owner",
          "type": "address"
        },
        {
          "internalType": "address",
          "name": "operator",
          "type": "address"
        }
      ],
      "name": "isApprovedForAll",
      "outputs": [
        {
          "internalType": "bool",
          "name": "",
          "type": "bool"
        }
      ],
      "stateMutability": "view",
      "type": "function"
    },
    {
      "inputs": [
        {
          "internalType": "uint256",
          "name": "tokenId",
          "type": "uint256"
        }
      ],
      "name": "isProductRecalled",
      "outputs": [
        {
          "internalType": "bool",
          "name": "",
          "type": "bool"
        }
      ],
      "stateMutability": "view",
      "type": "function"
    },
    {
      "inputs": [
        {
          "internalType": "uint256",
          "name": "shipmentId",
          "type": "uint256"
        }
      ],
      "name": "isShipmentExpired",
      "outputs": [
        {
          "internalType": "bool",
          "name": "",
          "type": "bool"
        }
      ],
      "stateMutability": "view",
      "type": "function"
    },
    {
      "inputs": [
        {
          "internalType": "uint256",
          "name": "tokenId",
          "type": "uint256"
        },
        {
          "internalType": "string",
          "name": "batchId",
          "type": "string"
        }
      ],
      "name": "logPackaging",
      "outputs": [],
      "stateMutability": "nonpayable",
      "type": "function"
    },
    {
      "inputs": [
        {
          "internalType": "uint256",
          "name": "tokenId",
          "type": "uint256"
        }
      ],
      "name": "makeSoulbound",
      "outputs": [],
      "stateMutability": "nonpayable",
      "type": "function"
    },
    {
      "inputs": [
        {
          "components": [
            {
              "internalType": "string",
              "name": "rfidHash",
              "type": "string"
            },
            {
              "internalType": "string",
              "name": "barcode",
              "type": "string"
            },
            {
              "internalType": "string",
              "name": "productName",
              "type": "string"
            },
            {
              "internalType": "string",
              "name": "sku",
              "type": "string"
            },
            {
              "internalType": "address",
              "name": "manufacturerId",
              "type": "address"
            },
            {
              "internalType": "uint128",
              "name": "manufactureDate",
              "type": "uint128"
            },
            {
              "internalType": "uint128",
              "name": "expiryDate",
              "type": "uint128"
            },
            {
              "internalType": "string",
              "name": "batchId",
              "type": "string"
            },
            {
              "internalType": "string",
              "name": "ipfsMetadataCID",
              "type": "string"
            },
            {
              "internalType": "address",
              "name": "owner",
              "type": "address"
            }
          ],
          "internalType": "struct UnifiedProTrack.MintProductParams",
          "name": "params",
          "type": "tuple"
        }
      ],
      "name": "mintProduct",
      "outputs": [
        {
          "internalType": "uint256",
          "name": "",
          "type": "uint256"
        }
      ],
      "stateMutability": "nonpayable",
      "type": "function"
    },
    {
      "inputs": [
        {
          "components": [
            {
              "internalType": "string",
              "name": "rfidHash",
              "type": "string"
            },
            {
              "internalType": "string",
              "name": "barcode",
              "type": "string"
            },
            {
              "internalType": "string",
              "name": "productName",
              "type": "string"
            },
            {
              "internalType": "string",
              "name": "sku",
              "type": "string"
            },
            {
              "internalType": "address",
              "name": "manufacturerId",
              "type": "address"
            },
            {
              "internalType": "uint128",
              "name": "manufactureDate",
              "type": "uint128"
            },
            {
              "internalType": "uint128",
              "name": "expiryDate",
              "type": "uint128"
            },
            {
              "internalType": "string",
              "name": "batchId",
              "type": "string"
            },
            {
              "internalType": "string",
              "name": "ipfsMetadataCID",
              "type": "string"
            },
            {
              "internalType": "address",
              "name": "owner",
              "type": "address"
            },
            {
              "internalType": "uint256",
              "name": "price",
              "type": "uint256"
            },
            {
              "internalType": "string",
              "name": "currency",
              "type": "string"
            },
            {
              "internalType": "uint256",
              "name": "weight",
              "type": "uint256"
            }
          ],
          "internalType": "struct UnifiedProTrack.MintProductEnhancedParams",
          "name": "params",
          "type": "tuple"
        }
      ],
      "name": "mintProductEnhanced",
      "outputs": [
        {
          "internalType": "uint256",
          "name": "",
          "type": "uint256"
        }
      ],
      "stateMutability": "nonpayable",
      "type": "function"
    },
    {
      "inputs": [],
      "name": "name",
      "outputs": [
        {
          "internalType": "string",
          "name": "",
          "type": "string"
        }
      ],
      "stateMutability": "view",
      "type": "function"
    },
    {
      "inputs": [
        {
          "internalType": "uint256",
          "name": "",
          "type": "uint256"
        }
      ],
      "name": "optimizationSuggestions",
      "outputs": [
        {
          "internalType": "uint256",
          "name": "id",
          "type": "uint256"
        },
        {
          "internalType": "string",
          "name": "description",
          "type": "string"
        },
        {
          "internalType": "string",
          "name": "impact",
          "type": "string"
        },
        {
          "internalType": "uint128",
          "name": "timestamp",
          "type": "uint128"
        },
        {
          "internalType": "bool",
          "name": "implemented",
          "type": "bool"
        }
      ],
      "stateMutability": "view",
      "type": "function"
    },
    {
      "inputs": [
        {
          "internalType": "uint256",
          "name": "tokenId",
          "type": "uint256"
        }
      ],
      "name": "ownerOf",
      "outputs": [
        {
          "internalType": "address",
          "name": "",
          "type": "address"
        }
      ],
      "stateMutability": "view",
      "type": "function"
    },
    {
      "inputs": [
        {
          "internalType": "uint256",
          "name": "tokenId",
          "type": "uint256"
        },
        {
          "internalType": "enum UnifiedProTrack.QualityStatus",
          "name": "status",
          "type": "uint8"
        },
        {
          "internalType": "string",
          "name": "reportCID",
          "type": "string"
        },
        {
          "internalType": "string",
          "name": "notes",
          "type": "string"
        }
      ],
      "name": "performQualityCheck",
      "outputs": [],
      "stateMutability": "nonpayable",
      "type": "function"
    },
    {
      "inputs": [
        {
          "internalType": "uint256",
          "name": "",
          "type": "uint256"
        },
        {
          "internalType": "uint256",
          "name": "",
          "type": "uint256"
        }
      ],
      "name": "productShipments",
      "outputs": [
        {
          "internalType": "uint256",
          "name": "",
          "type": "uint256"
        }
      ],
      "stateMutability": "view",
      "type": "function"
    },
    {
      "inputs": [
        {
          "internalType": "uint256",
          "name": "",
          "type": "uint256"
        }
      ],
      "name": "products",
      "outputs": [
        {
          "internalType": "string",
          "name": "rfidHash",
          "type": "string"
        },
        {
          "internalType": "string",
          "name": "barcode",
          "type": "string"
        },
        {
          "internalType": "string",
          "name": "productName",
          "type": "string"
        },
        {
          "internalType": "string",
          "name": "sku",
          "type": "string"
        },
        {
          "internalType": "address",
          "name": "manufacturerId",
          "type": "address"
        },
        {
          "internalType": "uint128",
          "name": "manufactureDate",
          "type": "uint128"
        },
        {
          "internalType": "uint128",
          "name": "expiryDate",
          "type": "uint128"
        },
        {
          "internalType": "string",
          "name": "batchId",
          "type": "string"
        },
        {
          "internalType": "string",
          "name": "ipfsMetadataCID",
          "type": "string"
        },
        {
          "internalType": "enum UnifiedProTrack.ProductStatus",
          "name": "status",
          "type": "uint8"
        },
        {
          "internalType": "address",
          "name": "manufacturer",
          "type": "address"
        },
        {
          "internalType": "address",
          "name": "currentCustodian",
          "type": "address"
        },
        {
          "internalType": "string",
          "name": "currentLocation",
          "type": "string"
        },
        {
          "internalType": "uint128",
          "name": "lastUpdated",
          "type": "uint128"
        },
        {
          "internalType": "bool",
          "name": "isSoulbound",
          "type": "bool"
        },
        {
          "internalType": "bool",
          "name": "isRecalled",
          "type": "bool"
        },
        {
          "internalType": "enum UnifiedProTrack.QualityStatus",
          "name": "qualityStatus",
          "type": "uint8"
        },
        {
          "internalType": "enum UnifiedProTrack.ComplianceStatus",
          "name": "complianceStatus",
          "type": "uint8"
        },
        {
          "internalType": "bytes32",
          "name": "productHash",
          "type": "bytes32"
        },
        {
          "internalType": "uint256",
          "name": "price",
          "type": "uint256"
        },
        {
          "internalType": "string",
          "name": "currency",
          "type": "string"
        },
        {
          "internalType": "uint256",
          "name": "weight",
          "type": "uint256"
        }
      ],
      "stateMutability": "view",
      "type": "function"
    },
    {
      "inputs": [
        {
          "internalType": "uint256",
          "name": "tokenId",
          "type": "uint256"
        },
        {
          "internalType": "string",
          "name": "reason",
          "type": "string"
        }
      ],
      "name": "recallProduct",
      "outputs": [],
      "stateMutability": "nonpayable",
      "type": "function"
    },
    {
      "inputs": [
        {
          "internalType": "uint256",
          "name": "tokenId",
          "type": "uint256"
        },
        {
          "internalType": "enum UnifiedProTrack.SensorType",
          "name": "sensorType",
          "type": "uint8"
        },
        {
          "internalType": "int256",
          "name": "value",
          "type": "int256"
        },
        {
          "internalType": "string",
          "name": "unit",
          "type": "string"
        },
        {
          "internalType": "string",
          "name": "gpsCoordinates",
          "type": "string"
        },
        {
          "internalType": "string",
          "name": "ipfsCID",
          "type": "string"
        }
      ],
      "name": "recordIoT",
      "outputs": [],
      "stateMutability": "nonpayable",
      "type": "function"
    },
    {
      "inputs": [
        {
          "internalType": "bytes32",
          "name": "role",
          "type": "bytes32"
        },
        {
          "internalType": "address",
          "name": "callerConfirmation",
          "type": "address"
        }
      ],
      "name": "renounceRole",
      "outputs": [],
      "stateMutability": "nonpayable",
      "type": "function"
    },
    {
      "inputs": [
        {
          "components": [
            {
              "internalType": "uint256",
              "name": "tokenId",
              "type": "uint256"
            },
            {
              "internalType": "address",
              "name": "to",
              "type": "address"
            },
            {
              "internalType": "address",
              "name": "carrierId",
              "type": "address"
            },
            {
              "internalType": "string",
              "name": "origin",
              "type": "string"
            },
            {
              "internalType": "string",
              "name": "destination",
              "type": "string"
            },
            {
              "internalType": "uint128",
              "name": "expectedETD",
              "type": "uint128"
            },
            {
              "internalType": "uint128",
              "name": "expectedETA",
              "type": "uint128"
            },
            {
              "internalType": "string",
              "name": "tempKeyId",
              "type": "string"
            },
            {
              "internalType": "string",
              "name": "trackingInfo",
              "type": "string"
            }
          ],
          "internalType": "struct UnifiedProTrack.ShipmentRequestParams",
          "name": "params",
          "type": "tuple"
        }
      ],
      "name": "requestShipment",
      "outputs": [
        {
          "internalType": "uint256",
          "name": "",
          "type": "uint256"
        }
      ],
      "stateMutability": "nonpayable",
      "type": "function"
    },
    {
      "inputs": [
        {
          "components": [
            {
              "internalType": "uint256",
              "name": "tokenId",
              "type": "uint256"
            },
            {
              "internalType": "address",
              "name": "to",
              "type": "address"
            },
            {
              "internalType": "address",
              "name": "carrierId",
              "type": "address"
            },
            {
              "internalType": "string",
              "name": "origin",
              "type": "string"
            },
            {
              "internalType": "string",
              "name": "destination",
              "type": "string"
            },
            {
              "internalType": "uint128",
              "name": "expectedETD",
              "type": "uint128"
            },
            {
              "internalType": "uint128",
              "name": "expectedETA",
              "type": "uint128"
            },
            {
              "internalType": "string",
              "name": "tempKeyId",
              "type": "string"
            },
            {
              "internalType": "string",
              "name": "trackingInfo",
              "type": "string"
            },
            {
              "internalType": "uint256",
              "name": "estimatedDistance",
              "type": "uint256"
            },
            {
              "internalType": "uint256",
              "name": "co2Emissions",
              "type": "uint256"
            },
            {
              "internalType": "uint256",
              "name": "estimatedCost",
              "type": "uint256"
            },
            {
              "internalType": "string",
              "name": "currency",
              "type": "string"
            }
          ],
          "internalType": "struct UnifiedProTrack.ShipmentRequestEnhancedParams",
          "name": "params",
          "type": "tuple"
        }
      ],
      "name": "requestShipmentEnhanced",
      "outputs": [
        {
          "internalType": "uint256",
          "name": "",
          "type": "uint256"
        }
      ],
      "stateMutability": "nonpayable",
      "type": "function"
    },
    {
      "inputs": [
        {
          "internalType": "uint256",
          "name": "tokenId",
          "type": "uint256"
        },
        {
          "internalType": "enum UnifiedProTrack.ComplianceStatus",
          "name": "status",
          "type": "uint8"
        },
        {
          "internalType": "string",
          "name": "certificateCID",
          "type": "string"
        },
        {
          "internalType": "string",
          "name": "notes",
          "type": "string"
        },
        {
          "internalType": "uint128",
          "name": "expiryDate",
          "type": "uint128"
        }
      ],
      "name": "reviewCompliance",
      "outputs": [],
      "stateMutability": "nonpayable",
      "type": "function"
    },
    {
      "inputs": [
        {
          "internalType": "uint256",
          "name": "tokenId",
          "type": "uint256"
        },
        {
          "internalType": "address",
          "name": "user",
          "type": "address"
        }
      ],
      "name": "revokeAccess",
      "outputs": [],
      "stateMutability": "nonpayable",
      "type": "function"
    },
    {
      "inputs": [
        {
          "internalType": "bytes32",
          "name": "role",
          "type": "bytes32"
        },
        {
          "internalType": "address",
          "name": "account",
          "type": "address"
        }
      ],
      "name": "revokeRole",
      "outputs": [],
      "stateMutability": "nonpayable",
      "type": "function"
    },
    {
      "inputs": [
        {
          "internalType": "string",
          "name": "",
          "type": "string"
        }
      ],
      "name": "rfidToTokenId",
      "outputs": [
        {
          "internalType": "uint256",
          "name": "",
          "type": "uint256"
        }
      ],
      "stateMutability": "view",
      "type": "function"
    },
    {
      "inputs": [
        {
          "internalType": "address",
          "name": "from",
          "type": "address"
        },
        {
          "internalType": "address",
          "name": "to",
          "type": "address"
        },
        {
          "internalType": "uint256",
          "name": "tokenId",
          "type": "uint256"
        }
      ],
      "name": "safeTransferFrom",
      "outputs": [],
      "stateMutability": "nonpayable",
      "type": "function"
    },
    {
      "inputs": [
        {
          "internalType": "address",
          "name": "from",
          "type": "address"
        },
        {
          "internalType": "address",
          "name": "to",
          "type": "address"
        },
        {
          "internalType": "uint256",
          "name": "tokenId",
          "type": "uint256"
        },
        {
          "internalType": "bytes",
          "name": "data",
          "type": "bytes"
        }
      ],
      "name": "safeTransferFrom",
      "outputs": [],
      "stateMutability": "nonpayable",
      "type": "function"
    },
    {
      "inputs": [
        {
          "internalType": "uint256",
          "name": "",
          "type": "uint256"
        },
        {
          "internalType": "enum UnifiedProTrack.SensorType",
          "name": "",
          "type": "uint8"
        }
      ],
      "name": "sensorThresholds",
      "outputs": [
        {
          "internalType": "int256",
          "name": "minValue",
          "type": "int256"
        },
        {
          "internalType": "int256",
          "name": "maxValue",
          "type": "int256"
        },
        {
          "internalType": "bool",
          "name": "isSet",
          "type": "bool"
        }
      ],
      "stateMutability": "view",
      "type": "function"
    },
    {
      "inputs": [
        {
          "internalType": "address",
          "name": "operator",
          "type": "address"
        },
        {
          "internalType": "bool",
          "name": "approved",
          "type": "bool"
        }
      ],
      "name": "setApprovalForAll",
      "outputs": [],
      "stateMutability": "nonpayable",
      "type": "function"
    },
    {
      "inputs": [
        {
          "internalType": "uint256",
          "name": "tokenId",
          "type": "uint256"
        },
        {
          "internalType": "enum UnifiedProTrack.SensorType",
          "name": "sensorType",
          "type": "uint8"
        },
        {
          "internalType": "int256",
          "name": "minValue",
          "type": "int256"
        },
        {
          "internalType": "int256",
          "name": "maxValue",
          "type": "int256"
        }
      ],
      "name": "setSensorThreshold",
      "outputs": [],
      "stateMutability": "nonpayable",
      "type": "function"
    },
    {
      "inputs": [
        {
          "internalType": "uint256",
          "name": "shipmentId",
          "type": "uint256"
        }
      ],
      "name": "shipProduct",
      "outputs": [],
      "stateMutability": "nonpayable",
      "type": "function"
    },
    {
      "inputs": [
        {
          "internalType": "uint256",
          "name": "",
          "type": "uint256"
        }
      ],
      "name": "shipments",
      "outputs": [
        {
          "internalType": "uint256",
          "name": "shipmentId",
          "type": "uint256"
        },
        {
          "internalType": "uint256",
          "name": "productId",
          "type": "uint256"
        },
        {
          "internalType": "address",
          "name": "fromParty",
          "type": "address"
        },
        {
          "internalType": "address",
          "name": "toParty",
          "type": "address"
        },
        {
          "internalType": "address",
          "name": "carrierId",
          "type": "address"
        },
        {
          "internalType": "string",
          "name": "origin",
          "type": "string"
        },
        {
          "internalType": "string",
          "name": "destination",
          "type": "string"
        },
        {
          "internalType": "uint128",
          "name": "expectedETD",
          "type": "uint128"
        },
        {
          "internalType": "uint128",
          "name": "expectedETA",
          "type": "uint128"
        },
        {
          "internalType": "enum UnifiedProTrack.ShipmentStatus",
          "name": "status",
          "type": "uint8"
        },
        {
          "internalType": "string",
          "name": "tempKeyId",
          "type": "string"
        },
        {
          "internalType": "string",
          "name": "trackingInfo",
          "type": "string"
        },
        {
          "internalType": "uint128",
          "name": "requestedAt",
          "type": "uint128"
        },
        {
          "internalType": "uint128",
          "name": "approvedAt",
          "type": "uint128"
        },
        {
          "internalType": "uint128",
          "name": "shippedAt",
          "type": "uint128"
        },
        {
          "internalType": "uint128",
          "name": "deliveredAt",
          "type": "uint128"
        },
        {
          "internalType": "uint128",
          "name": "confirmedAt",
          "type": "uint128"
        },
        {
          "internalType": "string",
          "name": "insurancePolicy",
          "type": "string"
        },
        {
          "internalType": "string",
          "name": "slaAgreement",
          "type": "string"
        },
        {
          "internalType": "uint256",
          "name": "estimatedDistance",
          "type": "uint256"
        },
        {
          "internalType": "uint256",
          "name": "co2Emissions",
          "type": "uint256"
        },
        {
          "internalType": "uint256",
          "name": "estimatedCost",
          "type": "uint256"
        },
        {
          "internalType": "uint256",
          "name": "actualCost",
          "type": "uint256"
        },
        {
          "internalType": "string",
          "name": "currency",
          "type": "string"
        },
        {
          "internalType": "string",
          "name": "priority",
          "type": "string"
        },
        {
          "internalType": "string",
          "name": "driverName",
          "type": "string"
        },
        {
          "internalType": "string",
          "name": "driverLicense",
          "type": "string"
        },
        {
          "internalType": "string",
          "name": "driverContact",
          "type": "string"
        },
        {
          "internalType": "string",
          "name": "vehicleType",
          "type": "string"
        },
        {
          "internalType": "string",
          "name": "vehiclePlateNumber",
          "type": "string"
        },
        {
          "internalType": "string",
          "name": "vehicleCapacity",
          "type": "string"
        }
      ],
      "stateMutability": "view",
      "type": "function"
    },
    {
      "inputs": [
        {
          "internalType": "string",
          "name": "description",
          "type": "string"
        },
        {
          "internalType": "string",
          "name": "impact",
          "type": "string"
        }
      ],
      "name": "suggestOptimization",
      "outputs": [],
      "stateMutability": "nonpayable",
      "type": "function"
    },
    {
      "inputs": [
        {
          "internalType": "bytes4",
          "name": "interfaceId",
          "type": "bytes4"
        }
      ],
      "name": "supportsInterface",
      "outputs": [
        {
          "internalType": "bool",
          "name": "",
          "type": "bool"
        }
      ],
      "stateMutability": "view",
      "type": "function"
    },
    {
      "inputs": [],
      "name": "symbol",
      "outputs": [
        {
          "internalType": "string",
          "name": "",
          "type": "string"
        }
      ],
      "stateMutability": "view",
      "type": "function"
    },
    {
      "inputs": [
        {
          "internalType": "uint256",
          "name": "tokenId",
          "type": "uint256"
        }
      ],
      "name": "tokenURI",
      "outputs": [
        {
          "internalType": "string",
          "name": "",
          "type": "string"
        }
      ],
      "stateMutability": "view",
      "type": "function"
    },
    {
      "inputs": [
        {
          "internalType": "address",
          "name": "from",
          "type": "address"
        },
        {
          "internalType": "address",
          "name": "to",
          "type": "address"
        },
        {
          "internalType": "uint256",
          "name": "tokenId",
          "type": "uint256"
        }
      ],
      "name": "transferFrom",
      "outputs": [],
      "stateMutability": "nonpayable",
      "type": "function"
    },
    {
      "inputs": [
        {
          "internalType": "uint256",
          "name": "tokenId",
          "type": "uint256"
        },
        {
          "internalType": "string",
          "name": "location",
          "type": "string"
        }
      ],
      "name": "updateLocation",
      "outputs": [],
      "stateMutability": "nonpayable",
      "type": "function"
    },
    {
      "inputs": [
        {
          "internalType": "uint256",
          "name": "tokenId",
          "type": "uint256"
        },
        {
          "internalType": "uint256",
          "name": "weight",
          "type": "uint256"
        },
        {
          "internalType": "string",
          "name": "dimensions",
          "type": "string"
        },
        {
          "internalType": "string",
          "name": "temperatureRequirement",
          "type": "string"
        },
        {
          "internalType": "string",
          "name": "storageCondition",
          "type": "string"
        }
      ],
      "name": "updateProductCharacteristics",
      "outputs": [],
      "stateMutability": "nonpayable",
      "type": "function"
    },
    {
      "inputs": [
        {
          "internalType": "uint256",
          "name": "tokenId",
          "type": "uint256"
        },
        {
          "internalType": "uint256",
          "name": "price",
          "type": "uint256"
        },
        {
          "internalType": "string",
          "name": "currency",
          "type": "string"
        }
      ],
      "name": "updateProductPricing",
      "outputs": [],
      "stateMutability": "nonpayable",
      "type": "function"
    },
    {
      "inputs": [
        {
          "internalType": "uint256",
          "name": "tokenId",
          "type": "uint256"
        },
        {
          "internalType": "string",
          "name": "supplier",
          "type": "string"
        },
        {
          "internalType": "string",
          "name": "originCountry",
          "type": "string"
        }
      ],
      "name": "updateProductSupplier",
      "outputs": [],
      "stateMutability": "nonpayable",
      "type": "function"
    },
    {
      "inputs": [
        {
          "internalType": "uint256",
          "name": "shipmentId",
          "type": "uint256"
        },
        {
          "internalType": "uint256",
          "name": "actualCost",
          "type": "uint256"
        }
      ],
      "name": "updateShipmentActualCost",
      "outputs": [],
      "stateMutability": "nonpayable",
      "type": "function"
    }
  ],
  "bytecode": "0x60803462000348576001600160401b03906040908082018381118282101762000332578252601581526020927f50726f547261636b20537570706c7920436861696e0000000000000000000000848301528251838101818110838211176200033257845260048152635054534360e01b85820152825190828211620003325760008054926001958685811c9516801562000327575b8986101462000313578190601f95868111620002c0575b5089908683116001146200025c57849262000250575b5050600019600383901b1c191690861b1781555b81519384116200023c5784548581811c9116801562000231575b888210146200021d57838111620001d5575b50869284116001146200016f5783949596509262000163575b5050600019600383901b1c191690821b1781555b806008556200013d336200034d565b506200014933620003ce565b50806014558060155560165551618c3f9081620004728239f35b0151905038806200011a565b9190601f1984169685845280842093905b888210620001bd5750508385969710620001a3575b505050811b0181556200012e565b015160001960f88460031b161c1916905538808062000195565b80878596829496860151815501950193019062000180565b8582528782208480870160051c8201928a881062000213575b0160051c019086905b8281106200020757505062000101565b838155018690620001f7565b92508192620001ee565b634e487b7160e01b82526022600452602482fd5b90607f1690620000ef565b634e487b7160e01b81526041600452602490fd5b015190503880620000c1565b8480528a85208994509190601f198416865b8d828210620002a957505084116200028f575b505050811b018155620000d5565b015160001960f88460031b161c1916905538808062000281565b8385015186558c979095019493840193016200026e565b9091508380528984208680850160051c8201928c861062000309575b918a91869594930160051c01915b828110620002fa575050620000ab565b8681558594508a9101620002ea565b92508192620002dc565b634e487b7160e01b83526022600452602483fd5b94607f169462000094565b634e487b7160e01b600052604160045260246000fd5b600080fd5b6001600160a01b031660008181527f6d5257204ebe7d88fd91ae87941cb2dd9d8062b64ae5a2bd2d28ec40b9fbf6df602052604081205490919060ff16620003ca5781805260076020526040822081835260205260408220600160ff198254161790553391600080516020620090b18339815191528180a4600190565b5090565b6001600160a01b031660008181527fa70365933f78520ef41d6645ba61e509916296603327302d41466c063e8e260860205260408120549091907fa49807205ce4d355092ef5a8a18f56e8913cf4a201fbe287825b095693c217759060ff166200046c5780835260076020526040832082845260205260408320600160ff19825416179055600080516020620090b1833981519152339380a4600190565b50509056fe6102e080604052600436101561001457600080fd5b60003560e01c90816301ffc9a71461757457508063020f3fbf14617539578063062d3bd7146174fe57806306fdde031461745b57806307d215d2146173db57806307e2cea5146173a057806308021d1e14617382578063081812fc14617344578063092b374014616c41578063095ea7b314616b5a5780630bcb9c9314616a355780630c8b0e571461696e578063115da32e1461689d578063141bc40914615ded5780631f2787b914615c9a578063204d792314615c5f5780632115e7bf14615c2457806323b872dd14615c0d578063248a9ca314615bde5780632643ce3314615b195780632927d1d914615a165780632ac08a93146155145780632f2ff15d146154d55780632fe9f9581461549657806336568abe1461544f578063396e58bf14614fd05780634037ee3f14614f8757806342842e0e14614f5f57806348fd93d014614b8c5780634a6323d6146147225780634bc39ec2146146fc5780634eabbe77146146c15780634ec0c9e91461448e5780635952e65714614399578063634873e7146142755780636352211e1461424557806365dd152c146141b257806370a082311461415957806375b238fc146141305780637a85e0f5146140485780637acc0b2014613d625780638668cb021461355b5780638f3cace2146134d057806391d148541461348357806395d89b41146133a4578063965288b014613369578063980da38514612efe5780639ce0f97314612dcc5780639e03ed7014612b23578063a217fddf14612b07578063a22cb46514612a62578063a40b9ddf14612a27578063a591eea114612965578063a721a1a7146128ea578063a7605e92146127df578063ac8c020f1461273c578063b200835714611d0b578063b5788b4914611cbe578063b88d4fde14611c5f578063b9db15b4146117ee578063b9e25fa814611661578063bedd113614611605578063c2bdc5a3146115b6578063c473127114611508578063c87b56dd1461149a578063c8ce963114610af1578063cba1ebd514610aa6578063ced2dea4146109e4578063d25849ee14610904578063d3d9586f14610808578063d547741f146107c7578063d7cb8d341461078c578063d9a5ec1b146106ef578063e3a3c522146106b4578063e985e9c51461065e5763f04fe44e1461036457600080fd5b346106595761037236617895565b3360009081527fac424760c614b43c69c667e7978906b93f2529d8f189750a0fe2c43d25b8120860209081526040909120549091907f6e94c7ed7681edd364a52ba21181e7713b286d5c7e6bbaca72cfe62d41ea09d99060ff161561063b57506103da6182bf565b60008381526002835260409020546001600160a01b031615610629578051801590811561061d575b5061060b57826000526009825260ff6008604060002001541660088110156105f5576105e35782600052600982526006604060002001908051916001600160401b0383116105cd5782610460869461045a84546178c4565b846180bb565b84601f821160011461052e57600080516020618baa833981519152959360409593837fe96ef10f180f263bdeac0d9641cf09dc9a2aa47fe9399f417c14a782338cbe109461050c94600091610523575b508160011b916000199060031b1c19161790555b60008481526009865286902060088101805460ff19166001179055600b0180546001600160801b031916426001600160801b0316179055855185815291829182870190617636565b0390a2815190600182523390820152a26001600855005b9050830151386104b0565b601f1982169083600052866000209160005b8181106105b357509360018461050c94600080516020618baa8339815191529a98947fe96ef10f180f263bdeac0d9641cf09dc9a2aa47fe9399f417c14a782338cbe109760409b991061059a575b5050811b0190556104c4565b85015160001960f88460031b161c19169055388061058e565b828701518455899750600190930192918801918801610540565b634e487b7160e01b600052604160045260246000fd5b6040516307a92f1960e51b8152600490fd5b634e487b7160e01b600052602160045260246000fd5b604051631623655b60e31b8152600490fd5b61010091501138610402565b6040516379de4af560e01b8152600490fd5b6044906040519063e2517d3f60e01b82523360048301526024820152fd5b600080fd5b3461065957604036600319011261065957610677617668565b61067f61767e565b9060018060a01b03809116600052600560205260406000209116600052602052602060ff604060002054166040519015158152f35b346106595760003660031901126106595760206040517f273dcf2136c7d8ef632bb8ef13dbca69a8f36fa620c7468671b3153d46a211c08152f35b346106595760403660031901126106595760043561070b61767e565b90610714617a99565b61071c6182bf565b6000818152600260205260409020546001600160a01b039081161561062957816000526011602052604060002092169182600052602052604060002060ff1981541690557f125883b94692baebecad9f111ed97ffa626523bbbadc6b0ef85ee1b56b9e52d5600080a36001600855005b346106595760003660031901126106595760206040517fe34aaecbfe1f40867dcba8678fbed9f4ffa5782221fa3bb500b71b2a804303188152f35b34610659576040366003190112610659576108066004356107e661767e565b90806000526007602052610801600160406000200154617b9b565b617c41565b005b346106595761081636617a24565b9091806000526020916002835260018060a01b0393846040600020541615610629576108419261857e565b6040519260408401946040855283518096526060958686019183888360051b8901019601926000915b83831061087d5788808989898301520390f35b909192939685808b600193605f198d82030187526108e26108cf8d5193845184528886860151168685015260408501516108b681617a3e565b6040850152808501519060c08091860152840190617636565b6080808501519084830390850152617636565b916001600160801b0360a080920151169101529901930193019193929061086a565b346106595760803660031901126106595760043560243560158110156106595760443560643591610933617a99565b61093b6182bf565b6000848152600260205260409020546001600160a01b03161561062957818313156109d2577f788ac0dd6610b0230fc8208068e5195fe95cb0653b6198b5a2fe809ae1b65dff92606092856000526013602052600261099e846040600020617a81565b82815583600182015501600160ff198254161790556109c06040518094617a48565b60208301526040820152a26001600855005b60405163b4fa3fb360e01b8152600490fd5b34610659576020806003193601126106595760043560008181526002835260409020546001600160a01b03161561062957600052600e8152604060002060405190818382549182815201908192600052846000209060005b86828210610a92578686610a52828803836177bb565b604051928392818401908285525180915260408401929160005b828110610a7b57505050500390f35b835185528695509381019392810192600101610a6c565b835485529093019260019283019201610a3c565b34610659576060610acc610ab936617a62565b9060005260136020526040600020617a81565b80549060ff600260018301549201541690604051928352602083015215156040820152f35b346106595760031960203682011261065957600435906001600160401b038211610659576101a09082360301126106595760405190610b2f826176c4565b80600401358252610b4260248201617694565b6020830152610b5360448201617694565b604083015260648101356001600160401b03811161065957610b7b906004369184010161782e565b606083015260848101356001600160401b03811161065957610ba3906004369184010161782e565b6080830152610bb460a4820161784c565b60a0830152610bc560c4820161784c565b60c083015260e48101356001600160401b03811161065957610bed906004369184010161782e565b60e08301526101048101356001600160401b03811161065957610c16906004369184010161782e565b610100830152610124810135610120830152610144810135610140830152610164810135610160830152610184810135906001600160401b038211610659576004610c64923692010161782e565b610180820152610c72617b3f565b610c7a6182bf565b80516000908152600260205260409020546001600160a01b0316156106295760208101516001600160a01b0316156109d2576001600160801b0360c0820151166001600160801b0360a0830151161015611488578051600052600960205260ff6008604060002001541660088110156105f5576001811415908161147c575b506105e357601554610d0a81618033565b60155580600052600a6020526040600020908082558251806001840155600052600960205260018060a01b036009604060002001541660028301906001600160601b0360a01b82541617905560018060a01b0360208401511660038301906001600160601b0360a01b82541617905560018060a01b0360408401511660048301906001600160601b0360a01b82541617905560608301519283516001600160401b0381116105cd57610dcc81610dc360058701546178c4565b600587016180bb565b6020601f821160011461140d578192939495600092611402575b50508160011b916000199060031b1c19161760058401555b60808101519283516001600160401b0381116105cd57610e2e81610e2560068501546178c4565b600685016180bb565b6020601f8211600114611393578192939495600092611388575b50508160011b916000199060031b1c19161760068201555b60a082015160c083015160801b6001600160801b0319166001600160801b03919091161760078201556008810160ff19815416905560e08201519283516001600160401b0381116105cd57610ec581610ebc60098601546178c4565b600986016180bb565b6020601f821160011461131957819293949560009261130e575b50508160011b916000199060031b1c19161760098301555b6101008301519283516001600160401b0381116105cd57610f2881610f1f600a8701546178c4565b600a87016180bb565b6020601f821160011461129f578192939495600092611294575b50508160011b916000199060031b1c191617600a8401555b6001600160801b034216600b8401556000600c840155600d83016001600160801b031981541690556000604051610f90816177a0565b52600e8301546000600e8501558061121f575b50600e83016000526000600f8401610fc4610fbe82546178c4565b82618091565b55600060108401610fd8610fbe82546178c4565b55610120810151601184015561014081015160128401556101608101516013840155600060148401556101808101519283516001600160401b0381116105cd576020946110358261102c60158601546178c4565b601586016180bb565b8590601f83116001146111ad57918060009492601c9486926111a2575b50508160011b9185199060031b1c19161760158201555b6016810161107a610fbe82546178c4565b600c656d656469756d60d01b019055826017820161109b610fbe82546178c4565b5582601882016110ae610fbe82546178c4565b5582601982016110c1610fbe82546178c4565b5582601a82016110d4610fbe82546178c4565b5582601b82016110e7610fbe82546178c4565b55016110f6610fbe82546178c4565b558051600052600e835261110e8260406000206182f9565b611119601e54618033565b601e5561112d61014082015160215461832e565b60215561114161016082015160225461832e565b60225580516000818152600980865260409182902001549285015190516001600160a01b03918216815292169183907fa9041659dcc0c60de34ca5114e2c9ecca4c93e9a21c9d4e21f29bb0bd3d8cab8908690a46001600855604051908152f35b015190508880611052565b9060158401600052866000209160005b601f198516811061120857509260009492600192601c9583601f198116106111f0575b505050811b016015820155611069565b0151861960f88460031b161c191690558880806111e0565b9192886001819286850151815501940192016111bd565b600e84016000526020600020908101905b81811061123d5750610fa3565b8061124a600192546178c4565b80611257575b5001611230565b601f8111831461126d5750600081555b86611250565b60009082825261128b601f60208420920160051c820185830161807a565b81835555611267565b015190508580610f42565b600a850160005260206000209060005b601f19841681106112f6575060019394959683601f198116106112dd575b505050811b01600a840155610f5a565b015160001960f88460031b161c191690558580806112cd565b9091602060018192858b0151815501930191016112af565b015190508580610edf565b6009840160005260206000209060005b601f1984168110611370575060019394959683601f19811610611357575b505050811b016009830155610ef7565b015160001960f88460031b161c19169055858080611347565b9091602060018192858b015181550193019101611329565b015190508580610e48565b6006830160005260206000209060005b601f19841681106113ea575060019394959683601f198116106113d1575b505050811b016006820155610e60565b015160001960f88460031b161c191690558580806113c1565b9091602060018192858b0151815501930191016113a3565b015190508580610de6565b6005850160005260206000209060005b601f1984168110611464575060019394959683601f1981161061144b575b505050811b016005840155610dfe565b015160001960f88460031b161c1916905585808061143b565b9091602060018192858b01518155019301910161141d565b60039150141582610cf9565b60405163b7d0949760e01b8152600490fd5b34610659576020366003190112610659576004356114b781617ff8565b5060005260066020526115046114da6114e16040600020604051928380926178fe565b03826177bb565b60006040516114ef816177a0565b52604051918291602083526020830190617636565b0390f35b3461065957602036600319011261065957600435600052601260205260406000208054604051916115478361154081600185016178fe565b03846177bb565b60ff61159760036040519361156a8561156381600285016178fe565b03866177bb565b015492611589604051968796875260a0602088015260a0870190617636565b908582036040870152617636565b916001600160801b038116606085015260801c16151560808301520390f35b346106595760203660031901126106595760043580600052600a602052604060002054156115f3576115e9602091618987565b6040519015158152f35b60405163124b8b2b60e31b8152600490fd5b34610659576020366003190112610659576004356001600160401b0381116106595761164e602061163b8193369060040161782e565b8160405193828580945193849201617613565b8101600c81520301902054604051908152f35b34610659576060366003190112610659576001600160401b036004356044358281116106595761169590369060040161782e565b9161169e617a99565b6116a66182bf565b816000526020906002825260018060a01b03604060002054161561062957835180159081156117e2575b5061060b578260005260098252600e6040600020602435600d820155019084519081116105cd576117058161045a84546178c4565b82601f821160011461177a5781906009959660009261176f575b50508160011b916000199060031b1c19161790555b8260005252600080516020618baa83398151915261176560ff60086040600020015416604051918291339083618137565b0390a26001600855005b01519050868061171f565b601f1982169583600052846000209660005b8181106117cb57509160099697918460019594106117b2575b505050811b019055611734565b015160001960f88460031b161c191690558680806117a5565b83830151895560019098019792860192860161178c565b610100915011856116d0565b346106595760203660031901126106595760006102a06040516118108161774e565b6060815260606020820152606060408201526060808201528260808201528260a08201528260c0820152606060e082015260606101008201528261012082015282610140820152826101608201526060610180820152826101a0820152826101c0820152826101e08201528261020082015282610220820152826102408201528261026082015260606102808201520152600435600052600260205260018060a01b0360406000205416156106295760043560005260096020526040600020604051906118dc8261774e565b6040516118ed816114da81856178fe565b8252604051611903816114da81600186016178fe565b602083015260405161191c816114da81600286016178fe565b6040830152604051611935816114da81600386016178fe565b606083015260018060a01b03600482015416608083015260058101546001600160801b03811660a084015260801c60c083015260405161197c816114da81600686016178fe565b60e0830152604051611995816114da81600786016178fe565b610100830152600881015490600860ff831610156105f55760ff821661012084015260089190911c6001600160a01b03908116610140840152600982015416610160830152604051600f91906119f2816114da81600a86016178fe565b61018084015260ff600b8201546001600160801b0381166101a0860152818160801c1615156101c0860152818160881c1615156101e0860152611a39828260901c16617a3e565b818160901c16610200860152611a53828260981c16617a3e565b60981c16610220840152600c810154610240840152600d810154610260840152604051611a87816114da81600e86016178fe565b61028084015201546102a08201526040518091602082526102a0611c52611bc9611b77611b5f611b10611afa611ae4611ace89516102c060208d01526102e08c0190617636565b60208a01518b8203601f190160408d0152617636565b60408901518a8203601f190160608c0152617636565b6060880151898203601f190160808b0152617636565b60018060a01b0360808801511660a08901526001600160801b0360a08801511660c08901526001600160801b0360c08801511660e089015260e0870151601f19898303016101008a0152617636565b610100860151878203601f1901610120890152617636565b611b8b610120860151610140880190617a55565b6101408501516001600160a01b03908116610160888101919091528601511661018080880191909152850151868203601f19016101a0880152617636565b6001600160801b036101a0850151166101c08601526101c084015115156101e08601526101e08401511515610200860152610200840151611c0981617a3e565b610220860152610220840151611c1e81617a3e565b610240860152610240840151610260860152610260840151610280860152610280840151601f198683030184870152617636565b9101516102c08301520390f35b3461065957608036600319011261065957611c78617668565b611c8061767e565b606435916001600160401b038311610659573660238401121561065957611cb46108069336906024816004013591016177f7565b9160443591617ea4565b3461065957604036600319011261065957611cd761767e565b600435600052601160205260406000209060018060a01b0316600052602052602060ff604060002054166040519015158152f35b346106595760031960203682011261065957600435906001600160401b0382116106595761014080918336030112610659576040519081018181106001600160401b038211176105cd5760405281600401356001600160401b03811161065957611d7b906004369185010161782e565b815260248201356001600160401b03811161065957611da0906004369185010161782e565b602082015260448201356001600160401b03811161065957611dc8906004369185010161782e565b604082015260648201356001600160401b03811161065957611df0906004369185010161782e565b6060820152611e0160848301617694565b6080820152611e1260a4830161784c565b60a0820152611e2360c4830161784c565b60c082015260e48201356001600160401b03811161065957611e4b906004369185010161782e565b60e08201526101048201356001600160401b03811161065957610124611e7a611e89926004369187010161782e565b93610100948585015201617694565b610120820152611e97617ae3565b611e9f6182bf565b805151828115918215612732575b505061060b57602081015151828115918215612728575b505061060b5760408101515182811591821561271e575b505061060b57606081015151156109d25760808101516001600160a01b0316158015612708575b6109d2576001600160801b0360c0820151166001600160801b0360a083015116101561148857611f3281516179d8565b546126f657611f4460208201516179fe565b546126f65760145490611f5682618033565b601455610120810151611f739083906001600160a01b0316618159565b611f808382015183618193565b608081015160e082015160405191611fbd918391611faf9190429088906001600160a01b031660208601618042565b03601f1981018352826177bb565b6020815191012082600052600960205260406000209382518051906001600160401b0382116105cd578190611ffc82611ff68a546178c4565b8a6180bb565b602090601f831160011461268a5760009261267f575b50508160011b916000199060031b1c19161785555b60208301518051906001600160401b0382116105cd5781906120598261205060018b01546178c4565b60018b016180bb565b602090601f831160011461260d57600092612602575b50508160011b916000199060031b1c19161760018601555b60408301518051906001600160401b0382116105cd5781906120b9826120b060028b01546178c4565b60028b016180bb565b602090601f831160011461259057600092612585575b50508160011b916000199060031b1c19161760028601555b60608301518051906001600160401b0382116105cd5781906121198261211060038b01546178c4565b60038b016180bb565b602090601f831160011461251357600092612508575b50508160011b916000199060031b1c19161760038601555b6080838101516004870180546001600160a01b0319166001600160a01b039290921691909117905560a084015160c085015190911b6001600160801b0319166001600160801b039190911617600586015560e08301518051906001600160401b0382116105cd5781906121ca826121c160068b01546178c4565b60068b016180bb565b602090601f83116001146124965760009261248b575b50508160011b916000199060031b1c19161760068601555b8201519384516001600160401b0381116105cd576020956122298261222060078601546178c4565b600786016180bb565b8690601f831160011461241957918060009492600f94869261240e575b50508160011b9185199060031b1c19161760078201555b600881810180546001600160a81b0319163390921b610100600160a81b031691909117905560ff199360018060a01b036101208701511660098301906001600160601b0360a01b825416179055600a82016122bb610fbe82546178c4565b7f4d616e75666163747572696e6720466163696c6974790000000000000000002c9055600b820180546001600160a01b031916426001600160801b0316179055600c820155600d8101839055600e8101805461231a90610fbe906178c4565b6006621554d160ea1b01905501558261233383516179d8565b5582612341858401516179fe565b558260005260118452604060002060018060a01b03610120840151166000528452600160406000209182541617905560018060a01b036101208201511682600080516020618bea833981519152600080a361239d601754618033565b601755817f2e81e137755e5a5eb258f5b5e1258007a5e96e970880d7c8ee40e68f91db8a4d825192604086820151910151906123e0604051928392339784618100565b0390a380600080516020618baa83398151915260408051600081523386820152a26001600855604051908152f35b015190508980612246565b9060078401600052876000209160005b601f198516811061247457509260009492600192600f9583601f1981161061245c575b505050811b01600782015561225d565b0151861960f88460031b161c1916905589808061244c565b919289600181928685015181550194019201612429565b0151905087806121e0565b9250600688016000526020600020906000935b601f19841685106124ed576001945083601f198116106124d4575b505050811b0160068601556121f8565b015160001960f88460031b161c191690558780806124c4565b818101518355602094850194600190930192909101906124a9565b01519050878061212f565b9250600388016000526020600020906000935b601f198416851061256a576001945083601f19811610612551575b505050811b016003860155612147565b015160001960f88460031b161c19169055878080612541565b81810151835560209485019460019093019290910190612526565b0151905087806120cf565b9250600288016000526020600020906000935b601f19841685106125e7576001945083601f198116106125ce575b505050811b0160028601556120e7565b015160001960f88460031b161c191690558780806125be565b818101518355602094850194600190930192909101906125a3565b01519050878061206f565b9250600188016000526020600020906000935b601f1984168510612664576001945083601f1981161061264b575b505050811b016001860155612087565b015160001960f88460031b161c1916905587808061263b565b81810151835560209485019460019093019290910190612620565b015190508780612012565b9250876000526020600020906000935b601f19841685106126db576001945083601f198116106126c2575b505050811b018555612027565b015160001960f88460031b161c191690558780806126b5565b8181015183556020948501946001909301929091019061269a565b604051637afeb2e160e01b8152600490fd5b506101208101516001600160a01b031615611f02565b1190508284611edb565b1190508284611ec4565b1190508284611ead565b346106595761274a36617a62565b9060006040805161275a81617733565b828152826020820152015280600052600260205260018060a01b0360406000205416156106295760609161279a9160005260136020526040600020617a81565b6040516127a681617733565b815491828252604060ff600260018401549360208601948552015416920191151582526040519283525160208301525115156040820152f35b3461065957602080600319360112610659576000608060405161280181617718565b8281526060848201526060604082015282606082015201526004356000526012815260406000206040519061283582617718565b8054825260405161284d816114da81600186016178fe565b8383019081526003604051926128718461286a81600285016178fe565b03856177bb565b604085019384520154906128d660608501936128c36001600160801b0393848616875260ff608089019660801c1615158652604051988998818a5251908901525160a0604089015260c0880190617636565b9051868203601f19016060880152617636565b925116608084015251151560a08301520390f35b34610659576128f836617994565b90612901617a99565b6129096182bf565b80600052600a602052604060002054156115f357600052600a6020526013604060002082601482015501541160001461295257612947602054618033565b6020555b6001600855005b61295d601f54618033565b601f5561294b565b3461065957602036600319011261065957600435612981617a99565b6129896182bf565b6000818152600260205260409020546001600160a01b0316156106295780600052600960205260ff600b6040600020015460801c16612a1557806000526009602052600b604060002001600160801b60ff60801b198254161790557fb36435e52dd9366442270f4b2b37bb85de263c4948d61cab592ff58f5906d82d6020604051338152a26001600855005b6040516358b2164f60e11b8152600490fd5b346106595760003660031901126106595760206040517f6e94c7ed7681edd364a52ba21181e7713b286d5c7e6bbaca72cfe62d41ea09d98152f35b3461065957604036600319011261065957612a7b617668565b60243590811515809203610659576001600160a01b0316908115612aee57336000526005602052604060002082600052602052604060002060ff1981541660ff83161790556040519081527f17307eab39ab6107e8899845ad3d59bd9653f200f220920489ca2b5937696c3160203392a3005b604051630b61174360e31b815260048101839052602490fd5b3461065957600036600319011261065957602060405160008152f35b34610659576040366003190112610659576001600160401b0360043581811161065957612b5490369060040161782e565b60243582811161065957612b6c90369060040161782e565b612b74617a99565b81518015908115612dc0575b5061060b5780518015908115612db4575b5061060b5760165492612ba384618033565b6016558360005260209160128352604060002091858355600180840186518381116105cd57612bd68161045a84546178c4565b8087601f8211600114612d5257600091612d47575b50600019600383901b1c191690831b1790555b600284019280519283116105cd57612c2083612c1a86546178c4565b866180bb565b8590601f8411600114612cbb5792806003959381937f64d8693aa7f042f8cfc5dc87d80bf4c0b0880e2f621332a6e94bfafcdfc1181b9a999896600094612cb0575b50501b9160001990861b1c19161790555b016001600160801b03421670ffffffffffffffffffffffffffffffffff19825416179055612cab604051928284938452830190617636565b0390a2005b015192508b80612c62565b90601f9392931983169185600052876000209260005b818110612d325750917f64d8693aa7f042f8cfc5dc87d80bf4c0b0880e2f621332a6e94bfafcdfc1181b99989795939185600398969410612d1a575b505050811b019055612c73565b015160001983881b60f8161c19169055898080612d0d565b82840151855593860193928901928901612cd1565b90508801518a612beb565b849250601f1982169084600052896000209160005b8b8d838310612d9f575050508311612d86575b5050811b019055612bfe565b8a015160001960f88460031b161c191690558a80612d7a565b84015185558896909401939283019201612d67565b61010091501184612b91565b61010091501184612b80565b3461065957612dda36617895565b612de2617a99565b612dea6182bf565b816000526020906002825260018060a01b0360406000205416156106295780518015908115612ef2575b5061060b57826000526009825260ff600b6040600020015460881c16612ee057600080516020618baa83398151915291604091846000526009825282600020600b810190600882549101600560ff19825416179055600160881b906001600160801b0342169071ff00ffffffffffffffffffffffffffffffff191617179055847fc836b58f1d2b092e3af919aae9a0607bb0c4fe552aa37d0d7ed26885488b7399845184815280612ec9339587830190617636565b0390a3815190600582523390820152a26001600855005b604051634bb5dc5960e11b8152600490fd5b61010091501184612e14565b346106595760803660031901126106595760043560249081356004811015610659576001600160401b0360443581811161065957612f4090369060040161782e565b60643582811161065957612f5890369060040161782e565b947f1d75a899856f55b7f8490b3d5427773cf9af25d5473c856b9ac58e0eb0fdd7d3928360005260209360078552604060002033600052855260ff604060002054161561334c5750612fa86182bf565b60008681526002855260409020546001600160a01b0316156106295785600052600f84526040600020968754600160401b81101561333757600198898201808255612ff38383618364565b50508211613322579061300591618364565b5093878555888501805461301889617a3e565b6001600160a81b0319163360ff60a01b19161760a089901b60ff60a01b161790558051600286019184821161330d57819061305782612c1a86546178c4565b8890601f83116001146132a157600092613296575b5050600019600383901b1c1916908a1b1790555b6003840192815192831161328257506130a38261309d85546178c4565b856180bb565b8490601f83116001146131f457918060409694927fbdaa12c47c83cb399f153e79971628e55265f83823fbd39dc6922815c9e030e89896946000926131e9575b5050600019600383901b1c191690891b1790555b60046001600160801b0342169101906001600160801b03199181838254161790558660005260098352600b856000200161313085617a3e565b805460ff60901b1916609086901b60ff60901b16179055600087815260098452859020600b01805490921617905561316782617a3e565b858214806131ca575b61317983617a3e565b156131a657613189601a54618033565b601a555b82519161319981617a3e565b82523390820152a2600855005b6131af82617a3e565b6002820361318d576131c2601b54618033565b601b5561318d565b856000526009825260088460002001600660ff19825416179055613170565b015190508a806130e3565b889291601f1983169185600052876000209260005b81811061326b5750917fbdaa12c47c83cb399f153e79971628e55265f83823fbd39dc6922815c9e030e899979593918560409a98969410613252575b505050811b0190556130f7565b015160001960f88460031b161c191690558a8080613245565b8284015185558c9690940193928901928901613209565b634e487b7160e01b60009081526041600452fd5b015190508b8061306c565b908c9350601f19831691856000528a6000209260005b8c8282106132ee57505084116132d5575b505050811b019055613080565b015160001960f88460031b161c191690558b80806132c8565b91929395968291958786015181550195019301908e95949392916132b7565b85634e487b7160e01b60005260416004526000fd5b84634e487b7160e01b60005260116004526000fd5b83634e487b7160e01b60005260416004526000fd5b826044916040519163e2517d3f60e01b8352336004840152820152fd5b346106595760003660031901126106595760206040517feefb95e842a3287179d933b4460be539a1d5af11aa8b325bb45c5c8dc92de4ed8152f35b3461065957600036600319011261065957604051600060018054906133c8826178c4565b8085529181811690811561345c5750600114613403575b611504846133ef818603826177bb565b604051918291602083526020830190617636565b600081815292507fb10e2d527612073b26eecdfd717e6a320cf44b4afac2b0732d9fcbe2b7fa0cf65b8284106134445750505081016020016133ef826133df565b8054602085870181019190915290930192810161342c565b60ff191660208087019190915292151560051b850190920192506133ef91508390506133df565b346106595760403660031901126106595761349c61767e565b600435600052600760205260406000209060018060a01b0316600052602052602060ff604060002054166040519015158152f35b34610659576020366003190112610659576004356134ec617a99565b6134f46182bf565b806000526012602052604060002054156109d2578060005260126020526003604060002001600160801b60ff60801b198254161790557f76894baff3e8187f11d9470c86d485bfd874ff0daed813fd410e2ed55e056ed36020604051338152a26001600855005b346106595760031960203682011261065957600435906001600160401b038211610659576101209082360301126106595760405190613599826176fc565b806004013582526135ac60248201617694565b60208301526135bd60448201617694565b604083015260648101356001600160401b038111610659576135e5906004369184010161782e565b606083015260848101356001600160401b0381116106595761360d906004369184010161782e565b608083015261361e60a4820161784c565b60a083015261362f60c4820161784c565b60c083015260e48101356001600160401b03811161065957613657906004369184010161782e565b60e0830152610104810135906001600160401b038211610659576004613680923692010161782e565b61010082015261368e617b3f565b6136966182bf565b80516000908152600260205260409020546001600160a01b0316156106295760208101516001600160a01b0316156109d2576001600160801b0360c0820151166001600160801b0360a0830151161015611488578051600052600960205260ff6008604060002001541660088110156105f55760018114159081613d56575b506105e35760155461372681618033565b60155580600052600a6020526040600020908082558251806001840155600052600960205260018060a01b0360096040600020015416600283016001600160601b0360a01b918282541617905560018060a01b0360208501511660038401908282541617905560018060a01b03604085015116600484019182541617905560608301519283516001600160401b0381116105cd576137cb81610dc360058701546178c4565b6020601f8211600114613ce7578192939495600092613cdc575b50508160011b916000199060031b1c19161760058401555b60808101519283516001600160401b0381116105cd5761382481610e2560068501546178c4565b6020601f8211600114613c6d578192939495600092613c62575b50508160011b916000199060031b1c19161760068201555b60a082015160c083015160801b6001600160801b0319166001600160801b03919091161760078201556008810160ff19815416905560e08201519283516001600160401b0381116105cd576138b281610ebc60098601546178c4565b6020601f8211600114613bf3578192939495600092613be8575b50508160011b916000199060031b1c19161760098301555b6101008301519283516001600160401b0381116105cd5761390c81610f1f600a8701546178c4565b6020601f8211600114613b79578192939495600092613b6e575b50508160011b916000199060031b1c191617600a8401555b6001600160801b034216600b8401556000600c840155600d83016001600160801b031981541690556000604051613974816177a0565b52600e8301928354936000815584613afc575b60209450600052601c600f8201916139a86139a284546178c4565b84618091565b600080935582601082016139bf610fbe82546178c4565b5560006011820155600060128201556000601382015560006014820155601581016139ed610fbe82546178c4565b6006621554d160ea1b01905560168101613a0a610fbe82546178c4565b600c656d656469756d60d01b0190558260178201613a2b610fbe82546178c4565b558260188201613a3e610fbe82546178c4565b558260198201613a51610fbe82546178c4565b5582601a8201613a64610fbe82546178c4565b5582601b8201613a77610fbe82546178c4565b5501613a86610fbe82546178c4565b558051600052600e8352613a9e8260406000206182f9565b80516000818152600980865260409182902001549285015190516001600160a01b03918216815292169183907fa9041659dcc0c60de34ca5114e2c9ecca4c93e9a21c9d4e21f29bb0bd3d8cab8908690a46001600855604051908152f35b806000526020600020948501945b858110613b175750613987565b80613b24600192546178c4565b80613b31575b5001613b0a565b601f81118314613b475750600081555b87613b2a565b600090828252613b65601f60208420920160051c820185830161807a565b81835555613b41565b015190508580613926565b600a850160005260206000209060005b601f1984168110613bd0575060019394959683601f19811610613bb7575b505050811b01600a84015561393e565b015160001960f88460031b161c19169055858080613ba7565b9091602060018192858b015181550193019101613b89565b0151905085806138cc565b6009840160005260206000209060005b601f1984168110613c4a575060019394959683601f19811610613c31575b505050811b0160098301556138e4565b015160001960f88460031b161c19169055858080613c21565b9091602060018192858b015181550193019101613c03565b01519050858061383e565b6006830160005260206000209060005b601f1984168110613cc4575060019394959683601f19811610613cab575b505050811b016006820155613856565b015160001960f88460031b161c19169055858080613c9b565b9091602060018192858b015181550193019101613c7d565b0151905085806137e5565b6005850160005260206000209060005b601f1984168110613d3e575060019394959683601f19811610613d25575b505050811b0160058401556137fd565b015160001960f88460031b161c19169055858080613d15565b9091602060018192858b015181550193019101613cf7565b60039150141582613715565b3461065957602036600319011261065957600435600052600960205260406000206040519081613d9281836178fe565b03613d9d90836177bb565b60405180613dae81600185016178fe565b03613db990826177bb565b6040519081613dcb81600286016178fe565b03613dd690836177bb565b6040519182613de881600387016178fe565b03613df390846177bb565b600484015460058501546040519094916001600160a01b03169080613e1b8160068a016178fe565b03613e2690826177bb565b6040519081613e388160078b016178fe565b03613e4390836177bb565b600888015460098901546040519491936001600160a01b0390911692909185613e6f81600a8e016178fe565b03613e7a90876177bb565b600b8b015496600c8c015498600d8d01549a6040519d8e8080600e840190613ea1916178fe565b03613eab916177bb565b600f01549e60405180610200526102c08091526102005101613ecc91617636565b610200518082039060200152613ee191617636565b610200518082039060400152613ef691617636565b610200518082039060600152613f0b91617636565b9061020051608001526001600160801b03998a81166102005160a0015260801c6102005160c00152610200518082039060e00152613f4891617636565b61020051808203906101000152613f5e91617636565b91610200516101200160ff821690613f7591617a55565b600160a01b600190039060081c1661020051610140015261020051610160015261020051808203906101800152613fab91617636565b938116610200516101a001528060801c60ff161515610200516101c001528060881c60ff161515610200516101e001528060901c60ff16613feb81617a3e565b61020051610200015260981c60ff1661400381617a3e565b6102005161022001526102005161024001526102005161026001526102005180820390610280015261403491617636565b90610200516102a001526102005180910390f35b34610659576060366003190112610659576004356001600160401b036024358181116106595761407c90369060040161782e565b906044359081116106595761409590369060040161782e565b9061409e617a99565b6140a66182bf565b6000838152600260205260409020546001600160a01b03161561062957518015908115614124575b5061060b57518015908115614118575b5061060b57806000526009602052600080516020618baa83398151915261176560ff60086040600020015416604051918291339083618137565b610100915011826140de565b610100915011836140ce565b34610659576000366003190112610659576020604051600080516020618bca8339815191528152f35b34610659576020366003190112610659576001600160a01b0361417a617668565b1680156141995760005260036020526020604060002054604051908152f35b6040516322718ad960e21b815260006004820152602490fd5b34610659576040366003190112610659576004356141ce61767e565b6141d6617a99565b6141de6182bf565b6000828152600260205260409020546001600160a01b03919082161561062957169081156109d2578060005260116020526040600020826000526020526040600020600160ff19825416179055600080516020618bea833981519152600080a36001600855005b34610659576020366003190112610659576020614263600435617ff8565b6040516001600160a01b039091168152f35b346106595761428336617a24565b9091806000526020916002835260018060a01b0393846040600020541615610629576142ae92618394565b604051926040840194604085528351809652606080860183828960051b8901019601926000925b8984106142e85788808989898301520390f35b9091929396858061438a600193605f198d82030188528b51805182526143148482015185840190617a48565b6040810151604083015261434b61433888830151610120808b870152850190617636565b6080808401519085830390860152617636565b9160a08981840151169082015260c06001600160801b0381840151169082015260e0820151151560e08201526101008092015191818403910152617636565b990194019401929391906142d5565b34610659576143a736617a24565b9091806000526020916002835260018060a01b0393846040600020541615610629576143d2926186fe565b6040519260408401946040855283518096526060958686019183888360051b8901019601926000915b83831061440e5788808989898301520390f35b909192939685808b600193605f198d82030187526144606108cf8d51938451845288868601511686850152604085015161444781617a3e565b604085015260e0818601519185015260e0840190617636565b916001600160801b0360a08181840151169084015260c08092015116910152990193019301919392906143fb565b346106595761449c36617895565b6144a46182bf565b8160005260206002815260018060a01b0380604060002054161561062957825180159081156146b5575b5061060b576144dc84617ff8565b81163314159081614697575b5080614666575b614655578260005260098152600a60406000200182516001600160401b0381116105cd576145218161045a84546178c4565b82601f82116001146145cb5791816145b094927f3baa231f35d3ecd4024f84078d62f0d287d046c6cb30161f1586f4885c5dda7d96946000916145c0575b508160011b916000199060031b1c19161790555b8460005260098152600b6040600020016001600160801b0342166001600160801b0319825416179055604051928392604084526040840190617636565b9033908301520390a26001600855005b90508401518861455f565b601f1982169083600052846000209160005b81811061463e5750927f3baa231f35d3ecd4024f84078d62f0d287d046c6cb30161f1586f4885c5dda7d969492600192826145b0989610614625575b5050811b019055614573565b86015160001960f88460031b161c191690558880614619565b91928660018192868b0151815501940192016145dd565b6040516282b42960e81b8152600490fd5b50600080516020618bca83398151915260005260078152604060002033600052815260ff60406000205416156144ef565b905083600052600982523390600960406000200154161415846144e8565b610100915011856144ce565b346106595760003660031901126106595760206040517fddaa901e2fe3bda354fe0ede2785152d5c109282a613fe024a056a3e66c41bb38152f35b346106595760403660031901126106595760206115e961471a61767e565b60043561886c565b346106595760c03660031901126106595760156024351015610659576064356001600160401b0381116106595761475d90369060040161782e565b6084356001600160401b0381116106595761477c90369060040161782e565b9060a4356001600160401b0381116106595761479c90369060040161782e565b3360009081527fc5ab710f8c4cc7c1afac50210ff340ab9e3a5797b579fcbb6114569dd517ba0a60205260409020549092907f68e79a7bf1e0bc45d0a330c573bc367f9cf464fd326078812f301165fbda4ef19060ff161561063b57506148016182bf565b6004356000908152600260205260409020546001600160a01b03161561062957600435600052600b60205260406000208054600160401b8110156105cd5760018101808355614850828461833b565b50508111614b76576148619161833b565b509160043583556001830160ff1981541660ff60243516179055604435600284015580516001600160401b0381116105cd578060038501926148a782612c1a86546178c4565b602090601f8311600114614b1057600092614b05575b50508160011b916000199060031b1c19161790555b8051906001600160401b0382116105cd576148fd826148f460048601546178c4565b600486016180bb565b602090601f8311600114614a9257600793929160009183614a87575b50508160011b916000199060031b1c19161760048201555b6005810180546001600160a01b0319163317905560068101805470ffffffffffffffffffffffffffffffffff1916426001600160801b031617600160801b17905582519101906001600160401b0381116105cd576149938161045a84546178c4565b602092601f8211600114614a235792819293600092614a18575b50508160011b916000199060031b1c19161790555b6040516149d181602435617a48565b60443560208201524260408201527f4a4200d10f50281fb36abe1c43b2c85f53e92f4bffe4cc227695f9c949f60f81606060043592a261294b604435602435600435618a10565b0151905083806149ad565b601f198216938360005260206000209160005b868110614a6f5750836001959610614a56575b505050811b0190556149c2565b015160001960f88460031b161c19169055838080614a49565b91926020600181928685015181550194019201614a36565b015190508580614919565b906004840160005260206000209160005b601f1985168110614aed575091839160019360079695601f19811610614ad4575b505050811b016004820155614931565b015160001960f88460031b161c19169055858080614ac4565b91926020600181928685015181550194019201614aa3565b0151905086806148bd565b6000858152602081209350601f198516905b818110614b5e5750908460019594939210614b45575b505050811b0190556148d2565b015160001960f88460031b161c19169055868080614b38565b92936020600181928786015181550195019301614b22565b634e487b7160e01b600052601160045260246000fd5b3461065957614b9a36617895565b614ba26182bf565b81600052600a602052604060002054156115f35780518015908115614f53575b5061060b5781600052600a60205260406000209060039060018060a01b03828401541633141580614f1a575b6146555760ff60088401541660068110156105f5576002036105e3576001830154928360005260096020526040600020906009820191825492336001600160601b0360a01b851617905583516001600160401b0381116105cd57614c6281614c59600a8501546178c4565b600a85016180bb565b6020601f8211600114614eae579080600a92600091614ea3575b508160011b9160001990891b1c1916179101555b846000526009602052614cfb6040600020600c600882019360ff19948886825416179055600b6001600160801b0342169301836001600160801b0319825416179055878560088301541617600882015501906001600160801b0382549181199060801b169116179055565b601160205260406000209160018060a01b03169182600052602052604060002081815416905581857f125883b94692baebecad9f111ed97ffa626523bbbadc6b0ef85ee1b56b9e52d5600080a384600052601160205260406000203360005260205260016040600020918254161790556040513385600080516020618bea833981519152600080a33315614e8d5750614d948433618aad565b6001600160a01b03811680614dbc57604051637e27328960e01b815260048101879052602490fd5b8203614e5d575091604091600080516020618baa83398151915293614de2601954618033565b601955857fd67aa7c45f61c95d774abbdd7384089523fabb58f544debbc64c53e937d9774185516020815280614e1d33966020830190617636565b0390a48151908152336020820152a27fdd3eafcd99a3f4d8b6ce7d52cf71f07a3e59d9d6c0b066eaa314812456b6b8556020604051428152a26001600855005b6040516364283d7b60e01b81526001600160a01b0392831660048201526024810186905291166044820152606490fd5b633250574960e11b815260006004820152602490fd5b90508601518a614c7c565b600a830160005260206000209060005b601f1984168110614f02575091600191600a9382601f19811610614eea575b5050811b01910155614c90565b880151600019838b1b60f8161c191690558a80614edd565b9091602060018192858b015181550193019101614ebe565b503360009081527fa70365933f78520ef41d6645ba61e509916296603327302d41466c063e8e2608602052604090205460ff1615614bee565b61010091501183614bc2565b3461065957610806614f7036617860565b9060405192614f7e846177a0565b60008452617ea4565b34610659576020366003190112610659576004356001600160401b03811161065957614fbd602061163b8193369060040161782e565b8101600d81520301902054604051908152f35b346106595760a0366003190112610659576024600481351015610659576044356001600160401b0381116106595761500c90369060040161782e565b6064356001600160401b0381116106595761502b90369060040161782e565b6001600160801b0390816084351660843503610659573360009081527f674f3e4fb6a06d567d1ba54367a37cfa280f2988d50a919f233dad2c73ed372060205260409020547f442a94f1a1fac79af32856af2a64f63648cfa2ef3b98610a5bb7cbec4cee69859060ff161561543257506150a36182bf565b6004356000908152600260205260409020546001600160a01b03161561062957600435600052601060205260406000208054600160401b81101561330d57600181018083556150f28284618364565b5050811161541d5761510391618364565b5092600435845560018401805461511a8735617a3e565b6001600160a81b0319163360ff60a01b191617863560a01b60ff60a01b161790558051906001600160401b03821161330d5781906151688261515f60028901546178c4565b600289016180bb565b602090601f83116001146153ab576000926153a0575b50508160011b916000199060031b1c19161760028401555b805160038401916001600160401b03821161330d576151b98261309d85546178c4565b602090601f83116001146153345760049493929160009183615329575b50508160011b916000199060031b1c19161790555b6001600160801b031960843560801b811642929092166001600160801b038116929092179390920192909255906004356000526009602052600b6040600020016152358435617a3e565b805460ff60981b853560981b169060ff60981b19161790556004356000526009602052600b604060002001918254161790556152718135617a3e565b600181351480615306575b6152868235617a3e565b156152e057615296601c54618033565b601c555b604051906152a88135617a3e565b3581523360208201527fbef39682416e0f6ff5c0dd7516ca989b4412f2784fcdda86d4c02e2a8477f454604060043592a26001600855005b6152ea8135617a3e565b600281350361529a576152fe601d54618033565b601d5561529a565b60043560005260096020526008604060002001600760ff1982541617905561527c565b0151905087806151d6565b90601f198316918460005260206000209260005b81811061538857509160019391856004989796941061536f575b505050811b0190556151eb565b015160001960f88460031b161c19169055878080615362565b92936020600181928786015181550195019301615348565b01519050868061517e565b9250600286016000526020600020906000935b601f1984168510615402576001945083601f198116106153e9575b505050811b016002840155615196565b015160001960f88460031b161c191690558680806153d9565b818101518355602094850194600190930192909101906153be565b85634e487b7160e01b60005260116004526000fd5b846044916040519163e2517d3f60e01b8352336004840152820152fd5b346106595760403660031901126106595761546861767e565b336001600160a01b038216036154845761080690600435617c41565b60405163334bd91960e11b8152600490fd5b34610659576154a436617994565b90600052600e60205260406000208054821015610659576020916154c7916179aa565b90546040519160031b1c8152f35b34610659576040366003190112610659576108066004356154f461767e565b9080600052600760205261550f600160406000200154617b9b565b617bc1565b3461065957602036600319011261065957600435600052600a60205260406000208061018052805490600181015461014052600160a01b60019003806002830154166102805280600383015416610240526004820154166101205260405180600581930190615582916178fe565b0361558d90826177bb565b60405190818061018051600601906155a4916178fe565b036155af90836177bb565b6101805190600782015492600883015460ff1692604051806009819301906155d6916178fe565b036155e190826177bb565b60405190818061018051600a01906155f8916178fe565b0361560390836177bb565b6101805195600b87015495600c88015494600d8901546001600160801b03169660405180600f819c0190615636916178fe565b03615641908b6177bb565b6040519a8b806101805160100190615658916178fe565b03615663908d6177bb565b6101805160118101546101c05260128101546101a052601381015460c052601481015460e0526040518091816102a052601501906156a0916178fe565b036102a051906156af916177bb565b60405180610260528061018051601601906156c9916178fe565b0361026051906156d8916177bb565b604051806101e0528061018051601701906156f2916178fe565b036101e05190615701916177bb565b604051806102205280610180516018019061571b916178fe565b03610220519061572a916177bb565b6040518061010052806101805160190190615744916178fe565b036101005190615753916177bb565b604051806080528061018051601a019061576c916178fe565b036080519061577a916177bb565b6040518060a0528061018051601b0190615793916178fe565b0360a051906157a1916177bb565b60405180610160528061018051601c01906157bb916178fe565b0361016051906157ca916177bb565b604051806102c05252610140516102c05160200152610280516102c05160400152610240516102c05160600152610120516102c051608001526103e0806102c05160a001526102c0510161581d91617636565b6102c0518082039060c0015261583291617636565b916001600160801b0381166102c05160e0015260801c6102c05161010001526102c051610120016158629161765b565b6102c05180820390610140015261587891617636565b6102c05180820390610160015261588e91617636565b926001600160801b0381166102c051610180015260801c6102c0516101a001526001600160801b0381166102c0516101c0015260801c6102c0516101e001526102c05161020001526102c0518082039061022001526158ec91617636565b6102c05180820390610240015261590291617636565b6101c0516102c05161026001526101a0516102c051610280015260c0516102c0516102a0015260e0516102c0516102c001526102c051808203906102e001526102a0519061594f91617636565b6102c051808203906103000152610260519061596a91617636565b6102c0518082039061032001526101e0519061598591617636565b6102c05180820390610340015261022051906159a091617636565b6102c05180820390610360015261010051906159bb91617636565b6102c051808203906103800152608051906159d591617636565b6102c051808203906103a0015260a051906159ef91617636565b6102c051808203906103c001526102c051906101605190615a0f91617636565b036102c051f35b34610659576020806003193601126106595760043590615a34617b3f565b615a3c6182bf565b81600052600a8152604060002054156115f35781600052600a815260ff6008604060002001541660068110156105f5576001036105e3576040600080516020618baa8339815191529183600052600a8152600182600020015493846000526009825282600020600c6008820160ff1990600282825416179055600b6001600160801b0342169301936001600160801b0319948486825416179055600052600a85528560002090600260088301918254161790550191825416179055615b02601854618033565b601855815190600282523390820152a26001600855005b3461065957615b2736617895565b615b2f617a99565b615b376182bf565b81600052600a602052604060002054156115f35781600052600a60205260ff6008604060002001541660068110156105f5578015159081615bd2575b506105e3576117657e3769141877ea965d5e44fe5ce863cb6df7f6e6d49cb451ab0dca05165ce4c89183600052600a6020526008604060002001600560ff19825416179055604051918291338352604060208401526040830190617636565b60019150141583615b73565b346106595760203660031901126106595760043560005260076020526020600160406000200154604051908152f35b3461065957610806615c1e36617860565b91617cb8565b346106595760003660031901126106595760206040517f2a5f906c256a5d799494fcd066e1f6c077689de1cdb65052a1624de4bace99bf8152f35b346106595760003660031901126106595760206040517f288a15c4a15d470e4cd9cad2f113b91206b520c26dbd3dd74627f0c057baa19c8152f35b34610659576000366003190112610659576000610160604051615cbc816176e0565b8281528260208201528260408201528260608201528260808201528260a08201528260c08201528260e08201528261010082015282610120820152826101408201520152610180604051615d0f816176e0565b6101606017549182815260185460208201526019546040820152601a546060820152601b546080820152601c5460a0820152601d5460c0820152601e5460e0820152601f54610100820152602054610120820152602154610140820152602254828201526040519283526020810151602084015260408101516040840152606081015160608401526080810151608084015260a081015160a084015260c081015160c084015260e081015160e08401526101008101516101008401526101208101516101208401526101408101516101408401520151610160820152f35b3461065957600319602036820112610659576001600160401b0360043511610659576101a0906004353603011261065957604051615e2a816176c4565b600435600401356001600160401b03811161065957615e5090600436918135010161782e565b8152602460043501356001600160401b03811161065957615e7890600436918135010161782e565b6020820152604460043501356001600160401b03811161065957615ea390600436918135010161782e565b6040820152606460043501356001600160401b03811161065957615ece90600436918135010161782e565b6060820152615ee1608460043501617694565b6080820152615ef460a46004350161784c565b60a0820152615f0760c46004350161784c565b60c082015260e460043501356001600160401b03811161065957615f3290600436918135010161782e565b60e082015261010460043501356001600160401b03811161065957615f5e90600436918135010161782e565b610100820152615f7361012460043501617694565b61012082015260043561014481013561014083015261016401356001600160401b03811161065957615fac90600436918135010161782e565b6101608201526101846004350135610180820152615fc8617ae3565b615fd06182bf565b8051518015908115616891575b5061060b576020810151518015908115616885575b5061060b576040810151518015908115616879575b5061060b57606081015151156109d25760808101516001600160a01b0316158015616863575b6109d2576001600160801b0360c0820151166001600160801b0360a08301511610156114885761605d81516179d8565b546126f65761606f60208201516179fe565b546126f65760145461608081618033565b60145561012082015161609d9082906001600160a01b0316618159565b6160ac61010083015182618193565b608082015160e0830151604051916160db918391611faf9190429087906001600160a01b031660208601618042565b602081519101209181600052600960205260406000209281518051906001600160401b0382116105cd57819061611b8261611589546178c4565b896180bb565b602090601f83116001146167f7576000926167ec575b50508160011b916000199060031b1c19161784555b60208201518051906001600160401b0382116105cd5781906161788261616f60018a01546178c4565b60018a016180bb565b602090601f831160011461677a5760009261676f575b50508160011b916000199060031b1c19161760018501555b60408201518051906001600160401b0382116105cd5781906161d8826161cf60028a01546178c4565b60028a016180bb565b602090601f83116001146166fd576000926166f2575b50508160011b916000199060031b1c19161760028501555b60608201518051906001600160401b0382116105cd5781906162388261622f60038a01546178c4565b60038a016180bb565b602090601f831160011461668057600092616675575b50508160011b916000199060031b1c19161760038501555b6080828101516004860180546001600160a01b0319166001600160a01b039290921691909117905560a083015160c084015190911b6001600160801b0319166001600160801b039190911617600585015560e08201518051906001600160401b0382116105cd5781906162e9826162e060068a01546178c4565b60068a016180bb565b602090601f8311600114616603576000926165f8575b50508160011b916000199060031b1c19161760068501555b6101008201518051906001600160401b0382116105cd57819061634a8261634160078a01546178c4565b60078a016180bb565b602090601f83116001146165865760009261657b575b50508160011b916000199060031b1c19161760078501555b600884810180546001600160a81b0319163390921b610100600160a81b031691909117905560018060a01b036101208301511660098501906001600160601b0360a01b825416179055600a84016163d2610fbe82546178c4565b7f4d616e75666163747572696e6720466163696c6974790000000000000000002c9055600b840180546001600160a01b031916426001600160801b0316179055600c840155610140810151600d84015561016081015180519093906001600160401b0381116105cd578060209561645982616450600e8701546178c4565b600e87016180bb565b8690601f831160011461650c57600092616501575b50508160011b916000199060031b1c191617600e8201555b600f6101808301519101558161649c82516179d8565b55816164aa848301516179fe565b556000828152601184526040808220610120840180516001600160a01b039081168552918752918320805460ff19166001179055905116908390600080516020618bea8339815191529080a361239d601754618033565b01519050868061646e565b9250600e840160005286600020906000935b601f1984168510616562576001945083601f19811610616549575b505050811b01600e820155616486565b015160001960f88460031b161c19169055868080616539565b818101518355938801936001909201919088019061651e565b015190508680616360565b9250600787016000526020600020906000935b601f19841685106165dd576001945083601f198116106165c4575b505050811b016007850155616378565b015160001960f88460031b161c191690558680806165b4565b81810151835560209485019460019093019290910190616599565b0151905086806162ff565b9250600687016000526020600020906000935b601f198416851061665a576001945083601f19811610616641575b505050811b016006850155616317565b015160001960f88460031b161c19169055868080616631565b81810151835560209485019460019093019290910190616616565b01519050868061624e565b9250600387016000526020600020906000935b601f19841685106166d7576001945083601f198116106166be575b505050811b016003850155616266565b015160001960f88460031b161c191690558680806166ae565b81810151835560209485019460019093019290910190616693565b0151905086806161ee565b9250600287016000526020600020906000935b601f1984168510616754576001945083601f1981161061673b575b505050811b016002850155616206565b015160001960f88460031b161c1916905586808061672b565b81810151835560209485019460019093019290910190616710565b01519050868061618e565b9250600187016000526020600020906000935b601f19841685106167d1576001945083601f198116106167b8575b505050811b0160018501556161a6565b015160001960f88460031b161c191690558680806167a8565b8181015183556020948501946001909301929091019061678d565b015190508680616131565b9250866000526020600020906000935b601f1984168510616848576001945083601f1981161061682f575b505050811b018455616146565b015160001960f88460031b161c19169055868080616822565b81810151835560209485019460019093019290910190616807565b506101208101516001600160a01b03161561602d565b61010091501182616007565b61010091501182615ff2565b61010091501182615fdd565b346106595760208060031936011261065957600435906168bb617a99565b6168c36182bf565b81600052600a8152604060002054156115f35781600052600a815260ff6008604060002001541660068110156105f5576105e3576000828152600a82526040902060088101805460ff19166001179055600b810180546001600160801b03164260801b6001600160801b0319161790557ff9011029a94eb60997b710d356797ef53371ec55bfe6db12ab6899b3bb4703ec9160099161176590604051938385948552840191016178fe565b346106595760203660031901126106595760043561698a617a99565b6169926182bf565b80600052600a602052604060002054156115f35780600052600a60205260ff6008604060002001541660068110156105f5576003036105e35780600052600a602052600d604060002060088101600460ff19825416179055016001600160801b0342166001600160801b03198254161790557fb0afeaee5d1e46a6cf0bd9dbf0e8b217ce5e084418ae08d982d3c53e6323091b6020604051428152a26001600855005b346106595760a0366003190112610659576004356001600160401b0360443581811161065957616a6990369060040161782e565b9060643581811161065957616a8290369060040161782e565b9060843590811161065957616a9b90369060040161782e565b91616aa4617a99565b616aac6182bf565b6000848152600260205260409020546001600160a01b03161561062957518015908115616b4e575b5061060b57518015908115616b42575b5061060b57518015908115616b36575b5061060b57806000526009602052600080516020618baa83398151915261176560ff60086040600020602435600f820155015416604051918291339083618137565b61010091501182616af4565b61010091501183616ae4565b61010091501184616ad4565b3461065957604036600319011261065957616b73617668565b602435616b7f81617ff8565b33151580616c2e575b80616c01575b616be9576001600160a01b039283169282918491167f8c5be1e5ebec7d5bd14f71427d1e84f3dd0314c0f7b2291e5b200ac8c7c3b925600080a4600090815260046020526040902080546001600160a01b0319169091179055005b60405163a9fbf51f60e01b8152336004820152602490fd5b5060018060a01b038116600052600560205260406000203360005260205260ff6040600020541615616b8e565b506001600160a01b038116331415616b88565b346106595760203660031901126106595760606103e0604051616c63816176a8565b600081526000602082015260006040820152600083820152600060808201528260a08201528260c0820152600060e0820152600061010082015260006101208201528261014082015282610160820152600061018082015260006101a082015260006101c082015260006101e08201526000610200820152826102208201528261024082015282610260820152600061028082015260006102a082015260006102c082015260006102e08201528261030082015282610320820152826103408201528261036082015282610380820152826103a0820152826103c08201520152600435600052600a602052604060002054156115f357600435600052600a602052604060002060405190616d76826176a8565b805482526001810154602083015260028101546001600160a01b039081166040808501919091526003830154821660608501526004830154909116608084015251616dc8816114da81600586016178fe565b60a0830152604051616de1816114da81600686016178fe565b60c083015260078101546001600160801b03811660e084015260801c61010083015260ff60088201541660068110156105f557610120830152604051616e2e816114da81600986016178fe565b610140830152604051616e48816114da81600a86016178fe565b610160830152600b8101546001600160801b03811661018084015260801c6101a0830152600c8101546001600160801b0381166101c084015260801c6101e08301526001600160801b03600d82015416610200830152600e810154616eac816182e2565b90616eba60405192836177bb565b80825260208201600e840160005260206000206000915b83831061731f5786601c61700c8888610220850152604051616efa816114da81600f86016178fe565b610240850152604051616f14816114da81601086016178fe565b610260850152601181015461028085015260128101546102a085015260138101546102c085015260148101546102e0850152604051616f5a816114da81601586016178fe565b610300850152604051616f74816114da81601686016178fe565b610320850152604051616f8e816114da81601786016178fe565b610340850152604051616fa8816114da81601886016178fe565b610360850152604051616fc2816114da81601986016178fe565b610380850152604051616fdc816114da81601a86016178fe565b6103a0850152604051616ff6816114da81601b86016178fe565b6103c08501526114da60405180948193016178fe565b6103e0820152604051809160208252805160208301526020810151604083015260018060a01b03604082015116606083015260018060a01b03606082015116608083015260018060a01b0360808201511660a08301526171096170f161709c61708660a085015161040060c0880152610420870190617636565b60c0850151868203601f190160e0880152617636565b6001600160801b0360e0850151166101008601526001600160801b03610100850151166101208601526170d961012085015161014087019061765b565b610140840151858203601f1901610160870152617636565b610160830151848203601f1901610180860152617636565b6001600160801b03610180830151166101a08401526001600160801b036101a0830151166101c08401526001600160801b036101c0830151166101e08401526001600160801b036101e0830151166102008401526001600160801b036102008301511661022084015261022082015190601f1984820301610240850152815180825260208201916020808360051b8301019401926000915b8383106172ec578780611504896103e06172d76172c16172a96172916172798f6172496172006171e8617261938d6102408d015190610260601f1982850301910152617636565b6102608b01518d8203601f19016102808f0152617636565b6102808a01516102a08d01526102a08a01516102c08d01526102c08a01516102e08d01526102e08a01516103008d01526103008a01518c610320601f1982850301910152617636565b6103208901518b8203601f19016103408d0152617636565b6103408801518a8203601f19016103608c0152617636565b610360870151898203601f19016103808b0152617636565b610380860151888203601f19016103a08a0152617636565b6103a0850151878203601f19016103c0890152617636565b6103c0840151868203601f190184880152617636565b910151838203601f1901610400850152617636565b9193959650919360208061730c600193601f198682030187528951617636565b97019301930190928796959492936171a1565b600160208192604051617336816114da81896178fe565b815201920192019190616ed1565b346106595760203660031901126106595760043561736181617ff8565b506000526004602052602060018060a01b0360406000205416604051908152f35b346106595760203660031901126106595760206115e960043561894e565b346106595760003660031901126106595760206040517f68e79a7bf1e0bc45d0a330c573bc367f9cf464fd326078812f301165fbda4ef18152f35b3461065957600036600319011261065957610180601754601854601954601a54601b54601c54601d54601e5491601f54936020549560215497602254996040519b8c5260208c015260408b015260608a0152608089015260a088015260c087015260e0860152610100850152610120840152610140830152610160820152f35b34610659576000366003190112610659576040516000805461747c816178c4565b8084529060019081811690811561345c57506001146174a557611504846133ef818603826177bb565b600080805292507f290decd9548b62a8d60345a988386fc84ba6bc95484008f6362f93160ef3e5635b8284106174e65750505081016020016133ef826133df565b805460208587018101919091529093019281016174ce565b346106595760003660031901126106595760206040517f442a94f1a1fac79af32856af2a64f63648cfa2ef3b98610a5bb7cbec4cee69858152f35b346106595760003660031901126106595760206040517f1d75a899856f55b7f8490b3d5427773cf9af25d5473c856b9ac58e0eb0fdd7d38152f35b34610659576020366003190112610659576004359063ffffffff60e01b821680920361065957602091637965db0b60e01b81149081156175b6575b5015158152f35b632483248360e11b8114915081156175d0575b50836175af565b6380ac58cd60e01b811491508115617602575b81156175f1575b50836175c9565b6301ffc9a760e01b149050836175ea565b635b5e139f60e01b811491506175e3565b60005b8381106176265750506000910152565b8181015183820152602001617616565b9060209161764f81518092818552858086019101617613565b601f01601f1916010190565b9060068210156105f55752565b600435906001600160a01b038216820361065957565b602435906001600160a01b038216820361065957565b35906001600160a01b038216820361065957565b61040081019081106001600160401b038211176105cd57604052565b6101a081019081106001600160401b038211176105cd57604052565b61018081019081106001600160401b038211176105cd57604052565b61012081019081106001600160401b038211176105cd57604052565b60a081019081106001600160401b038211176105cd57604052565b606081019081106001600160401b038211176105cd57604052565b6102c081019081106001600160401b038211176105cd57604052565b60c081019081106001600160401b038211176105cd57604052565b60e081019081106001600160401b038211176105cd57604052565b602081019081106001600160401b038211176105cd57604052565b90601f801991011681019081106001600160401b038211176105cd57604052565b6001600160401b0381116105cd57601f01601f191660200190565b929192617803826177dc565b9161781160405193846177bb565b829481845281830111610659578281602093846000960137010152565b9080601f8301121561065957816020617849933591016177f7565b90565b35906001600160801b038216820361065957565b6060906003190112610659576001600160a01b0390600435828116810361065957916024359081168103610659579060443590565b9060406003198301126106595760043591602435906001600160401b038211610659576178499160040161782e565b90600182811c921680156178f4575b60208310146178de57565b634e487b7160e01b600052602260045260246000fd5b91607f16916178d3565b906000929180549161790f836178c4565b9182825260019384811690816000146179715750600114617931575b50505050565b90919394506000526020928360002092846000945b83861061795d57505050500101903880808061792b565b805485870183015294019385908201617946565b9294505050602093945060ff191683830152151560051b0101903880808061792b565b6040906003190112610659576004359060243590565b80548210156179c25760005260206000200190600090565b634e487b7160e01b600052603260045260246000fd5b60206179f1918160405193828580945193849201617613565b8101600c81520301902090565b6020617a17918160405193828580945193849201617613565b8101600d81520301902090565b606090600319011261065957600435906024359060443590565b600411156105f557565b9060158210156105f55752565b9060088210156105f55752565b6040906003190112610659576004359060243560158110156106595790565b9060158110156105f557600052602052604060002090565b3360009081527fa70365933f78520ef41d6645ba61e509916296603327302d41466c063e8e26086020526040902054600080516020618bca8339815191529060ff161561063b5750565b3360009081527f74bb1ca9260fc37125f5e18e451ff1e642aa55b4eec93cdfb89e91bff73aafdd60205260409020547feefb95e842a3287179d933b4460be539a1d5af11aa8b325bb45c5c8dc92de4ed9060ff161561063b5750565b3360009081527f5a4a839a8a41e9c56bead82789209cd708f718a22ba06c2110a5bfb3dc4b80bc60205260409020547fddaa901e2fe3bda354fe0ede2785152d5c109282a613fe024a056a3e66c41bb39060ff161561063b5750565b80600052600760205260406000203360005260205260ff604060002054161561063b5750565b906000918083526007602052604083209160018060a01b03169182845260205260ff60408420541615600014617c3c5780835260076020526040832082845260205260408320600160ff198254161790557f2f8788117e7eff1d82e926ec794901d17c78024a50270940304540a733656f0d339380a4600190565b505090565b906000918083526007602052604083209160018060a01b03169182845260205260ff604084205416600014617c3c578083526007602052604083208284526020526040832060ff1981541690557ff6391f5c32d9c69d2a47ea670b442974b53935d1edc7fd64eb21e047a839171b339380a4600190565b906001600160a01b039081168015617e8b5760009184835260209160028352604092828486205416151580617e74575b617e63579086918286526002815283858720541695869133151580617dcd575b509060027fddf252ad1be2c89b69c2b068fc378daa952ba7f163c4a11628f55a4df523b3ef9284617d9a575b85835260038152888320805460010190558683525286812080546001600160a01b0319168517905580a483168203617d6c5750505050565b516364283d7b60e01b81526001600160a01b0392831660048201526024810193909352166044820152606490fd5b600087815260046020526040902080546001600160a01b0319169055848352600381528883208054600019019055617d34565b91939450915080617e22575b15617de957879291869138617d08565b848887617e06576024915190637e27328960e01b82526004820152fd5b604491519063177e802f60e01b82523360048301526024820152fd5b503386148015617e47575b80617dd95750878252600481523384868420541614617dd9565b5085825260058152848220338352815260ff8583205416617e2d565b83516358b2164f60e11b8152600490fd5b506009815260ff600b858720015460801c16617ce8565b604051633250574960e11b815260006004820152602490fd5b929092617eb2838583617cb8565b833b617ebe5750505050565b604051630a85bd0160e11b8082523360048301526001600160a01b0392831660248301526044820194909452608060648201529493169260209290918590617f0a906084830190617636565b039483816000978189895af1869181617fb4575b50617f7f575050503d600014617f76573d617f38816177dc565b90617f4660405192836177bb565b81528093823d92013e5b82519283617f7157604051633250574960e11b815260048101849052602490fd5b019050fd5b60609250617f50565b919450915063ffffffff60e01b1603617f9c57503880808061792b565b60249060405190633250574960e11b82526004820152fd5b9091508481813d8311617ff1575b617fcc81836177bb565b81010312617fed57516001600160e01b031981168103617fed579038617f1e565b8680fd5b503d617fc2565b6000818152600260205260409020546001600160a01b031690811561801b575090565b60249060405190637e27328960e01b82526004820152fd5b6000198114614b765760010190565b9160549493916001600160601b03199060601b168352601483015260348201526180758251809360208685019101617613565b010190565b818110618085575050565b6000815560010161807a565b90601f811161809e575050565b6180b991600052601f6020600020910160051c81019061807a565b565b9190601f81116180ca57505050565b6180b9926000526020600020906020601f840160051c830193106180f6575b601f0160051c019061807a565b90915081906180e9565b916181299061811b6178499593606086526060860190617636565b908482036020860152617636565b916040818403910152617636565b90929160209061814b836040810196617a55565b6001600160a01b0316910152565b6001600160a01b039181831615617e8b5761817391618aad565b1661817a57565b6040516339e3563760e11b815260006004820152602490fd5b9190916000908082526020916006835260408120908551906001600160401b0382116182ab576181c78261309d85546178c4565b8490601f831160011461822757907ff8e1a15aba9398e019f0b49df1a4fde98ee17ae345cb5f6b5e2c27f5033e8ce796978361821c575b50508160011b916000199060031b1c19161790555b604051908152a1565b0151905038806181fe565b9196601f198816848452868420935b81811061829457509160019391897ff8e1a15aba9398e019f0b49df1a4fde98ee17ae345cb5f6b5e2c27f5033e8ce7999a941061827b575b505050811b019055618213565b015160001960f88460031b161c1916905538808061826e565b929387600181928786015181550195019301618236565b634e487b7160e01b81526041600452602490fd5b6002600854146182d0576002600855565b604051633ee5aeb560e01b8152600490fd5b6001600160401b0381116105cd5760051b60200190565b8054600160401b8110156105cd57618316916001820181556179aa565b819291549060031b91821b91600019901b1916179055565b91908201809211614b7657565b80548210156179c25760005260206000209060031b0190600090565b91908203918211614b7657565b80548210156179c2576000526005602060002091020190600090565b80518210156179c25760209160051b010190565b9291926000908152602090600b82526040918282209283549687861015618567576183bf908661832e565b8588821161855f575b6183d191618357565b936183db856182e2565b956183e8835197886177bb565b858752601f196183f7876182e2565b0184865b82811061851457505050845b86811061841957505050505050509190565b61842c618426828461832e565b8461833b565b50845190618439826176fc565b8054825260ff8060018301541660158110156185005783926007926184da928b6184fb9897015260028201548a860152895161847c816114da81600387016178fe565b60608601528951618494816114da81600487016178fe565b6080908187015260018060a01b0360058401541660a08701526006830154906001600160801b03821660c08801521c16151560e08501526114da895180948193016178fe565b6101008201526184ea828b618380565b526184f5818a618380565b50618033565b618407565b634e487b7160e01b8a52602160045260248afd5b855161851f816176fc565b88815288838201528887820152606080808301528060808301528960a08301528960c08301528960e083015261010082015282828c0101520185906183fb565b8891506183c8565b5092505091505190618578826177a0565b81529190565b9092919260009182526020600f8152604090818420805496878510156186ee576185a8908561832e565b848882116186e6575b6185ba91618357565b936185c4856182e2565b956185d1855197886177bb565b858752601f196185e0876182e2565b0184825b8281106186ae575050505b858110618600575050505050509190565b806186176186116186a9938561832e565b85618364565b508651906186248261776a565b8054825260018101546001600160a01b0381168884015260a0916001600160801b039160049190841c60ff1661865981617a3e565b8b8601528a51618670816114da81600286016178fe565b60608601528a51618688816114da81600386016178fe565b60808601520154169082015261869e828a618380565b526184f58189618380565b6185ef565b87516186b98161776a565b848152848382015284898201526060808083015260808201528460a082015282828c0101520185906185e4565b8891506185b1565b50505090505190618578826177a0565b909291926000918252602060108152604090818420805496878510156186ee57618728908561832e565b84888211618864575b61873a91618357565b93618744856182e2565b95618751855197886177bb565b858752601f19618760876182e2565b0184825b828110618826575050505b858110618780575050505050509190565b80618791618611618821938561832e565b5086519061879e82617785565b8054825260018101546001600160a01b0381168884015260a09190821c60ff166187c781617a3e565b8984015288516187de816114da81600286016178fe565b606084015260048951916187f98361154081600385016178fe565b608092838601520154916001600160801b038316908401521c60c082015261869e828a618380565b61876f565b875161883181617785565b848152848382015284898201526060808083015260808201528460a08201528460c082015282828c010152018590618764565b889150618731565b9060008281526020916002835260018060a01b039260409380858520541615618945576011825280858520931692838552825260ff858520541695861561892e575b50508415618903575b84156188c5575b5050505090565b60ff94507f273dcf2136c7d8ef632bb8ef13dbca69a8f36fa620c7468671b3153d46a211c083526007815283832091835252205416388080806188be565b600080516020618bca83398151915283526007815283832082845281528383205460ff1694506188b7565b8392965061893b90617ff8565b16149338806188ae565b50505091505090565b6000908152600260205260409020546001600160a01b03161561898257600960205260ff600b6040600020015460881c1690565b600090565b6000908152600a6020526040812060ff60088201541660068110156189fc57600481149081156189f1575b506189ed57600b6001600160801b03910154169062278d0082018092116189d95750421190565b634e487b7160e01b81526011600452602490fd5b5090565b6005915014386189b2565b634e487b7160e01b83526021600452602483fd5b9190826000526013602052618a29816040600020617a81565b9060ff6002830154161561792b578154928381128015618aa0575b618a50575b5050505050565b7e56d3318e0d27d14433119710be9f0c132f2d4dd2c001a354489860284556a0936001608094015491618a866040518095617a48565b602084015260408301526060820152a23880808080618a49565b5060018301548113618a44565b6000828152600260209081526040808320546001600160a01b039594929391908616151580618b92575b618b8257907fddf252ad1be2c89b69c2b068fc378daa952ba7f163c4a11628f55a4df523b3ef9185825260028552600287828420541697889586618b4f575b169586618b39575b87845252812080546001600160a01b0319168517905580a490565b8684526003815282842060018154019055618b1e565b600089815260046020526040902080546001600160a01b0319169055868552600388528385208054600019019055618b16565b516358b2164f60e11b8152600490fd5b506009845260ff600b828420015460801c16618ad756fe1fee65bf2ede0d34fc746effd1d457315a439158afe48d47a09cd92b007fc242a49807205ce4d355092ef5a8a18f56e8913cf4a201fbe287825b095693c217753c3a9147a1fc73dd51a32f4d10c43d457e8cb826eb6f35cac6349eb965ba82b4a26469706673582212205d46f74fe3fad5665e9b9f399e5d32ec1f027119ca9a0506ab32ebebb2594e2164736f6c634300081400332f8788117e7eff1d82e926ec794901d17c78024a50270940304540a733656f0d",
  "linkReferences": {},
  "deployedLinkReferences": {}
}