{
  "_format": "hh-sol-artifact-1",
  "contractName": "UnifiedProTrack",
  "sourceName": "contracts/ProTrack.sol",
  "abi": [
    {
      "inputs": [],
      "stateMutability": "nonpayable",
      "type": "constructor"
    },
    {
      "inputs": [],
      "name": "AccessControlBadConfirmation",
      "type": "error"
    },
    {
      "inputs": [
        {
          "internalType": "address",
          "name": "account",
          "type": "address"
        },
        {
          "internalType": "bytes32",
          "name": "neededRole",
          "type": "bytes32"
        }
      ],
      "name": "AccessControlUnauthorizedAccount",
      "type": "error"
    },
    {
      "inputs": [
        {
          "internalType": "address",
          "name": "sender",
          "type": "address"
        },
        {
          "internalType": "uint256",
          "name": "tokenId",
          "type": "uint256"
        },
        {
          "internalType": "address",
          "name": "owner",
          "type": "address"
        }
      ],
      "name": "ERC721IncorrectOwner",
      "type": "error"
    },
    {
      "inputs": [
        {
          "internalType": "address",
          "name": "operator",
          "type": "address"
        },
        {
          "internalType": "uint256",
          "name": "tokenId",
          "type": "uint256"
        }
      ],
      "name": "ERC721InsufficientApproval",
      "type": "error"
    },
    {
      "inputs": [
        {
          "internalType": "address",
          "name": "approver",
          "type": "address"
        }
      ],
      "name": "ERC721InvalidApprover",
      "type": "error"
    },
    {
      "inputs": [
        {
          "internalType": "address",
          "name": "operator",
          "type": "address"
        }
      ],
      "name": "ERC721InvalidOperator",
      "type": "error"
    },
    {
      "inputs": [
        {
          "internalType": "address",
          "name": "owner",
          "type": "address"
        }
      ],
      "name": "ERC721InvalidOwner",
      "type": "error"
    },
    {
      "inputs": [
        {
          "internalType": "address",
          "name": "receiver",
          "type": "address"
        }
      ],
      "name": "ERC721InvalidReceiver",
      "type": "error"
    },
    {
      "inputs": [
        {
          "internalType": "address",
          "name": "sender",
          "type": "address"
        }
      ],
      "name": "ERC721InvalidSender",
      "type": "error"
    },
    {
      "inputs": [
        {
          "internalType": "uint256",
          "name": "tokenId",
          "type": "uint256"
        }
      ],
      "name": "ERC721NonexistentToken",
      "type": "error"
    },
    {
      "inputs": [],
      "name": "InvalidInput",
      "type": "error"
    },
    {
      "inputs": [],
      "name": "InvalidStatus",
      "type": "error"
    },
    {
      "inputs": [],
      "name": "InvalidTimestamp",
      "type": "error"
    },
    {
      "inputs": [],
      "name": "ProductAlreadyExists",
      "type": "error"
    },
    {
      "inputs": [],
      "name": "ProductAlreadyRecalled",
      "type": "error"
    },
    {
      "inputs": [],
      "name": "ProductNotFound",
      "type": "error"
    },
    {
      "inputs": [],
      "name": "ReentrancyGuardReentrantCall",
      "type": "error"
    },
    {
      "inputs": [],
      "name": "ShipmentNotFound",
      "type": "error"
    },
    {
      "inputs": [],
      "name": "StringTooLong",
      "type": "error"
    },
    {
      "inputs": [],
      "name": "TokenIsSoulbound",
      "type": "error"
    },
    {
      "inputs": [],
      "name": "Unauthorized",
      "type": "error"
    },
    {
      "anonymous": false,
      "inputs": [
        {
          "indexed": true,
          "internalType": "uint256",
          "name": "tokenId",
          "type": "uint256"
        },
        {
          "indexed": true,
          "internalType": "address",
          "name": "user",
          "type": "address"
        }
      ],
      "name": "AccessGranted",
      "type": "event"
    },
    {
      "anonymous": false,
      "inputs": [
        {
          "indexed": true,
          "internalType": "uint256",
          "name": "tokenId",
          "type": "uint256"
        },
        {
          "indexed": true,
          "internalType": "address",
          "name": "user",
          "type": "address"
        }
      ],
      "name": "AccessRevoked",
      "type": "event"
    },
    {
      "anonymous": false,
      "inputs": [
        {
          "indexed": true,
          "internalType": "address",
          "name": "owner",
          "type": "address"
        },
        {
          "indexed": true,
          "internalType": "address",
          "name": "approved",
          "type": "address"
        },
        {
          "indexed": true,
          "internalType": "uint256",
          "name": "tokenId",
          "type": "uint256"
        }
      ],
      "name": "Approval",
      "type": "event"
    },
    {
      "anonymous": false,
      "inputs": [
        {
          "indexed": true,
          "internalType": "address",
          "name": "owner",
          "type": "address"
        },
        {
          "indexed": true,
          "internalType": "address",
          "name": "operator",
          "type": "address"
        },
        {
          "indexed": false,
          "internalType": "bool",
          "name": "approved",
          "type": "bool"
        }
      ],
      "name": "ApprovalForAll",
      "type": "event"
    },
    {
      "anonymous": false,
      "inputs": [
        {
          "indexed": false,
          "internalType": "uint256",
          "name": "_fromTokenId",
          "type": "uint256"
        },
        {
          "indexed": false,
          "internalType": "uint256",
          "name": "_toTokenId",
          "type": "uint256"
        }
      ],
      "name": "BatchMetadataUpdate",
      "type": "event"
    },
    {
      "anonymous": false,
      "inputs": [
        {
          "indexed": true,
          "internalType": "uint256",
          "name": "productId",
          "type": "uint256"
        },
        {
          "indexed": false,
          "internalType": "enum UnifiedProTrack.ComplianceStatus",
          "name": "status",
          "type": "uint8"
        },
        {
          "indexed": false,
          "internalType": "address",
          "name": "reviewer",
          "type": "address"
        }
      ],
      "name": "ComplianceReviewed",
      "type": "event"
    },
    {
      "anonymous": false,
      "inputs": [
        {
          "indexed": true,
          "internalType": "uint256",
          "name": "tokenId",
          "type": "uint256"
        },
        {
          "indexed": true,
          "internalType": "address",
          "name": "from",
          "type": "address"
        },
        {
          "indexed": true,
          "internalType": "address",
          "name": "to",
          "type": "address"
        },
        {
          "indexed": false,
          "internalType": "string",
          "name": "location",
          "type": "string"
        }
      ],
      "name": "CustodyTransferred",
      "type": "event"
    },
    {
      "anonymous": false,
      "inputs": [
        {
          "indexed": true,
          "internalType": "uint256",
          "name": "tokenId",
          "type": "uint256"
        },
        {
          "indexed": false,
          "internalType": "enum UnifiedProTrack.SensorType",
          "name": "sensorType",
          "type": "uint8"
        },
        {
          "indexed": false,
          "internalType": "int256",
          "name": "value",
          "type": "int256"
        },
        {
          "indexed": false,
          "internalType": "uint256",
          "name": "timestamp",
          "type": "uint256"
        }
      ],
      "name": "IoTDataRecorded",
      "type": "event"
    },
    {
      "anonymous": false,
      "inputs": [
        {
          "indexed": true,
          "internalType": "uint256",
          "name": "tokenId",
          "type": "uint256"
        },
        {
          "indexed": false,
          "internalType": "string",
          "name": "newLocation",
          "type": "string"
        },
        {
          "indexed": false,
          "internalType": "address",
          "name": "updatedBy",
          "type": "address"
        }
      ],
      "name": "LocationUpdated",
      "type": "event"
    },
    {
      "anonymous": false,
      "inputs": [
        {
          "indexed": false,
          "internalType": "uint256",
          "name": "_tokenId",
          "type": "uint256"
        }
      ],
      "name": "MetadataUpdate",
      "type": "event"
    },
    {
      "anonymous": false,
      "inputs": [
        {
          "indexed": true,
          "internalType": "uint256",
          "name": "suggestionId",
          "type": "uint256"
        },
        {
          "indexed": false,
          "internalType": "address",
          "name": "implementedBy",
          "type": "address"
        }
      ],
      "name": "OptimizationImplemented",
      "type": "event"
    },
    {
      "anonymous": false,
      "inputs": [
        {
          "indexed": true,
          "internalType": "uint256",
          "name": "suggestionId",
          "type": "uint256"
        },
        {
          "indexed": false,
          "internalType": "string",
          "name": "description",
          "type": "string"
        }
      ],
      "name": "OptimizationSuggested",
      "type": "event"
    },
    {
      "anonymous": false,
      "inputs": [
        {
          "indexed": true,
          "internalType": "uint256",
          "name": "tokenId",
          "type": "uint256"
        },
        {
          "indexed": false,
          "internalType": "string",
          "name": "rfidHash",
          "type": "string"
        },
        {
          "indexed": false,
          "internalType": "string",
          "name": "barcode",
          "type": "string"
        },
        {
          "indexed": true,
          "internalType": "address",
          "name": "manufacturer",
          "type": "address"
        },
        {
          "indexed": false,
          "internalType": "string",
          "name": "productName",
          "type": "string"
        }
      ],
      "name": "ProductMinted",
      "type": "event"
    },
    {
      "anonymous": false,
      "inputs": [
        {
          "indexed": true,
          "internalType": "uint256",
          "name": "tokenId",
          "type": "uint256"
        },
        {
          "indexed": false,
          "internalType": "string",
          "name": "batchId",
          "type": "string"
        }
      ],
      "name": "ProductPackaged",
      "type": "event"
    },
    {
      "anonymous": false,
      "inputs": [
        {
          "indexed": true,
          "internalType": "uint256",
          "name": "tokenId",
          "type": "uint256"
        },
        {
          "indexed": true,
          "internalType": "address",
          "name": "initiator",
          "type": "address"
        },
        {
          "indexed": false,
          "internalType": "string",
          "name": "reason",
          "type": "string"
        }
      ],
      "name": "ProductRecalled",
      "type": "event"
    },
    {
      "anonymous": false,
      "inputs": [
        {
          "indexed": true,
          "internalType": "uint256",
          "name": "tokenId",
          "type": "uint256"
        },
        {
          "indexed": false,
          "internalType": "enum UnifiedProTrack.ProductStatus",
          "name": "status",
          "type": "uint8"
        },
        {
          "indexed": false,
          "internalType": "address",
          "name": "updatedBy",
          "type": "address"
        }
      ],
      "name": "ProductStatusUpdated",
      "type": "event"
    },
    {
      "anonymous": false,
      "inputs": [
        {
          "indexed": true,
          "internalType": "uint256",
          "name": "productId",
          "type": "uint256"
        },
        {
          "indexed": false,
          "internalType": "enum UnifiedProTrack.QualityStatus",
          "name": "status",
          "type": "uint8"
        },
        {
          "indexed": false,
          "internalType": "address",
          "name": "inspector",
          "type": "address"
        }
      ],
      "name": "QualityChecked",
      "type": "event"
    },
    {
      "anonymous": false,
      "inputs": [
        {
          "indexed": true,
          "internalType": "bytes32",
          "name": "role",
          "type": "bytes32"
        },
        {
          "indexed": true,
          "internalType": "bytes32",
          "name": "previousAdminRole",
          "type": "bytes32"
        },
        {
          "indexed": true,
          "internalType": "bytes32",
          "name": "newAdminRole",
          "type": "bytes32"
        }
      ],
      "name": "RoleAdminChanged",
      "type": "event"
    },
    {
      "anonymous": false,
      "inputs": [
        {
          "indexed": true,
          "internalType": "bytes32",
          "name": "role",
          "type": "bytes32"
        },
        {
          "indexed": true,
          "internalType": "address",
          "name": "account",
          "type": "address"
        },
        {
          "indexed": true,
          "internalType": "address",
          "name": "sender",
          "type": "address"
        }
      ],
      "name": "RoleGranted",
      "type": "event"
    },
    {
      "anonymous": false,
      "inputs": [
        {
          "indexed": true,
          "internalType": "bytes32",
          "name": "role",
          "type": "bytes32"
        },
        {
          "indexed": true,
          "internalType": "address",
          "name": "account",
          "type": "address"
        },
        {
          "indexed": true,
          "internalType": "address",
          "name": "sender",
          "type": "address"
        }
      ],
      "name": "RoleRevoked",
      "type": "event"
    },
    {
      "anonymous": false,
      "inputs": [
        {
          "indexed": true,
          "internalType": "uint256",
          "name": "tokenId",
          "type": "uint256"
        },
        {
          "indexed": false,
          "internalType": "enum UnifiedProTrack.SensorType",
          "name": "sensorType",
          "type": "uint8"
        },
        {
          "indexed": false,
          "internalType": "int256",
          "name": "value",
          "type": "int256"
        },
        {
          "indexed": false,
          "internalType": "int256",
          "name": "minThreshold",
          "type": "int256"
        },
        {
          "indexed": false,
          "internalType": "int256",
          "name": "maxThreshold",
          "type": "int256"
        }
      ],
      "name": "SensorThresholdAlert",
      "type": "event"
    },
    {
      "anonymous": false,
      "inputs": [
        {
          "indexed": true,
          "internalType": "uint256",
          "name": "tokenId",
          "type": "uint256"
        },
        {
          "indexed": false,
          "internalType": "enum UnifiedProTrack.SensorType",
          "name": "sensorType",
          "type": "uint8"
        },
        {
          "indexed": false,
          "internalType": "int256",
          "name": "minValue",
          "type": "int256"
        },
        {
          "indexed": false,
          "internalType": "int256",
          "name": "maxValue",
          "type": "int256"
        }
      ],
      "name": "SensorThresholdUpdated",
      "type": "event"
    },
    {
      "anonymous": false,
      "inputs": [
        {
          "indexed": true,
          "internalType": "uint256",
          "name": "shipmentId",
          "type": "uint256"
        },
        {
          "indexed": false,
          "internalType": "string",
          "name": "tempKeyId",
          "type": "string"
        }
      ],
      "name": "ShipmentApproved",
      "type": "event"
    },
    {
      "anonymous": false,
      "inputs": [
        {
          "indexed": true,
          "internalType": "uint256",
          "name": "shipmentId",
          "type": "uint256"
        },
        {
          "indexed": false,
          "internalType": "address",
          "name": "cancelledBy",
          "type": "address"
        },
        {
          "indexed": false,
          "internalType": "string",
          "name": "reason",
          "type": "string"
        }
      ],
      "name": "ShipmentCancelled",
      "type": "event"
    },
    {
      "anonymous": false,
      "inputs": [
        {
          "indexed": true,
          "internalType": "uint256",
          "name": "shipmentId",
          "type": "uint256"
        },
        {
          "indexed": false,
          "internalType": "uint256",
          "name": "confirmedAt",
          "type": "uint256"
        }
      ],
      "name": "ShipmentConfirmed",
      "type": "event"
    },
    {
      "anonymous": false,
      "inputs": [
        {
          "indexed": true,
          "internalType": "uint256",
          "name": "shipmentId",
          "type": "uint256"
        },
        {
          "indexed": false,
          "internalType": "uint256",
          "name": "deliveredAt",
          "type": "uint256"
        }
      ],
      "name": "ShipmentDelivered",
      "type": "event"
    },
    {
      "anonymous": false,
      "inputs": [
        {
          "indexed": true,
          "internalType": "uint256",
          "name": "shipmentId",
          "type": "uint256"
        },
        {
          "indexed": true,
          "internalType": "uint256",
          "name": "productId",
          "type": "uint256"
        },
        {
          "indexed": true,
          "internalType": "address",
          "name": "from",
          "type": "address"
        },
        {
          "indexed": false,
          "internalType": "address",
          "name": "to",
          "type": "address"
        }
      ],
      "name": "ShipmentRequested",
      "type": "event"
    },
    {
      "anonymous": false,
      "inputs": [
        {
          "indexed": true,
          "internalType": "uint256",
          "name": "tokenId",
          "type": "uint256"
        },
        {
          "indexed": false,
          "internalType": "address",
          "name": "by",
          "type": "address"
        }
      ],
      "name": "TokenMadeSoulbound",
      "type": "event"
    },
    {
      "anonymous": false,
      "inputs": [
        {
          "indexed": true,
          "internalType": "address",
          "name": "from",
          "type": "address"
        },
        {
          "indexed": true,
          "internalType": "address",
          "name": "to",
          "type": "address"
        },
        {
          "indexed": true,
          "internalType": "uint256",
          "name": "tokenId",
          "type": "uint256"
        }
      ],
      "name": "Transfer",
      "type": "event"
    },
    {
      "inputs": [],
      "name": "ADMIN_ROLE",
      "outputs": [
        {
          "internalType": "bytes32",
          "name": "",
          "type": "bytes32"
        }
      ],
      "stateMutability": "view",
      "type": "function"
    },
    {
      "inputs": [],
      "name": "COMPLIANCE_ROLE",
      "outputs": [
        {
          "internalType": "bytes32",
          "name": "",
          "type": "bytes32"
        }
      ],
      "stateMutability": "view",
      "type": "function"
    },
    {
      "inputs": [],
      "name": "CUSTOMER_ROLE",
      "outputs": [
        {
          "internalType": "bytes32",
          "name": "",
          "type": "bytes32"
        }
      ],
      "stateMutability": "view",
      "type": "function"
    },
    {
      "inputs": [],
      "name": "DEFAULT_ADMIN_ROLE",
      "outputs": [
        {
          "internalType": "bytes32",
          "name": "",
          "type": "bytes32"
        }
      ],
      "stateMutability": "view",
      "type": "function"
    },
    {
      "inputs": [],
      "name": "INSPECTOR_ROLE",
      "outputs": [
        {
          "internalType": "bytes32",
          "name": "",
          "type": "bytes32"
        }
      ],
      "stateMutability": "view",
      "type": "function"
    },
    {
      "inputs": [],
      "name": "MANUFACTURER_ROLE",
      "outputs": [
        {
          "internalType": "bytes32",
          "name": "",
          "type": "bytes32"
        }
      ],
      "stateMutability": "view",
      "type": "function"
    },
    {
      "inputs": [],
      "name": "ORACLE_ROLE",
      "outputs": [
        {
          "internalType": "bytes32",
          "name": "",
          "type": "bytes32"
        }
      ],
      "stateMutability": "view",
      "type": "function"
    },
    {
      "inputs": [],
      "name": "PACKAGER_ROLE",
      "outputs": [
        {
          "internalType": "bytes32",
          "name": "",
          "type": "bytes32"
        }
      ],
      "stateMutability": "view",
      "type": "function"
    },
    {
      "inputs": [],
      "name": "QUALITY_CONTROL_ROLE",
      "outputs": [
        {
          "internalType": "bytes32",
          "name": "",
          "type": "bytes32"
        }
      ],
      "stateMutability": "view",
      "type": "function"
    },
    {
      "inputs": [],
      "name": "RETAILER_ROLE",
      "outputs": [
        {
          "internalType": "bytes32",
          "name": "",
          "type": "bytes32"
        }
      ],
      "stateMutability": "view",
      "type": "function"
    },
    {
      "inputs": [],
      "name": "TRANSPORTER_ROLE",
      "outputs": [
        {
          "internalType": "bytes32",
          "name": "",
          "type": "bytes32"
        }
      ],
      "stateMutability": "view",
      "type": "function"
    },
    {
      "inputs": [],
      "name": "WHOLESALER_ROLE",
      "outputs": [
        {
          "internalType": "bytes32",
          "name": "",
          "type": "bytes32"
        }
      ],
      "stateMutability": "view",
      "type": "function"
    },
    {
      "inputs": [
        {
          "internalType": "address",
          "name": "to",
          "type": "address"
        },
        {
          "internalType": "uint256",
          "name": "tokenId",
          "type": "uint256"
        }
      ],
      "name": "approve",
      "outputs": [],
      "stateMutability": "nonpayable",
      "type": "function"
    },
    {
      "inputs": [
        {
          "internalType": "uint256",
          "name": "shipmentId",
          "type": "uint256"
        }
      ],
      "name": "approveShipment",
      "outputs": [],
      "stateMutability": "nonpayable",
      "type": "function"
    },
    {
      "inputs": [
        {
          "internalType": "uint256",
          "name": "",
          "type": "uint256"
        },
        {
          "internalType": "address",
          "name": "",
          "type": "address"
        }
      ],
      "name": "authorizedViewers",
      "outputs": [
        {
          "internalType": "bool",
          "name": "",
          "type": "bool"
        }
      ],
      "stateMutability": "view",
      "type": "function"
    },
    {
      "inputs": [
        {
          "internalType": "address",
          "name": "owner",
          "type": "address"
        }
      ],
      "name": "balanceOf",
      "outputs": [
        {
          "internalType": "uint256",
          "name": "",
          "type": "uint256"
        }
      ],
      "stateMutability": "view",
      "type": "function"
    },
    {
      "inputs": [
        {
          "internalType": "string",
          "name": "",
          "type": "string"
        }
      ],
      "name": "barcodeToTokenId",
      "outputs": [
        {
          "internalType": "uint256",
          "name": "",
          "type": "uint256"
        }
      ],
      "stateMutability": "view",
      "type": "function"
    },
    {
      "inputs": [
        {
          "internalType": "uint256",
          "name": "shipmentId",
          "type": "uint256"
        },
        {
          "internalType": "string",
          "name": "reason",
          "type": "string"
        }
      ],
      "name": "cancelShipment",
      "outputs": [],
      "stateMutability": "nonpayable",
      "type": "function"
    },
    {
      "inputs": [
        {
          "internalType": "uint256",
          "name": "shipmentId",
          "type": "uint256"
        },
        {
          "internalType": "string",
          "name": "location",
          "type": "string"
        }
      ],
      "name": "confirmReceipt",
      "outputs": [],
      "stateMutability": "nonpayable",
      "type": "function"
    },
    {
      "inputs": [
        {
          "internalType": "uint256",
          "name": "shipmentId",
          "type": "uint256"
        }
      ],
      "name": "confirmShipmentCompletion",
      "outputs": [],
      "stateMutability": "nonpayable",
      "type": "function"
    },
    {
      "inputs": [],
      "name": "currentAnalytics",
      "outputs": [
        {
          "internalType": "uint256",
          "name": "productsCreated",
          "type": "uint256"
        },
        {
          "internalType": "uint256",
          "name": "productsShipped",
          "type": "uint256"
        },
        {
          "internalType": "uint256",
          "name": "productsDelivered",
          "type": "uint256"
        },
        {
          "internalType": "uint256",
          "name": "qualityChecksPassed",
          "type": "uint256"
        },
        {
          "internalType": "uint256",
          "name": "qualityChecksFailed",
          "type": "uint256"
        },
        {
          "internalType": "uint256",
          "name": "complianceApproved",
          "type": "uint256"
        },
        {
          "internalType": "uint256",
          "name": "complianceRejected",
          "type": "uint256"
        },
        {
          "internalType": "uint256",
          "name": "totalShipments",
          "type": "uint256"
        },
        {
          "internalType": "uint256",
          "name": "delayedShipments",
          "type": "uint256"
        },
        {
          "internalType": "uint256",
          "name": "onTimeShipments",
          "type": "uint256"
        },
        {
          "internalType": "uint256",
          "name": "totalCO2Emissions",
          "type": "uint256"
        },
        {
          "internalType": "uint256",
          "name": "totalCosts",
          "type": "uint256"
        }
      ],
      "stateMutability": "view",
      "type": "function"
    },
    {
      "inputs": [
        {
          "internalType": "uint256",
          "name": "tokenId",
          "type": "uint256"
        }
      ],
      "name": "getApproved",
      "outputs": [
        {
          "internalType": "address",
          "name": "",
          "type": "address"
        }
      ],
      "stateMutability": "view",
      "type": "function"
    },
    {
      "inputs": [],
      "name": "getCurrentAnalytics",
      "outputs": [
        {
          "components": [
            {
              "internalType": "uint256",
              "name": "productsCreated",
              "type": "uint256"
            },
            {
              "internalType": "uint256",
              "name": "productsShipped",
              "type": "uint256"
            },
            {
              "internalType": "uint256",
              "name": "productsDelivered",
              "type": "uint256"
            },
            {
              "internalType": "uint256",
              "name": "qualityChecksPassed",
              "type": "uint256"
            },
            {
              "internalType": "uint256",
              "name": "qualityChecksFailed",
              "type": "uint256"
            },
            {
              "internalType": "uint256",
              "name": "complianceApproved",
              "type": "uint256"
            },
            {
              "internalType": "uint256",
              "name": "complianceRejected",
              "type": "uint256"
            },
            {
              "internalType": "uint256",
              "name": "totalShipments",
              "type": "uint256"
            },
            {
              "internalType": "uint256",
              "name": "delayedShipments",
              "type": "uint256"
            },
            {
              "internalType": "uint256",
              "name": "onTimeShipments",
              "type": "uint256"
            },
            {
              "internalType": "uint256",
              "name": "totalCO2Emissions",
              "type": "uint256"
            },
            {
              "internalType": "uint256",
              "name": "totalCosts",
              "type": "uint256"
            }
          ],
          "internalType": "struct UnifiedProTrack.AnalyticsData",
          "name": "",
          "type": "tuple"
        }
      ],
      "stateMutability": "view",
      "type": "function"
    },
    {
      "inputs": [
        {
          "internalType": "uint256",
          "name": "tokenId",
          "type": "uint256"
        },
        {
          "internalType": "uint256",
          "name": "offset",
          "type": "uint256"
        },
        {
          "internalType": "uint256",
          "name": "limit",
          "type": "uint256"
        }
      ],
      "name": "getIoTData",
      "outputs": [
        {
          "components": [
            {
              "internalType": "uint256",
              "name": "productId",
              "type": "uint256"
            },
            {
              "internalType": "enum UnifiedProTrack.SensorType",
              "name": "sensorType",
              "type": "uint8"
            },
            {
              "internalType": "int256",
              "name": "value",
              "type": "int256"
            },
            {
              "internalType": "string",
              "name": "unit",
              "type": "string"
            },
            {
              "internalType": "string",
              "name": "gpsCoordinates",
              "type": "string"
            },
            {
              "internalType": "address",
              "name": "provider",
              "type": "address"
            },
            {
              "internalType": "uint128",
              "name": "timestamp",
              "type": "uint128"
            },
            {
              "internalType": "bool",
              "name": "verified",
              "type": "bool"
            },
            {
              "internalType": "string",
              "name": "ipfsCID",
              "type": "string"
            }
          ],
          "internalType": "struct UnifiedProTrack.IoTData[]",
          "name": "",
          "type": "tuple[]"
        },
        {
          "internalType": "uint256",
          "name": "total",
          "type": "uint256"
        }
      ],
      "stateMutability": "view",
      "type": "function"
    },
    {
      "inputs": [
        {
          "internalType": "uint256",
          "name": "suggestionId",
          "type": "uint256"
        }
      ],
      "name": "getOptimizationSuggestion",
      "outputs": [
        {
          "components": [
            {
              "internalType": "uint256",
              "name": "id",
              "type": "uint256"
            },
            {
              "internalType": "string",
              "name": "description",
              "type": "string"
            },
            {
              "internalType": "string",
              "name": "impact",
              "type": "string"
            },
            {
              "internalType": "uint128",
              "name": "timestamp",
              "type": "uint128"
            },
            {
              "internalType": "bool",
              "name": "implemented",
              "type": "bool"
            }
          ],
          "internalType": "struct UnifiedProTrack.OptimizationSuggestion",
          "name": "",
          "type": "tuple"
        }
      ],
      "stateMutability": "view",
      "type": "function"
    },
    {
      "inputs": [
        {
          "internalType": "uint256",
          "name": "tokenId",
          "type": "uint256"
        }
      ],
      "name": "getProduct",
      "outputs": [
        {
          "components": [
            {
              "internalType": "string",
              "name": "rfidHash",
              "type": "string"
            },
            {
              "internalType": "string",
              "name": "barcode",
              "type": "string"
            },
            {
              "internalType": "string",
              "name": "productName",
              "type": "string"
            },
            {
              "internalType": "string",
              "name": "sku",
              "type": "string"
            },
            {
              "internalType": "address",
              "name": "manufacturerId",
              "type": "address"
            },
            {
              "internalType": "uint128",
              "name": "manufactureDate",
              "type": "uint128"
            },
            {
              "internalType": "uint128",
              "name": "expiryDate",
              "type": "uint128"
            },
            {
              "internalType": "string",
              "name": "batchId",
              "type": "string"
            },
            {
              "internalType": "string",
              "name": "ipfsMetadataCID",
              "type": "string"
            },
            {
              "internalType": "enum UnifiedProTrack.ProductStatus",
              "name": "status",
              "type": "uint8"
            },
            {
              "internalType": "address",
              "name": "manufacturer",
              "type": "address"
            },
            {
              "internalType": "address",
              "name": "currentCustodian",
              "type": "address"
            },
            {
              "internalType": "string",
              "name": "currentLocation",
              "type": "string"
            },
            {
              "internalType": "uint128",
              "name": "lastUpdated",
              "type": "uint128"
            },
            {
              "internalType": "bool",
              "name": "isSoulbound",
              "type": "bool"
            },
            {
              "internalType": "bool",
              "name": "isRecalled",
              "type": "bool"
            },
            {
              "internalType": "enum UnifiedProTrack.QualityStatus",
              "name": "qualityStatus",
              "type": "uint8"
            },
            {
              "internalType": "enum UnifiedProTrack.ComplianceStatus",
              "name": "complianceStatus",
              "type": "uint8"
            },
            {
              "internalType": "bytes32",
              "name": "productHash",
              "type": "bytes32"
            },
            {
              "internalType": "uint256",
              "name": "price",
              "type": "uint256"
            },
            {
              "internalType": "string",
              "name": "currency",
              "type": "string"
            },
            {
              "internalType": "uint256",
              "name": "weight",
              "type": "uint256"
            }
          ],
          "internalType": "struct UnifiedProTrack.Product",
          "name": "",
          "type": "tuple"
        }
      ],
      "stateMutability": "view",
      "type": "function"
    },
    {
      "inputs": [
        {
          "internalType": "uint256",
          "name": "tokenId",
          "type": "uint256"
        },
        {
          "internalType": "uint256",
          "name": "offset",
          "type": "uint256"
        },
        {
          "internalType": "uint256",
          "name": "limit",
          "type": "uint256"
        }
      ],
      "name": "getProductComplianceRecords",
      "outputs": [
        {
          "components": [
            {
              "internalType": "uint256",
              "name": "productId",
              "type": "uint256"
            },
            {
              "internalType": "address",
              "name": "reviewer",
              "type": "address"
            },
            {
              "internalType": "enum UnifiedProTrack.ComplianceStatus",
              "name": "status",
              "type": "uint8"
            },
            {
              "internalType": "string",
              "name": "certificateCID",
              "type": "string"
            },
            {
              "internalType": "string",
              "name": "notes",
              "type": "string"
            },
            {
              "internalType": "uint128",
              "name": "timestamp",
              "type": "uint128"
            },
            {
              "internalType": "uint128",
              "name": "expiryDate",
              "type": "uint128"
            }
          ],
          "internalType": "struct UnifiedProTrack.ComplianceRecord[]",
          "name": "",
          "type": "tuple[]"
        },
        {
          "internalType": "uint256",
          "name": "total",
          "type": "uint256"
        }
      ],
      "stateMutability": "view",
      "type": "function"
    },
    {
      "inputs": [
        {
          "internalType": "uint256",
          "name": "tokenId",
          "type": "uint256"
        },
        {
          "internalType": "uint256",
          "name": "offset",
          "type": "uint256"
        },
        {
          "internalType": "uint256",
          "name": "limit",
          "type": "uint256"
        }
      ],
      "name": "getProductQualityRecords",
      "outputs": [
        {
          "components": [
            {
              "internalType": "uint256",
              "name": "productId",
              "type": "uint256"
            },
            {
              "internalType": "address",
              "name": "inspector",
              "type": "address"
            },
            {
              "internalType": "enum UnifiedProTrack.QualityStatus",
              "name": "status",
              "type": "uint8"
            },
            {
              "internalType": "string",
              "name": "reportCID",
              "type": "string"
            },
            {
              "internalType": "string",
              "name": "notes",
              "type": "string"
            },
            {
              "internalType": "uint128",
              "name": "timestamp",
              "type": "uint128"
            }
          ],
          "internalType": "struct UnifiedProTrack.QualityRecord[]",
          "name": "",
          "type": "tuple[]"
        },
        {
          "internalType": "uint256",
          "name": "total",
          "type": "uint256"
        }
      ],
      "stateMutability": "view",
      "type": "function"
    },
    {
      "inputs": [
        {
          "internalType": "uint256",
          "name": "tokenId",
          "type": "uint256"
        }
      ],
      "name": "getProductShipments",
      "outputs": [
        {
          "internalType": "uint256[]",
          "name": "",
          "type": "uint256[]"
        }
      ],
      "stateMutability": "view",
      "type": "function"
    },
    {
      "inputs": [
        {
          "internalType": "bytes32",
          "name": "role",
          "type": "bytes32"
        }
      ],
      "name": "getRoleAdmin",
      "outputs": [
        {
          "internalType": "bytes32",
          "name": "",
          "type": "bytes32"
        }
      ],
      "stateMutability": "view",
      "type": "function"
    },
    {
      "inputs": [
        {
          "internalType": "uint256",
          "name": "tokenId",
          "type": "uint256"
        },
        {
          "internalType": "enum UnifiedProTrack.SensorType",
          "name": "sensorType",
          "type": "uint8"
        }
      ],
      "name": "getSensorThreshold",
      "outputs": [
        {
          "components": [
            {
              "internalType": "int256",
              "name": "minValue",
              "type": "int256"
            },
            {
              "internalType": "int256",
              "name": "maxValue",
              "type": "int256"
            },
            {
              "internalType": "bool",
              "name": "isSet",
              "type": "bool"
            }
          ],
          "internalType": "struct UnifiedProTrack.SensorThreshold",
          "name": "",
          "type": "tuple"
        }
      ],
      "stateMutability": "view",
      "type": "function"
    },
    {
      "inputs": [
        {
          "internalType": "uint256",
          "name": "shipmentId",
          "type": "uint256"
        }
      ],
      "name": "getShipment",
      "outputs": [
        {
          "components": [
            {
              "internalType": "uint256",
              "name": "shipmentId",
              "type": "uint256"
            },
            {
              "internalType": "uint256",
              "name": "productId",
              "type": "uint256"
            },
            {
              "internalType": "address",
              "name": "fromParty",
              "type": "address"
            },
            {
              "internalType": "address",
              "name": "toParty",
              "type": "address"
            },
            {
              "internalType": "address",
              "name": "carrierId",
              "type": "address"
            },
            {
              "internalType": "string",
              "name": "origin",
              "type": "string"
            },
            {
              "internalType": "string",
              "name": "destination",
              "type": "string"
            },
            {
              "internalType": "uint128",
              "name": "expectedETD",
              "type": "uint128"
            },
            {
              "internalType": "uint128",
              "name": "expectedETA",
              "type": "uint128"
            },
            {
              "internalType": "enum UnifiedProTrack.ShipmentStatus",
              "name": "status",
              "type": "uint8"
            },
            {
              "internalType": "string",
              "name": "tempKeyId",
              "type": "string"
            },
            {
              "internalType": "string",
              "name": "trackingInfo",
              "type": "string"
            },
            {
              "internalType": "uint128",
              "name": "requestedAt",
              "type": "uint128"
            },
            {
              "internalType": "uint128",
              "name": "approvedAt",
              "type": "uint128"
            },
            {
              "internalType": "uint128",
              "name": "shippedAt",
              "type": "uint128"
            },
            {
              "internalType": "uint128",
              "name": "deliveredAt",
              "type": "uint128"
            },
            {
              "internalType": "uint128",
              "name": "confirmedAt",
              "type": "uint128"
            },
            {
              "internalType": "string[]",
              "name": "packingList",
              "type": "string[]"
            },
            {
              "internalType": "string",
              "name": "insurancePolicy",
              "type": "string"
            },
            {
              "internalType": "string",
              "name": "slaAgreement",
              "type": "string"
            },
            {
              "internalType": "uint256",
              "name": "estimatedDistance",
              "type": "uint256"
            },
            {
              "internalType": "uint256",
              "name": "co2Emissions",
              "type": "uint256"
            },
            {
              "internalType": "uint256",
              "name": "estimatedCost",
              "type": "uint256"
            },
            {
              "internalType": "uint256",
              "name": "actualCost",
              "type": "uint256"
            },
            {
              "internalType": "string",
              "name": "currency",
              "type": "string"
            },
            {
              "internalType": "string",
              "name": "priority",
              "type": "string"
            },
            {
              "internalType": "string",
              "name": "driverName",
              "type": "string"
            },
            {
              "internalType": "string",
              "name": "driverLicense",
              "type": "string"
            },
            {
              "internalType": "string",
              "name": "driverContact",
              "type": "string"
            },
            {
              "internalType": "string",
              "name": "vehicleType",
              "type": "string"
            },
            {
              "internalType": "string",
              "name": "vehiclePlateNumber",
              "type": "string"
            },
            {
              "internalType": "string",
              "name": "vehicleCapacity",
              "type": "string"
            }
          ],
          "internalType": "struct UnifiedProTrack.Shipment",
          "name": "",
          "type": "tuple"
        }
      ],
      "stateMutability": "view",
      "type": "function"
    },
    {
      "inputs": [
        {
          "internalType": "uint256",
          "name": "tokenId",
          "type": "uint256"
        },
        {
          "internalType": "address",
          "name": "user",
          "type": "address"
        }
      ],
      "name": "grantAccess",
      "outputs": [],
      "stateMutability": "nonpayable",
      "type": "function"
    },
    {
      "inputs": [
        {
          "internalType": "bytes32",
          "name": "role",
          "type": "bytes32"
        },
        {
          "internalType": "address",
          "name": "account",
          "type": "address"
        }
      ],
      "name": "grantRole",
      "outputs": [],
      "stateMutability": "nonpayable",
      "type": "function"
    },
    {
      "inputs": [
        {
          "internalType": "uint256",
          "name": "tokenId",
          "type": "uint256"
        },
        {
          "internalType": "address",
          "name": "user",
          "type": "address"
        }
      ],
      "name": "hasProductAccess",
      "outputs": [
        {
          "internalType": "bool",
          "name": "",
          "type": "bool"
        }
      ],
      "stateMutability": "view",
      "type": "function"
    },
    {
      "inputs": [
        {
          "internalType": "bytes32",
          "name": "role",
          "type": "bytes32"
        },
        {
          "internalType": "address",
          "name": "account",
          "type": "address"
        }
      ],
      "name": "hasRole",
      "outputs": [
        {
          "internalType": "bool",
          "name": "",
          "type": "bool"
        }
      ],
      "stateMutability": "view",
      "type": "function"
    },
    {
      "inputs": [
        {
          "internalType": "uint256",
          "name": "suggestionId",
          "type": "uint256"
        }
      ],
      "name": "implementOptimization",
      "outputs": [],
      "stateMutability": "nonpayable",
      "type": "function"
    },
    {
      "inputs": [
        {
          "internalType": "address",
          "name": "owner",
          "type": "address"
        },
        {
          "internalType": "address",
          "name": "operator",
          "type": "address"
        }
      ],
      "name": "isApprovedForAll",
      "outputs": [
        {
          "internalType": "bool",
          "name": "",
          "type": "bool"
        }
      ],
      "stateMutability": "view",
      "type": "function"
    },
    {
      "inputs": [
        {
          "internalType": "uint256",
          "name": "tokenId",
          "type": "uint256"
        }
      ],
      "name": "isProductRecalled",
      "outputs": [
        {
          "internalType": "bool",
          "name": "",
          "type": "bool"
        }
      ],
      "stateMutability": "view",
      "type": "function"
    },
    {
      "inputs": [
        {
          "internalType": "uint256",
          "name": "shipmentId",
          "type": "uint256"
        }
      ],
      "name": "isShipmentExpired",
      "outputs": [
        {
          "internalType": "bool",
          "name": "",
          "type": "bool"
        }
      ],
      "stateMutability": "view",
      "type": "function"
    },
    {
      "inputs": [
        {
          "internalType": "uint256",
          "name": "tokenId",
          "type": "uint256"
        },
        {
          "internalType": "string",
          "name": "batchId",
          "type": "string"
        }
      ],
      "name": "logPackaging",
      "outputs": [],
      "stateMutability": "nonpayable",
      "type": "function"
    },
    {
      "inputs": [
        {
          "internalType": "uint256",
          "name": "tokenId",
          "type": "uint256"
        }
      ],
      "name": "makeSoulbound",
      "outputs": [],
      "stateMutability": "nonpayable",
      "type": "function"
    },
    {
      "inputs": [
        {
          "components": [
            {
              "internalType": "string",
              "name": "rfidHash",
              "type": "string"
            },
            {
              "internalType": "string",
              "name": "barcode",
              "type": "string"
            },
            {
              "internalType": "string",
              "name": "productName",
              "type": "string"
            },
            {
              "internalType": "string",
              "name": "sku",
              "type": "string"
            },
            {
              "internalType": "address",
              "name": "manufacturerId",
              "type": "address"
            },
            {
              "internalType": "uint128",
              "name": "manufactureDate",
              "type": "uint128"
            },
            {
              "internalType": "uint128",
              "name": "expiryDate",
              "type": "uint128"
            },
            {
              "internalType": "string",
              "name": "batchId",
              "type": "string"
            },
            {
              "internalType": "string",
              "name": "ipfsMetadataCID",
              "type": "string"
            },
            {
              "internalType": "address",
              "name": "owner",
              "type": "address"
            }
          ],
          "internalType": "struct UnifiedProTrack.MintProductParams",
          "name": "params",
          "type": "tuple"
        }
      ],
      "name": "mintProduct",
      "outputs": [
        {
          "internalType": "uint256",
          "name": "",
          "type": "uint256"
        }
      ],
      "stateMutability": "nonpayable",
      "type": "function"
    },
    {
      "inputs": [
        {
          "components": [
            {
              "internalType": "string",
              "name": "rfidHash",
              "type": "string"
            },
            {
              "internalType": "string",
              "name": "barcode",
              "type": "string"
            },
            {
              "internalType": "string",
              "name": "productName",
              "type": "string"
            },
            {
              "internalType": "string",
              "name": "sku",
              "type": "string"
            },
            {
              "internalType": "address",
              "name": "manufacturerId",
              "type": "address"
            },
            {
              "internalType": "uint128",
              "name": "manufactureDate",
              "type": "uint128"
            },
            {
              "internalType": "uint128",
              "name": "expiryDate",
              "type": "uint128"
            },
            {
              "internalType": "string",
              "name": "batchId",
              "type": "string"
            },
            {
              "internalType": "string",
              "name": "ipfsMetadataCID",
              "type": "string"
            },
            {
              "internalType": "address",
              "name": "owner",
              "type": "address"
            },
            {
              "internalType": "uint256",
              "name": "price",
              "type": "uint256"
            },
            {
              "internalType": "string",
              "name": "currency",
              "type": "string"
            },
            {
              "internalType": "uint256",
              "name": "weight",
              "type": "uint256"
            }
          ],
          "internalType": "struct UnifiedProTrack.MintProductEnhancedParams",
          "name": "params",
          "type": "tuple"
        }
      ],
      "name": "mintProductEnhanced",
      "outputs": [
        {
          "internalType": "uint256",
          "name": "",
          "type": "uint256"
        }
      ],
      "stateMutability": "nonpayable",
      "type": "function"
    },
    {
      "inputs": [],
      "name": "name",
      "outputs": [
        {
          "internalType": "string",
          "name": "",
          "type": "string"
        }
      ],
      "stateMutability": "view",
      "type": "function"
    },
    {
      "inputs": [
        {
          "internalType": "uint256",
          "name": "",
          "type": "uint256"
        }
      ],
      "name": "optimizationSuggestions",
      "outputs": [
        {
          "internalType": "uint256",
          "name": "id",
          "type": "uint256"
        },
        {
          "internalType": "string",
          "name": "description",
          "type": "string"
        },
        {
          "internalType": "string",
          "name": "impact",
          "type": "string"
        },
        {
          "internalType": "uint128",
          "name": "timestamp",
          "type": "uint128"
        },
        {
          "internalType": "bool",
          "name": "implemented",
          "type": "bool"
        }
      ],
      "stateMutability": "view",
      "type": "function"
    },
    {
      "inputs": [
        {
          "internalType": "uint256",
          "name": "tokenId",
          "type": "uint256"
        }
      ],
      "name": "ownerOf",
      "outputs": [
        {
          "internalType": "address",
          "name": "",
          "type": "address"
        }
      ],
      "stateMutability": "view",
      "type": "function"
    },
    {
      "inputs": [
        {
          "internalType": "uint256",
          "name": "tokenId",
          "type": "uint256"
        },
        {
          "internalType": "enum UnifiedProTrack.QualityStatus",
          "name": "status",
          "type": "uint8"
        },
        {
          "internalType": "string",
          "name": "reportCID",
          "type": "string"
        },
        {
          "internalType": "string",
          "name": "notes",
          "type": "string"
        }
      ],
      "name": "performQualityCheck",
      "outputs": [],
      "stateMutability": "nonpayable",
      "type": "function"
    },
    {
      "inputs": [
        {
          "internalType": "uint256",
          "name": "",
          "type": "uint256"
        },
        {
          "internalType": "uint256",
          "name": "",
          "type": "uint256"
        }
      ],
      "name": "productShipments",
      "outputs": [
        {
          "internalType": "uint256",
          "name": "",
          "type": "uint256"
        }
      ],
      "stateMutability": "view",
      "type": "function"
    },
    {
      "inputs": [
        {
          "internalType": "uint256",
          "name": "",
          "type": "uint256"
        }
      ],
      "name": "products",
      "outputs": [
        {
          "internalType": "string",
          "name": "rfidHash",
          "type": "string"
        },
        {
          "internalType": "string",
          "name": "barcode",
          "type": "string"
        },
        {
          "internalType": "string",
          "name": "productName",
          "type": "string"
        },
        {
          "internalType": "string",
          "name": "sku",
          "type": "string"
        },
        {
          "internalType": "address",
          "name": "manufacturerId",
          "type": "address"
        },
        {
          "internalType": "uint128",
          "name": "manufactureDate",
          "type": "uint128"
        },
        {
          "internalType": "uint128",
          "name": "expiryDate",
          "type": "uint128"
        },
        {
          "internalType": "string",
          "name": "batchId",
          "type": "string"
        },
        {
          "internalType": "string",
          "name": "ipfsMetadataCID",
          "type": "string"
        },
        {
          "internalType": "enum UnifiedProTrack.ProductStatus",
          "name": "status",
          "type": "uint8"
        },
        {
          "internalType": "address",
          "name": "manufacturer",
          "type": "address"
        },
        {
          "internalType": "address",
          "name": "currentCustodian",
          "type": "address"
        },
        {
          "internalType": "string",
          "name": "currentLocation",
          "type": "string"
        },
        {
          "internalType": "uint128",
          "name": "lastUpdated",
          "type": "uint128"
        },
        {
          "internalType": "bool",
          "name": "isSoulbound",
          "type": "bool"
        },
        {
          "internalType": "bool",
          "name": "isRecalled",
          "type": "bool"
        },
        {
          "internalType": "enum UnifiedProTrack.QualityStatus",
          "name": "qualityStatus",
          "type": "uint8"
        },
        {
          "internalType": "enum UnifiedProTrack.ComplianceStatus",
          "name": "complianceStatus",
          "type": "uint8"
        },
        {
          "internalType": "bytes32",
          "name": "productHash",
          "type": "bytes32"
        },
        {
          "internalType": "uint256",
          "name": "price",
          "type": "uint256"
        },
        {
          "internalType": "string",
          "name": "currency",
          "type": "string"
        },
        {
          "internalType": "uint256",
          "name": "weight",
          "type": "uint256"
        }
      ],
      "stateMutability": "view",
      "type": "function"
    },
    {
      "inputs": [
        {
          "internalType": "uint256",
          "name": "tokenId",
          "type": "uint256"
        },
        {
          "internalType": "string",
          "name": "reason",
          "type": "string"
        }
      ],
      "name": "recallProduct",
      "outputs": [],
      "stateMutability": "nonpayable",
      "type": "function"
    },
    {
      "inputs": [
        {
          "internalType": "uint256",
          "name": "tokenId",
          "type": "uint256"
        },
        {
          "internalType": "enum UnifiedProTrack.SensorType",
          "name": "sensorType",
          "type": "uint8"
        },
        {
          "internalType": "int256",
          "name": "value",
          "type": "int256"
        },
        {
          "internalType": "string",
          "name": "unit",
          "type": "string"
        },
        {
          "internalType": "string",
          "name": "gpsCoordinates",
          "type": "string"
        },
        {
          "internalType": "string",
          "name": "ipfsCID",
          "type": "string"
        }
      ],
      "name": "recordIoT",
      "outputs": [],
      "stateMutability": "nonpayable",
      "type": "function"
    },
    {
      "inputs": [
        {
          "internalType": "bytes32",
          "name": "role",
          "type": "bytes32"
        },
        {
          "internalType": "address",
          "name": "callerConfirmation",
          "type": "address"
        }
      ],
      "name": "renounceRole",
      "outputs": [],
      "stateMutability": "nonpayable",
      "type": "function"
    },
    {
      "inputs": [
        {
          "components": [
            {
              "internalType": "uint256",
              "name": "tokenId",
              "type": "uint256"
            },
            {
              "internalType": "address",
              "name": "to",
              "type": "address"
            },
            {
              "internalType": "address",
              "name": "carrierId",
              "type": "address"
            },
            {
              "internalType": "string",
              "name": "origin",
              "type": "string"
            },
            {
              "internalType": "string",
              "name": "destination",
              "type": "string"
            },
            {
              "internalType": "uint128",
              "name": "expectedETD",
              "type": "uint128"
            },
            {
              "internalType": "uint128",
              "name": "expectedETA",
              "type": "uint128"
            },
            {
              "internalType": "string",
              "name": "tempKeyId",
              "type": "string"
            },
            {
              "internalType": "string",
              "name": "trackingInfo",
              "type": "string"
            }
          ],
          "internalType": "struct UnifiedProTrack.ShipmentRequestParams",
          "name": "params",
          "type": "tuple"
        }
      ],
      "name": "requestShipment",
      "outputs": [
        {
          "internalType": "uint256",
          "name": "",
          "type": "uint256"
        }
      ],
      "stateMutability": "nonpayable",
      "type": "function"
    },
    {
      "inputs": [
        {
          "components": [
            {
              "internalType": "uint256",
              "name": "tokenId",
              "type": "uint256"
            },
            {
              "internalType": "address",
              "name": "to",
              "type": "address"
            },
            {
              "internalType": "address",
              "name": "carrierId",
              "type": "address"
            },
            {
              "internalType": "string",
              "name": "origin",
              "type": "string"
            },
            {
              "internalType": "string",
              "name": "destination",
              "type": "string"
            },
            {
              "internalType": "uint128",
              "name": "expectedETD",
              "type": "uint128"
            },
            {
              "internalType": "uint128",
              "name": "expectedETA",
              "type": "uint128"
            },
            {
              "internalType": "string",
              "name": "tempKeyId",
              "type": "string"
            },
            {
              "internalType": "string",
              "name": "trackingInfo",
              "type": "string"
            },
            {
              "internalType": "uint256",
              "name": "estimatedDistance",
              "type": "uint256"
            },
            {
              "internalType": "uint256",
              "name": "co2Emissions",
              "type": "uint256"
            },
            {
              "internalType": "uint256",
              "name": "estimatedCost",
              "type": "uint256"
            },
            {
              "internalType": "string",
              "name": "currency",
              "type": "string"
            }
          ],
          "internalType": "struct UnifiedProTrack.ShipmentRequestEnhancedParams",
          "name": "params",
          "type": "tuple"
        }
      ],
      "name": "requestShipmentEnhanced",
      "outputs": [
        {
          "internalType": "uint256",
          "name": "",
          "type": "uint256"
        }
      ],
      "stateMutability": "nonpayable",
      "type": "function"
    },
    {
      "inputs": [
        {
          "internalType": "uint256",
          "name": "tokenId",
          "type": "uint256"
        },
        {
          "internalType": "enum UnifiedProTrack.ComplianceStatus",
          "name": "status",
          "type": "uint8"
        },
        {
          "internalType": "string",
          "name": "certificateCID",
          "type": "string"
        },
        {
          "internalType": "string",
          "name": "notes",
          "type": "string"
        },
        {
          "internalType": "uint128",
          "name": "expiryDate",
          "type": "uint128"
        }
      ],
      "name": "reviewCompliance",
      "outputs": [],
      "stateMutability": "nonpayable",
      "type": "function"
    },
    {
      "inputs": [
        {
          "internalType": "uint256",
          "name": "tokenId",
          "type": "uint256"
        },
        {
          "internalType": "address",
          "name": "user",
          "type": "address"
        }
      ],
      "name": "revokeAccess",
      "outputs": [],
      "stateMutability": "nonpayable",
      "type": "function"
    },
    {
      "inputs": [
        {
          "internalType": "bytes32",
          "name": "role",
          "type": "bytes32"
        },
        {
          "internalType": "address",
          "name": "account",
          "type": "address"
        }
      ],
      "name": "revokeRole",
      "outputs": [],
      "stateMutability": "nonpayable",
      "type": "function"
    },
    {
      "inputs": [
        {
          "internalType": "string",
          "name": "",
          "type": "string"
        }
      ],
      "name": "rfidToTokenId",
      "outputs": [
        {
          "internalType": "uint256",
          "name": "",
          "type": "uint256"
        }
      ],
      "stateMutability": "view",
      "type": "function"
    },
    {
      "inputs": [
        {
          "internalType": "address",
          "name": "from",
          "type": "address"
        },
        {
          "internalType": "address",
          "name": "to",
          "type": "address"
        },
        {
          "internalType": "uint256",
          "name": "tokenId",
          "type": "uint256"
        }
      ],
      "name": "safeTransferFrom",
      "outputs": [],
      "stateMutability": "nonpayable",
      "type": "function"
    },
    {
      "inputs": [
        {
          "internalType": "address",
          "name": "from",
          "type": "address"
        },
        {
          "internalType": "address",
          "name": "to",
          "type": "address"
        },
        {
          "internalType": "uint256",
          "name": "tokenId",
          "type": "uint256"
        },
        {
          "internalType": "bytes",
          "name": "data",
          "type": "bytes"
        }
      ],
      "name": "safeTransferFrom",
      "outputs": [],
      "stateMutability": "nonpayable",
      "type": "function"
    },
    {
      "inputs": [
        {
          "internalType": "uint256",
          "name": "",
          "type": "uint256"
        },
        {
          "internalType": "enum UnifiedProTrack.SensorType",
          "name": "",
          "type": "uint8"
        }
      ],
      "name": "sensorThresholds",
      "outputs": [
        {
          "internalType": "int256",
          "name": "minValue",
          "type": "int256"
        },
        {
          "internalType": "int256",
          "name": "maxValue",
          "type": "int256"
        },
        {
          "internalType": "bool",
          "name": "isSet",
          "type": "bool"
        }
      ],
      "stateMutability": "view",
      "type": "function"
    },
    {
      "inputs": [
        {
          "internalType": "address",
          "name": "operator",
          "type": "address"
        },
        {
          "internalType": "bool",
          "name": "approved",
          "type": "bool"
        }
      ],
      "name": "setApprovalForAll",
      "outputs": [],
      "stateMutability": "nonpayable",
      "type": "function"
    },
    {
      "inputs": [
        {
          "internalType": "uint256",
          "name": "tokenId",
          "type": "uint256"
        },
        {
          "internalType": "enum UnifiedProTrack.SensorType",
          "name": "sensorType",
          "type": "uint8"
        },
        {
          "internalType": "int256",
          "name": "minValue",
          "type": "int256"
        },
        {
          "internalType": "int256",
          "name": "maxValue",
          "type": "int256"
        }
      ],
      "name": "setSensorThreshold",
      "outputs": [],
      "stateMutability": "nonpayable",
      "type": "function"
    },
    {
      "inputs": [
        {
          "internalType": "uint256",
          "name": "shipmentId",
          "type": "uint256"
        }
      ],
      "name": "shipProduct",
      "outputs": [],
      "stateMutability": "nonpayable",
      "type": "function"
    },
    {
      "inputs": [
        {
          "internalType": "uint256",
          "name": "",
          "type": "uint256"
        }
      ],
      "name": "shipments",
      "outputs": [
        {
          "internalType": "uint256",
          "name": "shipmentId",
          "type": "uint256"
        },
        {
          "internalType": "uint256",
          "name": "productId",
          "type": "uint256"
        },
        {
          "internalType": "address",
          "name": "fromParty",
          "type": "address"
        },
        {
          "internalType": "address",
          "name": "toParty",
          "type": "address"
        },
        {
          "internalType": "address",
          "name": "carrierId",
          "type": "address"
        },
        {
          "internalType": "string",
          "name": "origin",
          "type": "string"
        },
        {
          "internalType": "string",
          "name": "destination",
          "type": "string"
        },
        {
          "internalType": "uint128",
          "name": "expectedETD",
          "type": "uint128"
        },
        {
          "internalType": "uint128",
          "name": "expectedETA",
          "type": "uint128"
        },
        {
          "internalType": "enum UnifiedProTrack.ShipmentStatus",
          "name": "status",
          "type": "uint8"
        },
        {
          "internalType": "string",
          "name": "tempKeyId",
          "type": "string"
        },
        {
          "internalType": "string",
          "name": "trackingInfo",
          "type": "string"
        },
        {
          "internalType": "uint128",
          "name": "requestedAt",
          "type": "uint128"
        },
        {
          "internalType": "uint128",
          "name": "approvedAt",
          "type": "uint128"
        },
        {
          "internalType": "uint128",
          "name": "shippedAt",
          "type": "uint128"
        },
        {
          "internalType": "uint128",
          "name": "deliveredAt",
          "type": "uint128"
        },
        {
          "internalType": "uint128",
          "name": "confirmedAt",
          "type": "uint128"
        },
        {
          "internalType": "string",
          "name": "insurancePolicy",
          "type": "string"
        },
        {
          "internalType": "string",
          "name": "slaAgreement",
          "type": "string"
        },
        {
          "internalType": "uint256",
          "name": "estimatedDistance",
          "type": "uint256"
        },
        {
          "internalType": "uint256",
          "name": "co2Emissions",
          "type": "uint256"
        },
        {
          "internalType": "uint256",
          "name": "estimatedCost",
          "type": "uint256"
        },
        {
          "internalType": "uint256",
          "name": "actualCost",
          "type": "uint256"
        },
        {
          "internalType": "string",
          "name": "currency",
          "type": "string"
        },
        {
          "internalType": "string",
          "name": "priority",
          "type": "string"
        },
        {
          "internalType": "string",
          "name": "driverName",
          "type": "string"
        },
        {
          "internalType": "string",
          "name": "driverLicense",
          "type": "string"
        },
        {
          "internalType": "string",
          "name": "driverContact",
          "type": "string"
        },
        {
          "internalType": "string",
          "name": "vehicleType",
          "type": "string"
        },
        {
          "internalType": "string",
          "name": "vehiclePlateNumber",
          "type": "string"
        },
        {
          "internalType": "string",
          "name": "vehicleCapacity",
          "type": "string"
        }
      ],
      "stateMutability": "view",
      "type": "function"
    },
    {
      "inputs": [
        {
          "internalType": "string",
          "name": "description",
          "type": "string"
        },
        {
          "internalType": "string",
          "name": "impact",
          "type": "string"
        }
      ],
      "name": "suggestOptimization",
      "outputs": [],
      "stateMutability": "nonpayable",
      "type": "function"
    },
    {
      "inputs": [
        {
          "internalType": "bytes4",
          "name": "interfaceId",
          "type": "bytes4"
        }
      ],
      "name": "supportsInterface",
      "outputs": [
        {
          "internalType": "bool",
          "name": "",
          "type": "bool"
        }
      ],
      "stateMutability": "view",
      "type": "function"
    },
    {
      "inputs": [],
      "name": "symbol",
      "outputs": [
        {
          "internalType": "string",
          "name": "",
          "type": "string"
        }
      ],
      "stateMutability": "view",
      "type": "function"
    },
    {
      "inputs": [
        {
          "internalType": "uint256",
          "name": "tokenId",
          "type": "uint256"
        }
      ],
      "name": "tokenURI",
      "outputs": [
        {
          "internalType": "string",
          "name": "",
          "type": "string"
        }
      ],
      "stateMutability": "view",
      "type": "function"
    },
    {
      "inputs": [
        {
          "internalType": "address",
          "name": "from",
          "type": "address"
        },
        {
          "internalType": "address",
          "name": "to",
          "type": "address"
        },
        {
          "internalType": "uint256",
          "name": "tokenId",
          "type": "uint256"
        }
      ],
      "name": "transferFrom",
      "outputs": [],
      "stateMutability": "nonpayable",
      "type": "function"
    },
    {
      "inputs": [
        {
          "internalType": "uint256",
          "name": "tokenId",
          "type": "uint256"
        },
        {
          "internalType": "string",
          "name": "location",
          "type": "string"
        }
      ],
      "name": "updateLocation",
      "outputs": [],
      "stateMutability": "nonpayable",
      "type": "function"
    },
    {
      "inputs": [
        {
          "internalType": "uint256",
          "name": "tokenId",
          "type": "uint256"
        },
        {
          "internalType": "uint256",
          "name": "weight",
          "type": "uint256"
        },
        {
          "internalType": "string",
          "name": "dimensions",
          "type": "string"
        },
        {
          "internalType": "string",
          "name": "temperatureRequirement",
          "type": "string"
        },
        {
          "internalType": "string",
          "name": "storageCondition",
          "type": "string"
        }
      ],
      "name": "updateProductCharacteristics",
      "outputs": [],
      "stateMutability": "nonpayable",
      "type": "function"
    },
    {
      "inputs": [
        {
          "internalType": "uint256",
          "name": "tokenId",
          "type": "uint256"
        },
        {
          "internalType": "uint256",
          "name": "price",
          "type": "uint256"
        },
        {
          "internalType": "string",
          "name": "currency",
          "type": "string"
        }
      ],
      "name": "updateProductPricing",
      "outputs": [],
      "stateMutability": "nonpayable",
      "type": "function"
    },
    {
      "inputs": [
        {
          "internalType": "uint256",
          "name": "tokenId",
          "type": "uint256"
        },
        {
          "internalType": "string",
          "name": "supplier",
          "type": "string"
        },
        {
          "internalType": "string",
          "name": "originCountry",
          "type": "string"
        }
      ],
      "name": "updateProductSupplier",
      "outputs": [],
      "stateMutability": "nonpayable",
      "type": "function"
    },
    {
      "inputs": [
        {
          "internalType": "uint256",
          "name": "shipmentId",
          "type": "uint256"
        },
        {
          "internalType": "uint256",
          "name": "actualCost",
          "type": "uint256"
        }
      ],
      "name": "updateShipmentActualCost",
      "outputs": [],
      "stateMutability": "nonpayable",
      "type": "function"
    }
  ],
  "bytecode": "0x60803462000348576001600160401b03906040908082018381118282101762000332578252601581526020927f50726f547261636b20537570706c7920436861696e0000000000000000000000848301528251838101818110838211176200033257845260048152635054534360e01b85820152825190828211620003325760008054926001958685811c9516801562000327575b8986101462000313578190601f95868111620002c0575b5089908683116001146200025c57849262000250575b5050600019600383901b1c191690861b1781555b81519384116200023c5784548581811c9116801562000231575b888210146200021d57838111620001d5575b50869284116001146200016f5783949596509262000163575b5050600019600383901b1c191690821b1781555b806008556200013d336200034d565b506200014933620003ce565b50806014558060155560165551618bce9081620004728239f35b0151905038806200011a565b9190601f1984169685845280842093905b888210620001bd5750508385969710620001a3575b505050811b0181556200012e565b015160001960f88460031b161c1916905538808062000195565b80878596829496860151815501950193019062000180565b8582528782208480870160051c8201928a881062000213575b0160051c019086905b8281106200020757505062000101565b838155018690620001f7565b92508192620001ee565b634e487b7160e01b82526022600452602482fd5b90607f1690620000ef565b634e487b7160e01b81526041600452602490fd5b015190503880620000c1565b8480528a85208994509190601f198416865b8d828210620002a957505084116200028f575b505050811b018155620000d5565b015160001960f88460031b161c1916905538808062000281565b8385015186558c979095019493840193016200026e565b9091508380528984208680850160051c8201928c861062000309575b918a91869594930160051c01915b828110620002fa575050620000ab565b8681558594508a9101620002ea565b92508192620002dc565b634e487b7160e01b83526022600452602483fd5b94607f169462000094565b634e487b7160e01b600052604160045260246000fd5b600080fd5b6001600160a01b031660008181527f6d5257204ebe7d88fd91ae87941cb2dd9d8062b64ae5a2bd2d28ec40b9fbf6df602052604081205490919060ff16620003ca5781805260076020526040822081835260205260408220600160ff198254161790553391600080516020620090408339815191528180a4600190565b5090565b6001600160a01b031660008181527fa70365933f78520ef41d6645ba61e509916296603327302d41466c063e8e260860205260408120549091907fa49807205ce4d355092ef5a8a18f56e8913cf4a201fbe287825b095693c217759060ff166200046c5780835260076020526040832082845260205260408320600160ff1982541617905560008051602062009040833981519152339380a4600190565b50509056fe6102e080604052600436101561001457600080fd5b60003560e01c90816301ffc9a71461732157508063020f3fbf146172f8578063062d3bd7146172cf57806306fdde031461722c57806307d215d2146171ac57806307e2cea51461718357806308021d1e14617165578063081812fc14617127578063092b374014616a48578063095ea7b3146169615780630bcb9c931461683c5780630c8b0e5714616777578063115da32e146166b0578063141bc40914615c0b5780631f2787b914615ab8578063204d792314615a7d5780632115e7bf14615a4257806323b872dd14615a2b578063248a9ca3146159fc5780632643ce33146159375780632927d1d9146158365780632ac08a93146153305780632f2ff15d146152f15780632fe9f958146152b257806336568abe1461526b578063396e58bf14614e0a5780634037ee3f14614dc157806342842e0e14614d9957806348fd93d014614a035780634a6323d6146145b65780634bc39ec2146145905780634eabbe77146145675780634ec0c9e9146143595780635952e65714614266578063634873e7146141445780636352211e1461411457806365dd152c1461408157806370a082311461402857806375b238fc14613fff5780637a85e0f514613f175780637acc0b2014613c305780638668cb02146134375780638f3cace2146133ac57806391d148541461335f57806395d89b411461329a578063965288b014613271578063980da38514612e3a5780639ce0f97314612d0b5780639e03ed7014612a8e578063a217fddf14612a72578063a22cb465146129cd578063a40b9ddf146129a4578063a591eea1146128e2578063a721a1a714612867578063a7605e921461275d578063ac8c020f146126ba578063b200835714611c92578063b5788b4914611c45578063b88d4fde14611be6578063b9db15b414611772578063b9e25fa8146115e5578063bedd113614611589578063c2bdc5a31461153a578063c47312711461148d578063c87b56dd1461141f578063c8ce963114610a96578063cba1ebd514610a4b578063ced2dea414610989578063d25849ee146108a9578063d3d9586f146107ae578063d547741f1461076d578063d7cb8d3414610732578063d9a5ec1b146106a7578063e3a3c5221461067e578063e985e9c5146106285763f04fe44e1461036457600080fd5b346106235761037236617644565b3360009081527fac424760c614b43c69c667e7978906b93f2529d8f189750a0fe2c43d25b812086020908152604090912054909190600080516020618a198339815191529060ff161561060557506103c8618084565b60008381526002835260409020546001600160a01b0316156105f357805180159081156105e7575b506105d557826000526009825260ff6008604060002001541660088110156105bf576105ad5760008381526009835260409020815191906006016001600160401b038311610597578261044e86946104488454617673565b84617e59565b84601f821160011461050a57600080516020618a7983398151915295936040959383600080516020618b39833981519152946104e8946000916104ff575b508160011b916000199060031b1c19161790555b60008481526009865286902060088101805460ff19166001179055600b0180546001600160801b031916426001600160801b03161790558551858152918291828701906173e3565b0390a2815190600182523390820152a26001600855005b90508301513861048c565b601f1982169083600052866000209160005b81811061057d5750936001846104e894600080516020618a798339815191529a9894600080516020618b398339815191529760409b9910610564575b5050811b0190556104a0565b85015160001960f88460031b161c191690553880610558565b82870151845589975060019093019291880191880161051c565b634e487b7160e01b600052604160045260246000fd5b6040516307a92f1960e51b8152600490fd5b634e487b7160e01b600052602160045260246000fd5b604051631623655b60e31b8152600490fd5b610100915011386103f0565b6040516379de4af560e01b8152600490fd5b6044906040519063e2517d3f60e01b82523360048301526024820152fd5b600080fd5b3461062357604036600319011261062357610641617415565b61064961742b565b9060018060a01b03809116600052600560205260406000209116600052602052602060ff604060002054166040519015158152f35b34610623576000366003190112610623576020604051600080516020618a398339815191528152f35b34610623576040366003190112610623576004356106c361742b565b906106cc617848565b6106d4618084565b6000818152600260205260409020546001600160a01b03908116156105f357816000526011602052604060002092169182600052602052604060002060ff198154169055600080516020618a59833981519152600080a36001600855005b346106235760003660031901126106235760206040517fe34aaecbfe1f40867dcba8678fbed9f4ffa5782221fa3bb500b71b2a804303188152f35b34610623576040366003190112610623576107ac60043561078c61742b565b908060005260076020526107a7600160406000200154617914565b6179ba565b005b34610623576107bc366177d3565b9091806000526020916002835260018060a01b03938460406000205416156105f3576107e792618348565b6040519260408401946040855283518096526060958686019183888360051b8901019601926000915b8383106108235788808989898301520390f35b909192939685808b600193605f198d82030187526108886108758d51938451845288868601511686850152604085015161085c816177ed565b6040850152808501519060c080918601528401906173e3565b60808085015190848303908501526173e3565b9160a09081878060801b039101511691015299019301930191939290610810565b3461062357608036600319011261062357600435602435601581101561062357604435606435916108d8617848565b6108e0618084565b6000848152600260205260409020546001600160a01b0316156105f35781831315610977577f788ac0dd6610b0230fc8208068e5195fe95cb0653b6198b5a2fe809ae1b65dff926060928560005260136020526002610943846040600020617830565b82815583600182015501600160ff1982541617905561096560405180946177f7565b60208301526040820152a26001600855005b60405163b4fa3fb360e01b8152600490fd5b34610623576020806003193601126106235760043560008181526002835260409020546001600160a01b0316156105f357600052600e8152604060002060405190818382549182815201908192600052846000209060005b86828210610a375786866109f782880383617568565b604051928392818401908285525180915260408401929160005b828110610a2057505050500390f35b835185528695509381019392810192600101610a11565b8354855290930192600192830192016109e1565b34610623576060610a71610a5e36617811565b9060005260136020526040600020617830565b80549060ff600260018301549201541690604051928352602083015215156040820152f35b346106235760031960203682011261062357600435906001600160401b038211610623576101a09082360301126106235760405190610ad482617471565b80600401358252610ae760248201617441565b6020830152610af860448201617441565b604083015260648101356001600160401b03811161062357610b2090600436918401016175dd565b606083015260848101356001600160401b03811161062357610b4890600436918401016175dd565b6080830152610b5960a482016175fb565b60a0830152610b6a60c482016175fb565b60c083015260e48101356001600160401b03811161062357610b9290600436918401016175dd565b60e08301526101048101356001600160401b03811161062357610bbb90600436918401016175dd565b610100830152610124810135610120830152610144810135610140830152610164810135610160830152610184810135906001600160401b038211610623576004610c0992369201016175dd565b610180820152610c176178ca565b610c1f618084565b80516001600160a01b0390610c3390617db7565b16156105f35760208101516001600160a01b0316156109775760c081015160a08201516001600160801b039182169116101561140d578051600052600960205260ff6008604060002001541660088110156105bf5760018114159081611401575b506105ad57601554610ca581617dd2565b6015556000818152600a602090815260408083208481558551600182018190558452600980845293829020909301546002840180546001600160a01b03199081166001600160a01b0393841617909155928601516003850180548516918316919091179055908501516004840180549093169116179055606083015180519093919291906001600160401b03811161059757610d5181610d486005870154617673565b60058701617e59565b6020601f8211600114611392578192939495600092611387575b50508160011b916000199060031b1c19161760058401555b608081015180519093906001600160401b03811161059757610db581610dac6006850154617673565b60068501617e59565b6020601f821160011461131857819293949560009261130d575b50508160011b916000199060031b1c19161760068201555b60a08201516007820180546001600160801b0319166001600160801b0392831617815560c0840151610e1a921690617e9e565b60088101805460ff1916905560e082015180519093906001600160401b03811161059757610e5881610e4f6009860154617673565b60098601617e59565b6020601f821160011461129e578192939495600092611293575b50508160011b916000199060031b1c19161760098301555b61010083015180519093906001600160401b03811161059757610ebd81610eb4600a870154617673565b600a8701617e59565b6020601f8211600114611224578192939495600092611219575b50508160011b916000199060031b1c191617600a8401555b426001600160801b0316600b8401556000600c8401819055600d840180546001600160801b0319169055604051610f258161754d565b52600e8301546000600e850155806111a4575b50600e83016000526000600f8401610f59610f538254617673565b82617e2f565b55600060108401610f6d610f538254617673565b556101208101516011840155610140810151601284015561016081015160138401556000601484015561018081015180519093906001600160401b03811161059757602094610fcc82610fc36015860154617673565b60158601617e59565b8590601f831160011461113257918060009492601c948692611127575b50508160011b9185199060031b1c19161760158201555b60168101611011610f538254617673565b600c656d656469756d60d01b0190558260178201611032610f538254617673565b558260188201611045610f538254617673565b558260198201611058610f538254617673565b5582601a820161106b610f538254617673565b5582601b820161107e610f538254617673565b550161108d610f538254617673565b558051600052600e83526110a58260406000206180be565b6110b0601e54617dd2565b601e556110c46101408201516021546180f3565b6021556110d86101608201516022546180f3565b60225580516000818152600980865260409182902001549285015190516001600160a01b0391821681529216918390600080516020618b79833981519152908690a46001600855604051908152f35b015190508880610fe9565b9060158401600052866000209160005b601f198516811061118d57509260009492600192601c9583601f19811610611175575b505050811b016015820155611000565b0151861960f88460031b161c19169055888080611165565b919288600181928685015181550194019201611142565b600e84016000526020600020908101905b8181106111c25750610f38565b806111cf60019254617673565b806111dc575b50016111b5565b601f811183146111f25750600081555b866111d5565b600090828252611210601f60208420920160051c8201858301617e18565b818355556111ec565b015190508580610ed7565b600a850160005260206000209060005b601f198416811061127b575060019394959683601f19811610611262575b505050811b01600a840155610eef565b015160001960f88460031b161c19169055858080611252565b9091602060018192858b015181550193019101611234565b015190508580610e72565b6009840160005260206000209060005b601f19841681106112f5575060019394959683601f198116106112dc575b505050811b016009830155610e8a565b015160001960f88460031b161c191690558580806112cc565b9091602060018192858b0151815501930191016112ae565b015190508580610dcf565b6006830160005260206000209060005b601f198416811061136f575060019394959683601f19811610611356575b505050811b016006820155610de7565b015160001960f88460031b161c19169055858080611346565b9091602060018192858b015181550193019101611328565b015190508580610d6b565b6005850160005260206000209060005b601f19841681106113e9575060019394959683601f198116106113d0575b505050811b016005840155610d83565b015160001960f88460031b161c191690558580806113c0565b9091602060018192858b0151815501930191016113a2565b60039150141582610c94565b60405163b7d0949760e01b8152600490fd5b346106235760203660031901126106235760043561143c81617d7c565b50600052600660205261148961145f6114666040600020604051928380926176ad565b0382617568565b60006040516114748161754d565b526040519182916020835260208301906173e3565b0390f35b3461062357602036600319011261062357600435600052601260205260406000208054604051916114cc836114c581600185016176ad565b0384617568565b60ff61151c6003604051936114ef856114e881600285016176ad565b0386617568565b01549261150e604051968796875260a0602088015260a08701906173e3565b9085820360408701526173e3565b9160018060801b038116606085015260801c16151560808301520390f35b346106235760203660031901126106235760043580600052600a602052604060002054156115775761156d60209161873c565b6040519015158152f35b60405163124b8b2b60e31b8152600490fd5b34610623576020366003190112610623576004356001600160401b038111610623576115d260206115bf819336906004016175dd565b81604051938285809451938492016173c0565b8101600c81520301902054604051908152f35b34610623576060366003190112610623576001600160401b03600435604435828111610623576116199036906004016175dd565b91611622617848565b61162a618084565b816000526020906002825260018060a01b0360406000205416156105f35783518015908115611766575b506105d5578260005260098252600e6040600020602435600d8201550190845190811161059757611689816104488454617673565b82601f82116001146116fe578190600995966000926116f3575b50508160011b916000199060031b1c19161790555b8260005252600080516020618a798339815191526116e960ff60086040600020015416604051918291339083617f1d565b0390a26001600855005b0151905086806116a3565b601f1982169583600052846000209660005b81811061174f5750916009969791846001959410611736575b505050811b0190556116b8565b015160001960f88460031b161c19169055868080611729565b838301518955600190980197928601928601611710565b61010091501185611654565b346106235760203660031901126106235760006102a0604051611794816174fb565b6060815260606020820152606060408201526060808201528260808201528260a08201528260c0820152606060e082015260606101008201528261012082015282610140820152826101608201526060610180820152826101a0820152826101c0820152826101e08201528261020082015282610220820152826102408201528261026082015260606102808201520152600435600052600260205260018060a01b0360406000205416156105f3576004356000526009602052604060002060405190611860826174fb565b6040516118718161145f81856176ad565b82526040516118878161145f81600186016176ad565b60208301526040516118a08161145f81600286016176ad565b60408301526040516118b98161145f81600386016176ad565b606083015260048101546001600160a01b031660808084019190915260058201546001600160801b03811660a0850152901c60c08301526040516119048161145f81600686016176ad565b60e083015260405161191d8161145f81600786016176ad565b610100830152600881015490600860ff831610156105bf5760ff821661012084015260089190911c6001600160a01b03908116610140840152600982015416610160830152604051600f919061197a8161145f81600a86016176ad565b61018084015260ff600b82015460018060801b0381166101a0860152818160801c1615156101c0860152818160881c1615156101e08601526119c0828260901c166177ed565b818160901c166102008601526119da828260981c166177ed565b60981c16610220840152600c810154610240840152600d810154610260840152604051611a0e8161145f81600e86016176ad565b61028084015201546102a08201526040518091602082526102a0611bd9611b51611aff611ae7611a97611a81611a6b611a5589516102c060208d01526102e08c01906173e3565b60208a01518b8203601f190160408d01526173e3565b60408901518a8203601f190160608c01526173e3565b6060880151898203601f190160808b01526173e3565b60808701516001600160a01b031660a0898101919091528701516001600160801b0390811660c0808b01919091528801511660e0808a0191909152870151888203601f19016101008a01526173e3565b610100860151878203601f19016101208901526173e3565b611b13610120860151610140880190617804565b6101408501516001600160a01b03908116610160888101919091528601511661018080880191909152850151868203601f19016101a08801526173e3565b60018060801b036101a0850151166101c08601526101c084015115156101e08601526101e08401511515610200860152610200840151611b90816177ed565b610220860152610220840151611ba5816177ed565b610240860152610240840151610260860152610260840151610280860152610280840151601f1986830301848701526173e3565b9101516102c08301520390f35b3461062357608036600319011261062357611bff617415565b611c0761742b565b606435916001600160401b038311610623573660238401121561062357611c3b6107ac9336906024816004013591016175a6565b9160443591617c0a565b3461062357604036600319011261062357611c5e61742b565b600435600052601160205260406000209060018060a01b0316600052602052602060ff604060002054166040519015158152f35b346106235760031960203682011261062357600435906001600160401b0382116106235761014080918336030112610623576040519081016001600160401b038111828210176105975760405260048201356001600160401b03811161062357611d0290600436918501016175dd565b815260248201356001600160401b03811161062357611d2790600436918501016175dd565b602082015260448201356001600160401b03811161062357611d4f90600436918501016175dd565b604082015260648201356001600160401b03811161062357611d7790600436918501016175dd565b6060820152611d8860848301617441565b6080820152611d9960a483016175fb565b60a0820152611daa60c483016175fb565b60c082015260e48201356001600160401b03811161062357611dd290600436918501016175dd565b60e08201526101048201356001600160401b03811161062357610124611e01611e1092600436918701016175dd565b93610100948585015201617441565b610120820152611e1e617880565b611e26618084565b8051518281159182156126b0575b50506105d5576020810151518281159182156126a6575b50506105d55760408101515182811591821561269c575b50506105d557606081015151156109775760808101516001600160a01b0316158015612686575b6109775760c081015160a08201516001600160801b039182169116101561140d57611eb48151617787565b5461267457611ec660208201516177ad565b546126745760145490611ed882617dd2565b601455610120810151611ef59083906001600160a01b0316617f3f565b611f028382015183617f79565b608081015160e082015160405191611f3f918391611f319190429088906001600160a01b031660208601617de1565b03601f198101835282617568565b60208151910120826000526009602052604060002093825180519060018060401b038211610597578190611f7d82611f778a54617673565b8a617e59565b602090601f8311600114612608576000926125fd575b50508160011b916000199060031b1c19161785555b60208301518051906001600160401b038211610597578190611fda82611fd160018b0154617673565b60018b01617e59565b602090601f831160011461258b57600092612580575b50508160011b916000199060031b1c19161760018601555b60408301518051906001600160401b03821161059757819061203a8261203160028b0154617673565b60028b01617e59565b602090601f831160011461250e57600092612503575b50508160011b916000199060031b1c19161760028601555b60608301518051906001600160401b03821161059757819061209a8261209160038b0154617673565b60038b01617e59565b602090601f831160011461249157600092612486575b50508160011b916000199060031b1c19161760038601555b60808301516004860180546001600160a01b0319166001600160a01b039290921691909117905560a08301516005860180546001600160801b0319166001600160801b0392831617815560c0850151612122921690617e9e565b60e08301518051906001600160401b0382116105975781906121548261214b60068b0154617673565b60068b01617e59565b602090601f831160011461241457600092612409575b50508160011b916000199060031b1c19161760068601555b82015180519094906001600160401b038111610597576020956121b5826121ac6007860154617673565b60078601617e59565b8690601f831160011461239757918060009492600f94869261238c575b50508160011b9185199060031b1c19161760078201555b600881019361220260ff19958681541681553390617ec1565b6101208601516009830180546001600160a01b0319166001600160a01b0392909216919091179055600a8201805461223d90610f5390617673565b602c754d616e75666163747572696e6720466163696c69747960501b019055600b820180546001600160a01b031916426001600160801b0316179055600c820155600d8101839055600e8101805461229890610f5390617673565b6006621554d160ea1b0190550155826122b18351617787565b55826122bf858401516177ad565b558260005260118452604060002060018060a01b03610120840151166000528452600160406000209182541617905560018060a01b036101208201511682600080516020618b19833981519152600080a361231b601754617dd2565b601755817f2e81e137755e5a5eb258f5b5e1258007a5e96e970880d7c8ee40e68f91db8a4d8251926040868201519101519061235e604051928392339784617ee6565b0390a380600080516020618a7983398151915260408051600081523386820152a26001600855604051908152f35b0151905089806121d2565b9060078401600052876000209160005b601f19851681106123f257509260009492600192600f9583601f198116106123da575b505050811b0160078201556121e9565b0151861960f88460031b161c191690558980806123ca565b9192896001819286850151815501940192016123a7565b01519050878061216a565b9250600688016000526020600020906000935b601f198416851061246b576001945083601f19811610612452575b505050811b016006860155612182565b015160001960f88460031b161c19169055878080612442565b81810151835560209485019460019093019290910190612427565b0151905087806120b0565b9250600388016000526020600020906000935b601f19841685106124e8576001945083601f198116106124cf575b505050811b0160038601556120c8565b015160001960f88460031b161c191690558780806124bf565b818101518355602094850194600190930192909101906124a4565b015190508780612050565b9250600288016000526020600020906000935b601f1984168510612565576001945083601f1981161061254c575b505050811b016002860155612068565b015160001960f88460031b161c1916905587808061253c565b81810151835560209485019460019093019290910190612521565b015190508780611ff0565b9250600188016000526020600020906000935b601f19841685106125e2576001945083601f198116106125c9575b505050811b016001860155612008565b015160001960f88460031b161c191690558780806125b9565b8181015183556020948501946001909301929091019061259e565b015190508780611f93565b9250876000526020600020906000935b601f1984168510612659576001945083601f19811610612640575b505050811b018555611fa8565b015160001960f88460031b161c19169055878080612633565b81810151835560209485019460019093019290910190612618565b604051637afeb2e160e01b8152600490fd5b506101208101516001600160a01b031615611e89565b1190508284611e62565b1190508284611e4b565b1190508284611e34565b34610623576126c836617811565b906000604080516126d8816174e0565b828152826020820152015280600052600260205260018060a01b0360406000205416156105f3576060916127189160005260136020526040600020617830565b604051612724816174e0565b815491828252604060ff600260018401549360208601948552015416920191151582526040519283525160208301525115156040820152f35b3461062357602080600319360112610623576000608060405161277f816174c5565b828152606084820152606060408201528260608201520152600435600052601281526040600020604051906127b3826174c5565b805482526040516127cb8161145f81600186016176ad565b8383019081526003604051926127ef846127e881600285016176ad565b0385617568565b60408501938452015490612853606085019361284060018060801b0393848616875260ff608089019660801c1615158652604051988998818a5251908901525160a0604089015260c08801906173e3565b9051868203601f190160608801526173e3565b925116608084015251151560a08301520390f35b346106235761287536617743565b9061287e617848565b612886618084565b80600052600a6020526040600020541561157757600052600a602052601360406000208260148201550154116000146128cf576128c4602054617dd2565b6020555b6001600855005b6128da601f54617dd2565b601f556128c8565b34610623576020366003190112610623576004356128fe617848565b612906618084565b6000818152600260205260409020546001600160a01b0316156105f35780600052600960205260ff600b6040600020015460801c1661299257806000526009602052600b604060002001600160801b60ff60801b198254161790557fb36435e52dd9366442270f4b2b37bb85de263c4948d61cab592ff58f5906d82d6020604051338152a26001600855005b6040516358b2164f60e11b8152600490fd5b34610623576000366003190112610623576020604051600080516020618a198339815191528152f35b34610623576040366003190112610623576129e6617415565b60243590811515809203610623576001600160a01b0316908115612a5957336000526005602052604060002082600052602052604060002060ff1981541660ff83161790556040519081527f17307eab39ab6107e8899845ad3d59bd9653f200f220920489ca2b5937696c3160203392a3005b604051630b61174360e31b815260048101839052602490fd5b3461062357600036600319011261062357602060405160008152f35b34610623576040366003190112610623576001600160401b0360043581811161062357612abf9036906004016175dd565b60243582811161062357612ad79036906004016175dd565b612adf617848565b81518015908115612cff575b506105d55780518015908115612cf3575b506105d55760165492612b0e84617dd2565b60165583600052602091601283526040600020918583556001808401865183811161059757612b41816104488454617673565b8087601f8211600114612c9157600091612c86575b50600019600383901b1c191690831b1790555b6002840192805192831161059757612b8b83612b858654617673565b86617e59565b8590601f8411600114612c0c5792806003959381936000805160206189598339815191529a999896600094612c01575b50501b9160001990861b1c19161790555b0180546001600160881b031916426001600160801b0316179055604051818152918291612bfc91908301906173e3565b0390a2005b015192508b80612bbb565b90601f9392931983169185600052876000209260005b818110612c7157509160008051602061895983398151915299989795939185600398969410612c59575b505050811b019055612bcc565b015160001983881b60f8161c19169055898080612c4c565b82840151855593860193928901928901612c22565b90508801518a612b56565b849250601f1982169084600052896000209160005b8b8d838310612cde575050508311612cc5575b5050811b019055612b69565b8a015160001960f88460031b161c191690558a80612cb9565b84015185558896909401939283019201612ca6565b61010091501184612afc565b61010091501184612aeb565b3461062357612d1936617644565b612d21617848565b612d29618084565b816000526020906002825260018060a01b0360406000205416156105f35780518015908115612e2e575b506105d557826000526009825260ff600b6040600020015460881c16612e1c57600083815260098352604090819020600b810180546008909201805460ff19166005179055600161ff0160801b0319909116426001600160801b031617600160881b1790558051838152600080516020618a79833981519152939192339186917fc836b58f1d2b092e3af919aae9a0607bb0c4fe552aa37d0d7ed26885488b739991908190612e0590828801906173e3565b0390a3815190600582523390820152a26001600855005b604051634bb5dc5960e11b8152600490fd5b61010091501184612d53565b346106235760803660031901126106235760043560249081356004811015610623576001600160401b0360443581811161062357612e7c9036906004016175dd565b60643582811161062357612e949036906004016175dd565b94600080516020618999833981519152928360005260209360078552604060002033600052855260ff60406000205416156132545750612ed2618084565b60008681526002855260409020546001600160a01b0316156105f35785600052600f84526040600020968754600160401b81101561323f57600198898201808255612f1d8383618129565b5050821161322a5790612f2f91618129565b50938785558885018054612f42896177ed565b6001600160a81b0319163360ff60a01b19161760a089901b60ff60a01b1617905580516002860191848211613215578190612f8182612b858654617673565b8890601f83116001146131a95760009261319e575b5050600019600383901b1c1916908a1b1790555b6003840192815192831161318a5750612fcd82612fc78554617673565b85617e59565b8490601f831160011461310e5791806040969492600080516020618939833981519152989694600092613103575b5050600019600383901b1c191690891b1790555b60040180546001600160801b0342166001600160801b03199182168117909255600087815260098452859020909190600b0161304a856177ed565b805460ff60901b1916609086901b60ff60901b16179055600087815260098452859020600b018054909216179055613081826177ed565b858214806130e4575b613093836177ed565b156130c0576130a3601a54617dd2565b601a555b8251916130b3816177ed565b82523390820152a2600855005b6130c9826177ed565b600282036130a7576130dc601b54617dd2565b601b556130a7565b856000526009825260088460002001600660ff1982541617905561308a565b015190508a80612ffb565b889291601f1983169185600052876000209260005b81811061317357509160008051602061893983398151915299979593918560409a9896941061315a575b505050811b01905561300f565b015160001960f88460031b161c191690558a808061314d565b8284015185558c9690940193928901928901613123565b634e487b7160e01b60009081526041600452fd5b015190508b80612f96565b908c9350601f19831691856000528a6000209260005b8c8282106131f657505084116131dd575b505050811b019055612faa565b015160001960f88460031b161c191690558b80806131d0565b91929395968291958786015181550195019301908e95949392916131bf565b85634e487b7160e01b60005260416004526000fd5b84634e487b7160e01b60005260116004526000fd5b83634e487b7160e01b60005260416004526000fd5b826044916040519163e2517d3f60e01b8352336004840152820152fd5b346106235760003660031901126106235760206040516000805160206189b98339815191528152f35b3461062357600036600319011261062357604051600090600180546132be81617673565b8084529082811690811561333757506001146132f9575b611489836132e581870382617568565b6040519182916020835260208301906173e3565b92508060005260209283600020916000925b828410613324575050508101909101906132e5816132d5565b805485850187015292850192810161330b565b61148995506132e593506020915091849260ff191682840152151560051b82010193506132d5565b346106235760403660031901126106235761337861742b565b600435600052600760205260406000209060018060a01b0316600052602052602060ff604060002054166040519015158152f35b34610623576020366003190112610623576004356133c8617848565b6133d0618084565b80600052601260205260406000205415610977578060005260126020526003604060002001600160801b60ff60801b198254161790557f76894baff3e8187f11d9470c86d485bfd874ff0daed813fd410e2ed55e056ed36020604051338152a26001600855005b346106235760031960203682011261062357600435906001600160401b038211610623576101209082360301126106235760405190613475826174a9565b8060040135825261348860248201617441565b602083015261349960448201617441565b604083015260648101356001600160401b038111610623576134c190600436918401016175dd565b606083015260848101356001600160401b038111610623576134e990600436918401016175dd565b60808301526134fa60a482016175fb565b60a083015261350b60c482016175fb565b60c083015260e48101356001600160401b0381116106235761353390600436918401016175dd565b60e0830152610104810135906001600160401b03821161062357600461355c92369201016175dd565b61010082015261356a6178ca565b613572618084565b80516001600160a01b039061358690617db7565b16156105f35760208101516001600160a01b0316156109775760c081015160a08201516001600160801b039182169116101561140d578051600052600960205260ff6008604060002001541660088110156105bf5760018114159081613c24575b506105ad576015546135f881617dd2565b6015556000818152600a602090815260408083208481558551600182018190558452600980845293829020909301546002840180546001600160a01b03199081166001600160a01b0393841617909155928601516003850180548516918316919091179055908501516004840180549093169116179055606083015180519093919291906001600160401b0381116105975761369b81610d486005870154617673565b6020601f8211600114613bb5578192939495600092613baa575b50508160011b916000199060031b1c19161760058401555b608081015180519093906001600160401b038111610597576136f681610dac6006850154617673565b6020601f8211600114613b3b578192939495600092613b30575b50508160011b916000199060031b1c19161760068201555b60a08201516007820180546001600160801b0319166001600160801b0392831617815560c084015161375b921690617e9e565b60088101805460ff1916905560e082015180519093906001600160401b0381116105975761379081610e4f6009860154617673565b6020601f8211600114613ac1578192939495600092613ab6575b50508160011b916000199060031b1c19161760098301555b61010083015180519093906001600160401b038111610597576137ec81610eb4600a870154617673565b6020601f8211600114613a47578192939495600092613a3c575b50508160011b916000199060031b1c191617600a8401555b426001600160801b0316600b8401556000600c8401819055600d840180546001600160801b03191690556040516138548161754d565b52600e83019283549360008155846139ca575b60209450600052601c600f8201916138886138828454617673565b84617e2f565b6000809355826010820161389f610f538254617673565b5560006011820155600060128201556000601382015560006014820155601581016138cd610f538254617673565b6006621554d160ea1b019055601681016138ea610f538254617673565b600c656d656469756d60d01b019055826017820161390b610f538254617673565b55826018820161391e610f538254617673565b558260198201613931610f538254617673565b5582601a8201613944610f538254617673565b5582601b8201613957610f538254617673565b5501613966610f538254617673565b558051600052600e835261397e8260406000206180be565b80516000818152600980865260409182902001549285015190516001600160a01b0391821681529216918390600080516020618b79833981519152908690a46001600855604051908152f35b806000526020600020948501945b8581106139e55750613867565b806139f260019254617673565b806139ff575b50016139d8565b601f81118314613a155750600081555b876139f8565b600090828252613a33601f60208420920160051c8201858301617e18565b81835555613a0f565b015190508580613806565b600a850160005260206000209060005b601f1984168110613a9e575060019394959683601f19811610613a85575b505050811b01600a84015561381e565b015160001960f88460031b161c19169055858080613a75565b9091602060018192858b015181550193019101613a57565b0151905085806137aa565b6009840160005260206000209060005b601f1984168110613b18575060019394959683601f19811610613aff575b505050811b0160098301556137c2565b015160001960f88460031b161c19169055858080613aef565b9091602060018192858b015181550193019101613ad1565b015190508580613710565b6006830160005260206000209060005b601f1984168110613b92575060019394959683601f19811610613b79575b505050811b016006820155613728565b015160001960f88460031b161c19169055858080613b69565b9091602060018192858b015181550193019101613b4b565b0151905085806136b5565b6005850160005260206000209060005b601f1984168110613c0c575060019394959683601f19811610613bf3575b505050811b0160058401556136cd565b015160001960f88460031b161c19169055858080613be3565b9091602060018192858b015181550193019101613bc5565b600391501415826135e7565b3461062357602036600319011261062357600435600052600960205260406000206040519081613c6081836176ad565b03613c6b9083617568565b60405180613c7c81600185016176ad565b03613c879082617568565b6040519081613c9981600286016176ad565b03613ca49083617568565b6040519182613cb681600387016176ad565b03613cc19084617568565b600484015460058501546040519094916001600160a01b03169080613ce98160068a016176ad565b03613cf49082617568565b6040519081613d068160078b016176ad565b03613d119083617568565b600888015460098901546040519491936001600160a01b0390911692909185613d3d81600a8e016176ad565b03613d489087617568565b600b8b015496600c8c015498600d8d01549a6040519d8e8080600e840190613d6f916176ad565b03613d7991617568565b600f01549e60405180610200526102c08091526102005101613d9a916173e3565b610200518082039060200152613daf916173e3565b610200518082039060400152613dc4916173e3565b610200518082039060600152613dd9916173e3565b906102005160800152600160801b60019003998a81166102005160a0015260801c6102005160c00152610200518082039060e00152613e17916173e3565b61020051808203906101000152613e2d916173e3565b91610200516101200160ff821690613e4491617804565b600160a01b600190039060081c1661020051610140015261020051610160015261020051808203906101800152613e7a916173e3565b938116610200516101a001528060801c60ff161515610200516101c001528060881c60ff161515610200516101e001528060901c60ff16613eba816177ed565b61020051610200015260981c60ff16613ed2816177ed565b61020051610220015261020051610240015261020051610260015261020051808203906102800152613f03916173e3565b90610200516102a001526102005180910390f35b34610623576060366003190112610623576004356001600160401b0360243581811161062357613f4b9036906004016175dd565b9060443590811161062357613f649036906004016175dd565b90613f6d617848565b613f75618084565b6000838152600260205260409020546001600160a01b0316156105f357518015908115613ff3575b506105d557518015908115613fe7575b506105d557806000526009602052600080516020618a798339815191526116e960ff60086040600020015416604051918291339083617f1d565b61010091501182613fad565b61010091501183613f9d565b34610623576000366003190112610623576020604051600080516020618af98339815191528152f35b34610623576020366003190112610623576001600160a01b03614049617415565b1680156140685760005260036020526020604060002054604051908152f35b6040516322718ad960e21b815260006004820152602490fd5b346106235760403660031901126106235760043561409d61742b565b6140a5617848565b6140ad618084565b6000828152600260205260409020546001600160a01b0391908216156105f35716908115610977578060005260116020526040600020826000526020526040600020600160ff19825416179055600080516020618b19833981519152600080a36001600855005b34610623576020366003190112610623576020614132600435617d7c565b6040516001600160a01b039091168152f35b3461062357614152366177d3565b9091806000526020916002835260018060a01b03938460406000205416156105f35761417d92618159565b604051926040840194604085528351809652606080860183828960051b8901019601926000925b8984106141b75788808989898301520390f35b90919293968580614257600193605f198d82030188528b51805182526141e384820151858401906177f7565b6040810151604083015261421a61420788830151610120808b8701528501906173e3565b60808084015190858303908601526173e3565b9160a08981840151169082015260c0878060801b0381840151169082015260e0820151151560e082015261010080920151918184039101526173e3565b990194019401929391906141a4565b3461062357614274366177d3565b9091806000526020916002835260018060a01b03938460406000205416156105f35761429f926184c6565b6040519260408401946040855283518096526060958686019183888360051b8901019601926000915b8383106142db5788808989898301520390f35b909192939685808b600193605f198d820301875261432d6108758d519384518452888686015116868501526040850151614314816177ed565b604085015260e0818601519185015260e08401906173e3565b91858060801b0360a08181840151169084015260c08092015116910152990193019301919392906142c8565b346106235761436736617644565b61436f618084565b8160005260206002815260018060a01b038060406000205416156105f3578251801590811561455b575b506105d5576143a784617d7c565b8116331415908161453d575b508061450c575b6144fb578260005260098152600a604060002001825160018060401b038111610597576143eb816104488454617673565b82601f821160011461448357918161446894926000805160206189f98339815191529694600091614478575b508160011b916000199060031b1c19161790555b600085815260098252604090819020600b0180546001600160801b031916426001600160801b0316179055805181815293849390918401906173e3565b9033908301520390a26001600855005b905084015188614417565b601f1982169083600052846000209160005b8181106144e45750926000805160206189f9833981519152969492600192826144689896106144cb575b5050811b01905561442b565b86015160001960f88460031b161c1916905588806144bf565b91928660018192868b015181550194019201614495565b6040516282b42960e81b8152600490fd5b50600080516020618af983398151915260005260078152604060002033600052815260ff60406000205416156143ba565b905083600052600982523390600960406000200154161415846143b3565b61010091501185614399565b346106235760003660031901126106235760206040516000805160206189d98339815191528152f35b3461062357604036600319011261062357602061156d6145ae61742b565b600435618633565b346106235760c03660031901126106235760156024351015610623576064356001600160401b038111610623576145f19036906004016175dd565b6084356001600160401b038111610623576146109036906004016175dd565b9060a4356001600160401b038111610623576146309036906004016175dd565b3360009081527fc5ab710f8c4cc7c1afac50210ff340ab9e3a5797b579fcbb6114569dd517ba0a6020526040902054909290600080516020618ab98339815191529060ff16156106055750614683618084565b6004356000908152600260205260409020546001600160a01b0316156105f357600435600052600b60205260406000208054600160401b81101561059757600181018083556146d28284618100565b505081116149ed576146e391618100565b509160043583556001830160ff1981541660ff602435161790556044356002840155805160018060401b0381116105975780600385019261472882612b858654617673565b602090601f83116001146149875760009261497c575b50508160011b916000199060031b1c19161790555b8051906001600160401b0382116105975761477e826147756004860154617673565b60048601617e59565b602090601f8311600114614909576007939291600091836148fe575b50508160011b916000199060031b1c19161760048201555b6005810180546001600160a01b031916331790556006810180546001600160881b031916426001600160801b031617600160801b17905582519101906001600160401b0381116105975761480a816104488454617673565b602092601f821160011461489a579281929360009261488f575b50508160011b916000199060031b1c19161790555b604051614848816024356177f7565b60443560208201524260408201527f4a4200d10f50281fb36abe1c43b2c85f53e92f4bffe4cc227695f9c949f60f81606060043592a26128c86044356024356004356187c4565b015190508380614824565b601f198216938360005260206000209160005b8681106148e657508360019596106148cd575b505050811b019055614839565b015160001960f88460031b161c191690558380806148c0565b919260206001819286850151815501940192016148ad565b01519050858061479a565b906004840160005260206000209160005b601f1985168110614964575091839160019360079695601f1981161061494b575b505050811b0160048201556147b2565b015160001960f88460031b161c1916905585808061493b565b9192602060018192868501518155019401920161491a565b01519050868061473e565b6000858152602081209350601f198516905b8181106149d557509084600195949392106149bc575b505050811b019055614753565b015160001960f88460031b161c191690558680806149af565b92936020600181928786015181550195019301614999565b634e487b7160e01b600052601160045260246000fd5b3461062357614a1136617644565b614a19618084565b81600052600a602052604060002054156115775780518015908115614d8d575b506105d55781600052600a60205260406000209060039060018060a01b03828401541633141580614d66575b6144fb5760ff60088401541660068110156105bf576002036105ad576001830154600081815260096020819052604090912090810180546001600160a01b0319811633179091558351929590929091906001600160401b03811161059757614add81614ad4600a850154617673565b600a8501617e59565b6020601f8211600114614cfa579080600a92600091614cef575b508160011b9160001990891b1c1916179101555b60008581526009602052604090206008808201805460ff199081168817909155600b90920180546001600160801b031916426001600160801b031690811790915590830180548316871790559091614b669190600c01617e9e565b601160205260406000209160018060a01b0316918260005260205260406000208181541690558185600080516020618a59833981519152600080a384600052601160205260406000203360005260205260016040600020918254161790556040513385600080516020618b19833981519152600080a33315614cd95750614bed8433618861565b6001600160a01b03811680614c1557604051637e27328960e01b815260048101879052602490fd5b8203614cb6575091604091600080516020618a7983398151915293614c3b601954617dd2565b601955857fd67aa7c45f61c95d774abbdd7384089523fabb58f544debbc64c53e937d9774185516020815280614c76339660208301906173e3565b0390a48151908152336020820152a27fdd3eafcd99a3f4d8b6ce7d52cf71f07a3e59d9d6c0b066eaa314812456b6b8556020604051428152a26001600855005b6040516364283d7b60e01b8152918291614cd591879060048501617a31565b0390fd5b633250574960e11b815260006004820152602490fd5b90508601518a614af7565b600a830160005260206000209060005b601f1984168110614d4e575091600191600a9382601f19811610614d36575b5050811b01910155614b0b565b880151600019838b1b60f8161c191690558a80614d29565b9091602060018192858b015181550193019101614d0a565b50336000908152600080516020618979833981519152602052604090205460ff1615614a65565b61010091501183614a39565b34610623576107ac614daa3661760f565b9060405192614db88461754d565b60008452617c0a565b34610623576020366003190112610623576004356001600160401b03811161062357614df760206115bf819336906004016175dd565b8101600d81520301902054604051908152f35b346106235760a0366003190112610623576024600481351015610623576044356001600160401b03811161062357614e469036906004016175dd565b6064356001600160401b03811161062357614e659036906004016175dd565b6001600160801b03906084358083169003610623573360009081527f674f3e4fb6a06d567d1ba54367a37cfa280f2988d50a919f233dad2c73ed37206020526040902054600080516020618a998339815191529060ff161561524e5750614eca618084565b6004356000908152600260205260409020546001600160a01b0316156105f357600435600052601060205260406000208054600160401b8110156132155760018101808355614f198284618129565b5050811161523957614f2a91618129565b50926004358455600184018054614f4187356177ed565b6001600160a81b0319163360ff60a01b191617863560a01b60ff60a01b161790558051906001600160401b038211613215578190614f8f82614f866002890154617673565b60028901617e59565b602090601f83116001146151c7576000926151bc575b50508160011b916000199060031b1c19161760028401555b805160038401916001600160401b03821161321557614fe082612fc78554617673565b602090601f83116001146151505760049493929160009183615145575b50508160011b916000199060031b1c19161790555b421691019061503460018060801b031992828482541617815560843590617e9e565b6004356000526009602052600b60406000200161505184356177ed565b805460ff60981b853560981b169060ff60981b19161790556004356000526009602052600b6040600020019182541617905561508d81356177ed565b600181351480615122575b6150a282356177ed565b156150fc576150b2601c54617dd2565b601c555b604051906150c481356177ed565b3581523360208201527fbef39682416e0f6ff5c0dd7516ca989b4412f2784fcdda86d4c02e2a8477f454604060043592a26001600855005b61510681356177ed565b60028135036150b65761511a601d54617dd2565b601d556150b6565b60043560005260096020526008604060002001600760ff19825416179055615098565b015190508780614ffd565b90601f198316918460005260206000209260005b8181106151a457509160019391856004989796941061518b575b505050811b019055615012565b015160001960f88460031b161c1916905587808061517e565b92936020600181928786015181550195019301615164565b015190508680614fa5565b9250600286016000526020600020906000935b601f198416851061521e576001945083601f19811610615205575b505050811b016002840155614fbd565b015160001960f88460031b161c191690558680806151f5565b818101518355602094850194600190930192909101906151da565b85634e487b7160e01b60005260116004526000fd5b846044916040519163e2517d3f60e01b8352336004840152820152fd5b346106235760403660031901126106235761528461742b565b336001600160a01b038216036152a0576107ac906004356179ba565b60405163334bd91960e11b8152600490fd5b34610623576152c036617743565b90600052600e60205260406000208054821015610623576020916152e391617759565b90546040519160031b1c8152f35b34610623576040366003190112610623576107ac60043561531061742b565b9080600052600760205261532b600160406000200154617914565b61793a565b3461062357602036600319011261062357600435600052600a60205260406000208061018052805490600181015461014052600160a01b6001900380600283015416610280528060038301541661024052600482015416610120526040518060058193019061539e916176ad565b036153a99082617568565b60405190818061018051600601906153c0916176ad565b036153cb9083617568565b6101805190600782015492600883015460ff1692604051806009819301906153f2916176ad565b036153fd9082617568565b60405190818061018051600a0190615414916176ad565b0361541f9083617568565b6101805195600b87015495600c88015494600160801b60019003600d8a0154169660405180600f819c0190615453916176ad565b0361545e908b617568565b6040519a8b806101805160100190615475916176ad565b03615480908d617568565b6101805160118101546101c05260128101546101a052601381015460c052601481015460e0526040518091816102a052601501906154bd916176ad565b036102a051906154cc91617568565b60405180610260528061018051601601906154e6916176ad565b0361026051906154f591617568565b604051806101e05280610180516017019061550f916176ad565b036101e0519061551e91617568565b6040518061022052806101805160180190615538916176ad565b03610220519061554791617568565b6040518061010052806101805160190190615561916176ad565b03610100519061557091617568565b604051806080528061018051601a0190615589916176ad565b036080519061559791617568565b6040518060a0528061018051601b01906155b0916176ad565b0360a051906155be91617568565b60405180610160528061018051601c01906155d8916176ad565b0361016051906155e791617568565b604051806102c05252610140516102c05160200152610280516102c05160400152610240516102c05160600152610120516102c051608001526103e0806102c05160a001526102c0510161563a916173e3565b6102c0518082039060c0015261564f916173e3565b91600160801b6001900381166102c05160e0015260801c6102c05161010001526102c0516101200161568091617408565b6102c051808203906101400152615696916173e3565b6102c0518082039061016001526156ac916173e3565b92600160801b6001900381166102c051610180015260801c6102c0516101a00152600160801b6001900381166102c0516101c0015260801c6102c0516101e001526102c05161020001526102c05180820390610220015261570c916173e3565b6102c051808203906102400152615722916173e3565b6101c0516102c05161026001526101a0516102c051610280015260c0516102c0516102a0015260e0516102c0516102c001526102c051808203906102e001526102a0519061576f916173e3565b6102c051808203906103000152610260519061578a916173e3565b6102c0518082039061032001526101e051906157a5916173e3565b6102c05180820390610340015261022051906157c0916173e3565b6102c05180820390610360015261010051906157db916173e3565b6102c051808203906103800152608051906157f5916173e3565b6102c051808203906103a0015260a0519061580f916173e3565b6102c051808203906103c001526102c05190610160519061582f916173e3565b036102c051f35b346106235760208060031936011261062357600435906158546178ca565b61585c618084565b81600052600a8152604060002054156115775781600052600a815260ff6008604060002001541660068110156105bf576001036105ad576040600080516020618a798339815191529183600052600a8152600182600020015493846000526009825282600020600c6008820160ff1990600282825416179055600b60018060801b03421693019360018060801b0319948486825416179055600052600a85528560002090600260088301918254161790550191825416179055615920601854617dd2565b601855815190600282523390820152a26001600855005b346106235761594536617644565b61594d617848565b615955618084565b81600052600a602052604060002054156115775781600052600a60205260ff6008604060002001541660068110156105bf5780151590816159f0575b506105ad576116e97e3769141877ea965d5e44fe5ce863cb6df7f6e6d49cb451ab0dca05165ce4c89183600052600a6020526008604060002001600560ff198254161790556040519182913383526040602084015260408301906173e3565b60019150141583615991565b346106235760203660031901126106235760043560005260076020526020600160406000200154604051908152f35b34610623576107ac615a3c3661760f565b91617a54565b346106235760003660031901126106235760206040517f2a5f906c256a5d799494fcd066e1f6c077689de1cdb65052a1624de4bace99bf8152f35b346106235760003660031901126106235760206040517f288a15c4a15d470e4cd9cad2f113b91206b520c26dbd3dd74627f0c057baa19c8152f35b34610623576000366003190112610623576000610160604051615ada8161748d565b8281528260208201528260408201528260608201528260808201528260a08201528260c08201528260e08201528261010082015282610120820152826101408201520152610180604051615b2d8161748d565b6101606017549182815260185460208201526019546040820152601a546060820152601b546080820152601c5460a0820152601d5460c0820152601e5460e0820152601f54610100820152602054610120820152602154610140820152602254828201526040519283526020810151602084015260408101516040840152606081015160608401526080810151608084015260a081015160a084015260c081015160c084015260e081015160e08401526101008101516101008401526101208101516101208401526101408101516101408401520151610160820152f35b3461062357600319602036820112610623576001600160401b0360043511610623576101a0906004353603011261062357604051615c4881617471565b6004803501356001600160401b03811161062357615c6d9060043691813501016175dd565b8152600435602401356001600160401b03811161062357615c959060043691813501016175dd565b6020820152600435604401356001600160401b03811161062357615cc09060043691813501016175dd565b6040820152600435606401356001600160401b03811161062357615ceb9060043691813501016175dd565b6060820152615cfe608460043501617441565b6080820152615d1160a4600435016175fb565b60a0820152615d2460c4600435016175fb565b60c082015260043560e401356001600160401b03811161062357615d4f9060043691813501016175dd565b60e082015260043561010401356001600160401b03811161062357615d7b9060043691813501016175dd565b610100820152615d9061012460043501617441565b61012082015260043561014481013561014083015261016401356001600160401b03811161062357615dc99060043691813501016175dd565b6101608201526101846004350135610180820152615de5617880565b615ded618084565b80515180159081156166a4575b506105d5576020810151518015908115616698575b506105d557604081015151801590811561668c575b506105d557606081015151156109775760808101516001600160a01b0316158015616676575b6109775760c081015160a08201516001600160801b039182169116101561140d57615e758151617787565b5461267457615e8760208201516177ad565b5461267457601454615e9881617dd2565b601455610120820151615eb59082906001600160a01b0316617f3f565b615ec461010083015182617f79565b608082015160e083015160405191615ef3918391611f319190429087906001600160a01b031660208601617de1565b6020815191012091816000526009602052604060002092815180519060018060401b038211610597578190615f3282615f2c8954617673565b89617e59565b602090601f831160011461660a576000926165ff575b50508160011b916000199060031b1c19161784555b60208201518051906001600160401b038211610597578190615f8f82615f8660018a0154617673565b60018a01617e59565b602090601f831160011461658d57600092616582575b50508160011b916000199060031b1c19161760018501555b60408201518051906001600160401b038211610597578190615fef82615fe660028a0154617673565b60028a01617e59565b602090601f831160011461651057600092616505575b50508160011b916000199060031b1c19161760028501555b60608201518051906001600160401b03821161059757819061604f8261604660038a0154617673565b60038a01617e59565b602090601f831160011461649357600092616488575b50508160011b916000199060031b1c19161760038501555b60808201516004850180546001600160a01b0319166001600160a01b039290921691909117905560a08201516005850180546001600160801b0319166001600160801b0392831617815560c08401516160d7921690617e9e565b60e08201518051906001600160401b0382116105975781906161098261610060068a0154617673565b60068a01617e59565b602090601f83116001146164165760009261640b575b50508160011b916000199060031b1c19161760068501555b6101008201518051906001600160401b03821161059757819061616a8261616160078a0154617673565b60078a01617e59565b602090601f83116001146163995760009261638e575b50508160011b916000199060031b1c19161760078501555b6161ae6008850160ff1981541681553390617ec1565b6101208201516009850180546001600160a01b0319166001600160a01b0392909216919091179055600a840180546161e990610f5390617673565b602c754d616e75666163747572696e6720466163696c69747960501b019055600b840180546001600160a01b031916426001600160801b0316179055600c840155610140810151600d84015561016081015180519093906001600160401b038111610597578060209561626c82616263600e870154617673565b600e8701617e59565b8690601f831160011461631f57600092616314575b50508160011b916000199060031b1c191617600e8201555b600f610180830151910155816162af8251617787565b55816162bd848301516177ad565b556000828152601184526040808220610120840180516001600160a01b039081168552918752918320805460ff19166001179055905116908390600080516020618b198339815191529080a361231b601754617dd2565b015190508680616281565b9250600e840160005286600020906000935b601f1984168510616375576001945083601f1981161061635c575b505050811b01600e820155616299565b015160001960f88460031b161c1916905586808061634c565b8181015183559388019360019092019190880190616331565b015190508680616180565b9250600787016000526020600020906000935b601f19841685106163f0576001945083601f198116106163d7575b505050811b016007850155616198565b015160001960f88460031b161c191690558680806163c7565b818101518355602094850194600190930192909101906163ac565b01519050868061611f565b9250600687016000526020600020906000935b601f198416851061646d576001945083601f19811610616454575b505050811b016006850155616137565b015160001960f88460031b161c19169055868080616444565b81810151835560209485019460019093019290910190616429565b015190508680616065565b9250600387016000526020600020906000935b601f19841685106164ea576001945083601f198116106164d1575b505050811b01600385015561607d565b015160001960f88460031b161c191690558680806164c1565b818101518355602094850194600190930192909101906164a6565b015190508680616005565b9250600287016000526020600020906000935b601f1984168510616567576001945083601f1981161061654e575b505050811b01600285015561601d565b015160001960f88460031b161c1916905586808061653e565b81810151835560209485019460019093019290910190616523565b015190508680615fa5565b9250600187016000526020600020906000935b601f19841685106165e4576001945083601f198116106165cb575b505050811b016001850155615fbd565b015160001960f88460031b161c191690558680806165bb565b818101518355602094850194600190930192909101906165a0565b015190508680615f48565b9250866000526020600020906000935b601f198416851061665b576001945083601f19811610616642575b505050811b018455615f5d565b015160001960f88460031b161c19169055868080616635565b8181015183556020948501946001909301929091019061661a565b506101208101516001600160a01b031615615e4a565b61010091501182615e24565b61010091501182615e0f565b61010091501182615dfa565b346106235760208060031936011261062357600435906166ce617848565b6166d6618084565b81600052600a8152604060002054156115775781600052600a815260ff6008604060002001541660068110156105bf576105ad576000828152600a82526040902060088101805460ff191660011790557ff9011029a94eb60997b710d356797ef53371ec55bfe6db12ab6899b3bb4703ec916009916116e990616765426001600160801b0316600b8301617e9e565b604051938385948552840191016176ad565b3461062357602036600319011261062357600435616793617848565b61679b618084565b80600052600a602052604060002054156115775780600052600a60205260ff6008604060002001541660068110156105bf576003036105ad5780600052600a602052600d604060002060088101600460ff198254161790550160018060801b03421660018060801b03198254161790557fb0afeaee5d1e46a6cf0bd9dbf0e8b217ce5e084418ae08d982d3c53e6323091b6020604051428152a26001600855005b346106235760a0366003190112610623576004356001600160401b03604435818111610623576168709036906004016175dd565b90606435818111610623576168899036906004016175dd565b90608435908111610623576168a29036906004016175dd565b916168ab617848565b6168b3618084565b6000848152600260205260409020546001600160a01b0316156105f357518015908115616955575b506105d557518015908115616949575b506105d55751801590811561693d575b506105d557806000526009602052600080516020618a798339815191526116e960ff60086040600020602435600f820155015416604051918291339083617f1d565b610100915011826168fb565b610100915011836168eb565b610100915011846168db565b346106235760403660031901126106235761697a617415565b60243561698681617d7c565b33151580616a35575b80616a08575b6169f0576001600160a01b039283169282918491167f8c5be1e5ebec7d5bd14f71427d1e84f3dd0314c0f7b2291e5b200ac8c7c3b925600080a4600090815260046020526040902080546001600160a01b0319169091179055005b60405163a9fbf51f60e01b8152336004820152602490fd5b5060018060a01b038116600052600560205260406000203360005260205260ff6040600020541615616995565b506001600160a01b03811633141561698f565b346106235760203660031901126106235760606103e0604051616a6a81617455565b600081526000602082015260006040820152600083820152600060808201528260a08201528260c0820152600060e0820152600061010082015260006101208201528261014082015282610160820152600061018082015260006101a082015260006101c082015260006101e08201526000610200820152826102208201528261024082015282610260820152600061028082015260006102a082015260006102c082015260006102e08201528261030082015282610320820152826103408201528261036082015282610380820152826103a0820152826103c08201520152600435600052600a6020526040600020541561157757600435600052600a602052604060002060405190616b7d82617455565b805482526001810154602083015260028101546001600160a01b039081166040808501919091526003830154821660608501526004830154909116608084015251616bcf8161145f81600586016176ad565b60a0830152604051616be88161145f81600686016176ad565b60c083015260078101546001600160801b03811660e084015260801c610100830152600881015460ff1660068110156105bf57610120830152604051616c358161145f81600986016176ad565b610140830152604051616c4f8161145f81600a86016176ad565b610160830152600b8101546001600160801b03808216610180850152608091821c6101a0850152600c8301548082166101c086015290911c6101e0840152600d82015416610200830152600e810154616ca7816180a7565b90616cb56040519283617568565b80825260208201600e840160005260206000206000915b8383106171025786601c616e078888610220850152604051616cf58161145f81600f86016176ad565b610240850152604051616d0f8161145f81601086016176ad565b610260850152601181015461028085015260128101546102a085015260138101546102c085015260148101546102e0850152604051616d558161145f81601586016176ad565b610300850152604051616d6f8161145f81601686016176ad565b610320850152604051616d898161145f81601786016176ad565b610340850152604051616da38161145f81601886016176ad565b610360850152604051616dbd8161145f81601986016176ad565b610380850152604051616dd78161145f81601a86016176ad565b6103a0850152604051616df18161145f81601b86016176ad565b6103c085015261145f60405180948193016176ad565b6103e0820152604051809160208252805160208301526020810151604083015260018060a01b03604082015116606083015260018060a01b03606082015116608083015260018060a01b0360808201511660a0830152616f02616eea616e97616e8160a085015161040060c08801526104208701906173e3565b60c0850151868203601f190160e08801526173e3565b60018060801b0360e08501511661010086015260018060801b0361010085015116610120860152616ed2610120850151610140870190617408565b610140840151858203601f19016101608701526173e3565b610160830151848203601f19016101808601526173e3565b6101808201516001600160801b039081166101a08581019190915283015181166101c08086019190915283015181166101e0808601919091528301518116610200808601919091528301511661022080850191909152820151838203601f190161024085015280518083526020600582901b8401810193928101926000918101905b8383106170cf578780611489896103e06170ba6170a461708c61707461705c8f61702c616fe3616fcb617044938d6102408d015190610260601f19828503019101526173e3565b6102608b01518d8203601f19016102808f01526173e3565b6102808a01516102a08d01526102a08a01516102c08d01526102c08a01516102e08d01526102e08a01516103008d01526103008a01518c610320601f19828503019101526173e3565b6103208901518b8203601f19016103408d01526173e3565b6103408801518a8203601f19016103608c01526173e3565b610360870151898203601f19016103808b01526173e3565b610380860151888203601f19016103a08a01526173e3565b6103a0850151878203601f19016103c08901526173e3565b6103c0840151868203601f1901848801526173e3565b910151838203601f19016104008501526173e3565b919395965091936020806170ef600193601f1986820301875289516173e3565b9701930193019092879695949293616f84565b6001602081926040516171198161145f81896176ad565b815201920192019190616ccc565b346106235760203660031901126106235760043561714481617d7c565b506000526004602052602060018060a01b0360406000205416604051908152f35b3461062357602036600319011261062357602061156d600435618703565b34610623576000366003190112610623576020604051600080516020618ab98339815191528152f35b3461062357600036600319011261062357610180601754601854601954601a54601b54601c54601d54601e5491601f54936020549560215497602254996040519b8c5260208c015260408b015260608a0152608089015260a088015260c087015260e0860152610100850152610120840152610140830152610160820152f35b346106235760003660031901126106235760405160009060005461724f81617673565b808352600191808316908115613337575060011461727757611489836132e581870382617568565b600080805260209450917f290decd9548b62a8d60345a988386fc84ba6bc95484008f6362f93160ef3e5635b8284106172bc575050508101909101906132e5816132d5565b80548585018701529285019281016172a3565b34610623576000366003190112610623576020604051600080516020618a998339815191528152f35b346106235760003660031901126106235760206040516000805160206189998339815191528152f35b34610623576020366003190112610623576004359063ffffffff60e01b821680920361062357602091637965db0b60e01b8114908115617363575b5015158152f35b632483248360e11b81149150811561737d575b508361735c565b6380ac58cd60e01b8114915081156173af575b811561739e575b5083617376565b6301ffc9a760e01b14905083617397565b635b5e139f60e01b81149150617390565b60005b8381106173d35750506000910152565b81810151838201526020016173c3565b906020916173fc815180928185528580860191016173c0565b601f01601f1916010190565b9060068210156105bf5752565b600435906001600160a01b038216820361062357565b602435906001600160a01b038216820361062357565b35906001600160a01b038216820361062357565b61040081019081106001600160401b0382111761059757604052565b6101a081019081106001600160401b0382111761059757604052565b61018081019081106001600160401b0382111761059757604052565b61012081019081106001600160401b0382111761059757604052565b60a081019081106001600160401b0382111761059757604052565b606081019081106001600160401b0382111761059757604052565b6102c081019081106001600160401b0382111761059757604052565b60c081019081106001600160401b0382111761059757604052565b60e081019081106001600160401b0382111761059757604052565b602081019081106001600160401b0382111761059757604052565b601f909101601f19168101906001600160401b0382119082101761059757604052565b6001600160401b03811161059757601f01601f191660200190565b9291926175b28261758b565b916175c06040519384617568565b829481845281830111610623578281602093846000960137010152565b9080601f83011215610623578160206175f8933591016175a6565b90565b35906001600160801b038216820361062357565b6060906003190112610623576001600160a01b0390600435828116810361062357916024359081168103610623579060443590565b9060406003198301126106235760043591602435906001600160401b038211610623576175f8916004016175dd565b90600182811c921680156176a3575b602083101461768d57565b634e487b7160e01b600052602260045260246000fd5b91607f1691617682565b90600092918054916176be83617673565b91828252600193848116908160001461772057506001146176e0575b50505050565b90919394506000526020928360002092846000945b83861061770c5750505050010190388080806176da565b8054858701830152940193859082016176f5565b9294505050602093945060ff191683830152151560051b010190388080806176da565b6040906003190112610623576004359060243590565b80548210156177715760005260206000200190600090565b634e487b7160e01b600052603260045260246000fd5b60206177a09181604051938285809451938492016173c0565b8101600c81520301902090565b60206177c69181604051938285809451938492016173c0565b8101600d81520301902090565b606090600319011261062357600435906024359060443590565b600411156105bf57565b9060158210156105bf5752565b9060088210156105bf5752565b6040906003190112610623576004359060243560158110156106235790565b9060158110156105bf57600052602052604060002090565b3360009081526000805160206189798339815191526020526040902054600080516020618af98339815191529060ff16156106055750565b3360009081527f74bb1ca9260fc37125f5e18e451ff1e642aa55b4eec93cdfb89e91bff73aafdd60205260409020546000805160206189b98339815191529060ff16156106055750565b3360009081527f5a4a839a8a41e9c56bead82789209cd708f718a22ba06c2110a5bfb3dc4b80bc60205260409020546000805160206189d98339815191529060ff16156106055750565b80600052600760205260406000203360005260205260ff60406000205416156106055750565b906000918083526007602052604083209160018060a01b03169182845260205260ff604084205416156000146179b55780835260076020526040832082845260205260408320600160ff198254161790557f2f8788117e7eff1d82e926ec794901d17c78024a50270940304540a733656f0d339380a4600190565b505090565b906000918083526007602052604083209160018060a01b03169182845260205260ff6040842054166000146179b5578083526007602052604083208284526020526040832060ff1981541690557ff6391f5c32d9c69d2a47ea670b442974b53935d1edc7fd64eb21e047a839171b339380a4600190565b6001600160a01b0391821681526020810192909252909116604082015260600190565b906001600160a01b039081168015617bf15760009184835260209160028352604092828486205416151580617bda575b617bc9579086918286526002815283858720541695869133151580617b33575b50906002600080516020618ad98339815191529284617b13575b85835260038152888320805460010190558683525286812080546001600160a01b0319168517905580a483168203617af65750505050565b516364283d7b60e01b8152928392614cd592919060048501617a31565b617b1c87617d5e565b848352600381528883208054600019019055617abe565b91939450915080617b88575b15617b4f57879291869138617aa4565b848887617b6c576024915190637e27328960e01b82526004820152fd5b604491519063177e802f60e01b82523360048301526024820152fd5b503386148015617bad575b80617b3f5750878252600481523384868420541614617b3f565b5085825260058152848220338352815260ff8583205416617b93565b83516358b2164f60e11b8152600490fd5b506009815260ff600b858720015460801c16617a84565b604051633250574960e11b815260006004820152602490fd5b929092617c18838583617a54565b833b617c245750505050565b604051630a85bd0160e11b8082523360048301526001600160a01b0392831660248301526044820194909452608060648201529493169260209290918590617c709060848301906173e3565b039483816000978189895af1869181617d1a575b50617ce5575050503d600014617cdc573d617c9e8161758b565b90617cac6040519283617568565b81528093823d92013e5b82519283617cd757604051633250574960e11b815260048101849052602490fd5b019050fd5b60609250617cb6565b919450915063ffffffff60e01b1603617d025750388080806176da565b60249060405190633250574960e11b82526004820152fd5b9091508481813d8311617d57575b617d328183617568565b81010312617d5357516001600160e01b031981168103617d53579038617c84565b8680fd5b503d617d28565b600090815260046020526040902080546001600160a01b0319169055565b6000818152600260205260409020546001600160a01b0316908115617d9f575090565b60249060405190637e27328960e01b82526004820152fd5b6000908152600260205260409020546001600160a01b031690565b60001981146149ed5760010190565b91605494939160018060601b03199060601b16835260148301526034820152617e1382518093602086850191016173c0565b010190565b818110617e23575050565b60008155600101617e18565b90601f8111617e3c575050565b617e5791600052601f6020600020910160051c810190617e18565b565b9190601f8111617e6857505050565b617e57926000526020600020906020601f840160051c83019310617e94575b601f0160051c0190617e18565b9091508190617e87565b80546001600160801b031660809290921b6001600160801b031916919091179055565b8054610100600160a81b03191660089290921b610100600160a81b0316919091179055565b91617f0f90617f016175f895936060865260608601906173e3565b9084820360208601526173e3565b9160408184039101526173e3565b909291602090617f31836040810196617804565b6001600160a01b0316910152565b6001600160a01b039181831615617bf157617f5991618861565b16617f6057565b6040516339e3563760e11b815260006004820152602490fd5b6000818152600660209081526040822084519495949193929091906001600160401b03821161807057617fb082612fc78554617673565b8490601f8311600114617ffe5790600080516020618b59833981519152969783617ff3575b50508160011b916000199060031b1c19161790555b604051908152a1565b015190503880617fd5565b9196601f198816848452868420935b8181106180595750916001939189600080516020618b59833981519152999a9410618040575b505050811b019055617fea565b015160001960f88460031b161c19169055388080618033565b92938760018192878601518155019501930161800d565b634e487b7160e01b81526041600452602490fd5b600260085414618095576002600855565b604051633ee5aeb560e01b8152600490fd5b6001600160401b0381116105975760051b60200190565b8054600160401b811015610597576180db91600182018155617759565b819291549060031b91821b91600019901b1916179055565b919082018092116149ed57565b80548210156177715760005260206000209060031b0190600090565b919082039182116149ed57565b8054821015617771576000526005602060002091020190600090565b80518210156177715760209160051b010190565b9291926000908152602090600b825260409182822092835496878610156183315761818490866180f3565b85888211618329575b6181969161811c565b936181a0856180a7565b956181ad83519788617568565b858752601f196181bc876180a7565b0184865b8281106182de57505050845b8681106181de57505050505050509190565b6181f16181eb82846180f3565b84618100565b508451906181fe826174a9565b8054825260ff8060018301541660158110156182ca5783926007926182a4928b6182c59897015260028201548a86015289516182418161145f81600387016176ad565b606086015289516182598161145f81600487016176ad565b60808681019190915260058301546001600160a01b031660a087015260068301546001600160801b03811660c0880152901c16151560e0850152885192839161145f918391016176ad565b6101008201526182b4828b618145565b526182bf818a618145565b50617dd2565b6181cc565b634e487b7160e01b8a52602160045260248afd5b85516182e9816174a9565b88815288838201528887820152606080808301528060808301528960a08301528960c08301528960e083015261010082015282828c0101520185906181c0565b88915061818d565b50925050915051906183428261754d565b81529190565b9092919260009182526020600f8152604090818420805496878510156184b65761837290856180f3565b848882116184ae575b6183849161811c565b9361838e856180a7565b9561839b85519788617568565b858752601f196183aa876180a7565b0184825b828110618476575050505b8581106183ca575050505050509190565b806183e16183db61847193856180f3565b85618129565b508651906183ee82617517565b8054825260018101546001600160a01b0381168884015260a09190821c60ff16618417816177ed565b89840152885161842e8161145f81600286016176ad565b606084015288516184468161145f81600386016176ad565b6080840152600401546001600160801b031690820152618466828a618145565b526182bf8189618145565b6183b9565b875161848181617517565b848152848382015284898201526060808083015260808201528460a082015282828c0101520185906183ae565b88915061837b565b505050905051906183428261754d565b909291926000918252602060108152604090818420805496878510156184b6576184f090856180f3565b8488821161862b575b6185029161811c565b9361850c856180a7565b9561851985519788617568565b858752601f19618528876180a7565b0184825b8281106185ed575050505b858110618548575050505050509190565b806185596183db6185e893856180f3565b5086519061856682617532565b8054825260018101546001600160a01b0381168884015260a09190821c60ff1661858f816177ed565b8984015288516185a68161145f81600286016176ad565b606084015260048951916185c1836114c581600385016176ad565b6080928386015201549160018060801b038316908401521c60c0820152618466828a618145565b618537565b87516185f881617532565b848152848382015284898201526060808083015260808201528460a08201528460c082015282828c01015201859061852c565b8891506184f9565b9060008281526020916002835260018060a01b0392604093808585205416156186fa576011825280858520931692838552825260ff85852054169586156186e3575b505084156186b8575b841561868c575b5050505090565b60ff9450600080516020618a398339815191528352600781528383209183525220541638808080618685565b600080516020618af983398151915283526007815283832082845281528383205460ff16945061867e565b839296506186f090617d7c565b1614933880618675565b50505091505090565b6000908152600260205260409020546001600160a01b03161561873757600960205260ff600b6040600020015460881c1690565b600090565b6000908152600a6020526040812060ff60088201541660068110156187b057600481149081156187a5575b506187a157600b60018060801b03910154169062278d00820180921161878d5750421190565b634e487b7160e01b81526011600452602490fd5b5090565b600591501438618767565b634e487b7160e01b83526021600452602483fd5b91908260005260136020526187dd816040600020617830565b9060ff600283015416156176da578154928381128015618854575b618804575b5050505050565b7e56d3318e0d27d14433119710be9f0c132f2d4dd2c001a354489860284556a093600160809401549161883a60405180956177f7565b602084015260408301526060820152a238808080806187fd565b50600183015481136187f8565b6000828152600260209081526040808320546001600160a01b039594929391908616151580618921575b6189115790600080516020618ad983398151915291858252600285526002878284205416978895866188f1575b1695866188db575b87845252812080546001600160a01b0319168517905580a490565b86845260038152828420600181540190556188c0565b6188fa89617d5e565b8685526003885283852080546000190190556188b8565b516358b2164f60e11b8152600490fd5b506009845260ff600b828420015460801c1661888b56febdaa12c47c83cb399f153e79971628e55265f83823fbd39dc6922815c9e030e864d8693aa7f042f8cfc5dc87d80bf4c0b0880e2f621332a6e94bfafcdfc1181ba70365933f78520ef41d6645ba61e509916296603327302d41466c063e8e26081d75a899856f55b7f8490b3d5427773cf9af25d5473c856b9ac58e0eb0fdd7d3eefb95e842a3287179d933b4460be539a1d5af11aa8b325bb45c5c8dc92de4edddaa901e2fe3bda354fe0ede2785152d5c109282a613fe024a056a3e66c41bb33baa231f35d3ecd4024f84078d62f0d287d046c6cb30161f1586f4885c5dda7d6e94c7ed7681edd364a52ba21181e7713b286d5c7e6bbaca72cfe62d41ea09d9273dcf2136c7d8ef632bb8ef13dbca69a8f36fa620c7468671b3153d46a211c0125883b94692baebecad9f111ed97ffa626523bbbadc6b0ef85ee1b56b9e52d51fee65bf2ede0d34fc746effd1d457315a439158afe48d47a09cd92b007fc242442a94f1a1fac79af32856af2a64f63648cfa2ef3b98610a5bb7cbec4cee698568e79a7bf1e0bc45d0a330c573bc367f9cf464fd326078812f301165fbda4ef1ddf252ad1be2c89b69c2b068fc378daa952ba7f163c4a11628f55a4df523b3efa49807205ce4d355092ef5a8a18f56e8913cf4a201fbe287825b095693c217753c3a9147a1fc73dd51a32f4d10c43d457e8cb826eb6f35cac6349eb965ba82b4e96ef10f180f263bdeac0d9641cf09dc9a2aa47fe9399f417c14a782338cbe10f8e1a15aba9398e019f0b49df1a4fde98ee17ae345cb5f6b5e2c27f5033e8ce7a9041659dcc0c60de34ca5114e2c9ecca4c93e9a21c9d4e21f29bb0bd3d8cab8a2646970667358221220fcf6a968fb30b6b5da7bcc0ac17612dd7ed2b2cbac5a3f9c0be3cc58b430add864736f6c634300081400332f8788117e7eff1d82e926ec794901d17c78024a50270940304540a733656f0d",
  "linkReferences": {},
  "deployedLinkReferences": {}
}