{
  "_format": "hh-sol-artifact-1",
  "contractName": "IoTOracle",
  "sourceName": "contracts/IoTOracle.sol",
  "abi": [
    {
      "inputs": [
        {
          "internalType": "address",
          "name": "_escrowContract",
          "type": "address"
        }
      ],
      "stateMutability": "nonpayable",
      "type": "constructor"
    },
    {
      "anonymous": false,
      "inputs": [
        {
          "indexed": true,
          "internalType": "string",
          "name": "deviceId",
          "type": "string"
        },
        {
          "indexed": false,
          "internalType": "enum IoTOracle.SensorType",
          "name": "sensorType",
          "type": "uint8"
        },
        {
          "indexed": false,
          "internalType": "int256",
          "name": "avgValue",
          "type": "int256"
        }
      ],
      "name": "AggregatedDataUpdated",
      "type": "event"
    },
    {
      "anonymous": false,
      "inputs": [
        {
          "indexed": true,
          "internalType": "uint256",
          "name": "dataPointId",
          "type": "uint256"
        },
        {
          "indexed": true,
          "internalType": "string",
          "name": "deviceId",
          "type": "string"
        },
        {
          "indexed": false,
          "internalType": "enum IoTOracle.SensorType",
          "name": "sensorType",
          "type": "uint8"
        },
        {
          "indexed": false,
          "internalType": "int256",
          "name": "value",
          "type": "int256"
        }
      ],
      "name": "DataPointSubmitted",
      "type": "event"
    },
    {
      "anonymous": false,
      "inputs": [
        {
          "indexed": true,
          "internalType": "uint256",
          "name": "dataPointId",
          "type": "uint256"
        },
        {
          "indexed": true,
          "internalType": "address",
          "name": "verifier",
          "type": "address"
        },
        {
          "indexed": false,
          "internalType": "enum IoTOracle.DataStatus",
          "name": "status",
          "type": "uint8"
        }
      ],
      "name": "DataPointVerified",
      "type": "event"
    },
    {
      "anonymous": false,
      "inputs": [
        {
          "indexed": true,
          "internalType": "string",
          "name": "deviceId",
          "type": "string"
        },
        {
          "indexed": true,
          "internalType": "address",
          "name": "owner",
          "type": "address"
        },
        {
          "indexed": false,
          "internalType": "enum IoTOracle.SensorType[]",
          "name": "supportedSensors",
          "type": "uint8[]"
        }
      ],
      "name": "DeviceRegistered",
      "type": "event"
    },
    {
      "anonymous": false,
      "inputs": [
        {
          "indexed": true,
          "internalType": "string",
          "name": "deviceId",
          "type": "string"
        },
        {
          "indexed": false,
          "internalType": "bool",
          "name": "isActive",
          "type": "bool"
        }
      ],
      "name": "DeviceStatusChanged",
      "type": "event"
    },
    {
      "anonymous": false,
      "inputs": [
        {
          "indexed": true,
          "internalType": "bytes32",
          "name": "role",
          "type": "bytes32"
        },
        {
          "indexed": true,
          "internalType": "bytes32",
          "name": "previousAdminRole",
          "type": "bytes32"
        },
        {
          "indexed": true,
          "internalType": "bytes32",
          "name": "newAdminRole",
          "type": "bytes32"
        }
      ],
      "name": "RoleAdminChanged",
      "type": "event"
    },
    {
      "anonymous": false,
      "inputs": [
        {
          "indexed": true,
          "internalType": "bytes32",
          "name": "role",
          "type": "bytes32"
        },
        {
          "indexed": true,
          "internalType": "address",
          "name": "account",
          "type": "address"
        },
        {
          "indexed": true,
          "internalType": "address",
          "name": "sender",
          "type": "address"
        }
      ],
      "name": "RoleGranted",
      "type": "event"
    },
    {
      "anonymous": false,
      "inputs": [
        {
          "indexed": true,
          "internalType": "bytes32",
          "name": "role",
          "type": "bytes32"
        },
        {
          "indexed": true,
          "internalType": "address",
          "name": "account",
          "type": "address"
        },
        {
          "indexed": true,
          "internalType": "address",
          "name": "sender",
          "type": "address"
        }
      ],
      "name": "RoleRevoked",
      "type": "event"
    },
    {
      "anonymous": false,
      "inputs": [
        {
          "indexed": true,
          "internalType": "uint256",
          "name": "escrowId",
          "type": "uint256"
        },
        {
          "indexed": true,
          "internalType": "string",
          "name": "deviceId",
          "type": "string"
        },
        {
          "indexed": false,
          "internalType": "enum IoTOracle.SensorType",
          "name": "sensorType",
          "type": "uint8"
        }
      ],
      "name": "SLAMonitorCreated",
      "type": "event"
    },
    {
      "anonymous": false,
      "inputs": [
        {
          "indexed": true,
          "internalType": "uint256",
          "name": "escrowId",
          "type": "uint256"
        },
        {
          "indexed": true,
          "internalType": "string",
          "name": "deviceId",
          "type": "string"
        },
        {
          "indexed": false,
          "internalType": "enum IoTOracle.SensorType",
          "name": "sensorType",
          "type": "uint8"
        },
        {
          "indexed": false,
          "internalType": "int256",
          "name": "value",
          "type": "int256"
        }
      ],
      "name": "SLAViolationDetected",
      "type": "event"
    },
    {
      "inputs": [],
      "name": "DATA_PROVIDER_ROLE",
      "outputs": [
        {
          "internalType": "bytes32",
          "name": "",
          "type": "bytes32"
        }
      ],
      "stateMutability": "view",
      "type": "function"
    },
    {
      "inputs": [],
      "name": "DEFAULT_ADMIN_ROLE",
      "outputs": [
        {
          "internalType": "bytes32",
          "name": "",
          "type": "bytes32"
        }
      ],
      "stateMutability": "view",
      "type": "function"
    },
    {
      "inputs": [],
      "name": "DEVICE_MANAGER_ROLE",
      "outputs": [
        {
          "internalType": "bytes32",
          "name": "",
          "type": "bytes32"
        }
      ],
      "stateMutability": "view",
      "type": "function"
    },
    {
      "inputs": [],
      "name": "ORACLE_OPERATOR_ROLE",
      "outputs": [
        {
          "internalType": "bytes32",
          "name": "",
          "type": "bytes32"
        }
      ],
      "stateMutability": "view",
      "type": "function"
    },
    {
      "inputs": [
        {
          "internalType": "string",
          "name": "",
          "type": "string"
        },
        {
          "internalType": "enum IoTOracle.SensorType",
          "name": "",
          "type": "uint8"
        }
      ],
      "name": "aggregatedData",
      "outputs": [
        {
          "internalType": "int256",
          "name": "minValue",
          "type": "int256"
        },
        {
          "internalType": "int256",
          "name": "maxValue",
          "type": "int256"
        },
        {
          "internalType": "int256",
          "name": "avgValue",
          "type": "int256"
        },
        {
          "internalType": "uint256",
          "name": "dataPointCount",
          "type": "uint256"
        },
        {
          "internalType": "uint256",
          "name": "lastUpdated",
          "type": "uint256"
        }
      ],
      "stateMutability": "view",
      "type": "function"
    },
    {
      "inputs": [
        {
          "internalType": "uint256",
          "name": "",
          "type": "uint256"
        }
      ],
      "name": "allDataPoints",
      "outputs": [
        {
          "internalType": "uint256",
          "name": "",
          "type": "uint256"
        }
      ],
      "stateMutability": "view",
      "type": "function"
    },
    {
      "inputs": [
        {
          "internalType": "string[]",
          "name": "deviceIds",
          "type": "string[]"
        },
        {
          "internalType": "enum IoTOracle.SensorType[]",
          "name": "sensorTypes",
          "type": "uint8[]"
        },
        {
          "internalType": "int256[]",
          "name": "values",
          "type": "int256[]"
        },
        {
          "internalType": "string[]",
          "name": "units",
          "type": "string[]"
        },
        {
          "internalType": "string[]",
          "name": "locations",
          "type": "string[]"
        },
        {
          "internalType": "string[]",
          "name": "metadatas",
          "type": "string[]"
        }
      ],
      "name": "batchSubmitDataPoints",
      "outputs": [
        {
          "internalType": "uint256[]",
          "name": "",
          "type": "uint256[]"
        }
      ],
      "stateMutability": "nonpayable",
      "type": "function"
    },
    {
      "inputs": [
        {
          "internalType": "uint256",
          "name": "escrowId",
          "type": "uint256"
        },
        {
          "internalType": "string",
          "name": "deviceId",
          "type": "string"
        },
        {
          "internalType": "enum IoTOracle.SensorType",
          "name": "sensorType",
          "type": "uint8"
        },
        {
          "internalType": "int256",
          "name": "minThreshold",
          "type": "int256"
        },
        {
          "internalType": "int256",
          "name": "maxThreshold",
          "type": "int256"
        },
        {
          "internalType": "uint256",
          "name": "checkInterval",
          "type": "uint256"
        }
      ],
      "name": "createSLAMonitor",
      "outputs": [],
      "stateMutability": "nonpayable",
      "type": "function"
    },
    {
      "inputs": [
        {
          "internalType": "string",
          "name": "",
          "type": "string"
        },
        {
          "internalType": "uint256",
          "name": "",
          "type": "uint256"
        }
      ],
      "name": "dataPointExists",
      "outputs": [
        {
          "internalType": "bool",
          "name": "",
          "type": "bool"
        }
      ],
      "stateMutability": "view",
      "type": "function"
    },
    {
      "inputs": [
        {
          "internalType": "uint256",
          "name": "",
          "type": "uint256"
        }
      ],
      "name": "dataPoints",
      "outputs": [
        {
          "internalType": "uint256",
          "name": "id",
          "type": "uint256"
        },
        {
          "internalType": "string",
          "name": "deviceId",
          "type": "string"
        },
        {
          "internalType": "enum IoTOracle.SensorType",
          "name": "sensorType",
          "type": "uint8"
        },
        {
          "internalType": "int256",
          "name": "value",
          "type": "int256"
        },
        {
          "internalType": "string",
          "name": "unit",
          "type": "string"
        },
        {
          "internalType": "uint256",
          "name": "timestamp",
          "type": "uint256"
        },
        {
          "internalType": "string",
          "name": "location",
          "type": "string"
        },
        {
          "internalType": "address",
          "name": "submitter",
          "type": "address"
        },
        {
          "internalType": "enum IoTOracle.DataStatus",
          "name": "status",
          "type": "uint8"
        },
        {
          "internalType": "uint256",
          "name": "verifiedAt",
          "type": "uint256"
        },
        {
          "internalType": "address",
          "name": "verifier",
          "type": "address"
        },
        {
          "internalType": "string",
          "name": "metadata",
          "type": "string"
        }
      ],
      "stateMutability": "view",
      "type": "function"
    },
    {
      "inputs": [
        {
          "internalType": "string",
          "name": "",
          "type": "string"
        },
        {
          "internalType": "uint256",
          "name": "",
          "type": "uint256"
        }
      ],
      "name": "deviceDataPoints",
      "outputs": [
        {
          "internalType": "uint256",
          "name": "",
          "type": "uint256"
        }
      ],
      "stateMutability": "view",
      "type": "function"
    },
    {
      "inputs": [
        {
          "internalType": "string",
          "name": "",
          "type": "string"
        }
      ],
      "name": "devices",
      "outputs": [
        {
          "internalType": "string",
          "name": "deviceId",
          "type": "string"
        },
        {
          "internalType": "address",
          "name": "owner",
          "type": "address"
        },
        {
          "internalType": "bool",
          "name": "isActive",
          "type": "bool"
        },
        {
          "internalType": "uint256",
          "name": "registeredAt",
          "type": "uint256"
        },
        {
          "internalType": "string",
          "name": "location",
          "type": "string"
        },
        {
          "internalType": "string",
          "name": "metadata",
          "type": "string"
        },
        {
          "internalType": "uint256",
          "name": "lastDataSubmission",
          "type": "uint256"
        }
      ],
      "stateMutability": "view",
      "type": "function"
    },
    {
      "inputs": [],
      "name": "escrowContract",
      "outputs": [
        {
          "internalType": "contract SupplyChainEscrow",
          "name": "",
          "type": "address"
        }
      ],
      "stateMutability": "view",
      "type": "function"
    },
    {
      "inputs": [
        {
          "internalType": "uint256",
          "name": "",
          "type": "uint256"
        },
        {
          "internalType": "uint256",
          "name": "",
          "type": "uint256"
        }
      ],
      "name": "escrowSLAMonitors",
      "outputs": [
        {
          "internalType": "uint256",
          "name": "escrowId",
          "type": "uint256"
        },
        {
          "internalType": "string",
          "name": "deviceId",
          "type": "string"
        },
        {
          "internalType": "enum IoTOracle.SensorType",
          "name": "sensorType",
          "type": "uint8"
        },
        {
          "internalType": "int256",
          "name": "minThreshold",
          "type": "int256"
        },
        {
          "internalType": "int256",
          "name": "maxThreshold",
          "type": "int256"
        },
        {
          "internalType": "uint256",
          "name": "checkInterval",
          "type": "uint256"
        },
        {
          "internalType": "uint256",
          "name": "lastCheck",
          "type": "uint256"
        },
        {
          "internalType": "bool",
          "name": "isActive",
          "type": "bool"
        },
        {
          "internalType": "uint256",
          "name": "violationCount",
          "type": "uint256"
        }
      ],
      "stateMutability": "view",
      "type": "function"
    },
    {
      "inputs": [
        {
          "internalType": "string",
          "name": "deviceId",
          "type": "string"
        },
        {
          "internalType": "enum IoTOracle.SensorType",
          "name": "sensorType",
          "type": "uint8"
        }
      ],
      "name": "getAggregatedData",
      "outputs": [
        {
          "components": [
            {
              "internalType": "int256",
              "name": "minValue",
              "type": "int256"
            },
            {
              "internalType": "int256",
              "name": "maxValue",
              "type": "int256"
            },
            {
              "internalType": "int256",
              "name": "avgValue",
              "type": "int256"
            },
            {
              "internalType": "uint256",
              "name": "dataPointCount",
              "type": "uint256"
            },
            {
              "internalType": "uint256",
              "name": "lastUpdated",
              "type": "uint256"
            }
          ],
          "internalType": "struct IoTOracle.AggregatedData",
          "name": "",
          "type": "tuple"
        }
      ],
      "stateMutability": "view",
      "type": "function"
    },
    {
      "inputs": [],
      "name": "getAllDataPoints",
      "outputs": [
        {
          "internalType": "uint256[]",
          "name": "",
          "type": "uint256[]"
        }
      ],
      "stateMutability": "view",
      "type": "function"
    },
    {
      "inputs": [],
      "name": "getCurrentDataPointId",
      "outputs": [
        {
          "internalType": "uint256",
          "name": "",
          "type": "uint256"
        }
      ],
      "stateMutability": "view",
      "type": "function"
    },
    {
      "inputs": [
        {
          "internalType": "uint256",
          "name": "dataPointId",
          "type": "uint256"
        }
      ],
      "name": "getDataPoint",
      "outputs": [
        {
          "components": [
            {
              "internalType": "uint256",
              "name": "id",
              "type": "uint256"
            },
            {
              "internalType": "string",
              "name": "deviceId",
              "type": "string"
            },
            {
              "internalType": "enum IoTOracle.SensorType",
              "name": "sensorType",
              "type": "uint8"
            },
            {
              "internalType": "int256",
              "name": "value",
              "type": "int256"
            },
            {
              "internalType": "string",
              "name": "unit",
              "type": "string"
            },
            {
              "internalType": "uint256",
              "name": "timestamp",
              "type": "uint256"
            },
            {
              "internalType": "string",
              "name": "location",
              "type": "string"
            },
            {
              "internalType": "address",
              "name": "submitter",
              "type": "address"
            },
            {
              "internalType": "enum IoTOracle.DataStatus",
              "name": "status",
              "type": "uint8"
            },
            {
              "internalType": "uint256",
              "name": "verifiedAt",
              "type": "uint256"
            },
            {
              "internalType": "address",
              "name": "verifier",
              "type": "address"
            },
            {
              "internalType": "string",
              "name": "metadata",
              "type": "string"
            }
          ],
          "internalType": "struct IoTOracle.IoTDataPoint",
          "name": "",
          "type": "tuple"
        }
      ],
      "stateMutability": "view",
      "type": "function"
    },
    {
      "inputs": [
        {
          "internalType": "string",
          "name": "deviceId",
          "type": "string"
        }
      ],
      "name": "getDevice",
      "outputs": [
        {
          "components": [
            {
              "internalType": "string",
              "name": "deviceId",
              "type": "string"
            },
            {
              "internalType": "address",
              "name": "owner",
              "type": "address"
            },
            {
              "internalType": "enum IoTOracle.SensorType[]",
              "name": "supportedSensors",
              "type": "uint8[]"
            },
            {
              "internalType": "bool",
              "name": "isActive",
              "type": "bool"
            },
            {
              "internalType": "uint256",
              "name": "registeredAt",
              "type": "uint256"
            },
            {
              "internalType": "string",
              "name": "location",
              "type": "string"
            },
            {
              "internalType": "string",
              "name": "metadata",
              "type": "string"
            },
            {
              "internalType": "uint256",
              "name": "lastDataSubmission",
              "type": "uint256"
            }
          ],
          "internalType": "struct IoTOracle.IoTDevice",
          "name": "",
          "type": "tuple"
        }
      ],
      "stateMutability": "view",
      "type": "function"
    },
    {
      "inputs": [],
      "name": "getDeviceCount",
      "outputs": [
        {
          "internalType": "uint256",
          "name": "",
          "type": "uint256"
        }
      ],
      "stateMutability": "view",
      "type": "function"
    },
    {
      "inputs": [
        {
          "internalType": "string",
          "name": "deviceId",
          "type": "string"
        }
      ],
      "name": "getDeviceDataPoints",
      "outputs": [
        {
          "internalType": "uint256[]",
          "name": "",
          "type": "uint256[]"
        }
      ],
      "stateMutability": "view",
      "type": "function"
    },
    {
      "inputs": [
        {
          "internalType": "string",
          "name": "deviceId",
          "type": "string"
        },
        {
          "internalType": "uint256",
          "name": "startTime",
          "type": "uint256"
        },
        {
          "internalType": "uint256",
          "name": "endTime",
          "type": "uint256"
        }
      ],
      "name": "getDeviceDataPointsInRange",
      "outputs": [
        {
          "internalType": "uint256[]",
          "name": "",
          "type": "uint256[]"
        }
      ],
      "stateMutability": "view",
      "type": "function"
    },
    {
      "inputs": [
        {
          "internalType": "uint256",
          "name": "escrowId",
          "type": "uint256"
        }
      ],
      "name": "getEscrowSLAMonitors",
      "outputs": [
        {
          "components": [
            {
              "internalType": "uint256",
              "name": "escrowId",
              "type": "uint256"
            },
            {
              "internalType": "string",
              "name": "deviceId",
              "type": "string"
            },
            {
              "internalType": "enum IoTOracle.SensorType",
              "name": "sensorType",
              "type": "uint8"
            },
            {
              "internalType": "int256",
              "name": "minThreshold",
              "type": "int256"
            },
            {
              "internalType": "int256",
              "name": "maxThreshold",
              "type": "int256"
            },
            {
              "internalType": "uint256",
              "name": "checkInterval",
              "type": "uint256"
            },
            {
              "internalType": "uint256",
              "name": "lastCheck",
              "type": "uint256"
            },
            {
              "internalType": "bool",
              "name": "isActive",
              "type": "bool"
            },
            {
              "internalType": "uint256",
              "name": "violationCount",
              "type": "uint256"
            }
          ],
          "internalType": "struct IoTOracle.SLAMonitor[]",
          "name": "",
          "type": "tuple[]"
        }
      ],
      "stateMutability": "view",
      "type": "function"
    },
    {
      "inputs": [
        {
          "internalType": "string",
          "name": "deviceId",
          "type": "string"
        },
        {
          "internalType": "enum IoTOracle.SensorType",
          "name": "sensorType",
          "type": "uint8"
        }
      ],
      "name": "getLatestDataPoint",
      "outputs": [
        {
          "components": [
            {
              "internalType": "uint256",
              "name": "id",
              "type": "uint256"
            },
            {
              "internalType": "string",
              "name": "deviceId",
              "type": "string"
            },
            {
              "internalType": "enum IoTOracle.SensorType",
              "name": "sensorType",
              "type": "uint8"
            },
            {
              "internalType": "int256",
              "name": "value",
              "type": "int256"
            },
            {
              "internalType": "string",
              "name": "unit",
              "type": "string"
            },
            {
              "internalType": "uint256",
              "name": "timestamp",
              "type": "uint256"
            },
            {
              "internalType": "string",
              "name": "location",
              "type": "string"
            },
            {
              "internalType": "address",
              "name": "submitter",
              "type": "address"
            },
            {
              "internalType": "enum IoTOracle.DataStatus",
              "name": "status",
              "type": "uint8"
            },
            {
              "internalType": "uint256",
              "name": "verifiedAt",
              "type": "uint256"
            },
            {
              "internalType": "address",
              "name": "verifier",
              "type": "address"
            },
            {
              "internalType": "string",
              "name": "metadata",
              "type": "string"
            }
          ],
          "internalType": "struct IoTOracle.IoTDataPoint",
          "name": "",
          "type": "tuple"
        }
      ],
      "stateMutability": "view",
      "type": "function"
    },
    {
      "inputs": [],
      "name": "getRegisteredDevices",
      "outputs": [
        {
          "internalType": "string[]",
          "name": "",
          "type": "string[]"
        }
      ],
      "stateMutability": "view",
      "type": "function"
    },
    {
      "inputs": [
        {
          "internalType": "bytes32",
          "name": "role",
          "type": "bytes32"
        }
      ],
      "name": "getRoleAdmin",
      "outputs": [
        {
          "internalType": "bytes32",
          "name": "",
          "type": "bytes32"
        }
      ],
      "stateMutability": "view",
      "type": "function"
    },
    {
      "inputs": [],
      "name": "getTotalDataPoints",
      "outputs": [
        {
          "internalType": "uint256",
          "name": "",
          "type": "uint256"
        }
      ],
      "stateMutability": "view",
      "type": "function"
    },
    {
      "inputs": [
        {
          "internalType": "bytes32",
          "name": "role",
          "type": "bytes32"
        },
        {
          "internalType": "address",
          "name": "account",
          "type": "address"
        }
      ],
      "name": "grantRole",
      "outputs": [],
      "stateMutability": "nonpayable",
      "type": "function"
    },
    {
      "inputs": [
        {
          "internalType": "bytes32",
          "name": "role",
          "type": "bytes32"
        },
        {
          "internalType": "address",
          "name": "account",
          "type": "address"
        }
      ],
      "name": "hasRole",
      "outputs": [
        {
          "internalType": "bool",
          "name": "",
          "type": "bool"
        }
      ],
      "stateMutability": "view",
      "type": "function"
    },
    {
      "inputs": [
        {
          "internalType": "string",
          "name": "deviceId",
          "type": "string"
        },
        {
          "internalType": "address",
          "name": "owner",
          "type": "address"
        },
        {
          "internalType": "enum IoTOracle.SensorType[]",
          "name": "supportedSensors",
          "type": "uint8[]"
        },
        {
          "internalType": "string",
          "name": "location",
          "type": "string"
        },
        {
          "internalType": "string",
          "name": "metadata",
          "type": "string"
        }
      ],
      "name": "registerDevice",
      "outputs": [],
      "stateMutability": "nonpayable",
      "type": "function"
    },
    {
      "inputs": [
        {
          "internalType": "uint256",
          "name": "",
          "type": "uint256"
        }
      ],
      "name": "registeredDevices",
      "outputs": [
        {
          "internalType": "string",
          "name": "",
          "type": "string"
        }
      ],
      "stateMutability": "view",
      "type": "function"
    },
    {
      "inputs": [
        {
          "internalType": "bytes32",
          "name": "role",
          "type": "bytes32"
        },
        {
          "internalType": "address",
          "name": "account",
          "type": "address"
        }
      ],
      "name": "renounceRole",
      "outputs": [],
      "stateMutability": "nonpayable",
      "type": "function"
    },
    {
      "inputs": [
        {
          "internalType": "bytes32",
          "name": "role",
          "type": "bytes32"
        },
        {
          "internalType": "address",
          "name": "account",
          "type": "address"
        }
      ],
      "name": "revokeRole",
      "outputs": [],
      "stateMutability": "nonpayable",
      "type": "function"
    },
    {
      "inputs": [
        {
          "internalType": "string",
          "name": "deviceId",
          "type": "string"
        },
        {
          "internalType": "enum IoTOracle.SensorType",
          "name": "sensorType",
          "type": "uint8"
        },
        {
          "internalType": "int256",
          "name": "value",
          "type": "int256"
        },
        {
          "internalType": "string",
          "name": "unit",
          "type": "string"
        },
        {
          "internalType": "string",
          "name": "location",
          "type": "string"
        },
        {
          "internalType": "string",
          "name": "metadata",
          "type": "string"
        }
      ],
      "name": "submitDataPoint",
      "outputs": [
        {
          "internalType": "uint256",
          "name": "",
          "type": "uint256"
        }
      ],
      "stateMutability": "nonpayable",
      "type": "function"
    },
    {
      "inputs": [
        {
          "internalType": "bytes4",
          "name": "interfaceId",
          "type": "bytes4"
        }
      ],
      "name": "supportsInterface",
      "outputs": [
        {
          "internalType": "bool",
          "name": "",
          "type": "bool"
        }
      ],
      "stateMutability": "view",
      "type": "function"
    },
    {
      "inputs": [
        {
          "internalType": "string",
          "name": "deviceId",
          "type": "string"
        },
        {
          "internalType": "bool",
          "name": "isActive",
          "type": "bool"
        }
      ],
      "name": "updateDeviceStatus",
      "outputs": [],
      "stateMutability": "nonpayable",
      "type": "function"
    },
    {
      "inputs": [
        {
          "internalType": "uint256",
          "name": "dataPointId",
          "type": "uint256"
        },
        {
          "internalType": "enum IoTOracle.DataStatus",
          "name": "status",
          "type": "uint8"
        }
      ],
      "name": "verifyDataPoint",
      "outputs": [],
      "stateMutability": "nonpayable",
      "type": "function"
    }
  ],
  "bytecode": "0x60a0346200023957601f6200426f38819003918201601f1916830192916001600160401b038411838510176200023e57808392604095865283396020928391810103126200023957516001600160a01b038116908190036200023957600190818055608052600090818052818352838220338352835260ff84832054161562000202575b7ff9b712ed3cd0e90cdc9d1abac8fb677bf018af115fb294c768a96b48bd6922c5808352828452848320338452845260ff858420541615620001c9575b507f20c605fd0c297c12fdef1ea05fc5e693eeeda1f5ffb147a823a0db69c8bbea9e808352828452848320338452845260ff85842054161562000190575b507fb6f6b279a7a4e2aa16012cbd36fcdc1fbdb91b92fd6dab57885c9de496473a8d92838352828152848320338452815260ff85842054161562000155575b8451613ffa9081620002558239608051816107000152f35b83835282815284832090338452528382209060ff1982541617905533916000805160206200424f833981519152339280a4388080806200013d565b80835282845284832033845284528483208260ff19825416179055339033906000805160206200424f8339815191528580a438620000fe565b80835282845284832033845284528483208260ff19825416179055339033906000805160206200424f8339815191528580a438620000c0565b81805281835283822033835283528382208160ff198254161790553333836000805160206200424f8339815191528180a462000083565b600080fd5b634e487b7160e01b600052604160045260246000fdfe608080604052600436101561001357600080fd5b60003560e01c90816301ffc9a714612721575080630e0562ee146126a657806311d11a5b1461266b5780631351546d146125d75780631ae70bc61461259e578063222333961461248d57806322660802146122e2578063248a9ca3146122b35780632f2ff15d1461220057806336568abe1461216e57806336909d5e1461215057806337a0701a146121325780633aeae31d146120f75780633f7b7d7d1461204157806343386ed014611fec578063468e873114611fce5780634c93be6114611f8e57806366c87f3f1461198257806383fa13481461182b57806388297d801461180557806391d14854146117b857806397ae08df1461169f5780639fdc87d21461153e578063a162ee651461146c578063a217fddf14611450578063a5ed94f5146112ac578063a6782b4b1461114e578063b71a034614610f49578063b7313b2e14610ed8578063c428a4b314610e87578063ccac11fe14610868578063d147f95c14610770578063d547741f1461072f578063e42a96e7146106ea578063e80bf912146103f3578063f7e4e506146101f65763ff091fda146101b657600080fd5b346101f15760003660031901126101f15760206040517f20c605fd0c297c12fdef1ea05fc5e693eeeda1f5ffb147a823a0db69c8bbea9e8152f35b600080fd5b346101f15760c03660031901126101f1576004356024356001600160401b0381116101f157610229903690600401612875565b906044359160088310156101f15761023f612cdb565b61026c60ff6003604051602081865161025b8183858b016128fc565b8101848152030190200154166133af565b61027e6102798483613c3c565b6133ef565b816000526006602052604060002060405190610299826127af565b838252602082019280845260408301936102b3878661343b565b6060840160643581526080850193608435855260a086019560a435875260c081019742895260e082019160018352610100810193600085528054600160401b8110156103dd5761030891600182018155612c27565b9690966103c75761032091518755516001870161327e565b519060088210156103b1577fca6f96e87a6ccd3df462562b85c85ffe80b03ab4333c99ee31cfe1935731847c986020986103a0986008966103676103979660028b01613453565b516003890155516004880155516005870155516006860155511515600785019060ff801983541691151516179055565b5191015561338f565b936103ae6040518092612a14565ba3005b634e487b7160e01b600052602160045260246000fd5b634e487b7160e01b600052600060045260246000fd5b634e487b7160e01b600052604160045260246000fd5b346101f15760c03660031901126101f1576001600160401b036004358181116101f157610424903690600401612c5b565b6024358281116101f15761043c903690600401612ad7565b6044358381116101f157366023820112156101f15780600401359061046082612ac0565b9161046e6040519384612854565b8083526024602084019160051b830101913683116101f157602401905b8282106106da575050506064358481116101f1576104ad903690600401612c5b565b6084358581116101f1576104c5903690600401612c5b565b9460a4359081116101f1576104de903690600401612c5b565b916104e7612ec9565b8451845180911490816106cf575b50806106c4575b806106b9575b806106ae575b1561067157610517855161348f565b9360005b865181101561065f5761052e81886134d0565b519061053a81846134d0565b61054390613382565b9161054e82866134d0565b519261055a83886134d0565b51610565848d6134d0565b5190610571858b6134d0565b519260405196879563665608ff60e11b87526004870160c0905260c48701610598916129ef565b91602487016105a691612a14565b60448601528481036003190160648601526105c0916129ef565b8381036003190160848501526105d5916129ef565b8281036003190160a48401526105ea916129ef565b03823091815a602094600091f180156106535760009061061f575b61061a925061061482896134d0565b526134c1565b61051b565b506020823d60201161064b575b8161063960209383612854565b810103126101f15761061a9151610605565b3d915061062c565b6040513d6000823e3d90fd5b6040518061066d8882612774565b0390f35b60405162461bcd60e51b8152602060048201526015602482015274082e4e4c2f240d8cadccee8d040dad2e6dac2e8c6d605b1b6044820152606490fd5b508551835114610508565b508151865114610502565b5080518251146104fc565b9050815114876104f5565b813581526020918201910161048b565b346101f15760003660031901126101f1576040517f00000000000000000000000000000000000000000000000000000000000000006001600160a01b03168152602090f35b346101f15760403660031901126101f15761076e60043561074e612a21565b9080600052600060205261076960016040600020015461300e565b613118565b005b346101f15760003660031901126101f15760095461078d81612ac0565b9061079b6040519283612854565b808252602090818301908160096000527f6e1540171b6c0c960b71a7020d9f60077f6af931a8bbf590da0223dacf75c7af6000915b8383106108375750505050604051918083019381845251809452604083019360408160051b85010192916000955b82871061080b5785850386f35b909192938280610827600193603f198a820301865288516129ef565b96019201960195929190926107fe565b6001868192604099989951610857816108508189612959565b0382612854565b8152019201920191909594956107d0565b346101f15760c03660031901126101f1576001600160401b036004358181116101f157610899903690600401612875565b90600860243510156101f1576064358181116101f1576108bd903690600401612875565b6084358281116101f1576108d5903690600401612875565b9160a4359081116101f1576108ee903690600401612875565b6108f6612ec9565b61091460ff60036040516020818161025b8b838151938492016128fc565b61092361027960243586613c3c565b60025492600184016002556040519261093b84612802565b8484528560208501526109536024356040860161343b565b604435606085015260808401524260a084015260c08301523360e08301526000610100830152600061012083015260006101408301526101608201528160005260046020526040600020815181556109b260208301516001830161327e565b604082015160088110156103b1576109cd9060028301613453565b606082015160038201556109e860808301516004830161327e565b60a08201516005820155610a0360c08301516006830161327e565b60e08201516007820180546001600160a01b0319166001600160a01b03929092169190911790556101008201519160048310156103b157610160600a91610a50610a87956007860161346b565b61012081015160088501556009840160018060a01b03610140830151166001600160601b0360a01b8254161790550151910161327e565b6040516020818451610a9c81838589016128fc565b81016005815203019020805490600160401b91828110156103dd57610ac691600182018155612aa8565b81549060031b9084821b91600019901b1916179055600a54908110156103dd576001810180600a55811015610e71578190600a6000527fc65a7bb8d6351c1cf70c95a316cc6a92839c986682d98bc35f958f4883f9d2a801556040516020818451610b3481838589016128fc565b81016008815203019020816000526020526040600020600160ff1982541617905560405160078351610b6a8184602088016128fc565b820191600383526020814294030190200155610ba96040518351610b928183602088016128fc565b810190600782526020816024359303019020612c43565b60038101549081610d7f57600291506044358155604435600182015560443582820155600160038201555b42600482015501547f2ecd63085669faa9958a27ab8bf0d7ab5b652fb91c8fe536115a6fddf39921f06040610c088561338f565b92815190610c1882602435612a14565b6020820152a260095460005b818110610c7a575b602083610c388661338f565b817fddba270b15c41cc35c41f4405d7d2df26a9e47bdbfce89573fd5a36c75af7bc760408051610c6a81602435612a14565b60443587820152a3604051908152f35b610850610c96610c8983612a71565b5060405192838092612959565b602081519101208451602086012014610cb757610cb2906134c1565b610c24565b50506000600860243510156103b157602092610c3891602435610d4f57601319604435128015610d43575b610d3b575b610cf2575b92610c2c565b610cfb8161338f565b60007fe3082db90eaabecf363297c48e429d95916af5b946acf735b94929870c28794660408051610d2e81602435612a14565b60443589820152a3610cec565b506001610ce7565b50605060443513610ce2565b600160243503610ce7576000604435128015610d73575b15610ce757506001610ce7565b50606460443513610d66565b805460443512610e67575b60018101805460443513610e5c575b50600281015460008112600160ff1b841416610e30578083810205831481151715610e30576044356044358483020112600084830212908015821691151617610e3057600183018311610e30576001830115610e465780830260443501600160ff1b14600184016000191416610e305782610e2691600160029501908260443591020105848401556134c1565b6003820155610bd4565b634e487b7160e01b600052601160045260246000fd5b634e487b7160e01b600052601260045260246000fd5b604435905584610d99565b6044358155610d8a565b634e487b7160e01b600052603260045260246000fd5b346101f15760203660031901126101f157600435600a548110156101f157602090600a6000527fc65a7bb8d6351c1cf70c95a316cc6a92839c986682d98bc35f958f4883f9d2a80154604051908152f35b346101f15760a0610f146020610f05610ef036612a37565b929081604051938285809451938492016128fc565b81016007815203019020612c43565b805490600181015490600281015460046003830154920154926040519485526020850152604084015260608301526080820152f35b346101f1576020806003193601126101f1576004356001600160401b0381116101f15761108891610f816110b6923690600401612875565b90610fd48160405193610f93856127e6565b600060e0606096878152828582015287604082015282888201528260808201528760a08201528760c0820152015281604051938285809451938492016128fc565b810160038152030190209160405191610fec836127e6565b604051610ffd816108508188612959565b835260018060a01b039360019185838301541692818601938452611023600284016134e4565b916040870192835260ff60038501541691868801921515835260048501549360808901948552600760405196611067886110608160058501612959565b0389612854565b60a08b019788526040519d8e806110818160068601612959565b0390612854565b60c08b019d8e5201549960e08a019a8b526040519b8c9a858c52516101206101009c8d8882015201906129ef565b97511660408c01525195601f1997888c830301908c015282808851928381520197019260005b82811061112e57505050505092611124949261111392899a9551151560808b01525160a08a015251838983030160c08a01526129ef565b9151908683030160e08701526129ef565b9151908301520390f35b90919282808a611141889c859951612a14565b01990194939291016110dc565b346101f15760203660031901126101f157600435600052600460205260406000208054604051918280600183019061118591612959565b036111909084612854565b600281015460ff166003820154604051808060048601906111b091612959565b036111bb9082612854565b6005840154604051806111d18160068901612959565b036111dc9082612854565b600786015491600887015493600160a01b60019003968760098a0154169660405180600a819c019061120d91612959565b03611218908b612854565b6040519b8c9b8c528b6101806020819201528c01611235916129ef565b9160408c0161124391612a14565b60608b015289810360808b0152611259916129ef565b9060a089015287810360c0890152611270916129ef565b93811660e087015261010086019060a01c60ff169061128e91612b3e565b61012085015261014084015282810361016084015261066d916129ef565b346101f15760603660031901126101f1576004356001600160401b0381116101f1576112dc903690600401612875565b602435604435906040519083516112f8818460208098016128fc565b82019184816005948581520301902092604051808587829754938481520190600052876000209260005b8982821061143a5750505061133992500385612854565b60009260005b85518110156113a35761135281876134d0565b5160005260048752816040600020015483858210159182611398575b5050611383575b61137e906134c1565b61133f565b9361139061137e916134c1565b949050611375565b11159050838961136e565b50848692936113b18661348f565b9460009360005b845181101561142c576113cb81866134d0565b5160005260048752816040600020015483858210159182611421575b50506113fc575b6113f7906134c1565b6113b8565b946114196113f79161140e88886134d0565b51610614828c6134d0565b9590506113ee565b11159050838a6113e7565b6040518061066d8a82612774565b855484526001958601958a955093019201611322565b346101f15760003660031901126101f157602060405160008152f35b346101f15760403660031901126101f157602435600435600052600660205260406000209081548110156101f1576114a391612c27565b508054604051916114c2836114bb8160018501612959565b0384612854565b60ff6002820154169060038101549060048101546005820154600683015491600860ff6007860154169401549461151961150e6040519a8b9a8b526101208060208d01528b01906129ef565b9760408a0190612a14565b6060880152608087015260a086015260c0850152151560e08401526101008301520390f35b346101f15760403660031901126101f1576004356001600160401b0381116101f15761156e903690600401612875565b602435801515918282036101f1576040519181516020936001858501926115968184866128fc565b820191600383528681838060a01b0394030190200154163314801561165d575b15611627579161161861161d9260036115fd877fa9b57950abea5c32038151d97fa399a8d914acfaff77bc88692d3a8a3f0ad72f98976040518093819289519283916128fc565b810184815203019020019060ff801983541691151516179055565b61338f565b92604051908152a2005b60405162461bcd60e51b815260048101859052600e60248201526d139bdd08185d5d1a1bdc9a5e995960921b6044820152606490fd5b507f20c605fd0c297c12fdef1ea05fc5e693eeeda1f5ffb147a823a0db69c8bbea9e60005260008452604060002033600052845260ff604060002054166115b6565b346101f15760203660031901126101f1576116b8613cbe565b50600435600052600460205261066d6040600020600a6117a6604051926116de84612802565b805484526040516116f6816108508160018601612959565b602085015261170f60ff6002830154166040860161343b565b6003810154606085015260405161172d816108508160048601612959565b6080850152600581015460a0850152604051611750816108508160068601612959565b60c085015260078101546001600160a01b0380821660e08701529061177f9060a01c60ff166101008701613447565b60088201546101208601526009820154166101408501526108506040518094819301612959565b61016082015260405191829182612b4b565b346101f15760403660031901126101f1576117d1612a21565b600435600052600060205260406000209060018060a01b0316600052602052602060ff604060002054166040519015158152f35b346101f15761066d61181f61181936612a37565b90613d17565b60405191829182612b4b565b346101f15760403660031901126101f1576004356024359060048210156101f157611854612cdb565b8060005260206004815260ff60076040600020015460a01c1660048110156103b15761193e57600183148015611934575b156118ff577ffa036952936508c03236f83fc223cbc71a07c71a0601263f5adf43f151ae104e9082600052600481526118c584600760406000200161346b565b82600052600481526009604060002042600882015501336001600160601b0360a01b8254161790556118fa6040518095612b3e565b3393a3005b6064906040519062461bcd60e51b82526004820152600e60248201526d496e76616c69642073746174757360901b6044820152fd5b5060028314611885565b6064906040519062461bcd60e51b82526004820152601c60248201527f4461746120706f696e7420616c72656164792070726f636573736564000000006044820152fd5b346101f15760a03660031901126101f1576004356001600160401b0381116101f1576119b2903690600401612875565b6119ba612a21565b6044356001600160401b0381116101f1576119d9903690600401612ad7565b916064356001600160401b0381116101f1576119f9903690600401612875565b6084356001600160401b0381116101f157611a18903690600401612875565b3360009081527f174497e2c67942a5310af52fb19e207892f747264882aec123c0a83250b8e53960205260409020547f20c605fd0c297c12fdef1ea05fc5e693eeeda1f5ffb147a823a0db69c8bbea9e9060ff1615611e0f5750825115611dca5760ff60036040516020818751611a928183858c016128fc565b810184815203019020015416611d855760405191611aaf836127e6565b83835260018060a01b03851660208401528560408401526001606084015242608084015260a083015260c0820152600060e08201526040516020818451611af981838589016128fc565b8101600381520301902090611b0f81518361327e565b6001820160018060a01b036020830151166001600160601b0360a01b825416179055604081015180516001600160401b0381116103dd57600160401b81116103dd57602060028501928354838555808410611d39575b50019160005260206000209060005b8160051c8110611cec5750601f198116808203611c93575b5050505060e081611bb4606060079401511515600386019060ff801983541691151516179055565b60808101516004850155611bcf60a08201516005860161327e565b611be060c08201516006860161327e565b0151910155600954600160401b8110156103dd57806001611c049201600955612a71565b9190916103c75761161881611c189361327e565b90604051906020820160208352845180915260206040840195019060005b818110611c74575050506001600160a01b0316927fc413c638bbefd00b8e224ff9677983bbffc6b1b27ef31154f217746a9e89650c919081900390a3005b90919560208082611c886001948b51612a14565b019701929101611c36565b9260009360005b8184038110611cb65750505060051c015560e060078780611b8c565b909194855160088110156103b157611ce2602091846001949060ff809160031b9316831b921b19161790565b9601929101611c9a565b6000805b60208110611d05575083820155600101611b74565b9490815160088110156103b157611d30602091886001949060ff809160031b9316831b921b19161790565b92019501611cf0565b611d65908560005283600020601f80870160051c82019281881680611d6b575b500160051c0190613267565b89611b65565b60001990818601918254918a0360031b1c1690558e611d59565b60405162461bcd60e51b815260206004820152601960248201527f44657669636520616c72656164792072656769737465726564000000000000006044820152606490fd5b60405162461bcd60e51b815260206004820152601960248201527f4465766963652049442063616e6e6f7420626520656d707479000000000000006044820152606490fd5b611e183361319d565b60405191611e2583612839565b6042835260208301906060368337835115610e7157603082538351600190811015610e7157607860218601536041905b808211611f4a575050611f06576048611ed392611ee292611f029560405195869376020b1b1b2b9b9a1b7b73a3937b61d1030b1b1b7bab73a1604d1b6020860152611eaa8151809260206037890191016128fc565b8401917001034b99036b4b9b9b4b733903937b6329607d1b6037840152518093868401906128fc565b01036028810184520182612854565b60405162461bcd60e51b81526020600482015291829160248301906129ef565b0390fd5b606460405162461bcd60e51b815260206004820152602060248201527f537472696e67733a20686578206c656e67746820696e73756666696369656e746044820152fd5b9091600f81166010811015610e71576f181899199a1a9b1b9c1cb0b131b232b360811b901a611f79848861318c565b5360041c918015610e30576000190190611e55565b346101f1576020611fa1610ef0366128cb565b8101600581520301902080548210156101f157602091611fc091612aa8565b90546040519160031b1c8152f35b346101f15760003660031901126101f1576020600254604051908152f35b346101f15760203660031901126101f1576004356009548110156101f15761201390612a71565b6103c75761085061202d61066d9260405192838092612959565b6040519182916020835260208301906129ef565b346101f15760a06120946020610f0561205936612a37565b92906000608060405161206b816127cb565b8281528285820152826040820152826060820152015281604051938285809451938492016128fc565b6040516120a0816127cb565b81549182825260018101546020830190815260028201549060408401918252608060046003850154946060870195865201549401938452604051948552516020850152516040840152516060830152516080820152f35b346101f15760003660031901126101f15760206040517fb6f6b279a7a4e2aa16012cbd36fcdc1fbdb91b92fd6dab57885c9de496473a8d8152f35b346101f15760003660031901126101f1576020600954604051908152f35b346101f15760003660031901126101f1576020600a54604051908152f35b346101f15760403660031901126101f157612187612a21565b336001600160a01b038216036121a35761076e90600435613118565b60405162461bcd60e51b815260206004820152602f60248201527f416363657373436f6e74726f6c3a2063616e206f6e6c792072656e6f756e636560448201526e103937b632b9903337b91039b2b63360891b6064820152608490fd5b346101f15760403660031901126101f15760043561221c612a21565b81600052600060205261223660016040600020015461300e565b81600052600060205260406000209060018060a01b0316908160005260205260ff604060002054161561226557005b8160005260006020526040600020816000526020526040600020600160ff1982541617905533917f2f8788117e7eff1d82e926ec794901d17c78024a50270940304540a733656f0d600080a4005b346101f15760203660031901126101f15760043560005260006020526020600160406000200154604051908152f35b346101f1576020806003193601126101f1576004356000526006908181526040600020805461231081612ac0565b9361231e6040519586612854565b81855260009283528383208486019391845b8484106123f857604080518881528951818a01819052600092600582901b83018101918a918c9085015b8287106123675785850386f35b909192938280600192603f19898203018552875190815181526123978383015161012080868501528301906129ef565b916123aa60408201516040840190612a14565b606080820151908301526080808201519083015260a0808201519083015260c0808201519083015260e0810151151560e083015261010080910151910152960192019601959291909261235a565b60098760019260409a999a5161240d816127af565b865481526040516124248161085081898c01612959565b8382015260ff61243d8160028a0154166040840161343b565b6003880154606083015260048801546080830152600588015460a08301528688015460c0830152600788015416151560e08201526008870154610100820152815201930193019291969596612330565b346101f15760203660031901126101f1576004356001600160401b0381116101f1576124d860206124c5612567933690600401612875565b81604051938285809451938492016128fc565b81016003815203019020604051906124fb826124f48184612959565b0383612854565b61259460018060a01b036001830154169161258660ff60038301541693600483015460405190612532826124f48160058901612959565b600760405195612550876125498160068501612959565b0388612854565b015496604051998a9960e08b5260e08b01906129ef565b9360208a015215156040890152606088015286820360808801526129ef565b9084820360a08601526129ef565b9060c08301520390f35b346101f15760206125b1610ef0366128cb565b8101600881520301902090600052602052602060ff604060002054166040519015158152f35b346101f1576020806003193601126101f1576004356001600160401b0381116101f157816124c561260c923690600401612875565b8101600581520301902090604051908181845491828152019360005281600020916000905b8282106126545761066d8561264881890382612854565b60405191829182612774565b835486529485019460019384019390910190612631565b346101f15760003660031901126101f15760206040517ff9b712ed3cd0e90cdc9d1abac8fb677bf018af115fb294c768a96b48bd6922c58152f35b346101f15760003660031901126101f15760405180600a5491828152602080910192600a6000527fc65a7bb8d6351c1cf70c95a316cc6a92839c986682d98bc35f958f4883f9d2a8916000905b82821061270a5761066d8561264881890382612854565b8354865294850194600193840193909101906126f3565b346101f15760203660031901126101f1576004359063ffffffff60e01b82168092036101f157602091637965db0b60e01b8114908115612763575b5015158152f35b6301ffc9a760e01b1490508361275c565b6020908160408183019282815285518094520193019160005b82811061279b575050505090565b83518552938101939281019260010161278d565b61012081019081106001600160401b038211176103dd57604052565b60a081019081106001600160401b038211176103dd57604052565b61010081019081106001600160401b038211176103dd57604052565b61018081019081106001600160401b038211176103dd57604052565b602081019081106001600160401b038211176103dd57604052565b608081019081106001600160401b038211176103dd57604052565b90601f801991011681019081106001600160401b038211176103dd57604052565b81601f820112156101f1578035906001600160401b0382116103dd57604051926128a9601f8401601f191660200185612854565b828452602083830101116101f157816000926020809301838601378301015290565b60406003198201126101f157600435906001600160401b0382116101f1576128f591600401612875565b9060243590565b60005b83811061290f5750506000910152565b81810151838201526020016128ff565b90600182811c9216801561294f575b602083101461293957565b634e487b7160e01b600052602260045260246000fd5b91607f169161292e565b906000929180549161296a8361291f565b9182825260019384811690816000146129cc575060011461298c575b50505050565b90919394506000526020928360002092846000945b8386106129b8575050505001019038808080612986565b8054858701830152940193859082016129a1565b9294505050602093945060ff191683830152151560051b01019038808080612986565b90602091612a08815180928185528580860191016128fc565b601f01601f1916010190565b9060088210156103b15752565b602435906001600160a01b03821682036101f157565b60406003198201126101f157600435906001600160401b0382116101f157612a6191600401612875565b9060243560088110156101f15790565b600954811015610e715760096000527f6e1540171b6c0c960b71a7020d9f60077f6af931a8bbf590da0223dacf75c7af0190600090565b8054821015610e715760005260206000200190600090565b6001600160401b0381116103dd5760051b60200190565b81601f820112156101f157803591612aee83612ac0565b92612afc6040519485612854565b808452602092838086019260051b8201019283116101f1578301905b828210612b26575050505090565b813560088110156101f1578152908301908301612b18565b9060048210156103b15752565b90612c24916020815281516020820152602082015190612b79610180928360408401526101a08301906129ef565b91612b8c60408501516060840190612a14565b60608401516080830152612bd3612bb5608086015194601f1995868683030160a08701526129ef565b60a086015160c085015260c0860151858583030160e08601526129ef565b9360018060a01b038060e0830151166101009081860152820151612bfd6101209182870190612b3e565b820151610140908186015282015116906101609182850152015192828503019101526129ef565b90565b8054821015610e71576000526009602060002091020190600090565b9060088110156103b157600052602052604060002090565b9080601f830112156101f157813590612c7382612ac0565b92612c816040519485612854565b828452602092838086019160051b830101928084116101f157848301915b848310612caf5750505050505090565b82356001600160401b0381116101f1578691612cd084848094890101612875565b815201920191612c9f565b3360009081527f3b9d37337deb4997847cf5492088ced2ca506425960b62ede7e87d5aa6391a97602090815260408083205490927ff9b712ed3cd0e90cdc9d1abac8fb677bf018af115fb294c768a96b48bd6922c59160ff1615612d3f5750505050565b612d483361319d565b91845190612d5582612839565b60428252848201926060368537825115612eb55760308453825190600191821015612eb55790607860218501536041915b818311612e4757505050612e05576048611f02938693612de993612dda985198899376020b1b1b2b9b9a1b7b73a3937b61d1030b1b1b7bab73a1604d1b8a860152611eaa815180928c6037890191016128fc565b01036028810187520185612854565b5192839262461bcd60e51b8452600484015260248301906129ef565b60648486519062461bcd60e51b825280600483015260248201527f537472696e67733a20686578206c656e67746820696e73756666696369656e746044820152fd5b909192600f81166010811015612ea1576f181899199a1a9b1b9c1cb0b131b232b360811b901a612e77858761318c565b5360041c928015612e8d57600019019190612d86565b634e487b7160e01b82526011600452602482fd5b634e487b7160e01b83526032600452602483fd5b634e487b7160e01b81526032600452602490fd5b3360009081527f3108fbc31e7e3c27f61b391b00a9389bcd4672405932c22a42e5c3fdca1816d0602090815260408083205490927fb6f6b279a7a4e2aa16012cbd36fcdc1fbdb91b92fd6dab57885c9de496473a8d9160ff1615612f2d5750505050565b612f363361319d565b91845190612f4382612839565b60428252848201926060368537825115612eb55760308453825190600191821015612eb55790607860218501536041915b818311612fc857505050612e05576048611f02938693612de993612dda985198899376020b1b1b2b9b9a1b7b73a3937b61d1030b1b1b7bab73a1604d1b8a860152611eaa815180928c6037890191016128fc565b909192600f81166010811015612ea1576f181899199a1a9b1b9c1cb0b131b232b360811b901a612ff8858761318c565b5360041c928015612e8d57600019019190612f74565b600090808252602090828252604092838120338252835260ff8482205416156130375750505050565b6130403361319d565b9184519061304d82612839565b60428252848201926060368537825115612eb55760308453825190600191821015612eb55790607860218501536041915b8183116130d257505050612e05576048611f02938693612de993612dda985198899376020b1b1b2b9b9a1b7b73a3937b61d1030b1b1b7bab73a1604d1b8a860152611eaa815180928c6037890191016128fc565b909192600f81166010811015612ea1576f181899199a1a9b1b9c1cb0b131b232b360811b901a613102858761318c565b5360041c928015612e8d5760001901919061307e565b9060009180835282602052604083209160018060a01b03169182845260205260ff60408420541661314857505050565b80835282602052604083208284526020526040832060ff1981541690557ff6391f5c32d9c69d2a47ea670b442974b53935d1edc7fd64eb21e047a839171b339380a4565b908151811015610e71570160200190565b60405190606082018281106001600160401b038211176103dd57604052602a8252602082016040368237825115610e7157603090538151600190811015610e7157607860218401536029905b8082116131f9575050611f065790565b9091600f81166010811015613252576f181899199a1a9b1b9c1cb0b131b232b360811b901a613228848661318c565b5360041c91801561323d5760001901906131e9565b60246000634e487b7160e01b81526011600452fd5b60246000634e487b7160e01b81526032600452fd5b818110613272575050565b60008155600101613267565b91909182516001600160401b0381116103dd5761329b825461291f565b601f8111613345575b50602080601f83116001146132e15750819293946000926132d6575b50508160011b916000199060031b1c1916179055565b0151905038806132c0565b90601f198316958460005282600020926000905b88821061332d57505083600195969710613314575b505050811b019055565b015160001960f88460031b161c1916905538808061330a565b806001859682949686015181550195019301906132f5565b61337290836000526020600020601f840160051c81019160208510613378575b601f0160051c0190613267565b386132a4565b9091508190613365565b5160088110156103b15790565b6133a7906020604051928284809451938492016128fc565b810103902090565b156133b657565b60405162461bcd60e51b8152602060048201526011602482015270446576696365206e6f742061637469766560781b6044820152606490fd5b156133f657565b60405162461bcd60e51b815260206004820152601960248201527f53656e736f722074797065206e6f7420737570706f72746564000000000000006044820152606490fd5b60088210156103b15752565b60048210156103b15752565b9060088110156103b15760ff80198354169116179055565b9060048110156103b157815460ff60a01b191660a09190911b60ff60a01b16179055565b9061349982612ac0565b6134a66040519182612854565b82815280926134b7601f1991612ac0565b0190602036910137565b6000198114610e305760010190565b8051821015610e715760209160051b010190565b906040918251809382549283835260209182840191600052826000209460005b81601f8201106139c5578461361f9754938383106139a9575b83831061398a575b83831061396b575b83831061394c575b83831061392e575b83831061390f575b8383106138f0575b8383106138d1575b8383106138b4575b50828210613897575b82821061387a575b82821061385d575b828210613840575b828210613823575b828210613806575b8282106137e9575b8282106137cc575b8282106137af575b828210613792575b828210613775575b828210613758575b82821061373b575b82821061371e575b828210613701575b8282106136e4575b8282106136c7575b8282106136aa575b82821061368d575b828210613670575b828210613653575b828210613636575b5010613621575b5090500383612854565b565b8161362e9160f81c612a14565b018038613615565b8461364a6001939660ff8760f01c16612a14565b0193018461360e565b846136676001939660ff8760e81c16612a14565b01930184613606565b846136846001939660ff8760e01c16612a14565b019301846135fe565b846136a16001939660ff8760d81c16612a14565b019301846135f6565b846136be6001939660ff8760d01c16612a14565b019301846135ee565b846136db6001939660ff8760c81c16612a14565b019301846135e6565b846136f86001939660ff8760c01c16612a14565b019301846135de565b846137156001939660ff8760b81c16612a14565b019301846135d6565b846137326001939660ff8760b01c16612a14565b019301846135ce565b8461374f6001939660ff8760a81c16612a14565b019301846135c6565b8461376c6001939660ff8760a01c16612a14565b019301846135be565b846137896001939660ff8760981c16612a14565b019301846135b6565b846137a66001939660ff8760901c16612a14565b019301846135ae565b846137c36001939660ff8760881c16612a14565b019301846135a6565b846137e06001939660ff8760801c16612a14565b0193018461359e565b846137fd6001939660ff8760781c16612a14565b01930184613596565b8461381a6001939660ff8760701c16612a14565b0193018461358e565b846138376001939660ff8760681c16612a14565b01930184613586565b846138546001939660ff8760601c16612a14565b0193018461357e565b846138716001939660ff8760581c16612a14565b01930184613576565b8461388e6001939660ff8760501c16612a14565b0193018461356e565b846138ab6001939660ff8760481c16612a14565b01930184613566565b946138c78160ff87600196991c16612a14565b019301843861355d565b919481816138e760019360ff8960381c16612a14565b01950191613555565b9194818161390660019360ff8960301c16612a14565b0195019161354d565b9194818161392560019360ff8960281c16612a14565b01950191613545565b9194818161394360019360ff89851c16612a14565b0195019161353d565b9194818161396260019360ff8960181c16612a14565b01950191613535565b9194818161398160019360ff8960101c16612a14565b0195019161352d565b919481816139a060019360ff8960081c16612a14565b01950191613525565b919481816139bc60019360ff8916612a14565b0195019161351d565b91939594509160016104008792613c2a8854613c1c86613bf9613a88613bb18d613b6989613b2160ff976139fb838a8d16612a14565b613a0c8184018a8d60081c16612a14565b613a1d8584018a8d60101c16612a14565b888b610200606095613a36878201858560181c16612a14565b613a496080958585888501921c16612a14565b613adf60a097613a60898401878760281c16612a14565b613a9760c09b613a778d8601898960301c16612a14565b60e09e8f8601898960381c16612a14565b87876101008701921c16612a14565b613aaa6101208401878760481c16612a14565b613abd6101408401878760501c16612a14565b613ad06101608401878760581c16612a14565b85856101808501921c16612a14565b613af26101a08201858560681c16612a14565b613b056101c08201858560701c16612a14565b613b186101e08201858560781c16612a14565b01921c16612a14565b613b346102208c01888b60881c16612a14565b613b476102408c01888b60901c16612a14565b613b5a6102608c01888b60981c16612a14565b86896102808d01921c16612a14565b613b7c6102a08a01868960a81c16612a14565b613b8f6102c08a01868960b01c16612a14565b613ba26102e08a01868960b81c16612a14565b84876103008b01921c16612a14565b613bc46103208801848760c81c16612a14565b613bd76103408801848760d01c16612a14565b613bea6103608801848760d81c16612a14565b82856103808901921c16612a14565b613c0c6103a08601828560e81c16612a14565b6103c08501908360f01c16612a14565b6103e083019060f81c612a14565b01950191019187949295939195613504565b6002613c5a6020613c6a9381604051938285809451938492016128fc565b81016003815203019020016134e4565b9060005b8251811015613cb657613c89613c8482856134d0565b613382565b6008808410156103b1578110156103b1578214613cae57613ca9906134c1565b613c6e565b505050600190565b505050600090565b60405190613ccb82612802565b606061016083600080825283602083015280604083015280848301528360808301528060a08301528360c08301528060e083015280610100830152806101208301526101408201520152565b90613d20613cbe565b5060408051918351613d37818560208098016128fc565b8301928481600595868152030190209282519081828787549283815201600097885288882092885b8a828210613fae57505050613d7692500383612854565b8151906000199384830160019381138416613e77575b87811215613e2457505050505050805192613da684612802565b828452815190613db58261281e565b8382528401526007818401528160608401528051613dd28161281e565b82815260808401528160a08401528051613deb8161281e565b82815260c08401528160e08401528161010084015281610120840152816101408401525190613e198261281e565b815261016082015290565b613e2e81866134d0565b518089526004808b52888a2060029081015460ff936008939291851684881015613f9b5784811015613f9b578714613e8b575050505050600160ff1b8114613e77578501613d8c565b634e487b7160e01b88526011600452602488fd5b9196979b9298509350829850899294508152848b522097875199613eae8b612802565b89548b5288518080938c0190613ec391612959565b03613ece9083612854565b8a0152870154613ee1911686890161343b565b600386015460608801528451808092880190613efc91612959565b03613f079082612854565b60808701528401549160a09283870152835180806006880190613f2991612959565b03613f349082612854565b60c087015260078501546001600160a01b0380821660e089015293613f619291901c166101008701613447565b8301546101208501526009830154166101408401525180600a81930190613f8791612959565b03613f929082612854565b61016082015290565b634e487b7160e01b8e526021845260248efd5b8554845260019586019588955093019201613d5f56fea26469706673582212209a5fb4c53e3f09cc2549b814a6bf32aa990a2ddf00d5dd4ea23b00e005e2356864736f6c634300081300332f8788117e7eff1d82e926ec794901d17c78024a50270940304540a733656f0d",
  "linkReferences": {},
  "deployedLinkReferences": {}
}