{
  "_format": "hh-sol-artifact-1",
  "contractName": "ProTrackNFT",
  "sourceName": "contracts/ProTrackNFT.sol",
  "abi": [
    {
      "inputs": [],
      "stateMutability": "nonpayable",
      "type": "constructor"
    },
    {
      "anonymous": false,
      "inputs": [
        {
          "indexed": true,
          "internalType": "address",
          "name": "owner",
          "type": "address"
        },
        {
          "indexed": true,
          "internalType": "address",
          "name": "approved",
          "type": "address"
        },
        {
          "indexed": true,
          "internalType": "uint256",
          "name": "tokenId",
          "type": "uint256"
        }
      ],
      "name": "Approval",
      "type": "event"
    },
    {
      "anonymous": false,
      "inputs": [
        {
          "indexed": true,
          "internalType": "address",
          "name": "owner",
          "type": "address"
        },
        {
          "indexed": true,
          "internalType": "address",
          "name": "operator",
          "type": "address"
        },
        {
          "indexed": false,
          "internalType": "bool",
          "name": "approved",
          "type": "bool"
        }
      ],
      "name": "ApprovalForAll",
      "type": "event"
    },
    {
      "anonymous": false,
      "inputs": [
        {
          "indexed": false,
          "internalType": "uint256",
          "name": "_fromTokenId",
          "type": "uint256"
        },
        {
          "indexed": false,
          "internalType": "uint256",
          "name": "_toTokenId",
          "type": "uint256"
        }
      ],
      "name": "BatchMetadataUpdate",
      "type": "event"
    },
    {
      "anonymous": false,
      "inputs": [
        {
          "indexed": false,
          "internalType": "uint256",
          "name": "_tokenId",
          "type": "uint256"
        }
      ],
      "name": "MetadataUpdate",
      "type": "event"
    },
    {
      "anonymous": false,
      "inputs": [
        {
          "indexed": true,
          "internalType": "uint256",
          "name": "tokenId",
          "type": "uint256"
        },
        {
          "indexed": false,
          "internalType": "string",
          "name": "batchId",
          "type": "string"
        },
        {
          "indexed": true,
          "internalType": "address",
          "name": "manufacturer",
          "type": "address"
        }
      ],
      "name": "ProductMinted",
      "type": "event"
    },
    {
      "anonymous": false,
      "inputs": [
        {
          "indexed": true,
          "internalType": "uint256",
          "name": "tokenId",
          "type": "uint256"
        },
        {
          "indexed": false,
          "internalType": "bool",
          "name": "isActive",
          "type": "bool"
        },
        {
          "indexed": false,
          "internalType": "string",
          "name": "reason",
          "type": "string"
        }
      ],
      "name": "ProductStatusChanged",
      "type": "event"
    },
    {
      "anonymous": false,
      "inputs": [
        {
          "indexed": true,
          "internalType": "uint256",
          "name": "tokenId",
          "type": "uint256"
        },
        {
          "indexed": true,
          "internalType": "address",
          "name": "from",
          "type": "address"
        },
        {
          "indexed": true,
          "internalType": "address",
          "name": "to",
          "type": "address"
        },
        {
          "indexed": false,
          "internalType": "string",
          "name": "location",
          "type": "string"
        }
      ],
      "name": "ProductTransferred",
      "type": "event"
    },
    {
      "anonymous": false,
      "inputs": [
        {
          "indexed": true,
          "internalType": "uint256",
          "name": "tokenId",
          "type": "uint256"
        },
        {
          "indexed": false,
          "internalType": "uint256",
          "name": "newValue",
          "type": "uint256"
        },
        {
          "indexed": false,
          "internalType": "string",
          "name": "reason",
          "type": "string"
        }
      ],
      "name": "ProductValueUpdated",
      "type": "event"
    },
    {
      "anonymous": false,
      "inputs": [
        {
          "indexed": true,
          "internalType": "uint256",
          "name": "tokenId",
          "type": "uint256"
        },
        {
          "indexed": true,
          "internalType": "address",
          "name": "inspector",
          "type": "address"
        },
        {
          "indexed": false,
          "internalType": "bool",
          "name": "passed",
          "type": "bool"
        }
      ],
      "name": "QualityCheckAdded",
      "type": "event"
    },
    {
      "anonymous": false,
      "inputs": [
        {
          "indexed": true,
          "internalType": "bytes32",
          "name": "role",
          "type": "bytes32"
        },
        {
          "indexed": true,
          "internalType": "bytes32",
          "name": "previousAdminRole",
          "type": "bytes32"
        },
        {
          "indexed": true,
          "internalType": "bytes32",
          "name": "newAdminRole",
          "type": "bytes32"
        }
      ],
      "name": "RoleAdminChanged",
      "type": "event"
    },
    {
      "anonymous": false,
      "inputs": [
        {
          "indexed": true,
          "internalType": "bytes32",
          "name": "role",
          "type": "bytes32"
        },
        {
          "indexed": true,
          "internalType": "address",
          "name": "account",
          "type": "address"
        },
        {
          "indexed": true,
          "internalType": "address",
          "name": "sender",
          "type": "address"
        }
      ],
      "name": "RoleGranted",
      "type": "event"
    },
    {
      "anonymous": false,
      "inputs": [
        {
          "indexed": true,
          "internalType": "bytes32",
          "name": "role",
          "type": "bytes32"
        },
        {
          "indexed": true,
          "internalType": "address",
          "name": "account",
          "type": "address"
        },
        {
          "indexed": true,
          "internalType": "address",
          "name": "sender",
          "type": "address"
        }
      ],
      "name": "RoleRevoked",
      "type": "event"
    },
    {
      "anonymous": false,
      "inputs": [
        {
          "indexed": true,
          "internalType": "uint256",
          "name": "tokenId",
          "type": "uint256"
        },
        {
          "indexed": false,
          "internalType": "string",
          "name": "eventType",
          "type": "string"
        },
        {
          "indexed": true,
          "internalType": "address",
          "name": "actor",
          "type": "address"
        }
      ],
      "name": "SupplyChainEventAdded",
      "type": "event"
    },
    {
      "anonymous": false,
      "inputs": [
        {
          "indexed": true,
          "internalType": "address",
          "name": "from",
          "type": "address"
        },
        {
          "indexed": true,
          "internalType": "address",
          "name": "to",
          "type": "address"
        },
        {
          "indexed": true,
          "internalType": "uint256",
          "name": "tokenId",
          "type": "uint256"
        }
      ],
      "name": "Transfer",
      "type": "event"
    },
    {
      "inputs": [],
      "name": "DEFAULT_ADMIN_ROLE",
      "outputs": [
        {
          "internalType": "bytes32",
          "name": "",
          "type": "bytes32"
        }
      ],
      "stateMutability": "view",
      "type": "function"
    },
    {
      "inputs": [],
      "name": "INSPECTOR_ROLE",
      "outputs": [
        {
          "internalType": "bytes32",
          "name": "",
          "type": "bytes32"
        }
      ],
      "stateMutability": "view",
      "type": "function"
    },
    {
      "inputs": [],
      "name": "MINTER_ROLE",
      "outputs": [
        {
          "internalType": "bytes32",
          "name": "",
          "type": "bytes32"
        }
      ],
      "stateMutability": "view",
      "type": "function"
    },
    {
      "inputs": [],
      "name": "SUPPLY_CHAIN_ROLE",
      "outputs": [
        {
          "internalType": "bytes32",
          "name": "",
          "type": "bytes32"
        }
      ],
      "stateMutability": "view",
      "type": "function"
    },
    {
      "inputs": [
        {
          "internalType": "uint256",
          "name": "tokenId",
          "type": "uint256"
        },
        {
          "internalType": "string",
          "name": "checkType",
          "type": "string"
        },
        {
          "internalType": "bool",
          "name": "passed",
          "type": "bool"
        },
        {
          "internalType": "string",
          "name": "notes",
          "type": "string"
        },
        {
          "internalType": "string[]",
          "name": "testResults",
          "type": "string[]"
        }
      ],
      "name": "addQualityCheck",
      "outputs": [],
      "stateMutability": "nonpayable",
      "type": "function"
    },
    {
      "inputs": [
        {
          "internalType": "uint256",
          "name": "tokenId",
          "type": "uint256"
        },
        {
          "internalType": "string",
          "name": "eventType",
          "type": "string"
        },
        {
          "internalType": "string",
          "name": "description",
          "type": "string"
        },
        {
          "internalType": "string",
          "name": "location",
          "type": "string"
        },
        {
          "internalType": "string",
          "name": "data",
          "type": "string"
        }
      ],
      "name": "addSupplyChainEvent",
      "outputs": [],
      "stateMutability": "nonpayable",
      "type": "function"
    },
    {
      "inputs": [
        {
          "internalType": "address",
          "name": "to",
          "type": "address"
        },
        {
          "internalType": "uint256",
          "name": "tokenId",
          "type": "uint256"
        }
      ],
      "name": "approve",
      "outputs": [],
      "stateMutability": "nonpayable",
      "type": "function"
    },
    {
      "inputs": [
        {
          "internalType": "uint256",
          "name": "tokenId",
          "type": "uint256"
        },
        {
          "internalType": "address",
          "name": "actor",
          "type": "address"
        }
      ],
      "name": "authorizeActor",
      "outputs": [],
      "stateMutability": "nonpayable",
      "type": "function"
    },
    {
      "inputs": [
        {
          "internalType": "uint256",
          "name": "",
          "type": "uint256"
        },
        {
          "internalType": "address",
          "name": "",
          "type": "address"
        }
      ],
      "name": "authorizedActors",
      "outputs": [
        {
          "internalType": "bool",
          "name": "",
          "type": "bool"
        }
      ],
      "stateMutability": "view",
      "type": "function"
    },
    {
      "inputs": [
        {
          "internalType": "address",
          "name": "owner",
          "type": "address"
        }
      ],
      "name": "balanceOf",
      "outputs": [
        {
          "internalType": "uint256",
          "name": "",
          "type": "uint256"
        }
      ],
      "stateMutability": "view",
      "type": "function"
    },
    {
      "inputs": [
        {
          "internalType": "string",
          "name": "",
          "type": "string"
        }
      ],
      "name": "batchToTokenId",
      "outputs": [
        {
          "internalType": "uint256",
          "name": "",
          "type": "uint256"
        }
      ],
      "stateMutability": "view",
      "type": "function"
    },
    {
      "inputs": [
        {
          "internalType": "uint256",
          "name": "tokenId",
          "type": "uint256"
        }
      ],
      "name": "getApproved",
      "outputs": [
        {
          "internalType": "address",
          "name": "",
          "type": "address"
        }
      ],
      "stateMutability": "view",
      "type": "function"
    },
    {
      "inputs": [
        {
          "internalType": "address",
          "name": "manufacturer",
          "type": "address"
        }
      ],
      "name": "getManufacturerProducts",
      "outputs": [
        {
          "internalType": "uint256[]",
          "name": "",
          "type": "uint256[]"
        }
      ],
      "stateMutability": "view",
      "type": "function"
    },
    {
      "inputs": [
        {
          "internalType": "uint256",
          "name": "tokenId",
          "type": "uint256"
        }
      ],
      "name": "getProductData",
      "outputs": [
        {
          "components": [
            {
              "internalType": "string",
              "name": "name",
              "type": "string"
            },
            {
              "internalType": "string",
              "name": "sku",
              "type": "string"
            },
            {
              "internalType": "address",
              "name": "manufacturer",
              "type": "address"
            },
            {
              "internalType": "uint256",
              "name": "createdAt",
              "type": "uint256"
            },
            {
              "internalType": "string",
              "name": "batchId",
              "type": "string"
            },
            {
              "internalType": "string",
              "name": "category",
              "type": "string"
            },
            {
              "internalType": "uint256",
              "name": "expiryDate",
              "type": "uint256"
            },
            {
              "internalType": "bool",
              "name": "isActive",
              "type": "bool"
            },
            {
              "internalType": "uint256",
              "name": "currentValue",
              "type": "uint256"
            },
            {
              "internalType": "string",
              "name": "currentLocation",
              "type": "string"
            }
          ],
          "internalType": "struct ProTrackNFT.ProductData",
          "name": "",
          "type": "tuple"
        }
      ],
      "stateMutability": "view",
      "type": "function"
    },
    {
      "inputs": [
        {
          "internalType": "uint256",
          "name": "tokenId",
          "type": "uint256"
        }
      ],
      "name": "getQualityChecks",
      "outputs": [
        {
          "components": [
            {
              "internalType": "address",
              "name": "inspector",
              "type": "address"
            },
            {
              "internalType": "uint256",
              "name": "timestamp",
              "type": "uint256"
            },
            {
              "internalType": "string",
              "name": "checkType",
              "type": "string"
            },
            {
              "internalType": "bool",
              "name": "passed",
              "type": "bool"
            },
            {
              "internalType": "string",
              "name": "notes",
              "type": "string"
            },
            {
              "internalType": "string[]",
              "name": "testResults",
              "type": "string[]"
            }
          ],
          "internalType": "struct ProTrackNFT.QualityCheck[]",
          "name": "",
          "type": "tuple[]"
        }
      ],
      "stateMutability": "view",
      "type": "function"
    },
    {
      "inputs": [
        {
          "internalType": "bytes32",
          "name": "role",
          "type": "bytes32"
        }
      ],
      "name": "getRoleAdmin",
      "outputs": [
        {
          "internalType": "bytes32",
          "name": "",
          "type": "bytes32"
        }
      ],
      "stateMutability": "view",
      "type": "function"
    },
    {
      "inputs": [
        {
          "internalType": "uint256",
          "name": "tokenId",
          "type": "uint256"
        }
      ],
      "name": "getSupplyChainHistory",
      "outputs": [
        {
          "components": [
            {
              "internalType": "string",
              "name": "eventType",
              "type": "string"
            },
            {
              "internalType": "string",
              "name": "description",
              "type": "string"
            },
            {
              "internalType": "address",
              "name": "actor",
              "type": "address"
            },
            {
              "internalType": "uint256",
              "name": "timestamp",
              "type": "uint256"
            },
            {
              "internalType": "string",
              "name": "location",
              "type": "string"
            },
            {
              "internalType": "string",
              "name": "data",
              "type": "string"
            },
            {
              "internalType": "bool",
              "name": "verified",
              "type": "bool"
            }
          ],
          "internalType": "struct ProTrackNFT.SupplyChainEvent[]",
          "name": "",
          "type": "tuple[]"
        }
      ],
      "stateMutability": "view",
      "type": "function"
    },
    {
      "inputs": [
        {
          "internalType": "string",
          "name": "batchId",
          "type": "string"
        }
      ],
      "name": "getTokenByBatchId",
      "outputs": [
        {
          "internalType": "uint256",
          "name": "",
          "type": "uint256"
        }
      ],
      "stateMutability": "view",
      "type": "function"
    },
    {
      "inputs": [
        {
          "internalType": "bytes32",
          "name": "role",
          "type": "bytes32"
        },
        {
          "internalType": "address",
          "name": "account",
          "type": "address"
        }
      ],
      "name": "grantRole",
      "outputs": [],
      "stateMutability": "nonpayable",
      "type": "function"
    },
    {
      "inputs": [
        {
          "internalType": "bytes32",
          "name": "role",
          "type": "bytes32"
        },
        {
          "internalType": "address",
          "name": "account",
          "type": "address"
        }
      ],
      "name": "hasRole",
      "outputs": [
        {
          "internalType": "bool",
          "name": "",
          "type": "bool"
        }
      ],
      "stateMutability": "view",
      "type": "function"
    },
    {
      "inputs": [
        {
          "internalType": "address",
          "name": "owner",
          "type": "address"
        },
        {
          "internalType": "address",
          "name": "operator",
          "type": "address"
        }
      ],
      "name": "isApprovedForAll",
      "outputs": [
        {
          "internalType": "bool",
          "name": "",
          "type": "bool"
        }
      ],
      "stateMutability": "view",
      "type": "function"
    },
    {
      "inputs": [
        {
          "internalType": "uint256",
          "name": "tokenId",
          "type": "uint256"
        }
      ],
      "name": "isProductExpired",
      "outputs": [
        {
          "internalType": "bool",
          "name": "",
          "type": "bool"
        }
      ],
      "stateMutability": "view",
      "type": "function"
    },
    {
      "inputs": [
        {
          "internalType": "address",
          "name": "",
          "type": "address"
        },
        {
          "internalType": "uint256",
          "name": "",
          "type": "uint256"
        }
      ],
      "name": "manufacturerProducts",
      "outputs": [
        {
          "internalType": "uint256",
          "name": "",
          "type": "uint256"
        }
      ],
      "stateMutability": "view",
      "type": "function"
    },
    {
      "inputs": [
        {
          "internalType": "address",
          "name": "to",
          "type": "address"
        },
        {
          "internalType": "string",
          "name": "_tokenURI",
          "type": "string"
        },
        {
          "components": [
            {
              "internalType": "string",
              "name": "name",
              "type": "string"
            },
            {
              "internalType": "string",
              "name": "sku",
              "type": "string"
            },
            {
              "internalType": "address",
              "name": "manufacturer",
              "type": "address"
            },
            {
              "internalType": "uint256",
              "name": "createdAt",
              "type": "uint256"
            },
            {
              "internalType": "string",
              "name": "batchId",
              "type": "string"
            },
            {
              "internalType": "string",
              "name": "category",
              "type": "string"
            },
            {
              "internalType": "uint256",
              "name": "expiryDate",
              "type": "uint256"
            },
            {
              "internalType": "bool",
              "name": "isActive",
              "type": "bool"
            },
            {
              "internalType": "uint256",
              "name": "currentValue",
              "type": "uint256"
            },
            {
              "internalType": "string",
              "name": "currentLocation",
              "type": "string"
            }
          ],
          "internalType": "struct ProTrackNFT.ProductData",
          "name": "productData",
          "type": "tuple"
        }
      ],
      "name": "mintProduct",
      "outputs": [
        {
          "internalType": "uint256",
          "name": "",
          "type": "uint256"
        }
      ],
      "stateMutability": "nonpayable",
      "type": "function"
    },
    {
      "inputs": [],
      "name": "name",
      "outputs": [
        {
          "internalType": "string",
          "name": "",
          "type": "string"
        }
      ],
      "stateMutability": "view",
      "type": "function"
    },
    {
      "inputs": [
        {
          "internalType": "uint256",
          "name": "tokenId",
          "type": "uint256"
        }
      ],
      "name": "ownerOf",
      "outputs": [
        {
          "internalType": "address",
          "name": "",
          "type": "address"
        }
      ],
      "stateMutability": "view",
      "type": "function"
    },
    {
      "inputs": [
        {
          "internalType": "uint256",
          "name": "",
          "type": "uint256"
        }
      ],
      "name": "products",
      "outputs": [
        {
          "internalType": "string",
          "name": "name",
          "type": "string"
        },
        {
          "internalType": "string",
          "name": "sku",
          "type": "string"
        },
        {
          "internalType": "address",
          "name": "manufacturer",
          "type": "address"
        },
        {
          "internalType": "uint256",
          "name": "createdAt",
          "type": "uint256"
        },
        {
          "internalType": "string",
          "name": "batchId",
          "type": "string"
        },
        {
          "internalType": "string",
          "name": "category",
          "type": "string"
        },
        {
          "internalType": "uint256",
          "name": "expiryDate",
          "type": "uint256"
        },
        {
          "internalType": "bool",
          "name": "isActive",
          "type": "bool"
        },
        {
          "internalType": "uint256",
          "name": "currentValue",
          "type": "uint256"
        },
        {
          "internalType": "string",
          "name": "currentLocation",
          "type": "string"
        }
      ],
      "stateMutability": "view",
      "type": "function"
    },
    {
      "inputs": [
        {
          "internalType": "uint256",
          "name": "",
          "type": "uint256"
        },
        {
          "internalType": "uint256",
          "name": "",
          "type": "uint256"
        }
      ],
      "name": "qualityChecks",
      "outputs": [
        {
          "internalType": "address",
          "name": "inspector",
          "type": "address"
        },
        {
          "internalType": "uint256",
          "name": "timestamp",
          "type": "uint256"
        },
        {
          "internalType": "string",
          "name": "checkType",
          "type": "string"
        },
        {
          "internalType": "bool",
          "name": "passed",
          "type": "bool"
        },
        {
          "internalType": "string",
          "name": "notes",
          "type": "string"
        }
      ],
      "stateMutability": "view",
      "type": "function"
    },
    {
      "inputs": [
        {
          "internalType": "bytes32",
          "name": "role",
          "type": "bytes32"
        },
        {
          "internalType": "address",
          "name": "account",
          "type": "address"
        }
      ],
      "name": "renounceRole",
      "outputs": [],
      "stateMutability": "nonpayable",
      "type": "function"
    },
    {
      "inputs": [
        {
          "internalType": "uint256",
          "name": "tokenId",
          "type": "uint256"
        },
        {
          "internalType": "address",
          "name": "actor",
          "type": "address"
        }
      ],
      "name": "revokeActorAuthorization",
      "outputs": [],
      "stateMutability": "nonpayable",
      "type": "function"
    },
    {
      "inputs": [
        {
          "internalType": "bytes32",
          "name": "role",
          "type": "bytes32"
        },
        {
          "internalType": "address",
          "name": "account",
          "type": "address"
        }
      ],
      "name": "revokeRole",
      "outputs": [],
      "stateMutability": "nonpayable",
      "type": "function"
    },
    {
      "inputs": [
        {
          "internalType": "address",
          "name": "from",
          "type": "address"
        },
        {
          "internalType": "address",
          "name": "to",
          "type": "address"
        },
        {
          "internalType": "uint256",
          "name": "tokenId",
          "type": "uint256"
        }
      ],
      "name": "safeTransferFrom",
      "outputs": [],
      "stateMutability": "nonpayable",
      "type": "function"
    },
    {
      "inputs": [
        {
          "internalType": "address",
          "name": "from",
          "type": "address"
        },
        {
          "internalType": "address",
          "name": "to",
          "type": "address"
        },
        {
          "internalType": "uint256",
          "name": "tokenId",
          "type": "uint256"
        },
        {
          "internalType": "bytes",
          "name": "data",
          "type": "bytes"
        }
      ],
      "name": "safeTransferFrom",
      "outputs": [],
      "stateMutability": "nonpayable",
      "type": "function"
    },
    {
      "inputs": [
        {
          "internalType": "address",
          "name": "operator",
          "type": "address"
        },
        {
          "internalType": "bool",
          "name": "approved",
          "type": "bool"
        }
      ],
      "name": "setApprovalForAll",
      "outputs": [],
      "stateMutability": "nonpayable",
      "type": "function"
    },
    {
      "inputs": [
        {
          "internalType": "uint256",
          "name": "",
          "type": "uint256"
        },
        {
          "internalType": "uint256",
          "name": "",
          "type": "uint256"
        }
      ],
      "name": "supplyChainHistory",
      "outputs": [
        {
          "internalType": "string",
          "name": "eventType",
          "type": "string"
        },
        {
          "internalType": "string",
          "name": "description",
          "type": "string"
        },
        {
          "internalType": "address",
          "name": "actor",
          "type": "address"
        },
        {
          "internalType": "uint256",
          "name": "timestamp",
          "type": "uint256"
        },
        {
          "internalType": "string",
          "name": "location",
          "type": "string"
        },
        {
          "internalType": "string",
          "name": "data",
          "type": "string"
        },
        {
          "internalType": "bool",
          "name": "verified",
          "type": "bool"
        }
      ],
      "stateMutability": "view",
      "type": "function"
    },
    {
      "inputs": [
        {
          "internalType": "bytes4",
          "name": "interfaceId",
          "type": "bytes4"
        }
      ],
      "name": "supportsInterface",
      "outputs": [
        {
          "internalType": "bool",
          "name": "",
          "type": "bool"
        }
      ],
      "stateMutability": "view",
      "type": "function"
    },
    {
      "inputs": [],
      "name": "symbol",
      "outputs": [
        {
          "internalType": "string",
          "name": "",
          "type": "string"
        }
      ],
      "stateMutability": "view",
      "type": "function"
    },
    {
      "inputs": [
        {
          "internalType": "uint256",
          "name": "tokenId",
          "type": "uint256"
        }
      ],
      "name": "tokenURI",
      "outputs": [
        {
          "internalType": "string",
          "name": "",
          "type": "string"
        }
      ],
      "stateMutability": "view",
      "type": "function"
    },
    {
      "inputs": [
        {
          "internalType": "address",
          "name": "from",
          "type": "address"
        },
        {
          "internalType": "address",
          "name": "to",
          "type": "address"
        },
        {
          "internalType": "uint256",
          "name": "tokenId",
          "type": "uint256"
        }
      ],
      "name": "transferFrom",
      "outputs": [],
      "stateMutability": "nonpayable",
      "type": "function"
    },
    {
      "inputs": [
        {
          "internalType": "address",
          "name": "from",
          "type": "address"
        },
        {
          "internalType": "address",
          "name": "to",
          "type": "address"
        },
        {
          "internalType": "uint256",
          "name": "tokenId",
          "type": "uint256"
        },
        {
          "internalType": "string",
          "name": "newLocation",
          "type": "string"
        }
      ],
      "name": "transferWithLocation",
      "outputs": [],
      "stateMutability": "nonpayable",
      "type": "function"
    },
    {
      "inputs": [
        {
          "internalType": "uint256",
          "name": "tokenId",
          "type": "uint256"
        },
        {
          "internalType": "bool",
          "name": "isActive",
          "type": "bool"
        },
        {
          "internalType": "string",
          "name": "reason",
          "type": "string"
        }
      ],
      "name": "updateProductStatus",
      "outputs": [],
      "stateMutability": "nonpayable",
      "type": "function"
    },
    {
      "inputs": [
        {
          "internalType": "uint256",
          "name": "tokenId",
          "type": "uint256"
        },
        {
          "internalType": "uint256",
          "name": "newValue",
          "type": "uint256"
        },
        {
          "internalType": "string",
          "name": "reason",
          "type": "string"
        }
      ],
      "name": "updateProductValue",
      "outputs": [],
      "stateMutability": "nonpayable",
      "type": "function"
    }
  ],
  "bytecode": "0x608034620004e35760406001600160401b0382820181811184821017620004cd578252601983526020907f50726f547261636b20537570706c7920436861696e204e4654000000000000008285015282519383850185811083821117620004cd5784526005855264141513919560da1b83860152805191808311620004cd576000928354906001938483811c93168015620004c2575b87841014620004ae578190601f938481116200045b575b508790848311600114620003f7578792620003eb575b5050600019600383901b1c191690841b1784555b8651918211620003d75782548381811c91168015620003cc575b86821014620003b85781811162000370575b50849082116001146200030d57839495968293949262000301575b5050600019600383901b1c191690821b1781555b80600855818052600792838152848320338452815260ff858420541615620002ca575b7f9f2df0fed2c77648de5860a4cc508cd0818c85b8b8a1ab4ceeef8d981c8956a6808452848252858420338552825260ff86852054161562000291575b507f9fdd832c63a06cff8edefff7231d8026fd177377608db1841f7c881716ea19bc808452848252858420338552825260ff86852054161562000258575b507f273dcf2136c7d8ef632bb8ef13dbca69a8f36fa620c7468671b3153d46a211c093848452808252858420338552825260ff8685205416156200021d575b8551614bfb9081620004e98239f35b848452815284832090338452528382209060ff198254161790553391600080516020620050e4833981519152339280a438808080806200020e565b80845284825285842033855282528584208360ff1982541617905533903390600080516020620050e48339815191528680a438620001cf565b80845284825285842033855282528584208360ff1982541617905533903390600080516020620050e48339815191528680a43862000191565b82805283815284832033845281528483208260ff19825416179055333384600080516020620050e48339815191528180a462000154565b0151905038806200011d565b82845284842090601f198316855b8181106200035a5750978385969798991062000340575b505050811b01815562000131565b015160001960f88460031b161c1916905538808062000332565b898301518455928501929187019187016200031b565b8385528585208280850160051c820192888610620003ae575b0160051c019084905b828110620003a257505062000102565b86815501849062000392565b9250819262000389565b634e487b7160e01b85526022600452602485fd5b90607f1690620000f0565b634e487b7160e01b84526041600452602484fd5b015190503880620000c2565b8780528888208794509190601f198416895b8b8282106200044457505084116200042a575b505050811b018455620000d6565b015160001960f88460031b161c191690553880806200041c565b8385015186558a9790950194938401930162000409565b9091508680528787208480850160051c8201928a8610620004a4575b918891869594930160051c01915b82811062000495575050620000ac565b89815585945088910162000485565b9250819262000477565b634e487b7160e01b86526022600452602486fd5b92607f169262000095565b634e487b7160e01b600052604160045260246000fd5b600080fdfe608080604052600436101561001357600080fd5b60003560e01c90816301ffc9a7146135775750806306fdde03146134d4578063081812fc146134b6578063095ea7b31461333c57806323b872dd14613318578063248a9ca3146132e95780632f2ff15d1461323657806336568abe146131a45780633f6ca60914612ff257806342842e0e14612fbf5780634361e577146108925780634525f58b14612c3857806349df0acf14612bd45780635929985514612b6d5780635fe2b9ce14612b155780636102b37e14612ac15780636106bf0414612a275780636352211e146129f757806370a08231146129605780637382e17a146128ac57806377112948146127105780637acc0b201461261057806391d14854146125c35780639386995e1461236a57806395d89b411461228b5780639cc26b2814611a8e578063a217fddf14611a72578063a22cb4651461199a578063b5fcfa5614610ac0578063b88d4fde14610a3b578063c87b56dd146109c9578063d0870cc0146108ee578063d20ceca814610892578063d539139314610857578063d547741f14610818578063d6d0be9f14610624578063de0a5e991461044d578063e169feaa14610400578063e3a3c522146103c5578063e985e9c51461036f578063f24cb034146103345763fcb03e7a146101ed57600080fd5b3461032f5760a036600319011261032f576001600160401b0360043560243582811161032f576102219036906004016137e4565b9060443583811161032f5761023a9036906004016137e4565b9060643584811161032f576102539036906004016137e4565b9160843594851161032f5761026f6102ea9536906004016137e4565b60008381526002602052604090205490949061029a906001600160a01b031615156141f3565b6141f3565b3360009081527ff2f744b0889411cbe8dbc50d2124d0c856545010637b670bbdc176ba54e161df602052604090205460ff168015610315575b80156102ec575b6102e390614236565b3392614273565b005b5082600052600d6020526040600020336000526020526102e360ff6040600020541690506102da565b50336001600160a01b0361032885613bfb565b16146102d3565b600080fd5b3461032f57600036600319011261032f5760206040517f9fdd832c63a06cff8edefff7231d8026fd177377608db1841f7c881716ea19bc8152f35b3461032f57604036600319011261032f5761038861365e565b610390613674565b9060018060a01b03809116600052600560205260406000209116600052602052602060ff604060002054166040519015158152f35b3461032f57600036600319011261032f5760206040517f273dcf2136c7d8ef632bb8ef13dbca69a8f36fa620c7468671b3153d46a211c08152f35b3461032f57604036600319011261032f57610419613674565b600435600052600d60205260406000209060018060a01b0316600052602052602060ff604060002054166040519015158152f35b3461032f5760208060031936011261032f57600435600081815260026020526040902054610485906001600160a01b031615156141f3565b600052600b815260406000209081549161049e8361392c565b926104ac6040519485613771565b8084528284018092600052836000206000915b8383106105985750505050604051918083019381845251809452604083019360408160051b85010192916000955b8287106104fa5785850386f35b909192938280600192603f1989820301855287519061057c61056961053b61052b855160e0865260e0860190613639565b8686015185820388870152613639565b878060a01b036040860151166040850152606080860151908501526080808601519085830390860152613639565b60a0808501519084830390850152613639565b9160c080910151151591015296019201960195929190926104ed565b6007866001926040999899516105ad81613705565b6105b686613886565b81526105c3858701613886565b83820152848060a01b036002870154166040820152600386015460608201526105ee60048701613886565b60808201526105ff60058701613886565b60a082015260ff600687015416151560c08201528152019201920191909594956104bf565b3461032f57602036600319011261032f576004356060610120604051610649816136e9565b828152826020820152600060408201526000838201528260808201528260a0820152600060c0820152600060e0820152600061010082015201526106a561029582600052600260205260018060a01b0360406000205416151590565b600052600a602052610814604060002061074c6009604051926106c7846136e9565b6106d081613886565b84526106de60018201613886565b602085015260028101546001600160a01b031660408501526003810154606085015261070c60048201613886565b608085015261071d60058201613886565b60a0850152600681015460c085015260ff600782015416151560e0850152600881015461010085015201613886565b610120820152604051918291602083526101206107de6107c8610796610780855161014060208a0152610160890190613639565b6020860151888203601f190160408a0152613639565b60018060a01b036040860151166060880152606085015160808801526080850151601f198883030160a0890152613639565b60a0840151868203601f190160c0880152613639565b9160c081015160e086015260e08101511515610100860152610100810151828601520151601f1984830301610140850152613639565b0390f35b3461032f57604036600319011261032f576102ea600435610837613674565b90806000526007602052610852600160406000200154613985565b613b39565b3461032f57600036600319011261032f5760206040517f9f2df0fed2c77648de5860a4cc508cd0818c85b8b8a1ab4ceeef8d981c8956a68152f35b3461032f57602036600319011261032f576004356001600160401b03811161032f576108db60206108c8819336906004016137e4565b8160405193828580945193849201613616565b8101600e81520301902054604051908152f35b3461032f576108fc3661381a565b90600052600b6020526040600020805482101561032f576109899161092091613943565b5061092a81613886565b906109bd61093a60018301613886565b916109af60018060a01b03600283015416600383015461095c60048501613886565b9061099760ff600661097060058901613886565b97015416976040519a8b9a60e08c5260e08c0190613639565b908a820360208c0152613639565b92604089015260608801528682036080880152613639565b9084820360a0860152613639565b90151560c08301520390f35b3461032f57602036600319011261032f57600435600081815260026020526040902054610a00906001600160a01b03161515613baf565b6000526006602052610814610a186040600020613886565b6000604051610a268161373b565b52604051918291602083526020830190613639565b3461032f57608036600319011261032f57610a5461365e565b610a5c613674565b90606435906044356001600160401b03831161032f573660238401121561032f576102ea93610a98610abb9436906024816004013591016137ad565b92610aab610aa68433613d31565b613c5c565b610ab6838383613df9565b61402a565b613d11565b3461032f5760031960603682011261032f57610ada61365e565b6024356001600160401b03811161032f57610af99036906004016137e4565b916001600160401b036044351161032f57610140906044353603011261032f5760405190610b26826136e9565b604435600401356001600160401b03811161032f57610b4d906004369160443501016137e4565b8252602460443501356001600160401b03811161032f57610b76906004369160443501016137e4565b60208301526044803501356001600160a01b038116810361032f57604083015260443560648101356060840152608401356001600160401b03811161032f57610bc7906004369160443501016137e4565b608083015260a460443501356001600160401b03811161032f57610bf3906004369160443501016137e4565b60a083015260443560c481013560c084015260e40135801515810361032f5760e083015261010460443501356101008301526001600160401b0361012460443501351161032f57610c5036604435610124810135016004016137e4565b6101208301523360009081527fa4bfd7afe708e2e87e7f0e2ad9b4d545417e0f795f57b5c5ab5d799c565a04f460205260409020547f9f2df0fed2c77648de5860a4cc508cd0818c85b8b8a1ab4ceeef8d981c8956a69060ff16156117ef57506002600854146117aa5760026008556080820151511561177157610cd7608083015161395f565b5461172c57600954906001820160095560405190610cf48261373b565b600082526001600160a01b038116156116e857610dc39183610abb92610d38610d3283600052600260205260018060a01b0360406000205416151590565b156141a7565b600082815260026020526040902054610d5b906001600160a01b03161515610d32565b6001600160a01b0381166000818152600360209081526040808320805460010190558583526002909152812080546001600160a01b031916831790558391907fddf252ad1be2c89b69c2b068fc378daa952ba7f163c4a11628f55a4df523b3ef8180a4613f0a565b6000818152600260205260409020546001600160a01b03161561168c57806000526006602052604060002083516001600160401b03811161125457610e08825461384c565b601f811161165a575b506020601f82116001146115f15781929394956000926115e6575b50508160011b916000199060031b1c19161790555b7ff8e1a15aba9398e019f0b49df1a4fde98ee17ae345cb5f6b5e2c27f5033e8ce76020604051838152a18151602083015160018060a01b03604085015116608085015160a086015160c087015191610100880151936101208901519560405197610eaa896136e9565b885260208801526040870152426060870152608086015260a085015260c0840152600160e084015261010083015261012082015281600052600a60205260406000209080518051906001600160401b038211611254578190610f0c855461384c565b601f81116115b4575b50602090601f83116001146115485760009261153d575b50508160011b916000199060031b1c19161782555b60208101518051906001600160401b038211611254578190610f66600186015461384c565b601f8111611508575b50602090601f83116001146114965760009261148b575b50508160011b916000199060031b1c19161760018301555b6002820160018060a01b036040830151166001600160601b0360a01b8254161790556060810151600383015560808101518051906001600160401b038211611254578190610fef600486015461384c565b601f8111611456575b50602090601f83116001146113e4576000926113d9575b50508160011b916000199060031b1c19161760048301555b60a08101518051906001600160401b0382116112545761104a600585015461384c565b601f81116113a4575b50602090601f83116001146113305761012093929160009183611325575b50508160011b916000199060031b1c19161760058401555b60c081015160068401556110b260e08201511515600785019060ff801983541691151516179055565b610100810151600884015501518051906001600160401b038211611254576110dd600984015461384c565b601f81116112e5575b50602090601f831160011461127557600992916000918361126a575b50508160011b916000199060031b1c1916179101555b80611126608084015161395f565b556040828101516001600160a01b03166000908152600f6020522080549290600160401b8410156112545783611163916001602096018155613802565b81549060031b9084821b91600019901b19161790556111f960018060a01b036040830151166101208301516040519161119b83613720565b600683526513525395115160d21b878401526040516111b981613720565b601e81527f50726f64756374204e4654206372656174656420616e64206d696e746564000088820152604051936111ef8561373b565b6000855287614273565b817f313503c05af4680b62d07804ee8eb4cd9ec579d202b541b0be660dd03e3bd46f611244608084015193604060018060a01b03910151169360405191829188835288830190613639565b0390a36001600855604051908152f35b634e487b7160e01b600052604160045260246000fd5b015190508680611102565b906009840160005260206000209160005b601f19851681106112cd5750918391600193600995601f198116106112b4575b505050811b01910155611118565b015160001960f88460031b161c191690558680806112a6565b91926020600181928685015181550194019201611286565b61131590600985016000526020600020601f850160051c8101916020861061131b575b601f0160051c0190614190565b856110e6565b9091508190611308565b015190508780611071565b906005850160005260206000209160005b601f198516811061138c57509183916001936101209695601f19811610611373575b505050811b016005840155611089565b015160001960f88460031b161c19169055878080611363565b91926020600181928685015181550194019201611341565b6113d390600586016000526020600020601f850160051c8101916020861061131b57601f0160051c0190614190565b86611053565b01519050868061100f565b9250600485016000526020600020906000935b601f198416851061143b576001945083601f19811610611422575b505050811b016004830155611027565b015160001960f88460031b161c19169055868080611412565b818101518355602094850194600190930192909101906113f7565b61148590600487016000526020600020601f850160051c8101916020861061131b57601f0160051c0190614190565b87610ff8565b015190508680610f86565b9250600185016000526020600020906000935b601f19841685106114ed576001945083601f198116106114d4575b505050811b016001830155610f9e565b015160001960f88460031b161c191690558680806114c4565b818101518355602094850194600190930192909101906114a9565b61153790600187016000526020600020601f850160051c8101916020861061131b57601f0160051c0190614190565b87610f6f565b015190508680610f2c565b9250846000526020600020906000935b601f1984168510611599576001945083601f19811610611580575b505050811b018255610f41565b015160001960f88460031b161c19169055868080611573565b81810151835560209485019460019093019290910190611558565b6115e090866000526020600020601f850160051c8101916020861061131b57601f0160051c0190614190565b87610f15565b015190508580610e2c565b8260005260206000209060005b601f1984168110611642575060019394959683601f19811610611629575b505050811b019055610e41565b015160001960f88460031b161c1916905585808061161c565b9091602060018192858b0151815501930191016115fe565b61168690836000526020600020601f840160051c8101916020851061131b57601f0160051c0190614190565b85610e11565b60405162461bcd60e51b815260206004820152602e60248201527f45524337323155524953746f726167653a2055524920736574206f66206e6f6e60448201526d32bc34b9ba32b73a103a37b5b2b760911b6064820152608490fd5b606460405162461bcd60e51b815260206004820152602060248201527f4552433732313a206d696e7420746f20746865207a65726f20616464726573736044820152fd5b60405162461bcd60e51b815260206004820152601760248201527f426174636820494420616c7265616479206578697374730000000000000000006044820152606490fd5b60405162461bcd60e51b815260206004820152601160248201527010985d18da081251081c995c5d5a5c9959607a1b6044820152606490fd5b60405162461bcd60e51b815260206004820152601f60248201527f5265656e7472616e637947756172643a207265656e7472616e742063616c6c006044820152606490fd5b6117f8336140c6565b6040519161180583613756565b60428352602083019060603683378351156119845760308253835160019081101561198457607860218601536041905b80821161192a5750506118e65760486118b3926118c2926118e29560405195869376020b1b1b2b9b9a1b7b73a3937b61d1030b1b1b7bab73a1604d1b602086015261188a815180926020603789019101613616565b8401917001034b99036b4b9b9b4b733903937b6329607d1b603784015251809386840190613616565b01036028810184520182613771565b60405162461bcd60e51b8152602060048201529182916024830190613639565b0390fd5b606460405162461bcd60e51b815260206004820152602060248201527f537472696e67733a20686578206c656e67746820696e73756666696369656e746044820152fd5b9091600f81166010811015611984576f181899199a1a9b1b9c1cb0b131b232b360811b901a61195984886140b5565b5360041c91801561196e576000190190611835565b634e487b7160e01b600052601160045260246000fd5b634e487b7160e01b600052603260045260246000fd5b3461032f57604036600319011261032f576119b361365e565b6119bb6136bf565b6001600160a01b0390911690338214611a2d573360005260056020526040600020826000526020526119fd8160406000209060ff801983541691151516179055565b60405190151581527f17307eab39ab6107e8899845ad3d59bd9653f200f220920489ca2b5937696c3160203392a3005b60405162461bcd60e51b815260206004820152601960248201527f4552433732313a20617070726f766520746f2063616c6c6572000000000000006044820152606490fd5b3461032f57600036600319011261032f57602060405160008152f35b3461032f5760a036600319011261032f576024356001600160401b03811161032f57611abe9036906004016137e4565b60443515156044350361032f576064356001600160401b03811161032f57611aea9036906004016137e4565b608435916001600160401b03831161032f573660238401121561032f578260040135611b158161392c565b93611b236040519586613771565b8185526024602086019260051b8201019036821161032f5760248101925b82841061225c5750503360009081527f4737975f69b9423f1935dbed18763129f1f2f9739723c3436b1571873c7b5c3360205260409020547f273dcf2136c7d8ef632bb8ef13dbca69a8f36fa620c7468671b3153d46a211c0925060ff1615905061217d5750600435600090815260026020526040902054611bcd906001600160a01b031615156141f3565b600435600052600c60205260406000209260405190611beb826136ce565b338252602082019442865260408301918483526044351515606085015285608085015260a08401528054600160401b81101561125457611c3091600182018155613830565b95909561216757825186546001600160a01b0319166001600160a01b0391909116178655516001860155518051906001600160401b038211611254578190611c7b600288015461384c565b601f8111612132575b50602090601f83116001146120c0576000926120b5575b50508160011b916000199060031b1c19161760028501555b611cd260608201511515600386019060ff801983541691151516179055565b60808101518051906001600160401b03821161125457611cf5600487015461384c565b601f8111612080575b50602090601f831160011461200d5760a093929160009183612002575b50508160011b916000199060031b1c19161760048601555b0151805190600160401b8211611254576005850154826005870155808310611f8a575b5060206005910194016000526020600020936000905b828210611e7557611e13858560443515611e4957604051611d8c81613720565b600e81526d1455505312551657d41054d4d15160921b60208201525b611ded602f60405180946e028bab0b634ba3c9031b432b1b59d1608d1b6020830152611ddd8151809260208686019101613616565b810103600f810185520183613771565b600435600052600a602052611e086009604060002001613886565b913391600435614273565b6040516044351515815233907f92a9e28fd92becb9005bffdf4ebd37e8312b3eabfc1b846608acf93751034c73602060043592a3005b604051611e5581613720565b600e81526d1455505312551657d1905253115160921b6020820152611da8565b80518051906001600160401b03821161125457611e92885461384c565b601f8111611f58575b50602090601f8311600114611ee8579282600194936020938695600092611edd575b5050600019600383901b1c191690841b1789555b01960191019094611d6c565b015190508b80611ebd565b908860005260206000209160005b601f1985168110611f40575083602093600196938796938794601f19811610611f27575b505050811b018955611ed1565b015160001960f88460031b161c191690558b8080611f1a565b91926020600181928685015181550194019201611ef6565b611f8490896000526020600020601f850160051c8101916020861061131b57601f0160051c0190614190565b88611e9b565b600586016000526020600020908382015b8183018110611fab575050611d56565b80611fb86001925461384c565b80611fc5575b5001611f9b565b601f81118314611fdb5750600081555b89611fbe565b600090828252611ff9601f60208420920160051c8201858301614190565b81835555611fd5565b015190508780611d1b565b906004870160005260206000209160005b601f1985168110612068575091839160019360a09695601f1981161061204f575b505050811b016004860155611d33565b015160001960f88460031b161c1916905587808061203f565b9192602060018192868501518155019401920161201e565b6120af90600488016000526020600020601f850160051c8101916020861061131b57601f0160051c0190614190565b86611cfe565b015190508680611c9b565b9250600287016000526020600020906000935b601f1984168510612117576001945083601f198116106120fe575b505050811b016002850155611cb3565b015160001960f88460031b161c191690558680806120ee565b818101518355602094850194600190930192909101906120d3565b61216190600289016000526020600020601f850160051c8101916020861061131b57601f0160051c0190614190565b87611c84565b634e487b7160e01b600052600060045260246000fd5b612186336140c6565b6040519161219383613756565b60428352602083019060603683378351156119845760308253835160019081101561198457607860218601536041905b8082116122185750506118e65760486118b3926118c2926118e29560405195869376020b1b1b2b9b9a1b7b73a3937b61d1030b1b1b7bab73a1604d1b602086015261188a815180926020603789019101613616565b9091600f81166010811015611984576f181899199a1a9b1b9c1cb0b131b232b360811b901a61224784886140b5565b5360041c91801561196e5760001901906121c3565b83356001600160401b03811161032f576020916122808392602436918701016137e4565b815201930192611b41565b3461032f57600036600319011261032f57604051600060018054906122af8261384c565b8085529181811690811561234357506001146122ea575b610814846122d681860382613771565b604051918291602083526020830190613639565b600081815292507fb10e2d527612073b26eecdfd717e6a320cf44b4afac2b0732d9fcbe2b7fa0cf65b82841061232b5750505081016020016122d6826122c6565b80546020858701810191909152909301928101612313565b60ff191660208087019190915292151560051b850190920192506122d691508390506122c6565b3461032f5760208060031936011261032f576004356000818152600260205260409020546123a2906001600160a01b031615156141f3565b600052600c8152604060002080546123b98161392c565b906123c76040519283613771565b808252838201908193600052846000206000925b8284106124f457868587604051928392818401908285525180915260408401916005604083821b87010194936000915b8483106124185787870388f35b91939583959750603f9391931989820301845287519060018060a01b038251168152828201518382015261247c61245d604084015160c0806040860152840190613639565b6060808501511515908401526080808501519084830390850152613639565b9060a08093015192818303910152815180825283820190848082881b85010194019260005b8281106124c6575050505050908060019298019301930190928796959394929461240b565b919395806124e26001939597601f198782030189528951613639565b970195019101918995949391926124a1565b86604051612501816136ce565b83546001600160a01b031681526001848101548383015261252460028601613886565b604083015260ff6003860154161515606083015261254460048601613886565b6080830152600585019081546125598161392c565b926125676040519485613771565b8184526000908152858120908685015b83821061259e575050505050928160019460a06006959401528152019201930192906123db565b93809596978394956125b1839495613886565b815201930191018d9695949392612577565b3461032f57604036600319011261032f576125dc613674565b600435600052600760205260406000209060018060a01b0316600052602052602060ff604060002054166040519015158152f35b3461032f57602036600319011261032f57600435600052600a60205260406000206126bb61081461264083613886565b9261264d60018201613886565b9360018060a01b036002830154169160038101546126ef61267060048401613886565b946126e161268060058601613886565b9160068601549760ff600788015416956126c96126a4600960088b01549a01613886565b996040519e8f9e8f92610140808552840190613639565b916020818403910152613639565b9260408d015260608c01528a820360808c0152613639565b9088820360a08a0152613639565b9360c0870152151560e0860152610100850152838203610120850152613639565b3461032f57606036600319011261032f576004356044356024356001600160401b03821161032f576127677febf452660f049e65024c3b26695b1d5970055532585cdf529c44920574679fdf9236906004016137e4565b60008481526002602052604090205490919061278d906001600160a01b031615156141f3565b3360009081527ff2f744b0889411cbe8dbc50d2124d0c856545010637b670bbdc176ba54e161df602090815260409091205490926128889160ff16801561288d575b6127d890614236565b85600052600a845261287260406000208460088201556127f785614aeb565b90612837602b60405180946a02732bb903b30b63ab29d160ad1b8b830152612827815180928d8686019101613616565b810103600b810185520183613771565b61286860096040519261284984613720565b600d84526c159053155157d5541110551151609a1b8a85015201613886565b908433918b614273565b6040805194859485528401526040830190613639565b0390a2005b506127d8336001600160a01b036128a389613bfb565b161490506127cf565b3461032f5760208060031936011261032f576001600160a01b036128ce61365e565b16600052600f8152604060002060405190818382549182815201908192600052846000209060005b8682821061294c57868661290c82880383613771565b604051928392818401908285525180915260408401929160005b82811061293557505050500390f35b835185528695509381019392810192600101612926565b8354855290930192600192830192016128f6565b3461032f57602036600319011261032f576001600160a01b0361298161365e565b1680156129a05760005260036020526020604060002054604051908152f35b60405162461bcd60e51b815260206004820152602960248201527f4552433732313a2061646472657373207a65726f206973206e6f7420612076616044820152683634b21037bbb732b960b91b6064820152608490fd5b3461032f57602036600319011261032f576020612a15600435613bfb565b6040516001600160a01b039091168152f35b3461032f57612a353661381a565b90600052600c602052604060002090815481101561032f57612a5691613830565b5060018060a01b03815416610814600183015492612a7660028201613886565b612aac612a8d600460ff6003860154169401613886565b916040519687968752602087015260a0604087015260a0860190613639565b91151560608501528382036080850152613639565b3461032f57602036600319011261032f57600435600081815260026020526040902054612af8906001600160a01b031615156141f3565b600052600a60205260206006604060002001544211604051908152f35b3461032f57604036600319011261032f57612b2e61365e565b6001600160a01b03166000908152600f602052604090208054602435919082101561032f57602091612b5f91613802565b90546040519160031b1c8152f35b3461032f57604036600319011261032f57600435612b89613674565b90612b9381613bfb565b6001600160a01b039190612baa908316331461494a565b600052600d602052604060002091166000526020526040600020600160ff19825416179055600080f35b3461032f57604036600319011261032f57600435612bf0613674565b90612bfa81613bfb565b6001600160a01b039190612c11908316331461494a565b600052600d60205260406000209116600052602052604060002060ff198154169055600080f35b3461032f57608036600319011261032f57612c5161365e565b612c59613674565b90604435606435926001600160401b039283851161032f57612c82612ca39536906004016137e4565b90612c8c84613bfb565b6001600160a01b039682881696918816871461494a565b8533148015612fac575b8015612f88575b15612f5457612cc4858584613df9565b8251612de5575b5091612de0612d5d9692612dcd612d027f7b9954163fa07d871126e4bf9e86dd39a340304d4ffa6a8f7b5eae106152ee0396614995565b612d6c602b612d1087614995565b9260405193849160209e8f91650233937b69d160d51b83860152612d3d8151809285602689019101613616565b840191640102a379d160dd1b602684015283519384918785019101613616565b0103600b810184520182613771565b82604051612d7981613720565b600b81526a1514905394d1915494915160aa1b8c820152604051612d9c81613720565b601d81527f50726f64756374206f776e657273686970207472616e736665727265640000008d82015233918b614273565b6040519384938985521697830190613639565b0390a4005b84600052602090600a8252600960406000200191845191821161125457612e0c835461384c565b601f8111612f24575b5080601f8311600114612e8c5750612d027f7b9954163fa07d871126e4bf9e86dd39a340304d4ffa6a8f7b5eae106152ee039694612de09484612d5d9c9895612dcd95600091612e81575b508160011b916000199060031b1c19161790555b9496505050929650612ccb565b90508601518e612e60565b90601f1983168460005282600020926000905b828210612f0c57505094612de094600185612dcd95612d0295612d5d9f9b987f7b9954163fa07d871126e4bf9e86dd39a340304d4ffa6a8f7b5eae106152ee039d9b10612ef3575b5050811b019055612e74565b88015160001960f88460031b161c191690558e80612ee7565b80600185968294968c01518155019501930190612e9f565b612f4e908460005282600020601f850160051c81019184861061131b57601f0160051c0190614190565b89612e15565b60405162461bcd60e51b815260206004820152600c60248201526b139bdd08185c1c1c9bdd995960a21b6044820152606490fd5b5085600052600560205260406000203360005260205260ff60406000205416612cb4565b503387612fb887613c1e565b1614612cad565b3461032f576102ea610abb612fd33661368a565b9060405192612fe18461373b565b60008452610aab610aa68433613d31565b3461032f57606036600319011261032f5760043561300e6136bf565b604435906001600160401b03821161032f5761304f7ff13cf7abeb93d9e0aa5d620d2217e4e01b37d8ab503476f83f62fcd70d0976479236906004016137e4565b600084815260026020526040902054909190613075906001600160a01b031615156141f3565b3360009081527ff2f744b0889411cbe8dbc50d2124d0c856545010637b670bbdc176ba54e161df602090815260409091205490926128889160ff168015613185575b6130c090614236565b85600052600a84526130e58360076040600020019060ff801983541691151516179055565b821561315a576131426040516130fa81613720565b60098152681050d512559055115160ba1b868201525b87600052600a86526131286009604060002001613886565b604051916131358361373b565b600083528433918b614273565b60408051948594151585528401526040830190613639565b61314260405161316981613720565b600b81526a11115050d512559055115160aa1b86820152613110565b506130c0336001600160a01b0361319b89613bfb565b161490506130b7565b3461032f57604036600319011261032f576131bd613674565b336001600160a01b038216036131d9576102ea90600435613b39565b60405162461bcd60e51b815260206004820152602f60248201527f416363657373436f6e74726f6c3a2063616e206f6e6c792072656e6f756e636560448201526e103937b632b9903337b91039b2b63360891b6064820152608490fd5b3461032f57604036600319011261032f57600435613252613674565b81600052600760205261326c600160406000200154613985565b81600052600760205260406000209060018060a01b0316908160005260205260ff604060002054161561329b57005b8160005260076020526040600020816000526020526040600020600160ff1982541617905533917f2f8788117e7eff1d82e926ec794901d17c78024a50270940304540a733656f0d600080a4005b3461032f57602036600319011261032f5760043560005260076020526020600160406000200154604051908152f35b3461032f576102ea6133293661368a565b91613337610aa68433613d31565b613df9565b3461032f57604036600319011261032f5761335561365e565b602435906001600160a01b03808061336c85613bfb565b1692169180831461346757803314908115613442575b50156133d757600083815260046020526040902080546001600160a01b031916831790556133af83613bfb565b167f8c5be1e5ebec7d5bd14f71427d1e84f3dd0314c0f7b2291e5b200ac8c7c3b925600080a4005b60405162461bcd60e51b815260206004820152603d60248201527f4552433732313a20617070726f76652063616c6c6572206973206e6f7420746f60448201527f6b656e206f776e6572206f7220617070726f76656420666f7220616c6c0000006064820152608490fd5b9050600052600560205260406000203360005260205260ff6040600020541684613382565b60405162461bcd60e51b815260206004820152602160248201527f4552433732313a20617070726f76616c20746f2063757272656e74206f776e656044820152603960f91b6064820152608490fd5b3461032f57602036600319011261032f576020612a15600435613c1e565b3461032f57600036600319011261032f57604051600080546134f58161384c565b80845290600190818116908115612343575060011461351e57610814846122d681860382613771565b600080805292507f290decd9548b62a8d60345a988386fc84ba6bc95484008f6362f93160ef3e5635b82841061355f5750505081016020016122d6826122c6565b80546020858701810191909152909301928101613547565b3461032f57602036600319011261032f576004359063ffffffff60e01b821680920361032f57602091637965db0b60e01b81149081156135b9575b5015158152f35b632483248360e11b8114915081156135d3575b50836135b2565b6380ac58cd60e01b811491508115613605575b81156135f4575b50836135cc565b6301ffc9a760e01b149050836135ed565b635b5e139f60e01b811491506135e6565b60005b8381106136295750506000910152565b8181015183820152602001613619565b9060209161365281518092818552858086019101613616565b601f01601f1916010190565b600435906001600160a01b038216820361032f57565b602435906001600160a01b038216820361032f57565b606090600319011261032f576001600160a01b0390600435828116810361032f5791602435908116810361032f579060443590565b60243590811515820361032f57565b60c081019081106001600160401b0382111761125457604052565b61014081019081106001600160401b0382111761125457604052565b60e081019081106001600160401b0382111761125457604052565b604081019081106001600160401b0382111761125457604052565b602081019081106001600160401b0382111761125457604052565b608081019081106001600160401b0382111761125457604052565b90601f801991011681019081106001600160401b0382111761125457604052565b6001600160401b03811161125457601f01601f191660200190565b9291926137b982613792565b916137c76040519384613771565b82948184528183011161032f578281602093846000960137010152565b9080601f8301121561032f578160206137ff933591016137ad565b90565b80548210156119845760005260206000200190600090565b604090600319011261032f576004359060243590565b8054821015611984576000526006602060002091020190600090565b90600182811c9216801561387c575b602083101461386657565b634e487b7160e01b600052602260045260246000fd5b91607f169161385b565b906040519182600082549261389a8461384c565b90818452600194858116908160001461390957506001146138c6575b50506138c492500383613771565b565b9093915060005260209081600020936000915b8183106138f15750506138c4935082010138806138b6565b855488840185015294850194879450918301916138d9565b9150506138c494506020925060ff191682840152151560051b82010138806138b6565b6001600160401b0381116112545760051b60200190565b8054821015611984576000526007602060002091020190600090565b6020613978918160405193828580945193849201613616565b8101600e81520301902090565b60009080825260209060078252604092838120338252835260ff8482205416156139af5750505050565b6139b8336140c6565b918451906139c582613756565b60428252848201926060368537825115613b255760308453825190600191821015613b255790607860218501536041915b818311613ab757505050613a755760486118e2938693613a5993613a4a985198899376020b1b1b2b9b9a1b7b73a3937b61d1030b1b1b7bab73a1604d1b8a86015261188a815180928c603789019101613616565b01036028810187520185613771565b5192839262461bcd60e51b845260048401526024830190613639565b60648486519062461bcd60e51b825280600483015260248201527f537472696e67733a20686578206c656e67746820696e73756666696369656e746044820152fd5b909192600f81166010811015613b11576f181899199a1a9b1b9c1cb0b131b232b360811b901a613ae785876140b5565b5360041c928015613afd576000190191906139f6565b634e487b7160e01b82526011600452602482fd5b634e487b7160e01b83526032600452602483fd5b634e487b7160e01b81526032600452602490fd5b906000918083526007602052604083209160018060a01b03169182845260205260ff604084205416613b6a57505050565b8083526007602052604083208284526020526040832060ff1981541690557ff6391f5c32d9c69d2a47ea670b442974b53935d1edc7fd64eb21e047a839171b339380a4565b15613bb657565b60405162461bcd60e51b815260206004820152601860248201527f4552433732313a20696e76616c696420746f6b656e20494400000000000000006044820152606490fd5b6000908152600260205260409020546001600160a01b03166137ff811515613baf565b600081815260026020526040902054613c41906001600160a01b03161515613baf565b6000908152600460205260409020546001600160a01b031690565b15613c6357565b60405162461bcd60e51b815260206004820152602d60248201527f4552433732313a2063616c6c6572206973206e6f7420746f6b656e206f776e6560448201526c1c881bdc88185c1c1c9bdd9959609a1b6064820152608490fd5b60809060208152603260208201527f4552433732313a207472616e7366657220746f206e6f6e20455243373231526560408201527131b2b4bb32b91034b6b83632b6b2b73a32b960711b60608201520190565b15613d1857565b60405162461bcd60e51b8152806118e260048201613cbe565b906001600160a01b038080613d4584613bfb565b16931691838314938415613d78575b508315613d62575b50505090565b613d6e91929350613c1e565b1614388080613d5c565b909350600052600560205260406000208260005260205260ff604060002054169238613d54565b15613da657565b60405162461bcd60e51b815260206004820152602560248201527f4552433732313a207472616e736665722066726f6d20696e636f72726563742060448201526437bbb732b960d91b6064820152608490fd5b90613e2191613e0784613bfb565b6001600160a01b0393918416928492909183168414613d9f565b16918215613eb95781613e3e91613e3786613bfb565b1614613d9f565b7fddf252ad1be2c89b69c2b068fc378daa952ba7f163c4a11628f55a4df523b3ef60008481526004602052604081206001600160601b0360a01b9081815416905583825260036020526040822060001981540190558482526040822060018154019055858252600260205284604083209182541617905580a4565b60405162461bcd60e51b8152602060048201526024808201527f4552433732313a207472616e7366657220746f20746865207a65726f206164646044820152637265737360e01b6064820152608490fd5b9192600092909190803b1561402057613f58946040518092630a85bd0160e11b9485835233600484015287602484015260448301526080606483015281878160209a8b966084830190613639565b03926001600160a01b03165af1849181613fdc575b50613fcb575050503d600014613fc3573d613f8781613792565b90613f956040519283613771565b81528091833d92013e5b80519182613fc05760405162461bcd60e51b8152806118e260048201613cbe565b01fd5b506060613f9f565b6001600160e01b0319161492509050565b9091508581813d8311614019575b613ff48183613771565b8101031261401557516001600160e01b031981168103614015579038613f6d565b8480fd5b503d613fea565b5050915050600190565b9293600093909291803b156140aa579484916140849660405180948193630a85bd0160e11b9788845233600485015260018060a01b0380921660248501526044840152608060648401528260209b8c976084830190613639565b0393165af1849181613fdc5750613fcb575050503d600014613fc3573d613f8781613792565b505050915050600190565b908151811015611984570160200190565b60405190606082018281106001600160401b0382111761125457604052602a82526020820160403682378251156119845760309053815160019081101561198457607860218401536029905b8082116141225750506118e65790565b9091600f8116601081101561417b576f181899199a1a9b1b9c1cb0b131b232b360811b901a61415184866140b5565b5360041c918015614166576000190190614112565b60246000634e487b7160e01b81526011600452fd5b60246000634e487b7160e01b81526032600452fd5b81811061419b575050565b60008155600101614190565b156141ae57565b60405162461bcd60e51b815260206004820152601c60248201527f4552433732313a20746f6b656e20616c7265616479206d696e746564000000006044820152606490fd5b156141fa57565b60405162461bcd60e51b8152602060048201526014602482015273151bdad95b88191bd95cc81b9bdd08195e1a5cdd60621b6044820152606490fd5b1561423d57565b60405162461bcd60e51b815260206004820152600e60248201526d139bdd08185d5d1a1bdc9a5e995960921b6044820152606490fd5b939190929484600052600b6020526040600020907f273dcf2136c7d8ef632bb8ef13dbca69a8f36fa620c7468671b3153d46a211c0600052600760205260406000209660018060a01b0316968760005260205260ff6040600020541690604051936142dd85613705565b868552602085015287604085015242606085015284608085015260a0840152151560c08301528054600160401b8110156112545761432091600182018155613943565b9190916121675780518051906001600160401b038211611254578190614346855461384c565b601f8111614918575b50602090601f83116001146148ac576000926148a1575b50508160011b916000199060031b1c19161782555b60208101518051906001600160401b0382116112545781906143a0600186015461384c565b601f811161486c575b50602090601f83116001146147fa576000926147ef575b50508160011b916000199060031b1c19161760018301555b6002820160018060a01b036040830151166001600160601b0360a01b8254161790556060810151600383015560808101518051906001600160401b038211611254578190614429600486015461384c565b601f81116147ba575b50602090601f83116001146147485760009261473d575b50508160011b916000199060031b1c19161760048301555b60a08101518051906001600160401b03821161125457614484600585015461384c565b601f8111614708575b50602090601f831160011461468f57928260069360c0936144e09796600092614684575b50508160011b916000199060031b1c19161760058501555b0151151591019060ff801983541691151516179055565b8051614526575b506145217f4a35be616c371acca2f6099f692388ce19ed7cbc38c984fcdc84c0d625e3ea0191604051918291602083526020830190613639565b0390a3565b82600052600a6020526009604060002001908051906001600160401b03821161125457614553835461384c565b601f8111614652575b50602090601f83116001146145c457918061452194927f4a35be616c371acca2f6099f692388ce19ed7cbc38c984fcdc84c0d625e3ea0196946000926145b9575b50508160011b916000199060031b1c19161790555b91506144e7565b01519050388061459d565b90601f198316918460005260206000209260005b81811061463a57509260019285927f4a35be616c371acca2f6099f692388ce19ed7cbc38c984fcdc84c0d625e3ea019896614521989610614621575b505050811b0190556145b2565b015160001960f88460031b161c19169055388080614614565b929360206001819287860151815501950193016145d8565b61467e90846000526020600020601f850160051c8101916020861061131b57601f0160051c0190614190565b3861455c565b0151905038806144b1565b906005850160005260206000209160005b601f19851681106146f057508360c0936144e0979693600193600697601f198116106146d7575b505050811b0160058501556144c9565b015160001960f88460031b161c191690553880806146c7565b919260206001819286850151815501940192016146a0565b61473790600586016000526020600020601f850160051c8101916020861061131b57601f0160051c0190614190565b3861448d565b015190503880614449565b9250600485016000526020600020906000935b601f198416851061479f576001945083601f19811610614786575b505050811b016004830155614461565b015160001960f88460031b161c19169055388080614776565b8181015183556020948501946001909301929091019061475b565b6147e990600487016000526020600020601f850160051c8101916020861061131b57601f0160051c0190614190565b38614432565b0151905038806143c0565b9250600185016000526020600020906000935b601f1984168510614851576001945083601f19811610614838575b505050811b0160018301556143d8565b015160001960f88460031b161c19169055388080614828565b8181015183556020948501946001909301929091019061480d565b61489b90600187016000526020600020601f850160051c8101916020861061131b57601f0160051c0190614190565b386143a9565b015190503880614366565b9250846000526020600020906000935b601f19841685106148fd576001945083601f198116106148e4575b505050811b01825561437b565b015160001960f88460031b161c191690553880806148d7565b818101518355602094850194600190930192909101906148bc565b61494490866000526020600020601f850160051c8101916020861061131b57601f0160051c0190614190565b3861434f565b1561495157565b60405162461bcd60e51b815260206004820152600d60248201526c2737ba103a34329037bbb732b960991b6044820152606490fd5b600019811461196e5760010190565b604051906001600160a01b03166149ab82613720565b6010825260206f181899199a1a9b1b9c1cb0b131b232b360811b8184015260405192606084018481106001600160401b0382111761125457604052602a845281840160403682378451156119845760309053835192600193841015611984576078602186015360005b60148110614a2457505050505090565b600c810180821161196e57848110156119845782901a60046001600160f81b0319600f81614a5685851c8316896140b5565b511693858a1b94600290878704821488151715614ad657868201809211614ad657614a8b614a939493928e9260001a926140b5565b5316876140b5565b5116906003928301809311614ac1575090614ab6614abc939260001a91896140b5565b53614986565b614a14565b601190634e487b7160e01b6000525260246000fd5b601186634e487b7160e01b6000525260246000fd5b8015614ba75780816000925b614b93575080614b0683613792565b92614b146040519485613771565b808452601f19614b2382613792565b01366020860137915b614b3557505090565b600019820191821161196e5781600a918281049280840290848204148415171561196e57810390811161196e5760ff80911660300190811161196e5760f81b6001600160f81b03191660001a90614b8c90856140b5565b5380614b2c565b91614b9f600a91614986565b920480614af7565b50604051614bb481613720565b60018152600360fc1b60208201529056fea2646970667358221220053a556c59d9f24f04227024e4f9b3379ca712ab7fbd269bd1b5d55127fd6b8164736f6c634300081300332f8788117e7eff1d82e926ec794901d17c78024a50270940304540a733656f0d",
  "linkReferences": {},
  "deployedLinkReferences": {}
}