{"contracts/ProTrack.sol":{"ProTrack":{"abi":[{"inputs":[],"stateMutability":"nonpayable","type":"constructor"},{"inputs":[],"name":"AccessControlBadConfirmation","type":"error"},{"inputs":[{"internalType":"address","name":"account","type":"address"},{"internalType":"bytes32","name":"neededRole","type":"bytes32"}],"name":"AccessControlUnauthorizedAccount","type":"error"},{"inputs":[{"internalType":"address","name":"sender","type":"address"},{"internalType":"uint256","name":"tokenId","type":"uint256"},{"internalType":"address","name":"owner","type":"address"}],"name":"ERC721IncorrectOwner","type":"error"},{"inputs":[{"internalType":"address","name":"operator","type":"address"},{"internalType":"uint256","name":"tokenId","type":"uint256"}],"name":"ERC721InsufficientApproval","type":"error"},{"inputs":[{"internalType":"address","name":"approver","type":"address"}],"name":"ERC721InvalidApprover","type":"error"},{"inputs":[{"internalType":"address","name":"operator","type":"address"}],"name":"ERC721InvalidOperator","type":"error"},{"inputs":[{"internalType":"address","name":"owner","type":"address"}],"name":"ERC721InvalidOwner","type":"error"},{"inputs":[{"internalType":"address","name":"receiver","type":"address"}],"name":"ERC721InvalidReceiver","type":"error"},{"inputs":[{"internalType":"address","name":"sender","type":"address"}],"name":"ERC721InvalidSender","type":"error"},{"inputs":[{"internalType":"uint256","name":"tokenId","type":"uint256"}],"name":"ERC721NonexistentToken","type":"error"},{"inputs":[],"name":"ReentrancyGuardReentrantCall","type":"error"},{"anonymous":false,"inputs":[{"indexed":true,"internalType":"address","name":"owner","type":"address"},{"indexed":true,"internalType":"address","name":"approved","type":"address"},{"indexed":true,"internalType":"uint256","name":"tokenId","type":"uint256"}],"name":"Approval","type":"event"},{"anonymous":false,"inputs":[{"indexed":true,"internalType":"address","name":"owner","type":"address"},{"indexed":true,"internalType":"address","name":"operator","type":"address"},{"indexed":false,"internalType":"bool","name":"approved","type":"bool"}],"name":"ApprovalForAll","type":"event"},{"anonymous":false,"inputs":[{"indexed":false,"internalType":"uint256","name":"_fromTokenId","type":"uint256"},{"indexed":false,"internalType":"uint256","name":"_toTokenId","type":"uint256"}],"name":"BatchMetadataUpdate","type":"event"},{"anonymous":false,"inputs":[{"indexed":true,"internalType":"uint256","name":"tokenId","type":"uint256"},{"indexed":true,"internalType":"address","name":"from","type":"address"},{"indexed":true,"internalType":"address","name":"to","type":"address"},{"indexed":false,"internalType":"string","name":"location","type":"string"}],"name":"CustodyTransferred","type":"event"},{"anonymous":false,"inputs":[{"indexed":true,"internalType":"uint256","name":"tokenId","type":"uint256"},{"indexed":false,"internalType":"enum ProTrack.SensorType","name":"sensorType","type":"uint8"},{"indexed":false,"internalType":"int256","name":"value","type":"int256"},{"indexed":false,"internalType":"uint256","name":"timestamp","type":"uint256"}],"name":"IoTDataRecorded","type":"event"},{"anonymous":false,"inputs":[{"indexed":false,"internalType":"uint256","name":"_tokenId","type":"uint256"}],"name":"MetadataUpdate","type":"event"},{"anonymous":false,"inputs":[{"indexed":true,"internalType":"uint256","name":"tokenId","type":"uint256"},{"indexed":false,"internalType":"string","name":"rfidHash","type":"string"},{"indexed":false,"internalType":"string","name":"barcode","type":"string"},{"indexed":true,"internalType":"address","name":"manufacturer","type":"address"},{"indexed":false,"internalType":"string","name":"productName","type":"string"}],"name":"ProductMinted","type":"event"},{"anonymous":false,"inputs":[{"indexed":true,"internalType":"uint256","name":"tokenId","type":"uint256"},{"indexed":false,"internalType":"string","name":"batchId","type":"string"}],"name":"ProductPackaged","type":"event"},{"anonymous":false,"inputs":[{"indexed":true,"internalType":"uint256","name":"tokenId","type":"uint256"},{"indexed":true,"internalType":"address","name":"initiator","type":"address"},{"indexed":false,"internalType":"string","name":"reason","type":"string"}],"name":"ProductRecalled","type":"event"},{"anonymous":false,"inputs":[{"indexed":true,"internalType":"uint256","name":"tokenId","type":"uint256"},{"indexed":false,"internalType":"enum ProTrack.ProductStatus","name":"status","type":"uint8"},{"indexed":false,"internalType":"address","name":"updatedBy","type":"address"}],"name":"ProductStatusUpdated","type":"event"},{"anonymous":false,"inputs":[{"indexed":true,"internalType":"bytes32","name":"role","type":"bytes32"},{"indexed":true,"internalType":"bytes32","name":"previousAdminRole","type":"bytes32"},{"indexed":true,"internalType":"bytes32","name":"newAdminRole","type":"bytes32"}],"name":"RoleAdminChanged","type":"event"},{"anonymous":false,"inputs":[{"indexed":true,"internalType":"bytes32","name":"role","type":"bytes32"},{"indexed":true,"internalType":"address","name":"account","type":"address"},{"indexed":true,"internalType":"address","name":"sender","type":"address"}],"name":"RoleGranted","type":"event"},{"anonymous":false,"inputs":[{"indexed":true,"internalType":"bytes32","name":"role","type":"bytes32"},{"indexed":true,"internalType":"address","name":"account","type":"address"},{"indexed":true,"internalType":"address","name":"sender","type":"address"}],"name":"RoleRevoked","type":"event"},{"anonymous":false,"inputs":[{"indexed":true,"internalType":"uint256","name":"shipmentId","type":"uint256"},{"indexed":false,"internalType":"string","name":"tempKeyId","type":"string"}],"name":"ShipmentApproved","type":"event"},{"anonymous":false,"inputs":[{"indexed":true,"internalType":"uint256","name":"shipmentId","type":"uint256"},{"indexed":false,"internalType":"uint256","name":"confirmedAt","type":"uint256"}],"name":"ShipmentConfirmed","type":"event"},{"anonymous":false,"inputs":[{"indexed":true,"internalType":"uint256","name":"shipmentId","type":"uint256"},{"indexed":false,"internalType":"uint256","name":"deliveredAt","type":"uint256"}],"name":"ShipmentDelivered","type":"event"},{"anonymous":false,"inputs":[{"indexed":true,"internalType":"uint256","name":"shipmentId","type":"uint256"},{"indexed":true,"internalType":"uint256","name":"productId","type":"uint256"},{"indexed":true,"internalType":"address","name":"from","type":"address"},{"indexed":false,"internalType":"address","name":"to","type":"address"}],"name":"ShipmentRequested","type":"event"},{"anonymous":false,"inputs":[{"indexed":true,"internalType":"address","name":"from","type":"address"},{"indexed":true,"internalType":"address","name":"to","type":"address"},{"indexed":true,"internalType":"uint256","name":"tokenId","type":"uint256"}],"name":"Transfer","type":"event"},{"inputs":[],"name":"ADMIN_ROLE","outputs":[{"internalType":"bytes32","name":"","type":"bytes32"}],"stateMutability":"view","type":"function"},{"inputs":[],"name":"CUSTOMER_ROLE","outputs":[{"internalType":"bytes32","name":"","type":"bytes32"}],"stateMutability":"view","type":"function"},{"inputs":[],"name":"DEFAULT_ADMIN_ROLE","outputs":[{"internalType":"bytes32","name":"","type":"bytes32"}],"stateMutability":"view","type":"function"},{"inputs":[],"name":"INSPECTOR_ROLE","outputs":[{"internalType":"bytes32","name":"","type":"bytes32"}],"stateMutability":"view","type":"function"},{"inputs":[],"name":"MANUFACTURER_ROLE","outputs":[{"internalType":"bytes32","name":"","type":"bytes32"}],"stateMutability":"view","type":"function"},{"inputs":[],"name":"ORACLE_ROLE","outputs":[{"internalType":"bytes32","name":"","type":"bytes32"}],"stateMutability":"view","type":"function"},{"inputs":[],"name":"PACKAGER_ROLE","outputs":[{"internalType":"bytes32","name":"","type":"bytes32"}],"stateMutability":"view","type":"function"},{"inputs":[],"name":"RETAILER_ROLE","outputs":[{"internalType":"bytes32","name":"","type":"bytes32"}],"stateMutability":"view","type":"function"},{"inputs":[],"name":"TRANSPORTER_ROLE","outputs":[{"internalType":"bytes32","name":"","type":"bytes32"}],"stateMutability":"view","type":"function"},{"inputs":[],"name":"WHOLESALER_ROLE","outputs":[{"internalType":"bytes32","name":"","type":"bytes32"}],"stateMutability":"view","type":"function"},{"inputs":[{"internalType":"address","name":"to","type":"address"},{"internalType":"uint256","name":"tokenId","type":"uint256"}],"name":"approve","outputs":[],"stateMutability":"nonpayable","type":"function"},{"inputs":[{"internalType":"uint256","name":"shipmentId","type":"uint256"}],"name":"approveShipment","outputs":[],"stateMutability":"nonpayable","type":"function"},{"inputs":[{"internalType":"uint256","name":"","type":"uint256"},{"internalType":"address","name":"","type":"address"}],"name":"authorizedViewers","outputs":[{"internalType":"bool","name":"","type":"bool"}],"stateMutability":"view","type":"function"},{"inputs":[{"internalType":"address","name":"owner","type":"address"}],"name":"balanceOf","outputs":[{"internalType":"uint256","name":"","type":"uint256"}],"stateMutability":"view","type":"function"},{"inputs":[{"internalType":"string","name":"","type":"string"}],"name":"barcodeToTokenId","outputs":[{"internalType":"uint256","name":"","type":"uint256"}],"stateMutability":"view","type":"function"},{"inputs":[{"internalType":"uint256","name":"shipmentId","type":"uint256"},{"internalType":"string","name":"location","type":"string"}],"name":"confirmReceipt","outputs":[],"stateMutability":"nonpayable","type":"function"},{"inputs":[{"internalType":"uint256","name":"shipmentId","type":"uint256"}],"name":"confirmShipmentCompletion","outputs":[],"stateMutability":"nonpayable","type":"function"},{"inputs":[{"internalType":"uint256","name":"tokenId","type":"uint256"}],"name":"getApproved","outputs":[{"internalType":"address","name":"","type":"address"}],"stateMutability":"view","type":"function"},{"inputs":[{"internalType":"uint256","name":"tokenId","type":"uint256"}],"name":"getIoTData","outputs":[{"components":[{"internalType":"uint256","name":"productId","type":"uint256"},{"internalType":"enum ProTrack.SensorType","name":"sensorType","type":"uint8"},{"internalType":"int256","name":"value","type":"int256"},{"internalType":"string","name":"unit","type":"string"},{"internalType":"string","name":"gpsCoordinates","type":"string"},{"internalType":"address","name":"provider","type":"address"},{"internalType":"uint256","name":"timestamp","type":"uint256"},{"internalType":"bool","name":"verified","type":"bool"},{"internalType":"string","name":"ipfsCID","type":"string"}],"internalType":"struct ProTrack.IoTData[]","name":"","type":"tuple[]"}],"stateMutability":"view","type":"function"},{"inputs":[{"internalType":"uint256","name":"tokenId","type":"uint256"}],"name":"getProduct","outputs":[{"components":[{"internalType":"string","name":"rfidHash","type":"string"},{"internalType":"string","name":"barcode","type":"string"},{"internalType":"string","name":"productName","type":"string"},{"internalType":"string","name":"batchId","type":"string"},{"internalType":"uint256","name":"manufactureDate","type":"uint256"},{"internalType":"uint256","name":"expiryDate","type":"uint256"},{"internalType":"string","name":"ipfsMetadataCID","type":"string"},{"internalType":"enum ProTrack.ProductStatus","name":"status","type":"uint8"},{"internalType":"address","name":"manufacturer","type":"address"},{"internalType":"address","name":"currentCustodian","type":"address"},{"internalType":"string","name":"currentLocation","type":"string"},{"internalType":"uint256","name":"lastUpdated","type":"uint256"},{"internalType":"bool","name":"isSoulbound","type":"bool"},{"internalType":"bool","name":"isRecalled","type":"bool"}],"internalType":"struct ProTrack.Product","name":"","type":"tuple"}],"stateMutability":"view","type":"function"},{"inputs":[{"internalType":"uint256","name":"tokenId","type":"uint256"}],"name":"getProductShipments","outputs":[{"internalType":"uint256[]","name":"","type":"uint256[]"}],"stateMutability":"view","type":"function"},{"inputs":[{"internalType":"bytes32","name":"role","type":"bytes32"}],"name":"getRoleAdmin","outputs":[{"internalType":"bytes32","name":"","type":"bytes32"}],"stateMutability":"view","type":"function"},{"inputs":[{"internalType":"uint256","name":"shipmentId","type":"uint256"}],"name":"getShipment","outputs":[{"components":[{"internalType":"uint256","name":"productId","type":"uint256"},{"internalType":"address","name":"fromParty","type":"address"},{"internalType":"address","name":"toParty","type":"address"},{"internalType":"enum ProTrack.ShipmentStatus","name":"status","type":"uint8"},{"internalType":"string","name":"tempKeyId","type":"string"},{"internalType":"string","name":"trackingInfo","type":"string"},{"internalType":"uint256","name":"requestedAt","type":"uint256"},{"internalType":"uint256","name":"approvedAt","type":"uint256"},{"internalType":"uint256","name":"shippedAt","type":"uint256"},{"internalType":"uint256","name":"deliveredAt","type":"uint256"},{"internalType":"uint256","name":"confirmedAt","type":"uint256"}],"internalType":"struct ProTrack.Shipment","name":"","type":"tuple"}],"stateMutability":"view","type":"function"},{"inputs":[{"internalType":"bytes32","name":"role","type":"bytes32"},{"internalType":"address","name":"account","type":"address"}],"name":"grantRole","outputs":[],"stateMutability":"nonpayable","type":"function"},{"inputs":[{"internalType":"uint256","name":"tokenId","type":"uint256"},{"internalType":"address","name":"user","type":"address"}],"name":"hasProductAccess","outputs":[{"internalType":"bool","name":"","type":"bool"}],"stateMutability":"view","type":"function"},{"inputs":[{"internalType":"bytes32","name":"role","type":"bytes32"},{"internalType":"address","name":"account","type":"address"}],"name":"hasRole","outputs":[{"internalType":"bool","name":"","type":"bool"}],"stateMutability":"view","type":"function"},{"inputs":[{"internalType":"address","name":"owner","type":"address"},{"internalType":"address","name":"operator","type":"address"}],"name":"isApprovedForAll","outputs":[{"internalType":"bool","name":"","type":"bool"}],"stateMutability":"view","type":"function"},{"inputs":[{"internalType":"uint256","name":"tokenId","type":"uint256"}],"name":"isProductRecalled","outputs":[{"internalType":"bool","name":"","type":"bool"}],"stateMutability":"view","type":"function"},{"inputs":[{"internalType":"uint256","name":"tokenId","type":"uint256"},{"internalType":"string","name":"batchId","type":"string"}],"name":"logPackaging","outputs":[],"stateMutability":"nonpayable","type":"function"},{"inputs":[{"internalType":"uint256","name":"tokenId","type":"uint256"}],"name":"makeSoulbound","outputs":[],"stateMutability":"nonpayable","type":"function"},{"inputs":[{"internalType":"string","name":"rfidHash","type":"string"},{"internalType":"string","name":"barcode","type":"string"},{"internalType":"string","name":"productName","type":"string"},{"internalType":"string","name":"batchId","type":"string"},{"internalType":"uint256","name":"expiryDate","type":"uint256"},{"internalType":"string","name":"ipfsMetadataCID","type":"string"},{"internalType":"address","name":"owner","type":"address"}],"name":"mintProduct","outputs":[{"internalType":"uint256","name":"","type":"uint256"}],"stateMutability":"nonpayable","type":"function"},{"inputs":[],"name":"name","outputs":[{"internalType":"string","name":"","type":"string"}],"stateMutability":"view","type":"function"},{"inputs":[{"internalType":"uint256","name":"tokenId","type":"uint256"}],"name":"ownerOf","outputs":[{"internalType":"address","name":"","type":"address"}],"stateMutability":"view","type":"function"},{"inputs":[{"internalType":"uint256","name":"","type":"uint256"},{"internalType":"uint256","name":"","type":"uint256"}],"name":"productIoTData","outputs":[{"internalType":"uint256","name":"productId","type":"uint256"},{"internalType":"enum ProTrack.SensorType","name":"sensorType","type":"uint8"},{"internalType":"int256","name":"value","type":"int256"},{"internalType":"string","name":"unit","type":"string"},{"internalType":"string","name":"gpsCoordinates","type":"string"},{"internalType":"address","name":"provider","type":"address"},{"internalType":"uint256","name":"timestamp","type":"uint256"},{"internalType":"bool","name":"verified","type":"bool"},{"internalType":"string","name":"ipfsCID","type":"string"}],"stateMutability":"view","type":"function"},{"inputs":[{"internalType":"uint256","name":"","type":"uint256"}],"name":"productKeys","outputs":[{"internalType":"bytes32","name":"senderKey","type":"bytes32"},{"internalType":"bytes32","name":"receiverKey","type":"bytes32"},{"internalType":"uint256","name":"createdAt","type":"uint256"},{"internalType":"uint256","name":"expiresAt","type":"uint256"}],"stateMutability":"view","type":"function"},{"inputs":[{"internalType":"uint256","name":"","type":"uint256"},{"internalType":"uint256","name":"","type":"uint256"}],"name":"productShipments","outputs":[{"internalType":"uint256","name":"","type":"uint256"}],"stateMutability":"view","type":"function"},{"inputs":[{"internalType":"uint256","name":"","type":"uint256"}],"name":"products","outputs":[{"internalType":"string","name":"rfidHash","type":"string"},{"internalType":"string","name":"barcode","type":"string"},{"internalType":"string","name":"productName","type":"string"},{"internalType":"string","name":"batchId","type":"string"},{"internalType":"uint256","name":"manufactureDate","type":"uint256"},{"internalType":"uint256","name":"expiryDate","type":"uint256"},{"internalType":"string","name":"ipfsMetadataCID","type":"string"},{"internalType":"enum ProTrack.ProductStatus","name":"status","type":"uint8"},{"internalType":"address","name":"manufacturer","type":"address"},{"internalType":"address","name":"currentCustodian","type":"address"},{"internalType":"string","name":"currentLocation","type":"string"},{"internalType":"uint256","name":"lastUpdated","type":"uint256"},{"internalType":"bool","name":"isSoulbound","type":"bool"},{"internalType":"bool","name":"isRecalled","type":"bool"}],"stateMutability":"view","type":"function"},{"inputs":[{"internalType":"uint256","name":"tokenId","type":"uint256"},{"internalType":"string","name":"reason","type":"string"}],"name":"recallProduct","outputs":[],"stateMutability":"nonpayable","type":"function"},{"inputs":[{"internalType":"uint256","name":"tokenId","type":"uint256"},{"internalType":"enum ProTrack.SensorType","name":"sensorType","type":"uint8"},{"internalType":"int256","name":"value","type":"int256"},{"internalType":"string","name":"unit","type":"string"},{"internalType":"string","name":"gpsCoordinates","type":"string"},{"internalType":"string","name":"ipfsCID","type":"string"}],"name":"recordIoT","outputs":[],"stateMutability":"nonpayable","type":"function"},{"inputs":[{"internalType":"bytes32","name":"role","type":"bytes32"},{"internalType":"address","name":"callerConfirmation","type":"address"}],"name":"renounceRole","outputs":[],"stateMutability":"nonpayable","type":"function"},{"inputs":[{"internalType":"uint256","name":"tokenId","type":"uint256"},{"internalType":"address","name":"to","type":"address"},{"internalType":"string","name":"tempKeyId","type":"string"},{"internalType":"string","name":"trackingInfo","type":"string"}],"name":"requestShipment","outputs":[{"internalType":"uint256","name":"","type":"uint256"}],"stateMutability":"nonpayable","type":"function"},{"inputs":[{"internalType":"bytes32","name":"role","type":"bytes32"},{"internalType":"address","name":"account","type":"address"}],"name":"revokeRole","outputs":[],"stateMutability":"nonpayable","type":"function"},{"inputs":[{"internalType":"string","name":"","type":"string"}],"name":"rfidToTokenId","outputs":[{"internalType":"uint256","name":"","type":"uint256"}],"stateMutability":"view","type":"function"},{"inputs":[{"internalType":"address","name":"from","type":"address"},{"internalType":"address","name":"to","type":"address"},{"internalType":"uint256","name":"tokenId","type":"uint256"}],"name":"safeTransferFrom","outputs":[],"stateMutability":"nonpayable","type":"function"},{"inputs":[{"internalType":"address","name":"from","type":"address"},{"internalType":"address","name":"to","type":"address"},{"internalType":"uint256","name":"tokenId","type":"uint256"},{"internalType":"bytes","name":"data","type":"bytes"}],"name":"safeTransferFrom","outputs":[],"stateMutability":"nonpayable","type":"function"},{"inputs":[{"internalType":"address","name":"operator","type":"address"},{"internalType":"bool","name":"approved","type":"bool"}],"name":"setApprovalForAll","outputs":[],"stateMutability":"nonpayable","type":"function"},{"inputs":[{"internalType":"uint256","name":"shipmentId","type":"uint256"}],"name":"shipProduct","outputs":[],"stateMutability":"nonpayable","type":"function"},{"inputs":[{"internalType":"uint256","name":"","type":"uint256"}],"name":"shipments","outputs":[{"internalType":"uint256","name":"productId","type":"uint256"},{"internalType":"address","name":"fromParty","type":"address"},{"internalType":"address","name":"toParty","type":"address"},{"internalType":"enum ProTrack.ShipmentStatus","name":"status","type":"uint8"},{"internalType":"string","name":"tempKeyId","type":"string"},{"internalType":"string","name":"trackingInfo","type":"string"},{"internalType":"uint256","name":"requestedAt","type":"uint256"},{"internalType":"uint256","name":"approvedAt","type":"uint256"},{"internalType":"uint256","name":"shippedAt","type":"uint256"},{"internalType":"uint256","name":"deliveredAt","type":"uint256"},{"internalType":"uint256","name":"confirmedAt","type":"uint256"}],"stateMutability":"view","type":"function"},{"inputs":[{"internalType":"bytes4","name":"interfaceId","type":"bytes4"}],"name":"supportsInterface","outputs":[{"internalType":"bool","name":"","type":"bool"}],"stateMutability":"view","type":"function"},{"inputs":[],"name":"symbol","outputs":[{"internalType":"string","name":"","type":"string"}],"stateMutability":"view","type":"function"},{"inputs":[{"internalType":"uint256","name":"tokenId","type":"uint256"}],"name":"tokenURI","outputs":[{"internalType":"string","name":"","type":"string"}],"stateMutability":"view","type":"function"},{"inputs":[{"internalType":"uint256","name":"tokenId","type":"uint256"},{"internalType":"address","name":"to","type":"address"},{"internalType":"string","name":"location","type":"string"}],"name":"transferCustody","outputs":[],"stateMutability":"nonpayable","type":"function"},{"inputs":[{"internalType":"address","name":"from","type":"address"},{"internalType":"address","name":"to","type":"address"},{"internalType":"uint256","name":"tokenId","type":"uint256"}],"name":"transferFrom","outputs":[],"stateMutability":"nonpayable","type":"function"},{"inputs":[{"internalType":"uint256","name":"tokenId","type":"uint256"},{"internalType":"string","name":"location","type":"string"}],"name":"updateLocation","outputs":[],"stateMutability":"nonpayable","type":"function"}],"evm":{"bytecode":{"linkReferences":{},"object":"60803462000344576001600160401b0390604090808201838111828210176200032e578252601581526020927f50726f547261636b20537570706c7920436861696e0000000000000000000000848301528251838101818110838211176200032e57845260048152635054534360e01b858201528251908282116200032e5760008054926001958685811c9516801562000323575b898610146200030f578190601f95868111620002bc575b508990868311600114620002585784926200024c575b5050600019600383901b1c191690861b1781555b8151938411620002385784548581811c911680156200022d575b888210146200021957838111620001d1575b50869284116001146200016b578394959650926200015f575b5050600019600383901b1c191690821b1781555b806008556200013d3362000349565b506200014933620003ca565b50806011556012555161516490816200046e8239f35b0151905038806200011a565b9190601f1984169685845280842093905b888210620001b957505083859697106200019f575b505050811b0181556200012e565b015160001960f88460031b161c1916905538808062000191565b8087859682949686015181550195019301906200017c565b8582528782208480870160051c8201928a88106200020f575b0160051c019086905b8281106200020357505062000101565b838155018690620001f3565b92508192620001ea565b634e487b7160e01b82526022600452602482fd5b90607f1690620000ef565b634e487b7160e01b81526041600452602490fd5b015190503880620000c1565b8480528a85208994509190601f198416865b8d828210620002a557505084116200028b575b505050811b018155620000d5565b015160001960f88460031b161c191690553880806200027d565b8385015186558c979095019493840193016200026a565b9091508380528984208680850160051c8201928c861062000305575b918a91869594930160051c01915b828110620002f6575050620000ab565b8681558594508a9101620002e6565b92508192620002d8565b634e487b7160e01b83526022600452602483fd5b94607f169462000094565b634e487b7160e01b600052604160045260246000fd5b600080fd5b6001600160a01b031660008181527f6d5257204ebe7d88fd91ae87941cb2dd9d8062b64ae5a2bd2d28ec40b9fbf6df602052604081205490919060ff16620003c65781805260076020526040822081835260205260408220600160ff198254161790553391600080516020620055d28339815191528180a4600190565b5090565b6001600160a01b031660008181527fa70365933f78520ef41d6645ba61e509916296603327302d41466c063e8e260860205260408120549091907fa49807205ce4d355092ef5a8a18f56e8913cf4a201fbe287825b095693c217759060ff16620004685780835260076020526040832082845260205260408320600160ff19825416179055600080516020620055d2833981519152339380a4600190565b50509056fe6080604052600436101561001257600080fd5b60003560e01c806301ab6e0914613f4a57806301ffc9a714613ea957806306fdde0314613e0657806307e2cea514613dcb57806308021d1e14613da3578063081812fc14613d65578063092b374014613b90578063095ea7b314613aa95780630c8b0e57146139d25780631020f783146138c6578063115da32e146137da578063204d79231461379f5780632115e7bf1461376457806323b872dd1461374d578063248a9ca31461371e5780632927d1d9146136275780632ac08a93146135325780632f2ff15d146134f35780632fe9f958146134b457806336568abe1461346d5780634037ee3f1461342457806342842e0e146133fc5780634601bef8146124d657806348fd93d0146121485780634a6323d614611acb5780634bc39ec2146119d45780634eabbe77146119995780634ec0c9e91461177b5780636352211e1461174b5780636b1023dd146116fd57806370a08231146116a457806375b238fc1461167b5780637acc0b20146114c4578063910bc3a1146111f457806391d14854146111a757806395d89b41146110c8578063965288b01461108d5780639ce0f97314610f67578063a217fddf14610f4b578063a22cb46514610e9d578063a40b9ddf14610e62578063a591eea114610da7578063b5788b4914610d5a578063b88d4fde14610cfb578063b9db15b414610a22578063bedd1136146109c6578063c87b56dd1461095f578063ced2dea4146108b9578063d547741f14610878578063d7cb8d341461083d578063e3a3c52214610802578063e985e9c5146107ac578063ee83687b146105a85763f04fe44e1461026e57600080fd5b346105a35761027c366148d8565b3360009081527fac424760c614b43c69c667e7978906b93f2529d8f189750a0fe2c43d25b8120860209081526040909120549091907f6e94c7ed7681edd364a52ba21181e7713b286d5c7e6bbaca72cfe62d41ea09d99060ff1615610585575060008381526002835260409020546102fe906001600160a01b03161515614e50565b826000526009825260ff60076040600020015416600681101561056f576105145782600052600982526003604060002001908051916001600160401b0383116104fe57849261034d82546147ae565b601f81116104a9575b5084601f821160011461040a576000805160206150ef833981519152959360409593837fe96ef10f180f263bdeac0d9641cf09dc9a2aa47fe9399f417c14a782338cbe10946103ed946000916103ff575b508160011b916000199060031b1c19161790555b83600052600985528560002060078101600160ff19825416179055600a42910155855191829186835286830190614734565b0390a2815190600182523390820152a2005b9050830151386103a7565b601f1982169083600052866000209160005b81811061048f5750936001846103ed946000805160206150ef8339815191529a98947fe96ef10f180f263bdeac0d9641cf09dc9a2aa47fe9399f417c14a782338cbe109760409b9910610476575b5050811b0190556103bb565b85015160001960f88460031b161c19169055388061046a565b82870151845589975060019093019291880191880161041c565b90918093945060005284600020601f830160051c8101918684106104f4575b90601f8896959493920160051c01905b8181106104e55750610356565b600081558795506001016104d8565b90915081906104c8565b634e487b7160e01b600052604160045260246000fd5b60405162461bcd60e51b815260048101839052602d60248201527f50726f64756374206d757374206265206d616e7566616374757265642062656660448201526c6f7265207061636b6167696e6760981b6064820152608490fd5b634e487b7160e01b600052602160045260246000fd5b6044906040519063e2517d3f60e01b82523360048301526024820152fd5b600080fd5b346105a3576020806003193601126105a357600435600052600b81526040600020908154916001600160401b0383116104fe57604051916005936105f08282871b0185614680565b8084528184018093600052826000206000915b8383106106eb5750505050604051928184019082855251809152604081818601961b85010192916000955b82871061063b5785850386f35b9091929382806106db600193603f198a8203018652885180518252610666848201518584019061487e565b604081015160408301526106a061068d606080840151906101208091870152850190614734565b6080808401519085830390860152614734565b9160a0878060a01b0381840151169082015260c0808301519082015260e0820151151560e08201526101008092015191818403910152614734565b960192019601959291909261062e565b60098560019260409997995161070081614613565b8554815260ff610717818789015416858401614f5c565b6002870154604083015260405161073c816107358160038c016147e8565b0382614680565b6060830152604051610755816107358160048c016147e8565b6080830152858060a01b038d8801541660a0830152600687015460c0830152600787015416151560e0820152604051610795816107358160088b016147e8565b610100820152815201920192019190959395610603565b346105a35760403660031901126105a3576107c56145c5565b6107cd6145af565b9060018060a01b03809116600052600560205260406000209116600052602052602060ff604060002054166040519015158152f35b346105a35760003660031901126105a35760206040517f273dcf2136c7d8ef632bb8ef13dbca69a8f36fa620c7468671b3153d46a211c08152f35b346105a35760003660031901126105a35760206040517fe34aaecbfe1f40867dcba8678fbed9f4ffa5782221fa3bb500b71b2a804303188152f35b346105a35760403660031901126105a3576108b76004356108976145af565b908060005260076020526108b26001604060002001546149ba565b614a60565b005b346105a3576020806003193601126105a357600435600052600e8152604060002060405190818382549182815201908192600052846000209060005b8682821061094b57868661090b82880383614680565b604051928392818401908285525180915260408401929160005b82811061093457505050500390f35b835185528695509381019392810192600101610925565b8354855290930192600192830192016108f5565b346105a35760203660031901126105a35760043561097c81614e06565b5060005260066020526109c261073561099f6040600020604051928380926147e8565b60006040516109ad8161464a565b52604051918291602083526020830190614734565b0390f35b346105a35760203660031901126105a3576004356001600160401b0381116105a357610a0f60206109fc819336906004016146f3565b8160405193828580945193849201614711565b8101600c81520301902054604051908152f35b346105a35760203660031901126105a35760043560006101a0604051610a47816145f7565b6060815260606020820152606060408201526060808201528260808201528260a0820152606060c08201528260e08201528261010082015282610120820152606061014082015282610160820152826101808201520152806000526002602052610abf60018060a01b03604060002054161515614e50565b6000526009602052604060002060405190610ad9826145f7565b604051610aea8161073581856147e8565b8252604051610b008161073581600186016147e8565b6020830152604051610b198161073581600286016147e8565b6040830152604051610b328161073581600386016147e8565b606083015260048101546080830152600581015460a0830152604051610b5f8161073581600686016147e8565b60c08301526007810154600660ff8216101561056f5760ff81811660e08501526001600160a01b03600892831c8116610100860152918301549091166101208401526040519091600b91610bba8161073581600986016147e8565b610140850152600a8101546101608501520154818116151561018084015260081c1615156101a08201526040518091602082526101a0610cd4610c83610c59610c43610c2d610c1787516101c060208b01526101e08a0190614734565b6020880151898203601f190160408b0152614734565b6040870151888203601f190160608a0152614734565b6060860151878203601f19016080890152614734565b608085015160a087015260a085015160c087015260c0850151601f198783030160e0880152614734565b610c9660e0850151610100870190614907565b6101008401516001600160a01b03908116610120878101919091528501511661014080870191909152840151858203601f1901610160870152614734565b91610160810151610180850152610180810151151582850152015115156101c08301520390f35b346105a35760803660031901126105a357610d146145c5565b610d1c6145af565b606435916001600160401b0383116105a357366023840112156105a357610d506108b79336906024816004013591016146bc565b9160443591614cb2565b346105a35760403660031901126105a357610d736145af565b600435600052601060205260406000209060018060a01b0316600052602052602060ff604060002054166040519015158152f35b346105a35760203660031901126105a357600435610dc3614970565b600081815260026020526040902054610de6906001600160a01b03161515614e50565b80600052600960205260ff600b6040600020015416610e1d576000908152600960205260409020600b01805460ff19166001179055005b60405162461bcd60e51b815260206004820152601760248201527f546f6b656e20616c726561647920736f756c626f756e640000000000000000006044820152606490fd5b346105a35760003660031901126105a35760206040517f6e94c7ed7681edd364a52ba21181e7713b286d5c7e6bbaca72cfe62d41ea09d98152f35b346105a35760403660031901126105a357610eb66145c5565b60243590811515908183036105a3576001600160a01b0316918215610f3257610f049033600052600560205260406000208460005260205260406000209060ff801983541691151516179055565b6040519081527f17307eab39ab6107e8899845ad3d59bd9653f200f220920489ca2b5937696c3160203392a3005b604051630b61174360e31b815260048101849052602490fd5b346105a35760003660031901126105a357602060405160008152f35b346105a357610f75366148d8565b610f7d614970565b8160005260209060028252610fa060018060a01b03604060002054161515614e50565b826000526009825260ff600b6040600020015460081c16611048576000805160206150ef83398151915291604091846000526009825282600020600b810161010061ff001982541617905560078101600560ff19825416179055600a42910155847fc836b58f1d2b092e3af919aae9a0607bb0c4fe552aa37d0d7ed26885488b7399845184815280611036339587830190614734565b0390a3815190600582523390820152a2005b60405162461bcd60e51b815260048101839052601860248201527f50726f6475637420616c726561647920726563616c6c656400000000000000006044820152606490fd5b346105a35760003660031901126105a35760206040517feefb95e842a3287179d933b4460be539a1d5af11aa8b325bb45c5c8dc92de4ed8152f35b346105a35760003660031901126105a357604051600060018054906110ec826147ae565b808552918181169081156111805750600114611127575b6109c28461111381860382614680565b604051918291602083526020830190614734565b600081815292507fb10e2d527612073b26eecdfd717e6a320cf44b4afac2b0732d9fcbe2b7fa0cf65b82841061116857505050810160200161111382611103565b80546020858701810191909152909301928101611150565b60ff191660208087019190915292151560051b850190920192506111139150839050611103565b346105a35760403660031901126105a3576111c06145af565b600435600052600760205260406000209060018060a01b0316600052602052602060ff604060002054166040519015158152f35b346105a35760603660031901126105a3576004356112106145af565b6001600160401b036044358181116105a3576112309036906004016146f3565b92806000526020916002835260018060a01b039061125682604060002054161515614e50565b61125f83614e06565b823391160361147f5781851694611277861515614e95565b836000526009855260ff600b604060002001541661146257836000526009855260406000209160096008840193845494896001600160601b0360a01b8716179055019088519081116104fe576112cd82546147ae565b601f811161141c575b5086601f821160011461138a579561137a938198999a9383611367947fd67aa7c45f61c95d774abbdd7384089523fabb58f544debbc64c53e937d977419a60009161137f575b508160011b916000199060031b1c19161790555b8160005260098a5242600a6040600020015560108a5260406000208b6000528a526040600020600160ff1982541617905533614ee1565b6040519384938885521696830190614734565b0390a4005b90508601518e61131c565b601f1982169083600052886000209160005b8181106114055750936001848a9b9c9d969461137a9894611367977fd67aa7c45f61c95d774abbdd7384089523fabb58f544debbc64c53e937d977419d97106113ec575b5050811b019055611330565b88015160001960f88460031b161c191690558e806113e0565b91928a600181928f8701518155019401920161139c565b8260005287600020601f830160051c810191898410611458575b601f0160051c01905b81811061144c57506112d6565b6000815560010161143f565b9091508190611436565b60405162461bcd60e51b81528061147b60048201614f68565b0390fd5b60405162461bcd60e51b815260048101859052601c60248201527f4e6f7420746865206f776e6572206f66207468652070726f64756374000000006044820152606490fd5b346105a35760203660031901126105a35760043560005260096020526040600020604051806114f381846147e8565b036114fe9082614680565b604051918261151081600184016147e8565b0361151b9084614680565b6040518061152c81600285016147e8565b036115379082614680565b6040518061154881600386016147e8565b036115539082614680565b60048301546005840154604051918261156f81600689016147e8565b0361157a9084614680565b600786015492600160a01b6001900391826008890154169360405196878060098c01906115a6916147e8565b036115b19089614680565b600a8a015499600b0154986040519c8d9c8d6101c090818152016115d491614734565b8d810360208f01526115e591614734565b8c810360408e01526115f691614734565b8b810360608d015261160791614734565b9160808b015260a08a015288810360c08a015261162391614734565b9261163460e0890160ff8316614907565b60081c1661010087015261012086015284810361014086015261165691614734565b9161016084015260ff8116151561018084015260081c60ff1615156101a08301520390f35b346105a35760003660031901126105a357602060405160008051602061510f8339815191528152f35b346105a35760203660031901126105a3576001600160a01b036116c56145c5565b1680156116e45760005260036020526020604060002054604051908152f35b6040516322718ad960e21b815260006004820152602490fd5b346105a35760203660031901126105a357600435600052600f602052608060406000208054906001810154906003600282015491015491604051938452602084015260408301526060820152f35b346105a35760203660031901126105a3576020611769600435614e06565b6040516001600160a01b039091168152f35b346105a357611789366148d8565b90806000526020906002825260018060a01b036117ae81604060002054161515614e50565b6117b782614e06565b8116331490811561197c575b50801561194c575b156118fd578060005260098252600960406000200183516001600160401b0381116104fe576117fa82546147ae565b601f81116118b7575b508394601f82116001146118505760099560009183611845575b50508160011b916000199060031b1c19161790555b6000525242600a60406000200155600080f35b01519050868061181d565b601f1982169583600052856000209160005b8881106118a057509083929160019460099910611887575b505050811b019055611832565b015160001960f88460031b161c1916905586808061187a565b919287600181928685015181550194019201611862565b8260005284600020601f830160051c8101918684106118f3575b601f0160051c01905b8181106118e75750611803565b600081556001016118da565b90915081906118d1565b60405162461bcd60e51b815260048101839052602160248201527f4e6f7420617574686f72697a656420746f20757064617465206c6f636174696f6044820152603760f91b6064820152608490fd5b5060008051602061510f83398151915260005260078252604060002033600052825260ff604060002054166117cb565b9050816000526009835233906008604060002001541614846117c3565b346105a35760003660031901126105a35760206040517fddaa901e2fe3bda354fe0ede2785152d5c109282a613fe024a056a3e66c41bb38152f35b346105a35760403660031901126105a3576004356119f06145af565b90806000526020916010835260406000209060018060a01b038091169182600052845260ff60406000205416928315611ab5575b50508115611a83575b8115611a3f575b506040519015158152f35b90507f273dcf2136c7d8ef632bb8ef13dbca69a8f36fa620c7468671b3153d46a211c060005260078252604060002090600052815260ff6040600020541682611a34565b905060008051602061510f83398151915260005260078252604060002081600052825260ff6040600020541690611a2d565b829350611ac190614e06565b1614908380611a24565b346105a35760c03660031901126105a357600860243510156105a3576064356001600160401b0381116105a357611b069036906004016146f3565b6084356001600160401b0381116105a357611b259036906004016146f3565b60a4356001600160401b0381116105a357611b449036906004016146f3565b3360009081527fc5ab710f8c4cc7c1afac50210ff340ab9e3a5797b579fcbb6114569dd517ba0a60205260409020549091907f68e79a7bf1e0bc45d0a330c573bc367f9cf464fd326078812f301165fbda4ef19060ff16156105855750600435600090815260026020526040902054611bc7906001600160a01b03161515614e50565b60405192611bd484614613565b6004358452611be860243560208601614f5c565b6044356040850152606084015260808301523360a08301524260c0830152600160e0830152610100820152600435600052600b60205260406000208054600160401b8110156104fe57611c409160018201815561477c565b9190916121325780518255600182016020820151600881101561056f5760ff801983541691161790556040810151600283015560608101519182516001600160401b0381116104fe57611c9660038301546147ae565b601f81116120eb575b506020601f821160011461207d5781929394600092612072575b50508160011b916000199060031b1c19161760038201555b60808201518051906001600160401b0382116104fe57611cf460048401546147ae565b601f811161202b575b50602090601f8311600114611fb55791806101009492600894600092611faa575b50508160011b916000199060031b1c19161760048201555b6005810160018060a01b0360a0860151166001600160601b0360a01b82541617905560c08401516006820155611d8160e08501511515600783019060ff801983541691151516179055565b019101519081516001600160401b0381116104fe57611da082546147ae565b601f8111611f62575b50602092601f8211600114611efe5792819293600092611ef3575b50508160011b916000199060031b1c19161790555b604051611de88160243561487e565b60443560208201524260408201527f4a4200d10f50281fb36abe1c43b2c85f53e92f4bffe4cc227695f9c949f60f81606060043592a26000602435611e9657601319604435128015611e8a575b611e82575b611e4057005b600435600052600960205260ff60076040600020015416611e646040518092614907565b3060208201526000805160206150ef833981519152604060043592a2005b506001611e3a565b50602860443513611e35565b602435600103611ec3576000604435128015611eb7575b611e82575b611e3a565b50605f60443513611ead565b600260243503611e3a576000604435128015611ee7575b15611eb257506001611e3a565b50606460443513611eda565b015190508380611dc4565b601f198216938360005260206000209160005b868110611f4a5750836001959610611f31575b505050811b019055611dd9565b015160001960f88460031b161c19169055838080611f24565b91926020600181928685015181550194019201611f11565b826000526020600020601f830160051c81019160208410611fa0575b601f0160051c01905b818110611f945750611da9565b60008155600101611f87565b9091508190611f7e565b015190508680611d1e565b906004840160005260206000209160005b601f1985168110612013575092610100949260019260089583601f19811610611ffa575b505050811b016004820155611d36565b015160001960f88460031b161c19169055868080611fea565b91926020600181928685015181550194019201611fc6565b600484016000526020600020601f840160051c81016020851061206b575b601f830160051c8201811061205f575050611cfd565b60008155600101612049565b5080612049565b015190508480611cb9565b6003830160005260206000209060005b601f19841681106120d35750600193949583601f198116106120ba575b505050811b016003820155611cd1565b015160001960f88460031b161c191690558480806120aa565b9091602060018192858a01518155019301910161208d565b600383016000526020600020601f830160051c81016020841061212b575b601f830160051c8201811061211f575050611c9f565b60008155600101612109565b5080612109565b634e487b7160e01b600052600060045260246000fd5b346105a357612156366148d8565b90806000526020600a815260018060a01b03928360026040600020015416331480156124a6575b156124455782600052600a825260ff60026040600020015460a01c16600581101561056f576002036124005782600052600a8252604060002054908160005260098352600960406000206008810180549788169733906001600160601b0360a01b1617905501948151956001600160401b0387116104fe576121ff81546147ae565b601f81116123ba575b508496601f811160011461233657807fdd3eafcd99a3f4d8b6ce7d52cf71f07a3e59d9d6c0b066eaa314812456b6b855979860009161232b575b508160011b916000199060031b1c19161790555b82600052600984526040600020600781019060ff1991600383825416179055600a42910155601085526040600020336000528552600160406000209182541617905585600052600a8452604060002060028101600360a01b60ff60a01b198254161790556008429101556122cb833383614ee1565b827fd67aa7c45f61c95d774abbdd7384089523fabb58f544debbc64c53e937d9774160405186815280612302339689830190614734565b0390a46000805160206150ef83398151915260408051600381523385820152a2604051428152a2005b905084015189612242565b601f19811682600052866000209060005b8181106123a35750907fdd3eafcd99a3f4d8b6ce7d52cf71f07a3e59d9d6c0b066eaa314812456b6b855989983600194931061238a575b5050811b019055612256565b86015160001960f88460031b161c19169055898061237e565b868b01518355998801996001909201918801612347565b8160005285600020601f890160051c810191878a106123f6575b601f0160051c01905b8181106123ea5750612208565b600081556001016123dd565b90915081906123d4565b60405162461bcd60e51b815260048101839052601760248201527f536869706d656e74206e6f7420696e207472616e7369740000000000000000006044820152606490fd5b60405162461bcd60e51b815260048101839052603360248201527f4f6e6c792064657374696e6174696f6e207061727479206f722061646d696e2060448201527218d85b8818dbdb999a5c9b481c9958d95a5c1d606a1b6064820152608490fd5b5060008051602061510f83398151915260005260078252604060002033600052825260ff6040600020541661217d565b346105a35760e03660031901126105a3576004356001600160401b0381116105a3576125069036906004016146f3565b6024356001600160401b0381116105a3576125259036906004016146f3565b906044356001600160401b0381116105a3576125459036906004016146f3565b6064356001600160401b0381116105a3576125649036906004016146f3565b9160a4356001600160401b0381116105a3576125849036906004016146f3565b9260c4356001600160a01b03811690036105a3573360009081527f74bb1ca9260fc37125f5e18e451ff1e642aa55b4eec93cdfb89e91bff73aafdd602052604090205460ff16156133be5781511561337957845115613334578251156132ef5760405160208184516125f98183858901614711565b8101600c8152030190205461329c57604051602081875161261d8183858c01614711565b8101600d81520301902054613246576011549361263985614e41565b60115560c4356001600160a01b03161561322d576001600160a01b036126618660c435614fee565b1661321457846000526006602052604060002081516001600160401b0381116104fe5761268e82546147ae565b601f81116131d0575b50806020601f82116001146131695760009161315e575b508160011b916000199060031b1c19161790555b7ff8e1a15aba9398e019f0b49df1a4fde98ee17ae345cb5f6b5e2c27f5033e8ce76020604051878152a1604051916126f9836145f7565b838352866020840152846040840152606083015242608083015260843560a083015260c0820152600060e08201523361010082015260018060a01b0360c435166101208201526040518060408101106001600160401b036040830111176104fe576040810160405260168152754d616e75666163747572696e6720466163696c69747960501b602082015261014082015242610160820152600061018082015260006101a0820152836000526009602052604060002081518051906001600160401b0382116104fe5781906127ce84546147ae565b601f811161310e575b50602090601f83116001146130a257600092613097575b50508160011b916000199060031b1c19161781555b60208201518051906001600160401b0382116104fe57819061282860018501546147ae565b601f8111613044575b50602090601f8311600114612fd257600092612fc7575b50508160011b916000199060031b1c19161760018201555b60408201518051906001600160401b0382116104fe57819061288560028501546147ae565b601f8111612f74575b50602090601f8311600114612f0257600092612ef7575b50508160011b916000199060031b1c19161760028201555b60608201518051906001600160401b0382116104fe5781906128e260038501546147ae565b601f8111612ea4575b50602090601f8311600114612e3257600092612e27575b50508160011b916000199060031b1c19161760038201555b6080820151600482015560a0820151600582015560c08201518051906001600160401b0382116104fe57819061295360068501546147ae565b601f8111612dd4575b50602090601f8311600114612d6257600092612d57575b50508160011b916000199060031b1c19161760068201555b6007810160e0830151600681101561056f57815460ff610100600160a81b0361010087015160081b169216906affffffffffffffffffffff60a81b16171790556008810160018060a01b03610120840151166001600160601b0360a01b8254161790556101408201518051906001600160401b0382116104fe57612a1260098401546147ae565b601f8111612d10575b50602090601f8311600114612c9a5791806101a09492600b94600092612c8f575b50508160011b916000199060031b1c19161760098201555b610160840151600a8201550191612a7e6101808201511515849060ff801983541691151516179055565b0151151561ff0082549160081b169061ff001916179055826040516020818451612aab8183858901614711565b8101600c81520301902055826040516020818751612acc8183858c01614711565b8101600d81520301902055826000526010602052604060002060018060a01b0360c435166000526020526040600020600160ff1982541617905560405160208101908482523360601b60408201524260548201526529a2a72222a960d11b6074820152605a8152612b3c81614665565b51902060405160208101908582526001600160601b031960c43560601b166040820152426054820152672922a1a2a4ab22a960c11b6074820152605c8152612b8381614665565b5190209162278d00420190814211612c79576040519360808501938585106001600160401b038611176104fe5760209888966003612c3496612c5095612c41957f2e81e137755e5a5eb258f5b5e1258007a5e96e970880d7c8ee40e68f91db8a4d9a60405284528d84019081526040840190428252606085019283528b600052600f8f5260406000209451855551600185015551600284015551910155604051948594606086526060860190614734565b908482038b860152614734565b82810360408401523396614734565b0390a3806000805160206150ef83398151915260408051600081523386820152a2604051908152f35b634e487b7160e01b600052601160045260246000fd5b015190508a80612a3c565b906009840160005260206000209160005b601f1985168110612cf85750926101a09492600192600b9583601f19811610612cdf575b505050811b016009820155612a54565b015160001960f88460031b161c191690558a8080612ccf565b91926020600181928685015181550194019201612cab565b600984016000526020600020601f840160051c810160208510612d50575b601f830160051c82018110612d44575050612a1b565b60008155600101612d2e565b5080612d2e565b015190508880612973565b9250600684016000526020600020906000935b601f1984168510612db9576001945083601f19811610612da0575b505050811b01600682015561298b565b015160001960f88460031b161c19169055888080612d90565b81810151835560209485019460019093019290910190612d75565b909150600684016000526020600020601f840160051c810160208510612e20575b90849392915b601f830160051c82018110612e1157505061295c565b60008155859450600101612dfb565b5080612df5565b015190508880612902565b9250600384016000526020600020906000935b601f1984168510612e89576001945083601f19811610612e70575b505050811b01600382015561291a565b015160001960f88460031b161c19169055888080612e60565b81810151835560209485019460019093019290910190612e45565b909150600384016000526020600020601f840160051c810160208510612ef0575b90849392915b601f830160051c82018110612ee15750506128eb565b60008155859450600101612ecb565b5080612ec5565b0151905088806128a5565b9250600284016000526020600020906000935b601f1984168510612f59576001945083601f19811610612f40575b505050811b0160028201556128bd565b015160001960f88460031b161c19169055888080612f30565b81810151835560209485019460019093019290910190612f15565b909150600284016000526020600020601f840160051c810160208510612fc0575b90849392915b601f830160051c82018110612fb157505061288e565b60008155859450600101612f9b565b5080612f95565b015190508880612848565b9250600184016000526020600020906000935b601f1984168510613029576001945083601f19811610613010575b505050811b016001820155612860565b015160001960f88460031b161c19169055888080613000565b81810151835560209485019460019093019290910190612fe5565b909150600184016000526020600020601f840160051c810160208510613090575b90849392915b601f830160051c82018110613081575050612831565b6000815585945060010161306b565b5080613065565b0151905088806127ee565b9250836000526020600020906000935b601f19841685106130f3576001945083601f198116106130da575b505050811b018155612803565b015160001960f88460031b161c191690558880806130cd565b818101518355602094850194600190930192909101906130b2565b909150836000526020600020601f840160051c810160208510613157575b90849392915b601f830160051c820181106131485750506127d7565b60008155859450600101613132565b508061312c565b9050830151896126ae565b91508260005260206000206000925b601f19831684106131b8576001935082601f1981161061319f575b5050811b0190556126c2565b85015160001960f88460031b161c191690558980613193565b85810151825560209384019360019092019101613178565b826000526020600020601f830160051c81016020841061320d575b601f830160051c82018110613201575050612697565b600081556001016131eb565b50806131eb565b6040516339e3563760e11b815260006004820152602490fd5b604051633250574960e11b815260006004820152602490fd5b60405162461bcd60e51b815260206004820152602860248201527f50726f647563742077697468207468697320626172636f646520616c72656164604482015267792065786973747360c01b6064820152608490fd5b60405162461bcd60e51b815260206004820152602560248201527f50726f6475637420776974682074686973205246494420616c72656164792065604482015264786973747360d81b6064820152608490fd5b60405162461bcd60e51b815260206004820152601c60248201527f50726f64756374206e616d652063616e6e6f7420626520656d707479000000006044820152606490fd5b60405162461bcd60e51b815260206004820152601760248201527f426172636f64652063616e6e6f7420626520656d7074790000000000000000006044820152606490fd5b60405162461bcd60e51b815260206004820152601960248201527f5246494420686173682063616e6e6f7420626520656d707479000000000000006044820152606490fd5b60405163e2517d3f60e01b81523360048201527feefb95e842a3287179d933b4460be539a1d5af11aa8b325bb45c5c8dc92de4ed6024820152604490fd5b346105a3576108b761340d3661488b565b906040519261341b8461464a565b60008452614cb2565b346105a35760203660031901126105a3576004356001600160401b0381116105a35761345a60206109fc819336906004016146f3565b8101600d81520301902054604051908152f35b346105a35760403660031901126105a3576134866145af565b336001600160a01b038216036134a2576108b790600435614a60565b60405163334bd91960e11b8152600490fd5b346105a3576134c236614766565b90600052600e602052604060002080548210156105a3576020916134e5916148c0565b90546040519160031b1c8152f35b346105a35760403660031901126105a3576108b76004356135126145af565b9080600052600760205261352d6001604060002001546149ba565b6149e0565b346105a35760203660031901126105a357600435600052600a6020526020604060002080549060018060a01b039081600182015416906002810154926040519361358a8561358381600387016147e8565b0386614680565b6136066040516135a18161073581600489016147e8565b6135f86005860154976135e7600688015495600789015497600960088b01549a01549a6040519e8f9e8f9081520152811660408d015260ff60608d019160a01c16614759565b6101608060808c01528a0190614734565b9088820360a08a0152614734565b9460c087015260e08601526101008501526101208401526101408301520390f35b346105a3576020806003193601126105a35760043590613645614914565b81600052600a815260ff60026040600020015460a01c16600581101561056f576001036136e25760406000805160206150ef8339815191529183600052600a815281600020549384600052600982528260002060078101600260ff19825416179055600a42910155600052600a81528160002060028101600160a11b60ff60a01b19825416179055600742910155815190600282523390820152a2005b6064906040519062461bcd60e51b82526004820152601560248201527414da1a5c1b595b9d081b9bdd08185c1c1c9bdd9959605a1b6044820152fd5b346105a35760203660031901126105a35760043560005260076020526020600160406000200154604051908152f35b346105a3576108b761375e3661488b565b91614ad7565b346105a35760003660031901126105a35760206040517f2a5f906c256a5d799494fcd066e1f6c077689de1cdb65052a1624de4bace99bf8152f35b346105a35760003660031901126105a35760206040517f288a15c4a15d470e4cd9cad2f113b91206b520c26dbd3dd74627f0c057baa19c8152f35b346105a3576020806003193601126105a357600435906137f8614970565b81600052600a815260ff60026040600020015460a01c16600581101561056f576138825760037ff9011029a94eb60997b710d356797ef53371ec55bfe6db12ab6899b3bb4703ec9183600052600a815261387d604060002060028101600160a01b60ff60a01b19825416179055426006820155604051938385948552840191016147e8565b0390a2005b6064906040519062461bcd60e51b82526004820152601f60248201527f536869706d656e74206e6f7420696e20726571756573746564207374617465006044820152fd5b346105a3576138d436614766565b90600052600b60205260406000209081548110156105a3576138f59161477c565b5080546109c260ff600184015416926008600282015491604051926139288461392181600386016147e8565b0385614680565b6139b260405161393f8161073581600488016147e8565b6139a460018060a01b036005860154169660068601549461397960ff60078901541697613972604051809b8193016147e8565b0389614680565b61398e6040519c8d9c8d5260208d019061487e565b60408b01526101208060608c01528a0190614734565b9088820360808a0152614734565b9360a087015260c0860152151560e0850152838203610100850152614734565b346105a35760203660031901126105a3576004356139ee614970565b80600052600a60205260ff60026040600020015460a01c16600581101561056f57600303613a6b5780600052600a602052604060002060028101600160a21b60ff60a01b198254161790556009429101557fb0afeaee5d1e46a6cf0bd9dbf0e8b217ce5e084418ae08d982d3c53e6323091b6020604051428152a2005b60405162461bcd60e51b815260206004820152601660248201527514da1a5c1b595b9d081b9bdd0819195b1a5d995c995960521b6044820152606490fd5b346105a35760403660031901126105a357613ac26145c5565b602435613ace81614e06565b33151580613b7d575b80613b50575b613b38576001600160a01b039283169282918491167f8c5be1e5ebec7d5bd14f71427d1e84f3dd0314c0f7b2291e5b200ac8c7c3b925600080a4600090815260046020526040902080546001600160a01b0319169091179055005b60405163a9fbf51f60e01b8152336004820152602490fd5b5060018060a01b038116600052600560205260406000203360005260205260ff6040600020541615613add565b506001600160a01b038116331415613ad7565b346105a35760203660031901126105a3576000610140604051613bb2816145db565b82815282602082015282604082015282606082015260606080820152606060a08201528260c08201528260e082015282610100820152826101208201520152600435600052600a602052604060002060405190613c0e826145db565b8054825260018101546001600160a01b0390811660208401526002820154908116604084015260a01c60ff1690600582101561056f576009916060840152604051613c608161073581600386016147e8565b6080840152604051613c798161073581600486016147e8565b60a0840152600581015460c0840152600681015460e08401526007810154610100840152600881015461012084015201546101408201526040518091602082528051602083015260018060a01b03602082015116604083015260018060a01b036040820151166060830152613cf660608201516080840190614759565b6080810151610140613d2f613d19610160938460a0880152610180870190614734565b60a0850151868203601f190160c0880152614734565b9260c081015160e086015260e0810151610100860152610100810151610120860152610120810151828601520151908301520390f35b346105a35760203660031901126105a357600435613d8281614e06565b506000526004602052602060018060a01b0360406000205416604051908152f35b346105a35760203660031901126105a3576020613dc1600435614fb5565b6040519015158152f35b346105a35760003660031901126105a35760206040517f68e79a7bf1e0bc45d0a330c573bc367f9cf464fd326078812f301165fbda4ef18152f35b346105a35760003660031901126105a35760405160008054613e27816147ae565b808452906001908181169081156111805750600114613e50576109c28461111381860382614680565b600080805292507f290decd9548b62a8d60345a988386fc84ba6bc95484008f6362f93160ef3e5635b828410613e9157505050810160200161111382611103565b80546020858701810191909152909301928101613e79565b346105a35760203660031901126105a35760043563ffffffff60e01b81168091036105a357602090637965db0b60e01b8114908115613eed57506040519015158152f35b632483248360e11b811491508115613f07575b5082611a34565b6380ac58cd60e01b811491508115613f39575b8115613f28575b5082613f00565b6301ffc9a760e01b14905082613f21565b635b5e139f60e01b81149150613f1a565b346105a35760803660031901126105a357613f636145af565b6044356001600160401b0381116105a357613f829036906004016146f3565b6064356001600160401b0381116105a357613fa19036906004016146f3565b90613faa614914565b600435600090815260026020526040902054613fd0906001600160a01b03161515614e50565b600435600052600960205260ff60076040600020015416600681101561056f576001148015614586575b15614526576140136001600160a01b0384161515614e95565b6012549161402083614e41565b601255600435600052600960205260018060a01b0360086040600020015416916040519261404d846145db565b6004358452602084015260018060a01b038516604084015260006060840152608083015260a08201524260c0820152600060e082015260006101008201526000610120820152600061014082015281600052600a602052604060002090805182556001820160018060a01b036020830151166001600160601b0360a01b8254161790556002820160018060a01b036040830151168154906060840151600581101561056f576001600160a81b03199092161760a09190911b60ff60a01b1617905560808101518051906001600160401b0382116104fe57819061413360038601546147ae565b601f81116144d3575b50602090601f831160011461446157600092614456575b50508160011b916000199060031b1c19161760038301555b60a08101518051906001600160401b0382116104fe5761418e60048501546147ae565b601f811161440f575b50602090601f8311600114614399579180600994926101409460009261438e575b50508160011b916000199060031b1c19161760048501555b60c0810151600585015560e08101516006850155610100810151600785015561012081015160088501550151910155600435600052600e60205260406000208054600160401b8110156104fe5761422c916001820181556148c0565b81549060031b9083821b91600019901b19161790556004356000526009602052600860406000200154604051602081019060043582526001600160601b0319809360601b1660408201524260548201526e14d15391115497d4d2125413515395608a1b6074820152836083820152608381526142a78161462f565b51902090604051602081019160043583528560601b16604082015242605482015270149150d15255915497d4d2125413515395607a1b6074820152836085820152608581526142f58161462f565b519020600435600052600f6020526040600020918255600182015560024291015562278d00420191824211612c7957602092600435600052600f84526003604060002001556009835260018060a01b0360086040600020015416906040519060018060a01b03168152827fa9041659dcc0c60de34ca5114e2c9ecca4c93e9a21c9d4e21f29bb0bd3d8cab88560043593a4604051908152f35b0151905088806141b8565b906004850160005260206000209160005b601f19851681106143f7575092600994926001926101409583601f198116106143de575b505050811b0160048501556141d0565b015160001960f88460031b161c191690558880806143ce565b919260206001819286850151815501940192016143aa565b600485016000526020600020601f840160051c81016020851061444f575b601f830160051c82018110614443575050614197565b6000815560010161442d565b508061442d565b015190508680614153565b9250600385016000526020600020906000935b601f19841685106144b8576001945083601f1981161061449f575b505050811b01600383015561416b565b015160001960f88460031b161c1916905586808061448f565b81810151835560209485019460019093019290910190614474565b909150600385016000526020600020601f840160051c81016020851061451f575b90849392915b601f830160051c8201811061451057505061413c565b600081558594506001016144fa565b50806144f4565b60405162461bcd60e51b815260206004820152603260248201527f50726f64756374206d757374206265207061636b61676564206f7220726563656044820152711a5d9959081d1bc81899481cda1a5c1c195960721b6064820152608490fd5b50600435600052600960205260ff60076040600020015416600681101561056f57600314613ffa565b602435906001600160a01b03821682036105a357565b600435906001600160a01b03821682036105a357565b61016081019081106001600160401b038211176104fe57604052565b6101c081019081106001600160401b038211176104fe57604052565b61012081019081106001600160401b038211176104fe57604052565b60c081019081106001600160401b038211176104fe57604052565b602081019081106001600160401b038211176104fe57604052565b608081019081106001600160401b038211176104fe57604052565b90601f801991011681019081106001600160401b038211176104fe57604052565b6001600160401b0381116104fe57601f01601f191660200190565b9291926146c8826146a1565b916146d66040519384614680565b8294818452818301116105a3578281602093846000960137010152565b9080601f830112156105a35781602061470e933591016146bc565b90565b60005b8381106147245750506000910152565b8181015183820152602001614714565b9060209161474d81518092818552858086019101614711565b601f01601f1916010190565b90600582101561056f5752565b60409060031901126105a3576004359060243590565b8054821015614798576000526009602060002091020190600090565b634e487b7160e01b600052603260045260246000fd5b90600182811c921680156147de575b60208310146147c857565b634e487b7160e01b600052602260045260246000fd5b91607f16916147bd565b90600092918054916147f9836147ae565b91828252600193848116908160001461485b575060011461481b575b50505050565b90919394506000526020928360002092846000945b838610614847575050505001019038808080614815565b805485870183015294019385908201614830565b9294505050602093945060ff191683830152151560051b01019038808080614815565b90600882101561056f5752565b60609060031901126105a3576001600160a01b039060043582811681036105a3579160243590811681036105a3579060443590565b80548210156147985760005260206000200190600090565b9060406003198301126105a35760043591602435906001600160401b0382116105a35761470e916004016146f3565b90600682101561056f5752565b3360009081527f5a4a839a8a41e9c56bead82789209cd708f718a22ba06c2110a5bfb3dc4b80bc60205260409020547fddaa901e2fe3bda354fe0ede2785152d5c109282a613fe024a056a3e66c41bb39060ff16156105855750565b3360009081527fa70365933f78520ef41d6645ba61e509916296603327302d41466c063e8e2608602052604090205460008051602061510f8339815191529060ff16156105855750565b80600052600760205260406000203360005260205260ff60406000205416156105855750565b906000918083526007602052604083209160018060a01b03169182845260205260ff60408420541615600014614a5b5780835260076020526040832082845260205260408320600160ff198254161790557f2f8788117e7eff1d82e926ec794901d17c78024a50270940304540a733656f0d339380a4600190565b505090565b906000918083526007602052604083209160018060a01b03169182845260205260ff604084205416600014614a5b578083526007602052604083208284526020526040832060ff1981541690557ff6391f5c32d9c69d2a47ea670b442974b53935d1edc7fd64eb21e047a839171b339380a4600190565b906001600160a01b03908116801561322d57600091848352602091600283526040928284862054166009825260ff600b8688200154169081614ca8575b50614c90579086918286526002815283858720541695869133151580614bfa575b509060027fddf252ad1be2c89b69c2b068fc378daa952ba7f163c4a11628f55a4df523b3ef9284614bc7575b85835260038152888320805460010190558683525286812080546001600160a01b0319168517905580a483168203614b995750505050565b516364283d7b60e01b81526001600160a01b0392831660048201526024810193909352166044820152606490fd5b600087815260046020526040902080546001600160a01b0319169055848352600381528883208054600019019055614b61565b91939450915080614c4f575b15614c1657879291869138614b35565b848887614c33576024915190637e27328960e01b82526004820152fd5b604491519063177e802f60e01b82523360048301526024820152fd5b503386148015614c74575b80614c065750878252600481523384868420541614614c06565b5085825260058152848220338352815260ff8583205416614c5a565b835162461bcd60e51b81528061147b60048201614f68565b9050151538614b14565b929092614cc0838583614ad7565b833b614ccc5750505050565b604051630a85bd0160e11b8082523360048301526001600160a01b0392831660248301526044820194909452608060648201529493169260209290918590614d18906084830190614734565b039483816000978189895af1869181614dc2575b50614d8d575050503d600014614d84573d614d46816146a1565b90614d546040519283614680565b81528093823d92013e5b82519283614d7f57604051633250574960e11b815260048101849052602490fd5b019050fd5b60609250614d5e565b919450915063ffffffff60e01b1603614daa575038808080614815565b60249060405190633250574960e11b82526004820152fd5b9091508481813d8311614dff575b614dda8183614680565b81010312614dfb57516001600160e01b031981168103614dfb579038614d2c565b8680fd5b503d614dd0565b6000818152600260205260409020546001600160a01b0316908115614e29575090565b60249060405190637e27328960e01b82526004820152fd5b6000198114612c795760010190565b15614e5757565b60405162461bcd60e51b8152602060048201526016602482015275141c9bd91d58dd08191bd95cc81b9bdd08195e1a5cdd60521b6044820152606490fd5b15614e9c57565b60405162461bcd60e51b815260206004820152601b60248201527f496e76616c69642064657374696e6174696f6e206164647265737300000000006044820152606490fd5b906001600160a01b03908181161561322d5783614efd91614fee565b908082169081614f2057604051637e27328960e01b815260048101869052602490fd5b831603614f2c57505050565b6040516364283d7b60e01b81526001600160a01b0392831660048201526024810193909352166044820152606490fd5b600882101561056f5752565b60809060208152602c60208201527f546f6b656e20697320736f756c626f756e6420616e642063616e6e6f7420626560408201526b081d1c985b9cd9995c9c995960a21b60608201520190565b6000908152600260205260409020546001600160a01b031615614fe957600960205260ff600b6040600020015460081c1690565b600090565b906000918183526020906002825260018060a01b039360408581832054166009855260ff600b83852001541690816150e4575b506150cd57907fddf252ad1be2c89b69c2b068fc378daa952ba7f163c4a11628f55a4df523b3ef918582526002855260028782842054169788958661509a575b169586615084575b87845252812080546001600160a01b0319168517905580a490565b8684526003815282842060018154019055615069565b600089815260046020526040902080546001600160a01b0319169055868552600388528385208054600019019055615061565b5162461bcd60e51b81528061147b60048201614f68565b905015153861502156fe1fee65bf2ede0d34fc746effd1d457315a439158afe48d47a09cd92b007fc242a49807205ce4d355092ef5a8a18f56e8913cf4a201fbe287825b095693c21775a26469706673582212209cf73ece2c54eb007e214b94be8cdfa63147e2872f36bbdbec7266af7e8ac8bc64736f6c634300081400332f8788117e7eff1d82e926ec794901d17c78024a50270940304540a733656f0d","opcodes":"PUSH1 0x80 CALLVALUE PUSH3 0x344 JUMPI PUSH1 0x1 PUSH1 0x1 PUSH1 0x40 SHL SUB SWAP1 PUSH1 0x40 SWAP1 DUP1 DUP3 ADD DUP4 DUP2 GT DUP3 DUP3 LT OR PUSH3 0x32E JUMPI DUP3 MSTORE PUSH1 0x15 DUP2 MSTORE PUSH1 0x20 SWAP3 PUSH32 0x50726F547261636B20537570706C7920436861696E0000000000000000000000 DUP5 DUP4 ADD MSTORE DUP3 MLOAD DUP4 DUP2 ADD DUP2 DUP2 LT DUP4 DUP3 GT OR PUSH3 0x32E JUMPI DUP5 MSTORE PUSH1 0x4 DUP2 MSTORE PUSH4 0x50545343 PUSH1 0xE0 SHL DUP6 DUP3 ADD MSTORE DUP3 MLOAD SWAP1 DUP3 DUP3 GT PUSH3 0x32E JUMPI PUSH1 0x0 DUP1 SLOAD SWAP3 PUSH1 0x1 SWAP6 DUP7 DUP6 DUP2 SHR SWAP6 AND DUP1 ISZERO PUSH3 0x323 JUMPI JUMPDEST DUP10 DUP7 LT EQ PUSH3 0x30F JUMPI DUP2 SWAP1 PUSH1 0x1F SWAP6 DUP7 DUP2 GT PUSH3 0x2BC JUMPI JUMPDEST POP DUP10 SWAP1 DUP7 DUP4 GT PUSH1 0x1 EQ PUSH3 0x258 JUMPI DUP5 SWAP3 PUSH3 0x24C JUMPI JUMPDEST POP POP PUSH1 0x0 NOT PUSH1 0x3 DUP4 SWAP1 SHL SHR NOT AND SWAP1 DUP7 SHL OR DUP2 SSTORE JUMPDEST DUP2 MLOAD SWAP4 DUP5 GT PUSH3 0x238 JUMPI DUP5 SLOAD DUP6 DUP2 DUP2 SHR SWAP2 AND DUP1 ISZERO PUSH3 0x22D JUMPI JUMPDEST DUP9 DUP3 LT EQ PUSH3 0x219 JUMPI DUP4 DUP2 GT PUSH3 0x1D1 JUMPI JUMPDEST POP DUP7 SWAP3 DUP5 GT PUSH1 0x1 EQ PUSH3 0x16B JUMPI DUP4 SWAP5 SWAP6 SWAP7 POP SWAP3 PUSH3 0x15F JUMPI JUMPDEST POP POP PUSH1 0x0 NOT PUSH1 0x3 DUP4 SWAP1 SHL SHR NOT AND SWAP1 DUP3 SHL OR DUP2 SSTORE JUMPDEST DUP1 PUSH1 0x8 SSTORE PUSH3 0x13D CALLER PUSH3 0x349 JUMP JUMPDEST POP PUSH3 0x149 CALLER PUSH3 0x3CA JUMP JUMPDEST POP DUP1 PUSH1 0x11 SSTORE PUSH1 0x12 SSTORE MLOAD PUSH2 0x5164 SWAP1 DUP2 PUSH3 0x46E DUP3 CODECOPY RETURN JUMPDEST ADD MLOAD SWAP1 POP CODESIZE DUP1 PUSH3 0x11A JUMP JUMPDEST SWAP2 SWAP1 PUSH1 0x1F NOT DUP5 AND SWAP7 DUP6 DUP5 MSTORE DUP1 DUP5 KECCAK256 SWAP4 SWAP1 JUMPDEST DUP9 DUP3 LT PUSH3 0x1B9 JUMPI POP POP DUP4 DUP6 SWAP7 SWAP8 LT PUSH3 0x19F JUMPI JUMPDEST POP POP POP DUP2 SHL ADD DUP2 SSTORE PUSH3 0x12E JUMP JUMPDEST ADD MLOAD PUSH1 0x0 NOT PUSH1 0xF8 DUP5 PUSH1 0x3 SHL AND SHR NOT AND SWAP1 SSTORE CODESIZE DUP1 DUP1 PUSH3 0x191 JUMP JUMPDEST DUP1 DUP8 DUP6 SWAP7 DUP3 SWAP5 SWAP7 DUP7 ADD MLOAD DUP2 SSTORE ADD SWAP6 ADD SWAP4 ADD SWAP1 PUSH3 0x17C JUMP JUMPDEST DUP6 DUP3 MSTORE DUP8 DUP3 KECCAK256 DUP5 DUP1 DUP8 ADD PUSH1 0x5 SHR DUP3 ADD SWAP3 DUP11 DUP9 LT PUSH3 0x20F JUMPI JUMPDEST ADD PUSH1 0x5 SHR ADD SWAP1 DUP7 SWAP1 JUMPDEST DUP3 DUP2 LT PUSH3 0x203 JUMPI POP POP PUSH3 0x101 JUMP JUMPDEST DUP4 DUP2 SSTORE ADD DUP7 SWAP1 PUSH3 0x1F3 JUMP JUMPDEST SWAP3 POP DUP2 SWAP3 PUSH3 0x1EA JUMP JUMPDEST PUSH4 0x4E487B71 PUSH1 0xE0 SHL DUP3 MSTORE PUSH1 0x22 PUSH1 0x4 MSTORE PUSH1 0x24 DUP3 REVERT JUMPDEST SWAP1 PUSH1 0x7F AND SWAP1 PUSH3 0xEF JUMP JUMPDEST PUSH4 0x4E487B71 PUSH1 0xE0 SHL DUP2 MSTORE PUSH1 0x41 PUSH1 0x4 MSTORE PUSH1 0x24 SWAP1 REVERT JUMPDEST ADD MLOAD SWAP1 POP CODESIZE DUP1 PUSH3 0xC1 JUMP JUMPDEST DUP5 DUP1 MSTORE DUP11 DUP6 KECCAK256 DUP10 SWAP5 POP SWAP2 SWAP1 PUSH1 0x1F NOT DUP5 AND DUP7 JUMPDEST DUP14 DUP3 DUP3 LT PUSH3 0x2A5 JUMPI POP POP DUP5 GT PUSH3 0x28B JUMPI JUMPDEST POP POP POP DUP2 SHL ADD DUP2 SSTORE PUSH3 0xD5 JUMP JUMPDEST ADD MLOAD PUSH1 0x0 NOT PUSH1 0xF8 DUP5 PUSH1 0x3 SHL AND SHR NOT AND SWAP1 SSTORE CODESIZE DUP1 DUP1 PUSH3 0x27D JUMP JUMPDEST DUP4 DUP6 ADD MLOAD DUP7 SSTORE DUP13 SWAP8 SWAP1 SWAP6 ADD SWAP5 SWAP4 DUP5 ADD SWAP4 ADD PUSH3 0x26A JUMP JUMPDEST SWAP1 SWAP2 POP DUP4 DUP1 MSTORE DUP10 DUP5 KECCAK256 DUP7 DUP1 DUP6 ADD PUSH1 0x5 SHR DUP3 ADD SWAP3 DUP13 DUP7 LT PUSH3 0x305 JUMPI JUMPDEST SWAP2 DUP11 SWAP2 DUP7 SWAP6 SWAP5 SWAP4 ADD PUSH1 0x5 SHR ADD SWAP2 JUMPDEST DUP3 DUP2 LT PUSH3 0x2F6 JUMPI POP POP PUSH3 0xAB JUMP JUMPDEST DUP7 DUP2 SSTORE DUP6 SWAP5 POP DUP11 SWAP2 ADD PUSH3 0x2E6 JUMP JUMPDEST SWAP3 POP DUP2 SWAP3 PUSH3 0x2D8 JUMP JUMPDEST PUSH4 0x4E487B71 PUSH1 0xE0 SHL DUP4 MSTORE PUSH1 0x22 PUSH1 0x4 MSTORE PUSH1 0x24 DUP4 REVERT JUMPDEST SWAP5 PUSH1 0x7F AND SWAP5 PUSH3 0x94 JUMP JUMPDEST PUSH4 0x4E487B71 PUSH1 0xE0 SHL PUSH1 0x0 MSTORE PUSH1 0x41 PUSH1 0x4 MSTORE PUSH1 0x24 PUSH1 0x0 REVERT JUMPDEST PUSH1 0x0 DUP1 REVERT JUMPDEST PUSH1 0x1 PUSH1 0x1 PUSH1 0xA0 SHL SUB AND PUSH1 0x0 DUP2 DUP2 MSTORE PUSH32 0x6D5257204EBE7D88FD91AE87941CB2DD9D8062B64AE5A2BD2D28EC40B9FBF6DF PUSH1 0x20 MSTORE PUSH1 0x40 DUP2 KECCAK256 SLOAD SWAP1 SWAP2 SWAP1 PUSH1 0xFF AND PUSH3 0x3C6 JUMPI DUP2 DUP1 MSTORE PUSH1 0x7 PUSH1 0x20 MSTORE PUSH1 0x40 DUP3 KECCAK256 DUP2 DUP4 MSTORE PUSH1 0x20 MSTORE PUSH1 0x40 DUP3 KECCAK256 PUSH1 0x1 PUSH1 0xFF NOT DUP3 SLOAD AND OR SWAP1 SSTORE CALLER SWAP2 PUSH1 0x0 DUP1 MLOAD PUSH1 0x20 PUSH3 0x55D2 DUP4 CODECOPY DUP2 MLOAD SWAP2 MSTORE DUP2 DUP1 LOG4 PUSH1 0x1 SWAP1 JUMP JUMPDEST POP SWAP1 JUMP JUMPDEST PUSH1 0x1 PUSH1 0x1 PUSH1 0xA0 SHL SUB AND PUSH1 0x0 DUP2 DUP2 MSTORE PUSH32 0xA70365933F78520EF41D6645BA61E509916296603327302D41466C063E8E2608 PUSH1 0x20 MSTORE PUSH1 0x40 DUP2 KECCAK256 SLOAD SWAP1 SWAP2 SWAP1 PUSH32 0xA49807205CE4D355092EF5A8A18F56E8913CF4A201FBE287825B095693C21775 SWAP1 PUSH1 0xFF AND PUSH3 0x468 JUMPI DUP1 DUP4 MSTORE PUSH1 0x7 PUSH1 0x20 MSTORE PUSH1 0x40 DUP4 KECCAK256 DUP3 DUP5 MSTORE PUSH1 0x20 MSTORE PUSH1 0x40 DUP4 KECCAK256 PUSH1 0x1 PUSH1 0xFF NOT DUP3 SLOAD AND OR SWAP1 SSTORE PUSH1 0x0 DUP1 MLOAD PUSH1 0x20 PUSH3 0x55D2 DUP4 CODECOPY DUP2 MLOAD SWAP2 MSTORE CALLER SWAP4 DUP1 LOG4 PUSH1 0x1 SWAP1 JUMP JUMPDEST POP POP SWAP1 JUMP INVALID PUSH1 0x80 PUSH1 0x40 MSTORE PUSH1 0x4 CALLDATASIZE LT ISZERO PUSH2 0x12 JUMPI PUSH1 0x0 DUP1 REVERT JUMPDEST PUSH1 0x0 CALLDATALOAD PUSH1 0xE0 SHR DUP1 PUSH4 0x1AB6E09 EQ PUSH2 0x3F4A JUMPI DUP1 PUSH4 0x1FFC9A7 EQ PUSH2 0x3EA9 JUMPI DUP1 PUSH4 0x6FDDE03 EQ PUSH2 0x3E06 JUMPI DUP1 PUSH4 0x7E2CEA5 EQ PUSH2 0x3DCB JUMPI DUP1 PUSH4 0x8021D1E EQ PUSH2 0x3DA3 JUMPI DUP1 PUSH4 0x81812FC EQ PUSH2 0x3D65 JUMPI DUP1 PUSH4 0x92B3740 EQ PUSH2 0x3B90 JUMPI DUP1 PUSH4 0x95EA7B3 EQ PUSH2 0x3AA9 JUMPI DUP1 PUSH4 0xC8B0E57 EQ PUSH2 0x39D2 JUMPI DUP1 PUSH4 0x1020F783 EQ PUSH2 0x38C6 JUMPI DUP1 PUSH4 0x115DA32E EQ PUSH2 0x37DA JUMPI DUP1 PUSH4 0x204D7923 EQ PUSH2 0x379F JUMPI DUP1 PUSH4 0x2115E7BF EQ PUSH2 0x3764 JUMPI DUP1 PUSH4 0x23B872DD EQ PUSH2 0x374D JUMPI DUP1 PUSH4 0x248A9CA3 EQ PUSH2 0x371E JUMPI DUP1 PUSH4 0x2927D1D9 EQ PUSH2 0x3627 JUMPI DUP1 PUSH4 0x2AC08A93 EQ PUSH2 0x3532 JUMPI DUP1 PUSH4 0x2F2FF15D EQ PUSH2 0x34F3 JUMPI DUP1 PUSH4 0x2FE9F958 EQ PUSH2 0x34B4 JUMPI DUP1 PUSH4 0x36568ABE EQ PUSH2 0x346D JUMPI DUP1 PUSH4 0x4037EE3F EQ PUSH2 0x3424 JUMPI DUP1 PUSH4 0x42842E0E EQ PUSH2 0x33FC JUMPI DUP1 PUSH4 0x4601BEF8 EQ PUSH2 0x24D6 JUMPI DUP1 PUSH4 0x48FD93D0 EQ PUSH2 0x2148 JUMPI DUP1 PUSH4 0x4A6323D6 EQ PUSH2 0x1ACB JUMPI DUP1 PUSH4 0x4BC39EC2 EQ PUSH2 0x19D4 JUMPI DUP1 PUSH4 0x4EABBE77 EQ PUSH2 0x1999 JUMPI DUP1 PUSH4 0x4EC0C9E9 EQ PUSH2 0x177B JUMPI DUP1 PUSH4 0x6352211E EQ PUSH2 0x174B JUMPI DUP1 PUSH4 0x6B1023DD EQ PUSH2 0x16FD JUMPI DUP1 PUSH4 0x70A08231 EQ PUSH2 0x16A4 JUMPI DUP1 PUSH4 0x75B238FC EQ PUSH2 0x167B JUMPI DUP1 PUSH4 0x7ACC0B20 EQ PUSH2 0x14C4 JUMPI DUP1 PUSH4 0x910BC3A1 EQ PUSH2 0x11F4 JUMPI DUP1 PUSH4 0x91D14854 EQ PUSH2 0x11A7 JUMPI DUP1 PUSH4 0x95D89B41 EQ PUSH2 0x10C8 JUMPI DUP1 PUSH4 0x965288B0 EQ PUSH2 0x108D JUMPI DUP1 PUSH4 0x9CE0F973 EQ PUSH2 0xF67 JUMPI DUP1 PUSH4 0xA217FDDF EQ PUSH2 0xF4B JUMPI DUP1 PUSH4 0xA22CB465 EQ PUSH2 0xE9D JUMPI DUP1 PUSH4 0xA40B9DDF EQ PUSH2 0xE62 JUMPI DUP1 PUSH4 0xA591EEA1 EQ PUSH2 0xDA7 JUMPI DUP1 PUSH4 0xB5788B49 EQ PUSH2 0xD5A JUMPI DUP1 PUSH4 0xB88D4FDE EQ PUSH2 0xCFB JUMPI DUP1 PUSH4 0xB9DB15B4 EQ PUSH2 0xA22 JUMPI DUP1 PUSH4 0xBEDD1136 EQ PUSH2 0x9C6 JUMPI DUP1 PUSH4 0xC87B56DD EQ PUSH2 0x95F JUMPI DUP1 PUSH4 0xCED2DEA4 EQ PUSH2 0x8B9 JUMPI DUP1 PUSH4 0xD547741F EQ PUSH2 0x878 JUMPI DUP1 PUSH4 0xD7CB8D34 EQ PUSH2 0x83D JUMPI DUP1 PUSH4 0xE3A3C522 EQ PUSH2 0x802 JUMPI DUP1 PUSH4 0xE985E9C5 EQ PUSH2 0x7AC JUMPI DUP1 PUSH4 0xEE83687B EQ PUSH2 0x5A8 JUMPI PUSH4 0xF04FE44E EQ PUSH2 0x26E JUMPI PUSH1 0x0 DUP1 REVERT JUMPDEST CALLVALUE PUSH2 0x5A3 JUMPI PUSH2 0x27C CALLDATASIZE PUSH2 0x48D8 JUMP JUMPDEST CALLER PUSH1 0x0 SWAP1 DUP2 MSTORE PUSH32 0xAC424760C614B43C69C667E7978906B93F2529D8F189750A0FE2C43D25B81208 PUSH1 0x20 SWAP1 DUP2 MSTORE PUSH1 0x40 SWAP1 SWAP2 KECCAK256 SLOAD SWAP1 SWAP2 SWAP1 PUSH32 0x6E94C7ED7681EDD364A52BA21181E7713B286D5C7E6BBACA72CFE62D41EA09D9 SWAP1 PUSH1 0xFF AND ISZERO PUSH2 0x585 JUMPI POP PUSH1 0x0 DUP4 DUP2 MSTORE PUSH1 0x2 DUP4 MSTORE PUSH1 0x40 SWAP1 KECCAK256 SLOAD PUSH2 0x2FE SWAP1 PUSH1 0x1 PUSH1 0x1 PUSH1 0xA0 SHL SUB AND ISZERO ISZERO PUSH2 0x4E50 JUMP JUMPDEST DUP3 PUSH1 0x0 MSTORE PUSH1 0x9 DUP3 MSTORE PUSH1 0xFF PUSH1 0x7 PUSH1 0x40 PUSH1 0x0 KECCAK256 ADD SLOAD AND PUSH1 0x6 DUP2 LT ISZERO PUSH2 0x56F JUMPI PUSH2 0x514 JUMPI DUP3 PUSH1 0x0 MSTORE PUSH1 0x9 DUP3 MSTORE PUSH1 0x3 PUSH1 0x40 PUSH1 0x0 KECCAK256 ADD SWAP1 DUP1 MLOAD SWAP2 PUSH1 0x1 PUSH1 0x1 PUSH1 0x40 SHL SUB DUP4 GT PUSH2 0x4FE JUMPI DUP5 SWAP3 PUSH2 0x34D DUP3 SLOAD PUSH2 0x47AE JUMP JUMPDEST PUSH1 0x1F DUP2 GT PUSH2 0x4A9 JUMPI JUMPDEST POP DUP5 PUSH1 0x1F DUP3 GT PUSH1 0x1 EQ PUSH2 0x40A JUMPI PUSH1 0x0 DUP1 MLOAD PUSH1 0x20 PUSH2 0x50EF DUP4 CODECOPY DUP2 MLOAD SWAP2 MSTORE SWAP6 SWAP4 PUSH1 0x40 SWAP6 SWAP4 DUP4 PUSH32 0xE96EF10F180F263BDEAC0D9641CF09DC9A2AA47FE9399F417C14A782338CBE10 SWAP5 PUSH2 0x3ED SWAP5 PUSH1 0x0 SWAP2 PUSH2 0x3FF JUMPI JUMPDEST POP DUP2 PUSH1 0x1 SHL SWAP2 PUSH1 0x0 NOT SWAP1 PUSH1 0x3 SHL SHR NOT AND OR SWAP1 SSTORE JUMPDEST DUP4 PUSH1 0x0 MSTORE PUSH1 0x9 DUP6 MSTORE DUP6 PUSH1 0x0 KECCAK256 PUSH1 0x7 DUP2 ADD PUSH1 0x1 PUSH1 0xFF NOT DUP3 SLOAD AND OR SWAP1 SSTORE PUSH1 0xA TIMESTAMP SWAP2 ADD SSTORE DUP6 MLOAD SWAP2 DUP3 SWAP2 DUP7 DUP4 MSTORE DUP7 DUP4 ADD SWAP1 PUSH2 0x4734 JUMP JUMPDEST SUB SWAP1 LOG2 DUP2 MLOAD SWAP1 PUSH1 0x1 DUP3 MSTORE CALLER SWAP1 DUP3 ADD MSTORE LOG2 STOP JUMPDEST SWAP1 POP DUP4 ADD MLOAD CODESIZE PUSH2 0x3A7 JUMP JUMPDEST PUSH1 0x1F NOT DUP3 AND SWAP1 DUP4 PUSH1 0x0 MSTORE DUP7 PUSH1 0x0 KECCAK256 SWAP2 PUSH1 0x0 JUMPDEST DUP2 DUP2 LT PUSH2 0x48F JUMPI POP SWAP4 PUSH1 0x1 DUP5 PUSH2 0x3ED SWAP5 PUSH1 0x0 DUP1 MLOAD PUSH1 0x20 PUSH2 0x50EF DUP4 CODECOPY DUP2 MLOAD SWAP2 MSTORE SWAP11 SWAP9 SWAP5 PUSH32 0xE96EF10F180F263BDEAC0D9641CF09DC9A2AA47FE9399F417C14A782338CBE10 SWAP8 PUSH1 0x40 SWAP12 SWAP10 LT PUSH2 0x476 JUMPI JUMPDEST POP POP DUP2 SHL ADD SWAP1 SSTORE PUSH2 0x3BB JUMP JUMPDEST DUP6 ADD MLOAD PUSH1 0x0 NOT PUSH1 0xF8 DUP5 PUSH1 0x3 SHL AND SHR NOT AND SWAP1 SSTORE CODESIZE DUP1 PUSH2 0x46A JUMP JUMPDEST DUP3 DUP8 ADD MLOAD DUP5 SSTORE DUP10 SWAP8 POP PUSH1 0x1 SWAP1 SWAP4 ADD SWAP3 SWAP2 DUP9 ADD SWAP2 DUP9 ADD PUSH2 0x41C JUMP JUMPDEST SWAP1 SWAP2 DUP1 SWAP4 SWAP5 POP PUSH1 0x0 MSTORE DUP5 PUSH1 0x0 KECCAK256 PUSH1 0x1F DUP4 ADD PUSH1 0x5 SHR DUP2 ADD SWAP2 DUP7 DUP5 LT PUSH2 0x4F4 JUMPI JUMPDEST SWAP1 PUSH1 0x1F DUP9 SWAP7 SWAP6 SWAP5 SWAP4 SWAP3 ADD PUSH1 0x5 SHR ADD SWAP1 JUMPDEST DUP2 DUP2 LT PUSH2 0x4E5 JUMPI POP PUSH2 0x356 JUMP JUMPDEST PUSH1 0x0 DUP2 SSTORE DUP8 SWAP6 POP PUSH1 0x1 ADD PUSH2 0x4D8 JUMP JUMPDEST SWAP1 SWAP2 POP DUP2 SWAP1 PUSH2 0x4C8 JUMP JUMPDEST PUSH4 0x4E487B71 PUSH1 0xE0 SHL PUSH1 0x0 MSTORE PUSH1 0x41 PUSH1 0x4 MSTORE PUSH1 0x24 PUSH1 0x0 REVERT JUMPDEST PUSH1 0x40 MLOAD PUSH3 0x461BCD PUSH1 0xE5 SHL DUP2 MSTORE PUSH1 0x4 DUP2 ADD DUP4 SWAP1 MSTORE PUSH1 0x2D PUSH1 0x24 DUP3 ADD MSTORE PUSH32 0x50726F64756374206D757374206265206D616E75666163747572656420626566 PUSH1 0x44 DUP3 ADD MSTORE PUSH13 0x6F7265207061636B6167696E67 PUSH1 0x98 SHL PUSH1 0x64 DUP3 ADD MSTORE PUSH1 0x84 SWAP1 REVERT JUMPDEST PUSH4 0x4E487B71 PUSH1 0xE0 SHL PUSH1 0x0 MSTORE PUSH1 0x21 PUSH1 0x4 MSTORE PUSH1 0x24 PUSH1 0x0 REVERT JUMPDEST PUSH1 0x44 SWAP1 PUSH1 0x40 MLOAD SWAP1 PUSH4 0xE2517D3F PUSH1 0xE0 SHL DUP3 MSTORE CALLER PUSH1 0x4 DUP4 ADD MSTORE PUSH1 0x24 DUP3 ADD MSTORE REVERT JUMPDEST PUSH1 0x0 DUP1 REVERT JUMPDEST CALLVALUE PUSH2 0x5A3 JUMPI PUSH1 0x20 DUP1 PUSH1 0x3 NOT CALLDATASIZE ADD SLT PUSH2 0x5A3 JUMPI PUSH1 0x4 CALLDATALOAD PUSH1 0x0 MSTORE PUSH1 0xB DUP2 MSTORE PUSH1 0x40 PUSH1 0x0 KECCAK256 SWAP1 DUP2 SLOAD SWAP2 PUSH1 0x1 PUSH1 0x1 PUSH1 0x40 SHL SUB DUP4 GT PUSH2 0x4FE JUMPI PUSH1 0x40 MLOAD SWAP2 PUSH1 0x5 SWAP4 PUSH2 0x5F0 DUP3 DUP3 DUP8 SHL ADD DUP6 PUSH2 0x4680 JUMP JUMPDEST DUP1 DUP5 MSTORE DUP2 DUP5 ADD DUP1 SWAP4 PUSH1 0x0 MSTORE DUP3 PUSH1 0x0 KECCAK256 PUSH1 0x0 SWAP2 JUMPDEST DUP4 DUP4 LT PUSH2 0x6EB JUMPI POP POP POP POP PUSH1 0x40 MLOAD SWAP3 DUP2 DUP5 ADD SWAP1 DUP3 DUP6 MSTORE MLOAD DUP1 SWAP2 MSTORE PUSH1 0x40 DUP2 DUP2 DUP7 ADD SWAP7 SHL DUP6 ADD ADD SWAP3 SWAP2 PUSH1 0x0 SWAP6 JUMPDEST DUP3 DUP8 LT PUSH2 0x63B JUMPI DUP6 DUP6 SUB DUP7 RETURN JUMPDEST SWAP1 SWAP2 SWAP3 SWAP4 DUP3 DUP1 PUSH2 0x6DB PUSH1 0x1 SWAP4 PUSH1 0x3F NOT DUP11 DUP3 SUB ADD DUP7 MSTORE DUP9 MLOAD DUP1 MLOAD DUP3 MSTORE PUSH2 0x666 DUP5 DUP3 ADD MLOAD DUP6 DUP5 ADD SWAP1 PUSH2 0x487E JUMP JUMPDEST PUSH1 0x40 DUP2 ADD MLOAD PUSH1 0x40 DUP4 ADD MSTORE PUSH2 0x6A0 PUSH2 0x68D PUSH1 0x60 DUP1 DUP5 ADD MLOAD SWAP1 PUSH2 0x120 DUP1 SWAP2 DUP8 ADD MSTORE DUP6 ADD SWAP1 PUSH2 0x4734 JUMP JUMPDEST PUSH1 0x80 DUP1 DUP5 ADD MLOAD SWAP1 DUP6 DUP4 SUB SWAP1 DUP7 ADD MSTORE PUSH2 0x4734 JUMP JUMPDEST SWAP2 PUSH1 0xA0 DUP8 DUP1 PUSH1 0xA0 SHL SUB DUP2 DUP5 ADD MLOAD AND SWAP1 DUP3 ADD MSTORE PUSH1 0xC0 DUP1 DUP4 ADD MLOAD SWAP1 DUP3 ADD MSTORE PUSH1 0xE0 DUP3 ADD MLOAD ISZERO ISZERO PUSH1 0xE0 DUP3 ADD MSTORE PUSH2 0x100 DUP1 SWAP3 ADD MLOAD SWAP2 DUP2 DUP5 SUB SWAP2 ADD MSTORE PUSH2 0x4734 JUMP JUMPDEST SWAP7 ADD SWAP3 ADD SWAP7 ADD SWAP6 SWAP3 SWAP2 SWAP1 SWAP3 PUSH2 0x62E JUMP JUMPDEST PUSH1 0x9 DUP6 PUSH1 0x1 SWAP3 PUSH1 0x40 SWAP10 SWAP8 SWAP10 MLOAD PUSH2 0x700 DUP2 PUSH2 0x4613 JUMP JUMPDEST DUP6 SLOAD DUP2 MSTORE PUSH1 0xFF PUSH2 0x717 DUP2 DUP8 DUP10 ADD SLOAD AND DUP6 DUP5 ADD PUSH2 0x4F5C JUMP JUMPDEST PUSH1 0x2 DUP8 ADD SLOAD PUSH1 0x40 DUP4 ADD MSTORE PUSH1 0x40 MLOAD PUSH2 0x73C DUP2 PUSH2 0x735 DUP2 PUSH1 0x3 DUP13 ADD PUSH2 0x47E8 JUMP JUMPDEST SUB DUP3 PUSH2 0x4680 JUMP JUMPDEST PUSH1 0x60 DUP4 ADD MSTORE PUSH1 0x40 MLOAD PUSH2 0x755 DUP2 PUSH2 0x735 DUP2 PUSH1 0x4 DUP13 ADD PUSH2 0x47E8 JUMP JUMPDEST PUSH1 0x80 DUP4 ADD MSTORE DUP6 DUP1 PUSH1 0xA0 SHL SUB DUP14 DUP9 ADD SLOAD AND PUSH1 0xA0 DUP4 ADD MSTORE PUSH1 0x6 DUP8 ADD SLOAD PUSH1 0xC0 DUP4 ADD MSTORE PUSH1 0x7 DUP8 ADD SLOAD AND ISZERO ISZERO PUSH1 0xE0 DUP3 ADD MSTORE PUSH1 0x40 MLOAD PUSH2 0x795 DUP2 PUSH2 0x735 DUP2 PUSH1 0x8 DUP12 ADD PUSH2 0x47E8 JUMP JUMPDEST PUSH2 0x100 DUP3 ADD MSTORE DUP2 MSTORE ADD SWAP3 ADD SWAP3 ADD SWAP2 SWAP1 SWAP6 SWAP4 SWAP6 PUSH2 0x603 JUMP JUMPDEST CALLVALUE PUSH2 0x5A3 JUMPI PUSH1 0x40 CALLDATASIZE PUSH1 0x3 NOT ADD SLT PUSH2 0x5A3 JUMPI PUSH2 0x7C5 PUSH2 0x45C5 JUMP JUMPDEST PUSH2 0x7CD PUSH2 0x45AF JUMP JUMPDEST SWAP1 PUSH1 0x1 DUP1 PUSH1 0xA0 SHL SUB DUP1 SWAP2 AND PUSH1 0x0 MSTORE PUSH1 0x5 PUSH1 0x20 MSTORE PUSH1 0x40 PUSH1 0x0 KECCAK256 SWAP2 AND PUSH1 0x0 MSTORE PUSH1 0x20 MSTORE PUSH1 0x20 PUSH1 0xFF PUSH1 0x40 PUSH1 0x0 KECCAK256 SLOAD AND PUSH1 0x40 MLOAD SWAP1 ISZERO ISZERO DUP2 MSTORE RETURN JUMPDEST CALLVALUE PUSH2 0x5A3 JUMPI PUSH1 0x0 CALLDATASIZE PUSH1 0x3 NOT ADD SLT PUSH2 0x5A3 JUMPI PUSH1 0x20 PUSH1 0x40 MLOAD PUSH32 0x273DCF2136C7D8EF632BB8EF13DBCA69A8F36FA620C7468671B3153D46A211C0 DUP2 MSTORE RETURN JUMPDEST CALLVALUE PUSH2 0x5A3 JUMPI PUSH1 0x0 CALLDATASIZE PUSH1 0x3 NOT ADD SLT PUSH2 0x5A3 JUMPI PUSH1 0x20 PUSH1 0x40 MLOAD PUSH32 0xE34AAECBFE1F40867DCBA8678FBED9F4FFA5782221FA3BB500B71B2A80430318 DUP2 MSTORE RETURN JUMPDEST CALLVALUE PUSH2 0x5A3 JUMPI PUSH1 0x40 CALLDATASIZE PUSH1 0x3 NOT ADD SLT PUSH2 0x5A3 JUMPI PUSH2 0x8B7 PUSH1 0x4 CALLDATALOAD PUSH2 0x897 PUSH2 0x45AF JUMP JUMPDEST SWAP1 DUP1 PUSH1 0x0 MSTORE PUSH1 0x7 PUSH1 0x20 MSTORE PUSH2 0x8B2 PUSH1 0x1 PUSH1 0x40 PUSH1 0x0 KECCAK256 ADD SLOAD PUSH2 0x49BA JUMP JUMPDEST PUSH2 0x4A60 JUMP JUMPDEST STOP JUMPDEST CALLVALUE PUSH2 0x5A3 JUMPI PUSH1 0x20 DUP1 PUSH1 0x3 NOT CALLDATASIZE ADD SLT PUSH2 0x5A3 JUMPI PUSH1 0x4 CALLDATALOAD PUSH1 0x0 MSTORE PUSH1 0xE DUP2 MSTORE PUSH1 0x40 PUSH1 0x0 KECCAK256 PUSH1 0x40 MLOAD SWAP1 DUP2 DUP4 DUP3 SLOAD SWAP2 DUP3 DUP2 MSTORE ADD SWAP1 DUP2 SWAP3 PUSH1 0x0 MSTORE DUP5 PUSH1 0x0 KECCAK256 SWAP1 PUSH1 0x0 JUMPDEST DUP7 DUP3 DUP3 LT PUSH2 0x94B JUMPI DUP7 DUP7 PUSH2 0x90B DUP3 DUP9 SUB DUP4 PUSH2 0x4680 JUMP JUMPDEST PUSH1 0x40 MLOAD SWAP3 DUP4 SWAP3 DUP2 DUP5 ADD SWAP1 DUP3 DUP6 MSTORE MLOAD DUP1 SWAP2 MSTORE PUSH1 0x40 DUP5 ADD SWAP3 SWAP2 PUSH1 0x0 JUMPDEST DUP3 DUP2 LT PUSH2 0x934 JUMPI POP POP POP POP SUB SWAP1 RETURN JUMPDEST DUP4 MLOAD DUP6 MSTORE DUP7 SWAP6 POP SWAP4 DUP2 ADD SWAP4 SWAP3 DUP2 ADD SWAP3 PUSH1 0x1 ADD PUSH2 0x925 JUMP JUMPDEST DUP4 SLOAD DUP6 MSTORE SWAP1 SWAP4 ADD SWAP3 PUSH1 0x1 SWAP3 DUP4 ADD SWAP3 ADD PUSH2 0x8F5 JUMP JUMPDEST CALLVALUE PUSH2 0x5A3 JUMPI PUSH1 0x20 CALLDATASIZE PUSH1 0x3 NOT ADD SLT PUSH2 0x5A3 JUMPI PUSH1 0x4 CALLDATALOAD PUSH2 0x97C DUP2 PUSH2 0x4E06 JUMP JUMPDEST POP PUSH1 0x0 MSTORE PUSH1 0x6 PUSH1 0x20 MSTORE PUSH2 0x9C2 PUSH2 0x735 PUSH2 0x99F PUSH1 0x40 PUSH1 0x0 KECCAK256 PUSH1 0x40 MLOAD SWAP3 DUP4 DUP1 SWAP3 PUSH2 0x47E8 JUMP JUMPDEST PUSH1 0x0 PUSH1 0x40 MLOAD PUSH2 0x9AD DUP2 PUSH2 0x464A JUMP JUMPDEST MSTORE PUSH1 0x40 MLOAD SWAP2 DUP3 SWAP2 PUSH1 0x20 DUP4 MSTORE PUSH1 0x20 DUP4 ADD SWAP1 PUSH2 0x4734 JUMP JUMPDEST SUB SWAP1 RETURN JUMPDEST CALLVALUE PUSH2 0x5A3 JUMPI PUSH1 0x20 CALLDATASIZE PUSH1 0x3 NOT ADD SLT PUSH2 0x5A3 JUMPI PUSH1 0x4 CALLDATALOAD PUSH1 0x1 PUSH1 0x1 PUSH1 0x40 SHL SUB DUP2 GT PUSH2 0x5A3 JUMPI PUSH2 0xA0F PUSH1 0x20 PUSH2 0x9FC DUP2 SWAP4 CALLDATASIZE SWAP1 PUSH1 0x4 ADD PUSH2 0x46F3 JUMP JUMPDEST DUP2 PUSH1 0x40 MLOAD SWAP4 DUP3 DUP6 DUP1 SWAP5 MLOAD SWAP4 DUP5 SWAP3 ADD PUSH2 0x4711 JUMP JUMPDEST DUP2 ADD PUSH1 0xC DUP2 MSTORE SUB ADD SWAP1 KECCAK256 SLOAD PUSH1 0x40 MLOAD SWAP1 DUP2 MSTORE RETURN JUMPDEST CALLVALUE PUSH2 0x5A3 JUMPI PUSH1 0x20 CALLDATASIZE PUSH1 0x3 NOT ADD SLT PUSH2 0x5A3 JUMPI PUSH1 0x4 CALLDATALOAD PUSH1 0x0 PUSH2 0x1A0 PUSH1 0x40 MLOAD PUSH2 0xA47 DUP2 PUSH2 0x45F7 JUMP JUMPDEST PUSH1 0x60 DUP2 MSTORE PUSH1 0x60 PUSH1 0x20 DUP3 ADD MSTORE PUSH1 0x60 PUSH1 0x40 DUP3 ADD MSTORE PUSH1 0x60 DUP1 DUP3 ADD MSTORE DUP3 PUSH1 0x80 DUP3 ADD MSTORE DUP3 PUSH1 0xA0 DUP3 ADD MSTORE PUSH1 0x60 PUSH1 0xC0 DUP3 ADD MSTORE DUP3 PUSH1 0xE0 DUP3 ADD MSTORE DUP3 PUSH2 0x100 DUP3 ADD MSTORE DUP3 PUSH2 0x120 DUP3 ADD MSTORE PUSH1 0x60 PUSH2 0x140 DUP3 ADD MSTORE DUP3 PUSH2 0x160 DUP3 ADD MSTORE DUP3 PUSH2 0x180 DUP3 ADD MSTORE ADD MSTORE DUP1 PUSH1 0x0 MSTORE PUSH1 0x2 PUSH1 0x20 MSTORE PUSH2 0xABF PUSH1 0x1 DUP1 PUSH1 0xA0 SHL SUB PUSH1 0x40 PUSH1 0x0 KECCAK256 SLOAD AND ISZERO ISZERO PUSH2 0x4E50 JUMP JUMPDEST PUSH1 0x0 MSTORE PUSH1 0x9 PUSH1 0x20 MSTORE PUSH1 0x40 PUSH1 0x0 KECCAK256 PUSH1 0x40 MLOAD SWAP1 PUSH2 0xAD9 DUP3 PUSH2 0x45F7 JUMP JUMPDEST PUSH1 0x40 MLOAD PUSH2 0xAEA DUP2 PUSH2 0x735 DUP2 DUP6 PUSH2 0x47E8 JUMP JUMPDEST DUP3 MSTORE PUSH1 0x40 MLOAD PUSH2 0xB00 DUP2 PUSH2 0x735 DUP2 PUSH1 0x1 DUP7 ADD PUSH2 0x47E8 JUMP JUMPDEST PUSH1 0x20 DUP4 ADD MSTORE PUSH1 0x40 MLOAD PUSH2 0xB19 DUP2 PUSH2 0x735 DUP2 PUSH1 0x2 DUP7 ADD PUSH2 0x47E8 JUMP JUMPDEST PUSH1 0x40 DUP4 ADD MSTORE PUSH1 0x40 MLOAD PUSH2 0xB32 DUP2 PUSH2 0x735 DUP2 PUSH1 0x3 DUP7 ADD PUSH2 0x47E8 JUMP JUMPDEST PUSH1 0x60 DUP4 ADD MSTORE PUSH1 0x4 DUP2 ADD SLOAD PUSH1 0x80 DUP4 ADD MSTORE PUSH1 0x5 DUP2 ADD SLOAD PUSH1 0xA0 DUP4 ADD MSTORE PUSH1 0x40 MLOAD PUSH2 0xB5F DUP2 PUSH2 0x735 DUP2 PUSH1 0x6 DUP7 ADD PUSH2 0x47E8 JUMP JUMPDEST PUSH1 0xC0 DUP4 ADD MSTORE PUSH1 0x7 DUP2 ADD SLOAD PUSH1 0x6 PUSH1 0xFF DUP3 AND LT ISZERO PUSH2 0x56F JUMPI PUSH1 0xFF DUP2 DUP2 AND PUSH1 0xE0 DUP6 ADD MSTORE PUSH1 0x1 PUSH1 0x1 PUSH1 0xA0 SHL SUB PUSH1 0x8 SWAP3 DUP4 SHR DUP2 AND PUSH2 0x100 DUP7 ADD MSTORE SWAP2 DUP4 ADD SLOAD SWAP1 SWAP2 AND PUSH2 0x120 DUP5 ADD MSTORE PUSH1 0x40 MLOAD SWAP1 SWAP2 PUSH1 0xB SWAP2 PUSH2 0xBBA DUP2 PUSH2 0x735 DUP2 PUSH1 0x9 DUP7 ADD PUSH2 0x47E8 JUMP JUMPDEST PUSH2 0x140 DUP6 ADD MSTORE PUSH1 0xA DUP2 ADD SLOAD PUSH2 0x160 DUP6 ADD MSTORE ADD SLOAD DUP2 DUP2 AND ISZERO ISZERO PUSH2 0x180 DUP5 ADD MSTORE PUSH1 0x8 SHR AND ISZERO ISZERO PUSH2 0x1A0 DUP3 ADD MSTORE PUSH1 0x40 MLOAD DUP1 SWAP2 PUSH1 0x20 DUP3 MSTORE PUSH2 0x1A0 PUSH2 0xCD4 PUSH2 0xC83 PUSH2 0xC59 PUSH2 0xC43 PUSH2 0xC2D PUSH2 0xC17 DUP8 MLOAD PUSH2 0x1C0 PUSH1 0x20 DUP12 ADD MSTORE PUSH2 0x1E0 DUP11 ADD SWAP1 PUSH2 0x4734 JUMP JUMPDEST PUSH1 0x20 DUP9 ADD MLOAD DUP10 DUP3 SUB PUSH1 0x1F NOT ADD PUSH1 0x40 DUP12 ADD MSTORE PUSH2 0x4734 JUMP JUMPDEST PUSH1 0x40 DUP8 ADD MLOAD DUP9 DUP3 SUB PUSH1 0x1F NOT ADD PUSH1 0x60 DUP11 ADD MSTORE PUSH2 0x4734 JUMP JUMPDEST PUSH1 0x60 DUP7 ADD MLOAD DUP8 DUP3 SUB PUSH1 0x1F NOT ADD PUSH1 0x80 DUP10 ADD MSTORE PUSH2 0x4734 JUMP JUMPDEST PUSH1 0x80 DUP6 ADD MLOAD PUSH1 0xA0 DUP8 ADD MSTORE PUSH1 0xA0 DUP6 ADD MLOAD PUSH1 0xC0 DUP8 ADD MSTORE PUSH1 0xC0 DUP6 ADD MLOAD PUSH1 0x1F NOT DUP8 DUP4 SUB ADD PUSH1 0xE0 DUP9 ADD MSTORE PUSH2 0x4734 JUMP JUMPDEST PUSH2 0xC96 PUSH1 0xE0 DUP6 ADD MLOAD PUSH2 0x100 DUP8 ADD SWAP1 PUSH2 0x4907 JUMP JUMPDEST PUSH2 0x100 DUP5 ADD MLOAD PUSH1 0x1 PUSH1 0x1 PUSH1 0xA0 SHL SUB SWAP1 DUP2 AND PUSH2 0x120 DUP8 DUP2 ADD SWAP2 SWAP1 SWAP2 MSTORE DUP6 ADD MLOAD AND PUSH2 0x140 DUP1 DUP8 ADD SWAP2 SWAP1 SWAP2 MSTORE DUP5 ADD MLOAD DUP6 DUP3 SUB PUSH1 0x1F NOT ADD PUSH2 0x160 DUP8 ADD MSTORE PUSH2 0x4734 JUMP JUMPDEST SWAP2 PUSH2 0x160 DUP2 ADD MLOAD PUSH2 0x180 DUP6 ADD MSTORE PUSH2 0x180 DUP2 ADD MLOAD ISZERO ISZERO DUP3 DUP6 ADD MSTORE ADD MLOAD ISZERO ISZERO PUSH2 0x1C0 DUP4 ADD MSTORE SUB SWAP1 RETURN JUMPDEST CALLVALUE PUSH2 0x5A3 JUMPI PUSH1 0x80 CALLDATASIZE PUSH1 0x3 NOT ADD SLT PUSH2 0x5A3 JUMPI PUSH2 0xD14 PUSH2 0x45C5 JUMP JUMPDEST PUSH2 0xD1C PUSH2 0x45AF JUMP JUMPDEST PUSH1 0x64 CALLDATALOAD SWAP2 PUSH1 0x1 PUSH1 0x1 PUSH1 0x40 SHL SUB DUP4 GT PUSH2 0x5A3 JUMPI CALLDATASIZE PUSH1 0x23 DUP5 ADD SLT ISZERO PUSH2 0x5A3 JUMPI PUSH2 0xD50 PUSH2 0x8B7 SWAP4 CALLDATASIZE SWAP1 PUSH1 0x24 DUP2 PUSH1 0x4 ADD CALLDATALOAD SWAP2 ADD PUSH2 0x46BC JUMP JUMPDEST SWAP2 PUSH1 0x44 CALLDATALOAD SWAP2 PUSH2 0x4CB2 JUMP JUMPDEST CALLVALUE PUSH2 0x5A3 JUMPI PUSH1 0x40 CALLDATASIZE PUSH1 0x3 NOT ADD SLT PUSH2 0x5A3 JUMPI PUSH2 0xD73 PUSH2 0x45AF JUMP JUMPDEST PUSH1 0x4 CALLDATALOAD PUSH1 0x0 MSTORE PUSH1 0x10 PUSH1 0x20 MSTORE PUSH1 0x40 PUSH1 0x0 KECCAK256 SWAP1 PUSH1 0x1 DUP1 PUSH1 0xA0 SHL SUB AND PUSH1 0x0 MSTORE PUSH1 0x20 MSTORE PUSH1 0x20 PUSH1 0xFF PUSH1 0x40 PUSH1 0x0 KECCAK256 SLOAD AND PUSH1 0x40 MLOAD SWAP1 ISZERO ISZERO DUP2 MSTORE RETURN JUMPDEST CALLVALUE PUSH2 0x5A3 JUMPI PUSH1 0x20 CALLDATASIZE PUSH1 0x3 NOT ADD SLT PUSH2 0x5A3 JUMPI PUSH1 0x4 CALLDATALOAD PUSH2 0xDC3 PUSH2 0x4970 JUMP JUMPDEST PUSH1 0x0 DUP2 DUP2 MSTORE PUSH1 0x2 PUSH1 0x20 MSTORE PUSH1 0x40 SWAP1 KECCAK256 SLOAD PUSH2 0xDE6 SWAP1 PUSH1 0x1 PUSH1 0x1 PUSH1 0xA0 SHL SUB AND ISZERO ISZERO PUSH2 0x4E50 JUMP JUMPDEST DUP1 PUSH1 0x0 MSTORE PUSH1 0x9 PUSH1 0x20 MSTORE PUSH1 0xFF PUSH1 0xB PUSH1 0x40 PUSH1 0x0 KECCAK256 ADD SLOAD AND PUSH2 0xE1D JUMPI PUSH1 0x0 SWAP1 DUP2 MSTORE PUSH1 0x9 PUSH1 0x20 MSTORE PUSH1 0x40 SWAP1 KECCAK256 PUSH1 0xB ADD DUP1 SLOAD PUSH1 0xFF NOT AND PUSH1 0x1 OR SWAP1 SSTORE STOP JUMPDEST PUSH1 0x40 MLOAD PUSH3 0x461BCD PUSH1 0xE5 SHL DUP2 MSTORE PUSH1 0x20 PUSH1 0x4 DUP3 ADD MSTORE PUSH1 0x17 PUSH1 0x24 DUP3 ADD MSTORE PUSH32 0x546F6B656E20616C726561647920736F756C626F756E64000000000000000000 PUSH1 0x44 DUP3 ADD MSTORE PUSH1 0x64 SWAP1 REVERT JUMPDEST CALLVALUE PUSH2 0x5A3 JUMPI PUSH1 0x0 CALLDATASIZE PUSH1 0x3 NOT ADD SLT PUSH2 0x5A3 JUMPI PUSH1 0x20 PUSH1 0x40 MLOAD PUSH32 0x6E94C7ED7681EDD364A52BA21181E7713B286D5C7E6BBACA72CFE62D41EA09D9 DUP2 MSTORE RETURN JUMPDEST CALLVALUE PUSH2 0x5A3 JUMPI PUSH1 0x40 CALLDATASIZE PUSH1 0x3 NOT ADD SLT PUSH2 0x5A3 JUMPI PUSH2 0xEB6 PUSH2 0x45C5 JUMP JUMPDEST PUSH1 0x24 CALLDATALOAD SWAP1 DUP2 ISZERO ISZERO SWAP1 DUP2 DUP4 SUB PUSH2 0x5A3 JUMPI PUSH1 0x1 PUSH1 0x1 PUSH1 0xA0 SHL SUB AND SWAP2 DUP3 ISZERO PUSH2 0xF32 JUMPI PUSH2 0xF04 SWAP1 CALLER PUSH1 0x0 MSTORE PUSH1 0x5 PUSH1 0x20 MSTORE PUSH1 0x40 PUSH1 0x0 KECCAK256 DUP5 PUSH1 0x0 MSTORE PUSH1 0x20 MSTORE PUSH1 0x40 PUSH1 0x0 KECCAK256 SWAP1 PUSH1 0xFF DUP1 NOT DUP4 SLOAD AND SWAP2 ISZERO ISZERO AND OR SWAP1 SSTORE JUMP JUMPDEST PUSH1 0x40 MLOAD SWAP1 DUP2 MSTORE PUSH32 0x17307EAB39AB6107E8899845AD3D59BD9653F200F220920489CA2B5937696C31 PUSH1 0x20 CALLER SWAP3 LOG3 STOP JUMPDEST PUSH1 0x40 MLOAD PUSH4 0xB611743 PUSH1 0xE3 SHL DUP2 MSTORE PUSH1 0x4 DUP2 ADD DUP5 SWAP1 MSTORE PUSH1 0x24 SWAP1 REVERT JUMPDEST CALLVALUE PUSH2 0x5A3 JUMPI PUSH1 0x0 CALLDATASIZE PUSH1 0x3 NOT ADD SLT PUSH2 0x5A3 JUMPI PUSH1 0x20 PUSH1 0x40 MLOAD PUSH1 0x0 DUP2 MSTORE RETURN JUMPDEST CALLVALUE PUSH2 0x5A3 JUMPI PUSH2 0xF75 CALLDATASIZE PUSH2 0x48D8 JUMP JUMPDEST PUSH2 0xF7D PUSH2 0x4970 JUMP JUMPDEST DUP2 PUSH1 0x0 MSTORE PUSH1 0x20 SWAP1 PUSH1 0x2 DUP3 MSTORE PUSH2 0xFA0 PUSH1 0x1 DUP1 PUSH1 0xA0 SHL SUB PUSH1 0x40 PUSH1 0x0 KECCAK256 SLOAD AND ISZERO ISZERO PUSH2 0x4E50 JUMP JUMPDEST DUP3 PUSH1 0x0 MSTORE PUSH1 0x9 DUP3 MSTORE PUSH1 0xFF PUSH1 0xB PUSH1 0x40 PUSH1 0x0 KECCAK256 ADD SLOAD PUSH1 0x8 SHR AND PUSH2 0x1048 JUMPI PUSH1 0x0 DUP1 MLOAD PUSH1 0x20 PUSH2 0x50EF DUP4 CODECOPY DUP2 MLOAD SWAP2 MSTORE SWAP2 PUSH1 0x40 SWAP2 DUP5 PUSH1 0x0 MSTORE PUSH1 0x9 DUP3 MSTORE DUP3 PUSH1 0x0 KECCAK256 PUSH1 0xB DUP2 ADD PUSH2 0x100 PUSH2 0xFF00 NOT DUP3 SLOAD AND OR SWAP1 SSTORE PUSH1 0x7 DUP2 ADD PUSH1 0x5 PUSH1 0xFF NOT DUP3 SLOAD AND OR SWAP1 SSTORE PUSH1 0xA TIMESTAMP SWAP2 ADD SSTORE DUP5 PUSH32 0xC836B58F1D2B092E3AF919AAE9A0607BB0C4FE552AA37D0D7ED26885488B7399 DUP5 MLOAD DUP5 DUP2 MSTORE DUP1 PUSH2 0x1036 CALLER SWAP6 DUP8 DUP4 ADD SWAP1 PUSH2 0x4734 JUMP JUMPDEST SUB SWAP1 LOG3 DUP2 MLOAD SWAP1 PUSH1 0x5 DUP3 MSTORE CALLER SWAP1 DUP3 ADD MSTORE LOG2 STOP JUMPDEST PUSH1 0x40 MLOAD PUSH3 0x461BCD PUSH1 0xE5 SHL DUP2 MSTORE PUSH1 0x4 DUP2 ADD DUP4 SWAP1 MSTORE PUSH1 0x18 PUSH1 0x24 DUP3 ADD MSTORE PUSH32 0x50726F6475637420616C726561647920726563616C6C65640000000000000000 PUSH1 0x44 DUP3 ADD MSTORE PUSH1 0x64 SWAP1 REVERT JUMPDEST CALLVALUE PUSH2 0x5A3 JUMPI PUSH1 0x0 CALLDATASIZE PUSH1 0x3 NOT ADD SLT PUSH2 0x5A3 JUMPI PUSH1 0x20 PUSH1 0x40 MLOAD PUSH32 0xEEFB95E842A3287179D933B4460BE539A1D5AF11AA8B325BB45C5C8DC92DE4ED DUP2 MSTORE RETURN JUMPDEST CALLVALUE PUSH2 0x5A3 JUMPI PUSH1 0x0 CALLDATASIZE PUSH1 0x3 NOT ADD SLT PUSH2 0x5A3 JUMPI PUSH1 0x40 MLOAD PUSH1 0x0 PUSH1 0x1 DUP1 SLOAD SWAP1 PUSH2 0x10EC DUP3 PUSH2 0x47AE JUMP JUMPDEST DUP1 DUP6 MSTORE SWAP2 DUP2 DUP2 AND SWAP1 DUP2 ISZERO PUSH2 0x1180 JUMPI POP PUSH1 0x1 EQ PUSH2 0x1127 JUMPI JUMPDEST PUSH2 0x9C2 DUP5 PUSH2 0x1113 DUP2 DUP7 SUB DUP3 PUSH2 0x4680 JUMP JUMPDEST PUSH1 0x40 MLOAD SWAP2 DUP3 SWAP2 PUSH1 0x20 DUP4 MSTORE PUSH1 0x20 DUP4 ADD SWAP1 PUSH2 0x4734 JUMP JUMPDEST PUSH1 0x0 DUP2 DUP2 MSTORE SWAP3 POP PUSH32 0xB10E2D527612073B26EECDFD717E6A320CF44B4AFAC2B0732D9FCBE2B7FA0CF6 JUMPDEST DUP3 DUP5 LT PUSH2 0x1168 JUMPI POP POP POP DUP2 ADD PUSH1 0x20 ADD PUSH2 0x1113 DUP3 PUSH2 0x1103 JUMP JUMPDEST DUP1 SLOAD PUSH1 0x20 DUP6 DUP8 ADD DUP2 ADD SWAP2 SWAP1 SWAP2 MSTORE SWAP1 SWAP4 ADD SWAP3 DUP2 ADD PUSH2 0x1150 JUMP JUMPDEST PUSH1 0xFF NOT AND PUSH1 0x20 DUP1 DUP8 ADD SWAP2 SWAP1 SWAP2 MSTORE SWAP3 ISZERO ISZERO PUSH1 0x5 SHL DUP6 ADD SWAP1 SWAP3 ADD SWAP3 POP PUSH2 0x1113 SWAP2 POP DUP4 SWAP1 POP PUSH2 0x1103 JUMP JUMPDEST CALLVALUE PUSH2 0x5A3 JUMPI PUSH1 0x40 CALLDATASIZE PUSH1 0x3 NOT ADD SLT PUSH2 0x5A3 JUMPI PUSH2 0x11C0 PUSH2 0x45AF JUMP JUMPDEST PUSH1 0x4 CALLDATALOAD PUSH1 0x0 MSTORE PUSH1 0x7 PUSH1 0x20 MSTORE PUSH1 0x40 PUSH1 0x0 KECCAK256 SWAP1 PUSH1 0x1 DUP1 PUSH1 0xA0 SHL SUB AND PUSH1 0x0 MSTORE PUSH1 0x20 MSTORE PUSH1 0x20 PUSH1 0xFF PUSH1 0x40 PUSH1 0x0 KECCAK256 SLOAD AND PUSH1 0x40 MLOAD SWAP1 ISZERO ISZERO DUP2 MSTORE RETURN JUMPDEST CALLVALUE PUSH2 0x5A3 JUMPI PUSH1 0x60 CALLDATASIZE PUSH1 0x3 NOT ADD SLT PUSH2 0x5A3 JUMPI PUSH1 0x4 CALLDATALOAD PUSH2 0x1210 PUSH2 0x45AF JUMP JUMPDEST PUSH1 0x1 PUSH1 0x1 PUSH1 0x40 SHL SUB PUSH1 0x44 CALLDATALOAD DUP2 DUP2 GT PUSH2 0x5A3 JUMPI PUSH2 0x1230 SWAP1 CALLDATASIZE SWAP1 PUSH1 0x4 ADD PUSH2 0x46F3 JUMP JUMPDEST SWAP3 DUP1 PUSH1 0x0 MSTORE PUSH1 0x20 SWAP2 PUSH1 0x2 DUP4 MSTORE PUSH1 0x1 DUP1 PUSH1 0xA0 SHL SUB SWAP1 PUSH2 0x1256 DUP3 PUSH1 0x40 PUSH1 0x0 KECCAK256 SLOAD AND ISZERO ISZERO PUSH2 0x4E50 JUMP JUMPDEST PUSH2 0x125F DUP4 PUSH2 0x4E06 JUMP JUMPDEST DUP3 CALLER SWAP2 AND SUB PUSH2 0x147F JUMPI DUP2 DUP6 AND SWAP5 PUSH2 0x1277 DUP7 ISZERO ISZERO PUSH2 0x4E95 JUMP JUMPDEST DUP4 PUSH1 0x0 MSTORE PUSH1 0x9 DUP6 MSTORE PUSH1 0xFF PUSH1 0xB PUSH1 0x40 PUSH1 0x0 KECCAK256 ADD SLOAD AND PUSH2 0x1462 JUMPI DUP4 PUSH1 0x0 MSTORE PUSH1 0x9 DUP6 MSTORE PUSH1 0x40 PUSH1 0x0 KECCAK256 SWAP2 PUSH1 0x9 PUSH1 0x8 DUP5 ADD SWAP4 DUP5 SLOAD SWAP5 DUP10 PUSH1 0x1 PUSH1 0x1 PUSH1 0x60 SHL SUB PUSH1 0xA0 SHL DUP8 AND OR SWAP1 SSTORE ADD SWAP1 DUP9 MLOAD SWAP1 DUP2 GT PUSH2 0x4FE JUMPI PUSH2 0x12CD DUP3 SLOAD PUSH2 0x47AE JUMP JUMPDEST PUSH1 0x1F DUP2 GT PUSH2 0x141C JUMPI JUMPDEST POP DUP7 PUSH1 0x1F DUP3 GT PUSH1 0x1 EQ PUSH2 0x138A JUMPI SWAP6 PUSH2 0x137A SWAP4 DUP2 SWAP9 SWAP10 SWAP11 SWAP4 DUP4 PUSH2 0x1367 SWAP5 PUSH32 0xD67AA7C45F61C95D774ABBDD7384089523FABB58F544DEBBC64C53E937D97741 SWAP11 PUSH1 0x0 SWAP2 PUSH2 0x137F JUMPI JUMPDEST POP DUP2 PUSH1 0x1 SHL SWAP2 PUSH1 0x0 NOT SWAP1 PUSH1 0x3 SHL SHR NOT AND OR SWAP1 SSTORE JUMPDEST DUP2 PUSH1 0x0 MSTORE PUSH1 0x9 DUP11 MSTORE TIMESTAMP PUSH1 0xA PUSH1 0x40 PUSH1 0x0 KECCAK256 ADD SSTORE PUSH1 0x10 DUP11 MSTORE PUSH1 0x40 PUSH1 0x0 KECCAK256 DUP12 PUSH1 0x0 MSTORE DUP11 MSTORE PUSH1 0x40 PUSH1 0x0 KECCAK256 PUSH1 0x1 PUSH1 0xFF NOT DUP3 SLOAD AND OR SWAP1 SSTORE CALLER PUSH2 0x4EE1 JUMP JUMPDEST PUSH1 0x40 MLOAD SWAP4 DUP5 SWAP4 DUP9 DUP6 MSTORE AND SWAP7 DUP4 ADD SWAP1 PUSH2 0x4734 JUMP JUMPDEST SUB SWAP1 LOG4 STOP JUMPDEST SWAP1 POP DUP7 ADD MLOAD DUP15 PUSH2 0x131C JUMP JUMPDEST PUSH1 0x1F NOT DUP3 AND SWAP1 DUP4 PUSH1 0x0 MSTORE DUP9 PUSH1 0x0 KECCAK256 SWAP2 PUSH1 0x0 JUMPDEST DUP2 DUP2 LT PUSH2 0x1405 JUMPI POP SWAP4 PUSH1 0x1 DUP5 DUP11 SWAP12 SWAP13 SWAP14 SWAP7 SWAP5 PUSH2 0x137A SWAP9 SWAP5 PUSH2 0x1367 SWAP8 PUSH32 0xD67AA7C45F61C95D774ABBDD7384089523FABB58F544DEBBC64C53E937D97741 SWAP14 SWAP8 LT PUSH2 0x13EC JUMPI JUMPDEST POP POP DUP2 SHL ADD SWAP1 SSTORE PUSH2 0x1330 JUMP JUMPDEST DUP9 ADD MLOAD PUSH1 0x0 NOT PUSH1 0xF8 DUP5 PUSH1 0x3 SHL AND SHR NOT AND SWAP1 SSTORE DUP15 DUP1 PUSH2 0x13E0 JUMP JUMPDEST SWAP2 SWAP3 DUP11 PUSH1 0x1 DUP2 SWAP3 DUP16 DUP8 ADD MLOAD DUP2 SSTORE ADD SWAP5 ADD SWAP3 ADD PUSH2 0x139C JUMP JUMPDEST DUP3 PUSH1 0x0 MSTORE DUP8 PUSH1 0x0 KECCAK256 PUSH1 0x1F DUP4 ADD PUSH1 0x5 SHR DUP2 ADD SWAP2 DUP10 DUP5 LT PUSH2 0x1458 JUMPI JUMPDEST PUSH1 0x1F ADD PUSH1 0x5 SHR ADD SWAP1 JUMPDEST DUP2 DUP2 LT PUSH2 0x144C JUMPI POP PUSH2 0x12D6 JUMP JUMPDEST PUSH1 0x0 DUP2 SSTORE PUSH1 0x1 ADD PUSH2 0x143F JUMP JUMPDEST SWAP1 SWAP2 POP DUP2 SWAP1 PUSH2 0x1436 JUMP JUMPDEST PUSH1 0x40 MLOAD PUSH3 0x461BCD PUSH1 0xE5 SHL DUP2 MSTORE DUP1 PUSH2 0x147B PUSH1 0x4 DUP3 ADD PUSH2 0x4F68 JUMP JUMPDEST SUB SWAP1 REVERT JUMPDEST PUSH1 0x40 MLOAD PUSH3 0x461BCD PUSH1 0xE5 SHL DUP2 MSTORE PUSH1 0x4 DUP2 ADD DUP6 SWAP1 MSTORE PUSH1 0x1C PUSH1 0x24 DUP3 ADD MSTORE PUSH32 0x4E6F7420746865206F776E6572206F66207468652070726F6475637400000000 PUSH1 0x44 DUP3 ADD MSTORE PUSH1 0x64 SWAP1 REVERT JUMPDEST CALLVALUE PUSH2 0x5A3 JUMPI PUSH1 0x20 CALLDATASIZE PUSH1 0x3 NOT ADD SLT PUSH2 0x5A3 JUMPI PUSH1 0x4 CALLDATALOAD PUSH1 0x0 MSTORE PUSH1 0x9 PUSH1 0x20 MSTORE PUSH1 0x40 PUSH1 0x0 KECCAK256 PUSH1 0x40 MLOAD DUP1 PUSH2 0x14F3 DUP2 DUP5 PUSH2 0x47E8 JUMP JUMPDEST SUB PUSH2 0x14FE SWAP1 DUP3 PUSH2 0x4680 JUMP JUMPDEST PUSH1 0x40 MLOAD SWAP2 DUP3 PUSH2 0x1510 DUP2 PUSH1 0x1 DUP5 ADD PUSH2 0x47E8 JUMP JUMPDEST SUB PUSH2 0x151B SWAP1 DUP5 PUSH2 0x4680 JUMP JUMPDEST PUSH1 0x40 MLOAD DUP1 PUSH2 0x152C DUP2 PUSH1 0x2 DUP6 ADD PUSH2 0x47E8 JUMP JUMPDEST SUB PUSH2 0x1537 SWAP1 DUP3 PUSH2 0x4680 JUMP JUMPDEST PUSH1 0x40 MLOAD DUP1 PUSH2 0x1548 DUP2 PUSH1 0x3 DUP7 ADD PUSH2 0x47E8 JUMP JUMPDEST SUB PUSH2 0x1553 SWAP1 DUP3 PUSH2 0x4680 JUMP JUMPDEST PUSH1 0x4 DUP4 ADD SLOAD PUSH1 0x5 DUP5 ADD SLOAD PUSH1 0x40 MLOAD SWAP2 DUP3 PUSH2 0x156F DUP2 PUSH1 0x6 DUP10 ADD PUSH2 0x47E8 JUMP JUMPDEST SUB PUSH2 0x157A SWAP1 DUP5 PUSH2 0x4680 JUMP JUMPDEST PUSH1 0x7 DUP7 ADD SLOAD SWAP3 PUSH1 0x1 PUSH1 0xA0 SHL PUSH1 0x1 SWAP1 SUB SWAP2 DUP3 PUSH1 0x8 DUP10 ADD SLOAD AND SWAP4 PUSH1 0x40 MLOAD SWAP7 DUP8 DUP1 PUSH1 0x9 DUP13 ADD SWAP1 PUSH2 0x15A6 SWAP2 PUSH2 0x47E8 JUMP JUMPDEST SUB PUSH2 0x15B1 SWAP1 DUP10 PUSH2 0x4680 JUMP JUMPDEST PUSH1 0xA DUP11 ADD SLOAD SWAP10 PUSH1 0xB ADD SLOAD SWAP9 PUSH1 0x40 MLOAD SWAP13 DUP14 SWAP13 DUP14 PUSH2 0x1C0 SWAP1 DUP2 DUP2 MSTORE ADD PUSH2 0x15D4 SWAP2 PUSH2 0x4734 JUMP JUMPDEST DUP14 DUP2 SUB PUSH1 0x20 DUP16 ADD MSTORE PUSH2 0x15E5 SWAP2 PUSH2 0x4734 JUMP JUMPDEST DUP13 DUP2 SUB PUSH1 0x40 DUP15 ADD MSTORE PUSH2 0x15F6 SWAP2 PUSH2 0x4734 JUMP JUMPDEST DUP12 DUP2 SUB PUSH1 0x60 DUP14 ADD MSTORE PUSH2 0x1607 SWAP2 PUSH2 0x4734 JUMP JUMPDEST SWAP2 PUSH1 0x80 DUP12 ADD MSTORE PUSH1 0xA0 DUP11 ADD MSTORE DUP9 DUP2 SUB PUSH1 0xC0 DUP11 ADD MSTORE PUSH2 0x1623 SWAP2 PUSH2 0x4734 JUMP JUMPDEST SWAP3 PUSH2 0x1634 PUSH1 0xE0 DUP10 ADD PUSH1 0xFF DUP4 AND PUSH2 0x4907 JUMP JUMPDEST PUSH1 0x8 SHR AND PUSH2 0x100 DUP8 ADD MSTORE PUSH2 0x120 DUP7 ADD MSTORE DUP5 DUP2 SUB PUSH2 0x140 DUP7 ADD MSTORE PUSH2 0x1656 SWAP2 PUSH2 0x4734 JUMP JUMPDEST SWAP2 PUSH2 0x160 DUP5 ADD MSTORE PUSH1 0xFF DUP2 AND ISZERO ISZERO PUSH2 0x180 DUP5 ADD MSTORE PUSH1 0x8 SHR PUSH1 0xFF AND ISZERO ISZERO PUSH2 0x1A0 DUP4 ADD MSTORE SUB SWAP1 RETURN JUMPDEST CALLVALUE PUSH2 0x5A3 JUMPI PUSH1 0x0 CALLDATASIZE PUSH1 0x3 NOT ADD SLT PUSH2 0x5A3 JUMPI PUSH1 0x20 PUSH1 0x40 MLOAD PUSH1 0x0 DUP1 MLOAD PUSH1 0x20 PUSH2 0x510F DUP4 CODECOPY DUP2 MLOAD SWAP2 MSTORE DUP2 MSTORE RETURN JUMPDEST CALLVALUE PUSH2 0x5A3 JUMPI PUSH1 0x20 CALLDATASIZE PUSH1 0x3 NOT ADD SLT PUSH2 0x5A3 JUMPI PUSH1 0x1 PUSH1 0x1 PUSH1 0xA0 SHL SUB PUSH2 0x16C5 PUSH2 0x45C5 JUMP JUMPDEST AND DUP1 ISZERO PUSH2 0x16E4 JUMPI PUSH1 0x0 MSTORE PUSH1 0x3 PUSH1 0x20 MSTORE PUSH1 0x20 PUSH1 0x40 PUSH1 0x0 KECCAK256 SLOAD PUSH1 0x40 MLOAD SWAP1 DUP2 MSTORE RETURN JUMPDEST PUSH1 0x40 MLOAD PUSH4 0x22718AD9 PUSH1 0xE2 SHL DUP2 MSTORE PUSH1 0x0 PUSH1 0x4 DUP3 ADD MSTORE PUSH1 0x24 SWAP1 REVERT JUMPDEST CALLVALUE PUSH2 0x5A3 JUMPI PUSH1 0x20 CALLDATASIZE PUSH1 0x3 NOT ADD SLT PUSH2 0x5A3 JUMPI PUSH1 0x4 CALLDATALOAD PUSH1 0x0 MSTORE PUSH1 0xF PUSH1 0x20 MSTORE PUSH1 0x80 PUSH1 0x40 PUSH1 0x0 KECCAK256 DUP1 SLOAD SWAP1 PUSH1 0x1 DUP2 ADD SLOAD SWAP1 PUSH1 0x3 PUSH1 0x2 DUP3 ADD SLOAD SWAP2 ADD SLOAD SWAP2 PUSH1 0x40 MLOAD SWAP4 DUP5 MSTORE PUSH1 0x20 DUP5 ADD MSTORE PUSH1 0x40 DUP4 ADD MSTORE PUSH1 0x60 DUP3 ADD MSTORE RETURN JUMPDEST CALLVALUE PUSH2 0x5A3 JUMPI PUSH1 0x20 CALLDATASIZE PUSH1 0x3 NOT ADD SLT PUSH2 0x5A3 JUMPI PUSH1 0x20 PUSH2 0x1769 PUSH1 0x4 CALLDATALOAD PUSH2 0x4E06 JUMP JUMPDEST PUSH1 0x40 MLOAD PUSH1 0x1 PUSH1 0x1 PUSH1 0xA0 SHL SUB SWAP1 SWAP2 AND DUP2 MSTORE RETURN JUMPDEST CALLVALUE PUSH2 0x5A3 JUMPI PUSH2 0x1789 CALLDATASIZE PUSH2 0x48D8 JUMP JUMPDEST SWAP1 DUP1 PUSH1 0x0 MSTORE PUSH1 0x20 SWAP1 PUSH1 0x2 DUP3 MSTORE PUSH1 0x1 DUP1 PUSH1 0xA0 SHL SUB PUSH2 0x17AE DUP2 PUSH1 0x40 PUSH1 0x0 KECCAK256 SLOAD AND ISZERO ISZERO PUSH2 0x4E50 JUMP JUMPDEST PUSH2 0x17B7 DUP3 PUSH2 0x4E06 JUMP JUMPDEST DUP2 AND CALLER EQ SWAP1 DUP2 ISZERO PUSH2 0x197C JUMPI JUMPDEST POP DUP1 ISZERO PUSH2 0x194C JUMPI JUMPDEST ISZERO PUSH2 0x18FD JUMPI DUP1 PUSH1 0x0 MSTORE PUSH1 0x9 DUP3 MSTORE PUSH1 0x9 PUSH1 0x40 PUSH1 0x0 KECCAK256 ADD DUP4 MLOAD PUSH1 0x1 PUSH1 0x1 PUSH1 0x40 SHL SUB DUP2 GT PUSH2 0x4FE JUMPI PUSH2 0x17FA DUP3 SLOAD PUSH2 0x47AE JUMP JUMPDEST PUSH1 0x1F DUP2 GT PUSH2 0x18B7 JUMPI JUMPDEST POP DUP4 SWAP5 PUSH1 0x1F DUP3 GT PUSH1 0x1 EQ PUSH2 0x1850 JUMPI PUSH1 0x9 SWAP6 PUSH1 0x0 SWAP2 DUP4 PUSH2 0x1845 JUMPI JUMPDEST POP POP DUP2 PUSH1 0x1 SHL SWAP2 PUSH1 0x0 NOT SWAP1 PUSH1 0x3 SHL SHR NOT AND OR SWAP1 SSTORE JUMPDEST PUSH1 0x0 MSTORE MSTORE TIMESTAMP PUSH1 0xA PUSH1 0x40 PUSH1 0x0 KECCAK256 ADD SSTORE PUSH1 0x0 DUP1 RETURN JUMPDEST ADD MLOAD SWAP1 POP DUP7 DUP1 PUSH2 0x181D JUMP JUMPDEST PUSH1 0x1F NOT DUP3 AND SWAP6 DUP4 PUSH1 0x0 MSTORE DUP6 PUSH1 0x0 KECCAK256 SWAP2 PUSH1 0x0 JUMPDEST DUP9 DUP2 LT PUSH2 0x18A0 JUMPI POP SWAP1 DUP4 SWAP3 SWAP2 PUSH1 0x1 SWAP5 PUSH1 0x9 SWAP10 LT PUSH2 0x1887 JUMPI JUMPDEST POP POP POP DUP2 SHL ADD SWAP1 SSTORE PUSH2 0x1832 JUMP JUMPDEST ADD MLOAD PUSH1 0x0 NOT PUSH1 0xF8 DUP5 PUSH1 0x3 SHL AND SHR NOT AND SWAP1 SSTORE DUP7 DUP1 DUP1 PUSH2 0x187A JUMP JUMPDEST SWAP2 SWAP3 DUP8 PUSH1 0x1 DUP2 SWAP3 DUP7 DUP6 ADD MLOAD DUP2 SSTORE ADD SWAP5 ADD SWAP3 ADD PUSH2 0x1862 JUMP JUMPDEST DUP3 PUSH1 0x0 MSTORE DUP5 PUSH1 0x0 KECCAK256 PUSH1 0x1F DUP4 ADD PUSH1 0x5 SHR DUP2 ADD SWAP2 DUP7 DUP5 LT PUSH2 0x18F3 JUMPI JUMPDEST PUSH1 0x1F ADD PUSH1 0x5 SHR ADD SWAP1 JUMPDEST DUP2 DUP2 LT PUSH2 0x18E7 JUMPI POP PUSH2 0x1803 JUMP JUMPDEST PUSH1 0x0 DUP2 SSTORE PUSH1 0x1 ADD PUSH2 0x18DA JUMP JUMPDEST SWAP1 SWAP2 POP DUP2 SWAP1 PUSH2 0x18D1 JUMP JUMPDEST PUSH1 0x40 MLOAD PUSH3 0x461BCD PUSH1 0xE5 SHL DUP2 MSTORE PUSH1 0x4 DUP2 ADD DUP4 SWAP1 MSTORE PUSH1 0x21 PUSH1 0x24 DUP3 ADD MSTORE PUSH32 0x4E6F7420617574686F72697A656420746F20757064617465206C6F636174696F PUSH1 0x44 DUP3 ADD MSTORE PUSH1 0x37 PUSH1 0xF9 SHL PUSH1 0x64 DUP3 ADD MSTORE PUSH1 0x84 SWAP1 REVERT JUMPDEST POP PUSH1 0x0 DUP1 MLOAD PUSH1 0x20 PUSH2 0x510F DUP4 CODECOPY DUP2 MLOAD SWAP2 MSTORE PUSH1 0x0 MSTORE PUSH1 0x7 DUP3 MSTORE PUSH1 0x40 PUSH1 0x0 KECCAK256 CALLER PUSH1 0x0 MSTORE DUP3 MSTORE PUSH1 0xFF PUSH1 0x40 PUSH1 0x0 KECCAK256 SLOAD AND PUSH2 0x17CB JUMP JUMPDEST SWAP1 POP DUP2 PUSH1 0x0 MSTORE PUSH1 0x9 DUP4 MSTORE CALLER SWAP1 PUSH1 0x8 PUSH1 0x40 PUSH1 0x0 KECCAK256 ADD SLOAD AND EQ DUP5 PUSH2 0x17C3 JUMP JUMPDEST CALLVALUE PUSH2 0x5A3 JUMPI PUSH1 0x0 CALLDATASIZE PUSH1 0x3 NOT ADD SLT PUSH2 0x5A3 JUMPI PUSH1 0x20 PUSH1 0x40 MLOAD PUSH32 0xDDAA901E2FE3BDA354FE0EDE2785152D5C109282A613FE024A056A3E66C41BB3 DUP2 MSTORE RETURN JUMPDEST CALLVALUE PUSH2 0x5A3 JUMPI PUSH1 0x40 CALLDATASIZE PUSH1 0x3 NOT ADD SLT PUSH2 0x5A3 JUMPI PUSH1 0x4 CALLDATALOAD PUSH2 0x19F0 PUSH2 0x45AF JUMP JUMPDEST SWAP1 DUP1 PUSH1 0x0 MSTORE PUSH1 0x20 SWAP2 PUSH1 0x10 DUP4 MSTORE PUSH1 0x40 PUSH1 0x0 KECCAK256 SWAP1 PUSH1 0x1 DUP1 PUSH1 0xA0 SHL SUB DUP1 SWAP2 AND SWAP2 DUP3 PUSH1 0x0 MSTORE DUP5 MSTORE PUSH1 0xFF PUSH1 0x40 PUSH1 0x0 KECCAK256 SLOAD AND SWAP3 DUP4 ISZERO PUSH2 0x1AB5 JUMPI JUMPDEST POP POP DUP2 ISZERO PUSH2 0x1A83 JUMPI JUMPDEST DUP2 ISZERO PUSH2 0x1A3F JUMPI JUMPDEST POP PUSH1 0x40 MLOAD SWAP1 ISZERO ISZERO DUP2 MSTORE RETURN JUMPDEST SWAP1 POP PUSH32 0x273DCF2136C7D8EF632BB8EF13DBCA69A8F36FA620C7468671B3153D46A211C0 PUSH1 0x0 MSTORE PUSH1 0x7 DUP3 MSTORE PUSH1 0x40 PUSH1 0x0 KECCAK256 SWAP1 PUSH1 0x0 MSTORE DUP2 MSTORE PUSH1 0xFF PUSH1 0x40 PUSH1 0x0 KECCAK256 SLOAD AND DUP3 PUSH2 0x1A34 JUMP JUMPDEST SWAP1 POP PUSH1 0x0 DUP1 MLOAD PUSH1 0x20 PUSH2 0x510F DUP4 CODECOPY DUP2 MLOAD SWAP2 MSTORE PUSH1 0x0 MSTORE PUSH1 0x7 DUP3 MSTORE PUSH1 0x40 PUSH1 0x0 KECCAK256 DUP2 PUSH1 0x0 MSTORE DUP3 MSTORE PUSH1 0xFF PUSH1 0x40 PUSH1 0x0 KECCAK256 SLOAD AND SWAP1 PUSH2 0x1A2D JUMP JUMPDEST DUP3 SWAP4 POP PUSH2 0x1AC1 SWAP1 PUSH2 0x4E06 JUMP JUMPDEST AND EQ SWAP1 DUP4 DUP1 PUSH2 0x1A24 JUMP JUMPDEST CALLVALUE PUSH2 0x5A3 JUMPI PUSH1 0xC0 CALLDATASIZE PUSH1 0x3 NOT ADD SLT PUSH2 0x5A3 JUMPI PUSH1 0x8 PUSH1 0x24 CALLDATALOAD LT ISZERO PUSH2 0x5A3 JUMPI PUSH1 0x64 CALLDATALOAD PUSH1 0x1 PUSH1 0x1 PUSH1 0x40 SHL SUB DUP2 GT PUSH2 0x5A3 JUMPI PUSH2 0x1B06 SWAP1 CALLDATASIZE SWAP1 PUSH1 0x4 ADD PUSH2 0x46F3 JUMP JUMPDEST PUSH1 0x84 CALLDATALOAD PUSH1 0x1 PUSH1 0x1 PUSH1 0x40 SHL SUB DUP2 GT PUSH2 0x5A3 JUMPI PUSH2 0x1B25 SWAP1 CALLDATASIZE SWAP1 PUSH1 0x4 ADD PUSH2 0x46F3 JUMP JUMPDEST PUSH1 0xA4 CALLDATALOAD PUSH1 0x1 PUSH1 0x1 PUSH1 0x40 SHL SUB DUP2 GT PUSH2 0x5A3 JUMPI PUSH2 0x1B44 SWAP1 CALLDATASIZE SWAP1 PUSH1 0x4 ADD PUSH2 0x46F3 JUMP JUMPDEST CALLER PUSH1 0x0 SWAP1 DUP2 MSTORE PUSH32 0xC5AB710F8C4CC7C1AFAC50210FF340AB9E3A5797B579FCBB6114569DD517BA0A PUSH1 0x20 MSTORE PUSH1 0x40 SWAP1 KECCAK256 SLOAD SWAP1 SWAP2 SWAP1 PUSH32 0x68E79A7BF1E0BC45D0A330C573BC367F9CF464FD326078812F301165FBDA4EF1 SWAP1 PUSH1 0xFF AND ISZERO PUSH2 0x585 JUMPI POP PUSH1 0x4 CALLDATALOAD PUSH1 0x0 SWAP1 DUP2 MSTORE PUSH1 0x2 PUSH1 0x20 MSTORE PUSH1 0x40 SWAP1 KECCAK256 SLOAD PUSH2 0x1BC7 SWAP1 PUSH1 0x1 PUSH1 0x1 PUSH1 0xA0 SHL SUB AND ISZERO ISZERO PUSH2 0x4E50 JUMP JUMPDEST PUSH1 0x40 MLOAD SWAP3 PUSH2 0x1BD4 DUP5 PUSH2 0x4613 JUMP JUMPDEST PUSH1 0x4 CALLDATALOAD DUP5 MSTORE PUSH2 0x1BE8 PUSH1 0x24 CALLDATALOAD PUSH1 0x20 DUP7 ADD PUSH2 0x4F5C JUMP JUMPDEST PUSH1 0x44 CALLDATALOAD PUSH1 0x40 DUP6 ADD MSTORE PUSH1 0x60 DUP5 ADD MSTORE PUSH1 0x80 DUP4 ADD MSTORE CALLER PUSH1 0xA0 DUP4 ADD MSTORE TIMESTAMP PUSH1 0xC0 DUP4 ADD MSTORE PUSH1 0x1 PUSH1 0xE0 DUP4 ADD MSTORE PUSH2 0x100 DUP3 ADD MSTORE PUSH1 0x4 CALLDATALOAD PUSH1 0x0 MSTORE PUSH1 0xB PUSH1 0x20 MSTORE PUSH1 0x40 PUSH1 0x0 KECCAK256 DUP1 SLOAD PUSH1 0x1 PUSH1 0x40 SHL DUP2 LT ISZERO PUSH2 0x4FE JUMPI PUSH2 0x1C40 SWAP2 PUSH1 0x1 DUP3 ADD DUP2 SSTORE PUSH2 0x477C JUMP JUMPDEST SWAP2 SWAP1 SWAP2 PUSH2 0x2132 JUMPI DUP1 MLOAD DUP3 SSTORE PUSH1 0x1 DUP3 ADD PUSH1 0x20 DUP3 ADD MLOAD PUSH1 0x8 DUP2 LT ISZERO PUSH2 0x56F JUMPI PUSH1 0xFF DUP1 NOT DUP4 SLOAD AND SWAP2 AND OR SWAP1 SSTORE PUSH1 0x40 DUP2 ADD MLOAD PUSH1 0x2 DUP4 ADD SSTORE PUSH1 0x60 DUP2 ADD MLOAD SWAP2 DUP3 MLOAD PUSH1 0x1 PUSH1 0x1 PUSH1 0x40 SHL SUB DUP2 GT PUSH2 0x4FE JUMPI PUSH2 0x1C96 PUSH1 0x3 DUP4 ADD SLOAD PUSH2 0x47AE JUMP JUMPDEST PUSH1 0x1F DUP2 GT PUSH2 0x20EB JUMPI JUMPDEST POP PUSH1 0x20 PUSH1 0x1F DUP3 GT PUSH1 0x1 EQ PUSH2 0x207D JUMPI DUP2 SWAP3 SWAP4 SWAP5 PUSH1 0x0 SWAP3 PUSH2 0x2072 JUMPI JUMPDEST POP POP DUP2 PUSH1 0x1 SHL SWAP2 PUSH1 0x0 NOT SWAP1 PUSH1 0x3 SHL SHR NOT AND OR PUSH1 0x3 DUP3 ADD SSTORE JUMPDEST PUSH1 0x80 DUP3 ADD MLOAD DUP1 MLOAD SWAP1 PUSH1 0x1 PUSH1 0x1 PUSH1 0x40 SHL SUB DUP3 GT PUSH2 0x4FE JUMPI PUSH2 0x1CF4 PUSH1 0x4 DUP5 ADD SLOAD PUSH2 0x47AE JUMP JUMPDEST PUSH1 0x1F DUP2 GT PUSH2 0x202B JUMPI JUMPDEST POP PUSH1 0x20 SWAP1 PUSH1 0x1F DUP4 GT PUSH1 0x1 EQ PUSH2 0x1FB5 JUMPI SWAP2 DUP1 PUSH2 0x100 SWAP5 SWAP3 PUSH1 0x8 SWAP5 PUSH1 0x0 SWAP3 PUSH2 0x1FAA JUMPI JUMPDEST POP POP DUP2 PUSH1 0x1 SHL SWAP2 PUSH1 0x0 NOT SWAP1 PUSH1 0x3 SHL SHR NOT AND OR PUSH1 0x4 DUP3 ADD SSTORE JUMPDEST PUSH1 0x5 DUP2 ADD PUSH1 0x1 DUP1 PUSH1 0xA0 SHL SUB PUSH1 0xA0 DUP7 ADD MLOAD AND PUSH1 0x1 PUSH1 0x1 PUSH1 0x60 SHL SUB PUSH1 0xA0 SHL DUP3 SLOAD AND OR SWAP1 SSTORE PUSH1 0xC0 DUP5 ADD MLOAD PUSH1 0x6 DUP3 ADD SSTORE PUSH2 0x1D81 PUSH1 0xE0 DUP6 ADD MLOAD ISZERO ISZERO PUSH1 0x7 DUP4 ADD SWAP1 PUSH1 0xFF DUP1 NOT DUP4 SLOAD AND SWAP2 ISZERO ISZERO AND OR SWAP1 SSTORE JUMP JUMPDEST ADD SWAP2 ADD MLOAD SWAP1 DUP2 MLOAD PUSH1 0x1 PUSH1 0x1 PUSH1 0x40 SHL SUB DUP2 GT PUSH2 0x4FE JUMPI PUSH2 0x1DA0 DUP3 SLOAD PUSH2 0x47AE JUMP JUMPDEST PUSH1 0x1F DUP2 GT PUSH2 0x1F62 JUMPI JUMPDEST POP PUSH1 0x20 SWAP3 PUSH1 0x1F DUP3 GT PUSH1 0x1 EQ PUSH2 0x1EFE JUMPI SWAP3 DUP2 SWAP3 SWAP4 PUSH1 0x0 SWAP3 PUSH2 0x1EF3 JUMPI JUMPDEST POP POP DUP2 PUSH1 0x1 SHL SWAP2 PUSH1 0x0 NOT SWAP1 PUSH1 0x3 SHL SHR NOT AND OR SWAP1 SSTORE JUMPDEST PUSH1 0x40 MLOAD PUSH2 0x1DE8 DUP2 PUSH1 0x24 CALLDATALOAD PUSH2 0x487E JUMP JUMPDEST PUSH1 0x44 CALLDATALOAD PUSH1 0x20 DUP3 ADD MSTORE TIMESTAMP PUSH1 0x40 DUP3 ADD MSTORE PUSH32 0x4A4200D10F50281FB36ABE1C43B2C85F53E92F4BFFE4CC227695F9C949F60F81 PUSH1 0x60 PUSH1 0x4 CALLDATALOAD SWAP3 LOG2 PUSH1 0x0 PUSH1 0x24 CALLDATALOAD PUSH2 0x1E96 JUMPI PUSH1 0x13 NOT PUSH1 0x44 CALLDATALOAD SLT DUP1 ISZERO PUSH2 0x1E8A JUMPI JUMPDEST PUSH2 0x1E82 JUMPI JUMPDEST PUSH2 0x1E40 JUMPI STOP JUMPDEST PUSH1 0x4 CALLDATALOAD PUSH1 0x0 MSTORE PUSH1 0x9 PUSH1 0x20 MSTORE PUSH1 0xFF PUSH1 0x7 PUSH1 0x40 PUSH1 0x0 KECCAK256 ADD SLOAD AND PUSH2 0x1E64 PUSH1 0x40 MLOAD DUP1 SWAP3 PUSH2 0x4907 JUMP JUMPDEST ADDRESS PUSH1 0x20 DUP3 ADD MSTORE PUSH1 0x0 DUP1 MLOAD PUSH1 0x20 PUSH2 0x50EF DUP4 CODECOPY DUP2 MLOAD SWAP2 MSTORE PUSH1 0x40 PUSH1 0x4 CALLDATALOAD SWAP3 LOG2 STOP JUMPDEST POP PUSH1 0x1 PUSH2 0x1E3A JUMP JUMPDEST POP PUSH1 0x28 PUSH1 0x44 CALLDATALOAD SGT PUSH2 0x1E35 JUMP JUMPDEST PUSH1 0x24 CALLDATALOAD PUSH1 0x1 SUB PUSH2 0x1EC3 JUMPI PUSH1 0x0 PUSH1 0x44 CALLDATALOAD SLT DUP1 ISZERO PUSH2 0x1EB7 JUMPI JUMPDEST PUSH2 0x1E82 JUMPI JUMPDEST PUSH2 0x1E3A JUMP JUMPDEST POP PUSH1 0x5F PUSH1 0x44 CALLDATALOAD SGT PUSH2 0x1EAD JUMP JUMPDEST PUSH1 0x2 PUSH1 0x24 CALLDATALOAD SUB PUSH2 0x1E3A JUMPI PUSH1 0x0 PUSH1 0x44 CALLDATALOAD SLT DUP1 ISZERO PUSH2 0x1EE7 JUMPI JUMPDEST ISZERO PUSH2 0x1EB2 JUMPI POP PUSH1 0x1 PUSH2 0x1E3A JUMP JUMPDEST POP PUSH1 0x64 PUSH1 0x44 CALLDATALOAD SGT PUSH2 0x1EDA JUMP JUMPDEST ADD MLOAD SWAP1 POP DUP4 DUP1 PUSH2 0x1DC4 JUMP JUMPDEST PUSH1 0x1F NOT DUP3 AND SWAP4 DUP4 PUSH1 0x0 MSTORE PUSH1 0x20 PUSH1 0x0 KECCAK256 SWAP2 PUSH1 0x0 JUMPDEST DUP7 DUP2 LT PUSH2 0x1F4A JUMPI POP DUP4 PUSH1 0x1 SWAP6 SWAP7 LT PUSH2 0x1F31 JUMPI JUMPDEST POP POP POP DUP2 SHL ADD SWAP1 SSTORE PUSH2 0x1DD9 JUMP JUMPDEST ADD MLOAD PUSH1 0x0 NOT PUSH1 0xF8 DUP5 PUSH1 0x3 SHL AND SHR NOT AND SWAP1 SSTORE DUP4 DUP1 DUP1 PUSH2 0x1F24 JUMP JUMPDEST SWAP2 SWAP3 PUSH1 0x20 PUSH1 0x1 DUP2 SWAP3 DUP7 DUP6 ADD MLOAD DUP2 SSTORE ADD SWAP5 ADD SWAP3 ADD PUSH2 0x1F11 JUMP JUMPDEST DUP3 PUSH1 0x0 MSTORE PUSH1 0x20 PUSH1 0x0 KECCAK256 PUSH1 0x1F DUP4 ADD PUSH1 0x5 SHR DUP2 ADD SWAP2 PUSH1 0x20 DUP5 LT PUSH2 0x1FA0 JUMPI JUMPDEST PUSH1 0x1F ADD PUSH1 0x5 SHR ADD SWAP1 JUMPDEST DUP2 DUP2 LT PUSH2 0x1F94 JUMPI POP PUSH2 0x1DA9 JUMP JUMPDEST PUSH1 0x0 DUP2 SSTORE PUSH1 0x1 ADD PUSH2 0x1F87 JUMP JUMPDEST SWAP1 SWAP2 POP DUP2 SWAP1 PUSH2 0x1F7E JUMP JUMPDEST ADD MLOAD SWAP1 POP DUP7 DUP1 PUSH2 0x1D1E JUMP JUMPDEST SWAP1 PUSH1 0x4 DUP5 ADD PUSH1 0x0 MSTORE PUSH1 0x20 PUSH1 0x0 KECCAK256 SWAP2 PUSH1 0x0 JUMPDEST PUSH1 0x1F NOT DUP6 AND DUP2 LT PUSH2 0x2013 JUMPI POP SWAP3 PUSH2 0x100 SWAP5 SWAP3 PUSH1 0x1 SWAP3 PUSH1 0x8 SWAP6 DUP4 PUSH1 0x1F NOT DUP2 AND LT PUSH2 0x1FFA JUMPI JUMPDEST POP POP POP DUP2 SHL ADD PUSH1 0x4 DUP3 ADD SSTORE PUSH2 0x1D36 JUMP JUMPDEST ADD MLOAD PUSH1 0x0 NOT PUSH1 0xF8 DUP5 PUSH1 0x3 SHL AND SHR NOT AND SWAP1 SSTORE DUP7 DUP1 DUP1 PUSH2 0x1FEA JUMP JUMPDEST SWAP2 SWAP3 PUSH1 0x20 PUSH1 0x1 DUP2 SWAP3 DUP7 DUP6 ADD MLOAD DUP2 SSTORE ADD SWAP5 ADD SWAP3 ADD PUSH2 0x1FC6 JUMP JUMPDEST PUSH1 0x4 DUP5 ADD PUSH1 0x0 MSTORE PUSH1 0x20 PUSH1 0x0 KECCAK256 PUSH1 0x1F DUP5 ADD PUSH1 0x5 SHR DUP2 ADD PUSH1 0x20 DUP6 LT PUSH2 0x206B JUMPI JUMPDEST PUSH1 0x1F DUP4 ADD PUSH1 0x5 SHR DUP3 ADD DUP2 LT PUSH2 0x205F JUMPI POP POP PUSH2 0x1CFD JUMP JUMPDEST PUSH1 0x0 DUP2 SSTORE PUSH1 0x1 ADD PUSH2 0x2049 JUMP JUMPDEST POP DUP1 PUSH2 0x2049 JUMP JUMPDEST ADD MLOAD SWAP1 POP DUP5 DUP1 PUSH2 0x1CB9 JUMP JUMPDEST PUSH1 0x3 DUP4 ADD PUSH1 0x0 MSTORE PUSH1 0x20 PUSH1 0x0 KECCAK256 SWAP1 PUSH1 0x0 JUMPDEST PUSH1 0x1F NOT DUP5 AND DUP2 LT PUSH2 0x20D3 JUMPI POP PUSH1 0x1 SWAP4 SWAP5 SWAP6 DUP4 PUSH1 0x1F NOT DUP2 AND LT PUSH2 0x20BA JUMPI JUMPDEST POP POP POP DUP2 SHL ADD PUSH1 0x3 DUP3 ADD SSTORE PUSH2 0x1CD1 JUMP JUMPDEST ADD MLOAD PUSH1 0x0 NOT PUSH1 0xF8 DUP5 PUSH1 0x3 SHL AND SHR NOT AND SWAP1 SSTORE DUP5 DUP1 DUP1 PUSH2 0x20AA JUMP JUMPDEST SWAP1 SWAP2 PUSH1 0x20 PUSH1 0x1 DUP2 SWAP3 DUP6 DUP11 ADD MLOAD DUP2 SSTORE ADD SWAP4 ADD SWAP2 ADD PUSH2 0x208D JUMP JUMPDEST PUSH1 0x3 DUP4 ADD PUSH1 0x0 MSTORE PUSH1 0x20 PUSH1 0x0 KECCAK256 PUSH1 0x1F DUP4 ADD PUSH1 0x5 SHR DUP2 ADD PUSH1 0x20 DUP5 LT PUSH2 0x212B JUMPI JUMPDEST PUSH1 0x1F DUP4 ADD PUSH1 0x5 SHR DUP3 ADD DUP2 LT PUSH2 0x211F JUMPI POP POP PUSH2 0x1C9F JUMP JUMPDEST PUSH1 0x0 DUP2 SSTORE PUSH1 0x1 ADD PUSH2 0x2109 JUMP JUMPDEST POP DUP1 PUSH2 0x2109 JUMP JUMPDEST PUSH4 0x4E487B71 PUSH1 0xE0 SHL PUSH1 0x0 MSTORE PUSH1 0x0 PUSH1 0x4 MSTORE PUSH1 0x24 PUSH1 0x0 REVERT JUMPDEST CALLVALUE PUSH2 0x5A3 JUMPI PUSH2 0x2156 CALLDATASIZE PUSH2 0x48D8 JUMP JUMPDEST SWAP1 DUP1 PUSH1 0x0 MSTORE PUSH1 0x20 PUSH1 0xA DUP2 MSTORE PUSH1 0x1 DUP1 PUSH1 0xA0 SHL SUB SWAP3 DUP4 PUSH1 0x2 PUSH1 0x40 PUSH1 0x0 KECCAK256 ADD SLOAD AND CALLER EQ DUP1 ISZERO PUSH2 0x24A6 JUMPI JUMPDEST ISZERO PUSH2 0x2445 JUMPI DUP3 PUSH1 0x0 MSTORE PUSH1 0xA DUP3 MSTORE PUSH1 0xFF PUSH1 0x2 PUSH1 0x40 PUSH1 0x0 KECCAK256 ADD SLOAD PUSH1 0xA0 SHR AND PUSH1 0x5 DUP2 LT ISZERO PUSH2 0x56F JUMPI PUSH1 0x2 SUB PUSH2 0x2400 JUMPI DUP3 PUSH1 0x0 MSTORE PUSH1 0xA DUP3 MSTORE PUSH1 0x40 PUSH1 0x0 KECCAK256 SLOAD SWAP1 DUP2 PUSH1 0x0 MSTORE PUSH1 0x9 DUP4 MSTORE PUSH1 0x9 PUSH1 0x40 PUSH1 0x0 KECCAK256 PUSH1 0x8 DUP2 ADD DUP1 SLOAD SWAP8 DUP9 AND SWAP8 CALLER SWAP1 PUSH1 0x1 PUSH1 0x1 PUSH1 0x60 SHL SUB PUSH1 0xA0 SHL AND OR SWAP1 SSTORE ADD SWAP5 DUP2 MLOAD SWAP6 PUSH1 0x1 PUSH1 0x1 PUSH1 0x40 SHL SUB DUP8 GT PUSH2 0x4FE JUMPI PUSH2 0x21FF DUP2 SLOAD PUSH2 0x47AE JUMP JUMPDEST PUSH1 0x1F DUP2 GT PUSH2 0x23BA JUMPI JUMPDEST POP DUP5 SWAP7 PUSH1 0x1F DUP2 GT PUSH1 0x1 EQ PUSH2 0x2336 JUMPI DUP1 PUSH32 0xDD3EAFCD99A3F4D8B6CE7D52CF71F07A3E59D9D6C0B066EAA314812456B6B855 SWAP8 SWAP9 PUSH1 0x0 SWAP2 PUSH2 0x232B JUMPI JUMPDEST POP DUP2 PUSH1 0x1 SHL SWAP2 PUSH1 0x0 NOT SWAP1 PUSH1 0x3 SHL SHR NOT AND OR SWAP1 SSTORE JUMPDEST DUP3 PUSH1 0x0 MSTORE PUSH1 0x9 DUP5 MSTORE PUSH1 0x40 PUSH1 0x0 KECCAK256 PUSH1 0x7 DUP2 ADD SWAP1 PUSH1 0xFF NOT SWAP2 PUSH1 0x3 DUP4 DUP3 SLOAD AND OR SWAP1 SSTORE PUSH1 0xA TIMESTAMP SWAP2 ADD SSTORE PUSH1 0x10 DUP6 MSTORE PUSH1 0x40 PUSH1 0x0 KECCAK256 CALLER PUSH1 0x0 MSTORE DUP6 MSTORE PUSH1 0x1 PUSH1 0x40 PUSH1 0x0 KECCAK256 SWAP2 DUP3 SLOAD AND OR SWAP1 SSTORE DUP6 PUSH1 0x0 MSTORE PUSH1 0xA DUP5 MSTORE PUSH1 0x40 PUSH1 0x0 KECCAK256 PUSH1 0x2 DUP2 ADD PUSH1 0x3 PUSH1 0xA0 SHL PUSH1 0xFF PUSH1 0xA0 SHL NOT DUP3 SLOAD AND OR SWAP1 SSTORE PUSH1 0x8 TIMESTAMP SWAP2 ADD SSTORE PUSH2 0x22CB DUP4 CALLER DUP4 PUSH2 0x4EE1 JUMP JUMPDEST DUP3 PUSH32 0xD67AA7C45F61C95D774ABBDD7384089523FABB58F544DEBBC64C53E937D97741 PUSH1 0x40 MLOAD DUP7 DUP2 MSTORE DUP1 PUSH2 0x2302 CALLER SWAP7 DUP10 DUP4 ADD SWAP1 PUSH2 0x4734 JUMP JUMPDEST SUB SWAP1 LOG4 PUSH1 0x0 DUP1 MLOAD PUSH1 0x20 PUSH2 0x50EF DUP4 CODECOPY DUP2 MLOAD SWAP2 MSTORE PUSH1 0x40 DUP1 MLOAD PUSH1 0x3 DUP2 MSTORE CALLER DUP6 DUP3 ADD MSTORE LOG2 PUSH1 0x40 MLOAD TIMESTAMP DUP2 MSTORE LOG2 STOP JUMPDEST SWAP1 POP DUP5 ADD MLOAD DUP10 PUSH2 0x2242 JUMP JUMPDEST PUSH1 0x1F NOT DUP2 AND DUP3 PUSH1 0x0 MSTORE DUP7 PUSH1 0x0 KECCAK256 SWAP1 PUSH1 0x0 JUMPDEST DUP2 DUP2 LT PUSH2 0x23A3 JUMPI POP SWAP1 PUSH32 0xDD3EAFCD99A3F4D8B6CE7D52CF71F07A3E59D9D6C0B066EAA314812456B6B855 SWAP9 SWAP10 DUP4 PUSH1 0x1 SWAP5 SWAP4 LT PUSH2 0x238A JUMPI JUMPDEST POP POP DUP2 SHL ADD SWAP1 SSTORE PUSH2 0x2256 JUMP JUMPDEST DUP7 ADD MLOAD PUSH1 0x0 NOT PUSH1 0xF8 DUP5 PUSH1 0x3 SHL AND SHR NOT AND SWAP1 SSTORE DUP10 DUP1 PUSH2 0x237E JUMP JUMPDEST DUP7 DUP12 ADD MLOAD DUP4 SSTORE SWAP10 DUP9 ADD SWAP10 PUSH1 0x1 SWAP1 SWAP3 ADD SWAP2 DUP9 ADD PUSH2 0x2347 JUMP JUMPDEST DUP2 PUSH1 0x0 MSTORE DUP6 PUSH1 0x0 KECCAK256 PUSH1 0x1F DUP10 ADD PUSH1 0x5 SHR DUP2 ADD SWAP2 DUP8 DUP11 LT PUSH2 0x23F6 JUMPI JUMPDEST PUSH1 0x1F ADD PUSH1 0x5 SHR ADD SWAP1 JUMPDEST DUP2 DUP2 LT PUSH2 0x23EA JUMPI POP PUSH2 0x2208 JUMP JUMPDEST PUSH1 0x0 DUP2 SSTORE PUSH1 0x1 ADD PUSH2 0x23DD JUMP JUMPDEST SWAP1 SWAP2 POP DUP2 SWAP1 PUSH2 0x23D4 JUMP JUMPDEST PUSH1 0x40 MLOAD PUSH3 0x461BCD PUSH1 0xE5 SHL DUP2 MSTORE PUSH1 0x4 DUP2 ADD DUP4 SWAP1 MSTORE PUSH1 0x17 PUSH1 0x24 DUP3 ADD MSTORE PUSH32 0x536869706D656E74206E6F7420696E207472616E736974000000000000000000 PUSH1 0x44 DUP3 ADD MSTORE PUSH1 0x64 SWAP1 REVERT JUMPDEST PUSH1 0x40 MLOAD PUSH3 0x461BCD PUSH1 0xE5 SHL DUP2 MSTORE PUSH1 0x4 DUP2 ADD DUP4 SWAP1 MSTORE PUSH1 0x33 PUSH1 0x24 DUP3 ADD MSTORE PUSH32 0x4F6E6C792064657374696E6174696F6E207061727479206F722061646D696E20 PUSH1 0x44 DUP3 ADD MSTORE PUSH19 0x18D85B8818DBDB999A5C9B481C9958D95A5C1D PUSH1 0x6A SHL PUSH1 0x64 DUP3 ADD MSTORE PUSH1 0x84 SWAP1 REVERT JUMPDEST POP PUSH1 0x0 DUP1 MLOAD PUSH1 0x20 PUSH2 0x510F DUP4 CODECOPY DUP2 MLOAD SWAP2 MSTORE PUSH1 0x0 MSTORE PUSH1 0x7 DUP3 MSTORE PUSH1 0x40 PUSH1 0x0 KECCAK256 CALLER PUSH1 0x0 MSTORE DUP3 MSTORE PUSH1 0xFF PUSH1 0x40 PUSH1 0x0 KECCAK256 SLOAD AND PUSH2 0x217D JUMP JUMPDEST CALLVALUE PUSH2 0x5A3 JUMPI PUSH1 0xE0 CALLDATASIZE PUSH1 0x3 NOT ADD SLT PUSH2 0x5A3 JUMPI PUSH1 0x4 CALLDATALOAD PUSH1 0x1 PUSH1 0x1 PUSH1 0x40 SHL SUB DUP2 GT PUSH2 0x5A3 JUMPI PUSH2 0x2506 SWAP1 CALLDATASIZE SWAP1 PUSH1 0x4 ADD PUSH2 0x46F3 JUMP JUMPDEST PUSH1 0x24 CALLDATALOAD PUSH1 0x1 PUSH1 0x1 PUSH1 0x40 SHL SUB DUP2 GT PUSH2 0x5A3 JUMPI PUSH2 0x2525 SWAP1 CALLDATASIZE SWAP1 PUSH1 0x4 ADD PUSH2 0x46F3 JUMP JUMPDEST SWAP1 PUSH1 0x44 CALLDATALOAD PUSH1 0x1 PUSH1 0x1 PUSH1 0x40 SHL SUB DUP2 GT PUSH2 0x5A3 JUMPI PUSH2 0x2545 SWAP1 CALLDATASIZE SWAP1 PUSH1 0x4 ADD PUSH2 0x46F3 JUMP JUMPDEST PUSH1 0x64 CALLDATALOAD PUSH1 0x1 PUSH1 0x1 PUSH1 0x40 SHL SUB DUP2 GT PUSH2 0x5A3 JUMPI PUSH2 0x2564 SWAP1 CALLDATASIZE SWAP1 PUSH1 0x4 ADD PUSH2 0x46F3 JUMP JUMPDEST SWAP2 PUSH1 0xA4 CALLDATALOAD PUSH1 0x1 PUSH1 0x1 PUSH1 0x40 SHL SUB DUP2 GT PUSH2 0x5A3 JUMPI PUSH2 0x2584 SWAP1 CALLDATASIZE SWAP1 PUSH1 0x4 ADD PUSH2 0x46F3 JUMP JUMPDEST SWAP3 PUSH1 0xC4 CALLDATALOAD PUSH1 0x1 PUSH1 0x1 PUSH1 0xA0 SHL SUB DUP2 AND SWAP1 SUB PUSH2 0x5A3 JUMPI CALLER PUSH1 0x0 SWAP1 DUP2 MSTORE PUSH32 0x74BB1CA9260FC37125F5E18E451FF1E642AA55B4EEC93CDFB89E91BFF73AAFDD PUSH1 0x20 MSTORE PUSH1 0x40 SWAP1 KECCAK256 SLOAD PUSH1 0xFF AND ISZERO PUSH2 0x33BE JUMPI DUP2 MLOAD ISZERO PUSH2 0x3379 JUMPI DUP5 MLOAD ISZERO PUSH2 0x3334 JUMPI DUP3 MLOAD ISZERO PUSH2 0x32EF JUMPI PUSH1 0x40 MLOAD PUSH1 0x20 DUP2 DUP5 MLOAD PUSH2 0x25F9 DUP2 DUP4 DUP6 DUP10 ADD PUSH2 0x4711 JUMP JUMPDEST DUP2 ADD PUSH1 0xC DUP2 MSTORE SUB ADD SWAP1 KECCAK256 SLOAD PUSH2 0x329C JUMPI PUSH1 0x40 MLOAD PUSH1 0x20 DUP2 DUP8 MLOAD PUSH2 0x261D DUP2 DUP4 DUP6 DUP13 ADD PUSH2 0x4711 JUMP JUMPDEST DUP2 ADD PUSH1 0xD DUP2 MSTORE SUB ADD SWAP1 KECCAK256 SLOAD PUSH2 0x3246 JUMPI PUSH1 0x11 SLOAD SWAP4 PUSH2 0x2639 DUP6 PUSH2 0x4E41 JUMP JUMPDEST PUSH1 0x11 SSTORE PUSH1 0xC4 CALLDATALOAD PUSH1 0x1 PUSH1 0x1 PUSH1 0xA0 SHL SUB AND ISZERO PUSH2 0x322D JUMPI PUSH1 0x1 PUSH1 0x1 PUSH1 0xA0 SHL SUB PUSH2 0x2661 DUP7 PUSH1 0xC4 CALLDATALOAD PUSH2 0x4FEE JUMP JUMPDEST AND PUSH2 0x3214 JUMPI DUP5 PUSH1 0x0 MSTORE PUSH1 0x6 PUSH1 0x20 MSTORE PUSH1 0x40 PUSH1 0x0 KECCAK256 DUP2 MLOAD PUSH1 0x1 PUSH1 0x1 PUSH1 0x40 SHL SUB DUP2 GT PUSH2 0x4FE JUMPI PUSH2 0x268E DUP3 SLOAD PUSH2 0x47AE JUMP JUMPDEST PUSH1 0x1F DUP2 GT PUSH2 0x31D0 JUMPI JUMPDEST POP DUP1 PUSH1 0x20 PUSH1 0x1F DUP3 GT PUSH1 0x1 EQ PUSH2 0x3169 JUMPI PUSH1 0x0 SWAP2 PUSH2 0x315E JUMPI JUMPDEST POP DUP2 PUSH1 0x1 SHL SWAP2 PUSH1 0x0 NOT SWAP1 PUSH1 0x3 SHL SHR NOT AND OR SWAP1 SSTORE JUMPDEST PUSH32 0xF8E1A15ABA9398E019F0B49DF1A4FDE98EE17AE345CB5F6B5E2C27F5033E8CE7 PUSH1 0x20 PUSH1 0x40 MLOAD DUP8 DUP2 MSTORE LOG1 PUSH1 0x40 MLOAD SWAP2 PUSH2 0x26F9 DUP4 PUSH2 0x45F7 JUMP JUMPDEST DUP4 DUP4 MSTORE DUP7 PUSH1 0x20 DUP5 ADD MSTORE DUP5 PUSH1 0x40 DUP5 ADD MSTORE PUSH1 0x60 DUP4 ADD MSTORE TIMESTAMP PUSH1 0x80 DUP4 ADD MSTORE PUSH1 0x84 CALLDATALOAD PUSH1 0xA0 DUP4 ADD MSTORE PUSH1 0xC0 DUP3 ADD MSTORE PUSH1 0x0 PUSH1 0xE0 DUP3 ADD MSTORE CALLER PUSH2 0x100 DUP3 ADD MSTORE PUSH1 0x1 DUP1 PUSH1 0xA0 SHL SUB PUSH1 0xC4 CALLDATALOAD AND PUSH2 0x120 DUP3 ADD MSTORE PUSH1 0x40 MLOAD DUP1 PUSH1 0x40 DUP2 ADD LT PUSH1 0x1 PUSH1 0x1 PUSH1 0x40 SHL SUB PUSH1 0x40 DUP4 ADD GT OR PUSH2 0x4FE JUMPI PUSH1 0x40 DUP2 ADD PUSH1 0x40 MSTORE PUSH1 0x16 DUP2 MSTORE PUSH22 0x4D616E75666163747572696E6720466163696C697479 PUSH1 0x50 SHL PUSH1 0x20 DUP3 ADD MSTORE PUSH2 0x140 DUP3 ADD MSTORE TIMESTAMP PUSH2 0x160 DUP3 ADD MSTORE PUSH1 0x0 PUSH2 0x180 DUP3 ADD MSTORE PUSH1 0x0 PUSH2 0x1A0 DUP3 ADD MSTORE DUP4 PUSH1 0x0 MSTORE PUSH1 0x9 PUSH1 0x20 MSTORE PUSH1 0x40 PUSH1 0x0 KECCAK256 DUP2 MLOAD DUP1 MLOAD SWAP1 PUSH1 0x1 PUSH1 0x1 PUSH1 0x40 SHL SUB DUP3 GT PUSH2 0x4FE JUMPI DUP2 SWAP1 PUSH2 0x27CE DUP5 SLOAD PUSH2 0x47AE JUMP JUMPDEST PUSH1 0x1F DUP2 GT PUSH2 0x310E JUMPI JUMPDEST POP PUSH1 0x20 SWAP1 PUSH1 0x1F DUP4 GT PUSH1 0x1 EQ PUSH2 0x30A2 JUMPI PUSH1 0x0 SWAP3 PUSH2 0x3097 JUMPI JUMPDEST POP POP DUP2 PUSH1 0x1 SHL SWAP2 PUSH1 0x0 NOT SWAP1 PUSH1 0x3 SHL SHR NOT AND OR DUP2 SSTORE JUMPDEST PUSH1 0x20 DUP3 ADD MLOAD DUP1 MLOAD SWAP1 PUSH1 0x1 PUSH1 0x1 PUSH1 0x40 SHL SUB DUP3 GT PUSH2 0x4FE JUMPI DUP2 SWAP1 PUSH2 0x2828 PUSH1 0x1 DUP6 ADD SLOAD PUSH2 0x47AE JUMP JUMPDEST PUSH1 0x1F DUP2 GT PUSH2 0x3044 JUMPI JUMPDEST POP PUSH1 0x20 SWAP1 PUSH1 0x1F DUP4 GT PUSH1 0x1 EQ PUSH2 0x2FD2 JUMPI PUSH1 0x0 SWAP3 PUSH2 0x2FC7 JUMPI JUMPDEST POP POP DUP2 PUSH1 0x1 SHL SWAP2 PUSH1 0x0 NOT SWAP1 PUSH1 0x3 SHL SHR NOT AND OR PUSH1 0x1 DUP3 ADD SSTORE JUMPDEST PUSH1 0x40 DUP3 ADD MLOAD DUP1 MLOAD SWAP1 PUSH1 0x1 PUSH1 0x1 PUSH1 0x40 SHL SUB DUP3 GT PUSH2 0x4FE JUMPI DUP2 SWAP1 PUSH2 0x2885 PUSH1 0x2 DUP6 ADD SLOAD PUSH2 0x47AE JUMP JUMPDEST PUSH1 0x1F DUP2 GT PUSH2 0x2F74 JUMPI JUMPDEST POP PUSH1 0x20 SWAP1 PUSH1 0x1F DUP4 GT PUSH1 0x1 EQ PUSH2 0x2F02 JUMPI PUSH1 0x0 SWAP3 PUSH2 0x2EF7 JUMPI JUMPDEST POP POP DUP2 PUSH1 0x1 SHL SWAP2 PUSH1 0x0 NOT SWAP1 PUSH1 0x3 SHL SHR NOT AND OR PUSH1 0x2 DUP3 ADD SSTORE JUMPDEST PUSH1 0x60 DUP3 ADD MLOAD DUP1 MLOAD SWAP1 PUSH1 0x1 PUSH1 0x1 PUSH1 0x40 SHL SUB DUP3 GT PUSH2 0x4FE JUMPI DUP2 SWAP1 PUSH2 0x28E2 PUSH1 0x3 DUP6 ADD SLOAD PUSH2 0x47AE JUMP JUMPDEST PUSH1 0x1F DUP2 GT PUSH2 0x2EA4 JUMPI JUMPDEST POP PUSH1 0x20 SWAP1 PUSH1 0x1F DUP4 GT PUSH1 0x1 EQ PUSH2 0x2E32 JUMPI PUSH1 0x0 SWAP3 PUSH2 0x2E27 JUMPI JUMPDEST POP POP DUP2 PUSH1 0x1 SHL SWAP2 PUSH1 0x0 NOT SWAP1 PUSH1 0x3 SHL SHR NOT AND OR PUSH1 0x3 DUP3 ADD SSTORE JUMPDEST PUSH1 0x80 DUP3 ADD MLOAD PUSH1 0x4 DUP3 ADD SSTORE PUSH1 0xA0 DUP3 ADD MLOAD PUSH1 0x5 DUP3 ADD SSTORE PUSH1 0xC0 DUP3 ADD MLOAD DUP1 MLOAD SWAP1 PUSH1 0x1 PUSH1 0x1 PUSH1 0x40 SHL SUB DUP3 GT PUSH2 0x4FE JUMPI DUP2 SWAP1 PUSH2 0x2953 PUSH1 0x6 DUP6 ADD SLOAD PUSH2 0x47AE JUMP JUMPDEST PUSH1 0x1F DUP2 GT PUSH2 0x2DD4 JUMPI JUMPDEST POP PUSH1 0x20 SWAP1 PUSH1 0x1F DUP4 GT PUSH1 0x1 EQ PUSH2 0x2D62 JUMPI PUSH1 0x0 SWAP3 PUSH2 0x2D57 JUMPI JUMPDEST POP POP DUP2 PUSH1 0x1 SHL SWAP2 PUSH1 0x0 NOT SWAP1 PUSH1 0x3 SHL SHR NOT AND OR PUSH1 0x6 DUP3 ADD SSTORE JUMPDEST PUSH1 0x7 DUP2 ADD PUSH1 0xE0 DUP4 ADD MLOAD PUSH1 0x6 DUP2 LT ISZERO PUSH2 0x56F JUMPI DUP2 SLOAD PUSH1 0xFF PUSH2 0x100 PUSH1 0x1 PUSH1 0xA8 SHL SUB PUSH2 0x100 DUP8 ADD MLOAD PUSH1 0x8 SHL AND SWAP3 AND SWAP1 PUSH11 0xFFFFFFFFFFFFFFFFFFFFFF PUSH1 0xA8 SHL AND OR OR SWAP1 SSTORE PUSH1 0x8 DUP2 ADD PUSH1 0x1 DUP1 PUSH1 0xA0 SHL SUB PUSH2 0x120 DUP5 ADD MLOAD AND PUSH1 0x1 PUSH1 0x1 PUSH1 0x60 SHL SUB PUSH1 0xA0 SHL DUP3 SLOAD AND OR SWAP1 SSTORE PUSH2 0x140 DUP3 ADD MLOAD DUP1 MLOAD SWAP1 PUSH1 0x1 PUSH1 0x1 PUSH1 0x40 SHL SUB DUP3 GT PUSH2 0x4FE JUMPI PUSH2 0x2A12 PUSH1 0x9 DUP5 ADD SLOAD PUSH2 0x47AE JUMP JUMPDEST PUSH1 0x1F DUP2 GT PUSH2 0x2D10 JUMPI JUMPDEST POP PUSH1 0x20 SWAP1 PUSH1 0x1F DUP4 GT PUSH1 0x1 EQ PUSH2 0x2C9A JUMPI SWAP2 DUP1 PUSH2 0x1A0 SWAP5 SWAP3 PUSH1 0xB SWAP5 PUSH1 0x0 SWAP3 PUSH2 0x2C8F JUMPI JUMPDEST POP POP DUP2 PUSH1 0x1 SHL SWAP2 PUSH1 0x0 NOT SWAP1 PUSH1 0x3 SHL SHR NOT AND OR PUSH1 0x9 DUP3 ADD SSTORE JUMPDEST PUSH2 0x160 DUP5 ADD MLOAD PUSH1 0xA DUP3 ADD SSTORE ADD SWAP2 PUSH2 0x2A7E PUSH2 0x180 DUP3 ADD MLOAD ISZERO ISZERO DUP5 SWAP1 PUSH1 0xFF DUP1 NOT DUP4 SLOAD AND SWAP2 ISZERO ISZERO AND OR SWAP1 SSTORE JUMP JUMPDEST ADD MLOAD ISZERO ISZERO PUSH2 0xFF00 DUP3 SLOAD SWAP2 PUSH1 0x8 SHL AND SWAP1 PUSH2 0xFF00 NOT AND OR SWAP1 SSTORE DUP3 PUSH1 0x40 MLOAD PUSH1 0x20 DUP2 DUP5 MLOAD PUSH2 0x2AAB DUP2 DUP4 DUP6 DUP10 ADD PUSH2 0x4711 JUMP JUMPDEST DUP2 ADD PUSH1 0xC DUP2 MSTORE SUB ADD SWAP1 KECCAK256 SSTORE DUP3 PUSH1 0x40 MLOAD PUSH1 0x20 DUP2 DUP8 MLOAD PUSH2 0x2ACC DUP2 DUP4 DUP6 DUP13 ADD PUSH2 0x4711 JUMP JUMPDEST DUP2 ADD PUSH1 0xD DUP2 MSTORE SUB ADD SWAP1 KECCAK256 SSTORE DUP3 PUSH1 0x0 MSTORE PUSH1 0x10 PUSH1 0x20 MSTORE PUSH1 0x40 PUSH1 0x0 KECCAK256 PUSH1 0x1 DUP1 PUSH1 0xA0 SHL SUB PUSH1 0xC4 CALLDATALOAD AND PUSH1 0x0 MSTORE PUSH1 0x20 MSTORE PUSH1 0x40 PUSH1 0x0 KECCAK256 PUSH1 0x1 PUSH1 0xFF NOT DUP3 SLOAD AND OR SWAP1 SSTORE PUSH1 0x40 MLOAD PUSH1 0x20 DUP2 ADD SWAP1 DUP5 DUP3 MSTORE CALLER PUSH1 0x60 SHL PUSH1 0x40 DUP3 ADD MSTORE TIMESTAMP PUSH1 0x54 DUP3 ADD MSTORE PUSH6 0x29A2A72222A9 PUSH1 0xD1 SHL PUSH1 0x74 DUP3 ADD MSTORE PUSH1 0x5A DUP2 MSTORE PUSH2 0x2B3C DUP2 PUSH2 0x4665 JUMP JUMPDEST MLOAD SWAP1 KECCAK256 PUSH1 0x40 MLOAD PUSH1 0x20 DUP2 ADD SWAP1 DUP6 DUP3 MSTORE PUSH1 0x1 PUSH1 0x1 PUSH1 0x60 SHL SUB NOT PUSH1 0xC4 CALLDATALOAD PUSH1 0x60 SHL AND PUSH1 0x40 DUP3 ADD MSTORE TIMESTAMP PUSH1 0x54 DUP3 ADD MSTORE PUSH8 0x2922A1A2A4AB22A9 PUSH1 0xC1 SHL PUSH1 0x74 DUP3 ADD MSTORE PUSH1 0x5C DUP2 MSTORE PUSH2 0x2B83 DUP2 PUSH2 0x4665 JUMP JUMPDEST MLOAD SWAP1 KECCAK256 SWAP2 PUSH3 0x278D00 TIMESTAMP ADD SWAP1 DUP2 TIMESTAMP GT PUSH2 0x2C79 JUMPI PUSH1 0x40 MLOAD SWAP4 PUSH1 0x80 DUP6 ADD SWAP4 DUP6 DUP6 LT PUSH1 0x1 PUSH1 0x1 PUSH1 0x40 SHL SUB DUP7 GT OR PUSH2 0x4FE JUMPI PUSH1 0x20 SWAP9 DUP9 SWAP7 PUSH1 0x3 PUSH2 0x2C34 SWAP7 PUSH2 0x2C50 SWAP6 PUSH2 0x2C41 SWAP6 PUSH32 0x2E81E137755E5A5EB258F5B5E1258007A5E96E970880D7C8EE40E68F91DB8A4D SWAP11 PUSH1 0x40 MSTORE DUP5 MSTORE DUP14 DUP5 ADD SWAP1 DUP2 MSTORE PUSH1 0x40 DUP5 ADD SWAP1 TIMESTAMP DUP3 MSTORE PUSH1 0x60 DUP6 ADD SWAP3 DUP4 MSTORE DUP12 PUSH1 0x0 MSTORE PUSH1 0xF DUP16 MSTORE PUSH1 0x40 PUSH1 0x0 KECCAK256 SWAP5 MLOAD DUP6 SSTORE MLOAD PUSH1 0x1 DUP6 ADD SSTORE MLOAD PUSH1 0x2 DUP5 ADD SSTORE MLOAD SWAP2 ADD SSTORE PUSH1 0x40 MLOAD SWAP5 DUP6 SWAP5 PUSH1 0x60 DUP7 MSTORE PUSH1 0x60 DUP7 ADD SWAP1 PUSH2 0x4734 JUMP JUMPDEST SWAP1 DUP5 DUP3 SUB DUP12 DUP7 ADD MSTORE PUSH2 0x4734 JUMP JUMPDEST DUP3 DUP2 SUB PUSH1 0x40 DUP5 ADD MSTORE CALLER SWAP7 PUSH2 0x4734 JUMP JUMPDEST SUB SWAP1 LOG3 DUP1 PUSH1 0x0 DUP1 MLOAD PUSH1 0x20 PUSH2 0x50EF DUP4 CODECOPY DUP2 MLOAD SWAP2 MSTORE PUSH1 0x40 DUP1 MLOAD PUSH1 0x0 DUP2 MSTORE CALLER DUP7 DUP3 ADD MSTORE LOG2 PUSH1 0x40 MLOAD SWAP1 DUP2 MSTORE RETURN JUMPDEST PUSH4 0x4E487B71 PUSH1 0xE0 SHL PUSH1 0x0 MSTORE PUSH1 0x11 PUSH1 0x4 MSTORE PUSH1 0x24 PUSH1 0x0 REVERT JUMPDEST ADD MLOAD SWAP1 POP DUP11 DUP1 PUSH2 0x2A3C JUMP JUMPDEST SWAP1 PUSH1 0x9 DUP5 ADD PUSH1 0x0 MSTORE PUSH1 0x20 PUSH1 0x0 KECCAK256 SWAP2 PUSH1 0x0 JUMPDEST PUSH1 0x1F NOT DUP6 AND DUP2 LT PUSH2 0x2CF8 JUMPI POP SWAP3 PUSH2 0x1A0 SWAP5 SWAP3 PUSH1 0x1 SWAP3 PUSH1 0xB SWAP6 DUP4 PUSH1 0x1F NOT DUP2 AND LT PUSH2 0x2CDF JUMPI JUMPDEST POP POP POP DUP2 SHL ADD PUSH1 0x9 DUP3 ADD SSTORE PUSH2 0x2A54 JUMP JUMPDEST ADD MLOAD PUSH1 0x0 NOT PUSH1 0xF8 DUP5 PUSH1 0x3 SHL AND SHR NOT AND SWAP1 SSTORE DUP11 DUP1 DUP1 PUSH2 0x2CCF JUMP JUMPDEST SWAP2 SWAP3 PUSH1 0x20 PUSH1 0x1 DUP2 SWAP3 DUP7 DUP6 ADD MLOAD DUP2 SSTORE ADD SWAP5 ADD SWAP3 ADD PUSH2 0x2CAB JUMP JUMPDEST PUSH1 0x9 DUP5 ADD PUSH1 0x0 MSTORE PUSH1 0x20 PUSH1 0x0 KECCAK256 PUSH1 0x1F DUP5 ADD PUSH1 0x5 SHR DUP2 ADD PUSH1 0x20 DUP6 LT PUSH2 0x2D50 JUMPI JUMPDEST PUSH1 0x1F DUP4 ADD PUSH1 0x5 SHR DUP3 ADD DUP2 LT PUSH2 0x2D44 JUMPI POP POP PUSH2 0x2A1B JUMP JUMPDEST PUSH1 0x0 DUP2 SSTORE PUSH1 0x1 ADD PUSH2 0x2D2E JUMP JUMPDEST POP DUP1 PUSH2 0x2D2E JUMP JUMPDEST ADD MLOAD SWAP1 POP DUP9 DUP1 PUSH2 0x2973 JUMP JUMPDEST SWAP3 POP PUSH1 0x6 DUP5 ADD PUSH1 0x0 MSTORE PUSH1 0x20 PUSH1 0x0 KECCAK256 SWAP1 PUSH1 0x0 SWAP4 JUMPDEST PUSH1 0x1F NOT DUP5 AND DUP6 LT PUSH2 0x2DB9 JUMPI PUSH1 0x1 SWAP5 POP DUP4 PUSH1 0x1F NOT DUP2 AND LT PUSH2 0x2DA0 JUMPI JUMPDEST POP POP POP DUP2 SHL ADD PUSH1 0x6 DUP3 ADD SSTORE PUSH2 0x298B JUMP JUMPDEST ADD MLOAD PUSH1 0x0 NOT PUSH1 0xF8 DUP5 PUSH1 0x3 SHL AND SHR NOT AND SWAP1 SSTORE DUP9 DUP1 DUP1 PUSH2 0x2D90 JUMP JUMPDEST DUP2 DUP2 ADD MLOAD DUP4 SSTORE PUSH1 0x20 SWAP5 DUP6 ADD SWAP5 PUSH1 0x1 SWAP1 SWAP4 ADD SWAP3 SWAP1 SWAP2 ADD SWAP1 PUSH2 0x2D75 JUMP JUMPDEST SWAP1 SWAP2 POP PUSH1 0x6 DUP5 ADD PUSH1 0x0 MSTORE PUSH1 0x20 PUSH1 0x0 KECCAK256 PUSH1 0x1F DUP5 ADD PUSH1 0x5 SHR DUP2 ADD PUSH1 0x20 DUP6 LT PUSH2 0x2E20 JUMPI JUMPDEST SWAP1 DUP5 SWAP4 SWAP3 SWAP2 JUMPDEST PUSH1 0x1F DUP4 ADD PUSH1 0x5 SHR DUP3 ADD DUP2 LT PUSH2 0x2E11 JUMPI POP POP PUSH2 0x295C JUMP JUMPDEST PUSH1 0x0 DUP2 SSTORE DUP6 SWAP5 POP PUSH1 0x1 ADD PUSH2 0x2DFB JUMP JUMPDEST POP DUP1 PUSH2 0x2DF5 JUMP JUMPDEST ADD MLOAD SWAP1 POP DUP9 DUP1 PUSH2 0x2902 JUMP JUMPDEST SWAP3 POP PUSH1 0x3 DUP5 ADD PUSH1 0x0 MSTORE PUSH1 0x20 PUSH1 0x0 KECCAK256 SWAP1 PUSH1 0x0 SWAP4 JUMPDEST PUSH1 0x1F NOT DUP5 AND DUP6 LT PUSH2 0x2E89 JUMPI PUSH1 0x1 SWAP5 POP DUP4 PUSH1 0x1F NOT DUP2 AND LT PUSH2 0x2E70 JUMPI JUMPDEST POP POP POP DUP2 SHL ADD PUSH1 0x3 DUP3 ADD SSTORE PUSH2 0x291A JUMP JUMPDEST ADD MLOAD PUSH1 0x0 NOT PUSH1 0xF8 DUP5 PUSH1 0x3 SHL AND SHR NOT AND SWAP1 SSTORE DUP9 DUP1 DUP1 PUSH2 0x2E60 JUMP JUMPDEST DUP2 DUP2 ADD MLOAD DUP4 SSTORE PUSH1 0x20 SWAP5 DUP6 ADD SWAP5 PUSH1 0x1 SWAP1 SWAP4 ADD SWAP3 SWAP1 SWAP2 ADD SWAP1 PUSH2 0x2E45 JUMP JUMPDEST SWAP1 SWAP2 POP PUSH1 0x3 DUP5 ADD PUSH1 0x0 MSTORE PUSH1 0x20 PUSH1 0x0 KECCAK256 PUSH1 0x1F DUP5 ADD PUSH1 0x5 SHR DUP2 ADD PUSH1 0x20 DUP6 LT PUSH2 0x2EF0 JUMPI JUMPDEST SWAP1 DUP5 SWAP4 SWAP3 SWAP2 JUMPDEST PUSH1 0x1F DUP4 ADD PUSH1 0x5 SHR DUP3 ADD DUP2 LT PUSH2 0x2EE1 JUMPI POP POP PUSH2 0x28EB JUMP JUMPDEST PUSH1 0x0 DUP2 SSTORE DUP6 SWAP5 POP PUSH1 0x1 ADD PUSH2 0x2ECB JUMP JUMPDEST POP DUP1 PUSH2 0x2EC5 JUMP JUMPDEST ADD MLOAD SWAP1 POP DUP9 DUP1 PUSH2 0x28A5 JUMP JUMPDEST SWAP3 POP PUSH1 0x2 DUP5 ADD PUSH1 0x0 MSTORE PUSH1 0x20 PUSH1 0x0 KECCAK256 SWAP1 PUSH1 0x0 SWAP4 JUMPDEST PUSH1 0x1F NOT DUP5 AND DUP6 LT PUSH2 0x2F59 JUMPI PUSH1 0x1 SWAP5 POP DUP4 PUSH1 0x1F NOT DUP2 AND LT PUSH2 0x2F40 JUMPI JUMPDEST POP POP POP DUP2 SHL ADD PUSH1 0x2 DUP3 ADD SSTORE PUSH2 0x28BD JUMP JUMPDEST ADD MLOAD PUSH1 0x0 NOT PUSH1 0xF8 DUP5 PUSH1 0x3 SHL AND SHR NOT AND SWAP1 SSTORE DUP9 DUP1 DUP1 PUSH2 0x2F30 JUMP JUMPDEST DUP2 DUP2 ADD MLOAD DUP4 SSTORE PUSH1 0x20 SWAP5 DUP6 ADD SWAP5 PUSH1 0x1 SWAP1 SWAP4 ADD SWAP3 SWAP1 SWAP2 ADD SWAP1 PUSH2 0x2F15 JUMP JUMPDEST SWAP1 SWAP2 POP PUSH1 0x2 DUP5 ADD PUSH1 0x0 MSTORE PUSH1 0x20 PUSH1 0x0 KECCAK256 PUSH1 0x1F DUP5 ADD PUSH1 0x5 SHR DUP2 ADD PUSH1 0x20 DUP6 LT PUSH2 0x2FC0 JUMPI JUMPDEST SWAP1 DUP5 SWAP4 SWAP3 SWAP2 JUMPDEST PUSH1 0x1F DUP4 ADD PUSH1 0x5 SHR DUP3 ADD DUP2 LT PUSH2 0x2FB1 JUMPI POP POP PUSH2 0x288E JUMP JUMPDEST PUSH1 0x0 DUP2 SSTORE DUP6 SWAP5 POP PUSH1 0x1 ADD PUSH2 0x2F9B JUMP JUMPDEST POP DUP1 PUSH2 0x2F95 JUMP JUMPDEST ADD MLOAD SWAP1 POP DUP9 DUP1 PUSH2 0x2848 JUMP JUMPDEST SWAP3 POP PUSH1 0x1 DUP5 ADD PUSH1 0x0 MSTORE PUSH1 0x20 PUSH1 0x0 KECCAK256 SWAP1 PUSH1 0x0 SWAP4 JUMPDEST PUSH1 0x1F NOT DUP5 AND DUP6 LT PUSH2 0x3029 JUMPI PUSH1 0x1 SWAP5 POP DUP4 PUSH1 0x1F NOT DUP2 AND LT PUSH2 0x3010 JUMPI JUMPDEST POP POP POP DUP2 SHL ADD PUSH1 0x1 DUP3 ADD SSTORE PUSH2 0x2860 JUMP JUMPDEST ADD MLOAD PUSH1 0x0 NOT PUSH1 0xF8 DUP5 PUSH1 0x3 SHL AND SHR NOT AND SWAP1 SSTORE DUP9 DUP1 DUP1 PUSH2 0x3000 JUMP JUMPDEST DUP2 DUP2 ADD MLOAD DUP4 SSTORE PUSH1 0x20 SWAP5 DUP6 ADD SWAP5 PUSH1 0x1 SWAP1 SWAP4 ADD SWAP3 SWAP1 SWAP2 ADD SWAP1 PUSH2 0x2FE5 JUMP JUMPDEST SWAP1 SWAP2 POP PUSH1 0x1 DUP5 ADD PUSH1 0x0 MSTORE PUSH1 0x20 PUSH1 0x0 KECCAK256 PUSH1 0x1F DUP5 ADD PUSH1 0x5 SHR DUP2 ADD PUSH1 0x20 DUP6 LT PUSH2 0x3090 JUMPI JUMPDEST SWAP1 DUP5 SWAP4 SWAP3 SWAP2 JUMPDEST PUSH1 0x1F DUP4 ADD PUSH1 0x5 SHR DUP3 ADD DUP2 LT PUSH2 0x3081 JUMPI POP POP PUSH2 0x2831 JUMP JUMPDEST PUSH1 0x0 DUP2 SSTORE DUP6 SWAP5 POP PUSH1 0x1 ADD PUSH2 0x306B JUMP JUMPDEST POP DUP1 PUSH2 0x3065 JUMP JUMPDEST ADD MLOAD SWAP1 POP DUP9 DUP1 PUSH2 0x27EE JUMP JUMPDEST SWAP3 POP DUP4 PUSH1 0x0 MSTORE PUSH1 0x20 PUSH1 0x0 KECCAK256 SWAP1 PUSH1 0x0 SWAP4 JUMPDEST PUSH1 0x1F NOT DUP5 AND DUP6 LT PUSH2 0x30F3 JUMPI PUSH1 0x1 SWAP5 POP DUP4 PUSH1 0x1F NOT DUP2 AND LT PUSH2 0x30DA JUMPI JUMPDEST POP POP POP DUP2 SHL ADD DUP2 SSTORE PUSH2 0x2803 JUMP JUMPDEST ADD MLOAD PUSH1 0x0 NOT PUSH1 0xF8 DUP5 PUSH1 0x3 SHL AND SHR NOT AND SWAP1 SSTORE DUP9 DUP1 DUP1 PUSH2 0x30CD JUMP JUMPDEST DUP2 DUP2 ADD MLOAD DUP4 SSTORE PUSH1 0x20 SWAP5 DUP6 ADD SWAP5 PUSH1 0x1 SWAP1 SWAP4 ADD SWAP3 SWAP1 SWAP2 ADD SWAP1 PUSH2 0x30B2 JUMP JUMPDEST SWAP1 SWAP2 POP DUP4 PUSH1 0x0 MSTORE PUSH1 0x20 PUSH1 0x0 KECCAK256 PUSH1 0x1F DUP5 ADD PUSH1 0x5 SHR DUP2 ADD PUSH1 0x20 DUP6 LT PUSH2 0x3157 JUMPI JUMPDEST SWAP1 DUP5 SWAP4 SWAP3 SWAP2 JUMPDEST PUSH1 0x1F DUP4 ADD PUSH1 0x5 SHR DUP3 ADD DUP2 LT PUSH2 0x3148 JUMPI POP POP PUSH2 0x27D7 JUMP JUMPDEST PUSH1 0x0 DUP2 SSTORE DUP6 SWAP5 POP PUSH1 0x1 ADD PUSH2 0x3132 JUMP JUMPDEST POP DUP1 PUSH2 0x312C JUMP JUMPDEST SWAP1 POP DUP4 ADD MLOAD DUP10 PUSH2 0x26AE JUMP JUMPDEST SWAP2 POP DUP3 PUSH1 0x0 MSTORE PUSH1 0x20 PUSH1 0x0 KECCAK256 PUSH1 0x0 SWAP3 JUMPDEST PUSH1 0x1F NOT DUP4 AND DUP5 LT PUSH2 0x31B8 JUMPI PUSH1 0x1 SWAP4 POP DUP3 PUSH1 0x1F NOT DUP2 AND LT PUSH2 0x319F JUMPI JUMPDEST POP POP DUP2 SHL ADD SWAP1 SSTORE PUSH2 0x26C2 JUMP JUMPDEST DUP6 ADD MLOAD PUSH1 0x0 NOT PUSH1 0xF8 DUP5 PUSH1 0x3 SHL AND SHR NOT AND SWAP1 SSTORE DUP10 DUP1 PUSH2 0x3193 JUMP JUMPDEST DUP6 DUP2 ADD MLOAD DUP3 SSTORE PUSH1 0x20 SWAP4 DUP5 ADD SWAP4 PUSH1 0x1 SWAP1 SWAP3 ADD SWAP2 ADD PUSH2 0x3178 JUMP JUMPDEST DUP3 PUSH1 0x0 MSTORE PUSH1 0x20 PUSH1 0x0 KECCAK256 PUSH1 0x1F DUP4 ADD PUSH1 0x5 SHR DUP2 ADD PUSH1 0x20 DUP5 LT PUSH2 0x320D JUMPI JUMPDEST PUSH1 0x1F DUP4 ADD PUSH1 0x5 SHR DUP3 ADD DUP2 LT PUSH2 0x3201 JUMPI POP POP PUSH2 0x2697 JUMP JUMPDEST PUSH1 0x0 DUP2 SSTORE PUSH1 0x1 ADD PUSH2 0x31EB JUMP JUMPDEST POP DUP1 PUSH2 0x31EB JUMP JUMPDEST PUSH1 0x40 MLOAD PUSH4 0x39E35637 PUSH1 0xE1 SHL DUP2 MSTORE PUSH1 0x0 PUSH1 0x4 DUP3 ADD MSTORE PUSH1 0x24 SWAP1 REVERT JUMPDEST PUSH1 0x40 MLOAD PUSH4 0x32505749 PUSH1 0xE1 SHL DUP2 MSTORE PUSH1 0x0 PUSH1 0x4 DUP3 ADD MSTORE PUSH1 0x24 SWAP1 REVERT JUMPDEST PUSH1 0x40 MLOAD PUSH3 0x461BCD PUSH1 0xE5 SHL DUP2 MSTORE PUSH1 0x20 PUSH1 0x4 DUP3 ADD MSTORE PUSH1 0x28 PUSH1 0x24 DUP3 ADD MSTORE PUSH32 0x50726F647563742077697468207468697320626172636F646520616C72656164 PUSH1 0x44 DUP3 ADD MSTORE PUSH8 0x7920657869737473 PUSH1 0xC0 SHL PUSH1 0x64 DUP3 ADD MSTORE PUSH1 0x84 SWAP1 REVERT JUMPDEST PUSH1 0x40 MLOAD PUSH3 0x461BCD PUSH1 0xE5 SHL DUP2 MSTORE PUSH1 0x20 PUSH1 0x4 DUP3 ADD MSTORE PUSH1 0x25 PUSH1 0x24 DUP3 ADD MSTORE PUSH32 0x50726F6475637420776974682074686973205246494420616C72656164792065 PUSH1 0x44 DUP3 ADD MSTORE PUSH5 0x7869737473 PUSH1 0xD8 SHL PUSH1 0x64 DUP3 ADD MSTORE PUSH1 0x84 SWAP1 REVERT JUMPDEST PUSH1 0x40 MLOAD PUSH3 0x461BCD PUSH1 0xE5 SHL DUP2 MSTORE PUSH1 0x20 PUSH1 0x4 DUP3 ADD MSTORE PUSH1 0x1C PUSH1 0x24 DUP3 ADD MSTORE PUSH32 0x50726F64756374206E616D652063616E6E6F7420626520656D70747900000000 PUSH1 0x44 DUP3 ADD MSTORE PUSH1 0x64 SWAP1 REVERT JUMPDEST PUSH1 0x40 MLOAD PUSH3 0x461BCD PUSH1 0xE5 SHL DUP2 MSTORE PUSH1 0x20 PUSH1 0x4 DUP3 ADD MSTORE PUSH1 0x17 PUSH1 0x24 DUP3 ADD MSTORE PUSH32 0x426172636F64652063616E6E6F7420626520656D707479000000000000000000 PUSH1 0x44 DUP3 ADD MSTORE PUSH1 0x64 SWAP1 REVERT JUMPDEST PUSH1 0x40 MLOAD PUSH3 0x461BCD PUSH1 0xE5 SHL DUP2 MSTORE PUSH1 0x20 PUSH1 0x4 DUP3 ADD MSTORE PUSH1 0x19 PUSH1 0x24 DUP3 ADD MSTORE PUSH32 0x5246494420686173682063616E6E6F7420626520656D70747900000000000000 PUSH1 0x44 DUP3 ADD MSTORE PUSH1 0x64 SWAP1 REVERT JUMPDEST PUSH1 0x40 MLOAD PUSH4 0xE2517D3F PUSH1 0xE0 SHL DUP2 MSTORE CALLER PUSH1 0x4 DUP3 ADD MSTORE PUSH32 0xEEFB95E842A3287179D933B4460BE539A1D5AF11AA8B325BB45C5C8DC92DE4ED PUSH1 0x24 DUP3 ADD MSTORE PUSH1 0x44 SWAP1 REVERT JUMPDEST CALLVALUE PUSH2 0x5A3 JUMPI PUSH2 0x8B7 PUSH2 0x340D CALLDATASIZE PUSH2 0x488B JUMP JUMPDEST SWAP1 PUSH1 0x40 MLOAD SWAP3 PUSH2 0x341B DUP5 PUSH2 0x464A JUMP JUMPDEST PUSH1 0x0 DUP5 MSTORE PUSH2 0x4CB2 JUMP JUMPDEST CALLVALUE PUSH2 0x5A3 JUMPI PUSH1 0x20 CALLDATASIZE PUSH1 0x3 NOT ADD SLT PUSH2 0x5A3 JUMPI PUSH1 0x4 CALLDATALOAD PUSH1 0x1 PUSH1 0x1 PUSH1 0x40 SHL SUB DUP2 GT PUSH2 0x5A3 JUMPI PUSH2 0x345A PUSH1 0x20 PUSH2 0x9FC DUP2 SWAP4 CALLDATASIZE SWAP1 PUSH1 0x4 ADD PUSH2 0x46F3 JUMP JUMPDEST DUP2 ADD PUSH1 0xD DUP2 MSTORE SUB ADD SWAP1 KECCAK256 SLOAD PUSH1 0x40 MLOAD SWAP1 DUP2 MSTORE RETURN JUMPDEST CALLVALUE PUSH2 0x5A3 JUMPI PUSH1 0x40 CALLDATASIZE PUSH1 0x3 NOT ADD SLT PUSH2 0x5A3 JUMPI PUSH2 0x3486 PUSH2 0x45AF JUMP JUMPDEST CALLER PUSH1 0x1 PUSH1 0x1 PUSH1 0xA0 SHL SUB DUP3 AND SUB PUSH2 0x34A2 JUMPI PUSH2 0x8B7 SWAP1 PUSH1 0x4 CALLDATALOAD PUSH2 0x4A60 JUMP JUMPDEST PUSH1 0x40 MLOAD PUSH4 0x334BD919 PUSH1 0xE1 SHL DUP2 MSTORE PUSH1 0x4 SWAP1 REVERT JUMPDEST CALLVALUE PUSH2 0x5A3 JUMPI PUSH2 0x34C2 CALLDATASIZE PUSH2 0x4766 JUMP JUMPDEST SWAP1 PUSH1 0x0 MSTORE PUSH1 0xE PUSH1 0x20 MSTORE PUSH1 0x40 PUSH1 0x0 KECCAK256 DUP1 SLOAD DUP3 LT ISZERO PUSH2 0x5A3 JUMPI PUSH1 0x20 SWAP2 PUSH2 0x34E5 SWAP2 PUSH2 0x48C0 JUMP JUMPDEST SWAP1 SLOAD PUSH1 0x40 MLOAD SWAP2 PUSH1 0x3 SHL SHR DUP2 MSTORE RETURN JUMPDEST CALLVALUE PUSH2 0x5A3 JUMPI PUSH1 0x40 CALLDATASIZE PUSH1 0x3 NOT ADD SLT PUSH2 0x5A3 JUMPI PUSH2 0x8B7 PUSH1 0x4 CALLDATALOAD PUSH2 0x3512 PUSH2 0x45AF JUMP JUMPDEST SWAP1 DUP1 PUSH1 0x0 MSTORE PUSH1 0x7 PUSH1 0x20 MSTORE PUSH2 0x352D PUSH1 0x1 PUSH1 0x40 PUSH1 0x0 KECCAK256 ADD SLOAD PUSH2 0x49BA JUMP JUMPDEST PUSH2 0x49E0 JUMP JUMPDEST CALLVALUE PUSH2 0x5A3 JUMPI PUSH1 0x20 CALLDATASIZE PUSH1 0x3 NOT ADD SLT PUSH2 0x5A3 JUMPI PUSH1 0x4 CALLDATALOAD PUSH1 0x0 MSTORE PUSH1 0xA PUSH1 0x20 MSTORE PUSH1 0x20 PUSH1 0x40 PUSH1 0x0 KECCAK256 DUP1 SLOAD SWAP1 PUSH1 0x1 DUP1 PUSH1 0xA0 SHL SUB SWAP1 DUP2 PUSH1 0x1 DUP3 ADD SLOAD AND SWAP1 PUSH1 0x2 DUP2 ADD SLOAD SWAP3 PUSH1 0x40 MLOAD SWAP4 PUSH2 0x358A DUP6 PUSH2 0x3583 DUP2 PUSH1 0x3 DUP8 ADD PUSH2 0x47E8 JUMP JUMPDEST SUB DUP7 PUSH2 0x4680 JUMP JUMPDEST PUSH2 0x3606 PUSH1 0x40 MLOAD PUSH2 0x35A1 DUP2 PUSH2 0x735 DUP2 PUSH1 0x4 DUP10 ADD PUSH2 0x47E8 JUMP JUMPDEST PUSH2 0x35F8 PUSH1 0x5 DUP7 ADD SLOAD SWAP8 PUSH2 0x35E7 PUSH1 0x6 DUP9 ADD SLOAD SWAP6 PUSH1 0x7 DUP10 ADD SLOAD SWAP8 PUSH1 0x9 PUSH1 0x8 DUP12 ADD SLOAD SWAP11 ADD SLOAD SWAP11 PUSH1 0x40 MLOAD SWAP15 DUP16 SWAP15 DUP16 SWAP1 DUP2 MSTORE ADD MSTORE DUP2 AND PUSH1 0x40 DUP14 ADD MSTORE PUSH1 0xFF PUSH1 0x60 DUP14 ADD SWAP2 PUSH1 0xA0 SHR AND PUSH2 0x4759 JUMP JUMPDEST PUSH2 0x160 DUP1 PUSH1 0x80 DUP13 ADD MSTORE DUP11 ADD SWAP1 PUSH2 0x4734 JUMP JUMPDEST SWAP1 DUP9 DUP3 SUB PUSH1 0xA0 DUP11 ADD MSTORE PUSH2 0x4734 JUMP JUMPDEST SWAP5 PUSH1 0xC0 DUP8 ADD MSTORE PUSH1 0xE0 DUP7 ADD MSTORE PUSH2 0x100 DUP6 ADD MSTORE PUSH2 0x120 DUP5 ADD MSTORE PUSH2 0x140 DUP4 ADD MSTORE SUB SWAP1 RETURN JUMPDEST CALLVALUE PUSH2 0x5A3 JUMPI PUSH1 0x20 DUP1 PUSH1 0x3 NOT CALLDATASIZE ADD SLT PUSH2 0x5A3 JUMPI PUSH1 0x4 CALLDATALOAD SWAP1 PUSH2 0x3645 PUSH2 0x4914 JUMP JUMPDEST DUP2 PUSH1 0x0 MSTORE PUSH1 0xA DUP2 MSTORE PUSH1 0xFF PUSH1 0x2 PUSH1 0x40 PUSH1 0x0 KECCAK256 ADD SLOAD PUSH1 0xA0 SHR AND PUSH1 0x5 DUP2 LT ISZERO PUSH2 0x56F JUMPI PUSH1 0x1 SUB PUSH2 0x36E2 JUMPI PUSH1 0x40 PUSH1 0x0 DUP1 MLOAD PUSH1 0x20 PUSH2 0x50EF DUP4 CODECOPY DUP2 MLOAD SWAP2 MSTORE SWAP2 DUP4 PUSH1 0x0 MSTORE PUSH1 0xA DUP2 MSTORE DUP2 PUSH1 0x0 KECCAK256 SLOAD SWAP4 DUP5 PUSH1 0x0 MSTORE PUSH1 0x9 DUP3 MSTORE DUP3 PUSH1 0x0 KECCAK256 PUSH1 0x7 DUP2 ADD PUSH1 0x2 PUSH1 0xFF NOT DUP3 SLOAD AND OR SWAP1 SSTORE PUSH1 0xA TIMESTAMP SWAP2 ADD SSTORE PUSH1 0x0 MSTORE PUSH1 0xA DUP2 MSTORE DUP2 PUSH1 0x0 KECCAK256 PUSH1 0x2 DUP2 ADD PUSH1 0x1 PUSH1 0xA1 SHL PUSH1 0xFF PUSH1 0xA0 SHL NOT DUP3 SLOAD AND OR SWAP1 SSTORE PUSH1 0x7 TIMESTAMP SWAP2 ADD SSTORE DUP2 MLOAD SWAP1 PUSH1 0x2 DUP3 MSTORE CALLER SWAP1 DUP3 ADD MSTORE LOG2 STOP JUMPDEST PUSH1 0x64 SWAP1 PUSH1 0x40 MLOAD SWAP1 PUSH3 0x461BCD PUSH1 0xE5 SHL DUP3 MSTORE PUSH1 0x4 DUP3 ADD MSTORE PUSH1 0x15 PUSH1 0x24 DUP3 ADD MSTORE PUSH21 0x14DA1A5C1B595B9D081B9BDD08185C1C1C9BDD9959 PUSH1 0x5A SHL PUSH1 0x44 DUP3 ADD MSTORE REVERT JUMPDEST CALLVALUE PUSH2 0x5A3 JUMPI PUSH1 0x20 CALLDATASIZE PUSH1 0x3 NOT ADD SLT PUSH2 0x5A3 JUMPI PUSH1 0x4 CALLDATALOAD PUSH1 0x0 MSTORE PUSH1 0x7 PUSH1 0x20 MSTORE PUSH1 0x20 PUSH1 0x1 PUSH1 0x40 PUSH1 0x0 KECCAK256 ADD SLOAD PUSH1 0x40 MLOAD SWAP1 DUP2 MSTORE RETURN JUMPDEST CALLVALUE PUSH2 0x5A3 JUMPI PUSH2 0x8B7 PUSH2 0x375E CALLDATASIZE PUSH2 0x488B JUMP JUMPDEST SWAP2 PUSH2 0x4AD7 JUMP JUMPDEST CALLVALUE PUSH2 0x5A3 JUMPI PUSH1 0x0 CALLDATASIZE PUSH1 0x3 NOT ADD SLT PUSH2 0x5A3 JUMPI PUSH1 0x20 PUSH1 0x40 MLOAD PUSH32 0x2A5F906C256A5D799494FCD066E1F6C077689DE1CDB65052A1624DE4BACE99BF DUP2 MSTORE RETURN JUMPDEST CALLVALUE PUSH2 0x5A3 JUMPI PUSH1 0x0 CALLDATASIZE PUSH1 0x3 NOT ADD SLT PUSH2 0x5A3 JUMPI PUSH1 0x20 PUSH1 0x40 MLOAD PUSH32 0x288A15C4A15D470E4CD9CAD2F113B91206B520C26DBD3DD74627F0C057BAA19C DUP2 MSTORE RETURN JUMPDEST CALLVALUE PUSH2 0x5A3 JUMPI PUSH1 0x20 DUP1 PUSH1 0x3 NOT CALLDATASIZE ADD SLT PUSH2 0x5A3 JUMPI PUSH1 0x4 CALLDATALOAD SWAP1 PUSH2 0x37F8 PUSH2 0x4970 JUMP JUMPDEST DUP2 PUSH1 0x0 MSTORE PUSH1 0xA DUP2 MSTORE PUSH1 0xFF PUSH1 0x2 PUSH1 0x40 PUSH1 0x0 KECCAK256 ADD SLOAD PUSH1 0xA0 SHR AND PUSH1 0x5 DUP2 LT ISZERO PUSH2 0x56F JUMPI PUSH2 0x3882 JUMPI PUSH1 0x3 PUSH32 0xF9011029A94EB60997B710D356797EF53371EC55BFE6DB12AB6899B3BB4703EC SWAP2 DUP4 PUSH1 0x0 MSTORE PUSH1 0xA DUP2 MSTORE PUSH2 0x387D PUSH1 0x40 PUSH1 0x0 KECCAK256 PUSH1 0x2 DUP2 ADD PUSH1 0x1 PUSH1 0xA0 SHL PUSH1 0xFF PUSH1 0xA0 SHL NOT DUP3 SLOAD AND OR SWAP1 SSTORE TIMESTAMP PUSH1 0x6 DUP3 ADD SSTORE PUSH1 0x40 MLOAD SWAP4 DUP4 DUP6 SWAP5 DUP6 MSTORE DUP5 ADD SWAP2 ADD PUSH2 0x47E8 JUMP JUMPDEST SUB SWAP1 LOG2 STOP JUMPDEST PUSH1 0x64 SWAP1 PUSH1 0x40 MLOAD SWAP1 PUSH3 0x461BCD PUSH1 0xE5 SHL DUP3 MSTORE PUSH1 0x4 DUP3 ADD MSTORE PUSH1 0x1F PUSH1 0x24 DUP3 ADD MSTORE PUSH32 0x536869706D656E74206E6F7420696E2072657175657374656420737461746500 PUSH1 0x44 DUP3 ADD MSTORE REVERT JUMPDEST CALLVALUE PUSH2 0x5A3 JUMPI PUSH2 0x38D4 CALLDATASIZE PUSH2 0x4766 JUMP JUMPDEST SWAP1 PUSH1 0x0 MSTORE PUSH1 0xB PUSH1 0x20 MSTORE PUSH1 0x40 PUSH1 0x0 KECCAK256 SWAP1 DUP2 SLOAD DUP2 LT ISZERO PUSH2 0x5A3 JUMPI PUSH2 0x38F5 SWAP2 PUSH2 0x477C JUMP JUMPDEST POP DUP1 SLOAD PUSH2 0x9C2 PUSH1 0xFF PUSH1 0x1 DUP5 ADD SLOAD AND SWAP3 PUSH1 0x8 PUSH1 0x2 DUP3 ADD SLOAD SWAP2 PUSH1 0x40 MLOAD SWAP3 PUSH2 0x3928 DUP5 PUSH2 0x3921 DUP2 PUSH1 0x3 DUP7 ADD PUSH2 0x47E8 JUMP JUMPDEST SUB DUP6 PUSH2 0x4680 JUMP JUMPDEST PUSH2 0x39B2 PUSH1 0x40 MLOAD PUSH2 0x393F DUP2 PUSH2 0x735 DUP2 PUSH1 0x4 DUP9 ADD PUSH2 0x47E8 JUMP JUMPDEST PUSH2 0x39A4 PUSH1 0x1 DUP1 PUSH1 0xA0 SHL SUB PUSH1 0x5 DUP7 ADD SLOAD AND SWAP7 PUSH1 0x6 DUP7 ADD SLOAD SWAP5 PUSH2 0x3979 PUSH1 0xFF PUSH1 0x7 DUP10 ADD SLOAD AND SWAP8 PUSH2 0x3972 PUSH1 0x40 MLOAD DUP1 SWAP12 DUP2 SWAP4 ADD PUSH2 0x47E8 JUMP JUMPDEST SUB DUP10 PUSH2 0x4680 JUMP JUMPDEST PUSH2 0x398E PUSH1 0x40 MLOAD SWAP13 DUP14 SWAP13 DUP14 MSTORE PUSH1 0x20 DUP14 ADD SWAP1 PUSH2 0x487E JUMP JUMPDEST PUSH1 0x40 DUP12 ADD MSTORE PUSH2 0x120 DUP1 PUSH1 0x60 DUP13 ADD MSTORE DUP11 ADD SWAP1 PUSH2 0x4734 JUMP JUMPDEST SWAP1 DUP9 DUP3 SUB PUSH1 0x80 DUP11 ADD MSTORE PUSH2 0x4734 JUMP JUMPDEST SWAP4 PUSH1 0xA0 DUP8 ADD MSTORE PUSH1 0xC0 DUP7 ADD MSTORE ISZERO ISZERO PUSH1 0xE0 DUP6 ADD MSTORE DUP4 DUP3 SUB PUSH2 0x100 DUP6 ADD MSTORE PUSH2 0x4734 JUMP JUMPDEST CALLVALUE PUSH2 0x5A3 JUMPI PUSH1 0x20 CALLDATASIZE PUSH1 0x3 NOT ADD SLT PUSH2 0x5A3 JUMPI PUSH1 0x4 CALLDATALOAD PUSH2 0x39EE PUSH2 0x4970 JUMP JUMPDEST DUP1 PUSH1 0x0 MSTORE PUSH1 0xA PUSH1 0x20 MSTORE PUSH1 0xFF PUSH1 0x2 PUSH1 0x40 PUSH1 0x0 KECCAK256 ADD SLOAD PUSH1 0xA0 SHR AND PUSH1 0x5 DUP2 LT ISZERO PUSH2 0x56F JUMPI PUSH1 0x3 SUB PUSH2 0x3A6B JUMPI DUP1 PUSH1 0x0 MSTORE PUSH1 0xA PUSH1 0x20 MSTORE PUSH1 0x40 PUSH1 0x0 KECCAK256 PUSH1 0x2 DUP2 ADD PUSH1 0x1 PUSH1 0xA2 SHL PUSH1 0xFF PUSH1 0xA0 SHL NOT DUP3 SLOAD AND OR SWAP1 SSTORE PUSH1 0x9 TIMESTAMP SWAP2 ADD SSTORE PUSH32 0xB0AFEAEE5D1E46A6CF0BD9DBF0E8B217CE5E084418AE08D982D3C53E6323091B PUSH1 0x20 PUSH1 0x40 MLOAD TIMESTAMP DUP2 MSTORE LOG2 STOP JUMPDEST PUSH1 0x40 MLOAD PUSH3 0x461BCD PUSH1 0xE5 SHL DUP2 MSTORE PUSH1 0x20 PUSH1 0x4 DUP3 ADD MSTORE PUSH1 0x16 PUSH1 0x24 DUP3 ADD MSTORE PUSH22 0x14DA1A5C1B595B9D081B9BDD0819195B1A5D995C9959 PUSH1 0x52 SHL PUSH1 0x44 DUP3 ADD MSTORE PUSH1 0x64 SWAP1 REVERT JUMPDEST CALLVALUE PUSH2 0x5A3 JUMPI PUSH1 0x40 CALLDATASIZE PUSH1 0x3 NOT ADD SLT PUSH2 0x5A3 JUMPI PUSH2 0x3AC2 PUSH2 0x45C5 JUMP JUMPDEST PUSH1 0x24 CALLDATALOAD PUSH2 0x3ACE DUP2 PUSH2 0x4E06 JUMP JUMPDEST CALLER ISZERO ISZERO DUP1 PUSH2 0x3B7D JUMPI JUMPDEST DUP1 PUSH2 0x3B50 JUMPI JUMPDEST PUSH2 0x3B38 JUMPI PUSH1 0x1 PUSH1 0x1 PUSH1 0xA0 SHL SUB SWAP3 DUP4 AND SWAP3 DUP3 SWAP2 DUP5 SWAP2 AND PUSH32 0x8C5BE1E5EBEC7D5BD14F71427D1E84F3DD0314C0F7B2291E5B200AC8C7C3B925 PUSH1 0x0 DUP1 LOG4 PUSH1 0x0 SWAP1 DUP2 MSTORE PUSH1 0x4 PUSH1 0x20 MSTORE PUSH1 0x40 SWAP1 KECCAK256 DUP1 SLOAD PUSH1 0x1 PUSH1 0x1 PUSH1 0xA0 SHL SUB NOT AND SWAP1 SWAP2 OR SWAP1 SSTORE STOP JUMPDEST PUSH1 0x40 MLOAD PUSH4 0xA9FBF51F PUSH1 0xE0 SHL DUP2 MSTORE CALLER PUSH1 0x4 DUP3 ADD MSTORE PUSH1 0x24 SWAP1 REVERT JUMPDEST POP PUSH1 0x1 DUP1 PUSH1 0xA0 SHL SUB DUP2 AND PUSH1 0x0 MSTORE PUSH1 0x5 PUSH1 0x20 MSTORE PUSH1 0x40 PUSH1 0x0 KECCAK256 CALLER PUSH1 0x0 MSTORE PUSH1 0x20 MSTORE PUSH1 0xFF PUSH1 0x40 PUSH1 0x0 KECCAK256 SLOAD AND ISZERO PUSH2 0x3ADD JUMP JUMPDEST POP PUSH1 0x1 PUSH1 0x1 PUSH1 0xA0 SHL SUB DUP2 AND CALLER EQ ISZERO PUSH2 0x3AD7 JUMP JUMPDEST CALLVALUE PUSH2 0x5A3 JUMPI PUSH1 0x20 CALLDATASIZE PUSH1 0x3 NOT ADD SLT PUSH2 0x5A3 JUMPI PUSH1 0x0 PUSH2 0x140 PUSH1 0x40 MLOAD PUSH2 0x3BB2 DUP2 PUSH2 0x45DB JUMP JUMPDEST DUP3 DUP2 MSTORE DUP3 PUSH1 0x20 DUP3 ADD MSTORE DUP3 PUSH1 0x40 DUP3 ADD MSTORE DUP3 PUSH1 0x60 DUP3 ADD MSTORE PUSH1 0x60 PUSH1 0x80 DUP3 ADD MSTORE PUSH1 0x60 PUSH1 0xA0 DUP3 ADD MSTORE DUP3 PUSH1 0xC0 DUP3 ADD MSTORE DUP3 PUSH1 0xE0 DUP3 ADD MSTORE DUP3 PUSH2 0x100 DUP3 ADD MSTORE DUP3 PUSH2 0x120 DUP3 ADD MSTORE ADD MSTORE PUSH1 0x4 CALLDATALOAD PUSH1 0x0 MSTORE PUSH1 0xA PUSH1 0x20 MSTORE PUSH1 0x40 PUSH1 0x0 KECCAK256 PUSH1 0x40 MLOAD SWAP1 PUSH2 0x3C0E DUP3 PUSH2 0x45DB JUMP JUMPDEST DUP1 SLOAD DUP3 MSTORE PUSH1 0x1 DUP2 ADD SLOAD PUSH1 0x1 PUSH1 0x1 PUSH1 0xA0 SHL SUB SWAP1 DUP2 AND PUSH1 0x20 DUP5 ADD MSTORE PUSH1 0x2 DUP3 ADD SLOAD SWAP1 DUP2 AND PUSH1 0x40 DUP5 ADD MSTORE PUSH1 0xA0 SHR PUSH1 0xFF AND SWAP1 PUSH1 0x5 DUP3 LT ISZERO PUSH2 0x56F JUMPI PUSH1 0x9 SWAP2 PUSH1 0x60 DUP5 ADD MSTORE PUSH1 0x40 MLOAD PUSH2 0x3C60 DUP2 PUSH2 0x735 DUP2 PUSH1 0x3 DUP7 ADD PUSH2 0x47E8 JUMP JUMPDEST PUSH1 0x80 DUP5 ADD MSTORE PUSH1 0x40 MLOAD PUSH2 0x3C79 DUP2 PUSH2 0x735 DUP2 PUSH1 0x4 DUP7 ADD PUSH2 0x47E8 JUMP JUMPDEST PUSH1 0xA0 DUP5 ADD MSTORE PUSH1 0x5 DUP2 ADD SLOAD PUSH1 0xC0 DUP5 ADD MSTORE PUSH1 0x6 DUP2 ADD SLOAD PUSH1 0xE0 DUP5 ADD MSTORE PUSH1 0x7 DUP2 ADD SLOAD PUSH2 0x100 DUP5 ADD MSTORE PUSH1 0x8 DUP2 ADD SLOAD PUSH2 0x120 DUP5 ADD MSTORE ADD SLOAD PUSH2 0x140 DUP3 ADD MSTORE PUSH1 0x40 MLOAD DUP1 SWAP2 PUSH1 0x20 DUP3 MSTORE DUP1 MLOAD PUSH1 0x20 DUP4 ADD MSTORE PUSH1 0x1 DUP1 PUSH1 0xA0 SHL SUB PUSH1 0x20 DUP3 ADD MLOAD AND PUSH1 0x40 DUP4 ADD MSTORE PUSH1 0x1 DUP1 PUSH1 0xA0 SHL SUB PUSH1 0x40 DUP3 ADD MLOAD AND PUSH1 0x60 DUP4 ADD MSTORE PUSH2 0x3CF6 PUSH1 0x60 DUP3 ADD MLOAD PUSH1 0x80 DUP5 ADD SWAP1 PUSH2 0x4759 JUMP JUMPDEST PUSH1 0x80 DUP2 ADD MLOAD PUSH2 0x140 PUSH2 0x3D2F PUSH2 0x3D19 PUSH2 0x160 SWAP4 DUP5 PUSH1 0xA0 DUP9 ADD MSTORE PUSH2 0x180 DUP8 ADD SWAP1 PUSH2 0x4734 JUMP JUMPDEST PUSH1 0xA0 DUP6 ADD MLOAD DUP7 DUP3 SUB PUSH1 0x1F NOT ADD PUSH1 0xC0 DUP9 ADD MSTORE PUSH2 0x4734 JUMP JUMPDEST SWAP3 PUSH1 0xC0 DUP2 ADD MLOAD PUSH1 0xE0 DUP7 ADD MSTORE PUSH1 0xE0 DUP2 ADD MLOAD PUSH2 0x100 DUP7 ADD MSTORE PUSH2 0x100 DUP2 ADD MLOAD PUSH2 0x120 DUP7 ADD MSTORE PUSH2 0x120 DUP2 ADD MLOAD DUP3 DUP7 ADD MSTORE ADD MLOAD SWAP1 DUP4 ADD MSTORE SUB SWAP1 RETURN JUMPDEST CALLVALUE PUSH2 0x5A3 JUMPI PUSH1 0x20 CALLDATASIZE PUSH1 0x3 NOT ADD SLT PUSH2 0x5A3 JUMPI PUSH1 0x4 CALLDATALOAD PUSH2 0x3D82 DUP2 PUSH2 0x4E06 JUMP JUMPDEST POP PUSH1 0x0 MSTORE PUSH1 0x4 PUSH1 0x20 MSTORE PUSH1 0x20 PUSH1 0x1 DUP1 PUSH1 0xA0 SHL SUB PUSH1 0x40 PUSH1 0x0 KECCAK256 SLOAD AND PUSH1 0x40 MLOAD SWAP1 DUP2 MSTORE RETURN JUMPDEST CALLVALUE PUSH2 0x5A3 JUMPI PUSH1 0x20 CALLDATASIZE PUSH1 0x3 NOT ADD SLT PUSH2 0x5A3 JUMPI PUSH1 0x20 PUSH2 0x3DC1 PUSH1 0x4 CALLDATALOAD PUSH2 0x4FB5 JUMP JUMPDEST PUSH1 0x40 MLOAD SWAP1 ISZERO ISZERO DUP2 MSTORE RETURN JUMPDEST CALLVALUE PUSH2 0x5A3 JUMPI PUSH1 0x0 CALLDATASIZE PUSH1 0x3 NOT ADD SLT PUSH2 0x5A3 JUMPI PUSH1 0x20 PUSH1 0x40 MLOAD PUSH32 0x68E79A7BF1E0BC45D0A330C573BC367F9CF464FD326078812F301165FBDA4EF1 DUP2 MSTORE RETURN JUMPDEST CALLVALUE PUSH2 0x5A3 JUMPI PUSH1 0x0 CALLDATASIZE PUSH1 0x3 NOT ADD SLT PUSH2 0x5A3 JUMPI PUSH1 0x40 MLOAD PUSH1 0x0 DUP1 SLOAD PUSH2 0x3E27 DUP2 PUSH2 0x47AE JUMP JUMPDEST DUP1 DUP5 MSTORE SWAP1 PUSH1 0x1 SWAP1 DUP2 DUP2 AND SWAP1 DUP2 ISZERO PUSH2 0x1180 JUMPI POP PUSH1 0x1 EQ PUSH2 0x3E50 JUMPI PUSH2 0x9C2 DUP5 PUSH2 0x1113 DUP2 DUP7 SUB DUP3 PUSH2 0x4680 JUMP JUMPDEST PUSH1 0x0 DUP1 DUP1 MSTORE SWAP3 POP PUSH32 0x290DECD9548B62A8D60345A988386FC84BA6BC95484008F6362F93160EF3E563 JUMPDEST DUP3 DUP5 LT PUSH2 0x3E91 JUMPI POP POP POP DUP2 ADD PUSH1 0x20 ADD PUSH2 0x1113 DUP3 PUSH2 0x1103 JUMP JUMPDEST DUP1 SLOAD PUSH1 0x20 DUP6 DUP8 ADD DUP2 ADD SWAP2 SWAP1 SWAP2 MSTORE SWAP1 SWAP4 ADD SWAP3 DUP2 ADD PUSH2 0x3E79 JUMP JUMPDEST CALLVALUE PUSH2 0x5A3 JUMPI PUSH1 0x20 CALLDATASIZE PUSH1 0x3 NOT ADD SLT PUSH2 0x5A3 JUMPI PUSH1 0x4 CALLDATALOAD PUSH4 0xFFFFFFFF PUSH1 0xE0 SHL DUP2 AND DUP1 SWAP2 SUB PUSH2 0x5A3 JUMPI PUSH1 0x20 SWAP1 PUSH4 0x7965DB0B PUSH1 0xE0 SHL DUP2 EQ SWAP1 DUP2 ISZERO PUSH2 0x3EED JUMPI POP PUSH1 0x40 MLOAD SWAP1 ISZERO ISZERO DUP2 MSTORE RETURN JUMPDEST PUSH4 0x24832483 PUSH1 0xE1 SHL DUP2 EQ SWAP2 POP DUP2 ISZERO PUSH2 0x3F07 JUMPI JUMPDEST POP DUP3 PUSH2 0x1A34 JUMP JUMPDEST PUSH4 0x80AC58CD PUSH1 0xE0 SHL DUP2 EQ SWAP2 POP DUP2 ISZERO PUSH2 0x3F39 JUMPI JUMPDEST DUP2 ISZERO PUSH2 0x3F28 JUMPI JUMPDEST POP DUP3 PUSH2 0x3F00 JUMP JUMPDEST PUSH4 0x1FFC9A7 PUSH1 0xE0 SHL EQ SWAP1 POP DUP3 PUSH2 0x3F21 JUMP JUMPDEST PUSH4 0x5B5E139F PUSH1 0xE0 SHL DUP2 EQ SWAP2 POP PUSH2 0x3F1A JUMP JUMPDEST CALLVALUE PUSH2 0x5A3 JUMPI PUSH1 0x80 CALLDATASIZE PUSH1 0x3 NOT ADD SLT PUSH2 0x5A3 JUMPI PUSH2 0x3F63 PUSH2 0x45AF JUMP JUMPDEST PUSH1 0x44 CALLDATALOAD PUSH1 0x1 PUSH1 0x1 PUSH1 0x40 SHL SUB DUP2 GT PUSH2 0x5A3 JUMPI PUSH2 0x3F82 SWAP1 CALLDATASIZE SWAP1 PUSH1 0x4 ADD PUSH2 0x46F3 JUMP JUMPDEST PUSH1 0x64 CALLDATALOAD PUSH1 0x1 PUSH1 0x1 PUSH1 0x40 SHL SUB DUP2 GT PUSH2 0x5A3 JUMPI PUSH2 0x3FA1 SWAP1 CALLDATASIZE SWAP1 PUSH1 0x4 ADD PUSH2 0x46F3 JUMP JUMPDEST SWAP1 PUSH2 0x3FAA PUSH2 0x4914 JUMP JUMPDEST PUSH1 0x4 CALLDATALOAD PUSH1 0x0 SWAP1 DUP2 MSTORE PUSH1 0x2 PUSH1 0x20 MSTORE PUSH1 0x40 SWAP1 KECCAK256 SLOAD PUSH2 0x3FD0 SWAP1 PUSH1 0x1 PUSH1 0x1 PUSH1 0xA0 SHL SUB AND ISZERO ISZERO PUSH2 0x4E50 JUMP JUMPDEST PUSH1 0x4 CALLDATALOAD PUSH1 0x0 MSTORE PUSH1 0x9 PUSH1 0x20 MSTORE PUSH1 0xFF PUSH1 0x7 PUSH1 0x40 PUSH1 0x0 KECCAK256 ADD SLOAD AND PUSH1 0x6 DUP2 LT ISZERO PUSH2 0x56F JUMPI PUSH1 0x1 EQ DUP1 ISZERO PUSH2 0x4586 JUMPI JUMPDEST ISZERO PUSH2 0x4526 JUMPI PUSH2 0x4013 PUSH1 0x1 PUSH1 0x1 PUSH1 0xA0 SHL SUB DUP5 AND ISZERO ISZERO PUSH2 0x4E95 JUMP JUMPDEST PUSH1 0x12 SLOAD SWAP2 PUSH2 0x4020 DUP4 PUSH2 0x4E41 JUMP JUMPDEST PUSH1 0x12 SSTORE PUSH1 0x4 CALLDATALOAD PUSH1 0x0 MSTORE PUSH1 0x9 PUSH1 0x20 MSTORE PUSH1 0x1 DUP1 PUSH1 0xA0 SHL SUB PUSH1 0x8 PUSH1 0x40 PUSH1 0x0 KECCAK256 ADD SLOAD AND SWAP2 PUSH1 0x40 MLOAD SWAP3 PUSH2 0x404D DUP5 PUSH2 0x45DB JUMP JUMPDEST PUSH1 0x4 CALLDATALOAD DUP5 MSTORE PUSH1 0x20 DUP5 ADD MSTORE PUSH1 0x1 DUP1 PUSH1 0xA0 SHL SUB DUP6 AND PUSH1 0x40 DUP5 ADD MSTORE PUSH1 0x0 PUSH1 0x60 DUP5 ADD MSTORE PUSH1 0x80 DUP4 ADD MSTORE PUSH1 0xA0 DUP3 ADD MSTORE TIMESTAMP PUSH1 0xC0 DUP3 ADD MSTORE PUSH1 0x0 PUSH1 0xE0 DUP3 ADD MSTORE PUSH1 0x0 PUSH2 0x100 DUP3 ADD MSTORE PUSH1 0x0 PUSH2 0x120 DUP3 ADD MSTORE PUSH1 0x0 PUSH2 0x140 DUP3 ADD MSTORE DUP2 PUSH1 0x0 MSTORE PUSH1 0xA PUSH1 0x20 MSTORE PUSH1 0x40 PUSH1 0x0 KECCAK256 SWAP1 DUP1 MLOAD DUP3 SSTORE PUSH1 0x1 DUP3 ADD PUSH1 0x1 DUP1 PUSH1 0xA0 SHL SUB PUSH1 0x20 DUP4 ADD MLOAD AND PUSH1 0x1 PUSH1 0x1 PUSH1 0x60 SHL SUB PUSH1 0xA0 SHL DUP3 SLOAD AND OR SWAP1 SSTORE PUSH1 0x2 DUP3 ADD PUSH1 0x1 DUP1 PUSH1 0xA0 SHL SUB PUSH1 0x40 DUP4 ADD MLOAD AND DUP2 SLOAD SWAP1 PUSH1 0x60 DUP5 ADD MLOAD PUSH1 0x5 DUP2 LT ISZERO PUSH2 0x56F JUMPI PUSH1 0x1 PUSH1 0x1 PUSH1 0xA8 SHL SUB NOT SWAP1 SWAP3 AND OR PUSH1 0xA0 SWAP2 SWAP1 SWAP2 SHL PUSH1 0xFF PUSH1 0xA0 SHL AND OR SWAP1 SSTORE PUSH1 0x80 DUP2 ADD MLOAD DUP1 MLOAD SWAP1 PUSH1 0x1 PUSH1 0x1 PUSH1 0x40 SHL SUB DUP3 GT PUSH2 0x4FE JUMPI DUP2 SWAP1 PUSH2 0x4133 PUSH1 0x3 DUP7 ADD SLOAD PUSH2 0x47AE JUMP JUMPDEST PUSH1 0x1F DUP2 GT PUSH2 0x44D3 JUMPI JUMPDEST POP PUSH1 0x20 SWAP1 PUSH1 0x1F DUP4 GT PUSH1 0x1 EQ PUSH2 0x4461 JUMPI PUSH1 0x0 SWAP3 PUSH2 0x4456 JUMPI JUMPDEST POP POP DUP2 PUSH1 0x1 SHL SWAP2 PUSH1 0x0 NOT SWAP1 PUSH1 0x3 SHL SHR NOT AND OR PUSH1 0x3 DUP4 ADD SSTORE JUMPDEST PUSH1 0xA0 DUP2 ADD MLOAD DUP1 MLOAD SWAP1 PUSH1 0x1 PUSH1 0x1 PUSH1 0x40 SHL SUB DUP3 GT PUSH2 0x4FE JUMPI PUSH2 0x418E PUSH1 0x4 DUP6 ADD SLOAD PUSH2 0x47AE JUMP JUMPDEST PUSH1 0x1F DUP2 GT PUSH2 0x440F JUMPI JUMPDEST POP PUSH1 0x20 SWAP1 PUSH1 0x1F DUP4 GT PUSH1 0x1 EQ PUSH2 0x4399 JUMPI SWAP2 DUP1 PUSH1 0x9 SWAP5 SWAP3 PUSH2 0x140 SWAP5 PUSH1 0x0 SWAP3 PUSH2 0x438E JUMPI JUMPDEST POP POP DUP2 PUSH1 0x1 SHL SWAP2 PUSH1 0x0 NOT SWAP1 PUSH1 0x3 SHL SHR NOT AND OR PUSH1 0x4 DUP6 ADD SSTORE JUMPDEST PUSH1 0xC0 DUP2 ADD MLOAD PUSH1 0x5 DUP6 ADD SSTORE PUSH1 0xE0 DUP2 ADD MLOAD PUSH1 0x6 DUP6 ADD SSTORE PUSH2 0x100 DUP2 ADD MLOAD PUSH1 0x7 DUP6 ADD SSTORE PUSH2 0x120 DUP2 ADD MLOAD PUSH1 0x8 DUP6 ADD SSTORE ADD MLOAD SWAP2 ADD SSTORE PUSH1 0x4 CALLDATALOAD PUSH1 0x0 MSTORE PUSH1 0xE PUSH1 0x20 MSTORE PUSH1 0x40 PUSH1 0x0 KECCAK256 DUP1 SLOAD PUSH1 0x1 PUSH1 0x40 SHL DUP2 LT ISZERO PUSH2 0x4FE JUMPI PUSH2 0x422C SWAP2 PUSH1 0x1 DUP3 ADD DUP2 SSTORE PUSH2 0x48C0 JUMP JUMPDEST DUP2 SLOAD SWAP1 PUSH1 0x3 SHL SWAP1 DUP4 DUP3 SHL SWAP2 PUSH1 0x0 NOT SWAP1 SHL NOT AND OR SWAP1 SSTORE PUSH1 0x4 CALLDATALOAD PUSH1 0x0 MSTORE PUSH1 0x9 PUSH1 0x20 MSTORE PUSH1 0x8 PUSH1 0x40 PUSH1 0x0 KECCAK256 ADD SLOAD PUSH1 0x40 MLOAD PUSH1 0x20 DUP2 ADD SWAP1 PUSH1 0x4 CALLDATALOAD DUP3 MSTORE PUSH1 0x1 PUSH1 0x1 PUSH1 0x60 SHL SUB NOT DUP1 SWAP4 PUSH1 0x60 SHL AND PUSH1 0x40 DUP3 ADD MSTORE TIMESTAMP PUSH1 0x54 DUP3 ADD MSTORE PUSH15 0x14D15391115497D4D2125413515395 PUSH1 0x8A SHL PUSH1 0x74 DUP3 ADD MSTORE DUP4 PUSH1 0x83 DUP3 ADD MSTORE PUSH1 0x83 DUP2 MSTORE PUSH2 0x42A7 DUP2 PUSH2 0x462F JUMP JUMPDEST MLOAD SWAP1 KECCAK256 SWAP1 PUSH1 0x40 MLOAD PUSH1 0x20 DUP2 ADD SWAP2 PUSH1 0x4 CALLDATALOAD DUP4 MSTORE DUP6 PUSH1 0x60 SHL AND PUSH1 0x40 DUP3 ADD MSTORE TIMESTAMP PUSH1 0x54 DUP3 ADD MSTORE PUSH17 0x149150D15255915497D4D2125413515395 PUSH1 0x7A SHL PUSH1 0x74 DUP3 ADD MSTORE DUP4 PUSH1 0x85 DUP3 ADD MSTORE PUSH1 0x85 DUP2 MSTORE PUSH2 0x42F5 DUP2 PUSH2 0x462F JUMP JUMPDEST MLOAD SWAP1 KECCAK256 PUSH1 0x4 CALLDATALOAD PUSH1 0x0 MSTORE PUSH1 0xF PUSH1 0x20 MSTORE PUSH1 0x40 PUSH1 0x0 KECCAK256 SWAP2 DUP3 SSTORE PUSH1 0x1 DUP3 ADD SSTORE PUSH1 0x2 TIMESTAMP SWAP2 ADD SSTORE PUSH3 0x278D00 TIMESTAMP ADD SWAP2 DUP3 TIMESTAMP GT PUSH2 0x2C79 JUMPI PUSH1 0x20 SWAP3 PUSH1 0x4 CALLDATALOAD PUSH1 0x0 MSTORE PUSH1 0xF DUP5 MSTORE PUSH1 0x3 PUSH1 0x40 PUSH1 0x0 KECCAK256 ADD SSTORE PUSH1 0x9 DUP4 MSTORE PUSH1 0x1 DUP1 PUSH1 0xA0 SHL SUB PUSH1 0x8 PUSH1 0x40 PUSH1 0x0 KECCAK256 ADD SLOAD AND SWAP1 PUSH1 0x40 MLOAD SWAP1 PUSH1 0x1 DUP1 PUSH1 0xA0 SHL SUB AND DUP2 MSTORE DUP3 PUSH32 0xA9041659DCC0C60DE34CA5114E2C9ECCA4C93E9A21C9D4E21F29BB0BD3D8CAB8 DUP6 PUSH1 0x4 CALLDATALOAD SWAP4 LOG4 PUSH1 0x40 MLOAD SWAP1 DUP2 MSTORE RETURN JUMPDEST ADD MLOAD SWAP1 POP DUP9 DUP1 PUSH2 0x41B8 JUMP JUMPDEST SWAP1 PUSH1 0x4 DUP6 ADD PUSH1 0x0 MSTORE PUSH1 0x20 PUSH1 0x0 KECCAK256 SWAP2 PUSH1 0x0 JUMPDEST PUSH1 0x1F NOT DUP6 AND DUP2 LT PUSH2 0x43F7 JUMPI POP SWAP3 PUSH1 0x9 SWAP5 SWAP3 PUSH1 0x1 SWAP3 PUSH2 0x140 SWAP6 DUP4 PUSH1 0x1F NOT DUP2 AND LT PUSH2 0x43DE JUMPI JUMPDEST POP POP POP DUP2 SHL ADD PUSH1 0x4 DUP6 ADD SSTORE PUSH2 0x41D0 JUMP JUMPDEST ADD MLOAD PUSH1 0x0 NOT PUSH1 0xF8 DUP5 PUSH1 0x3 SHL AND SHR NOT AND SWAP1 SSTORE DUP9 DUP1 DUP1 PUSH2 0x43CE JUMP JUMPDEST SWAP2 SWAP3 PUSH1 0x20 PUSH1 0x1 DUP2 SWAP3 DUP7 DUP6 ADD MLOAD DUP2 SSTORE ADD SWAP5 ADD SWAP3 ADD PUSH2 0x43AA JUMP JUMPDEST PUSH1 0x4 DUP6 ADD PUSH1 0x0 MSTORE PUSH1 0x20 PUSH1 0x0 KECCAK256 PUSH1 0x1F DUP5 ADD PUSH1 0x5 SHR DUP2 ADD PUSH1 0x20 DUP6 LT PUSH2 0x444F JUMPI JUMPDEST PUSH1 0x1F DUP4 ADD PUSH1 0x5 SHR DUP3 ADD DUP2 LT PUSH2 0x4443 JUMPI POP POP PUSH2 0x4197 JUMP JUMPDEST PUSH1 0x0 DUP2 SSTORE PUSH1 0x1 ADD PUSH2 0x442D JUMP JUMPDEST POP DUP1 PUSH2 0x442D JUMP JUMPDEST ADD MLOAD SWAP1 POP DUP7 DUP1 PUSH2 0x4153 JUMP JUMPDEST SWAP3 POP PUSH1 0x3 DUP6 ADD PUSH1 0x0 MSTORE PUSH1 0x20 PUSH1 0x0 KECCAK256 SWAP1 PUSH1 0x0 SWAP4 JUMPDEST PUSH1 0x1F NOT DUP5 AND DUP6 LT PUSH2 0x44B8 JUMPI PUSH1 0x1 SWAP5 POP DUP4 PUSH1 0x1F NOT DUP2 AND LT PUSH2 0x449F JUMPI JUMPDEST POP POP POP DUP2 SHL ADD PUSH1 0x3 DUP4 ADD SSTORE PUSH2 0x416B JUMP JUMPDEST ADD MLOAD PUSH1 0x0 NOT PUSH1 0xF8 DUP5 PUSH1 0x3 SHL AND SHR NOT AND SWAP1 SSTORE DUP7 DUP1 DUP1 PUSH2 0x448F JUMP JUMPDEST DUP2 DUP2 ADD MLOAD DUP4 SSTORE PUSH1 0x20 SWAP5 DUP6 ADD SWAP5 PUSH1 0x1 SWAP1 SWAP4 ADD SWAP3 SWAP1 SWAP2 ADD SWAP1 PUSH2 0x4474 JUMP JUMPDEST SWAP1 SWAP2 POP PUSH1 0x3 DUP6 ADD PUSH1 0x0 MSTORE PUSH1 0x20 PUSH1 0x0 KECCAK256 PUSH1 0x1F DUP5 ADD PUSH1 0x5 SHR DUP2 ADD PUSH1 0x20 DUP6 LT PUSH2 0x451F JUMPI JUMPDEST SWAP1 DUP5 SWAP4 SWAP3 SWAP2 JUMPDEST PUSH1 0x1F DUP4 ADD PUSH1 0x5 SHR DUP3 ADD DUP2 LT PUSH2 0x4510 JUMPI POP POP PUSH2 0x413C JUMP JUMPDEST PUSH1 0x0 DUP2 SSTORE DUP6 SWAP5 POP PUSH1 0x1 ADD PUSH2 0x44FA JUMP JUMPDEST POP DUP1 PUSH2 0x44F4 JUMP JUMPDEST PUSH1 0x40 MLOAD PUSH3 0x461BCD PUSH1 0xE5 SHL DUP2 MSTORE PUSH1 0x20 PUSH1 0x4 DUP3 ADD MSTORE PUSH1 0x32 PUSH1 0x24 DUP3 ADD MSTORE PUSH32 0x50726F64756374206D757374206265207061636B61676564206F722072656365 PUSH1 0x44 DUP3 ADD MSTORE PUSH18 0x1A5D9959081D1BC81899481CDA1A5C1C1959 PUSH1 0x72 SHL PUSH1 0x64 DUP3 ADD MSTORE PUSH1 0x84 SWAP1 REVERT JUMPDEST POP PUSH1 0x4 CALLDATALOAD PUSH1 0x0 MSTORE PUSH1 0x9 PUSH1 0x20 MSTORE PUSH1 0xFF PUSH1 0x7 PUSH1 0x40 PUSH1 0x0 KECCAK256 ADD SLOAD AND PUSH1 0x6 DUP2 LT ISZERO PUSH2 0x56F JUMPI PUSH1 0x3 EQ PUSH2 0x3FFA JUMP JUMPDEST PUSH1 0x24 CALLDATALOAD SWAP1 PUSH1 0x1 PUSH1 0x1 PUSH1 0xA0 SHL SUB DUP3 AND DUP3 SUB PUSH2 0x5A3 JUMPI JUMP JUMPDEST PUSH1 0x4 CALLDATALOAD SWAP1 PUSH1 0x1 PUSH1 0x1 PUSH1 0xA0 SHL SUB DUP3 AND DUP3 SUB PUSH2 0x5A3 JUMPI JUMP JUMPDEST PUSH2 0x160 DUP2 ADD SWAP1 DUP2 LT PUSH1 0x1 PUSH1 0x1 PUSH1 0x40 SHL SUB DUP3 GT OR PUSH2 0x4FE JUMPI PUSH1 0x40 MSTORE JUMP JUMPDEST PUSH2 0x1C0 DUP2 ADD SWAP1 DUP2 LT PUSH1 0x1 PUSH1 0x1 PUSH1 0x40 SHL SUB DUP3 GT OR PUSH2 0x4FE JUMPI PUSH1 0x40 MSTORE JUMP JUMPDEST PUSH2 0x120 DUP2 ADD SWAP1 DUP2 LT PUSH1 0x1 PUSH1 0x1 PUSH1 0x40 SHL SUB DUP3 GT OR PUSH2 0x4FE JUMPI PUSH1 0x40 MSTORE JUMP JUMPDEST PUSH1 0xC0 DUP2 ADD SWAP1 DUP2 LT PUSH1 0x1 PUSH1 0x1 PUSH1 0x40 SHL SUB DUP3 GT OR PUSH2 0x4FE JUMPI PUSH1 0x40 MSTORE JUMP JUMPDEST PUSH1 0x20 DUP2 ADD SWAP1 DUP2 LT PUSH1 0x1 PUSH1 0x1 PUSH1 0x40 SHL SUB DUP3 GT OR PUSH2 0x4FE JUMPI PUSH1 0x40 MSTORE JUMP JUMPDEST PUSH1 0x80 DUP2 ADD SWAP1 DUP2 LT PUSH1 0x1 PUSH1 0x1 PUSH1 0x40 SHL SUB DUP3 GT OR PUSH2 0x4FE JUMPI PUSH1 0x40 MSTORE JUMP JUMPDEST SWAP1 PUSH1 0x1F DUP1 NOT SWAP2 ADD AND DUP2 ADD SWAP1 DUP2 LT PUSH1 0x1 PUSH1 0x1 PUSH1 0x40 SHL SUB DUP3 GT OR PUSH2 0x4FE JUMPI PUSH1 0x40 MSTORE JUMP JUMPDEST PUSH1 0x1 PUSH1 0x1 PUSH1 0x40 SHL SUB DUP2 GT PUSH2 0x4FE JUMPI PUSH1 0x1F ADD PUSH1 0x1F NOT AND PUSH1 0x20 ADD SWAP1 JUMP JUMPDEST SWAP3 SWAP2 SWAP3 PUSH2 0x46C8 DUP3 PUSH2 0x46A1 JUMP JUMPDEST SWAP2 PUSH2 0x46D6 PUSH1 0x40 MLOAD SWAP4 DUP5 PUSH2 0x4680 JUMP JUMPDEST DUP3 SWAP5 DUP2 DUP5 MSTORE DUP2 DUP4 ADD GT PUSH2 0x5A3 JUMPI DUP3 DUP2 PUSH1 0x20 SWAP4 DUP5 PUSH1 0x0 SWAP7 ADD CALLDATACOPY ADD ADD MSTORE JUMP JUMPDEST SWAP1 DUP1 PUSH1 0x1F DUP4 ADD SLT ISZERO PUSH2 0x5A3 JUMPI DUP2 PUSH1 0x20 PUSH2 0x470E SWAP4 CALLDATALOAD SWAP2 ADD PUSH2 0x46BC JUMP JUMPDEST SWAP1 JUMP JUMPDEST PUSH1 0x0 JUMPDEST DUP4 DUP2 LT PUSH2 0x4724 JUMPI POP POP PUSH1 0x0 SWAP2 ADD MSTORE JUMP JUMPDEST DUP2 DUP2 ADD MLOAD DUP4 DUP3 ADD MSTORE PUSH1 0x20 ADD PUSH2 0x4714 JUMP JUMPDEST SWAP1 PUSH1 0x20 SWAP2 PUSH2 0x474D DUP2 MLOAD DUP1 SWAP3 DUP2 DUP6 MSTORE DUP6 DUP1 DUP7 ADD SWAP2 ADD PUSH2 0x4711 JUMP JUMPDEST PUSH1 0x1F ADD PUSH1 0x1F NOT AND ADD ADD SWAP1 JUMP JUMPDEST SWAP1 PUSH1 0x5 DUP3 LT ISZERO PUSH2 0x56F JUMPI MSTORE JUMP JUMPDEST PUSH1 0x40 SWAP1 PUSH1 0x3 NOT ADD SLT PUSH2 0x5A3 JUMPI PUSH1 0x4 CALLDATALOAD SWAP1 PUSH1 0x24 CALLDATALOAD SWAP1 JUMP JUMPDEST DUP1 SLOAD DUP3 LT ISZERO PUSH2 0x4798 JUMPI PUSH1 0x0 MSTORE PUSH1 0x9 PUSH1 0x20 PUSH1 0x0 KECCAK256 SWAP2 MUL ADD SWAP1 PUSH1 0x0 SWAP1 JUMP JUMPDEST PUSH4 0x4E487B71 PUSH1 0xE0 SHL PUSH1 0x0 MSTORE PUSH1 0x32 PUSH1 0x4 MSTORE PUSH1 0x24 PUSH1 0x0 REVERT JUMPDEST SWAP1 PUSH1 0x1 DUP3 DUP2 SHR SWAP3 AND DUP1 ISZERO PUSH2 0x47DE JUMPI JUMPDEST PUSH1 0x20 DUP4 LT EQ PUSH2 0x47C8 JUMPI JUMP JUMPDEST PUSH4 0x4E487B71 PUSH1 0xE0 SHL PUSH1 0x0 MSTORE PUSH1 0x22 PUSH1 0x4 MSTORE PUSH1 0x24 PUSH1 0x0 REVERT JUMPDEST SWAP2 PUSH1 0x7F AND SWAP2 PUSH2 0x47BD JUMP JUMPDEST SWAP1 PUSH1 0x0 SWAP3 SWAP2 DUP1 SLOAD SWAP2 PUSH2 0x47F9 DUP4 PUSH2 0x47AE JUMP JUMPDEST SWAP2 DUP3 DUP3 MSTORE PUSH1 0x1 SWAP4 DUP5 DUP2 AND SWAP1 DUP2 PUSH1 0x0 EQ PUSH2 0x485B JUMPI POP PUSH1 0x1 EQ PUSH2 0x481B JUMPI JUMPDEST POP POP POP POP JUMP JUMPDEST SWAP1 SWAP2 SWAP4 SWAP5 POP PUSH1 0x0 MSTORE PUSH1 0x20 SWAP3 DUP4 PUSH1 0x0 KECCAK256 SWAP3 DUP5 PUSH1 0x0 SWAP5 JUMPDEST DUP4 DUP7 LT PUSH2 0x4847 JUMPI POP POP POP POP ADD ADD SWAP1 CODESIZE DUP1 DUP1 DUP1 PUSH2 0x4815 JUMP JUMPDEST DUP1 SLOAD DUP6 DUP8 ADD DUP4 ADD MSTORE SWAP5 ADD SWAP4 DUP6 SWAP1 DUP3 ADD PUSH2 0x4830 JUMP JUMPDEST SWAP3 SWAP5 POP POP POP PUSH1 0x20 SWAP4 SWAP5 POP PUSH1 0xFF NOT AND DUP4 DUP4 ADD MSTORE ISZERO ISZERO PUSH1 0x5 SHL ADD ADD SWAP1 CODESIZE DUP1 DUP1 DUP1 PUSH2 0x4815 JUMP JUMPDEST SWAP1 PUSH1 0x8 DUP3 LT ISZERO PUSH2 0x56F JUMPI MSTORE JUMP JUMPDEST PUSH1 0x60 SWAP1 PUSH1 0x3 NOT ADD SLT PUSH2 0x5A3 JUMPI PUSH1 0x1 PUSH1 0x1 PUSH1 0xA0 SHL SUB SWAP1 PUSH1 0x4 CALLDATALOAD DUP3 DUP2 AND DUP2 SUB PUSH2 0x5A3 JUMPI SWAP2 PUSH1 0x24 CALLDATALOAD SWAP1 DUP2 AND DUP2 SUB PUSH2 0x5A3 JUMPI SWAP1 PUSH1 0x44 CALLDATALOAD SWAP1 JUMP JUMPDEST DUP1 SLOAD DUP3 LT ISZERO PUSH2 0x4798 JUMPI PUSH1 0x0 MSTORE PUSH1 0x20 PUSH1 0x0 KECCAK256 ADD SWAP1 PUSH1 0x0 SWAP1 JUMP JUMPDEST SWAP1 PUSH1 0x40 PUSH1 0x3 NOT DUP4 ADD SLT PUSH2 0x5A3 JUMPI PUSH1 0x4 CALLDATALOAD SWAP2 PUSH1 0x24 CALLDATALOAD SWAP1 PUSH1 0x1 PUSH1 0x1 PUSH1 0x40 SHL SUB DUP3 GT PUSH2 0x5A3 JUMPI PUSH2 0x470E SWAP2 PUSH1 0x4 ADD PUSH2 0x46F3 JUMP JUMPDEST SWAP1 PUSH1 0x6 DUP3 LT ISZERO PUSH2 0x56F JUMPI MSTORE JUMP JUMPDEST CALLER PUSH1 0x0 SWAP1 DUP2 MSTORE PUSH32 0x5A4A839A8A41E9C56BEAD82789209CD708F718A22BA06C2110A5BFB3DC4B80BC PUSH1 0x20 MSTORE PUSH1 0x40 SWAP1 KECCAK256 SLOAD PUSH32 0xDDAA901E2FE3BDA354FE0EDE2785152D5C109282A613FE024A056A3E66C41BB3 SWAP1 PUSH1 0xFF AND ISZERO PUSH2 0x585 JUMPI POP JUMP JUMPDEST CALLER PUSH1 0x0 SWAP1 DUP2 MSTORE PUSH32 0xA70365933F78520EF41D6645BA61E509916296603327302D41466C063E8E2608 PUSH1 0x20 MSTORE PUSH1 0x40 SWAP1 KECCAK256 SLOAD PUSH1 0x0 DUP1 MLOAD PUSH1 0x20 PUSH2 0x510F DUP4 CODECOPY DUP2 MLOAD SWAP2 MSTORE SWAP1 PUSH1 0xFF AND ISZERO PUSH2 0x585 JUMPI POP JUMP JUMPDEST DUP1 PUSH1 0x0 MSTORE PUSH1 0x7 PUSH1 0x20 MSTORE PUSH1 0x40 PUSH1 0x0 KECCAK256 CALLER PUSH1 0x0 MSTORE PUSH1 0x20 MSTORE PUSH1 0xFF PUSH1 0x40 PUSH1 0x0 KECCAK256 SLOAD AND ISZERO PUSH2 0x585 JUMPI POP JUMP JUMPDEST SWAP1 PUSH1 0x0 SWAP2 DUP1 DUP4 MSTORE PUSH1 0x7 PUSH1 0x20 MSTORE PUSH1 0x40 DUP4 KECCAK256 SWAP2 PUSH1 0x1 DUP1 PUSH1 0xA0 SHL SUB AND SWAP2 DUP3 DUP5 MSTORE PUSH1 0x20 MSTORE PUSH1 0xFF PUSH1 0x40 DUP5 KECCAK256 SLOAD AND ISZERO PUSH1 0x0 EQ PUSH2 0x4A5B JUMPI DUP1 DUP4 MSTORE PUSH1 0x7 PUSH1 0x20 MSTORE PUSH1 0x40 DUP4 KECCAK256 DUP3 DUP5 MSTORE PUSH1 0x20 MSTORE PUSH1 0x40 DUP4 KECCAK256 PUSH1 0x1 PUSH1 0xFF NOT DUP3 SLOAD AND OR SWAP1 SSTORE PUSH32 0x2F8788117E7EFF1D82E926EC794901D17C78024A50270940304540A733656F0D CALLER SWAP4 DUP1 LOG4 PUSH1 0x1 SWAP1 JUMP JUMPDEST POP POP SWAP1 JUMP JUMPDEST SWAP1 PUSH1 0x0 SWAP2 DUP1 DUP4 MSTORE PUSH1 0x7 PUSH1 0x20 MSTORE PUSH1 0x40 DUP4 KECCAK256 SWAP2 PUSH1 0x1 DUP1 PUSH1 0xA0 SHL SUB AND SWAP2 DUP3 DUP5 MSTORE PUSH1 0x20 MSTORE PUSH1 0xFF PUSH1 0x40 DUP5 KECCAK256 SLOAD AND PUSH1 0x0 EQ PUSH2 0x4A5B JUMPI DUP1 DUP4 MSTORE PUSH1 0x7 PUSH1 0x20 MSTORE PUSH1 0x40 DUP4 KECCAK256 DUP3 DUP5 MSTORE PUSH1 0x20 MSTORE PUSH1 0x40 DUP4 KECCAK256 PUSH1 0xFF NOT DUP2 SLOAD AND SWAP1 SSTORE PUSH32 0xF6391F5C32D9C69D2A47EA670B442974B53935D1EDC7FD64EB21E047A839171B CALLER SWAP4 DUP1 LOG4 PUSH1 0x1 SWAP1 JUMP JUMPDEST SWAP1 PUSH1 0x1 PUSH1 0x1 PUSH1 0xA0 SHL SUB SWAP1 DUP2 AND DUP1 ISZERO PUSH2 0x322D JUMPI PUSH1 0x0 SWAP2 DUP5 DUP4 MSTORE PUSH1 0x20 SWAP2 PUSH1 0x2 DUP4 MSTORE PUSH1 0x40 SWAP3 DUP3 DUP5 DUP7 KECCAK256 SLOAD AND PUSH1 0x9 DUP3 MSTORE PUSH1 0xFF PUSH1 0xB DUP7 DUP9 KECCAK256 ADD SLOAD AND SWAP1 DUP2 PUSH2 0x4CA8 JUMPI JUMPDEST POP PUSH2 0x4C90 JUMPI SWAP1 DUP7 SWAP2 DUP3 DUP7 MSTORE PUSH1 0x2 DUP2 MSTORE DUP4 DUP6 DUP8 KECCAK256 SLOAD AND SWAP6 DUP7 SWAP2 CALLER ISZERO ISZERO DUP1 PUSH2 0x4BFA JUMPI JUMPDEST POP SWAP1 PUSH1 0x2 PUSH32 0xDDF252AD1BE2C89B69C2B068FC378DAA952BA7F163C4A11628F55A4DF523B3EF SWAP3 DUP5 PUSH2 0x4BC7 JUMPI JUMPDEST DUP6 DUP4 MSTORE PUSH1 0x3 DUP2 MSTORE DUP9 DUP4 KECCAK256 DUP1 SLOAD PUSH1 0x1 ADD SWAP1 SSTORE DUP7 DUP4 MSTORE MSTORE DUP7 DUP2 KECCAK256 DUP1 SLOAD PUSH1 0x1 PUSH1 0x1 PUSH1 0xA0 SHL SUB NOT AND DUP6 OR SWAP1 SSTORE DUP1 LOG4 DUP4 AND DUP3 SUB PUSH2 0x4B99 JUMPI POP POP POP POP JUMP JUMPDEST MLOAD PUSH4 0x64283D7B PUSH1 0xE0 SHL DUP2 MSTORE PUSH1 0x1 PUSH1 0x1 PUSH1 0xA0 SHL SUB SWAP3 DUP4 AND PUSH1 0x4 DUP3 ADD MSTORE PUSH1 0x24 DUP2 ADD SWAP4 SWAP1 SWAP4 MSTORE AND PUSH1 0x44 DUP3 ADD MSTORE PUSH1 0x64 SWAP1 REVERT JUMPDEST PUSH1 0x0 DUP8 DUP2 MSTORE PUSH1 0x4 PUSH1 0x20 MSTORE PUSH1 0x40 SWAP1 KECCAK256 DUP1 SLOAD PUSH1 0x1 PUSH1 0x1 PUSH1 0xA0 SHL SUB NOT AND SWAP1 SSTORE DUP5 DUP4 MSTORE PUSH1 0x3 DUP2 MSTORE DUP9 DUP4 KECCAK256 DUP1 SLOAD PUSH1 0x0 NOT ADD SWAP1 SSTORE PUSH2 0x4B61 JUMP JUMPDEST SWAP2 SWAP4 SWAP5 POP SWAP2 POP DUP1 PUSH2 0x4C4F JUMPI JUMPDEST ISZERO PUSH2 0x4C16 JUMPI DUP8 SWAP3 SWAP2 DUP7 SWAP2 CODESIZE PUSH2 0x4B35 JUMP JUMPDEST DUP5 DUP9 DUP8 PUSH2 0x4C33 JUMPI PUSH1 0x24 SWAP2 MLOAD SWAP1 PUSH4 0x7E273289 PUSH1 0xE0 SHL DUP3 MSTORE PUSH1 0x4 DUP3 ADD MSTORE REVERT JUMPDEST PUSH1 0x44 SWAP2 MLOAD SWAP1 PUSH4 0x177E802F PUSH1 0xE0 SHL DUP3 MSTORE CALLER PUSH1 0x4 DUP4 ADD MSTORE PUSH1 0x24 DUP3 ADD MSTORE REVERT JUMPDEST POP CALLER DUP7 EQ DUP1 ISZERO PUSH2 0x4C74 JUMPI JUMPDEST DUP1 PUSH2 0x4C06 JUMPI POP DUP8 DUP3 MSTORE PUSH1 0x4 DUP2 MSTORE CALLER DUP5 DUP7 DUP5 KECCAK256 SLOAD AND EQ PUSH2 0x4C06 JUMP JUMPDEST POP DUP6 DUP3 MSTORE PUSH1 0x5 DUP2 MSTORE DUP5 DUP3 KECCAK256 CALLER DUP4 MSTORE DUP2 MSTORE PUSH1 0xFF DUP6 DUP4 KECCAK256 SLOAD AND PUSH2 0x4C5A JUMP JUMPDEST DUP4 MLOAD PUSH3 0x461BCD PUSH1 0xE5 SHL DUP2 MSTORE DUP1 PUSH2 0x147B PUSH1 0x4 DUP3 ADD PUSH2 0x4F68 JUMP JUMPDEST SWAP1 POP ISZERO ISZERO CODESIZE PUSH2 0x4B14 JUMP JUMPDEST SWAP3 SWAP1 SWAP3 PUSH2 0x4CC0 DUP4 DUP6 DUP4 PUSH2 0x4AD7 JUMP JUMPDEST DUP4 EXTCODESIZE PUSH2 0x4CCC JUMPI POP POP POP POP JUMP JUMPDEST PUSH1 0x40 MLOAD PUSH4 0xA85BD01 PUSH1 0xE1 SHL DUP1 DUP3 MSTORE CALLER PUSH1 0x4 DUP4 ADD MSTORE PUSH1 0x1 PUSH1 0x1 PUSH1 0xA0 SHL SUB SWAP3 DUP4 AND PUSH1 0x24 DUP4 ADD MSTORE PUSH1 0x44 DUP3 ADD SWAP5 SWAP1 SWAP5 MSTORE PUSH1 0x80 PUSH1 0x64 DUP3 ADD MSTORE SWAP5 SWAP4 AND SWAP3 PUSH1 0x20 SWAP3 SWAP1 SWAP2 DUP6 SWAP1 PUSH2 0x4D18 SWAP1 PUSH1 0x84 DUP4 ADD SWAP1 PUSH2 0x4734 JUMP JUMPDEST SUB SWAP5 DUP4 DUP2 PUSH1 0x0 SWAP8 DUP2 DUP10 DUP10 GAS CALL DUP7 SWAP2 DUP2 PUSH2 0x4DC2 JUMPI JUMPDEST POP PUSH2 0x4D8D JUMPI POP POP POP RETURNDATASIZE PUSH1 0x0 EQ PUSH2 0x4D84 JUMPI RETURNDATASIZE PUSH2 0x4D46 DUP2 PUSH2 0x46A1 JUMP JUMPDEST SWAP1 PUSH2 0x4D54 PUSH1 0x40 MLOAD SWAP3 DUP4 PUSH2 0x4680 JUMP JUMPDEST DUP2 MSTORE DUP1 SWAP4 DUP3 RETURNDATASIZE SWAP3 ADD RETURNDATACOPY JUMPDEST DUP3 MLOAD SWAP3 DUP4 PUSH2 0x4D7F JUMPI PUSH1 0x40 MLOAD PUSH4 0x32505749 PUSH1 0xE1 SHL DUP2 MSTORE PUSH1 0x4 DUP2 ADD DUP5 SWAP1 MSTORE PUSH1 0x24 SWAP1 REVERT JUMPDEST ADD SWAP1 POP REVERT JUMPDEST PUSH1 0x60 SWAP3 POP PUSH2 0x4D5E JUMP JUMPDEST SWAP2 SWAP5 POP SWAP2 POP PUSH4 0xFFFFFFFF PUSH1 0xE0 SHL AND SUB PUSH2 0x4DAA JUMPI POP CODESIZE DUP1 DUP1 DUP1 PUSH2 0x4815 JUMP JUMPDEST PUSH1 0x24 SWAP1 PUSH1 0x40 MLOAD SWAP1 PUSH4 0x32505749 PUSH1 0xE1 SHL DUP3 MSTORE PUSH1 0x4 DUP3 ADD MSTORE REVERT JUMPDEST SWAP1 SWAP2 POP DUP5 DUP2 DUP2 RETURNDATASIZE DUP4 GT PUSH2 0x4DFF JUMPI JUMPDEST PUSH2 0x4DDA DUP2 DUP4 PUSH2 0x4680 JUMP JUMPDEST DUP2 ADD SUB SLT PUSH2 0x4DFB JUMPI MLOAD PUSH1 0x1 PUSH1 0x1 PUSH1 0xE0 SHL SUB NOT DUP2 AND DUP2 SUB PUSH2 0x4DFB JUMPI SWAP1 CODESIZE PUSH2 0x4D2C JUMP JUMPDEST DUP7 DUP1 REVERT JUMPDEST POP RETURNDATASIZE PUSH2 0x4DD0 JUMP JUMPDEST PUSH1 0x0 DUP2 DUP2 MSTORE PUSH1 0x2 PUSH1 0x20 MSTORE PUSH1 0x40 SWAP1 KECCAK256 SLOAD PUSH1 0x1 PUSH1 0x1 PUSH1 0xA0 SHL SUB AND SWAP1 DUP2 ISZERO PUSH2 0x4E29 JUMPI POP SWAP1 JUMP JUMPDEST PUSH1 0x24 SWAP1 PUSH1 0x40 MLOAD SWAP1 PUSH4 0x7E273289 PUSH1 0xE0 SHL DUP3 MSTORE PUSH1 0x4 DUP3 ADD MSTORE REVERT JUMPDEST PUSH1 0x0 NOT DUP2 EQ PUSH2 0x2C79 JUMPI PUSH1 0x1 ADD SWAP1 JUMP JUMPDEST ISZERO PUSH2 0x4E57 JUMPI JUMP JUMPDEST PUSH1 0x40 MLOAD PUSH3 0x461BCD PUSH1 0xE5 SHL DUP2 MSTORE PUSH1 0x20 PUSH1 0x4 DUP3 ADD MSTORE PUSH1 0x16 PUSH1 0x24 DUP3 ADD MSTORE PUSH22 0x141C9BD91D58DD08191BD95CC81B9BDD08195E1A5CDD PUSH1 0x52 SHL PUSH1 0x44 DUP3 ADD MSTORE PUSH1 0x64 SWAP1 REVERT JUMPDEST ISZERO PUSH2 0x4E9C JUMPI JUMP JUMPDEST PUSH1 0x40 MLOAD PUSH3 0x461BCD PUSH1 0xE5 SHL DUP2 MSTORE PUSH1 0x20 PUSH1 0x4 DUP3 ADD MSTORE PUSH1 0x1B PUSH1 0x24 DUP3 ADD MSTORE PUSH32 0x496E76616C69642064657374696E6174696F6E20616464726573730000000000 PUSH1 0x44 DUP3 ADD MSTORE PUSH1 0x64 SWAP1 REVERT JUMPDEST SWAP1 PUSH1 0x1 PUSH1 0x1 PUSH1 0xA0 SHL SUB SWAP1 DUP2 DUP2 AND ISZERO PUSH2 0x322D JUMPI DUP4 PUSH2 0x4EFD SWAP2 PUSH2 0x4FEE JUMP JUMPDEST SWAP1 DUP1 DUP3 AND SWAP1 DUP2 PUSH2 0x4F20 JUMPI PUSH1 0x40 MLOAD PUSH4 0x7E273289 PUSH1 0xE0 SHL DUP2 MSTORE PUSH1 0x4 DUP2 ADD DUP7 SWAP1 MSTORE PUSH1 0x24 SWAP1 REVERT JUMPDEST DUP4 AND SUB PUSH2 0x4F2C JUMPI POP POP POP JUMP JUMPDEST PUSH1 0x40 MLOAD PUSH4 0x64283D7B PUSH1 0xE0 SHL DUP2 MSTORE PUSH1 0x1 PUSH1 0x1 PUSH1 0xA0 SHL SUB SWAP3 DUP4 AND PUSH1 0x4 DUP3 ADD MSTORE PUSH1 0x24 DUP2 ADD SWAP4 SWAP1 SWAP4 MSTORE AND PUSH1 0x44 DUP3 ADD MSTORE PUSH1 0x64 SWAP1 REVERT JUMPDEST PUSH1 0x8 DUP3 LT ISZERO PUSH2 0x56F JUMPI MSTORE JUMP JUMPDEST PUSH1 0x80 SWAP1 PUSH1 0x20 DUP2 MSTORE PUSH1 0x2C PUSH1 0x20 DUP3 ADD MSTORE PUSH32 0x546F6B656E20697320736F756C626F756E6420616E642063616E6E6F74206265 PUSH1 0x40 DUP3 ADD MSTORE PUSH12 0x81D1C985B9CD9995C9C9959 PUSH1 0xA2 SHL PUSH1 0x60 DUP3 ADD MSTORE ADD SWAP1 JUMP JUMPDEST PUSH1 0x0 SWAP1 DUP2 MSTORE PUSH1 0x2 PUSH1 0x20 MSTORE PUSH1 0x40 SWAP1 KECCAK256 SLOAD PUSH1 0x1 PUSH1 0x1 PUSH1 0xA0 SHL SUB AND ISZERO PUSH2 0x4FE9 JUMPI PUSH1 0x9 PUSH1 0x20 MSTORE PUSH1 0xFF PUSH1 0xB PUSH1 0x40 PUSH1 0x0 KECCAK256 ADD SLOAD PUSH1 0x8 SHR AND SWAP1 JUMP JUMPDEST PUSH1 0x0 SWAP1 JUMP JUMPDEST SWAP1 PUSH1 0x0 SWAP2 DUP2 DUP4 MSTORE PUSH1 0x20 SWAP1 PUSH1 0x2 DUP3 MSTORE PUSH1 0x1 DUP1 PUSH1 0xA0 SHL SUB SWAP4 PUSH1 0x40 DUP6 DUP2 DUP4 KECCAK256 SLOAD AND PUSH1 0x9 DUP6 MSTORE PUSH1 0xFF PUSH1 0xB DUP4 DUP6 KECCAK256 ADD SLOAD AND SWAP1 DUP2 PUSH2 0x50E4 JUMPI JUMPDEST POP PUSH2 0x50CD JUMPI SWAP1 PUSH32 0xDDF252AD1BE2C89B69C2B068FC378DAA952BA7F163C4A11628F55A4DF523B3EF SWAP2 DUP6 DUP3 MSTORE PUSH1 0x2 DUP6 MSTORE PUSH1 0x2 DUP8 DUP3 DUP5 KECCAK256 SLOAD AND SWAP8 DUP9 SWAP6 DUP7 PUSH2 0x509A JUMPI JUMPDEST AND SWAP6 DUP7 PUSH2 0x5084 JUMPI JUMPDEST DUP8 DUP5 MSTORE MSTORE DUP2 KECCAK256 DUP1 SLOAD PUSH1 0x1 PUSH1 0x1 PUSH1 0xA0 SHL SUB NOT AND DUP6 OR SWAP1 SSTORE DUP1 LOG4 SWAP1 JUMP JUMPDEST DUP7 DUP5 MSTORE PUSH1 0x3 DUP2 MSTORE DUP3 DUP5 KECCAK256 PUSH1 0x1 DUP2 SLOAD ADD SWAP1 SSTORE PUSH2 0x5069 JUMP JUMPDEST PUSH1 0x0 DUP10 DUP2 MSTORE PUSH1 0x4 PUSH1 0x20 MSTORE PUSH1 0x40 SWAP1 KECCAK256 DUP1 SLOAD PUSH1 0x1 PUSH1 0x1 PUSH1 0xA0 SHL SUB NOT AND SWAP1 SSTORE DUP7 DUP6 MSTORE PUSH1 0x3 DUP9 MSTORE DUP4 DUP6 KECCAK256 DUP1 SLOAD PUSH1 0x0 NOT ADD SWAP1 SSTORE PUSH2 0x5061 JUMP JUMPDEST MLOAD PUSH3 0x461BCD PUSH1 0xE5 SHL DUP2 MSTORE DUP1 PUSH2 0x147B PUSH1 0x4 DUP3 ADD PUSH2 0x4F68 JUMP JUMPDEST SWAP1 POP ISZERO ISZERO CODESIZE PUSH2 0x5021 JUMP INVALID 0x1F 0xEE PUSH6 0xBF2EDE0D34FC PUSH21 0x6EFFD1D457315A439158AFE48D47A09CD92B007FC2 TIMESTAMP LOG4 SWAP9 SMOD KECCAK256 0x5C 0xE4 0xD3 SSTORE MULMOD 0x2E CREATE2 0xA8 LOG1 DUP16 JUMP 0xE8 SWAP2 EXTCODECOPY DELEGATECALL LOG2 ADD 0xFB 0xE2 DUP8 DUP3 JUMPDEST MULMOD JUMP SWAP4 0xC2 OR PUSH22 0xA26469706673582212209CF73ECE2C54EB007E214B94 0xBE DUP13 0xDF 0xA6 BALANCE SELFBALANCE 0xE2 DUP8 0x2F CALLDATASIZE 0xBB 0xDB 0xEC PUSH19 0x66AF7E8AC8BC64736F6C634300081400332F87 DUP9 GT PUSH31 0x7EFF1D82E926EC794901D17C78024A50270940304540A733656F0D00000000 "},"methodIdentifiers":{"ADMIN_ROLE()":"75b238fc","CUSTOMER_ROLE()":"204d7923","DEFAULT_ADMIN_ROLE()":"a217fddf","INSPECTOR_ROLE()":"e3a3c522","MANUFACTURER_ROLE()":"965288b0","ORACLE_ROLE()":"07e2cea5","PACKAGER_ROLE()":"a40b9ddf","RETAILER_ROLE()":"2115e7bf","TRANSPORTER_ROLE()":"4eabbe77","WHOLESALER_ROLE()":"d7cb8d34","approve(address,uint256)":"095ea7b3","approveShipment(uint256)":"115da32e","authorizedViewers(uint256,address)":"b5788b49","balanceOf(address)":"70a08231","barcodeToTokenId(string)":"4037ee3f","confirmReceipt(uint256,string)":"48fd93d0","confirmShipmentCompletion(uint256)":"0c8b0e57","getApproved(uint256)":"081812fc","getIoTData(uint256)":"ee83687b","getProduct(uint256)":"b9db15b4","getProductShipments(uint256)":"ced2dea4","getRoleAdmin(bytes32)":"248a9ca3","getShipment(uint256)":"092b3740","grantRole(bytes32,address)":"2f2ff15d","hasProductAccess(uint256,address)":"4bc39ec2","hasRole(bytes32,address)":"91d14854","isApprovedForAll(address,address)":"e985e9c5","isProductRecalled(uint256)":"08021d1e","logPackaging(uint256,string)":"f04fe44e","makeSoulbound(uint256)":"a591eea1","mintProduct(string,string,string,string,uint256,string,address)":"4601bef8","name()":"06fdde03","ownerOf(uint256)":"6352211e","productIoTData(uint256,uint256)":"1020f783","productKeys(uint256)":"6b1023dd","productShipments(uint256,uint256)":"2fe9f958","products(uint256)":"7acc0b20","recallProduct(uint256,string)":"9ce0f973","recordIoT(uint256,uint8,int256,string,string,string)":"4a6323d6","renounceRole(bytes32,address)":"36568abe","requestShipment(uint256,address,string,string)":"01ab6e09","revokeRole(bytes32,address)":"d547741f","rfidToTokenId(string)":"bedd1136","safeTransferFrom(address,address,uint256)":"42842e0e","safeTransferFrom(address,address,uint256,bytes)":"b88d4fde","setApprovalForAll(address,bool)":"a22cb465","shipProduct(uint256)":"2927d1d9","shipments(uint256)":"2ac08a93","supportsInterface(bytes4)":"01ffc9a7","symbol()":"95d89b41","tokenURI(uint256)":"c87b56dd","transferCustody(uint256,address,string)":"910bc3a1","transferFrom(address,address,uint256)":"23b872dd","updateLocation(uint256,string)":"4ec0c9e9"}}}}}