{"contracts/ProTrack.sol":{"ProTrack":{"abi":[{"inputs":[],"stateMutability":"nonpayable","type":"constructor"},{"inputs":[],"name":"AccessControlBadConfirmation","type":"error"},{"inputs":[{"internalType":"address","name":"account","type":"address"},{"internalType":"bytes32","name":"neededRole","type":"bytes32"}],"name":"AccessControlUnauthorizedAccount","type":"error"},{"inputs":[{"internalType":"address","name":"sender","type":"address"},{"internalType":"uint256","name":"tokenId","type":"uint256"},{"internalType":"address","name":"owner","type":"address"}],"name":"ERC721IncorrectOwner","type":"error"},{"inputs":[{"internalType":"address","name":"operator","type":"address"},{"internalType":"uint256","name":"tokenId","type":"uint256"}],"name":"ERC721InsufficientApproval","type":"error"},{"inputs":[{"internalType":"address","name":"approver","type":"address"}],"name":"ERC721InvalidApprover","type":"error"},{"inputs":[{"internalType":"address","name":"operator","type":"address"}],"name":"ERC721InvalidOperator","type":"error"},{"inputs":[{"internalType":"address","name":"owner","type":"address"}],"name":"ERC721InvalidOwner","type":"error"},{"inputs":[{"internalType":"address","name":"receiver","type":"address"}],"name":"ERC721InvalidReceiver","type":"error"},{"inputs":[{"internalType":"address","name":"sender","type":"address"}],"name":"ERC721InvalidSender","type":"error"},{"inputs":[{"internalType":"uint256","name":"tokenId","type":"uint256"}],"name":"ERC721NonexistentToken","type":"error"},{"inputs":[],"name":"ReentrancyGuardReentrantCall","type":"error"},{"anonymous":false,"inputs":[{"indexed":true,"internalType":"address","name":"owner","type":"address"},{"indexed":true,"internalType":"address","name":"approved","type":"address"},{"indexed":true,"internalType":"uint256","name":"tokenId","type":"uint256"}],"name":"Approval","type":"event"},{"anonymous":false,"inputs":[{"indexed":true,"internalType":"address","name":"owner","type":"address"},{"indexed":true,"internalType":"address","name":"operator","type":"address"},{"indexed":false,"internalType":"bool","name":"approved","type":"bool"}],"name":"ApprovalForAll","type":"event"},{"anonymous":false,"inputs":[{"indexed":false,"internalType":"uint256","name":"_fromTokenId","type":"uint256"},{"indexed":false,"internalType":"uint256","name":"_toTokenId","type":"uint256"}],"name":"BatchMetadataUpdate","type":"event"},{"anonymous":false,"inputs":[{"indexed":true,"internalType":"uint256","name":"tokenId","type":"uint256"},{"indexed":true,"internalType":"address","name":"from","type":"address"},{"indexed":true,"internalType":"address","name":"to","type":"address"},{"indexed":false,"internalType":"string","name":"location","type":"string"}],"name":"CustodyTransferred","type":"event"},{"anonymous":false,"inputs":[{"indexed":true,"internalType":"uint256","name":"tokenId","type":"uint256"},{"indexed":true,"internalType":"address","name":"sender","type":"address"},{"indexed":true,"internalType":"address","name":"receiver","type":"address"}],"name":"EncryptionKeysGenerated","type":"event"},{"anonymous":false,"inputs":[{"indexed":true,"internalType":"uint256","name":"tokenId","type":"uint256"},{"indexed":false,"internalType":"enum ProTrack.SensorType","name":"sensorType","type":"uint8"},{"indexed":false,"internalType":"int256","name":"value","type":"int256"},{"indexed":false,"internalType":"uint256","name":"timestamp","type":"uint256"}],"name":"IoTDataRecorded","type":"event"},{"anonymous":false,"inputs":[{"indexed":false,"internalType":"uint256","name":"_tokenId","type":"uint256"}],"name":"MetadataUpdate","type":"event"},{"anonymous":false,"inputs":[{"indexed":true,"internalType":"uint256","name":"tokenId","type":"uint256"},{"indexed":false,"internalType":"string","name":"rfidHash","type":"string"},{"indexed":false,"internalType":"string","name":"barcode","type":"string"},{"indexed":true,"internalType":"address","name":"manufacturer","type":"address"},{"indexed":false,"internalType":"string","name":"productName","type":"string"}],"name":"ProductMinted","type":"event"},{"anonymous":false,"inputs":[{"indexed":true,"internalType":"uint256","name":"tokenId","type":"uint256"},{"indexed":false,"internalType":"string","name":"batchId","type":"string"}],"name":"ProductPackaged","type":"event"},{"anonymous":false,"inputs":[{"indexed":true,"internalType":"uint256","name":"tokenId","type":"uint256"},{"indexed":true,"internalType":"address","name":"initiator","type":"address"},{"indexed":false,"internalType":"string","name":"reason","type":"string"}],"name":"ProductRecalled","type":"event"},{"anonymous":false,"inputs":[{"indexed":true,"internalType":"uint256","name":"tokenId","type":"uint256"},{"indexed":false,"internalType":"enum ProTrack.ProductStatus","name":"status","type":"uint8"},{"indexed":false,"internalType":"address","name":"updatedBy","type":"address"}],"name":"ProductStatusUpdated","type":"event"},{"anonymous":false,"inputs":[{"indexed":true,"internalType":"bytes32","name":"role","type":"bytes32"},{"indexed":true,"internalType":"bytes32","name":"previousAdminRole","type":"bytes32"},{"indexed":true,"internalType":"bytes32","name":"newAdminRole","type":"bytes32"}],"name":"RoleAdminChanged","type":"event"},{"anonymous":false,"inputs":[{"indexed":true,"internalType":"bytes32","name":"role","type":"bytes32"},{"indexed":true,"internalType":"address","name":"account","type":"address"},{"indexed":true,"internalType":"address","name":"sender","type":"address"}],"name":"RoleGranted","type":"event"},{"anonymous":false,"inputs":[{"indexed":true,"internalType":"bytes32","name":"role","type":"bytes32"},{"indexed":true,"internalType":"address","name":"account","type":"address"},{"indexed":true,"internalType":"address","name":"sender","type":"address"}],"name":"RoleRevoked","type":"event"},{"anonymous":false,"inputs":[{"indexed":true,"internalType":"uint256","name":"shipmentId","type":"uint256"},{"indexed":false,"internalType":"string","name":"tempKeyId","type":"string"}],"name":"ShipmentApproved","type":"event"},{"anonymous":false,"inputs":[{"indexed":true,"internalType":"uint256","name":"shipmentId","type":"uint256"},{"indexed":false,"internalType":"uint256","name":"confirmedAt","type":"uint256"}],"name":"ShipmentConfirmed","type":"event"},{"anonymous":false,"inputs":[{"indexed":true,"internalType":"uint256","name":"shipmentId","type":"uint256"},{"indexed":false,"internalType":"uint256","name":"deliveredAt","type":"uint256"}],"name":"ShipmentDelivered","type":"event"},{"anonymous":false,"inputs":[{"indexed":true,"internalType":"uint256","name":"shipmentId","type":"uint256"},{"indexed":true,"internalType":"uint256","name":"productId","type":"uint256"},{"indexed":true,"internalType":"address","name":"from","type":"address"},{"indexed":false,"internalType":"address","name":"to","type":"address"}],"name":"ShipmentRequested","type":"event"},{"anonymous":false,"inputs":[{"indexed":true,"internalType":"address","name":"from","type":"address"},{"indexed":true,"internalType":"address","name":"to","type":"address"},{"indexed":true,"internalType":"uint256","name":"tokenId","type":"uint256"}],"name":"Transfer","type":"event"},{"anonymous":false,"inputs":[{"indexed":true,"internalType":"uint256","name":"tokenId","type":"uint256"},{"indexed":false,"internalType":"string","name":"proofType","type":"string"},{"indexed":false,"internalType":"bool","name":"verified","type":"bool"}],"name":"ZKProofVerified","type":"event"},{"inputs":[],"name":"ADMIN_ROLE","outputs":[{"internalType":"bytes32","name":"","type":"bytes32"}],"stateMutability":"view","type":"function"},{"inputs":[],"name":"CUSTOMER_ROLE","outputs":[{"internalType":"bytes32","name":"","type":"bytes32"}],"stateMutability":"view","type":"function"},{"inputs":[],"name":"DEFAULT_ADMIN_ROLE","outputs":[{"internalType":"bytes32","name":"","type":"bytes32"}],"stateMutability":"view","type":"function"},{"inputs":[],"name":"INSPECTOR_ROLE","outputs":[{"internalType":"bytes32","name":"","type":"bytes32"}],"stateMutability":"view","type":"function"},{"inputs":[],"name":"MANUFACTURER_ROLE","outputs":[{"internalType":"bytes32","name":"","type":"bytes32"}],"stateMutability":"view","type":"function"},{"inputs":[],"name":"ORACLE_ROLE","outputs":[{"internalType":"bytes32","name":"","type":"bytes32"}],"stateMutability":"view","type":"function"},{"inputs":[],"name":"PACKAGER_ROLE","outputs":[{"internalType":"bytes32","name":"","type":"bytes32"}],"stateMutability":"view","type":"function"},{"inputs":[],"name":"RETAILER_ROLE","outputs":[{"internalType":"bytes32","name":"","type":"bytes32"}],"stateMutability":"view","type":"function"},{"inputs":[],"name":"TRANSPORTER_ROLE","outputs":[{"internalType":"bytes32","name":"","type":"bytes32"}],"stateMutability":"view","type":"function"},{"inputs":[],"name":"WHOLESALER_ROLE","outputs":[{"internalType":"bytes32","name":"","type":"bytes32"}],"stateMutability":"view","type":"function"},{"inputs":[{"internalType":"uint256","name":"tokenId","type":"uint256"},{"internalType":"string","name":"proofType","type":"string"},{"internalType":"string","name":"ipfsCID","type":"string"}],"name":"addZKProof","outputs":[],"stateMutability":"nonpayable","type":"function"},{"inputs":[{"internalType":"address","name":"to","type":"address"},{"internalType":"uint256","name":"tokenId","type":"uint256"}],"name":"approve","outputs":[],"stateMutability":"nonpayable","type":"function"},{"inputs":[{"internalType":"uint256","name":"shipmentId","type":"uint256"}],"name":"approveShipment","outputs":[],"stateMutability":"nonpayable","type":"function"},{"inputs":[{"internalType":"uint256","name":"","type":"uint256"},{"internalType":"address","name":"","type":"address"}],"name":"authorizedViewers","outputs":[{"internalType":"bool","name":"","type":"bool"}],"stateMutability":"view","type":"function"},{"inputs":[{"internalType":"address","name":"owner","type":"address"}],"name":"balanceOf","outputs":[{"internalType":"uint256","name":"","type":"uint256"}],"stateMutability":"view","type":"function"},{"inputs":[{"internalType":"string","name":"","type":"string"}],"name":"barcodeToTokenId","outputs":[{"internalType":"uint256","name":"","type":"uint256"}],"stateMutability":"view","type":"function"},{"inputs":[{"internalType":"uint256","name":"shipmentId","type":"uint256"},{"internalType":"string","name":"location","type":"string"}],"name":"confirmReceipt","outputs":[],"stateMutability":"nonpayable","type":"function"},{"inputs":[{"internalType":"uint256","name":"shipmentId","type":"uint256"}],"name":"confirmShipmentCompletion","outputs":[],"stateMutability":"nonpayable","type":"function"},{"inputs":[{"internalType":"uint256","name":"tokenId","type":"uint256"},{"internalType":"address","name":"sender","type":"address"},{"internalType":"address","name":"receiver","type":"address"}],"name":"generateEncryptionKeys","outputs":[],"stateMutability":"nonpayable","type":"function"},{"inputs":[{"internalType":"uint256","name":"tokenId","type":"uint256"}],"name":"getApproved","outputs":[{"internalType":"address","name":"","type":"address"}],"stateMutability":"view","type":"function"},{"inputs":[{"internalType":"uint256","name":"tokenId","type":"uint256"}],"name":"getIoTData","outputs":[{"components":[{"internalType":"uint256","name":"productId","type":"uint256"},{"internalType":"enum ProTrack.SensorType","name":"sensorType","type":"uint8"},{"internalType":"int256","name":"value","type":"int256"},{"internalType":"string","name":"unit","type":"string"},{"internalType":"string","name":"gpsCoordinates","type":"string"},{"internalType":"address","name":"provider","type":"address"},{"internalType":"uint256","name":"timestamp","type":"uint256"},{"internalType":"bool","name":"verified","type":"bool"},{"internalType":"string","name":"ipfsCID","type":"string"}],"internalType":"struct ProTrack.IoTData[]","name":"","type":"tuple[]"}],"stateMutability":"view","type":"function"},{"inputs":[{"internalType":"uint256","name":"tokenId","type":"uint256"}],"name":"getProduct","outputs":[{"components":[{"internalType":"string","name":"rfidHash","type":"string"},{"internalType":"string","name":"barcode","type":"string"},{"internalType":"string","name":"productHash","type":"string"},{"internalType":"string","name":"productName","type":"string"},{"internalType":"string","name":"batchId","type":"string"},{"internalType":"uint256","name":"manufactureDate","type":"uint256"},{"internalType":"uint256","name":"expiryDate","type":"uint256"},{"internalType":"string","name":"ipfsMetadataCID","type":"string"},{"internalType":"enum ProTrack.ProductStatus","name":"status","type":"uint8"},{"internalType":"address","name":"manufacturer","type":"address"},{"internalType":"address","name":"currentCustodian","type":"address"},{"internalType":"string","name":"currentLocation","type":"string"},{"internalType":"uint256","name":"lastUpdated","type":"uint256"},{"internalType":"bool","name":"isSoulbound","type":"bool"},{"internalType":"bool","name":"isRecalled","type":"bool"}],"internalType":"struct ProTrack.Product","name":"","type":"tuple"}],"stateMutability":"view","type":"function"},{"inputs":[{"internalType":"uint256","name":"tokenId","type":"uint256"}],"name":"getProductShipments","outputs":[{"internalType":"uint256[]","name":"","type":"uint256[]"}],"stateMutability":"view","type":"function"},{"inputs":[{"internalType":"uint256","name":"tokenId","type":"uint256"}],"name":"getProductZKProofs","outputs":[{"components":[{"internalType":"string","name":"proofType","type":"string"},{"internalType":"string","name":"ipfsCID","type":"string"},{"internalType":"bool","name":"verified","type":"bool"},{"internalType":"address","name":"verifier","type":"address"},{"internalType":"uint256","name":"verifiedAt","type":"uint256"}],"internalType":"struct ProTrack.ZKProof[]","name":"","type":"tuple[]"}],"stateMutability":"view","type":"function"},{"inputs":[{"internalType":"bytes32","name":"role","type":"bytes32"}],"name":"getRoleAdmin","outputs":[{"internalType":"bytes32","name":"","type":"bytes32"}],"stateMutability":"view","type":"function"},{"inputs":[{"internalType":"uint256","name":"shipmentId","type":"uint256"}],"name":"getShipment","outputs":[{"components":[{"internalType":"uint256","name":"productId","type":"uint256"},{"internalType":"address","name":"fromParty","type":"address"},{"internalType":"address","name":"toParty","type":"address"},{"internalType":"enum ProTrack.ShipmentStatus","name":"status","type":"uint8"},{"internalType":"string","name":"tempKeyId","type":"string"},{"internalType":"uint256","name":"requestedAt","type":"uint256"},{"internalType":"uint256","name":"approvedAt","type":"uint256"},{"internalType":"uint256","name":"shippedAt","type":"uint256"},{"internalType":"uint256","name":"deliveredAt","type":"uint256"},{"internalType":"uint256","name":"confirmedAt","type":"uint256"},{"internalType":"string","name":"trackingInfo","type":"string"}],"internalType":"struct ProTrack.Shipment","name":"","type":"tuple"}],"stateMutability":"view","type":"function"},{"inputs":[{"internalType":"bytes32","name":"role","type":"bytes32"},{"internalType":"address","name":"account","type":"address"}],"name":"grantRole","outputs":[],"stateMutability":"nonpayable","type":"function"},{"inputs":[{"internalType":"uint256","name":"tokenId","type":"uint256"},{"internalType":"address","name":"user","type":"address"}],"name":"hasProductAccess","outputs":[{"internalType":"bool","name":"","type":"bool"}],"stateMutability":"view","type":"function"},{"inputs":[{"internalType":"bytes32","name":"role","type":"bytes32"},{"internalType":"address","name":"account","type":"address"}],"name":"hasRole","outputs":[{"internalType":"bool","name":"","type":"bool"}],"stateMutability":"view","type":"function"},{"inputs":[{"internalType":"address","name":"owner","type":"address"},{"internalType":"address","name":"operator","type":"address"}],"name":"isApprovedForAll","outputs":[{"internalType":"bool","name":"","type":"bool"}],"stateMutability":"view","type":"function"},{"inputs":[{"internalType":"uint256","name":"tokenId","type":"uint256"}],"name":"isProductRecalled","outputs":[{"internalType":"bool","name":"","type":"bool"}],"stateMutability":"view","type":"function"},{"inputs":[{"internalType":"uint256","name":"tokenId","type":"uint256"},{"internalType":"string","name":"batchId","type":"string"}],"name":"logPackaging","outputs":[],"stateMutability":"nonpayable","type":"function"},{"inputs":[{"internalType":"string","name":"rfidHash","type":"string"},{"internalType":"string","name":"barcode","type":"string"},{"internalType":"string","name":"productName","type":"string"},{"internalType":"string","name":"batchId","type":"string"},{"internalType":"uint256","name":"expiryDate","type":"uint256"},{"internalType":"string","name":"ipfsMetadataCID","type":"string"},{"internalType":"address","name":"owner","type":"address"}],"name":"mintProduct","outputs":[{"internalType":"uint256","name":"","type":"uint256"}],"stateMutability":"nonpayable","type":"function"},{"inputs":[],"name":"name","outputs":[{"internalType":"string","name":"","type":"string"}],"stateMutability":"view","type":"function"},{"inputs":[{"internalType":"uint256","name":"tokenId","type":"uint256"}],"name":"ownerOf","outputs":[{"internalType":"address","name":"","type":"address"}],"stateMutability":"view","type":"function"},{"inputs":[{"internalType":"uint256","name":"","type":"uint256"},{"internalType":"uint256","name":"","type":"uint256"}],"name":"productIoTData","outputs":[{"internalType":"uint256","name":"productId","type":"uint256"},{"internalType":"enum ProTrack.SensorType","name":"sensorType","type":"uint8"},{"internalType":"int256","name":"value","type":"int256"},{"internalType":"string","name":"unit","type":"string"},{"internalType":"string","name":"gpsCoordinates","type":"string"},{"internalType":"address","name":"provider","type":"address"},{"internalType":"uint256","name":"timestamp","type":"uint256"},{"internalType":"bool","name":"verified","type":"bool"},{"internalType":"string","name":"ipfsCID","type":"string"}],"stateMutability":"view","type":"function"},{"inputs":[{"internalType":"uint256","name":"","type":"uint256"}],"name":"productKeys","outputs":[{"internalType":"bytes32","name":"senderKey","type":"bytes32"},{"internalType":"bytes32","name":"receiverKey","type":"bytes32"},{"internalType":"bytes32","name":"auditorKey","type":"bytes32"},{"internalType":"uint256","name":"createdAt","type":"uint256"},{"internalType":"uint256","name":"expiresAt","type":"uint256"},{"internalType":"bool","name":"isActive","type":"bool"}],"stateMutability":"view","type":"function"},{"inputs":[{"internalType":"uint256","name":"","type":"uint256"},{"internalType":"uint256","name":"","type":"uint256"}],"name":"productShipments","outputs":[{"internalType":"uint256","name":"","type":"uint256"}],"stateMutability":"view","type":"function"},{"inputs":[{"internalType":"uint256","name":"","type":"uint256"},{"internalType":"uint256","name":"","type":"uint256"}],"name":"productZKProofs","outputs":[{"internalType":"string","name":"proofType","type":"string"},{"internalType":"string","name":"ipfsCID","type":"string"},{"internalType":"bool","name":"verified","type":"bool"},{"internalType":"address","name":"verifier","type":"address"},{"internalType":"uint256","name":"verifiedAt","type":"uint256"}],"stateMutability":"view","type":"function"},{"inputs":[{"internalType":"uint256","name":"","type":"uint256"}],"name":"products","outputs":[{"internalType":"string","name":"rfidHash","type":"string"},{"internalType":"string","name":"barcode","type":"string"},{"internalType":"string","name":"productHash","type":"string"},{"internalType":"string","name":"productName","type":"string"},{"internalType":"string","name":"batchId","type":"string"},{"internalType":"uint256","name":"manufactureDate","type":"uint256"},{"internalType":"uint256","name":"expiryDate","type":"uint256"},{"internalType":"string","name":"ipfsMetadataCID","type":"string"},{"internalType":"enum ProTrack.ProductStatus","name":"status","type":"uint8"},{"internalType":"address","name":"manufacturer","type":"address"},{"internalType":"address","name":"currentCustodian","type":"address"},{"internalType":"string","name":"currentLocation","type":"string"},{"internalType":"uint256","name":"lastUpdated","type":"uint256"},{"internalType":"bool","name":"isSoulbound","type":"bool"},{"internalType":"bool","name":"isRecalled","type":"bool"}],"stateMutability":"view","type":"function"},{"inputs":[{"internalType":"uint256","name":"tokenId","type":"uint256"},{"internalType":"string","name":"reason","type":"string"}],"name":"recallProduct","outputs":[],"stateMutability":"nonpayable","type":"function"},{"inputs":[{"internalType":"uint256","name":"tokenId","type":"uint256"},{"internalType":"enum ProTrack.SensorType","name":"sensorType","type":"uint8"},{"internalType":"int256","name":"value","type":"int256"},{"internalType":"string","name":"unit","type":"string"},{"internalType":"string","name":"gpsCoordinates","type":"string"},{"internalType":"string","name":"ipfsCID","type":"string"}],"name":"recordIoT","outputs":[],"stateMutability":"nonpayable","type":"function"},{"inputs":[{"internalType":"bytes32","name":"role","type":"bytes32"},{"internalType":"address","name":"callerConfirmation","type":"address"}],"name":"renounceRole","outputs":[],"stateMutability":"nonpayable","type":"function"},{"inputs":[{"internalType":"uint256","name":"tokenId","type":"uint256"},{"internalType":"address","name":"to","type":"address"},{"internalType":"string","name":"tempKeyId","type":"string"},{"internalType":"string","name":"trackingInfo","type":"string"}],"name":"requestShipment","outputs":[{"internalType":"uint256","name":"","type":"uint256"}],"stateMutability":"nonpayable","type":"function"},{"inputs":[{"internalType":"bytes32","name":"role","type":"bytes32"},{"internalType":"address","name":"account","type":"address"}],"name":"revokeRole","outputs":[],"stateMutability":"nonpayable","type":"function"},{"inputs":[{"internalType":"string","name":"","type":"string"}],"name":"rfidToTokenId","outputs":[{"internalType":"uint256","name":"","type":"uint256"}],"stateMutability":"view","type":"function"},{"inputs":[{"internalType":"address","name":"from","type":"address"},{"internalType":"address","name":"to","type":"address"},{"internalType":"uint256","name":"tokenId","type":"uint256"}],"name":"safeTransferFrom","outputs":[],"stateMutability":"nonpayable","type":"function"},{"inputs":[{"internalType":"address","name":"from","type":"address"},{"internalType":"address","name":"to","type":"address"},{"internalType":"uint256","name":"tokenId","type":"uint256"},{"internalType":"bytes","name":"data","type":"bytes"}],"name":"safeTransferFrom","outputs":[],"stateMutability":"nonpayable","type":"function"},{"inputs":[{"internalType":"address","name":"operator","type":"address"},{"internalType":"bool","name":"approved","type":"bool"}],"name":"setApprovalForAll","outputs":[],"stateMutability":"nonpayable","type":"function"},{"inputs":[{"internalType":"uint256","name":"tokenId","type":"uint256"},{"internalType":"bool","name":"isSoulbound","type":"bool"}],"name":"setSoulbound","outputs":[],"stateMutability":"nonpayable","type":"function"},{"inputs":[{"internalType":"uint256","name":"shipmentId","type":"uint256"}],"name":"shipProduct","outputs":[],"stateMutability":"nonpayable","type":"function"},{"inputs":[{"internalType":"uint256","name":"","type":"uint256"}],"name":"shipments","outputs":[{"internalType":"uint256","name":"productId","type":"uint256"},{"internalType":"address","name":"fromParty","type":"address"},{"internalType":"address","name":"toParty","type":"address"},{"internalType":"enum ProTrack.ShipmentStatus","name":"status","type":"uint8"},{"internalType":"string","name":"tempKeyId","type":"string"},{"internalType":"uint256","name":"requestedAt","type":"uint256"},{"internalType":"uint256","name":"approvedAt","type":"uint256"},{"internalType":"uint256","name":"shippedAt","type":"uint256"},{"internalType":"uint256","name":"deliveredAt","type":"uint256"},{"internalType":"uint256","name":"confirmedAt","type":"uint256"},{"internalType":"string","name":"trackingInfo","type":"string"}],"stateMutability":"view","type":"function"},{"inputs":[{"internalType":"bytes4","name":"interfaceId","type":"bytes4"}],"name":"supportsInterface","outputs":[{"internalType":"bool","name":"","type":"bool"}],"stateMutability":"view","type":"function"},{"inputs":[],"name":"symbol","outputs":[{"internalType":"string","name":"","type":"string"}],"stateMutability":"view","type":"function"},{"inputs":[{"internalType":"uint256","name":"tokenId","type":"uint256"}],"name":"tokenURI","outputs":[{"internalType":"string","name":"","type":"string"}],"stateMutability":"view","type":"function"},{"inputs":[{"internalType":"uint256","name":"tokenId","type":"uint256"},{"internalType":"address","name":"to","type":"address"},{"internalType":"string","name":"location","type":"string"}],"name":"transferCustody","outputs":[],"stateMutability":"nonpayable","type":"function"},{"inputs":[{"internalType":"address","name":"from","type":"address"},{"internalType":"address","name":"to","type":"address"},{"internalType":"uint256","name":"tokenId","type":"uint256"}],"name":"transferFrom","outputs":[],"stateMutability":"nonpayable","type":"function"},{"inputs":[{"internalType":"uint256","name":"tokenId","type":"uint256"},{"internalType":"string","name":"location","type":"string"}],"name":"updateLocation","outputs":[],"stateMutability":"nonpayable","type":"function"},{"inputs":[{"internalType":"uint256","name":"tokenId","type":"uint256"},{"internalType":"uint256","name":"proofIndex","type":"uint256"}],"name":"verifyZKProof","outputs":[],"stateMutability":"nonpayable","type":"function"}],"evm":{"bytecode":{"linkReferences":{},"object":"60803462000344576001600160401b0390604090808201838111828210176200032e578252601581526020927f50726f547261636b20537570706c7920436861696e0000000000000000000000848301528251838101818110838211176200032e57845260048152635054534360e01b858201528251908282116200032e5760008054926001958685811c9516801562000323575b898610146200030f578190601f95868111620002bc575b508990868311600114620002585784926200024c575b5050600019600383901b1c191690861b1781555b8151938411620002385784548581811c911680156200022d575b888210146200021957838111620001d1575b50869284116001146200016b578394959650926200015f575b5050600019600383901b1c191690821b1781555b806008556200013d3362000349565b506200014933620003ca565b508060125560135551615c2390816200046e8239f35b0151905038806200011a565b9190601f1984169685845280842093905b888210620001b957505083859697106200019f575b505050811b0181556200012e565b015160001960f88460031b161c1916905538808062000191565b8087859682949686015181550195019301906200017c565b8582528782208480870160051c8201928a88106200020f575b0160051c019086905b8281106200020357505062000101565b838155018690620001f3565b92508192620001ea565b634e487b7160e01b82526022600452602482fd5b90607f1690620000ef565b634e487b7160e01b81526041600452602490fd5b015190503880620000c1565b8480528a85208994509190601f198416865b8d828210620002a557505084116200028b575b505050811b018155620000d5565b015160001960f88460031b161c191690553880806200027d565b8385015186558c979095019493840193016200026a565b9091508380528984208680850160051c8201928c861062000305575b918a91869594930160051c01915b828110620002f6575050620000ab565b8681558594508a9101620002e6565b92508192620002d8565b634e487b7160e01b83526022600452602483fd5b94607f169462000094565b634e487b7160e01b600052604160045260246000fd5b600080fd5b6001600160a01b031660008181527f6d5257204ebe7d88fd91ae87941cb2dd9d8062b64ae5a2bd2d28ec40b9fbf6df602052604081205490919060ff16620003c65781805260076020526040822081835260205260408220600160ff198254161790553391600080516020620060918339815191528180a4600190565b5090565b6001600160a01b031660008181527fa70365933f78520ef41d6645ba61e509916296603327302d41466c063e8e260860205260408120549091907fa49807205ce4d355092ef5a8a18f56e8913cf4a201fbe287825b095693c217759060ff16620004685780835260076020526040832082845260205260408320600160ff1982541617905560008051602062006091833981519152339380a4600190565b50509056fe6080604052600436101561001257600080fd5b60003560e01c806301ab6e0914614a3457806301ffc9a71461499357806306fdde03146148f057806307e2cea5146148b557806308021d1e1461488d578063081812fc1461484f578063092b374014614674578063095ea7b31461458d5780630c8b0e57146144b65780631020f783146143aa578063115da32e146142be578063204d7923146142835780632115e7bf1461424857806323b872dd14614231578063248a9ca3146142025780632927d1d91461410b5780632ac08a93146140135780632f2ff15d14613fd45780632fe9f95814613f9557806336568abe14613f4e578063395905c614613e965780634037ee3f14613e4d57806342842e0e14613e255780634601bef814612e3657806348fd93d014612aa85780634a6323d6146123ef5780634bc39ec21461230a5780634eabbe77146122cf5780634ec0c9e9146120b157806361ce4ade14611f085780636352211e14611ed85780636b1023dd14611e7057806370a0823114611e1757806375b238fc14611dee57806378deb9fd14611a7e5780637acc0b201461188f578063910bc3a1146115bf57806391d148541461157257806395d89b4114611493578063965288b014611458578063966d964b146113ec5780639ce0f97314611259578063a217fddf1461123d578063a22cb46514611192578063a40b9ddf14611157578063b5788b491461110a578063b88d4fde146110ab578063b9db15b414610d94578063bedd113614610d38578063c87b56dd14610cd1578063ced2dea414610c2b578063d547741f14610bea578063d7cb8d3414610baf578063dc5dad8b146109cf578063e3a3c522146109a6578063e4aada0914610831578063e985e9c5146107db578063ee83687b146105df5763f04fe44e146102a557600080fd5b346105da576102b3366152f5565b3360009081527fac424760c614b43c69c667e7978906b93f2529d8f189750a0fe2c43d25b8120860209081526040909120549091907f6e94c7ed7681edd364a52ba21181e7713b286d5c7e6bbaca72cfe62d41ea09d99060ff16156105bc57506000838152600283526040902054610335906001600160a01b031615156158d8565b826000526009825260ff6008604060002001541660068110156105a65761054b5782600052600982526004604060002001908051916001600160401b03831161053557849261038482546151af565b601f81116104e0575b5084601f821160011461044157600080516020615bae833981519152959360409593837fe96ef10f180f263bdeac0d9641cf09dc9a2aa47fe9399f417c14a782338cbe109461042494600091610436575b508160011b916000199060031b1c19161790555b83600052600985528560002060088101600160ff19825416179055600b42910155855191829186835286830190615135565b0390a2815190600182523390820152a2005b9050830151386103de565b601f1982169083600052866000209160005b8181106104c657509360018461042494600080516020615bae8339815191529a98947fe96ef10f180f263bdeac0d9641cf09dc9a2aa47fe9399f417c14a782338cbe109760409b99106104ad575b5050811b0190556103f2565b85015160001960f88460031b161c1916905538806104a1565b828701518455899750600190930192918801918801610453565b90918093945060005284600020601f830160051c81019186841061052b575b90601f8896959493920160051c01905b81811061051c575061038d565b6000815587955060010161050f565b90915081906104ff565b634e487b7160e01b600052604160045260246000fd5b60405162461bcd60e51b815260048101839052602d60248201527f50726f64756374206d757374206265206d616e7566616374757265642062656660448201526c6f7265207061636b6167696e6760981b6064820152608490fd5b634e487b7160e01b600052602160045260246000fd5b6044906040519063e2517d3f60e01b82523360048301526024820152fd5b600080fd5b346105da576020806003193601126105da57600435600052600b815260406000209081549161060d83615a3d565b9261061b6040519485615081565b8084528284018092600052836000206000915b8383106107195750505050604051918083019381845251809452604083019360408160051b85010192916000955b8287106106695785850386f35b909192938280610709600193603f198a8203018652885180518252610694848201518584019061527f565b604081015160408301526106ce6106bb606080840151906101208091870152850190615135565b6080808401519085830390860152615135565b9160a0878060a01b0381840151169082015260c0808301519082015260e0820151151560e08201526101008092015191818403910152615135565b960192019601959291909261065c565b60098660019260409998995161072e81614ff9565b8554815260ff6107458187890154168584016159e4565b6002870154604083015260405161076a816107638160038c016151e9565b0382615081565b6060830152604051610783816107638160048c016151e9565b6080830152858060a01b0360058801541660a0830152600687015460c0830152600787015416151560e08201526040516107c4816107638160088b016151e9565b61010082015281520192019201919095949561062e565b346105da5760403660031901126105da576107f4614fab565b6107fc614f95565b9060018060a01b03809116600052600560205260406000209116600052602052602060ff604060002054166040519015158152f35b346105da576020806003193601126105da576004356000526010815260406000209081549161085f83615a3d565b9261086d6040519485615081565b8084528284018092600052836000206000915b83831061092c5750505050604051918083019381845251809452604083019360408160051b85010192916000955b8287106108bb5785850386f35b909192938280600192603f198982030185528751906108f56108e5835160a0808552840190615135565b8484015183820386850152615135565b916040810151151560408301526060868060a01b0381830151169083015260808091015191015296019201960195929190926108ae565b60048660019260409998995161094181615015565b60405161095281610763818a6151e9565b81526040516109678161076381898b016151e9565b83820152600286015460ff811615156040830152858060a01b039060081c16606082015260038601546080820152815201920192019190959495610880565b346105da5760003660031901126105da576020604051600080516020615b8e8339815191528152f35b346105da5760603660031901126105da576004356109eb614f95565b6001600160a01b036044358181169392908481036105da57610a0b61539c565b83600052602060028152610a27846040600020541615156158d8565b604051918183018681526001600160601b031993848660601b1660408201524260548201526529a2a72222a960d11b6074820152605a8152610a6881615066565b51902092604051908382019288845260601b166040820152426054820152672922a1a2a4ab22a960c11b6074820152605c8152610aa481615066565b51902090604051818101908782524260408201526620aaa224aa27a960c91b606082015260478152610ad581615066565b5190209062278d004201804211610b99576040519360c08501938585106001600160401b0386111761053557610b7096600595604052865283860191825260408601908152606086019142835260808701938452600f60a0880195600187528c6000525260406000209651875551600187015551600286015551600385015551600484015551151591019060ff801983541691151516179055565b16907fe5ae2c71a551297bc826cbfe2e8b4c507f92adcdcb6bbccf652456e59245fb9e600080a4005b634e487b7160e01b600052601160045260246000fd5b346105da5760003660031901126105da5760206040517fe34aaecbfe1f40867dcba8678fbed9f4ffa5782221fa3bb500b71b2a804303188152f35b346105da5760403660031901126105da57610c29600435610c09614f95565b90806000526007602052610c24600160406000200154615442565b6154e8565b005b346105da576020806003193601126105da57600435600052600e8152604060002060405190818382549182815201908192600052846000209060005b86828210610cbd578686610c7d82880383615081565b604051928392818401908285525180915260408401929160005b828110610ca657505050500390f35b835185528695509381019392810192600101610c97565b835485529093019260019283019201610c67565b346105da5760203660031901126105da57600435610cee8161588e565b506000526006602052610d34610763610d116040600020604051928380926151e9565b6000604051610d1f81615030565b52604051918291602083526020830190615135565b0390f35b346105da5760203660031901126105da576004356001600160401b0381116105da57610d816020610d6e819336906004016150f4565b8160405193828580945193849201615112565b8101600c81520301902054604051908152f35b346105da5760203660031901126105da5760043560006101c0604051610db981614fdd565b606081526060602082015260606040820152606080820152606060808201528260a08201528260c0820152606060e0820152826101008201528261012082015282610140820152606061016082015282610180820152826101a08201520152806000526002602052610e3960018060a01b036040600020541615156158d8565b6000526009602052604060002060405190610e5382614fdd565b604051610e648161076381856151e9565b8252604051610e7a8161076381600186016151e9565b6020830152604051610e938161076381600286016151e9565b6040830152604051610eac8161076381600386016151e9565b6060830152604051610ec58161076381600486016151e9565b6080830152600581015460a0830152600681015460c0830152604051610ef28161076381600786016151e9565b60e08301526008810154600660ff821610156105a65760ff81811661010085015260089190911c6001600160a01b039081166101208501526009830154166101408401526040519091600c91610f4f8161076381600a86016151e9565b610160850152600b810154610180850152015481811615156101a084015260081c1615156101c08201526040518091602082526101c0611084611032611007610ff1610fdb610fc5610faf88516101e060208c01526102008b0190615135565b60208901518a8203601f190160408c0152615135565b6040880151898203601f190160608b0152615135565b6060870151888203601f190160808a0152615135565b6080860151878203601f190160a0890152615135565b60a085015160c087015260c085015160e087015260e0850151601f1987830301610100880152615135565b611046610100850151610120870190615324565b6101208401516001600160a01b03908116610140878101919091528501511661016080870191909152840151858203601f1901610180870152615135565b916101808101516101a08501526101a0810151151582850152015115156101e08301520390f35b346105da5760803660031901126105da576110c4614fab565b6110cc614f95565b606435916001600160401b0383116105da57366023840112156105da57611100610c299336906024816004013591016150bd565b916044359161573a565b346105da5760403660031901126105da57611123614f95565b600435600052601160205260406000209060018060a01b0316600052602052602060ff604060002054166040519015158152f35b346105da5760003660031901126105da5760206040517f6e94c7ed7681edd364a52ba21181e7713b286d5c7e6bbaca72cfe62d41ea09d98152f35b346105da5760403660031901126105da576111ab614fab565b6111b3615331565b6001600160a01b03909116908115611224573360005260056020526040600020826000526020526111f48160406000209060ff801983541691151516179055565b60405190151581527f17307eab39ab6107e8899845ad3d59bd9653f200f220920489ca2b5937696c3160203392a3005b604051630b61174360e31b815260048101839052602490fd5b346105da5760003660031901126105da57602060405160008152f35b346105da57611267366152f5565b816000526020906002825260018060a01b0361128b816040600020541615156158d8565b600080516020615b8e83398151915260005260078352604060002033600052835260ff604060002054169081156113ba575b811561139a575b501561135757600080516020615bae83398151915291604091846000526009825282600020600c810161010061ff001982541617905560088101600560ff19825416179055600b42910155847fc836b58f1d2b092e3af919aae9a0607bb0c4fe552aa37d0d7ed26885488b7399845184815280611345339587830190615135565b0390a3815190600582523390820152a2005b6064826040519062461bcd60e51b825280600483015260248201527f4e6f7420617574686f72697a656420746f20726563616c6c2070726f647563746044820152fd5b90508360005260098352339060086040600020015460081c1614846112c4565b9050600080516020615bce83398151915260005260078352604060002033600052835260ff60406000205416906112bd565b346105da5760403660031901126105da57610c2960043561140b615331565b9061141461539c565b600081815260026020526040902054611437906001600160a01b031615156158d8565b6000526009602052600c6040600020019060ff801983541691151516179055565b346105da5760003660031901126105da5760206040517feefb95e842a3287179d933b4460be539a1d5af11aa8b325bb45c5c8dc92de4ed8152f35b346105da5760003660031901126105da57604051600060018054906114b7826151af565b8085529181811690811561154b57506001146114f2575b610d34846114de81860382615081565b604051918291602083526020830190615135565b600081815292507fb10e2d527612073b26eecdfd717e6a320cf44b4afac2b0732d9fcbe2b7fa0cf65b8284106115335750505081016020016114de826114ce565b8054602085870181019190915290930192810161151b565b60ff191660208087019190915292151560051b850190920192506114de91508390506114ce565b346105da5760403660031901126105da5761158b614f95565b600435600052600760205260406000209060018060a01b0316600052602052602060ff604060002054166040519015158152f35b346105da5760603660031901126105da576004356115db614f95565b6001600160401b036044358181116105da576115fb9036906004016150f4565b92806000526020916002835260018060a01b0390611621826040600020541615156158d8565b61162a8361588e565b823391160361184a578185169461164286151561591d565b836000526009855260ff600c604060002001541661182d578360005260098552604060002091600a6009840193845494896001600160601b0360a01b8716179055019088519081116105355761169882546151af565b601f81116117e7575b5086601f82116001146117555795611745938198999a9383611732947fd67aa7c45f61c95d774abbdd7384089523fabb58f544debbc64c53e937d977419a60009161174a575b508160011b916000199060031b1c19161790555b8160005260098a5242600b6040600020015560118a5260406000208b6000528a526040600020600160ff1982541617905533615969565b6040519384938885521696830190615135565b0390a4005b90508601518e6116e7565b601f1982169083600052886000209160005b8181106117d05750936001848a9b9c9d96946117459894611732977fd67aa7c45f61c95d774abbdd7384089523fabb58f544debbc64c53e937d977419d97106117b7575b5050811b0190556116fb565b88015160001960f88460031b161c191690558e806117ab565b91928a600181928f87015181550194019201611767565b8260005287600020601f830160051c810191898410611823575b601f0160051c01905b81811061181757506116a1565b6000815560010161180a565b9091508190611801565b60405162461bcd60e51b815280611846600482016159f0565b0390fd5b60405162461bcd60e51b815260048101859052601c60248201527f4e6f7420746865206f776e6572206f66207468652070726f64756374000000006044820152606490fd5b346105da5760203660031901126105da5760043560005260096020526040600020604051806118be81846151e9565b036118c99082615081565b60405191826118db81600184016151e9565b036118e69084615081565b604051806118f781600285016151e9565b036119029082615081565b6040518061191381600386016151e9565b0361191e9082615081565b6040518061192f81600487016151e9565b0361193a9082615081565b60058401546006850154604051909291816119588160078a016151e9565b036119639083615081565b600887015460098801546040519691956001600160a01b039091169490918761198f81600a8d016151e9565b0361199a9089615081565b600b8a015499600c0154986040519c8d9c8d6101e090818152016119bd91615135565b8d810360208f01526119ce91615135565b8c810360408e01526119df91615135565b8b810360608d01526119f091615135565b8a810360808c0152611a0191615135565b9160a08a015260c089015287810360e0890152611a1d91615135565b91611a2f610100880160ff8316615324565b60081c6001600160a01b0316610120870152610140860152848103610160860152611a5991615135565b9161018084015260ff811615156101a084015260081c60ff1615156101c08301520390f35b346105da5760603660031901126105da576004356024356001600160401b0381116105da57611ab19036906004016150f4565b906044356001600160401b0381116105da57611ad19036906004016150f4565b611ad96153e6565b600082815260026020526040902054611afc906001600160a01b031615156158d8565b60405192611b0984615015565b83526020830152600060408301526000606083015260006080830152600052601060205260406000208054600160401b81101561053557611b4f916001820181556152d9565b919091611dd85780519182516001600160401b03811161053557611b7382546151af565b601f8111611d90575b506020601f8211600114611d2a5781929394600092611d1f575b50508160011b916000199060031b1c19161781555b600181019160208101519283516001600160401b03811161053557611bd082546151af565b601f8111611cd7575b506020601f8211600114611c6a579080608094939260039697600092611c5f575b50508160011b9160001990871b1c19161790555b611c5860028501611c3160408401511515829060ff801983541691151516179055565b60608301518154610100600160a81b03191660089190911b610100600160a81b0316179055565b0151910155005b015190508780611bfa565b601f198216958360005260206000209660005b818110611cbf575096600192849260809796956003999a10611ca7575b505050811b019055611c0e565b015160001983891b60f8161c19169055878080611c9a565b83830151895560019098019760209384019301611c7d565b826000526020600020601f830160051c81019160208410611d15575b601f0160051c01905b818110611d095750611bd9565b60008155600101611cfc565b9091508190611cf3565b015190508480611b96565b601f198216908360005260206000209160005b818110611d7857509583600195969710611d5f575b505050811b018155611bab565b015160001960f88460031b161c19169055848080611d52565b9192602060018192868b015181550194019201611d3d565b826000526020600020601f830160051c81019160208410611dce575b601f0160051c01905b818110611dc25750611b7c565b60008155600101611db5565b9091508190611dac565b634e487b7160e01b600052600060045260246000fd5b346105da5760003660031901126105da576020604051600080516020615bce8339815191528152f35b346105da5760203660031901126105da576001600160a01b03611e38614fab565b168015611e575760005260036020526020604060002054604051908152f35b6040516322718ad960e21b815260006004820152602490fd5b346105da5760203660031901126105da57600435600052600f60205260c06040600020805490600181015490600281015460038201549060ff6005600485015494015416936040519586526020860152604085015260608401526080830152151560a0820152f35b346105da5760203660031901126105da576020611ef660043561588e565b6040516001600160a01b039091168152f35b346105da57611f1636615167565b3360009081527f4737975f69b9423f1935dbed18763129f1f2f9739723c3436b1571873c7b5c336020908152604090912054909190600080516020615b8e8339815191529060ff16156105bc57506000838152600283526040902054611f86906001600160a01b031615156158d8565b8260005260108252604060002054811015612076577fcc42190d2378b56ec1180f120b09114312be6e33d7754ac7d9ca5c1abffc18aa9161205561206d9285600052601083526002611fdc8260406000206152d9565b5001600160ff1982541617905585600052601083526120266120028260406000206152d9565b506002018054610100600160a81b0319163360081b610100600160a81b0316179055565b856000526010835261203c8160406000206152d9565b50600342910155856000526010835260406000206152d9565b509060016040519384936040855260408501906151e9565b918301520390a2005b60405162461bcd60e51b8152600481018390526013602482015272092dcecc2d8d2c840e0e4dedecc40d2dcc8caf606b1b6044820152606490fd5b346105da576120bf366152f5565b90806000526020906002825260018060a01b036120e4816040600020541615156158d8565b6120ed8261588e565b811633149081156122b2575b508015612282575b15612233578060005260098252600a60406000200183516001600160401b0381116105355761213082546151af565b601f81116121ed575b508394601f8211600114612186576009956000918361217b575b50508160011b916000199060031b1c19161790555b6000525242600b60406000200155600080f35b015190508680612153565b601f1982169583600052856000209160005b8881106121d6575090839291600194600999106121bd575b505050811b019055612168565b015160001960f88460031b161c191690558680806121b0565b919287600181928685015181550194019201612198565b8260005284600020601f830160051c810191868410612229575b601f0160051c01905b81811061221d5750612139565b60008155600101612210565b9091508190612207565b60405162461bcd60e51b815260048101839052602160248201527f4e6f7420617574686f72697a656420746f20757064617465206c6f636174696f6044820152603760f91b6064820152608490fd5b50600080516020615bce83398151915260005260078252604060002033600052825260ff60406000205416612101565b9050816000526009835233906009604060002001541614846120f9565b346105da5760003660031901126105da5760206040517fddaa901e2fe3bda354fe0ede2785152d5c109282a613fe024a056a3e66c41bb38152f35b346105da5760403660031901126105da57600435612326614f95565b90806000526020916011835260406000209060018060a01b038091169182600052845260ff604060002054169283156123d9575b505081156123a7575b8115612375575b506040519015158152f35b9050600080516020615b8e83398151915260005260078252604060002090600052815260ff604060002054168261236a565b9050600080516020615bce83398151915260005260078252604060002081600052825260ff6040600020541690612363565b8293506123e59061588e565b161490838061235a565b346105da5760c03660031901126105da57600860243510156105da576064356001600160401b0381116105da5761242a9036906004016150f4565b6084356001600160401b0381116105da576124499036906004016150f4565b60a4356001600160401b0381116105da576124689036906004016150f4565b906124716153e6565b600435600090815260026020526040902054612497906001600160a01b031615156158d8565b604051926124a484614ff9565b60043584526124b8602435602086016159e4565b6044356040850152606084015260808301523360a08301524260c0830152600160e0830152610100820152600435600052600b60205260406000208054600160401b811015610535576125109160018201815561517d565b919091611dd8578051825560018201602082015160088110156105a65760ff801983541691161790556040810151600283015560608101519182516001600160401b0381116105355761256660038301546151af565b601f8111612a61575b506020601f82116001146129f357819293946000926129e8575b50508160011b916000199060031b1c19161760038201555b60808201518051906001600160401b038211610535576125c460048401546151af565b601f81116129a1575b50602090601f831160011461292b5791806101009492600894600092612920575b50508160011b916000199060031b1c19161760048201555b6005810160018060a01b0360a0860151166001600160601b0360a01b82541617905560c0840151600682015561265160e08501511515600783019060ff801983541691151516179055565b019101519081516001600160401b0381116105355761267082546151af565b601f81116128d8575b50602092601f82116001146128745792819293600092612869575b50508160011b916000199060031b1c19161790555b6040516126b88160243561527f565b60443560208201524260408201527f4a4200d10f50281fb36abe1c43b2c85f53e92f4bffe4cc227695f9c949f60f81606060043592a26000806040516126fd81615030565b526024356127a95760131960443512801561279d575b612760575b61271e57005b600435600052600960205260ff600860406000200154166127426040518092615324565b306020820152600080516020615bae833981519152604060043592a2005b5060017f54656d7065726174757265206f7574206f662072616e6765000000000000000060206040516127928161504b565b601881520152612718565b50602860443513612713565b60243560010361280b5760006044351280156127ff575b6127ca575b612718565b5060017448756d6964697479206f7574206f662072616e676560581b60206040516127f48161504b565b601581520152612718565b50605f604435136127c0565b60026024350361271857600060443512801561285d575b156127c55750600175566962726174696f6e206f7574206f662072616e676560501b60206040516128528161504b565b601681520152612718565b50606460443513612822565b015190508380612694565b601f198216938360005260206000209160005b8681106128c057508360019596106128a7575b505050811b0190556126a9565b015160001960f88460031b161c1916905583808061289a565b91926020600181928685015181550194019201612887565b826000526020600020601f830160051c81019160208410612916575b601f0160051c01905b81811061290a5750612679565b600081556001016128fd565b90915081906128f4565b0151905086806125ee565b906004840160005260206000209160005b601f1985168110612989575092610100949260019260089583601f19811610612970575b505050811b016004820155612606565b015160001960f88460031b161c19169055868080612960565b9192602060018192868501518155019401920161293c565b600484016000526020600020601f840160051c8101602085106129e1575b601f830160051c820181106129d55750506125cd565b600081556001016129bf565b50806129bf565b015190508480612589565b6003830160005260206000209060005b601f1984168110612a495750600193949583601f19811610612a30575b505050811b0160038201556125a1565b015160001960f88460031b161c19169055848080612a20565b9091602060018192858a015181550193019101612a03565b600383016000526020600020601f830160051c810160208410612aa1575b601f830160051c82018110612a9557505061256f565b60008155600101612a7f565b5080612a7f565b346105da57612ab6366152f5565b90806000526020600a815260018060a01b0392836002604060002001541633148015612e06575b15612da55782600052600a825260ff60026040600020015460a01c1660058110156105a657600203612d605782600052600a8252604060002054908160005260098352600a60406000206009810180549788169733906001600160601b0360a01b1617905501948151956001600160401b03871161053557612b5f81546151af565b601f8111612d1a575b508496601f8111600114612c9657807fdd3eafcd99a3f4d8b6ce7d52cf71f07a3e59d9d6c0b066eaa314812456b6b8559798600091612c8b575b508160011b916000199060031b1c19161790555b82600052600984526040600020600881019060ff1991600383825416179055600b42910155601185526040600020336000528552600160406000209182541617905585600052600a8452604060002060028101600360a01b60ff60a01b19825416179055600742910155612c2b833383615969565b827fd67aa7c45f61c95d774abbdd7384089523fabb58f544debbc64c53e937d9774160405186815280612c62339689830190615135565b0390a4600080516020615bae83398151915260408051600381523385820152a2604051428152a2005b905084015189612ba2565b601f19811682600052866000209060005b818110612d035750907fdd3eafcd99a3f4d8b6ce7d52cf71f07a3e59d9d6c0b066eaa314812456b6b8559899836001949310612cea575b5050811b019055612bb6565b86015160001960f88460031b161c191690558980612cde565b868b01518355998801996001909201918801612ca7565b8160005285600020601f890160051c810191878a10612d56575b601f0160051c01905b818110612d4a5750612b68565b60008155600101612d3d565b9091508190612d34565b60405162461bcd60e51b815260048101839052601760248201527f536869706d656e74206e6f7420696e207472616e7369740000000000000000006044820152606490fd5b60405162461bcd60e51b815260048101839052603360248201527f4f6e6c792064657374696e6174696f6e207061727479206f722061646d696e2060448201527218d85b8818dbdb999a5c9b481c9958d95a5c1d606a1b6064820152608490fd5b50600080516020615bce83398151915260005260078252604060002033600052825260ff60406000205416612add565b346105da5760e03660031901126105da576004356001600160401b0381116105da57612e669036906004016150f4565b6024356001600160401b0381116105da57612e859036906004016150f4565b6044356001600160401b0381116105da57612ea49036906004016150f4565b6064356001600160401b0381116105da57612ec39036906004016150f4565b9160a4356001600160401b0381116105da57612ee39036906004016150f4565b9260c4356001600160a01b03811690036105da573360009081527f74bb1ca9260fc37125f5e18e451ff1e642aa55b4eec93cdfb89e91bff73aafdd602052604090205460ff1615613de757845115613da257815115613d5d57825115613d18576040516020818751612f588183858c01615112565b8101600c81520301902054613cc5576040516020818451612f7c8183858901615112565b8101600d81520301902054613c6f5760125493612f98856158c9565b60125560c4356001600160a01b031615613c56576001600160a01b03612fc08660c435615a8d565b16613c3d57846000526006602052604060002081516001600160401b03811161053557612fed82546151af565b601f8111613bf9575b50806020601f8211600114613b9257600091613b87575b508160011b916000199060031b1c19161790555b7ff8e1a15aba9398e019f0b49df1a4fde98ee17ae345cb5f6b5e2c27f5033e8ce76020604051878152a1604051916250545f60e81b60208401526130c36025848951613075818c6020602386019101615112565b8101605f60f81b90816023820152885190613097826024830160208d01615112565b019060248201528451906130b18285830160208901615112565b01819003600581019091520184615081565b604051926130d084614fdd565b878452846020850152604084015284606084015260808301524260a083015260843560c083015260e082015260006101008201523361012082015260018060a01b0360c435166101408201526040516131288161504b565b60168152754d616e75666163747572696e6720466163696c69747960501b60208201526101608201524261018082015260006101a082015260006101c0820152836000526009602052604060002081518051906001600160401b03821161053557819061319584546151af565b601f8111613b37575b50602090601f8311600114613acb57600092613ac0575b50508160011b916000199060031b1c19161781555b60208201518051906001600160401b0382116105355781906131ef60018501546151af565b601f8111613a6d575b50602090601f83116001146139fb576000926139f0575b50508160011b916000199060031b1c19161760018201555b60408201518051906001600160401b03821161053557819061324c60028501546151af565b601f811161399d575b50602090601f831160011461392b57600092613920575b50508160011b916000199060031b1c19161760028201555b60608201518051906001600160401b0382116105355781906132a960038501546151af565b601f81116138cd575b50602090601f831160011461385b57600092613850575b50508160011b916000199060031b1c19161760038201555b60808201518051906001600160401b03821161053557819061330660048501546151af565b601f81116137fd575b50602090601f831160011461378b57600092613780575b50508160011b916000199060031b1c19161760048201555b60a0820151600582015560c0820151600682015560e08201518051906001600160401b03821161053557819061337760078501546151af565b601f811161372d575b50602090601f83116001146136bb576000926136b0575b50508160011b916000199060031b1c19161760078201555b61010082015160068110156105a657600882810180546101208601516001600160a81b031990911660ff94909416939093179290911b610100600160a81b03169190911790556009810160018060a01b03610140840151166001600160601b0360a01b8254161790556101608201518051906001600160401b0382116105355761343c600a8401546151af565b601f8111613669575b509160209793918795938990601f83116001146135c557936101c0600c6135919585613582966135759a967f2e81e137755e5a5eb258f5b5e1258007a5e96e970880d7c8ee40e68f91db8a4d9c9a6000926135ba575b50508160011b916000199060031b1c191617600a8201555b610180840151600b82015501916134dd6101a08201511515849060ff801983541691151516179055565b0151151561ff0082549160081b169061ff001916179055866040518b8187516135098183858c01615112565b8101600c81520301902055866040518b8184516135298183858901615112565b8101600d815203019020558660005260118a52604060002060018060a01b0360c435166000528a526040600020600160ff19825416179055604051948594606086526060860190615135565b908482038b860152615135565b82810360408401523396615135565b0390a380600080516020615bae83398151915260408051600081523386820152a2604051908152f35b01519050388061349b565b90600a84016000528a6000209160005b601f198516811061364f5750600c613591956001866135759a967f2e81e137755e5a5eb258f5b5e1258007a5e96e970880d7c8ee40e68f91db8a4d9c9a966101c0966135829a601f19811610613636575b505050811b01600a8201556134b3565b015160001960f88460031b161c19169055388080613626565b8183015184558b9950600190930192918c01918c016135d5565b600a84016000526020600020601f840160051c8101602085106136a9575b601f830160051c8201811061369d575050613445565b60008155600101613687565b5080613687565b015190508880613397565b9250600784016000526020600020906000935b601f1984168510613712576001945083601f198116106136f9575b505050811b0160078201556133af565b015160001960f88460031b161c191690558880806136e9565b818101518355602094850194600190930192909101906136ce565b909150600784016000526020600020601f840160051c810160208510613779575b90849392915b601f830160051c8201811061376a575050613380565b60008155859450600101613754565b508061374e565b015190508880613326565b9250600484016000526020600020906000935b601f19841685106137e2576001945083601f198116106137c9575b505050811b01600482015561333e565b015160001960f88460031b161c191690558880806137b9565b8181015183556020948501946001909301929091019061379e565b909150600484016000526020600020601f840160051c810160208510613849575b90849392915b601f830160051c8201811061383a57505061330f565b60008155859450600101613824565b508061381e565b0151905088806132c9565b9250600384016000526020600020906000935b601f19841685106138b2576001945083601f19811610613899575b505050811b0160038201556132e1565b015160001960f88460031b161c19169055888080613889565b8181015183556020948501946001909301929091019061386e565b909150600384016000526020600020601f840160051c810160208510613919575b90849392915b601f830160051c8201811061390a5750506132b2565b600081558594506001016138f4565b50806138ee565b01519050888061326c565b9250600284016000526020600020906000935b601f1984168510613982576001945083601f19811610613969575b505050811b016002820155613284565b015160001960f88460031b161c19169055888080613959565b8181015183556020948501946001909301929091019061393e565b909150600284016000526020600020601f840160051c8101602085106139e9575b90849392915b601f830160051c820181106139da575050613255565b600081558594506001016139c4565b50806139be565b01519050888061320f565b9250600184016000526020600020906000935b601f1984168510613a52576001945083601f19811610613a39575b505050811b016001820155613227565b015160001960f88460031b161c19169055888080613a29565b81810151835560209485019460019093019290910190613a0e565b909150600184016000526020600020601f840160051c810160208510613ab9575b90849392915b601f830160051c82018110613aaa5750506131f8565b60008155859450600101613a94565b5080613a8e565b0151905088806131b5565b9250836000526020600020906000935b601f1984168510613b1c576001945083601f19811610613b03575b505050811b0181556131ca565b015160001960f88460031b161c19169055888080613af6565b81810151835560209485019460019093019290910190613adb565b909150836000526020600020601f840160051c810160208510613b80575b90849392915b601f830160051c82018110613b7157505061319e565b60008155859450600101613b5b565b5080613b55565b90508301518961300d565b91508260005260206000206000925b601f1983168410613be1576001935082601f19811610613bc8575b5050811b019055613021565b85015160001960f88460031b161c191690558980613bbc565b85810151825560209384019360019092019101613ba1565b826000526020600020601f830160051c810160208410613c36575b601f830160051c82018110613c2a575050612ff6565b60008155600101613c14565b5080613c14565b6040516339e3563760e11b815260006004820152602490fd5b604051633250574960e11b815260006004820152602490fd5b60405162461bcd60e51b815260206004820152602860248201527f50726f647563742077697468207468697320626172636f646520616c72656164604482015267792065786973747360c01b6064820152608490fd5b60405162461bcd60e51b815260206004820152602560248201527f50726f6475637420776974682074686973205246494420616c72656164792065604482015264786973747360d81b6064820152608490fd5b60405162461bcd60e51b815260206004820152601c60248201527f50726f64756374206e616d652063616e6e6f7420626520656d707479000000006044820152606490fd5b60405162461bcd60e51b815260206004820152601760248201527f426172636f64652063616e6e6f7420626520656d7074790000000000000000006044820152606490fd5b60405162461bcd60e51b815260206004820152601960248201527f5246494420686173682063616e6e6f7420626520656d707479000000000000006044820152606490fd5b60405163e2517d3f60e01b81523360048201527feefb95e842a3287179d933b4460be539a1d5af11aa8b325bb45c5c8dc92de4ed6024820152604490fd5b346105da57610c29613e363661528c565b9060405192613e4484615030565b6000845261573a565b346105da5760203660031901126105da576004356001600160401b0381116105da57613e836020610d6e819336906004016150f4565b8101600d81520301902054604051908152f35b346105da57613ea436615167565b906000526010602052604060002080548210156105da57613f1891613ec8916152d9565b5060405190613ee282613edb81846151e9565b0383615081565b604051613ef68161076381600186016151e9565b613f26600360028401549301549160405195869560a0875260a0870190615135565b908582036020870152615135565b60ff83161515604085015260089290921c6001600160a01b0316606084015260808301520390f35b346105da5760403660031901126105da57613f67614f95565b336001600160a01b03821603613f8357610c29906004356154e8565b60405163334bd91960e11b8152600490fd5b346105da57613fa336615167565b90600052600e602052604060002080548210156105da57602091613fc6916152c1565b90546040519160031b1c8152f35b346105da5760403660031901126105da57610c29600435613ff3614f95565b9080600052600760205261400e600160406000200154615442565b615468565b346105da5760203660031901126105da57600435600052600a60205260206040600020610d34815491600960018060a01b0391826001820154166002820154936040519461406f8661406881600388016151e9565b0387615081565b6140e16004850154966140d06005870154936006880154956007890154976140ad60088b01549a6140a6604051809e8193016151e9565b038c615081565b6040519e8f9e8f9081520152811660408d015260ff60608d019160a01c1661515a565b6101608060808c01528a0190615135565b9560a089015260c088015260e0870152610100860152610120850152838203610140850152615135565b346105da576020806003193601126105da5760043590614129615340565b81600052600a815260ff60026040600020015460a01c1660058110156105a6576001036141c6576040600080516020615bae8339815191529183600052600a815281600020549384600052600982528260002060088101600260ff19825416179055600b42910155600052600a81528160002060028101600160a11b60ff60a01b19825416179055600642910155815190600282523390820152a2005b6064906040519062461bcd60e51b82526004820152601560248201527414da1a5c1b595b9d081b9bdd08185c1c1c9bdd9959605a1b6044820152fd5b346105da5760203660031901126105da5760043560005260076020526020600160406000200154604051908152f35b346105da57610c296142423661528c565b9161555f565b346105da5760003660031901126105da5760206040517f2a5f906c256a5d799494fcd066e1f6c077689de1cdb65052a1624de4bace99bf8152f35b346105da5760003660031901126105da5760206040517f288a15c4a15d470e4cd9cad2f113b91206b520c26dbd3dd74627f0c057baa19c8152f35b346105da576020806003193601126105da57600435906142dc61539c565b81600052600a815260ff60026040600020015460a01c1660058110156105a6576143665760037ff9011029a94eb60997b710d356797ef53371ec55bfe6db12ab6899b3bb4703ec9183600052600a8152614361604060002060028101600160a01b60ff60a01b19825416179055426005820155604051938385948552840191016151e9565b0390a2005b6064906040519062461bcd60e51b82526004820152601f60248201527f536869706d656e74206e6f7420696e20726571756573746564207374617465006044820152fd5b346105da576143b836615167565b90600052600b60205260406000209081548110156105da576143d99161517d565b508054610d3460ff6001840154169260086002820154916040519261440c8461440581600386016151e9565b0385615081565b6144966040516144238161076381600488016151e9565b61448860018060a01b036005860154169660068601549461445d60ff60078901541697614456604051809b8193016151e9565b0389615081565b6144726040519c8d9c8d5260208d019061527f565b60408b01526101208060608c01528a0190615135565b9088820360808a0152615135565b9360a087015260c0860152151560e0850152838203610100850152615135565b346105da5760203660031901126105da576004356144d261539c565b80600052600a60205260ff60026040600020015460a01c1660058110156105a65760030361454f5780600052600a602052604060002060028101600160a21b60ff60a01b198254161790556008429101557fb0afeaee5d1e46a6cf0bd9dbf0e8b217ce5e084418ae08d982d3c53e6323091b6020604051428152a2005b60405162461bcd60e51b815260206004820152601660248201527514da1a5c1b595b9d081b9bdd0819195b1a5d995c995960521b6044820152606490fd5b346105da5760403660031901126105da576145a6614fab565b6024356145b28161588e565b33151580614661575b80614634575b61461c576001600160a01b039283169282918491167f8c5be1e5ebec7d5bd14f71427d1e84f3dd0314c0f7b2291e5b200ac8c7c3b925600080a4600090815260046020526040902080546001600160a01b0319169091179055005b60405163a9fbf51f60e01b8152336004820152602490fd5b5060018060a01b038116600052600560205260406000203360005260205260ff60406000205416156145c1565b506001600160a01b0381163314156145bb565b346105da5760203660031901126105da57606061014060405161469681614fc1565b600081526000602082015260006040820152600083820152826080820152600060a0820152600060c0820152600060e0820152600061010082015260006101208201520152600435600052600a60205260406000206040516146f781614fc1565b8154815260018201546001600160a01b0390811660208301526002830154908116604083015260a01c60ff169160058310156105a657614799600991610d349460608501526040516147508161076381600386016151e9565b6080850152600481015460a0850152600581015460c0850152600681015460e08501526007810154610100850152600881015461012085015261076360405180948193016151e9565b610140820152604051918291602083528051602084015260018060a01b03602082015116604084015260018060a01b0360408201511660608401526147e66060820151608085019061515a565b6080810151610140614806610160928360a0880152610180870190615135565b9260a081015160c087015260c081015160e087015260e081015161010087015261010081015161012087015261012081015182870152015190601f198584030190850152615135565b346105da5760203660031901126105da5760043561486c8161588e565b506000526004602052602060018060a01b0360406000205416604051908152f35b346105da5760203660031901126105da5760206148ab600435615a54565b6040519015158152f35b346105da5760003660031901126105da5760206040517f68e79a7bf1e0bc45d0a330c573bc367f9cf464fd326078812f301165fbda4ef18152f35b346105da5760003660031901126105da5760405160008054614911816151af565b8084529060019081811690811561154b575060011461493a57610d34846114de81860382615081565b600080805292507f290decd9548b62a8d60345a988386fc84ba6bc95484008f6362f93160ef3e5635b82841061497b5750505081016020016114de826114ce565b80546020858701810191909152909301928101614963565b346105da5760203660031901126105da5760043563ffffffff60e01b81168091036105da57602090637965db0b60e01b81149081156149d757506040519015158152f35b632483248360e11b8114915081156149f1575b508261236a565b6380ac58cd60e01b811491508115614a23575b8115614a12575b50826149ea565b6301ffc9a760e01b14905082614a0b565b635b5e139f60e01b81149150614a04565b346105da5760803660031901126105da57614a4d614f95565b6044356001600160401b0381116105da57614a6c9036906004016150f4565b6064356001600160401b0381116105da57614a8b9036906004016150f4565b90614a94615340565b600435600090815260026020526040902054614aba906001600160a01b031615156158d8565b600435600052600960205260ff6008604060002001541660068110156105a6576001148015614f6c575b15614f0c57614afd6001600160a01b038416151561591d565b60135491614b0a836158c9565b601355600435600052600960205260018060a01b03600960406000200154169060405191614b3783614fc1565b6004358352602083015260018060a01b038516604083015260006060830152608082019283524260a0830152600060c0830152600060e08301526000610100830152600061012083015261014082015282600052600a602052604060002091815183556001830160018060a01b036020840151166001600160601b0360a01b8254161790556002830160018060a01b03604084015116815490606085015160058110156105a6576001600160a81b03199092161760a09190911b60ff60a01b16179055518051906001600160401b03821161053557614c1960038501546151af565b601f8111614ec5575b50602090601f8311600114614e515761014093929160009183614e46575b50508160011b916000199060031b1c19161760038401555b60a0810151600484015560c0810151600584015560e081015160068401556101008101516007840155610120810151600884015501518051906001600160401b03821161053557614cac60098401546151af565b601f8111614dff575b50602090601f8311600114614d91576009929160009183614d86575b50508160011b916000199060031b1c1916179101555b600435600052600e602052604060002091825492600160401b8410156105355783614d199160016020960181556152c1565b815460001960039290921b91821b19169084901b17905560043560008181526009808652604091829020015490516001600160a01b03938416815292169183907fa9041659dcc0c60de34ca5114e2c9ecca4c93e9a21c9d4e21f29bb0bd3d8cab8908690a4604051908152f35b015190508680614cd1565b90601f198316916009850160005260206000209260005b818110614de757509160019391856009969410614dce575b505050811b01910155614ce7565b015160001960f88460031b161c19169055868080614dc0565b92936020600181928786015181550195019301614da8565b600984016000526020600020601f840160051c810160208510614e3f575b601f830160051c82018110614e33575050614cb5565b60008155600101614e1d565b5080614e1d565b015190508780614c40565b906003850160005260206000209160005b601f1985168110614ead57509183916001936101409695601f19811610614e94575b505050811b016003840155614c58565b015160001960f88460031b161c19169055878080614e84565b91926020600181928685015181550194019201614e62565b600385016000526020600020601f840160051c810160208510614f05575b601f830160051c82018110614ef9575050614c22565b60008155600101614ee3565b5080614ee3565b60405162461bcd60e51b815260206004820152603260248201527f50726f64756374206d757374206265207061636b61676564206f7220726563656044820152711a5d9959081d1bc81899481cda1a5c1c195960721b6064820152608490fd5b50600435600052600960205260ff6008604060002001541660068110156105a657600314614ae4565b602435906001600160a01b03821682036105da57565b600435906001600160a01b03821682036105da57565b61016081019081106001600160401b0382111761053557604052565b6101e081019081106001600160401b0382111761053557604052565b61012081019081106001600160401b0382111761053557604052565b60a081019081106001600160401b0382111761053557604052565b602081019081106001600160401b0382111761053557604052565b604081019081106001600160401b0382111761053557604052565b608081019081106001600160401b0382111761053557604052565b90601f801991011681019081106001600160401b0382111761053557604052565b6001600160401b03811161053557601f01601f191660200190565b9291926150c9826150a2565b916150d76040519384615081565b8294818452818301116105da578281602093846000960137010152565b9080601f830112156105da5781602061510f933591016150bd565b90565b60005b8381106151255750506000910152565b8181015183820152602001615115565b9060209161514e81518092818552858086019101615112565b601f01601f1916010190565b9060058210156105a65752565b60409060031901126105da576004359060243590565b8054821015615199576000526009602060002091020190600090565b634e487b7160e01b600052603260045260246000fd5b90600182811c921680156151df575b60208310146151c957565b634e487b7160e01b600052602260045260246000fd5b91607f16916151be565b90600092918054916151fa836151af565b91828252600193848116908160001461525c575060011461521c575b50505050565b90919394506000526020928360002092846000945b838610615248575050505001019038808080615216565b805485870183015294019385908201615231565b9294505050602093945060ff191683830152151560051b01019038808080615216565b9060088210156105a65752565b60609060031901126105da576001600160a01b039060043582811681036105da579160243590811681036105da579060443590565b80548210156151995760005260206000200190600090565b80548210156151995760005260206000209060021b0190600090565b9060406003198301126105da5760043591602435906001600160401b0382116105da5761510f916004016150f4565b9060068210156105a65752565b6024359081151582036105da57565b3360009081527f5a4a839a8a41e9c56bead82789209cd708f718a22ba06c2110a5bfb3dc4b80bc60205260409020547fddaa901e2fe3bda354fe0ede2785152d5c109282a613fe024a056a3e66c41bb39060ff16156105bc5750565b3360009081527fa70365933f78520ef41d6645ba61e509916296603327302d41466c063e8e26086020526040902054600080516020615bce8339815191529060ff16156105bc5750565b3360009081527fc5ab710f8c4cc7c1afac50210ff340ab9e3a5797b579fcbb6114569dd517ba0a60205260409020547f68e79a7bf1e0bc45d0a330c573bc367f9cf464fd326078812f301165fbda4ef19060ff16156105bc5750565b80600052600760205260406000203360005260205260ff60406000205416156105bc5750565b906000918083526007602052604083209160018060a01b03169182845260205260ff604084205416156000146154e35780835260076020526040832082845260205260408320600160ff198254161790557f2f8788117e7eff1d82e926ec794901d17c78024a50270940304540a733656f0d339380a4600190565b505090565b906000918083526007602052604083209160018060a01b03169182845260205260ff6040842054166000146154e3578083526007602052604083208284526020526040832060ff1981541690557ff6391f5c32d9c69d2a47ea670b442974b53935d1edc7fd64eb21e047a839171b339380a4600190565b906001600160a01b039081168015613c5657600091848352602091600283526040928284862054166009825260ff600c8688200154169081615730575b50615718579086918286526002815283858720541695869133151580615682575b509060027fddf252ad1be2c89b69c2b068fc378daa952ba7f163c4a11628f55a4df523b3ef928461564f575b85835260038152888320805460010190558683525286812080546001600160a01b0319168517905580a4831682036156215750505050565b516364283d7b60e01b81526001600160a01b0392831660048201526024810193909352166044820152606490fd5b600087815260046020526040902080546001600160a01b03191690558483526003815288832080546000190190556155e9565b919394509150806156d7575b1561569e578792918691386155bd565b8488876156bb576024915190637e27328960e01b82526004820152fd5b604491519063177e802f60e01b82523360048301526024820152fd5b5033861480156156fc575b8061568e575087825260048152338486842054161461568e565b5085825260058152848220338352815260ff85832054166156e2565b835162461bcd60e51b815280611846600482016159f0565b905015153861559c565b92909261574883858361555f565b833b6157545750505050565b604051630a85bd0160e11b8082523360048301526001600160a01b03928316602483015260448201949094526080606482015294931692602092909185906157a0906084830190615135565b039483816000978189895af186918161584a575b50615815575050503d60001461580c573d6157ce816150a2565b906157dc6040519283615081565b81528093823d92013e5b8251928361580757604051633250574960e11b815260048101849052602490fd5b019050fd5b606092506157e6565b919450915063ffffffff60e01b1603615832575038808080615216565b60249060405190633250574960e11b82526004820152fd5b9091508481813d8311615887575b6158628183615081565b8101031261588357516001600160e01b0319811681036158835790386157b4565b8680fd5b503d615858565b6000818152600260205260409020546001600160a01b03169081156158b1575090565b60249060405190637e27328960e01b82526004820152fd5b6000198114610b995760010190565b156158df57565b60405162461bcd60e51b8152602060048201526016602482015275141c9bd91d58dd08191bd95cc81b9bdd08195e1a5cdd60521b6044820152606490fd5b1561592457565b60405162461bcd60e51b815260206004820152601b60248201527f496e76616c69642064657374696e6174696f6e206164647265737300000000006044820152606490fd5b906001600160a01b039081811615613c56578361598591615a8d565b9080821690816159a857604051637e27328960e01b815260048101869052602490fd5b8316036159b457505050565b6040516364283d7b60e01b81526001600160a01b0392831660048201526024810193909352166044820152606490fd5b60088210156105a65752565b60809060208152602c60208201527f546f6b656e20697320736f756c626f756e6420616e642063616e6e6f7420626560408201526b081d1c985b9cd9995c9c995960a21b60608201520190565b6001600160401b0381116105355760051b60200190565b6000908152600260205260409020546001600160a01b031615615a8857600960205260ff600c6040600020015460081c1690565b600090565b906000918183526020906002825260018060a01b039360408581832054166009855260ff600c8385200154169081615b83575b50615b6c57907fddf252ad1be2c89b69c2b068fc378daa952ba7f163c4a11628f55a4df523b3ef9185825260028552600287828420541697889586615b39575b169586615b23575b87845252812080546001600160a01b0319168517905580a490565b8684526003815282842060018154019055615b08565b600089815260046020526040902080546001600160a01b0319169055868552600388528385208054600019019055615b00565b5162461bcd60e51b815280611846600482016159f0565b9050151538615ac056fe273dcf2136c7d8ef632bb8ef13dbca69a8f36fa620c7468671b3153d46a211c01fee65bf2ede0d34fc746effd1d457315a439158afe48d47a09cd92b007fc242a49807205ce4d355092ef5a8a18f56e8913cf4a201fbe287825b095693c21775a26469706673582212206ab6c6297329627b5ed3e36007730ee5a6cc55c57143cc1148de55e1822fa67464736f6c634300081400332f8788117e7eff1d82e926ec794901d17c78024a50270940304540a733656f0d","opcodes":"PUSH1 0x80 CALLVALUE PUSH3 0x344 JUMPI PUSH1 0x1 PUSH1 0x1 PUSH1 0x40 SHL SUB SWAP1 PUSH1 0x40 SWAP1 DUP1 DUP3 ADD DUP4 DUP2 GT DUP3 DUP3 LT OR PUSH3 0x32E JUMPI DUP3 MSTORE PUSH1 0x15 DUP2 MSTORE PUSH1 0x20 SWAP3 PUSH32 0x50726F547261636B20537570706C7920436861696E0000000000000000000000 DUP5 DUP4 ADD MSTORE DUP3 MLOAD DUP4 DUP2 ADD DUP2 DUP2 LT DUP4 DUP3 GT OR PUSH3 0x32E JUMPI DUP5 MSTORE PUSH1 0x4 DUP2 MSTORE PUSH4 0x50545343 PUSH1 0xE0 SHL DUP6 DUP3 ADD MSTORE DUP3 MLOAD SWAP1 DUP3 DUP3 GT PUSH3 0x32E JUMPI PUSH1 0x0 DUP1 SLOAD SWAP3 PUSH1 0x1 SWAP6 DUP7 DUP6 DUP2 SHR SWAP6 AND DUP1 ISZERO PUSH3 0x323 JUMPI JUMPDEST DUP10 DUP7 LT EQ PUSH3 0x30F JUMPI DUP2 SWAP1 PUSH1 0x1F SWAP6 DUP7 DUP2 GT PUSH3 0x2BC JUMPI JUMPDEST POP DUP10 SWAP1 DUP7 DUP4 GT PUSH1 0x1 EQ PUSH3 0x258 JUMPI DUP5 SWAP3 PUSH3 0x24C JUMPI JUMPDEST POP POP PUSH1 0x0 NOT PUSH1 0x3 DUP4 SWAP1 SHL SHR NOT AND SWAP1 DUP7 SHL OR DUP2 SSTORE JUMPDEST DUP2 MLOAD SWAP4 DUP5 GT PUSH3 0x238 JUMPI DUP5 SLOAD DUP6 DUP2 DUP2 SHR SWAP2 AND DUP1 ISZERO PUSH3 0x22D JUMPI JUMPDEST DUP9 DUP3 LT EQ PUSH3 0x219 JUMPI DUP4 DUP2 GT PUSH3 0x1D1 JUMPI JUMPDEST POP DUP7 SWAP3 DUP5 GT PUSH1 0x1 EQ PUSH3 0x16B JUMPI DUP4 SWAP5 SWAP6 SWAP7 POP SWAP3 PUSH3 0x15F JUMPI JUMPDEST POP POP PUSH1 0x0 NOT PUSH1 0x3 DUP4 SWAP1 SHL SHR NOT AND SWAP1 DUP3 SHL OR DUP2 SSTORE JUMPDEST DUP1 PUSH1 0x8 SSTORE PUSH3 0x13D CALLER PUSH3 0x349 JUMP JUMPDEST POP PUSH3 0x149 CALLER PUSH3 0x3CA JUMP JUMPDEST POP DUP1 PUSH1 0x12 SSTORE PUSH1 0x13 SSTORE MLOAD PUSH2 0x5C23 SWAP1 DUP2 PUSH3 0x46E DUP3 CODECOPY RETURN JUMPDEST ADD MLOAD SWAP1 POP CODESIZE DUP1 PUSH3 0x11A JUMP JUMPDEST SWAP2 SWAP1 PUSH1 0x1F NOT DUP5 AND SWAP7 DUP6 DUP5 MSTORE DUP1 DUP5 KECCAK256 SWAP4 SWAP1 JUMPDEST DUP9 DUP3 LT PUSH3 0x1B9 JUMPI POP POP DUP4 DUP6 SWAP7 SWAP8 LT PUSH3 0x19F JUMPI JUMPDEST POP POP POP DUP2 SHL ADD DUP2 SSTORE PUSH3 0x12E JUMP JUMPDEST ADD MLOAD PUSH1 0x0 NOT PUSH1 0xF8 DUP5 PUSH1 0x3 SHL AND SHR NOT AND SWAP1 SSTORE CODESIZE DUP1 DUP1 PUSH3 0x191 JUMP JUMPDEST DUP1 DUP8 DUP6 SWAP7 DUP3 SWAP5 SWAP7 DUP7 ADD MLOAD DUP2 SSTORE ADD SWAP6 ADD SWAP4 ADD SWAP1 PUSH3 0x17C JUMP JUMPDEST DUP6 DUP3 MSTORE DUP8 DUP3 KECCAK256 DUP5 DUP1 DUP8 ADD PUSH1 0x5 SHR DUP3 ADD SWAP3 DUP11 DUP9 LT PUSH3 0x20F JUMPI JUMPDEST ADD PUSH1 0x5 SHR ADD SWAP1 DUP7 SWAP1 JUMPDEST DUP3 DUP2 LT PUSH3 0x203 JUMPI POP POP PUSH3 0x101 JUMP JUMPDEST DUP4 DUP2 SSTORE ADD DUP7 SWAP1 PUSH3 0x1F3 JUMP JUMPDEST SWAP3 POP DUP2 SWAP3 PUSH3 0x1EA JUMP JUMPDEST PUSH4 0x4E487B71 PUSH1 0xE0 SHL DUP3 MSTORE PUSH1 0x22 PUSH1 0x4 MSTORE PUSH1 0x24 DUP3 REVERT JUMPDEST SWAP1 PUSH1 0x7F AND SWAP1 PUSH3 0xEF JUMP JUMPDEST PUSH4 0x4E487B71 PUSH1 0xE0 SHL DUP2 MSTORE PUSH1 0x41 PUSH1 0x4 MSTORE PUSH1 0x24 SWAP1 REVERT JUMPDEST ADD MLOAD SWAP1 POP CODESIZE DUP1 PUSH3 0xC1 JUMP JUMPDEST DUP5 DUP1 MSTORE DUP11 DUP6 KECCAK256 DUP10 SWAP5 POP SWAP2 SWAP1 PUSH1 0x1F NOT DUP5 AND DUP7 JUMPDEST DUP14 DUP3 DUP3 LT PUSH3 0x2A5 JUMPI POP POP DUP5 GT PUSH3 0x28B JUMPI JUMPDEST POP POP POP DUP2 SHL ADD DUP2 SSTORE PUSH3 0xD5 JUMP JUMPDEST ADD MLOAD PUSH1 0x0 NOT PUSH1 0xF8 DUP5 PUSH1 0x3 SHL AND SHR NOT AND SWAP1 SSTORE CODESIZE DUP1 DUP1 PUSH3 0x27D JUMP JUMPDEST DUP4 DUP6 ADD MLOAD DUP7 SSTORE DUP13 SWAP8 SWAP1 SWAP6 ADD SWAP5 SWAP4 DUP5 ADD SWAP4 ADD PUSH3 0x26A JUMP JUMPDEST SWAP1 SWAP2 POP DUP4 DUP1 MSTORE DUP10 DUP5 KECCAK256 DUP7 DUP1 DUP6 ADD PUSH1 0x5 SHR DUP3 ADD SWAP3 DUP13 DUP7 LT PUSH3 0x305 JUMPI JUMPDEST SWAP2 DUP11 SWAP2 DUP7 SWAP6 SWAP5 SWAP4 ADD PUSH1 0x5 SHR ADD SWAP2 JUMPDEST DUP3 DUP2 LT PUSH3 0x2F6 JUMPI POP POP PUSH3 0xAB JUMP JUMPDEST DUP7 DUP2 SSTORE DUP6 SWAP5 POP DUP11 SWAP2 ADD PUSH3 0x2E6 JUMP JUMPDEST SWAP3 POP DUP2 SWAP3 PUSH3 0x2D8 JUMP JUMPDEST PUSH4 0x4E487B71 PUSH1 0xE0 SHL DUP4 MSTORE PUSH1 0x22 PUSH1 0x4 MSTORE PUSH1 0x24 DUP4 REVERT JUMPDEST SWAP5 PUSH1 0x7F AND SWAP5 PUSH3 0x94 JUMP JUMPDEST PUSH4 0x4E487B71 PUSH1 0xE0 SHL PUSH1 0x0 MSTORE PUSH1 0x41 PUSH1 0x4 MSTORE PUSH1 0x24 PUSH1 0x0 REVERT JUMPDEST PUSH1 0x0 DUP1 REVERT JUMPDEST PUSH1 0x1 PUSH1 0x1 PUSH1 0xA0 SHL SUB AND PUSH1 0x0 DUP2 DUP2 MSTORE PUSH32 0x6D5257204EBE7D88FD91AE87941CB2DD9D8062B64AE5A2BD2D28EC40B9FBF6DF PUSH1 0x20 MSTORE PUSH1 0x40 DUP2 KECCAK256 SLOAD SWAP1 SWAP2 SWAP1 PUSH1 0xFF AND PUSH3 0x3C6 JUMPI DUP2 DUP1 MSTORE PUSH1 0x7 PUSH1 0x20 MSTORE PUSH1 0x40 DUP3 KECCAK256 DUP2 DUP4 MSTORE PUSH1 0x20 MSTORE PUSH1 0x40 DUP3 KECCAK256 PUSH1 0x1 PUSH1 0xFF NOT DUP3 SLOAD AND OR SWAP1 SSTORE CALLER SWAP2 PUSH1 0x0 DUP1 MLOAD PUSH1 0x20 PUSH3 0x6091 DUP4 CODECOPY DUP2 MLOAD SWAP2 MSTORE DUP2 DUP1 LOG4 PUSH1 0x1 SWAP1 JUMP JUMPDEST POP SWAP1 JUMP JUMPDEST PUSH1 0x1 PUSH1 0x1 PUSH1 0xA0 SHL SUB AND PUSH1 0x0 DUP2 DUP2 MSTORE PUSH32 0xA70365933F78520EF41D6645BA61E509916296603327302D41466C063E8E2608 PUSH1 0x20 MSTORE PUSH1 0x40 DUP2 KECCAK256 SLOAD SWAP1 SWAP2 SWAP1 PUSH32 0xA49807205CE4D355092EF5A8A18F56E8913CF4A201FBE287825B095693C21775 SWAP1 PUSH1 0xFF AND PUSH3 0x468 JUMPI DUP1 DUP4 MSTORE PUSH1 0x7 PUSH1 0x20 MSTORE PUSH1 0x40 DUP4 KECCAK256 DUP3 DUP5 MSTORE PUSH1 0x20 MSTORE PUSH1 0x40 DUP4 KECCAK256 PUSH1 0x1 PUSH1 0xFF NOT DUP3 SLOAD AND OR SWAP1 SSTORE PUSH1 0x0 DUP1 MLOAD PUSH1 0x20 PUSH3 0x6091 DUP4 CODECOPY DUP2 MLOAD SWAP2 MSTORE CALLER SWAP4 DUP1 LOG4 PUSH1 0x1 SWAP1 JUMP JUMPDEST POP POP SWAP1 JUMP INVALID PUSH1 0x80 PUSH1 0x40 MSTORE PUSH1 0x4 CALLDATASIZE LT ISZERO PUSH2 0x12 JUMPI PUSH1 0x0 DUP1 REVERT JUMPDEST PUSH1 0x0 CALLDATALOAD PUSH1 0xE0 SHR DUP1 PUSH4 0x1AB6E09 EQ PUSH2 0x4A34 JUMPI DUP1 PUSH4 0x1FFC9A7 EQ PUSH2 0x4993 JUMPI DUP1 PUSH4 0x6FDDE03 EQ PUSH2 0x48F0 JUMPI DUP1 PUSH4 0x7E2CEA5 EQ PUSH2 0x48B5 JUMPI DUP1 PUSH4 0x8021D1E EQ PUSH2 0x488D JUMPI DUP1 PUSH4 0x81812FC EQ PUSH2 0x484F JUMPI DUP1 PUSH4 0x92B3740 EQ PUSH2 0x4674 JUMPI DUP1 PUSH4 0x95EA7B3 EQ PUSH2 0x458D JUMPI DUP1 PUSH4 0xC8B0E57 EQ PUSH2 0x44B6 JUMPI DUP1 PUSH4 0x1020F783 EQ PUSH2 0x43AA JUMPI DUP1 PUSH4 0x115DA32E EQ PUSH2 0x42BE JUMPI DUP1 PUSH4 0x204D7923 EQ PUSH2 0x4283 JUMPI DUP1 PUSH4 0x2115E7BF EQ PUSH2 0x4248 JUMPI DUP1 PUSH4 0x23B872DD EQ PUSH2 0x4231 JUMPI DUP1 PUSH4 0x248A9CA3 EQ PUSH2 0x4202 JUMPI DUP1 PUSH4 0x2927D1D9 EQ PUSH2 0x410B JUMPI DUP1 PUSH4 0x2AC08A93 EQ PUSH2 0x4013 JUMPI DUP1 PUSH4 0x2F2FF15D EQ PUSH2 0x3FD4 JUMPI DUP1 PUSH4 0x2FE9F958 EQ PUSH2 0x3F95 JUMPI DUP1 PUSH4 0x36568ABE EQ PUSH2 0x3F4E JUMPI DUP1 PUSH4 0x395905C6 EQ PUSH2 0x3E96 JUMPI DUP1 PUSH4 0x4037EE3F EQ PUSH2 0x3E4D JUMPI DUP1 PUSH4 0x42842E0E EQ PUSH2 0x3E25 JUMPI DUP1 PUSH4 0x4601BEF8 EQ PUSH2 0x2E36 JUMPI DUP1 PUSH4 0x48FD93D0 EQ PUSH2 0x2AA8 JUMPI DUP1 PUSH4 0x4A6323D6 EQ PUSH2 0x23EF JUMPI DUP1 PUSH4 0x4BC39EC2 EQ PUSH2 0x230A JUMPI DUP1 PUSH4 0x4EABBE77 EQ PUSH2 0x22CF JUMPI DUP1 PUSH4 0x4EC0C9E9 EQ PUSH2 0x20B1 JUMPI DUP1 PUSH4 0x61CE4ADE EQ PUSH2 0x1F08 JUMPI DUP1 PUSH4 0x6352211E EQ PUSH2 0x1ED8 JUMPI DUP1 PUSH4 0x6B1023DD EQ PUSH2 0x1E70 JUMPI DUP1 PUSH4 0x70A08231 EQ PUSH2 0x1E17 JUMPI DUP1 PUSH4 0x75B238FC EQ PUSH2 0x1DEE JUMPI DUP1 PUSH4 0x78DEB9FD EQ PUSH2 0x1A7E JUMPI DUP1 PUSH4 0x7ACC0B20 EQ PUSH2 0x188F JUMPI DUP1 PUSH4 0x910BC3A1 EQ PUSH2 0x15BF JUMPI DUP1 PUSH4 0x91D14854 EQ PUSH2 0x1572 JUMPI DUP1 PUSH4 0x95D89B41 EQ PUSH2 0x1493 JUMPI DUP1 PUSH4 0x965288B0 EQ PUSH2 0x1458 JUMPI DUP1 PUSH4 0x966D964B EQ PUSH2 0x13EC JUMPI DUP1 PUSH4 0x9CE0F973 EQ PUSH2 0x1259 JUMPI DUP1 PUSH4 0xA217FDDF EQ PUSH2 0x123D JUMPI DUP1 PUSH4 0xA22CB465 EQ PUSH2 0x1192 JUMPI DUP1 PUSH4 0xA40B9DDF EQ PUSH2 0x1157 JUMPI DUP1 PUSH4 0xB5788B49 EQ PUSH2 0x110A JUMPI DUP1 PUSH4 0xB88D4FDE EQ PUSH2 0x10AB JUMPI DUP1 PUSH4 0xB9DB15B4 EQ PUSH2 0xD94 JUMPI DUP1 PUSH4 0xBEDD1136 EQ PUSH2 0xD38 JUMPI DUP1 PUSH4 0xC87B56DD EQ PUSH2 0xCD1 JUMPI DUP1 PUSH4 0xCED2DEA4 EQ PUSH2 0xC2B JUMPI DUP1 PUSH4 0xD547741F EQ PUSH2 0xBEA JUMPI DUP1 PUSH4 0xD7CB8D34 EQ PUSH2 0xBAF JUMPI DUP1 PUSH4 0xDC5DAD8B EQ PUSH2 0x9CF JUMPI DUP1 PUSH4 0xE3A3C522 EQ PUSH2 0x9A6 JUMPI DUP1 PUSH4 0xE4AADA09 EQ PUSH2 0x831 JUMPI DUP1 PUSH4 0xE985E9C5 EQ PUSH2 0x7DB JUMPI DUP1 PUSH4 0xEE83687B EQ PUSH2 0x5DF JUMPI PUSH4 0xF04FE44E EQ PUSH2 0x2A5 JUMPI PUSH1 0x0 DUP1 REVERT JUMPDEST CALLVALUE PUSH2 0x5DA JUMPI PUSH2 0x2B3 CALLDATASIZE PUSH2 0x52F5 JUMP JUMPDEST CALLER PUSH1 0x0 SWAP1 DUP2 MSTORE PUSH32 0xAC424760C614B43C69C667E7978906B93F2529D8F189750A0FE2C43D25B81208 PUSH1 0x20 SWAP1 DUP2 MSTORE PUSH1 0x40 SWAP1 SWAP2 KECCAK256 SLOAD SWAP1 SWAP2 SWAP1 PUSH32 0x6E94C7ED7681EDD364A52BA21181E7713B286D5C7E6BBACA72CFE62D41EA09D9 SWAP1 PUSH1 0xFF AND ISZERO PUSH2 0x5BC JUMPI POP PUSH1 0x0 DUP4 DUP2 MSTORE PUSH1 0x2 DUP4 MSTORE PUSH1 0x40 SWAP1 KECCAK256 SLOAD PUSH2 0x335 SWAP1 PUSH1 0x1 PUSH1 0x1 PUSH1 0xA0 SHL SUB AND ISZERO ISZERO PUSH2 0x58D8 JUMP JUMPDEST DUP3 PUSH1 0x0 MSTORE PUSH1 0x9 DUP3 MSTORE PUSH1 0xFF PUSH1 0x8 PUSH1 0x40 PUSH1 0x0 KECCAK256 ADD SLOAD AND PUSH1 0x6 DUP2 LT ISZERO PUSH2 0x5A6 JUMPI PUSH2 0x54B JUMPI DUP3 PUSH1 0x0 MSTORE PUSH1 0x9 DUP3 MSTORE PUSH1 0x4 PUSH1 0x40 PUSH1 0x0 KECCAK256 ADD SWAP1 DUP1 MLOAD SWAP2 PUSH1 0x1 PUSH1 0x1 PUSH1 0x40 SHL SUB DUP4 GT PUSH2 0x535 JUMPI DUP5 SWAP3 PUSH2 0x384 DUP3 SLOAD PUSH2 0x51AF JUMP JUMPDEST PUSH1 0x1F DUP2 GT PUSH2 0x4E0 JUMPI JUMPDEST POP DUP5 PUSH1 0x1F DUP3 GT PUSH1 0x1 EQ PUSH2 0x441 JUMPI PUSH1 0x0 DUP1 MLOAD PUSH1 0x20 PUSH2 0x5BAE DUP4 CODECOPY DUP2 MLOAD SWAP2 MSTORE SWAP6 SWAP4 PUSH1 0x40 SWAP6 SWAP4 DUP4 PUSH32 0xE96EF10F180F263BDEAC0D9641CF09DC9A2AA47FE9399F417C14A782338CBE10 SWAP5 PUSH2 0x424 SWAP5 PUSH1 0x0 SWAP2 PUSH2 0x436 JUMPI JUMPDEST POP DUP2 PUSH1 0x1 SHL SWAP2 PUSH1 0x0 NOT SWAP1 PUSH1 0x3 SHL SHR NOT AND OR SWAP1 SSTORE JUMPDEST DUP4 PUSH1 0x0 MSTORE PUSH1 0x9 DUP6 MSTORE DUP6 PUSH1 0x0 KECCAK256 PUSH1 0x8 DUP2 ADD PUSH1 0x1 PUSH1 0xFF NOT DUP3 SLOAD AND OR SWAP1 SSTORE PUSH1 0xB TIMESTAMP SWAP2 ADD SSTORE DUP6 MLOAD SWAP2 DUP3 SWAP2 DUP7 DUP4 MSTORE DUP7 DUP4 ADD SWAP1 PUSH2 0x5135 JUMP JUMPDEST SUB SWAP1 LOG2 DUP2 MLOAD SWAP1 PUSH1 0x1 DUP3 MSTORE CALLER SWAP1 DUP3 ADD MSTORE LOG2 STOP JUMPDEST SWAP1 POP DUP4 ADD MLOAD CODESIZE PUSH2 0x3DE JUMP JUMPDEST PUSH1 0x1F NOT DUP3 AND SWAP1 DUP4 PUSH1 0x0 MSTORE DUP7 PUSH1 0x0 KECCAK256 SWAP2 PUSH1 0x0 JUMPDEST DUP2 DUP2 LT PUSH2 0x4C6 JUMPI POP SWAP4 PUSH1 0x1 DUP5 PUSH2 0x424 SWAP5 PUSH1 0x0 DUP1 MLOAD PUSH1 0x20 PUSH2 0x5BAE DUP4 CODECOPY DUP2 MLOAD SWAP2 MSTORE SWAP11 SWAP9 SWAP5 PUSH32 0xE96EF10F180F263BDEAC0D9641CF09DC9A2AA47FE9399F417C14A782338CBE10 SWAP8 PUSH1 0x40 SWAP12 SWAP10 LT PUSH2 0x4AD JUMPI JUMPDEST POP POP DUP2 SHL ADD SWAP1 SSTORE PUSH2 0x3F2 JUMP JUMPDEST DUP6 ADD MLOAD PUSH1 0x0 NOT PUSH1 0xF8 DUP5 PUSH1 0x3 SHL AND SHR NOT AND SWAP1 SSTORE CODESIZE DUP1 PUSH2 0x4A1 JUMP JUMPDEST DUP3 DUP8 ADD MLOAD DUP5 SSTORE DUP10 SWAP8 POP PUSH1 0x1 SWAP1 SWAP4 ADD SWAP3 SWAP2 DUP9 ADD SWAP2 DUP9 ADD PUSH2 0x453 JUMP JUMPDEST SWAP1 SWAP2 DUP1 SWAP4 SWAP5 POP PUSH1 0x0 MSTORE DUP5 PUSH1 0x0 KECCAK256 PUSH1 0x1F DUP4 ADD PUSH1 0x5 SHR DUP2 ADD SWAP2 DUP7 DUP5 LT PUSH2 0x52B JUMPI JUMPDEST SWAP1 PUSH1 0x1F DUP9 SWAP7 SWAP6 SWAP5 SWAP4 SWAP3 ADD PUSH1 0x5 SHR ADD SWAP1 JUMPDEST DUP2 DUP2 LT PUSH2 0x51C JUMPI POP PUSH2 0x38D JUMP JUMPDEST PUSH1 0x0 DUP2 SSTORE DUP8 SWAP6 POP PUSH1 0x1 ADD PUSH2 0x50F JUMP JUMPDEST SWAP1 SWAP2 POP DUP2 SWAP1 PUSH2 0x4FF JUMP JUMPDEST PUSH4 0x4E487B71 PUSH1 0xE0 SHL PUSH1 0x0 MSTORE PUSH1 0x41 PUSH1 0x4 MSTORE PUSH1 0x24 PUSH1 0x0 REVERT JUMPDEST PUSH1 0x40 MLOAD PUSH3 0x461BCD PUSH1 0xE5 SHL DUP2 MSTORE PUSH1 0x4 DUP2 ADD DUP4 SWAP1 MSTORE PUSH1 0x2D PUSH1 0x24 DUP3 ADD MSTORE PUSH32 0x50726F64756374206D757374206265206D616E75666163747572656420626566 PUSH1 0x44 DUP3 ADD MSTORE PUSH13 0x6F7265207061636B6167696E67 PUSH1 0x98 SHL PUSH1 0x64 DUP3 ADD MSTORE PUSH1 0x84 SWAP1 REVERT JUMPDEST PUSH4 0x4E487B71 PUSH1 0xE0 SHL PUSH1 0x0 MSTORE PUSH1 0x21 PUSH1 0x4 MSTORE PUSH1 0x24 PUSH1 0x0 REVERT JUMPDEST PUSH1 0x44 SWAP1 PUSH1 0x40 MLOAD SWAP1 PUSH4 0xE2517D3F PUSH1 0xE0 SHL DUP3 MSTORE CALLER PUSH1 0x4 DUP4 ADD MSTORE PUSH1 0x24 DUP3 ADD MSTORE REVERT JUMPDEST PUSH1 0x0 DUP1 REVERT JUMPDEST CALLVALUE PUSH2 0x5DA JUMPI PUSH1 0x20 DUP1 PUSH1 0x3 NOT CALLDATASIZE ADD SLT PUSH2 0x5DA JUMPI PUSH1 0x4 CALLDATALOAD PUSH1 0x0 MSTORE PUSH1 0xB DUP2 MSTORE PUSH1 0x40 PUSH1 0x0 KECCAK256 SWAP1 DUP2 SLOAD SWAP2 PUSH2 0x60D DUP4 PUSH2 0x5A3D JUMP JUMPDEST SWAP3 PUSH2 0x61B PUSH1 0x40 MLOAD SWAP5 DUP6 PUSH2 0x5081 JUMP JUMPDEST DUP1 DUP5 MSTORE DUP3 DUP5 ADD DUP1 SWAP3 PUSH1 0x0 MSTORE DUP4 PUSH1 0x0 KECCAK256 PUSH1 0x0 SWAP2 JUMPDEST DUP4 DUP4 LT PUSH2 0x719 JUMPI POP POP POP POP PUSH1 0x40 MLOAD SWAP2 DUP1 DUP4 ADD SWAP4 DUP2 DUP5 MSTORE MLOAD DUP1 SWAP5 MSTORE PUSH1 0x40 DUP4 ADD SWAP4 PUSH1 0x40 DUP2 PUSH1 0x5 SHL DUP6 ADD ADD SWAP3 SWAP2 PUSH1 0x0 SWAP6 JUMPDEST DUP3 DUP8 LT PUSH2 0x669 JUMPI DUP6 DUP6 SUB DUP7 RETURN JUMPDEST SWAP1 SWAP2 SWAP3 SWAP4 DUP3 DUP1 PUSH2 0x709 PUSH1 0x1 SWAP4 PUSH1 0x3F NOT DUP11 DUP3 SUB ADD DUP7 MSTORE DUP9 MLOAD DUP1 MLOAD DUP3 MSTORE PUSH2 0x694 DUP5 DUP3 ADD MLOAD DUP6 DUP5 ADD SWAP1 PUSH2 0x527F JUMP JUMPDEST PUSH1 0x40 DUP2 ADD MLOAD PUSH1 0x40 DUP4 ADD MSTORE PUSH2 0x6CE PUSH2 0x6BB PUSH1 0x60 DUP1 DUP5 ADD MLOAD SWAP1 PUSH2 0x120 DUP1 SWAP2 DUP8 ADD MSTORE DUP6 ADD SWAP1 PUSH2 0x5135 JUMP JUMPDEST PUSH1 0x80 DUP1 DUP5 ADD MLOAD SWAP1 DUP6 DUP4 SUB SWAP1 DUP7 ADD MSTORE PUSH2 0x5135 JUMP JUMPDEST SWAP2 PUSH1 0xA0 DUP8 DUP1 PUSH1 0xA0 SHL SUB DUP2 DUP5 ADD MLOAD AND SWAP1 DUP3 ADD MSTORE PUSH1 0xC0 DUP1 DUP4 ADD MLOAD SWAP1 DUP3 ADD MSTORE PUSH1 0xE0 DUP3 ADD MLOAD ISZERO ISZERO PUSH1 0xE0 DUP3 ADD MSTORE PUSH2 0x100 DUP1 SWAP3 ADD MLOAD SWAP2 DUP2 DUP5 SUB SWAP2 ADD MSTORE PUSH2 0x5135 JUMP JUMPDEST SWAP7 ADD SWAP3 ADD SWAP7 ADD SWAP6 SWAP3 SWAP2 SWAP1 SWAP3 PUSH2 0x65C JUMP JUMPDEST PUSH1 0x9 DUP7 PUSH1 0x1 SWAP3 PUSH1 0x40 SWAP10 SWAP9 SWAP10 MLOAD PUSH2 0x72E DUP2 PUSH2 0x4FF9 JUMP JUMPDEST DUP6 SLOAD DUP2 MSTORE PUSH1 0xFF PUSH2 0x745 DUP2 DUP8 DUP10 ADD SLOAD AND DUP6 DUP5 ADD PUSH2 0x59E4 JUMP JUMPDEST PUSH1 0x2 DUP8 ADD SLOAD PUSH1 0x40 DUP4 ADD MSTORE PUSH1 0x40 MLOAD PUSH2 0x76A DUP2 PUSH2 0x763 DUP2 PUSH1 0x3 DUP13 ADD PUSH2 0x51E9 JUMP JUMPDEST SUB DUP3 PUSH2 0x5081 JUMP JUMPDEST PUSH1 0x60 DUP4 ADD MSTORE PUSH1 0x40 MLOAD PUSH2 0x783 DUP2 PUSH2 0x763 DUP2 PUSH1 0x4 DUP13 ADD PUSH2 0x51E9 JUMP JUMPDEST PUSH1 0x80 DUP4 ADD MSTORE DUP6 DUP1 PUSH1 0xA0 SHL SUB PUSH1 0x5 DUP9 ADD SLOAD AND PUSH1 0xA0 DUP4 ADD MSTORE PUSH1 0x6 DUP8 ADD SLOAD PUSH1 0xC0 DUP4 ADD MSTORE PUSH1 0x7 DUP8 ADD SLOAD AND ISZERO ISZERO PUSH1 0xE0 DUP3 ADD MSTORE PUSH1 0x40 MLOAD PUSH2 0x7C4 DUP2 PUSH2 0x763 DUP2 PUSH1 0x8 DUP12 ADD PUSH2 0x51E9 JUMP JUMPDEST PUSH2 0x100 DUP3 ADD MSTORE DUP2 MSTORE ADD SWAP3 ADD SWAP3 ADD SWAP2 SWAP1 SWAP6 SWAP5 SWAP6 PUSH2 0x62E JUMP JUMPDEST CALLVALUE PUSH2 0x5DA JUMPI PUSH1 0x40 CALLDATASIZE PUSH1 0x3 NOT ADD SLT PUSH2 0x5DA JUMPI PUSH2 0x7F4 PUSH2 0x4FAB JUMP JUMPDEST PUSH2 0x7FC PUSH2 0x4F95 JUMP JUMPDEST SWAP1 PUSH1 0x1 DUP1 PUSH1 0xA0 SHL SUB DUP1 SWAP2 AND PUSH1 0x0 MSTORE PUSH1 0x5 PUSH1 0x20 MSTORE PUSH1 0x40 PUSH1 0x0 KECCAK256 SWAP2 AND PUSH1 0x0 MSTORE PUSH1 0x20 MSTORE PUSH1 0x20 PUSH1 0xFF PUSH1 0x40 PUSH1 0x0 KECCAK256 SLOAD AND PUSH1 0x40 MLOAD SWAP1 ISZERO ISZERO DUP2 MSTORE RETURN JUMPDEST CALLVALUE PUSH2 0x5DA JUMPI PUSH1 0x20 DUP1 PUSH1 0x3 NOT CALLDATASIZE ADD SLT PUSH2 0x5DA JUMPI PUSH1 0x4 CALLDATALOAD PUSH1 0x0 MSTORE PUSH1 0x10 DUP2 MSTORE PUSH1 0x40 PUSH1 0x0 KECCAK256 SWAP1 DUP2 SLOAD SWAP2 PUSH2 0x85F DUP4 PUSH2 0x5A3D JUMP JUMPDEST SWAP3 PUSH2 0x86D PUSH1 0x40 MLOAD SWAP5 DUP6 PUSH2 0x5081 JUMP JUMPDEST DUP1 DUP5 MSTORE DUP3 DUP5 ADD DUP1 SWAP3 PUSH1 0x0 MSTORE DUP4 PUSH1 0x0 KECCAK256 PUSH1 0x0 SWAP2 JUMPDEST DUP4 DUP4 LT PUSH2 0x92C JUMPI POP POP POP POP PUSH1 0x40 MLOAD SWAP2 DUP1 DUP4 ADD SWAP4 DUP2 DUP5 MSTORE MLOAD DUP1 SWAP5 MSTORE PUSH1 0x40 DUP4 ADD SWAP4 PUSH1 0x40 DUP2 PUSH1 0x5 SHL DUP6 ADD ADD SWAP3 SWAP2 PUSH1 0x0 SWAP6 JUMPDEST DUP3 DUP8 LT PUSH2 0x8BB JUMPI DUP6 DUP6 SUB DUP7 RETURN JUMPDEST SWAP1 SWAP2 SWAP3 SWAP4 DUP3 DUP1 PUSH1 0x1 SWAP3 PUSH1 0x3F NOT DUP10 DUP3 SUB ADD DUP6 MSTORE DUP8 MLOAD SWAP1 PUSH2 0x8F5 PUSH2 0x8E5 DUP4 MLOAD PUSH1 0xA0 DUP1 DUP6 MSTORE DUP5 ADD SWAP1 PUSH2 0x5135 JUMP JUMPDEST DUP5 DUP5 ADD MLOAD DUP4 DUP3 SUB DUP7 DUP6 ADD MSTORE PUSH2 0x5135 JUMP JUMPDEST SWAP2 PUSH1 0x40 DUP2 ADD MLOAD ISZERO ISZERO PUSH1 0x40 DUP4 ADD MSTORE PUSH1 0x60 DUP7 DUP1 PUSH1 0xA0 SHL SUB DUP2 DUP4 ADD MLOAD AND SWAP1 DUP4 ADD MSTORE PUSH1 0x80 DUP1 SWAP2 ADD MLOAD SWAP2 ADD MSTORE SWAP7 ADD SWAP3 ADD SWAP7 ADD SWAP6 SWAP3 SWAP2 SWAP1 SWAP3 PUSH2 0x8AE JUMP JUMPDEST PUSH1 0x4 DUP7 PUSH1 0x1 SWAP3 PUSH1 0x40 SWAP10 SWAP9 SWAP10 MLOAD PUSH2 0x941 DUP2 PUSH2 0x5015 JUMP JUMPDEST PUSH1 0x40 MLOAD PUSH2 0x952 DUP2 PUSH2 0x763 DUP2 DUP11 PUSH2 0x51E9 JUMP JUMPDEST DUP2 MSTORE PUSH1 0x40 MLOAD PUSH2 0x967 DUP2 PUSH2 0x763 DUP2 DUP10 DUP12 ADD PUSH2 0x51E9 JUMP JUMPDEST DUP4 DUP3 ADD MSTORE PUSH1 0x2 DUP7 ADD SLOAD PUSH1 0xFF DUP2 AND ISZERO ISZERO PUSH1 0x40 DUP4 ADD MSTORE DUP6 DUP1 PUSH1 0xA0 SHL SUB SWAP1 PUSH1 0x8 SHR AND PUSH1 0x60 DUP3 ADD MSTORE PUSH1 0x3 DUP7 ADD SLOAD PUSH1 0x80 DUP3 ADD MSTORE DUP2 MSTORE ADD SWAP3 ADD SWAP3 ADD SWAP2 SWAP1 SWAP6 SWAP5 SWAP6 PUSH2 0x880 JUMP JUMPDEST CALLVALUE PUSH2 0x5DA JUMPI PUSH1 0x0 CALLDATASIZE PUSH1 0x3 NOT ADD SLT PUSH2 0x5DA JUMPI PUSH1 0x20 PUSH1 0x40 MLOAD PUSH1 0x0 DUP1 MLOAD PUSH1 0x20 PUSH2 0x5B8E DUP4 CODECOPY DUP2 MLOAD SWAP2 MSTORE DUP2 MSTORE RETURN JUMPDEST CALLVALUE PUSH2 0x5DA JUMPI PUSH1 0x60 CALLDATASIZE PUSH1 0x3 NOT ADD SLT PUSH2 0x5DA JUMPI PUSH1 0x4 CALLDATALOAD PUSH2 0x9EB PUSH2 0x4F95 JUMP JUMPDEST PUSH1 0x1 PUSH1 0x1 PUSH1 0xA0 SHL SUB PUSH1 0x44 CALLDATALOAD DUP2 DUP2 AND SWAP4 SWAP3 SWAP1 DUP5 DUP2 SUB PUSH2 0x5DA JUMPI PUSH2 0xA0B PUSH2 0x539C JUMP JUMPDEST DUP4 PUSH1 0x0 MSTORE PUSH1 0x20 PUSH1 0x2 DUP2 MSTORE PUSH2 0xA27 DUP5 PUSH1 0x40 PUSH1 0x0 KECCAK256 SLOAD AND ISZERO ISZERO PUSH2 0x58D8 JUMP JUMPDEST PUSH1 0x40 MLOAD SWAP2 DUP2 DUP4 ADD DUP7 DUP2 MSTORE PUSH1 0x1 PUSH1 0x1 PUSH1 0x60 SHL SUB NOT SWAP4 DUP5 DUP7 PUSH1 0x60 SHL AND PUSH1 0x40 DUP3 ADD MSTORE TIMESTAMP PUSH1 0x54 DUP3 ADD MSTORE PUSH6 0x29A2A72222A9 PUSH1 0xD1 SHL PUSH1 0x74 DUP3 ADD MSTORE PUSH1 0x5A DUP2 MSTORE PUSH2 0xA68 DUP2 PUSH2 0x5066 JUMP JUMPDEST MLOAD SWAP1 KECCAK256 SWAP3 PUSH1 0x40 MLOAD SWAP1 DUP4 DUP3 ADD SWAP3 DUP9 DUP5 MSTORE PUSH1 0x60 SHL AND PUSH1 0x40 DUP3 ADD MSTORE TIMESTAMP PUSH1 0x54 DUP3 ADD MSTORE PUSH8 0x2922A1A2A4AB22A9 PUSH1 0xC1 SHL PUSH1 0x74 DUP3 ADD MSTORE PUSH1 0x5C DUP2 MSTORE PUSH2 0xAA4 DUP2 PUSH2 0x5066 JUMP JUMPDEST MLOAD SWAP1 KECCAK256 SWAP1 PUSH1 0x40 MLOAD DUP2 DUP2 ADD SWAP1 DUP8 DUP3 MSTORE TIMESTAMP PUSH1 0x40 DUP3 ADD MSTORE PUSH7 0x20AAA224AA27A9 PUSH1 0xC9 SHL PUSH1 0x60 DUP3 ADD MSTORE PUSH1 0x47 DUP2 MSTORE PUSH2 0xAD5 DUP2 PUSH2 0x5066 JUMP JUMPDEST MLOAD SWAP1 KECCAK256 SWAP1 PUSH3 0x278D00 TIMESTAMP ADD DUP1 TIMESTAMP GT PUSH2 0xB99 JUMPI PUSH1 0x40 MLOAD SWAP4 PUSH1 0xC0 DUP6 ADD SWAP4 DUP6 DUP6 LT PUSH1 0x1 PUSH1 0x1 PUSH1 0x40 SHL SUB DUP7 GT OR PUSH2 0x535 JUMPI PUSH2 0xB70 SWAP7 PUSH1 0x5 SWAP6 PUSH1 0x40 MSTORE DUP7 MSTORE DUP4 DUP7 ADD SWAP2 DUP3 MSTORE PUSH1 0x40 DUP7 ADD SWAP1 DUP2 MSTORE PUSH1 0x60 DUP7 ADD SWAP2 TIMESTAMP DUP4 MSTORE PUSH1 0x80 DUP8 ADD SWAP4 DUP5 MSTORE PUSH1 0xF PUSH1 0xA0 DUP9 ADD SWAP6 PUSH1 0x1 DUP8 MSTORE DUP13 PUSH1 0x0 MSTORE MSTORE PUSH1 0x40 PUSH1 0x0 KECCAK256 SWAP7 MLOAD DUP8 SSTORE MLOAD PUSH1 0x1 DUP8 ADD SSTORE MLOAD PUSH1 0x2 DUP7 ADD SSTORE MLOAD PUSH1 0x3 DUP6 ADD SSTORE MLOAD PUSH1 0x4 DUP5 ADD SSTORE MLOAD ISZERO ISZERO SWAP2 ADD SWAP1 PUSH1 0xFF DUP1 NOT DUP4 SLOAD AND SWAP2 ISZERO ISZERO AND OR SWAP1 SSTORE JUMP JUMPDEST AND SWAP1 PUSH32 0xE5AE2C71A551297BC826CBFE2E8B4C507F92ADCDCB6BBCCF652456E59245FB9E PUSH1 0x0 DUP1 LOG4 STOP JUMPDEST PUSH4 0x4E487B71 PUSH1 0xE0 SHL PUSH1 0x0 MSTORE PUSH1 0x11 PUSH1 0x4 MSTORE PUSH1 0x24 PUSH1 0x0 REVERT JUMPDEST CALLVALUE PUSH2 0x5DA JUMPI PUSH1 0x0 CALLDATASIZE PUSH1 0x3 NOT ADD SLT PUSH2 0x5DA JUMPI PUSH1 0x20 PUSH1 0x40 MLOAD PUSH32 0xE34AAECBFE1F40867DCBA8678FBED9F4FFA5782221FA3BB500B71B2A80430318 DUP2 MSTORE RETURN JUMPDEST CALLVALUE PUSH2 0x5DA JUMPI PUSH1 0x40 CALLDATASIZE PUSH1 0x3 NOT ADD SLT PUSH2 0x5DA JUMPI PUSH2 0xC29 PUSH1 0x4 CALLDATALOAD PUSH2 0xC09 PUSH2 0x4F95 JUMP JUMPDEST SWAP1 DUP1 PUSH1 0x0 MSTORE PUSH1 0x7 PUSH1 0x20 MSTORE PUSH2 0xC24 PUSH1 0x1 PUSH1 0x40 PUSH1 0x0 KECCAK256 ADD SLOAD PUSH2 0x5442 JUMP JUMPDEST PUSH2 0x54E8 JUMP JUMPDEST STOP JUMPDEST CALLVALUE PUSH2 0x5DA JUMPI PUSH1 0x20 DUP1 PUSH1 0x3 NOT CALLDATASIZE ADD SLT PUSH2 0x5DA JUMPI PUSH1 0x4 CALLDATALOAD PUSH1 0x0 MSTORE PUSH1 0xE DUP2 MSTORE PUSH1 0x40 PUSH1 0x0 KECCAK256 PUSH1 0x40 MLOAD SWAP1 DUP2 DUP4 DUP3 SLOAD SWAP2 DUP3 DUP2 MSTORE ADD SWAP1 DUP2 SWAP3 PUSH1 0x0 MSTORE DUP5 PUSH1 0x0 KECCAK256 SWAP1 PUSH1 0x0 JUMPDEST DUP7 DUP3 DUP3 LT PUSH2 0xCBD JUMPI DUP7 DUP7 PUSH2 0xC7D DUP3 DUP9 SUB DUP4 PUSH2 0x5081 JUMP JUMPDEST PUSH1 0x40 MLOAD SWAP3 DUP4 SWAP3 DUP2 DUP5 ADD SWAP1 DUP3 DUP6 MSTORE MLOAD DUP1 SWAP2 MSTORE PUSH1 0x40 DUP5 ADD SWAP3 SWAP2 PUSH1 0x0 JUMPDEST DUP3 DUP2 LT PUSH2 0xCA6 JUMPI POP POP POP POP SUB SWAP1 RETURN JUMPDEST DUP4 MLOAD DUP6 MSTORE DUP7 SWAP6 POP SWAP4 DUP2 ADD SWAP4 SWAP3 DUP2 ADD SWAP3 PUSH1 0x1 ADD PUSH2 0xC97 JUMP JUMPDEST DUP4 SLOAD DUP6 MSTORE SWAP1 SWAP4 ADD SWAP3 PUSH1 0x1 SWAP3 DUP4 ADD SWAP3 ADD PUSH2 0xC67 JUMP JUMPDEST CALLVALUE PUSH2 0x5DA JUMPI PUSH1 0x20 CALLDATASIZE PUSH1 0x3 NOT ADD SLT PUSH2 0x5DA JUMPI PUSH1 0x4 CALLDATALOAD PUSH2 0xCEE DUP2 PUSH2 0x588E JUMP JUMPDEST POP PUSH1 0x0 MSTORE PUSH1 0x6 PUSH1 0x20 MSTORE PUSH2 0xD34 PUSH2 0x763 PUSH2 0xD11 PUSH1 0x40 PUSH1 0x0 KECCAK256 PUSH1 0x40 MLOAD SWAP3 DUP4 DUP1 SWAP3 PUSH2 0x51E9 JUMP JUMPDEST PUSH1 0x0 PUSH1 0x40 MLOAD PUSH2 0xD1F DUP2 PUSH2 0x5030 JUMP JUMPDEST MSTORE PUSH1 0x40 MLOAD SWAP2 DUP3 SWAP2 PUSH1 0x20 DUP4 MSTORE PUSH1 0x20 DUP4 ADD SWAP1 PUSH2 0x5135 JUMP JUMPDEST SUB SWAP1 RETURN JUMPDEST CALLVALUE PUSH2 0x5DA JUMPI PUSH1 0x20 CALLDATASIZE PUSH1 0x3 NOT ADD SLT PUSH2 0x5DA JUMPI PUSH1 0x4 CALLDATALOAD PUSH1 0x1 PUSH1 0x1 PUSH1 0x40 SHL SUB DUP2 GT PUSH2 0x5DA JUMPI PUSH2 0xD81 PUSH1 0x20 PUSH2 0xD6E DUP2 SWAP4 CALLDATASIZE SWAP1 PUSH1 0x4 ADD PUSH2 0x50F4 JUMP JUMPDEST DUP2 PUSH1 0x40 MLOAD SWAP4 DUP3 DUP6 DUP1 SWAP5 MLOAD SWAP4 DUP5 SWAP3 ADD PUSH2 0x5112 JUMP JUMPDEST DUP2 ADD PUSH1 0xC DUP2 MSTORE SUB ADD SWAP1 KECCAK256 SLOAD PUSH1 0x40 MLOAD SWAP1 DUP2 MSTORE RETURN JUMPDEST CALLVALUE PUSH2 0x5DA JUMPI PUSH1 0x20 CALLDATASIZE PUSH1 0x3 NOT ADD SLT PUSH2 0x5DA JUMPI PUSH1 0x4 CALLDATALOAD PUSH1 0x0 PUSH2 0x1C0 PUSH1 0x40 MLOAD PUSH2 0xDB9 DUP2 PUSH2 0x4FDD JUMP JUMPDEST PUSH1 0x60 DUP2 MSTORE PUSH1 0x60 PUSH1 0x20 DUP3 ADD MSTORE PUSH1 0x60 PUSH1 0x40 DUP3 ADD MSTORE PUSH1 0x60 DUP1 DUP3 ADD MSTORE PUSH1 0x60 PUSH1 0x80 DUP3 ADD MSTORE DUP3 PUSH1 0xA0 DUP3 ADD MSTORE DUP3 PUSH1 0xC0 DUP3 ADD MSTORE PUSH1 0x60 PUSH1 0xE0 DUP3 ADD MSTORE DUP3 PUSH2 0x100 DUP3 ADD MSTORE DUP3 PUSH2 0x120 DUP3 ADD MSTORE DUP3 PUSH2 0x140 DUP3 ADD MSTORE PUSH1 0x60 PUSH2 0x160 DUP3 ADD MSTORE DUP3 PUSH2 0x180 DUP3 ADD MSTORE DUP3 PUSH2 0x1A0 DUP3 ADD MSTORE ADD MSTORE DUP1 PUSH1 0x0 MSTORE PUSH1 0x2 PUSH1 0x20 MSTORE PUSH2 0xE39 PUSH1 0x1 DUP1 PUSH1 0xA0 SHL SUB PUSH1 0x40 PUSH1 0x0 KECCAK256 SLOAD AND ISZERO ISZERO PUSH2 0x58D8 JUMP JUMPDEST PUSH1 0x0 MSTORE PUSH1 0x9 PUSH1 0x20 MSTORE PUSH1 0x40 PUSH1 0x0 KECCAK256 PUSH1 0x40 MLOAD SWAP1 PUSH2 0xE53 DUP3 PUSH2 0x4FDD JUMP JUMPDEST PUSH1 0x40 MLOAD PUSH2 0xE64 DUP2 PUSH2 0x763 DUP2 DUP6 PUSH2 0x51E9 JUMP JUMPDEST DUP3 MSTORE PUSH1 0x40 MLOAD PUSH2 0xE7A DUP2 PUSH2 0x763 DUP2 PUSH1 0x1 DUP7 ADD PUSH2 0x51E9 JUMP JUMPDEST PUSH1 0x20 DUP4 ADD MSTORE PUSH1 0x40 MLOAD PUSH2 0xE93 DUP2 PUSH2 0x763 DUP2 PUSH1 0x2 DUP7 ADD PUSH2 0x51E9 JUMP JUMPDEST PUSH1 0x40 DUP4 ADD MSTORE PUSH1 0x40 MLOAD PUSH2 0xEAC DUP2 PUSH2 0x763 DUP2 PUSH1 0x3 DUP7 ADD PUSH2 0x51E9 JUMP JUMPDEST PUSH1 0x60 DUP4 ADD MSTORE PUSH1 0x40 MLOAD PUSH2 0xEC5 DUP2 PUSH2 0x763 DUP2 PUSH1 0x4 DUP7 ADD PUSH2 0x51E9 JUMP JUMPDEST PUSH1 0x80 DUP4 ADD MSTORE PUSH1 0x5 DUP2 ADD SLOAD PUSH1 0xA0 DUP4 ADD MSTORE PUSH1 0x6 DUP2 ADD SLOAD PUSH1 0xC0 DUP4 ADD MSTORE PUSH1 0x40 MLOAD PUSH2 0xEF2 DUP2 PUSH2 0x763 DUP2 PUSH1 0x7 DUP7 ADD PUSH2 0x51E9 JUMP JUMPDEST PUSH1 0xE0 DUP4 ADD MSTORE PUSH1 0x8 DUP2 ADD SLOAD PUSH1 0x6 PUSH1 0xFF DUP3 AND LT ISZERO PUSH2 0x5A6 JUMPI PUSH1 0xFF DUP2 DUP2 AND PUSH2 0x100 DUP6 ADD MSTORE PUSH1 0x8 SWAP2 SWAP1 SWAP2 SHR PUSH1 0x1 PUSH1 0x1 PUSH1 0xA0 SHL SUB SWAP1 DUP2 AND PUSH2 0x120 DUP6 ADD MSTORE PUSH1 0x9 DUP4 ADD SLOAD AND PUSH2 0x140 DUP5 ADD MSTORE PUSH1 0x40 MLOAD SWAP1 SWAP2 PUSH1 0xC SWAP2 PUSH2 0xF4F DUP2 PUSH2 0x763 DUP2 PUSH1 0xA DUP7 ADD PUSH2 0x51E9 JUMP JUMPDEST PUSH2 0x160 DUP6 ADD MSTORE PUSH1 0xB DUP2 ADD SLOAD PUSH2 0x180 DUP6 ADD MSTORE ADD SLOAD DUP2 DUP2 AND ISZERO ISZERO PUSH2 0x1A0 DUP5 ADD MSTORE PUSH1 0x8 SHR AND ISZERO ISZERO PUSH2 0x1C0 DUP3 ADD MSTORE PUSH1 0x40 MLOAD DUP1 SWAP2 PUSH1 0x20 DUP3 MSTORE PUSH2 0x1C0 PUSH2 0x1084 PUSH2 0x1032 PUSH2 0x1007 PUSH2 0xFF1 PUSH2 0xFDB PUSH2 0xFC5 PUSH2 0xFAF DUP9 MLOAD PUSH2 0x1E0 PUSH1 0x20 DUP13 ADD MSTORE PUSH2 0x200 DUP12 ADD SWAP1 PUSH2 0x5135 JUMP JUMPDEST PUSH1 0x20 DUP10 ADD MLOAD DUP11 DUP3 SUB PUSH1 0x1F NOT ADD PUSH1 0x40 DUP13 ADD MSTORE PUSH2 0x5135 JUMP JUMPDEST PUSH1 0x40 DUP9 ADD MLOAD DUP10 DUP3 SUB PUSH1 0x1F NOT ADD PUSH1 0x60 DUP12 ADD MSTORE PUSH2 0x5135 JUMP JUMPDEST PUSH1 0x60 DUP8 ADD MLOAD DUP9 DUP3 SUB PUSH1 0x1F NOT ADD PUSH1 0x80 DUP11 ADD MSTORE PUSH2 0x5135 JUMP JUMPDEST PUSH1 0x80 DUP7 ADD MLOAD DUP8 DUP3 SUB PUSH1 0x1F NOT ADD PUSH1 0xA0 DUP10 ADD MSTORE PUSH2 0x5135 JUMP JUMPDEST PUSH1 0xA0 DUP6 ADD MLOAD PUSH1 0xC0 DUP8 ADD MSTORE PUSH1 0xC0 DUP6 ADD MLOAD PUSH1 0xE0 DUP8 ADD MSTORE PUSH1 0xE0 DUP6 ADD MLOAD PUSH1 0x1F NOT DUP8 DUP4 SUB ADD PUSH2 0x100 DUP9 ADD MSTORE PUSH2 0x5135 JUMP JUMPDEST PUSH2 0x1046 PUSH2 0x100 DUP6 ADD MLOAD PUSH2 0x120 DUP8 ADD SWAP1 PUSH2 0x5324 JUMP JUMPDEST PUSH2 0x120 DUP5 ADD MLOAD PUSH1 0x1 PUSH1 0x1 PUSH1 0xA0 SHL SUB SWAP1 DUP2 AND PUSH2 0x140 DUP8 DUP2 ADD SWAP2 SWAP1 SWAP2 MSTORE DUP6 ADD MLOAD AND PUSH2 0x160 DUP1 DUP8 ADD SWAP2 SWAP1 SWAP2 MSTORE DUP5 ADD MLOAD DUP6 DUP3 SUB PUSH1 0x1F NOT ADD PUSH2 0x180 DUP8 ADD MSTORE PUSH2 0x5135 JUMP JUMPDEST SWAP2 PUSH2 0x180 DUP2 ADD MLOAD PUSH2 0x1A0 DUP6 ADD MSTORE PUSH2 0x1A0 DUP2 ADD MLOAD ISZERO ISZERO DUP3 DUP6 ADD MSTORE ADD MLOAD ISZERO ISZERO PUSH2 0x1E0 DUP4 ADD MSTORE SUB SWAP1 RETURN JUMPDEST CALLVALUE PUSH2 0x5DA JUMPI PUSH1 0x80 CALLDATASIZE PUSH1 0x3 NOT ADD SLT PUSH2 0x5DA JUMPI PUSH2 0x10C4 PUSH2 0x4FAB JUMP JUMPDEST PUSH2 0x10CC PUSH2 0x4F95 JUMP JUMPDEST PUSH1 0x64 CALLDATALOAD SWAP2 PUSH1 0x1 PUSH1 0x1 PUSH1 0x40 SHL SUB DUP4 GT PUSH2 0x5DA JUMPI CALLDATASIZE PUSH1 0x23 DUP5 ADD SLT ISZERO PUSH2 0x5DA JUMPI PUSH2 0x1100 PUSH2 0xC29 SWAP4 CALLDATASIZE SWAP1 PUSH1 0x24 DUP2 PUSH1 0x4 ADD CALLDATALOAD SWAP2 ADD PUSH2 0x50BD JUMP JUMPDEST SWAP2 PUSH1 0x44 CALLDATALOAD SWAP2 PUSH2 0x573A JUMP JUMPDEST CALLVALUE PUSH2 0x5DA JUMPI PUSH1 0x40 CALLDATASIZE PUSH1 0x3 NOT ADD SLT PUSH2 0x5DA JUMPI PUSH2 0x1123 PUSH2 0x4F95 JUMP JUMPDEST PUSH1 0x4 CALLDATALOAD PUSH1 0x0 MSTORE PUSH1 0x11 PUSH1 0x20 MSTORE PUSH1 0x40 PUSH1 0x0 KECCAK256 SWAP1 PUSH1 0x1 DUP1 PUSH1 0xA0 SHL SUB AND PUSH1 0x0 MSTORE PUSH1 0x20 MSTORE PUSH1 0x20 PUSH1 0xFF PUSH1 0x40 PUSH1 0x0 KECCAK256 SLOAD AND PUSH1 0x40 MLOAD SWAP1 ISZERO ISZERO DUP2 MSTORE RETURN JUMPDEST CALLVALUE PUSH2 0x5DA JUMPI PUSH1 0x0 CALLDATASIZE PUSH1 0x3 NOT ADD SLT PUSH2 0x5DA JUMPI PUSH1 0x20 PUSH1 0x40 MLOAD PUSH32 0x6E94C7ED7681EDD364A52BA21181E7713B286D5C7E6BBACA72CFE62D41EA09D9 DUP2 MSTORE RETURN JUMPDEST CALLVALUE PUSH2 0x5DA JUMPI PUSH1 0x40 CALLDATASIZE PUSH1 0x3 NOT ADD SLT PUSH2 0x5DA JUMPI PUSH2 0x11AB PUSH2 0x4FAB JUMP JUMPDEST PUSH2 0x11B3 PUSH2 0x5331 JUMP JUMPDEST PUSH1 0x1 PUSH1 0x1 PUSH1 0xA0 SHL SUB SWAP1 SWAP2 AND SWAP1 DUP2 ISZERO PUSH2 0x1224 JUMPI CALLER PUSH1 0x0 MSTORE PUSH1 0x5 PUSH1 0x20 MSTORE PUSH1 0x40 PUSH1 0x0 KECCAK256 DUP3 PUSH1 0x0 MSTORE PUSH1 0x20 MSTORE PUSH2 0x11F4 DUP2 PUSH1 0x40 PUSH1 0x0 KECCAK256 SWAP1 PUSH1 0xFF DUP1 NOT DUP4 SLOAD AND SWAP2 ISZERO ISZERO AND OR SWAP1 SSTORE JUMP JUMPDEST PUSH1 0x40 MLOAD SWAP1 ISZERO ISZERO DUP2 MSTORE PUSH32 0x17307EAB39AB6107E8899845AD3D59BD9653F200F220920489CA2B5937696C31 PUSH1 0x20 CALLER SWAP3 LOG3 STOP JUMPDEST PUSH1 0x40 MLOAD PUSH4 0xB611743 PUSH1 0xE3 SHL DUP2 MSTORE PUSH1 0x4 DUP2 ADD DUP4 SWAP1 MSTORE PUSH1 0x24 SWAP1 REVERT JUMPDEST CALLVALUE PUSH2 0x5DA JUMPI PUSH1 0x0 CALLDATASIZE PUSH1 0x3 NOT ADD SLT PUSH2 0x5DA JUMPI PUSH1 0x20 PUSH1 0x40 MLOAD PUSH1 0x0 DUP2 MSTORE RETURN JUMPDEST CALLVALUE PUSH2 0x5DA JUMPI PUSH2 0x1267 CALLDATASIZE PUSH2 0x52F5 JUMP JUMPDEST DUP2 PUSH1 0x0 MSTORE PUSH1 0x20 SWAP1 PUSH1 0x2 DUP3 MSTORE PUSH1 0x1 DUP1 PUSH1 0xA0 SHL SUB PUSH2 0x128B DUP2 PUSH1 0x40 PUSH1 0x0 KECCAK256 SLOAD AND ISZERO ISZERO PUSH2 0x58D8 JUMP JUMPDEST PUSH1 0x0 DUP1 MLOAD PUSH1 0x20 PUSH2 0x5B8E DUP4 CODECOPY DUP2 MLOAD SWAP2 MSTORE PUSH1 0x0 MSTORE PUSH1 0x7 DUP4 MSTORE PUSH1 0x40 PUSH1 0x0 KECCAK256 CALLER PUSH1 0x0 MSTORE DUP4 MSTORE PUSH1 0xFF PUSH1 0x40 PUSH1 0x0 KECCAK256 SLOAD AND SWAP1 DUP2 ISZERO PUSH2 0x13BA JUMPI JUMPDEST DUP2 ISZERO PUSH2 0x139A JUMPI JUMPDEST POP ISZERO PUSH2 0x1357 JUMPI PUSH1 0x0 DUP1 MLOAD PUSH1 0x20 PUSH2 0x5BAE DUP4 CODECOPY DUP2 MLOAD SWAP2 MSTORE SWAP2 PUSH1 0x40 SWAP2 DUP5 PUSH1 0x0 MSTORE PUSH1 0x9 DUP3 MSTORE DUP3 PUSH1 0x0 KECCAK256 PUSH1 0xC DUP2 ADD PUSH2 0x100 PUSH2 0xFF00 NOT DUP3 SLOAD AND OR SWAP1 SSTORE PUSH1 0x8 DUP2 ADD PUSH1 0x5 PUSH1 0xFF NOT DUP3 SLOAD AND OR SWAP1 SSTORE PUSH1 0xB TIMESTAMP SWAP2 ADD SSTORE DUP5 PUSH32 0xC836B58F1D2B092E3AF919AAE9A0607BB0C4FE552AA37D0D7ED26885488B7399 DUP5 MLOAD DUP5 DUP2 MSTORE DUP1 PUSH2 0x1345 CALLER SWAP6 DUP8 DUP4 ADD SWAP1 PUSH2 0x5135 JUMP JUMPDEST SUB SWAP1 LOG3 DUP2 MLOAD SWAP1 PUSH1 0x5 DUP3 MSTORE CALLER SWAP1 DUP3 ADD MSTORE LOG2 STOP JUMPDEST PUSH1 0x64 DUP3 PUSH1 0x40 MLOAD SWAP1 PUSH3 0x461BCD PUSH1 0xE5 SHL DUP3 MSTORE DUP1 PUSH1 0x4 DUP4 ADD MSTORE PUSH1 0x24 DUP3 ADD MSTORE PUSH32 0x4E6F7420617574686F72697A656420746F20726563616C6C2070726F64756374 PUSH1 0x44 DUP3 ADD MSTORE REVERT JUMPDEST SWAP1 POP DUP4 PUSH1 0x0 MSTORE PUSH1 0x9 DUP4 MSTORE CALLER SWAP1 PUSH1 0x8 PUSH1 0x40 PUSH1 0x0 KECCAK256 ADD SLOAD PUSH1 0x8 SHR AND EQ DUP5 PUSH2 0x12C4 JUMP JUMPDEST SWAP1 POP PUSH1 0x0 DUP1 MLOAD PUSH1 0x20 PUSH2 0x5BCE DUP4 CODECOPY DUP2 MLOAD SWAP2 MSTORE PUSH1 0x0 MSTORE PUSH1 0x7 DUP4 MSTORE PUSH1 0x40 PUSH1 0x0 KECCAK256 CALLER PUSH1 0x0 MSTORE DUP4 MSTORE PUSH1 0xFF PUSH1 0x40 PUSH1 0x0 KECCAK256 SLOAD AND SWAP1 PUSH2 0x12BD JUMP JUMPDEST CALLVALUE PUSH2 0x5DA JUMPI PUSH1 0x40 CALLDATASIZE PUSH1 0x3 NOT ADD SLT PUSH2 0x5DA JUMPI PUSH2 0xC29 PUSH1 0x4 CALLDATALOAD PUSH2 0x140B PUSH2 0x5331 JUMP JUMPDEST SWAP1 PUSH2 0x1414 PUSH2 0x539C JUMP JUMPDEST PUSH1 0x0 DUP2 DUP2 MSTORE PUSH1 0x2 PUSH1 0x20 MSTORE PUSH1 0x40 SWAP1 KECCAK256 SLOAD PUSH2 0x1437 SWAP1 PUSH1 0x1 PUSH1 0x1 PUSH1 0xA0 SHL SUB AND ISZERO ISZERO PUSH2 0x58D8 JUMP JUMPDEST PUSH1 0x0 MSTORE PUSH1 0x9 PUSH1 0x20 MSTORE PUSH1 0xC PUSH1 0x40 PUSH1 0x0 KECCAK256 ADD SWAP1 PUSH1 0xFF DUP1 NOT DUP4 SLOAD AND SWAP2 ISZERO ISZERO AND OR SWAP1 SSTORE JUMP JUMPDEST CALLVALUE PUSH2 0x5DA JUMPI PUSH1 0x0 CALLDATASIZE PUSH1 0x3 NOT ADD SLT PUSH2 0x5DA JUMPI PUSH1 0x20 PUSH1 0x40 MLOAD PUSH32 0xEEFB95E842A3287179D933B4460BE539A1D5AF11AA8B325BB45C5C8DC92DE4ED DUP2 MSTORE RETURN JUMPDEST CALLVALUE PUSH2 0x5DA JUMPI PUSH1 0x0 CALLDATASIZE PUSH1 0x3 NOT ADD SLT PUSH2 0x5DA JUMPI PUSH1 0x40 MLOAD PUSH1 0x0 PUSH1 0x1 DUP1 SLOAD SWAP1 PUSH2 0x14B7 DUP3 PUSH2 0x51AF JUMP JUMPDEST DUP1 DUP6 MSTORE SWAP2 DUP2 DUP2 AND SWAP1 DUP2 ISZERO PUSH2 0x154B JUMPI POP PUSH1 0x1 EQ PUSH2 0x14F2 JUMPI JUMPDEST PUSH2 0xD34 DUP5 PUSH2 0x14DE DUP2 DUP7 SUB DUP3 PUSH2 0x5081 JUMP JUMPDEST PUSH1 0x40 MLOAD SWAP2 DUP3 SWAP2 PUSH1 0x20 DUP4 MSTORE PUSH1 0x20 DUP4 ADD SWAP1 PUSH2 0x5135 JUMP JUMPDEST PUSH1 0x0 DUP2 DUP2 MSTORE SWAP3 POP PUSH32 0xB10E2D527612073B26EECDFD717E6A320CF44B4AFAC2B0732D9FCBE2B7FA0CF6 JUMPDEST DUP3 DUP5 LT PUSH2 0x1533 JUMPI POP POP POP DUP2 ADD PUSH1 0x20 ADD PUSH2 0x14DE DUP3 PUSH2 0x14CE JUMP JUMPDEST DUP1 SLOAD PUSH1 0x20 DUP6 DUP8 ADD DUP2 ADD SWAP2 SWAP1 SWAP2 MSTORE SWAP1 SWAP4 ADD SWAP3 DUP2 ADD PUSH2 0x151B JUMP JUMPDEST PUSH1 0xFF NOT AND PUSH1 0x20 DUP1 DUP8 ADD SWAP2 SWAP1 SWAP2 MSTORE SWAP3 ISZERO ISZERO PUSH1 0x5 SHL DUP6 ADD SWAP1 SWAP3 ADD SWAP3 POP PUSH2 0x14DE SWAP2 POP DUP4 SWAP1 POP PUSH2 0x14CE JUMP JUMPDEST CALLVALUE PUSH2 0x5DA JUMPI PUSH1 0x40 CALLDATASIZE PUSH1 0x3 NOT ADD SLT PUSH2 0x5DA JUMPI PUSH2 0x158B PUSH2 0x4F95 JUMP JUMPDEST PUSH1 0x4 CALLDATALOAD PUSH1 0x0 MSTORE PUSH1 0x7 PUSH1 0x20 MSTORE PUSH1 0x40 PUSH1 0x0 KECCAK256 SWAP1 PUSH1 0x1 DUP1 PUSH1 0xA0 SHL SUB AND PUSH1 0x0 MSTORE PUSH1 0x20 MSTORE PUSH1 0x20 PUSH1 0xFF PUSH1 0x40 PUSH1 0x0 KECCAK256 SLOAD AND PUSH1 0x40 MLOAD SWAP1 ISZERO ISZERO DUP2 MSTORE RETURN JUMPDEST CALLVALUE PUSH2 0x5DA JUMPI PUSH1 0x60 CALLDATASIZE PUSH1 0x3 NOT ADD SLT PUSH2 0x5DA JUMPI PUSH1 0x4 CALLDATALOAD PUSH2 0x15DB PUSH2 0x4F95 JUMP JUMPDEST PUSH1 0x1 PUSH1 0x1 PUSH1 0x40 SHL SUB PUSH1 0x44 CALLDATALOAD DUP2 DUP2 GT PUSH2 0x5DA JUMPI PUSH2 0x15FB SWAP1 CALLDATASIZE SWAP1 PUSH1 0x4 ADD PUSH2 0x50F4 JUMP JUMPDEST SWAP3 DUP1 PUSH1 0x0 MSTORE PUSH1 0x20 SWAP2 PUSH1 0x2 DUP4 MSTORE PUSH1 0x1 DUP1 PUSH1 0xA0 SHL SUB SWAP1 PUSH2 0x1621 DUP3 PUSH1 0x40 PUSH1 0x0 KECCAK256 SLOAD AND ISZERO ISZERO PUSH2 0x58D8 JUMP JUMPDEST PUSH2 0x162A DUP4 PUSH2 0x588E JUMP JUMPDEST DUP3 CALLER SWAP2 AND SUB PUSH2 0x184A JUMPI DUP2 DUP6 AND SWAP5 PUSH2 0x1642 DUP7 ISZERO ISZERO PUSH2 0x591D JUMP JUMPDEST DUP4 PUSH1 0x0 MSTORE PUSH1 0x9 DUP6 MSTORE PUSH1 0xFF PUSH1 0xC PUSH1 0x40 PUSH1 0x0 KECCAK256 ADD SLOAD AND PUSH2 0x182D JUMPI DUP4 PUSH1 0x0 MSTORE PUSH1 0x9 DUP6 MSTORE PUSH1 0x40 PUSH1 0x0 KECCAK256 SWAP2 PUSH1 0xA PUSH1 0x9 DUP5 ADD SWAP4 DUP5 SLOAD SWAP5 DUP10 PUSH1 0x1 PUSH1 0x1 PUSH1 0x60 SHL SUB PUSH1 0xA0 SHL DUP8 AND OR SWAP1 SSTORE ADD SWAP1 DUP9 MLOAD SWAP1 DUP2 GT PUSH2 0x535 JUMPI PUSH2 0x1698 DUP3 SLOAD PUSH2 0x51AF JUMP JUMPDEST PUSH1 0x1F DUP2 GT PUSH2 0x17E7 JUMPI JUMPDEST POP DUP7 PUSH1 0x1F DUP3 GT PUSH1 0x1 EQ PUSH2 0x1755 JUMPI SWAP6 PUSH2 0x1745 SWAP4 DUP2 SWAP9 SWAP10 SWAP11 SWAP4 DUP4 PUSH2 0x1732 SWAP5 PUSH32 0xD67AA7C45F61C95D774ABBDD7384089523FABB58F544DEBBC64C53E937D97741 SWAP11 PUSH1 0x0 SWAP2 PUSH2 0x174A JUMPI JUMPDEST POP DUP2 PUSH1 0x1 SHL SWAP2 PUSH1 0x0 NOT SWAP1 PUSH1 0x3 SHL SHR NOT AND OR SWAP1 SSTORE JUMPDEST DUP2 PUSH1 0x0 MSTORE PUSH1 0x9 DUP11 MSTORE TIMESTAMP PUSH1 0xB PUSH1 0x40 PUSH1 0x0 KECCAK256 ADD SSTORE PUSH1 0x11 DUP11 MSTORE PUSH1 0x40 PUSH1 0x0 KECCAK256 DUP12 PUSH1 0x0 MSTORE DUP11 MSTORE PUSH1 0x40 PUSH1 0x0 KECCAK256 PUSH1 0x1 PUSH1 0xFF NOT DUP3 SLOAD AND OR SWAP1 SSTORE CALLER PUSH2 0x5969 JUMP JUMPDEST PUSH1 0x40 MLOAD SWAP4 DUP5 SWAP4 DUP9 DUP6 MSTORE AND SWAP7 DUP4 ADD SWAP1 PUSH2 0x5135 JUMP JUMPDEST SUB SWAP1 LOG4 STOP JUMPDEST SWAP1 POP DUP7 ADD MLOAD DUP15 PUSH2 0x16E7 JUMP JUMPDEST PUSH1 0x1F NOT DUP3 AND SWAP1 DUP4 PUSH1 0x0 MSTORE DUP9 PUSH1 0x0 KECCAK256 SWAP2 PUSH1 0x0 JUMPDEST DUP2 DUP2 LT PUSH2 0x17D0 JUMPI POP SWAP4 PUSH1 0x1 DUP5 DUP11 SWAP12 SWAP13 SWAP14 SWAP7 SWAP5 PUSH2 0x1745 SWAP9 SWAP5 PUSH2 0x1732 SWAP8 PUSH32 0xD67AA7C45F61C95D774ABBDD7384089523FABB58F544DEBBC64C53E937D97741 SWAP14 SWAP8 LT PUSH2 0x17B7 JUMPI JUMPDEST POP POP DUP2 SHL ADD SWAP1 SSTORE PUSH2 0x16FB JUMP JUMPDEST DUP9 ADD MLOAD PUSH1 0x0 NOT PUSH1 0xF8 DUP5 PUSH1 0x3 SHL AND SHR NOT AND SWAP1 SSTORE DUP15 DUP1 PUSH2 0x17AB JUMP JUMPDEST SWAP2 SWAP3 DUP11 PUSH1 0x1 DUP2 SWAP3 DUP16 DUP8 ADD MLOAD DUP2 SSTORE ADD SWAP5 ADD SWAP3 ADD PUSH2 0x1767 JUMP JUMPDEST DUP3 PUSH1 0x0 MSTORE DUP8 PUSH1 0x0 KECCAK256 PUSH1 0x1F DUP4 ADD PUSH1 0x5 SHR DUP2 ADD SWAP2 DUP10 DUP5 LT PUSH2 0x1823 JUMPI JUMPDEST PUSH1 0x1F ADD PUSH1 0x5 SHR ADD SWAP1 JUMPDEST DUP2 DUP2 LT PUSH2 0x1817 JUMPI POP PUSH2 0x16A1 JUMP JUMPDEST PUSH1 0x0 DUP2 SSTORE PUSH1 0x1 ADD PUSH2 0x180A JUMP JUMPDEST SWAP1 SWAP2 POP DUP2 SWAP1 PUSH2 0x1801 JUMP JUMPDEST PUSH1 0x40 MLOAD PUSH3 0x461BCD PUSH1 0xE5 SHL DUP2 MSTORE DUP1 PUSH2 0x1846 PUSH1 0x4 DUP3 ADD PUSH2 0x59F0 JUMP JUMPDEST SUB SWAP1 REVERT JUMPDEST PUSH1 0x40 MLOAD PUSH3 0x461BCD PUSH1 0xE5 SHL DUP2 MSTORE PUSH1 0x4 DUP2 ADD DUP6 SWAP1 MSTORE PUSH1 0x1C PUSH1 0x24 DUP3 ADD MSTORE PUSH32 0x4E6F7420746865206F776E6572206F66207468652070726F6475637400000000 PUSH1 0x44 DUP3 ADD MSTORE PUSH1 0x64 SWAP1 REVERT JUMPDEST CALLVALUE PUSH2 0x5DA JUMPI PUSH1 0x20 CALLDATASIZE PUSH1 0x3 NOT ADD SLT PUSH2 0x5DA JUMPI PUSH1 0x4 CALLDATALOAD PUSH1 0x0 MSTORE PUSH1 0x9 PUSH1 0x20 MSTORE PUSH1 0x40 PUSH1 0x0 KECCAK256 PUSH1 0x40 MLOAD DUP1 PUSH2 0x18BE DUP2 DUP5 PUSH2 0x51E9 JUMP JUMPDEST SUB PUSH2 0x18C9 SWAP1 DUP3 PUSH2 0x5081 JUMP JUMPDEST PUSH1 0x40 MLOAD SWAP2 DUP3 PUSH2 0x18DB DUP2 PUSH1 0x1 DUP5 ADD PUSH2 0x51E9 JUMP JUMPDEST SUB PUSH2 0x18E6 SWAP1 DUP5 PUSH2 0x5081 JUMP JUMPDEST PUSH1 0x40 MLOAD DUP1 PUSH2 0x18F7 DUP2 PUSH1 0x2 DUP6 ADD PUSH2 0x51E9 JUMP JUMPDEST SUB PUSH2 0x1902 SWAP1 DUP3 PUSH2 0x5081 JUMP JUMPDEST PUSH1 0x40 MLOAD DUP1 PUSH2 0x1913 DUP2 PUSH1 0x3 DUP7 ADD PUSH2 0x51E9 JUMP JUMPDEST SUB PUSH2 0x191E SWAP1 DUP3 PUSH2 0x5081 JUMP JUMPDEST PUSH1 0x40 MLOAD DUP1 PUSH2 0x192F DUP2 PUSH1 0x4 DUP8 ADD PUSH2 0x51E9 JUMP JUMPDEST SUB PUSH2 0x193A SWAP1 DUP3 PUSH2 0x5081 JUMP JUMPDEST PUSH1 0x5 DUP5 ADD SLOAD PUSH1 0x6 DUP6 ADD SLOAD PUSH1 0x40 MLOAD SWAP1 SWAP3 SWAP2 DUP2 PUSH2 0x1958 DUP2 PUSH1 0x7 DUP11 ADD PUSH2 0x51E9 JUMP JUMPDEST SUB PUSH2 0x1963 SWAP1 DUP4 PUSH2 0x5081 JUMP JUMPDEST PUSH1 0x8 DUP8 ADD SLOAD PUSH1 0x9 DUP9 ADD SLOAD PUSH1 0x40 MLOAD SWAP7 SWAP2 SWAP6 PUSH1 0x1 PUSH1 0x1 PUSH1 0xA0 SHL SUB SWAP1 SWAP2 AND SWAP5 SWAP1 SWAP2 DUP8 PUSH2 0x198F DUP2 PUSH1 0xA DUP14 ADD PUSH2 0x51E9 JUMP JUMPDEST SUB PUSH2 0x199A SWAP1 DUP10 PUSH2 0x5081 JUMP JUMPDEST PUSH1 0xB DUP11 ADD SLOAD SWAP10 PUSH1 0xC ADD SLOAD SWAP9 PUSH1 0x40 MLOAD SWAP13 DUP14 SWAP13 DUP14 PUSH2 0x1E0 SWAP1 DUP2 DUP2 MSTORE ADD PUSH2 0x19BD SWAP2 PUSH2 0x5135 JUMP JUMPDEST DUP14 DUP2 SUB PUSH1 0x20 DUP16 ADD MSTORE PUSH2 0x19CE SWAP2 PUSH2 0x5135 JUMP JUMPDEST DUP13 DUP2 SUB PUSH1 0x40 DUP15 ADD MSTORE PUSH2 0x19DF SWAP2 PUSH2 0x5135 JUMP JUMPDEST DUP12 DUP2 SUB PUSH1 0x60 DUP14 ADD MSTORE PUSH2 0x19F0 SWAP2 PUSH2 0x5135 JUMP JUMPDEST DUP11 DUP2 SUB PUSH1 0x80 DUP13 ADD MSTORE PUSH2 0x1A01 SWAP2 PUSH2 0x5135 JUMP JUMPDEST SWAP2 PUSH1 0xA0 DUP11 ADD MSTORE PUSH1 0xC0 DUP10 ADD MSTORE DUP8 DUP2 SUB PUSH1 0xE0 DUP10 ADD MSTORE PUSH2 0x1A1D SWAP2 PUSH2 0x5135 JUMP JUMPDEST SWAP2 PUSH2 0x1A2F PUSH2 0x100 DUP9 ADD PUSH1 0xFF DUP4 AND PUSH2 0x5324 JUMP JUMPDEST PUSH1 0x8 SHR PUSH1 0x1 PUSH1 0x1 PUSH1 0xA0 SHL SUB AND PUSH2 0x120 DUP8 ADD MSTORE PUSH2 0x140 DUP7 ADD MSTORE DUP5 DUP2 SUB PUSH2 0x160 DUP7 ADD MSTORE PUSH2 0x1A59 SWAP2 PUSH2 0x5135 JUMP JUMPDEST SWAP2 PUSH2 0x180 DUP5 ADD MSTORE PUSH1 0xFF DUP2 AND ISZERO ISZERO PUSH2 0x1A0 DUP5 ADD MSTORE PUSH1 0x8 SHR PUSH1 0xFF AND ISZERO ISZERO PUSH2 0x1C0 DUP4 ADD MSTORE SUB SWAP1 RETURN JUMPDEST CALLVALUE PUSH2 0x5DA JUMPI PUSH1 0x60 CALLDATASIZE PUSH1 0x3 NOT ADD SLT PUSH2 0x5DA JUMPI PUSH1 0x4 CALLDATALOAD PUSH1 0x24 CALLDATALOAD PUSH1 0x1 PUSH1 0x1 PUSH1 0x40 SHL SUB DUP2 GT PUSH2 0x5DA JUMPI PUSH2 0x1AB1 SWAP1 CALLDATASIZE SWAP1 PUSH1 0x4 ADD PUSH2 0x50F4 JUMP JUMPDEST SWAP1 PUSH1 0x44 CALLDATALOAD PUSH1 0x1 PUSH1 0x1 PUSH1 0x40 SHL SUB DUP2 GT PUSH2 0x5DA JUMPI PUSH2 0x1AD1 SWAP1 CALLDATASIZE SWAP1 PUSH1 0x4 ADD PUSH2 0x50F4 JUMP JUMPDEST PUSH2 0x1AD9 PUSH2 0x53E6 JUMP JUMPDEST PUSH1 0x0 DUP3 DUP2 MSTORE PUSH1 0x2 PUSH1 0x20 MSTORE PUSH1 0x40 SWAP1 KECCAK256 SLOAD PUSH2 0x1AFC SWAP1 PUSH1 0x1 PUSH1 0x1 PUSH1 0xA0 SHL SUB AND ISZERO ISZERO PUSH2 0x58D8 JUMP JUMPDEST PUSH1 0x40 MLOAD SWAP3 PUSH2 0x1B09 DUP5 PUSH2 0x5015 JUMP JUMPDEST DUP4 MSTORE PUSH1 0x20 DUP4 ADD MSTORE PUSH1 0x0 PUSH1 0x40 DUP4 ADD MSTORE PUSH1 0x0 PUSH1 0x60 DUP4 ADD MSTORE PUSH1 0x0 PUSH1 0x80 DUP4 ADD MSTORE PUSH1 0x0 MSTORE PUSH1 0x10 PUSH1 0x20 MSTORE PUSH1 0x40 PUSH1 0x0 KECCAK256 DUP1 SLOAD PUSH1 0x1 PUSH1 0x40 SHL DUP2 LT ISZERO PUSH2 0x535 JUMPI PUSH2 0x1B4F SWAP2 PUSH1 0x1 DUP3 ADD DUP2 SSTORE PUSH2 0x52D9 JUMP JUMPDEST SWAP2 SWAP1 SWAP2 PUSH2 0x1DD8 JUMPI DUP1 MLOAD SWAP2 DUP3 MLOAD PUSH1 0x1 PUSH1 0x1 PUSH1 0x40 SHL SUB DUP2 GT PUSH2 0x535 JUMPI PUSH2 0x1B73 DUP3 SLOAD PUSH2 0x51AF JUMP JUMPDEST PUSH1 0x1F DUP2 GT PUSH2 0x1D90 JUMPI JUMPDEST POP PUSH1 0x20 PUSH1 0x1F DUP3 GT PUSH1 0x1 EQ PUSH2 0x1D2A JUMPI DUP2 SWAP3 SWAP4 SWAP5 PUSH1 0x0 SWAP3 PUSH2 0x1D1F JUMPI JUMPDEST POP POP DUP2 PUSH1 0x1 SHL SWAP2 PUSH1 0x0 NOT SWAP1 PUSH1 0x3 SHL SHR NOT AND OR DUP2 SSTORE JUMPDEST PUSH1 0x1 DUP2 ADD SWAP2 PUSH1 0x20 DUP2 ADD MLOAD SWAP3 DUP4 MLOAD PUSH1 0x1 PUSH1 0x1 PUSH1 0x40 SHL SUB DUP2 GT PUSH2 0x535 JUMPI PUSH2 0x1BD0 DUP3 SLOAD PUSH2 0x51AF JUMP JUMPDEST PUSH1 0x1F DUP2 GT PUSH2 0x1CD7 JUMPI JUMPDEST POP PUSH1 0x20 PUSH1 0x1F DUP3 GT PUSH1 0x1 EQ PUSH2 0x1C6A JUMPI SWAP1 DUP1 PUSH1 0x80 SWAP5 SWAP4 SWAP3 PUSH1 0x3 SWAP7 SWAP8 PUSH1 0x0 SWAP3 PUSH2 0x1C5F JUMPI JUMPDEST POP POP DUP2 PUSH1 0x1 SHL SWAP2 PUSH1 0x0 NOT SWAP1 DUP8 SHL SHR NOT AND OR SWAP1 SSTORE JUMPDEST PUSH2 0x1C58 PUSH1 0x2 DUP6 ADD PUSH2 0x1C31 PUSH1 0x40 DUP5 ADD MLOAD ISZERO ISZERO DUP3 SWAP1 PUSH1 0xFF DUP1 NOT DUP4 SLOAD AND SWAP2 ISZERO ISZERO AND OR SWAP1 SSTORE JUMP JUMPDEST PUSH1 0x60 DUP4 ADD MLOAD DUP2 SLOAD PUSH2 0x100 PUSH1 0x1 PUSH1 0xA8 SHL SUB NOT AND PUSH1 0x8 SWAP2 SWAP1 SWAP2 SHL PUSH2 0x100 PUSH1 0x1 PUSH1 0xA8 SHL SUB AND OR SWAP1 SSTORE JUMP JUMPDEST ADD MLOAD SWAP2 ADD SSTORE STOP JUMPDEST ADD MLOAD SWAP1 POP DUP8 DUP1 PUSH2 0x1BFA JUMP JUMPDEST PUSH1 0x1F NOT DUP3 AND SWAP6 DUP4 PUSH1 0x0 MSTORE PUSH1 0x20 PUSH1 0x0 KECCAK256 SWAP7 PUSH1 0x0 JUMPDEST DUP2 DUP2 LT PUSH2 0x1CBF JUMPI POP SWAP7 PUSH1 0x1 SWAP3 DUP5 SWAP3 PUSH1 0x80 SWAP8 SWAP7 SWAP6 PUSH1 0x3 SWAP10 SWAP11 LT PUSH2 0x1CA7 JUMPI JUMPDEST POP POP POP DUP2 SHL ADD SWAP1 SSTORE PUSH2 0x1C0E JUMP JUMPDEST ADD MLOAD PUSH1 0x0 NOT DUP4 DUP10 SHL PUSH1 0xF8 AND SHR NOT AND SWAP1 SSTORE DUP8 DUP1 DUP1 PUSH2 0x1C9A JUMP JUMPDEST DUP4 DUP4 ADD MLOAD DUP10 SSTORE PUSH1 0x1 SWAP1 SWAP9 ADD SWAP8 PUSH1 0x20 SWAP4 DUP5 ADD SWAP4 ADD PUSH2 0x1C7D JUMP JUMPDEST DUP3 PUSH1 0x0 MSTORE PUSH1 0x20 PUSH1 0x0 KECCAK256 PUSH1 0x1F DUP4 ADD PUSH1 0x5 SHR DUP2 ADD SWAP2 PUSH1 0x20 DUP5 LT PUSH2 0x1D15 JUMPI JUMPDEST PUSH1 0x1F ADD PUSH1 0x5 SHR ADD SWAP1 JUMPDEST DUP2 DUP2 LT PUSH2 0x1D09 JUMPI POP PUSH2 0x1BD9 JUMP JUMPDEST PUSH1 0x0 DUP2 SSTORE PUSH1 0x1 ADD PUSH2 0x1CFC JUMP JUMPDEST SWAP1 SWAP2 POP DUP2 SWAP1 PUSH2 0x1CF3 JUMP JUMPDEST ADD MLOAD SWAP1 POP DUP5 DUP1 PUSH2 0x1B96 JUMP JUMPDEST PUSH1 0x1F NOT DUP3 AND SWAP1 DUP4 PUSH1 0x0 MSTORE PUSH1 0x20 PUSH1 0x0 KECCAK256 SWAP2 PUSH1 0x0 JUMPDEST DUP2 DUP2 LT PUSH2 0x1D78 JUMPI POP SWAP6 DUP4 PUSH1 0x1 SWAP6 SWAP7 SWAP8 LT PUSH2 0x1D5F JUMPI JUMPDEST POP POP POP DUP2 SHL ADD DUP2 SSTORE PUSH2 0x1BAB JUMP JUMPDEST ADD MLOAD PUSH1 0x0 NOT PUSH1 0xF8 DUP5 PUSH1 0x3 SHL AND SHR NOT AND SWAP1 SSTORE DUP5 DUP1 DUP1 PUSH2 0x1D52 JUMP JUMPDEST SWAP2 SWAP3 PUSH1 0x20 PUSH1 0x1 DUP2 SWAP3 DUP7 DUP12 ADD MLOAD DUP2 SSTORE ADD SWAP5 ADD SWAP3 ADD PUSH2 0x1D3D JUMP JUMPDEST DUP3 PUSH1 0x0 MSTORE PUSH1 0x20 PUSH1 0x0 KECCAK256 PUSH1 0x1F DUP4 ADD PUSH1 0x5 SHR DUP2 ADD SWAP2 PUSH1 0x20 DUP5 LT PUSH2 0x1DCE JUMPI JUMPDEST PUSH1 0x1F ADD PUSH1 0x5 SHR ADD SWAP1 JUMPDEST DUP2 DUP2 LT PUSH2 0x1DC2 JUMPI POP PUSH2 0x1B7C JUMP JUMPDEST PUSH1 0x0 DUP2 SSTORE PUSH1 0x1 ADD PUSH2 0x1DB5 JUMP JUMPDEST SWAP1 SWAP2 POP DUP2 SWAP1 PUSH2 0x1DAC JUMP JUMPDEST PUSH4 0x4E487B71 PUSH1 0xE0 SHL PUSH1 0x0 MSTORE PUSH1 0x0 PUSH1 0x4 MSTORE PUSH1 0x24 PUSH1 0x0 REVERT JUMPDEST CALLVALUE PUSH2 0x5DA JUMPI PUSH1 0x0 CALLDATASIZE PUSH1 0x3 NOT ADD SLT PUSH2 0x5DA JUMPI PUSH1 0x20 PUSH1 0x40 MLOAD PUSH1 0x0 DUP1 MLOAD PUSH1 0x20 PUSH2 0x5BCE DUP4 CODECOPY DUP2 MLOAD SWAP2 MSTORE DUP2 MSTORE RETURN JUMPDEST CALLVALUE PUSH2 0x5DA JUMPI PUSH1 0x20 CALLDATASIZE PUSH1 0x3 NOT ADD SLT PUSH2 0x5DA JUMPI PUSH1 0x1 PUSH1 0x1 PUSH1 0xA0 SHL SUB PUSH2 0x1E38 PUSH2 0x4FAB JUMP JUMPDEST AND DUP1 ISZERO PUSH2 0x1E57 JUMPI PUSH1 0x0 MSTORE PUSH1 0x3 PUSH1 0x20 MSTORE PUSH1 0x20 PUSH1 0x40 PUSH1 0x0 KECCAK256 SLOAD PUSH1 0x40 MLOAD SWAP1 DUP2 MSTORE RETURN JUMPDEST PUSH1 0x40 MLOAD PUSH4 0x22718AD9 PUSH1 0xE2 SHL DUP2 MSTORE PUSH1 0x0 PUSH1 0x4 DUP3 ADD MSTORE PUSH1 0x24 SWAP1 REVERT JUMPDEST CALLVALUE PUSH2 0x5DA JUMPI PUSH1 0x20 CALLDATASIZE PUSH1 0x3 NOT ADD SLT PUSH2 0x5DA JUMPI PUSH1 0x4 CALLDATALOAD PUSH1 0x0 MSTORE PUSH1 0xF PUSH1 0x20 MSTORE PUSH1 0xC0 PUSH1 0x40 PUSH1 0x0 KECCAK256 DUP1 SLOAD SWAP1 PUSH1 0x1 DUP2 ADD SLOAD SWAP1 PUSH1 0x2 DUP2 ADD SLOAD PUSH1 0x3 DUP3 ADD SLOAD SWAP1 PUSH1 0xFF PUSH1 0x5 PUSH1 0x4 DUP6 ADD SLOAD SWAP5 ADD SLOAD AND SWAP4 PUSH1 0x40 MLOAD SWAP6 DUP7 MSTORE PUSH1 0x20 DUP7 ADD MSTORE PUSH1 0x40 DUP6 ADD MSTORE PUSH1 0x60 DUP5 ADD MSTORE PUSH1 0x80 DUP4 ADD MSTORE ISZERO ISZERO PUSH1 0xA0 DUP3 ADD MSTORE RETURN JUMPDEST CALLVALUE PUSH2 0x5DA JUMPI PUSH1 0x20 CALLDATASIZE PUSH1 0x3 NOT ADD SLT PUSH2 0x5DA JUMPI PUSH1 0x20 PUSH2 0x1EF6 PUSH1 0x4 CALLDATALOAD PUSH2 0x588E JUMP JUMPDEST PUSH1 0x40 MLOAD PUSH1 0x1 PUSH1 0x1 PUSH1 0xA0 SHL SUB SWAP1 SWAP2 AND DUP2 MSTORE RETURN JUMPDEST CALLVALUE PUSH2 0x5DA JUMPI PUSH2 0x1F16 CALLDATASIZE PUSH2 0x5167 JUMP JUMPDEST CALLER PUSH1 0x0 SWAP1 DUP2 MSTORE PUSH32 0x4737975F69B9423F1935DBED18763129F1F2F9739723C3436B1571873C7B5C33 PUSH1 0x20 SWAP1 DUP2 MSTORE PUSH1 0x40 SWAP1 SWAP2 KECCAK256 SLOAD SWAP1 SWAP2 SWAP1 PUSH1 0x0 DUP1 MLOAD PUSH1 0x20 PUSH2 0x5B8E DUP4 CODECOPY DUP2 MLOAD SWAP2 MSTORE SWAP1 PUSH1 0xFF AND ISZERO PUSH2 0x5BC JUMPI POP PUSH1 0x0 DUP4 DUP2 MSTORE PUSH1 0x2 DUP4 MSTORE PUSH1 0x40 SWAP1 KECCAK256 SLOAD PUSH2 0x1F86 SWAP1 PUSH1 0x1 PUSH1 0x1 PUSH1 0xA0 SHL SUB AND ISZERO ISZERO PUSH2 0x58D8 JUMP JUMPDEST DUP3 PUSH1 0x0 MSTORE PUSH1 0x10 DUP3 MSTORE PUSH1 0x40 PUSH1 0x0 KECCAK256 SLOAD DUP2 LT ISZERO PUSH2 0x2076 JUMPI PUSH32 0xCC42190D2378B56EC1180F120B09114312BE6E33D7754AC7D9CA5C1ABFFC18AA SWAP2 PUSH2 0x2055 PUSH2 0x206D SWAP3 DUP6 PUSH1 0x0 MSTORE PUSH1 0x10 DUP4 MSTORE PUSH1 0x2 PUSH2 0x1FDC DUP3 PUSH1 0x40 PUSH1 0x0 KECCAK256 PUSH2 0x52D9 JUMP JUMPDEST POP ADD PUSH1 0x1 PUSH1 0xFF NOT DUP3 SLOAD AND OR SWAP1 SSTORE DUP6 PUSH1 0x0 MSTORE PUSH1 0x10 DUP4 MSTORE PUSH2 0x2026 PUSH2 0x2002 DUP3 PUSH1 0x40 PUSH1 0x0 KECCAK256 PUSH2 0x52D9 JUMP JUMPDEST POP PUSH1 0x2 ADD DUP1 SLOAD PUSH2 0x100 PUSH1 0x1 PUSH1 0xA8 SHL SUB NOT AND CALLER PUSH1 0x8 SHL PUSH2 0x100 PUSH1 0x1 PUSH1 0xA8 SHL SUB AND OR SWAP1 SSTORE JUMP JUMPDEST DUP6 PUSH1 0x0 MSTORE PUSH1 0x10 DUP4 MSTORE PUSH2 0x203C DUP2 PUSH1 0x40 PUSH1 0x0 KECCAK256 PUSH2 0x52D9 JUMP JUMPDEST POP PUSH1 0x3 TIMESTAMP SWAP2 ADD SSTORE DUP6 PUSH1 0x0 MSTORE PUSH1 0x10 DUP4 MSTORE PUSH1 0x40 PUSH1 0x0 KECCAK256 PUSH2 0x52D9 JUMP JUMPDEST POP SWAP1 PUSH1 0x1 PUSH1 0x40 MLOAD SWAP4 DUP5 SWAP4 PUSH1 0x40 DUP6 MSTORE PUSH1 0x40 DUP6 ADD SWAP1 PUSH2 0x51E9 JUMP JUMPDEST SWAP2 DUP4 ADD MSTORE SUB SWAP1 LOG2 STOP JUMPDEST PUSH1 0x40 MLOAD PUSH3 0x461BCD PUSH1 0xE5 SHL DUP2 MSTORE PUSH1 0x4 DUP2 ADD DUP4 SWAP1 MSTORE PUSH1 0x13 PUSH1 0x24 DUP3 ADD MSTORE PUSH19 0x92DCECC2D8D2C840E0E4DEDECC40D2DCC8CAF PUSH1 0x6B SHL PUSH1 0x44 DUP3 ADD MSTORE PUSH1 0x64 SWAP1 REVERT JUMPDEST CALLVALUE PUSH2 0x5DA JUMPI PUSH2 0x20BF CALLDATASIZE PUSH2 0x52F5 JUMP JUMPDEST SWAP1 DUP1 PUSH1 0x0 MSTORE PUSH1 0x20 SWAP1 PUSH1 0x2 DUP3 MSTORE PUSH1 0x1 DUP1 PUSH1 0xA0 SHL SUB PUSH2 0x20E4 DUP2 PUSH1 0x40 PUSH1 0x0 KECCAK256 SLOAD AND ISZERO ISZERO PUSH2 0x58D8 JUMP JUMPDEST PUSH2 0x20ED DUP3 PUSH2 0x588E JUMP JUMPDEST DUP2 AND CALLER EQ SWAP1 DUP2 ISZERO PUSH2 0x22B2 JUMPI JUMPDEST POP DUP1 ISZERO PUSH2 0x2282 JUMPI JUMPDEST ISZERO PUSH2 0x2233 JUMPI DUP1 PUSH1 0x0 MSTORE PUSH1 0x9 DUP3 MSTORE PUSH1 0xA PUSH1 0x40 PUSH1 0x0 KECCAK256 ADD DUP4 MLOAD PUSH1 0x1 PUSH1 0x1 PUSH1 0x40 SHL SUB DUP2 GT PUSH2 0x535 JUMPI PUSH2 0x2130 DUP3 SLOAD PUSH2 0x51AF JUMP JUMPDEST PUSH1 0x1F DUP2 GT PUSH2 0x21ED JUMPI JUMPDEST POP DUP4 SWAP5 PUSH1 0x1F DUP3 GT PUSH1 0x1 EQ PUSH2 0x2186 JUMPI PUSH1 0x9 SWAP6 PUSH1 0x0 SWAP2 DUP4 PUSH2 0x217B JUMPI JUMPDEST POP POP DUP2 PUSH1 0x1 SHL SWAP2 PUSH1 0x0 NOT SWAP1 PUSH1 0x3 SHL SHR NOT AND OR SWAP1 SSTORE JUMPDEST PUSH1 0x0 MSTORE MSTORE TIMESTAMP PUSH1 0xB PUSH1 0x40 PUSH1 0x0 KECCAK256 ADD SSTORE PUSH1 0x0 DUP1 RETURN JUMPDEST ADD MLOAD SWAP1 POP DUP7 DUP1 PUSH2 0x2153 JUMP JUMPDEST PUSH1 0x1F NOT DUP3 AND SWAP6 DUP4 PUSH1 0x0 MSTORE DUP6 PUSH1 0x0 KECCAK256 SWAP2 PUSH1 0x0 JUMPDEST DUP9 DUP2 LT PUSH2 0x21D6 JUMPI POP SWAP1 DUP4 SWAP3 SWAP2 PUSH1 0x1 SWAP5 PUSH1 0x9 SWAP10 LT PUSH2 0x21BD JUMPI JUMPDEST POP POP POP DUP2 SHL ADD SWAP1 SSTORE PUSH2 0x2168 JUMP JUMPDEST ADD MLOAD PUSH1 0x0 NOT PUSH1 0xF8 DUP5 PUSH1 0x3 SHL AND SHR NOT AND SWAP1 SSTORE DUP7 DUP1 DUP1 PUSH2 0x21B0 JUMP JUMPDEST SWAP2 SWAP3 DUP8 PUSH1 0x1 DUP2 SWAP3 DUP7 DUP6 ADD MLOAD DUP2 SSTORE ADD SWAP5 ADD SWAP3 ADD PUSH2 0x2198 JUMP JUMPDEST DUP3 PUSH1 0x0 MSTORE DUP5 PUSH1 0x0 KECCAK256 PUSH1 0x1F DUP4 ADD PUSH1 0x5 SHR DUP2 ADD SWAP2 DUP7 DUP5 LT PUSH2 0x2229 JUMPI JUMPDEST PUSH1 0x1F ADD PUSH1 0x5 SHR ADD SWAP1 JUMPDEST DUP2 DUP2 LT PUSH2 0x221D JUMPI POP PUSH2 0x2139 JUMP JUMPDEST PUSH1 0x0 DUP2 SSTORE PUSH1 0x1 ADD PUSH2 0x2210 JUMP JUMPDEST SWAP1 SWAP2 POP DUP2 SWAP1 PUSH2 0x2207 JUMP JUMPDEST PUSH1 0x40 MLOAD PUSH3 0x461BCD PUSH1 0xE5 SHL DUP2 MSTORE PUSH1 0x4 DUP2 ADD DUP4 SWAP1 MSTORE PUSH1 0x21 PUSH1 0x24 DUP3 ADD MSTORE PUSH32 0x4E6F7420617574686F72697A656420746F20757064617465206C6F636174696F PUSH1 0x44 DUP3 ADD MSTORE PUSH1 0x37 PUSH1 0xF9 SHL PUSH1 0x64 DUP3 ADD MSTORE PUSH1 0x84 SWAP1 REVERT JUMPDEST POP PUSH1 0x0 DUP1 MLOAD PUSH1 0x20 PUSH2 0x5BCE DUP4 CODECOPY DUP2 MLOAD SWAP2 MSTORE PUSH1 0x0 MSTORE PUSH1 0x7 DUP3 MSTORE PUSH1 0x40 PUSH1 0x0 KECCAK256 CALLER PUSH1 0x0 MSTORE DUP3 MSTORE PUSH1 0xFF PUSH1 0x40 PUSH1 0x0 KECCAK256 SLOAD AND PUSH2 0x2101 JUMP JUMPDEST SWAP1 POP DUP2 PUSH1 0x0 MSTORE PUSH1 0x9 DUP4 MSTORE CALLER SWAP1 PUSH1 0x9 PUSH1 0x40 PUSH1 0x0 KECCAK256 ADD SLOAD AND EQ DUP5 PUSH2 0x20F9 JUMP JUMPDEST CALLVALUE PUSH2 0x5DA JUMPI PUSH1 0x0 CALLDATASIZE PUSH1 0x3 NOT ADD SLT PUSH2 0x5DA JUMPI PUSH1 0x20 PUSH1 0x40 MLOAD PUSH32 0xDDAA901E2FE3BDA354FE0EDE2785152D5C109282A613FE024A056A3E66C41BB3 DUP2 MSTORE RETURN JUMPDEST CALLVALUE PUSH2 0x5DA JUMPI PUSH1 0x40 CALLDATASIZE PUSH1 0x3 NOT ADD SLT PUSH2 0x5DA JUMPI PUSH1 0x4 CALLDATALOAD PUSH2 0x2326 PUSH2 0x4F95 JUMP JUMPDEST SWAP1 DUP1 PUSH1 0x0 MSTORE PUSH1 0x20 SWAP2 PUSH1 0x11 DUP4 MSTORE PUSH1 0x40 PUSH1 0x0 KECCAK256 SWAP1 PUSH1 0x1 DUP1 PUSH1 0xA0 SHL SUB DUP1 SWAP2 AND SWAP2 DUP3 PUSH1 0x0 MSTORE DUP5 MSTORE PUSH1 0xFF PUSH1 0x40 PUSH1 0x0 KECCAK256 SLOAD AND SWAP3 DUP4 ISZERO PUSH2 0x23D9 JUMPI JUMPDEST POP POP DUP2 ISZERO PUSH2 0x23A7 JUMPI JUMPDEST DUP2 ISZERO PUSH2 0x2375 JUMPI JUMPDEST POP PUSH1 0x40 MLOAD SWAP1 ISZERO ISZERO DUP2 MSTORE RETURN JUMPDEST SWAP1 POP PUSH1 0x0 DUP1 MLOAD PUSH1 0x20 PUSH2 0x5B8E DUP4 CODECOPY DUP2 MLOAD SWAP2 MSTORE PUSH1 0x0 MSTORE PUSH1 0x7 DUP3 MSTORE PUSH1 0x40 PUSH1 0x0 KECCAK256 SWAP1 PUSH1 0x0 MSTORE DUP2 MSTORE PUSH1 0xFF PUSH1 0x40 PUSH1 0x0 KECCAK256 SLOAD AND DUP3 PUSH2 0x236A JUMP JUMPDEST SWAP1 POP PUSH1 0x0 DUP1 MLOAD PUSH1 0x20 PUSH2 0x5BCE DUP4 CODECOPY DUP2 MLOAD SWAP2 MSTORE PUSH1 0x0 MSTORE PUSH1 0x7 DUP3 MSTORE PUSH1 0x40 PUSH1 0x0 KECCAK256 DUP2 PUSH1 0x0 MSTORE DUP3 MSTORE PUSH1 0xFF PUSH1 0x40 PUSH1 0x0 KECCAK256 SLOAD AND SWAP1 PUSH2 0x2363 JUMP JUMPDEST DUP3 SWAP4 POP PUSH2 0x23E5 SWAP1 PUSH2 0x588E JUMP JUMPDEST AND EQ SWAP1 DUP4 DUP1 PUSH2 0x235A JUMP JUMPDEST CALLVALUE PUSH2 0x5DA JUMPI PUSH1 0xC0 CALLDATASIZE PUSH1 0x3 NOT ADD SLT PUSH2 0x5DA JUMPI PUSH1 0x8 PUSH1 0x24 CALLDATALOAD LT ISZERO PUSH2 0x5DA JUMPI PUSH1 0x64 CALLDATALOAD PUSH1 0x1 PUSH1 0x1 PUSH1 0x40 SHL SUB DUP2 GT PUSH2 0x5DA JUMPI PUSH2 0x242A SWAP1 CALLDATASIZE SWAP1 PUSH1 0x4 ADD PUSH2 0x50F4 JUMP JUMPDEST PUSH1 0x84 CALLDATALOAD PUSH1 0x1 PUSH1 0x1 PUSH1 0x40 SHL SUB DUP2 GT PUSH2 0x5DA JUMPI PUSH2 0x2449 SWAP1 CALLDATASIZE SWAP1 PUSH1 0x4 ADD PUSH2 0x50F4 JUMP JUMPDEST PUSH1 0xA4 CALLDATALOAD PUSH1 0x1 PUSH1 0x1 PUSH1 0x40 SHL SUB DUP2 GT PUSH2 0x5DA JUMPI PUSH2 0x2468 SWAP1 CALLDATASIZE SWAP1 PUSH1 0x4 ADD PUSH2 0x50F4 JUMP JUMPDEST SWAP1 PUSH2 0x2471 PUSH2 0x53E6 JUMP JUMPDEST PUSH1 0x4 CALLDATALOAD PUSH1 0x0 SWAP1 DUP2 MSTORE PUSH1 0x2 PUSH1 0x20 MSTORE PUSH1 0x40 SWAP1 KECCAK256 SLOAD PUSH2 0x2497 SWAP1 PUSH1 0x1 PUSH1 0x1 PUSH1 0xA0 SHL SUB AND ISZERO ISZERO PUSH2 0x58D8 JUMP JUMPDEST PUSH1 0x40 MLOAD SWAP3 PUSH2 0x24A4 DUP5 PUSH2 0x4FF9 JUMP JUMPDEST PUSH1 0x4 CALLDATALOAD DUP5 MSTORE PUSH2 0x24B8 PUSH1 0x24 CALLDATALOAD PUSH1 0x20 DUP7 ADD PUSH2 0x59E4 JUMP JUMPDEST PUSH1 0x44 CALLDATALOAD PUSH1 0x40 DUP6 ADD MSTORE PUSH1 0x60 DUP5 ADD MSTORE PUSH1 0x80 DUP4 ADD MSTORE CALLER PUSH1 0xA0 DUP4 ADD MSTORE TIMESTAMP PUSH1 0xC0 DUP4 ADD MSTORE PUSH1 0x1 PUSH1 0xE0 DUP4 ADD MSTORE PUSH2 0x100 DUP3 ADD MSTORE PUSH1 0x4 CALLDATALOAD PUSH1 0x0 MSTORE PUSH1 0xB PUSH1 0x20 MSTORE PUSH1 0x40 PUSH1 0x0 KECCAK256 DUP1 SLOAD PUSH1 0x1 PUSH1 0x40 SHL DUP2 LT ISZERO PUSH2 0x535 JUMPI PUSH2 0x2510 SWAP2 PUSH1 0x1 DUP3 ADD DUP2 SSTORE PUSH2 0x517D JUMP JUMPDEST SWAP2 SWAP1 SWAP2 PUSH2 0x1DD8 JUMPI DUP1 MLOAD DUP3 SSTORE PUSH1 0x1 DUP3 ADD PUSH1 0x20 DUP3 ADD MLOAD PUSH1 0x8 DUP2 LT ISZERO PUSH2 0x5A6 JUMPI PUSH1 0xFF DUP1 NOT DUP4 SLOAD AND SWAP2 AND OR SWAP1 SSTORE PUSH1 0x40 DUP2 ADD MLOAD PUSH1 0x2 DUP4 ADD SSTORE PUSH1 0x60 DUP2 ADD MLOAD SWAP2 DUP3 MLOAD PUSH1 0x1 PUSH1 0x1 PUSH1 0x40 SHL SUB DUP2 GT PUSH2 0x535 JUMPI PUSH2 0x2566 PUSH1 0x3 DUP4 ADD SLOAD PUSH2 0x51AF JUMP JUMPDEST PUSH1 0x1F DUP2 GT PUSH2 0x2A61 JUMPI JUMPDEST POP PUSH1 0x20 PUSH1 0x1F DUP3 GT PUSH1 0x1 EQ PUSH2 0x29F3 JUMPI DUP2 SWAP3 SWAP4 SWAP5 PUSH1 0x0 SWAP3 PUSH2 0x29E8 JUMPI JUMPDEST POP POP DUP2 PUSH1 0x1 SHL SWAP2 PUSH1 0x0 NOT SWAP1 PUSH1 0x3 SHL SHR NOT AND OR PUSH1 0x3 DUP3 ADD SSTORE JUMPDEST PUSH1 0x80 DUP3 ADD MLOAD DUP1 MLOAD SWAP1 PUSH1 0x1 PUSH1 0x1 PUSH1 0x40 SHL SUB DUP3 GT PUSH2 0x535 JUMPI PUSH2 0x25C4 PUSH1 0x4 DUP5 ADD SLOAD PUSH2 0x51AF JUMP JUMPDEST PUSH1 0x1F DUP2 GT PUSH2 0x29A1 JUMPI JUMPDEST POP PUSH1 0x20 SWAP1 PUSH1 0x1F DUP4 GT PUSH1 0x1 EQ PUSH2 0x292B JUMPI SWAP2 DUP1 PUSH2 0x100 SWAP5 SWAP3 PUSH1 0x8 SWAP5 PUSH1 0x0 SWAP3 PUSH2 0x2920 JUMPI JUMPDEST POP POP DUP2 PUSH1 0x1 SHL SWAP2 PUSH1 0x0 NOT SWAP1 PUSH1 0x3 SHL SHR NOT AND OR PUSH1 0x4 DUP3 ADD SSTORE JUMPDEST PUSH1 0x5 DUP2 ADD PUSH1 0x1 DUP1 PUSH1 0xA0 SHL SUB PUSH1 0xA0 DUP7 ADD MLOAD AND PUSH1 0x1 PUSH1 0x1 PUSH1 0x60 SHL SUB PUSH1 0xA0 SHL DUP3 SLOAD AND OR SWAP1 SSTORE PUSH1 0xC0 DUP5 ADD MLOAD PUSH1 0x6 DUP3 ADD SSTORE PUSH2 0x2651 PUSH1 0xE0 DUP6 ADD MLOAD ISZERO ISZERO PUSH1 0x7 DUP4 ADD SWAP1 PUSH1 0xFF DUP1 NOT DUP4 SLOAD AND SWAP2 ISZERO ISZERO AND OR SWAP1 SSTORE JUMP JUMPDEST ADD SWAP2 ADD MLOAD SWAP1 DUP2 MLOAD PUSH1 0x1 PUSH1 0x1 PUSH1 0x40 SHL SUB DUP2 GT PUSH2 0x535 JUMPI PUSH2 0x2670 DUP3 SLOAD PUSH2 0x51AF JUMP JUMPDEST PUSH1 0x1F DUP2 GT PUSH2 0x28D8 JUMPI JUMPDEST POP PUSH1 0x20 SWAP3 PUSH1 0x1F DUP3 GT PUSH1 0x1 EQ PUSH2 0x2874 JUMPI SWAP3 DUP2 SWAP3 SWAP4 PUSH1 0x0 SWAP3 PUSH2 0x2869 JUMPI JUMPDEST POP POP DUP2 PUSH1 0x1 SHL SWAP2 PUSH1 0x0 NOT SWAP1 PUSH1 0x3 SHL SHR NOT AND OR SWAP1 SSTORE JUMPDEST PUSH1 0x40 MLOAD PUSH2 0x26B8 DUP2 PUSH1 0x24 CALLDATALOAD PUSH2 0x527F JUMP JUMPDEST PUSH1 0x44 CALLDATALOAD PUSH1 0x20 DUP3 ADD MSTORE TIMESTAMP PUSH1 0x40 DUP3 ADD MSTORE PUSH32 0x4A4200D10F50281FB36ABE1C43B2C85F53E92F4BFFE4CC227695F9C949F60F81 PUSH1 0x60 PUSH1 0x4 CALLDATALOAD SWAP3 LOG2 PUSH1 0x0 DUP1 PUSH1 0x40 MLOAD PUSH2 0x26FD DUP2 PUSH2 0x5030 JUMP JUMPDEST MSTORE PUSH1 0x24 CALLDATALOAD PUSH2 0x27A9 JUMPI PUSH1 0x13 NOT PUSH1 0x44 CALLDATALOAD SLT DUP1 ISZERO PUSH2 0x279D JUMPI JUMPDEST PUSH2 0x2760 JUMPI JUMPDEST PUSH2 0x271E JUMPI STOP JUMPDEST PUSH1 0x4 CALLDATALOAD PUSH1 0x0 MSTORE PUSH1 0x9 PUSH1 0x20 MSTORE PUSH1 0xFF PUSH1 0x8 PUSH1 0x40 PUSH1 0x0 KECCAK256 ADD SLOAD AND PUSH2 0x2742 PUSH1 0x40 MLOAD DUP1 SWAP3 PUSH2 0x5324 JUMP JUMPDEST ADDRESS PUSH1 0x20 DUP3 ADD MSTORE PUSH1 0x0 DUP1 MLOAD PUSH1 0x20 PUSH2 0x5BAE DUP4 CODECOPY DUP2 MLOAD SWAP2 MSTORE PUSH1 0x40 PUSH1 0x4 CALLDATALOAD SWAP3 LOG2 STOP JUMPDEST POP PUSH1 0x1 PUSH32 0x54656D7065726174757265206F7574206F662072616E67650000000000000000 PUSH1 0x20 PUSH1 0x40 MLOAD PUSH2 0x2792 DUP2 PUSH2 0x504B JUMP JUMPDEST PUSH1 0x18 DUP2 MSTORE ADD MSTORE PUSH2 0x2718 JUMP JUMPDEST POP PUSH1 0x28 PUSH1 0x44 CALLDATALOAD SGT PUSH2 0x2713 JUMP JUMPDEST PUSH1 0x24 CALLDATALOAD PUSH1 0x1 SUB PUSH2 0x280B JUMPI PUSH1 0x0 PUSH1 0x44 CALLDATALOAD SLT DUP1 ISZERO PUSH2 0x27FF JUMPI JUMPDEST PUSH2 0x27CA JUMPI JUMPDEST PUSH2 0x2718 JUMP JUMPDEST POP PUSH1 0x1 PUSH21 0x48756D6964697479206F7574206F662072616E6765 PUSH1 0x58 SHL PUSH1 0x20 PUSH1 0x40 MLOAD PUSH2 0x27F4 DUP2 PUSH2 0x504B JUMP JUMPDEST PUSH1 0x15 DUP2 MSTORE ADD MSTORE PUSH2 0x2718 JUMP JUMPDEST POP PUSH1 0x5F PUSH1 0x44 CALLDATALOAD SGT PUSH2 0x27C0 JUMP JUMPDEST PUSH1 0x2 PUSH1 0x24 CALLDATALOAD SUB PUSH2 0x2718 JUMPI PUSH1 0x0 PUSH1 0x44 CALLDATALOAD SLT DUP1 ISZERO PUSH2 0x285D JUMPI JUMPDEST ISZERO PUSH2 0x27C5 JUMPI POP PUSH1 0x1 PUSH22 0x566962726174696F6E206F7574206F662072616E6765 PUSH1 0x50 SHL PUSH1 0x20 PUSH1 0x40 MLOAD PUSH2 0x2852 DUP2 PUSH2 0x504B JUMP JUMPDEST PUSH1 0x16 DUP2 MSTORE ADD MSTORE PUSH2 0x2718 JUMP JUMPDEST POP PUSH1 0x64 PUSH1 0x44 CALLDATALOAD SGT PUSH2 0x2822 JUMP JUMPDEST ADD MLOAD SWAP1 POP DUP4 DUP1 PUSH2 0x2694 JUMP JUMPDEST PUSH1 0x1F NOT DUP3 AND SWAP4 DUP4 PUSH1 0x0 MSTORE PUSH1 0x20 PUSH1 0x0 KECCAK256 SWAP2 PUSH1 0x0 JUMPDEST DUP7 DUP2 LT PUSH2 0x28C0 JUMPI POP DUP4 PUSH1 0x1 SWAP6 SWAP7 LT PUSH2 0x28A7 JUMPI JUMPDEST POP POP POP DUP2 SHL ADD SWAP1 SSTORE PUSH2 0x26A9 JUMP JUMPDEST ADD MLOAD PUSH1 0x0 NOT PUSH1 0xF8 DUP5 PUSH1 0x3 SHL AND SHR NOT AND SWAP1 SSTORE DUP4 DUP1 DUP1 PUSH2 0x289A JUMP JUMPDEST SWAP2 SWAP3 PUSH1 0x20 PUSH1 0x1 DUP2 SWAP3 DUP7 DUP6 ADD MLOAD DUP2 SSTORE ADD SWAP5 ADD SWAP3 ADD PUSH2 0x2887 JUMP JUMPDEST DUP3 PUSH1 0x0 MSTORE PUSH1 0x20 PUSH1 0x0 KECCAK256 PUSH1 0x1F DUP4 ADD PUSH1 0x5 SHR DUP2 ADD SWAP2 PUSH1 0x20 DUP5 LT PUSH2 0x2916 JUMPI JUMPDEST PUSH1 0x1F ADD PUSH1 0x5 SHR ADD SWAP1 JUMPDEST DUP2 DUP2 LT PUSH2 0x290A JUMPI POP PUSH2 0x2679 JUMP JUMPDEST PUSH1 0x0 DUP2 SSTORE PUSH1 0x1 ADD PUSH2 0x28FD JUMP JUMPDEST SWAP1 SWAP2 POP DUP2 SWAP1 PUSH2 0x28F4 JUMP JUMPDEST ADD MLOAD SWAP1 POP DUP7 DUP1 PUSH2 0x25EE JUMP JUMPDEST SWAP1 PUSH1 0x4 DUP5 ADD PUSH1 0x0 MSTORE PUSH1 0x20 PUSH1 0x0 KECCAK256 SWAP2 PUSH1 0x0 JUMPDEST PUSH1 0x1F NOT DUP6 AND DUP2 LT PUSH2 0x2989 JUMPI POP SWAP3 PUSH2 0x100 SWAP5 SWAP3 PUSH1 0x1 SWAP3 PUSH1 0x8 SWAP6 DUP4 PUSH1 0x1F NOT DUP2 AND LT PUSH2 0x2970 JUMPI JUMPDEST POP POP POP DUP2 SHL ADD PUSH1 0x4 DUP3 ADD SSTORE PUSH2 0x2606 JUMP JUMPDEST ADD MLOAD PUSH1 0x0 NOT PUSH1 0xF8 DUP5 PUSH1 0x3 SHL AND SHR NOT AND SWAP1 SSTORE DUP7 DUP1 DUP1 PUSH2 0x2960 JUMP JUMPDEST SWAP2 SWAP3 PUSH1 0x20 PUSH1 0x1 DUP2 SWAP3 DUP7 DUP6 ADD MLOAD DUP2 SSTORE ADD SWAP5 ADD SWAP3 ADD PUSH2 0x293C JUMP JUMPDEST PUSH1 0x4 DUP5 ADD PUSH1 0x0 MSTORE PUSH1 0x20 PUSH1 0x0 KECCAK256 PUSH1 0x1F DUP5 ADD PUSH1 0x5 SHR DUP2 ADD PUSH1 0x20 DUP6 LT PUSH2 0x29E1 JUMPI JUMPDEST PUSH1 0x1F DUP4 ADD PUSH1 0x5 SHR DUP3 ADD DUP2 LT PUSH2 0x29D5 JUMPI POP POP PUSH2 0x25CD JUMP JUMPDEST PUSH1 0x0 DUP2 SSTORE PUSH1 0x1 ADD PUSH2 0x29BF JUMP JUMPDEST POP DUP1 PUSH2 0x29BF JUMP JUMPDEST ADD MLOAD SWAP1 POP DUP5 DUP1 PUSH2 0x2589 JUMP JUMPDEST PUSH1 0x3 DUP4 ADD PUSH1 0x0 MSTORE PUSH1 0x20 PUSH1 0x0 KECCAK256 SWAP1 PUSH1 0x0 JUMPDEST PUSH1 0x1F NOT DUP5 AND DUP2 LT PUSH2 0x2A49 JUMPI POP PUSH1 0x1 SWAP4 SWAP5 SWAP6 DUP4 PUSH1 0x1F NOT DUP2 AND LT PUSH2 0x2A30 JUMPI JUMPDEST POP POP POP DUP2 SHL ADD PUSH1 0x3 DUP3 ADD SSTORE PUSH2 0x25A1 JUMP JUMPDEST ADD MLOAD PUSH1 0x0 NOT PUSH1 0xF8 DUP5 PUSH1 0x3 SHL AND SHR NOT AND SWAP1 SSTORE DUP5 DUP1 DUP1 PUSH2 0x2A20 JUMP JUMPDEST SWAP1 SWAP2 PUSH1 0x20 PUSH1 0x1 DUP2 SWAP3 DUP6 DUP11 ADD MLOAD DUP2 SSTORE ADD SWAP4 ADD SWAP2 ADD PUSH2 0x2A03 JUMP JUMPDEST PUSH1 0x3 DUP4 ADD PUSH1 0x0 MSTORE PUSH1 0x20 PUSH1 0x0 KECCAK256 PUSH1 0x1F DUP4 ADD PUSH1 0x5 SHR DUP2 ADD PUSH1 0x20 DUP5 LT PUSH2 0x2AA1 JUMPI JUMPDEST PUSH1 0x1F DUP4 ADD PUSH1 0x5 SHR DUP3 ADD DUP2 LT PUSH2 0x2A95 JUMPI POP POP PUSH2 0x256F JUMP JUMPDEST PUSH1 0x0 DUP2 SSTORE PUSH1 0x1 ADD PUSH2 0x2A7F JUMP JUMPDEST POP DUP1 PUSH2 0x2A7F JUMP JUMPDEST CALLVALUE PUSH2 0x5DA JUMPI PUSH2 0x2AB6 CALLDATASIZE PUSH2 0x52F5 JUMP JUMPDEST SWAP1 DUP1 PUSH1 0x0 MSTORE PUSH1 0x20 PUSH1 0xA DUP2 MSTORE PUSH1 0x1 DUP1 PUSH1 0xA0 SHL SUB SWAP3 DUP4 PUSH1 0x2 PUSH1 0x40 PUSH1 0x0 KECCAK256 ADD SLOAD AND CALLER EQ DUP1 ISZERO PUSH2 0x2E06 JUMPI JUMPDEST ISZERO PUSH2 0x2DA5 JUMPI DUP3 PUSH1 0x0 MSTORE PUSH1 0xA DUP3 MSTORE PUSH1 0xFF PUSH1 0x2 PUSH1 0x40 PUSH1 0x0 KECCAK256 ADD SLOAD PUSH1 0xA0 SHR AND PUSH1 0x5 DUP2 LT ISZERO PUSH2 0x5A6 JUMPI PUSH1 0x2 SUB PUSH2 0x2D60 JUMPI DUP3 PUSH1 0x0 MSTORE PUSH1 0xA DUP3 MSTORE PUSH1 0x40 PUSH1 0x0 KECCAK256 SLOAD SWAP1 DUP2 PUSH1 0x0 MSTORE PUSH1 0x9 DUP4 MSTORE PUSH1 0xA PUSH1 0x40 PUSH1 0x0 KECCAK256 PUSH1 0x9 DUP2 ADD DUP1 SLOAD SWAP8 DUP9 AND SWAP8 CALLER SWAP1 PUSH1 0x1 PUSH1 0x1 PUSH1 0x60 SHL SUB PUSH1 0xA0 SHL AND OR SWAP1 SSTORE ADD SWAP5 DUP2 MLOAD SWAP6 PUSH1 0x1 PUSH1 0x1 PUSH1 0x40 SHL SUB DUP8 GT PUSH2 0x535 JUMPI PUSH2 0x2B5F DUP2 SLOAD PUSH2 0x51AF JUMP JUMPDEST PUSH1 0x1F DUP2 GT PUSH2 0x2D1A JUMPI JUMPDEST POP DUP5 SWAP7 PUSH1 0x1F DUP2 GT PUSH1 0x1 EQ PUSH2 0x2C96 JUMPI DUP1 PUSH32 0xDD3EAFCD99A3F4D8B6CE7D52CF71F07A3E59D9D6C0B066EAA314812456B6B855 SWAP8 SWAP9 PUSH1 0x0 SWAP2 PUSH2 0x2C8B JUMPI JUMPDEST POP DUP2 PUSH1 0x1 SHL SWAP2 PUSH1 0x0 NOT SWAP1 PUSH1 0x3 SHL SHR NOT AND OR SWAP1 SSTORE JUMPDEST DUP3 PUSH1 0x0 MSTORE PUSH1 0x9 DUP5 MSTORE PUSH1 0x40 PUSH1 0x0 KECCAK256 PUSH1 0x8 DUP2 ADD SWAP1 PUSH1 0xFF NOT SWAP2 PUSH1 0x3 DUP4 DUP3 SLOAD AND OR SWAP1 SSTORE PUSH1 0xB TIMESTAMP SWAP2 ADD SSTORE PUSH1 0x11 DUP6 MSTORE PUSH1 0x40 PUSH1 0x0 KECCAK256 CALLER PUSH1 0x0 MSTORE DUP6 MSTORE PUSH1 0x1 PUSH1 0x40 PUSH1 0x0 KECCAK256 SWAP2 DUP3 SLOAD AND OR SWAP1 SSTORE DUP6 PUSH1 0x0 MSTORE PUSH1 0xA DUP5 MSTORE PUSH1 0x40 PUSH1 0x0 KECCAK256 PUSH1 0x2 DUP2 ADD PUSH1 0x3 PUSH1 0xA0 SHL PUSH1 0xFF PUSH1 0xA0 SHL NOT DUP3 SLOAD AND OR SWAP1 SSTORE PUSH1 0x7 TIMESTAMP SWAP2 ADD SSTORE PUSH2 0x2C2B DUP4 CALLER DUP4 PUSH2 0x5969 JUMP JUMPDEST DUP3 PUSH32 0xD67AA7C45F61C95D774ABBDD7384089523FABB58F544DEBBC64C53E937D97741 PUSH1 0x40 MLOAD DUP7 DUP2 MSTORE DUP1 PUSH2 0x2C62 CALLER SWAP7 DUP10 DUP4 ADD SWAP1 PUSH2 0x5135 JUMP JUMPDEST SUB SWAP1 LOG4 PUSH1 0x0 DUP1 MLOAD PUSH1 0x20 PUSH2 0x5BAE DUP4 CODECOPY DUP2 MLOAD SWAP2 MSTORE PUSH1 0x40 DUP1 MLOAD PUSH1 0x3 DUP2 MSTORE CALLER DUP6 DUP3 ADD MSTORE LOG2 PUSH1 0x40 MLOAD TIMESTAMP DUP2 MSTORE LOG2 STOP JUMPDEST SWAP1 POP DUP5 ADD MLOAD DUP10 PUSH2 0x2BA2 JUMP JUMPDEST PUSH1 0x1F NOT DUP2 AND DUP3 PUSH1 0x0 MSTORE DUP7 PUSH1 0x0 KECCAK256 SWAP1 PUSH1 0x0 JUMPDEST DUP2 DUP2 LT PUSH2 0x2D03 JUMPI POP SWAP1 PUSH32 0xDD3EAFCD99A3F4D8B6CE7D52CF71F07A3E59D9D6C0B066EAA314812456B6B855 SWAP9 SWAP10 DUP4 PUSH1 0x1 SWAP5 SWAP4 LT PUSH2 0x2CEA JUMPI JUMPDEST POP POP DUP2 SHL ADD SWAP1 SSTORE PUSH2 0x2BB6 JUMP JUMPDEST DUP7 ADD MLOAD PUSH1 0x0 NOT PUSH1 0xF8 DUP5 PUSH1 0x3 SHL AND SHR NOT AND SWAP1 SSTORE DUP10 DUP1 PUSH2 0x2CDE JUMP JUMPDEST DUP7 DUP12 ADD MLOAD DUP4 SSTORE SWAP10 DUP9 ADD SWAP10 PUSH1 0x1 SWAP1 SWAP3 ADD SWAP2 DUP9 ADD PUSH2 0x2CA7 JUMP JUMPDEST DUP2 PUSH1 0x0 MSTORE DUP6 PUSH1 0x0 KECCAK256 PUSH1 0x1F DUP10 ADD PUSH1 0x5 SHR DUP2 ADD SWAP2 DUP8 DUP11 LT PUSH2 0x2D56 JUMPI JUMPDEST PUSH1 0x1F ADD PUSH1 0x5 SHR ADD SWAP1 JUMPDEST DUP2 DUP2 LT PUSH2 0x2D4A JUMPI POP PUSH2 0x2B68 JUMP JUMPDEST PUSH1 0x0 DUP2 SSTORE PUSH1 0x1 ADD PUSH2 0x2D3D JUMP JUMPDEST SWAP1 SWAP2 POP DUP2 SWAP1 PUSH2 0x2D34 JUMP JUMPDEST PUSH1 0x40 MLOAD PUSH3 0x461BCD PUSH1 0xE5 SHL DUP2 MSTORE PUSH1 0x4 DUP2 ADD DUP4 SWAP1 MSTORE PUSH1 0x17 PUSH1 0x24 DUP3 ADD MSTORE PUSH32 0x536869706D656E74206E6F7420696E207472616E736974000000000000000000 PUSH1 0x44 DUP3 ADD MSTORE PUSH1 0x64 SWAP1 REVERT JUMPDEST PUSH1 0x40 MLOAD PUSH3 0x461BCD PUSH1 0xE5 SHL DUP2 MSTORE PUSH1 0x4 DUP2 ADD DUP4 SWAP1 MSTORE PUSH1 0x33 PUSH1 0x24 DUP3 ADD MSTORE PUSH32 0x4F6E6C792064657374696E6174696F6E207061727479206F722061646D696E20 PUSH1 0x44 DUP3 ADD MSTORE PUSH19 0x18D85B8818DBDB999A5C9B481C9958D95A5C1D PUSH1 0x6A SHL PUSH1 0x64 DUP3 ADD MSTORE PUSH1 0x84 SWAP1 REVERT JUMPDEST POP PUSH1 0x0 DUP1 MLOAD PUSH1 0x20 PUSH2 0x5BCE DUP4 CODECOPY DUP2 MLOAD SWAP2 MSTORE PUSH1 0x0 MSTORE PUSH1 0x7 DUP3 MSTORE PUSH1 0x40 PUSH1 0x0 KECCAK256 CALLER PUSH1 0x0 MSTORE DUP3 MSTORE PUSH1 0xFF PUSH1 0x40 PUSH1 0x0 KECCAK256 SLOAD AND PUSH2 0x2ADD JUMP JUMPDEST CALLVALUE PUSH2 0x5DA JUMPI PUSH1 0xE0 CALLDATASIZE PUSH1 0x3 NOT ADD SLT PUSH2 0x5DA JUMPI PUSH1 0x4 CALLDATALOAD PUSH1 0x1 PUSH1 0x1 PUSH1 0x40 SHL SUB DUP2 GT PUSH2 0x5DA JUMPI PUSH2 0x2E66 SWAP1 CALLDATASIZE SWAP1 PUSH1 0x4 ADD PUSH2 0x50F4 JUMP JUMPDEST PUSH1 0x24 CALLDATALOAD PUSH1 0x1 PUSH1 0x1 PUSH1 0x40 SHL SUB DUP2 GT PUSH2 0x5DA JUMPI PUSH2 0x2E85 SWAP1 CALLDATASIZE SWAP1 PUSH1 0x4 ADD PUSH2 0x50F4 JUMP JUMPDEST PUSH1 0x44 CALLDATALOAD PUSH1 0x1 PUSH1 0x1 PUSH1 0x40 SHL SUB DUP2 GT PUSH2 0x5DA JUMPI PUSH2 0x2EA4 SWAP1 CALLDATASIZE SWAP1 PUSH1 0x4 ADD PUSH2 0x50F4 JUMP JUMPDEST PUSH1 0x64 CALLDATALOAD PUSH1 0x1 PUSH1 0x1 PUSH1 0x40 SHL SUB DUP2 GT PUSH2 0x5DA JUMPI PUSH2 0x2EC3 SWAP1 CALLDATASIZE SWAP1 PUSH1 0x4 ADD PUSH2 0x50F4 JUMP JUMPDEST SWAP2 PUSH1 0xA4 CALLDATALOAD PUSH1 0x1 PUSH1 0x1 PUSH1 0x40 SHL SUB DUP2 GT PUSH2 0x5DA JUMPI PUSH2 0x2EE3 SWAP1 CALLDATASIZE SWAP1 PUSH1 0x4 ADD PUSH2 0x50F4 JUMP JUMPDEST SWAP3 PUSH1 0xC4 CALLDATALOAD PUSH1 0x1 PUSH1 0x1 PUSH1 0xA0 SHL SUB DUP2 AND SWAP1 SUB PUSH2 0x5DA JUMPI CALLER PUSH1 0x0 SWAP1 DUP2 MSTORE PUSH32 0x74BB1CA9260FC37125F5E18E451FF1E642AA55B4EEC93CDFB89E91BFF73AAFDD PUSH1 0x20 MSTORE PUSH1 0x40 SWAP1 KECCAK256 SLOAD PUSH1 0xFF AND ISZERO PUSH2 0x3DE7 JUMPI DUP5 MLOAD ISZERO PUSH2 0x3DA2 JUMPI DUP2 MLOAD ISZERO PUSH2 0x3D5D JUMPI DUP3 MLOAD ISZERO PUSH2 0x3D18 JUMPI PUSH1 0x40 MLOAD PUSH1 0x20 DUP2 DUP8 MLOAD PUSH2 0x2F58 DUP2 DUP4 DUP6 DUP13 ADD PUSH2 0x5112 JUMP JUMPDEST DUP2 ADD PUSH1 0xC DUP2 MSTORE SUB ADD SWAP1 KECCAK256 SLOAD PUSH2 0x3CC5 JUMPI PUSH1 0x40 MLOAD PUSH1 0x20 DUP2 DUP5 MLOAD PUSH2 0x2F7C DUP2 DUP4 DUP6 DUP10 ADD PUSH2 0x5112 JUMP JUMPDEST DUP2 ADD PUSH1 0xD DUP2 MSTORE SUB ADD SWAP1 KECCAK256 SLOAD PUSH2 0x3C6F JUMPI PUSH1 0x12 SLOAD SWAP4 PUSH2 0x2F98 DUP6 PUSH2 0x58C9 JUMP JUMPDEST PUSH1 0x12 SSTORE PUSH1 0xC4 CALLDATALOAD PUSH1 0x1 PUSH1 0x1 PUSH1 0xA0 SHL SUB AND ISZERO PUSH2 0x3C56 JUMPI PUSH1 0x1 PUSH1 0x1 PUSH1 0xA0 SHL SUB PUSH2 0x2FC0 DUP7 PUSH1 0xC4 CALLDATALOAD PUSH2 0x5A8D JUMP JUMPDEST AND PUSH2 0x3C3D JUMPI DUP5 PUSH1 0x0 MSTORE PUSH1 0x6 PUSH1 0x20 MSTORE PUSH1 0x40 PUSH1 0x0 KECCAK256 DUP2 MLOAD PUSH1 0x1 PUSH1 0x1 PUSH1 0x40 SHL SUB DUP2 GT PUSH2 0x535 JUMPI PUSH2 0x2FED DUP3 SLOAD PUSH2 0x51AF JUMP JUMPDEST PUSH1 0x1F DUP2 GT PUSH2 0x3BF9 JUMPI JUMPDEST POP DUP1 PUSH1 0x20 PUSH1 0x1F DUP3 GT PUSH1 0x1 EQ PUSH2 0x3B92 JUMPI PUSH1 0x0 SWAP2 PUSH2 0x3B87 JUMPI JUMPDEST POP DUP2 PUSH1 0x1 SHL SWAP2 PUSH1 0x0 NOT SWAP1 PUSH1 0x3 SHL SHR NOT AND OR SWAP1 SSTORE JUMPDEST PUSH32 0xF8E1A15ABA9398E019F0B49DF1A4FDE98EE17AE345CB5F6B5E2C27F5033E8CE7 PUSH1 0x20 PUSH1 0x40 MLOAD DUP8 DUP2 MSTORE LOG1 PUSH1 0x40 MLOAD SWAP2 PUSH3 0x50545F PUSH1 0xE8 SHL PUSH1 0x20 DUP5 ADD MSTORE PUSH2 0x30C3 PUSH1 0x25 DUP5 DUP10 MLOAD PUSH2 0x3075 DUP2 DUP13 PUSH1 0x20 PUSH1 0x23 DUP7 ADD SWAP2 ADD PUSH2 0x5112 JUMP JUMPDEST DUP2 ADD PUSH1 0x5F PUSH1 0xF8 SHL SWAP1 DUP2 PUSH1 0x23 DUP3 ADD MSTORE DUP9 MLOAD SWAP1 PUSH2 0x3097 DUP3 PUSH1 0x24 DUP4 ADD PUSH1 0x20 DUP14 ADD PUSH2 0x5112 JUMP JUMPDEST ADD SWAP1 PUSH1 0x24 DUP3 ADD MSTORE DUP5 MLOAD SWAP1 PUSH2 0x30B1 DUP3 DUP6 DUP4 ADD PUSH1 0x20 DUP10 ADD PUSH2 0x5112 JUMP JUMPDEST ADD DUP2 SWAP1 SUB PUSH1 0x5 DUP2 ADD SWAP1 SWAP2 MSTORE ADD DUP5 PUSH2 0x5081 JUMP JUMPDEST PUSH1 0x40 MLOAD SWAP3 PUSH2 0x30D0 DUP5 PUSH2 0x4FDD JUMP JUMPDEST DUP8 DUP5 MSTORE DUP5 PUSH1 0x20 DUP6 ADD MSTORE PUSH1 0x40 DUP5 ADD MSTORE DUP5 PUSH1 0x60 DUP5 ADD MSTORE PUSH1 0x80 DUP4 ADD MSTORE TIMESTAMP PUSH1 0xA0 DUP4 ADD MSTORE PUSH1 0x84 CALLDATALOAD PUSH1 0xC0 DUP4 ADD MSTORE PUSH1 0xE0 DUP3 ADD MSTORE PUSH1 0x0 PUSH2 0x100 DUP3 ADD MSTORE CALLER PUSH2 0x120 DUP3 ADD MSTORE PUSH1 0x1 DUP1 PUSH1 0xA0 SHL SUB PUSH1 0xC4 CALLDATALOAD AND PUSH2 0x140 DUP3 ADD MSTORE PUSH1 0x40 MLOAD PUSH2 0x3128 DUP2 PUSH2 0x504B JUMP JUMPDEST PUSH1 0x16 DUP2 MSTORE PUSH22 0x4D616E75666163747572696E6720466163696C697479 PUSH1 0x50 SHL PUSH1 0x20 DUP3 ADD MSTORE PUSH2 0x160 DUP3 ADD MSTORE TIMESTAMP PUSH2 0x180 DUP3 ADD MSTORE PUSH1 0x0 PUSH2 0x1A0 DUP3 ADD MSTORE PUSH1 0x0 PUSH2 0x1C0 DUP3 ADD MSTORE DUP4 PUSH1 0x0 MSTORE PUSH1 0x9 PUSH1 0x20 MSTORE PUSH1 0x40 PUSH1 0x0 KECCAK256 DUP2 MLOAD DUP1 MLOAD SWAP1 PUSH1 0x1 PUSH1 0x1 PUSH1 0x40 SHL SUB DUP3 GT PUSH2 0x535 JUMPI DUP2 SWAP1 PUSH2 0x3195 DUP5 SLOAD PUSH2 0x51AF JUMP JUMPDEST PUSH1 0x1F DUP2 GT PUSH2 0x3B37 JUMPI JUMPDEST POP PUSH1 0x20 SWAP1 PUSH1 0x1F DUP4 GT PUSH1 0x1 EQ PUSH2 0x3ACB JUMPI PUSH1 0x0 SWAP3 PUSH2 0x3AC0 JUMPI JUMPDEST POP POP DUP2 PUSH1 0x1 SHL SWAP2 PUSH1 0x0 NOT SWAP1 PUSH1 0x3 SHL SHR NOT AND OR DUP2 SSTORE JUMPDEST PUSH1 0x20 DUP3 ADD MLOAD DUP1 MLOAD SWAP1 PUSH1 0x1 PUSH1 0x1 PUSH1 0x40 SHL SUB DUP3 GT PUSH2 0x535 JUMPI DUP2 SWAP1 PUSH2 0x31EF PUSH1 0x1 DUP6 ADD SLOAD PUSH2 0x51AF JUMP JUMPDEST PUSH1 0x1F DUP2 GT PUSH2 0x3A6D JUMPI JUMPDEST POP PUSH1 0x20 SWAP1 PUSH1 0x1F DUP4 GT PUSH1 0x1 EQ PUSH2 0x39FB JUMPI PUSH1 0x0 SWAP3 PUSH2 0x39F0 JUMPI JUMPDEST POP POP DUP2 PUSH1 0x1 SHL SWAP2 PUSH1 0x0 NOT SWAP1 PUSH1 0x3 SHL SHR NOT AND OR PUSH1 0x1 DUP3 ADD SSTORE JUMPDEST PUSH1 0x40 DUP3 ADD MLOAD DUP1 MLOAD SWAP1 PUSH1 0x1 PUSH1 0x1 PUSH1 0x40 SHL SUB DUP3 GT PUSH2 0x535 JUMPI DUP2 SWAP1 PUSH2 0x324C PUSH1 0x2 DUP6 ADD SLOAD PUSH2 0x51AF JUMP JUMPDEST PUSH1 0x1F DUP2 GT PUSH2 0x399D JUMPI JUMPDEST POP PUSH1 0x20 SWAP1 PUSH1 0x1F DUP4 GT PUSH1 0x1 EQ PUSH2 0x392B JUMPI PUSH1 0x0 SWAP3 PUSH2 0x3920 JUMPI JUMPDEST POP POP DUP2 PUSH1 0x1 SHL SWAP2 PUSH1 0x0 NOT SWAP1 PUSH1 0x3 SHL SHR NOT AND OR PUSH1 0x2 DUP3 ADD SSTORE JUMPDEST PUSH1 0x60 DUP3 ADD MLOAD DUP1 MLOAD SWAP1 PUSH1 0x1 PUSH1 0x1 PUSH1 0x40 SHL SUB DUP3 GT PUSH2 0x535 JUMPI DUP2 SWAP1 PUSH2 0x32A9 PUSH1 0x3 DUP6 ADD SLOAD PUSH2 0x51AF JUMP JUMPDEST PUSH1 0x1F DUP2 GT PUSH2 0x38CD JUMPI JUMPDEST POP PUSH1 0x20 SWAP1 PUSH1 0x1F DUP4 GT PUSH1 0x1 EQ PUSH2 0x385B JUMPI PUSH1 0x0 SWAP3 PUSH2 0x3850 JUMPI JUMPDEST POP POP DUP2 PUSH1 0x1 SHL SWAP2 PUSH1 0x0 NOT SWAP1 PUSH1 0x3 SHL SHR NOT AND OR PUSH1 0x3 DUP3 ADD SSTORE JUMPDEST PUSH1 0x80 DUP3 ADD MLOAD DUP1 MLOAD SWAP1 PUSH1 0x1 PUSH1 0x1 PUSH1 0x40 SHL SUB DUP3 GT PUSH2 0x535 JUMPI DUP2 SWAP1 PUSH2 0x3306 PUSH1 0x4 DUP6 ADD SLOAD PUSH2 0x51AF JUMP JUMPDEST PUSH1 0x1F DUP2 GT PUSH2 0x37FD JUMPI JUMPDEST POP PUSH1 0x20 SWAP1 PUSH1 0x1F DUP4 GT PUSH1 0x1 EQ PUSH2 0x378B JUMPI PUSH1 0x0 SWAP3 PUSH2 0x3780 JUMPI JUMPDEST POP POP DUP2 PUSH1 0x1 SHL SWAP2 PUSH1 0x0 NOT SWAP1 PUSH1 0x3 SHL SHR NOT AND OR PUSH1 0x4 DUP3 ADD SSTORE JUMPDEST PUSH1 0xA0 DUP3 ADD MLOAD PUSH1 0x5 DUP3 ADD SSTORE PUSH1 0xC0 DUP3 ADD MLOAD PUSH1 0x6 DUP3 ADD SSTORE PUSH1 0xE0 DUP3 ADD MLOAD DUP1 MLOAD SWAP1 PUSH1 0x1 PUSH1 0x1 PUSH1 0x40 SHL SUB DUP3 GT PUSH2 0x535 JUMPI DUP2 SWAP1 PUSH2 0x3377 PUSH1 0x7 DUP6 ADD SLOAD PUSH2 0x51AF JUMP JUMPDEST PUSH1 0x1F DUP2 GT PUSH2 0x372D JUMPI JUMPDEST POP PUSH1 0x20 SWAP1 PUSH1 0x1F DUP4 GT PUSH1 0x1 EQ PUSH2 0x36BB JUMPI PUSH1 0x0 SWAP3 PUSH2 0x36B0 JUMPI JUMPDEST POP POP DUP2 PUSH1 0x1 SHL SWAP2 PUSH1 0x0 NOT SWAP1 PUSH1 0x3 SHL SHR NOT AND OR PUSH1 0x7 DUP3 ADD SSTORE JUMPDEST PUSH2 0x100 DUP3 ADD MLOAD PUSH1 0x6 DUP2 LT ISZERO PUSH2 0x5A6 JUMPI PUSH1 0x8 DUP3 DUP2 ADD DUP1 SLOAD PUSH2 0x120 DUP7 ADD MLOAD PUSH1 0x1 PUSH1 0x1 PUSH1 0xA8 SHL SUB NOT SWAP1 SWAP2 AND PUSH1 0xFF SWAP5 SWAP1 SWAP5 AND SWAP4 SWAP1 SWAP4 OR SWAP3 SWAP1 SWAP2 SHL PUSH2 0x100 PUSH1 0x1 PUSH1 0xA8 SHL SUB AND SWAP2 SWAP1 SWAP2 OR SWAP1 SSTORE PUSH1 0x9 DUP2 ADD PUSH1 0x1 DUP1 PUSH1 0xA0 SHL SUB PUSH2 0x140 DUP5 ADD MLOAD AND PUSH1 0x1 PUSH1 0x1 PUSH1 0x60 SHL SUB PUSH1 0xA0 SHL DUP3 SLOAD AND OR SWAP1 SSTORE PUSH2 0x160 DUP3 ADD MLOAD DUP1 MLOAD SWAP1 PUSH1 0x1 PUSH1 0x1 PUSH1 0x40 SHL SUB DUP3 GT PUSH2 0x535 JUMPI PUSH2 0x343C PUSH1 0xA DUP5 ADD SLOAD PUSH2 0x51AF JUMP JUMPDEST PUSH1 0x1F DUP2 GT PUSH2 0x3669 JUMPI JUMPDEST POP SWAP2 PUSH1 0x20 SWAP8 SWAP4 SWAP2 DUP8 SWAP6 SWAP4 DUP10 SWAP1 PUSH1 0x1F DUP4 GT PUSH1 0x1 EQ PUSH2 0x35C5 JUMPI SWAP4 PUSH2 0x1C0 PUSH1 0xC PUSH2 0x3591 SWAP6 DUP6 PUSH2 0x3582 SWAP7 PUSH2 0x3575 SWAP11 SWAP7 PUSH32 0x2E81E137755E5A5EB258F5B5E1258007A5E96E970880D7C8EE40E68F91DB8A4D SWAP13 SWAP11 PUSH1 0x0 SWAP3 PUSH2 0x35BA JUMPI JUMPDEST POP POP DUP2 PUSH1 0x1 SHL SWAP2 PUSH1 0x0 NOT SWAP1 PUSH1 0x3 SHL SHR NOT AND OR PUSH1 0xA DUP3 ADD SSTORE JUMPDEST PUSH2 0x180 DUP5 ADD MLOAD PUSH1 0xB DUP3 ADD SSTORE ADD SWAP2 PUSH2 0x34DD PUSH2 0x1A0 DUP3 ADD MLOAD ISZERO ISZERO DUP5 SWAP1 PUSH1 0xFF DUP1 NOT DUP4 SLOAD AND SWAP2 ISZERO ISZERO AND OR SWAP1 SSTORE JUMP JUMPDEST ADD MLOAD ISZERO ISZERO PUSH2 0xFF00 DUP3 SLOAD SWAP2 PUSH1 0x8 SHL AND SWAP1 PUSH2 0xFF00 NOT AND OR SWAP1 SSTORE DUP7 PUSH1 0x40 MLOAD DUP12 DUP2 DUP8 MLOAD PUSH2 0x3509 DUP2 DUP4 DUP6 DUP13 ADD PUSH2 0x5112 JUMP JUMPDEST DUP2 ADD PUSH1 0xC DUP2 MSTORE SUB ADD SWAP1 KECCAK256 SSTORE DUP7 PUSH1 0x40 MLOAD DUP12 DUP2 DUP5 MLOAD PUSH2 0x3529 DUP2 DUP4 DUP6 DUP10 ADD PUSH2 0x5112 JUMP JUMPDEST DUP2 ADD PUSH1 0xD DUP2 MSTORE SUB ADD SWAP1 KECCAK256 SSTORE DUP7 PUSH1 0x0 MSTORE PUSH1 0x11 DUP11 MSTORE PUSH1 0x40 PUSH1 0x0 KECCAK256 PUSH1 0x1 DUP1 PUSH1 0xA0 SHL SUB PUSH1 0xC4 CALLDATALOAD AND PUSH1 0x0 MSTORE DUP11 MSTORE PUSH1 0x40 PUSH1 0x0 KECCAK256 PUSH1 0x1 PUSH1 0xFF NOT DUP3 SLOAD AND OR SWAP1 SSTORE PUSH1 0x40 MLOAD SWAP5 DUP6 SWAP5 PUSH1 0x60 DUP7 MSTORE PUSH1 0x60 DUP7 ADD SWAP1 PUSH2 0x5135 JUMP JUMPDEST SWAP1 DUP5 DUP3 SUB DUP12 DUP7 ADD MSTORE PUSH2 0x5135 JUMP JUMPDEST DUP3 DUP2 SUB PUSH1 0x40 DUP5 ADD MSTORE CALLER SWAP7 PUSH2 0x5135 JUMP JUMPDEST SUB SWAP1 LOG3 DUP1 PUSH1 0x0 DUP1 MLOAD PUSH1 0x20 PUSH2 0x5BAE DUP4 CODECOPY DUP2 MLOAD SWAP2 MSTORE PUSH1 0x40 DUP1 MLOAD PUSH1 0x0 DUP2 MSTORE CALLER DUP7 DUP3 ADD MSTORE LOG2 PUSH1 0x40 MLOAD SWAP1 DUP2 MSTORE RETURN JUMPDEST ADD MLOAD SWAP1 POP CODESIZE DUP1 PUSH2 0x349B JUMP JUMPDEST SWAP1 PUSH1 0xA DUP5 ADD PUSH1 0x0 MSTORE DUP11 PUSH1 0x0 KECCAK256 SWAP2 PUSH1 0x0 JUMPDEST PUSH1 0x1F NOT DUP6 AND DUP2 LT PUSH2 0x364F JUMPI POP PUSH1 0xC PUSH2 0x3591 SWAP6 PUSH1 0x1 DUP7 PUSH2 0x3575 SWAP11 SWAP7 PUSH32 0x2E81E137755E5A5EB258F5B5E1258007A5E96E970880D7C8EE40E68F91DB8A4D SWAP13 SWAP11 SWAP7 PUSH2 0x1C0 SWAP7 PUSH2 0x3582 SWAP11 PUSH1 0x1F NOT DUP2 AND LT PUSH2 0x3636 JUMPI JUMPDEST POP POP POP DUP2 SHL ADD PUSH1 0xA DUP3 ADD SSTORE PUSH2 0x34B3 JUMP JUMPDEST ADD MLOAD PUSH1 0x0 NOT PUSH1 0xF8 DUP5 PUSH1 0x3 SHL AND SHR NOT AND SWAP1 SSTORE CODESIZE DUP1 DUP1 PUSH2 0x3626 JUMP JUMPDEST DUP2 DUP4 ADD MLOAD DUP5 SSTORE DUP12 SWAP10 POP PUSH1 0x1 SWAP1 SWAP4 ADD SWAP3 SWAP2 DUP13 ADD SWAP2 DUP13 ADD PUSH2 0x35D5 JUMP JUMPDEST PUSH1 0xA DUP5 ADD PUSH1 0x0 MSTORE PUSH1 0x20 PUSH1 0x0 KECCAK256 PUSH1 0x1F DUP5 ADD PUSH1 0x5 SHR DUP2 ADD PUSH1 0x20 DUP6 LT PUSH2 0x36A9 JUMPI JUMPDEST PUSH1 0x1F DUP4 ADD PUSH1 0x5 SHR DUP3 ADD DUP2 LT PUSH2 0x369D JUMPI POP POP PUSH2 0x3445 JUMP JUMPDEST PUSH1 0x0 DUP2 SSTORE PUSH1 0x1 ADD PUSH2 0x3687 JUMP JUMPDEST POP DUP1 PUSH2 0x3687 JUMP JUMPDEST ADD MLOAD SWAP1 POP DUP9 DUP1 PUSH2 0x3397 JUMP JUMPDEST SWAP3 POP PUSH1 0x7 DUP5 ADD PUSH1 0x0 MSTORE PUSH1 0x20 PUSH1 0x0 KECCAK256 SWAP1 PUSH1 0x0 SWAP4 JUMPDEST PUSH1 0x1F NOT DUP5 AND DUP6 LT PUSH2 0x3712 JUMPI PUSH1 0x1 SWAP5 POP DUP4 PUSH1 0x1F NOT DUP2 AND LT PUSH2 0x36F9 JUMPI JUMPDEST POP POP POP DUP2 SHL ADD PUSH1 0x7 DUP3 ADD SSTORE PUSH2 0x33AF JUMP JUMPDEST ADD MLOAD PUSH1 0x0 NOT PUSH1 0xF8 DUP5 PUSH1 0x3 SHL AND SHR NOT AND SWAP1 SSTORE DUP9 DUP1 DUP1 PUSH2 0x36E9 JUMP JUMPDEST DUP2 DUP2 ADD MLOAD DUP4 SSTORE PUSH1 0x20 SWAP5 DUP6 ADD SWAP5 PUSH1 0x1 SWAP1 SWAP4 ADD SWAP3 SWAP1 SWAP2 ADD SWAP1 PUSH2 0x36CE JUMP JUMPDEST SWAP1 SWAP2 POP PUSH1 0x7 DUP5 ADD PUSH1 0x0 MSTORE PUSH1 0x20 PUSH1 0x0 KECCAK256 PUSH1 0x1F DUP5 ADD PUSH1 0x5 SHR DUP2 ADD PUSH1 0x20 DUP6 LT PUSH2 0x3779 JUMPI JUMPDEST SWAP1 DUP5 SWAP4 SWAP3 SWAP2 JUMPDEST PUSH1 0x1F DUP4 ADD PUSH1 0x5 SHR DUP3 ADD DUP2 LT PUSH2 0x376A JUMPI POP POP PUSH2 0x3380 JUMP JUMPDEST PUSH1 0x0 DUP2 SSTORE DUP6 SWAP5 POP PUSH1 0x1 ADD PUSH2 0x3754 JUMP JUMPDEST POP DUP1 PUSH2 0x374E JUMP JUMPDEST ADD MLOAD SWAP1 POP DUP9 DUP1 PUSH2 0x3326 JUMP JUMPDEST SWAP3 POP PUSH1 0x4 DUP5 ADD PUSH1 0x0 MSTORE PUSH1 0x20 PUSH1 0x0 KECCAK256 SWAP1 PUSH1 0x0 SWAP4 JUMPDEST PUSH1 0x1F NOT DUP5 AND DUP6 LT PUSH2 0x37E2 JUMPI PUSH1 0x1 SWAP5 POP DUP4 PUSH1 0x1F NOT DUP2 AND LT PUSH2 0x37C9 JUMPI JUMPDEST POP POP POP DUP2 SHL ADD PUSH1 0x4 DUP3 ADD SSTORE PUSH2 0x333E JUMP JUMPDEST ADD MLOAD PUSH1 0x0 NOT PUSH1 0xF8 DUP5 PUSH1 0x3 SHL AND SHR NOT AND SWAP1 SSTORE DUP9 DUP1 DUP1 PUSH2 0x37B9 JUMP JUMPDEST DUP2 DUP2 ADD MLOAD DUP4 SSTORE PUSH1 0x20 SWAP5 DUP6 ADD SWAP5 PUSH1 0x1 SWAP1 SWAP4 ADD SWAP3 SWAP1 SWAP2 ADD SWAP1 PUSH2 0x379E JUMP JUMPDEST SWAP1 SWAP2 POP PUSH1 0x4 DUP5 ADD PUSH1 0x0 MSTORE PUSH1 0x20 PUSH1 0x0 KECCAK256 PUSH1 0x1F DUP5 ADD PUSH1 0x5 SHR DUP2 ADD PUSH1 0x20 DUP6 LT PUSH2 0x3849 JUMPI JUMPDEST SWAP1 DUP5 SWAP4 SWAP3 SWAP2 JUMPDEST PUSH1 0x1F DUP4 ADD PUSH1 0x5 SHR DUP3 ADD DUP2 LT PUSH2 0x383A JUMPI POP POP PUSH2 0x330F JUMP JUMPDEST PUSH1 0x0 DUP2 SSTORE DUP6 SWAP5 POP PUSH1 0x1 ADD PUSH2 0x3824 JUMP JUMPDEST POP DUP1 PUSH2 0x381E JUMP JUMPDEST ADD MLOAD SWAP1 POP DUP9 DUP1 PUSH2 0x32C9 JUMP JUMPDEST SWAP3 POP PUSH1 0x3 DUP5 ADD PUSH1 0x0 MSTORE PUSH1 0x20 PUSH1 0x0 KECCAK256 SWAP1 PUSH1 0x0 SWAP4 JUMPDEST PUSH1 0x1F NOT DUP5 AND DUP6 LT PUSH2 0x38B2 JUMPI PUSH1 0x1 SWAP5 POP DUP4 PUSH1 0x1F NOT DUP2 AND LT PUSH2 0x3899 JUMPI JUMPDEST POP POP POP DUP2 SHL ADD PUSH1 0x3 DUP3 ADD SSTORE PUSH2 0x32E1 JUMP JUMPDEST ADD MLOAD PUSH1 0x0 NOT PUSH1 0xF8 DUP5 PUSH1 0x3 SHL AND SHR NOT AND SWAP1 SSTORE DUP9 DUP1 DUP1 PUSH2 0x3889 JUMP JUMPDEST DUP2 DUP2 ADD MLOAD DUP4 SSTORE PUSH1 0x20 SWAP5 DUP6 ADD SWAP5 PUSH1 0x1 SWAP1 SWAP4 ADD SWAP3 SWAP1 SWAP2 ADD SWAP1 PUSH2 0x386E JUMP JUMPDEST SWAP1 SWAP2 POP PUSH1 0x3 DUP5 ADD PUSH1 0x0 MSTORE PUSH1 0x20 PUSH1 0x0 KECCAK256 PUSH1 0x1F DUP5 ADD PUSH1 0x5 SHR DUP2 ADD PUSH1 0x20 DUP6 LT PUSH2 0x3919 JUMPI JUMPDEST SWAP1 DUP5 SWAP4 SWAP3 SWAP2 JUMPDEST PUSH1 0x1F DUP4 ADD PUSH1 0x5 SHR DUP3 ADD DUP2 LT PUSH2 0x390A JUMPI POP POP PUSH2 0x32B2 JUMP JUMPDEST PUSH1 0x0 DUP2 SSTORE DUP6 SWAP5 POP PUSH1 0x1 ADD PUSH2 0x38F4 JUMP JUMPDEST POP DUP1 PUSH2 0x38EE JUMP JUMPDEST ADD MLOAD SWAP1 POP DUP9 DUP1 PUSH2 0x326C JUMP JUMPDEST SWAP3 POP PUSH1 0x2 DUP5 ADD PUSH1 0x0 MSTORE PUSH1 0x20 PUSH1 0x0 KECCAK256 SWAP1 PUSH1 0x0 SWAP4 JUMPDEST PUSH1 0x1F NOT DUP5 AND DUP6 LT PUSH2 0x3982 JUMPI PUSH1 0x1 SWAP5 POP DUP4 PUSH1 0x1F NOT DUP2 AND LT PUSH2 0x3969 JUMPI JUMPDEST POP POP POP DUP2 SHL ADD PUSH1 0x2 DUP3 ADD SSTORE PUSH2 0x3284 JUMP JUMPDEST ADD MLOAD PUSH1 0x0 NOT PUSH1 0xF8 DUP5 PUSH1 0x3 SHL AND SHR NOT AND SWAP1 SSTORE DUP9 DUP1 DUP1 PUSH2 0x3959 JUMP JUMPDEST DUP2 DUP2 ADD MLOAD DUP4 SSTORE PUSH1 0x20 SWAP5 DUP6 ADD SWAP5 PUSH1 0x1 SWAP1 SWAP4 ADD SWAP3 SWAP1 SWAP2 ADD SWAP1 PUSH2 0x393E JUMP JUMPDEST SWAP1 SWAP2 POP PUSH1 0x2 DUP5 ADD PUSH1 0x0 MSTORE PUSH1 0x20 PUSH1 0x0 KECCAK256 PUSH1 0x1F DUP5 ADD PUSH1 0x5 SHR DUP2 ADD PUSH1 0x20 DUP6 LT PUSH2 0x39E9 JUMPI JUMPDEST SWAP1 DUP5 SWAP4 SWAP3 SWAP2 JUMPDEST PUSH1 0x1F DUP4 ADD PUSH1 0x5 SHR DUP3 ADD DUP2 LT PUSH2 0x39DA JUMPI POP POP PUSH2 0x3255 JUMP JUMPDEST PUSH1 0x0 DUP2 SSTORE DUP6 SWAP5 POP PUSH1 0x1 ADD PUSH2 0x39C4 JUMP JUMPDEST POP DUP1 PUSH2 0x39BE JUMP JUMPDEST ADD MLOAD SWAP1 POP DUP9 DUP1 PUSH2 0x320F JUMP JUMPDEST SWAP3 POP PUSH1 0x1 DUP5 ADD PUSH1 0x0 MSTORE PUSH1 0x20 PUSH1 0x0 KECCAK256 SWAP1 PUSH1 0x0 SWAP4 JUMPDEST PUSH1 0x1F NOT DUP5 AND DUP6 LT PUSH2 0x3A52 JUMPI PUSH1 0x1 SWAP5 POP DUP4 PUSH1 0x1F NOT DUP2 AND LT PUSH2 0x3A39 JUMPI JUMPDEST POP POP POP DUP2 SHL ADD PUSH1 0x1 DUP3 ADD SSTORE PUSH2 0x3227 JUMP JUMPDEST ADD MLOAD PUSH1 0x0 NOT PUSH1 0xF8 DUP5 PUSH1 0x3 SHL AND SHR NOT AND SWAP1 SSTORE DUP9 DUP1 DUP1 PUSH2 0x3A29 JUMP JUMPDEST DUP2 DUP2 ADD MLOAD DUP4 SSTORE PUSH1 0x20 SWAP5 DUP6 ADD SWAP5 PUSH1 0x1 SWAP1 SWAP4 ADD SWAP3 SWAP1 SWAP2 ADD SWAP1 PUSH2 0x3A0E JUMP JUMPDEST SWAP1 SWAP2 POP PUSH1 0x1 DUP5 ADD PUSH1 0x0 MSTORE PUSH1 0x20 PUSH1 0x0 KECCAK256 PUSH1 0x1F DUP5 ADD PUSH1 0x5 SHR DUP2 ADD PUSH1 0x20 DUP6 LT PUSH2 0x3AB9 JUMPI JUMPDEST SWAP1 DUP5 SWAP4 SWAP3 SWAP2 JUMPDEST PUSH1 0x1F DUP4 ADD PUSH1 0x5 SHR DUP3 ADD DUP2 LT PUSH2 0x3AAA JUMPI POP POP PUSH2 0x31F8 JUMP JUMPDEST PUSH1 0x0 DUP2 SSTORE DUP6 SWAP5 POP PUSH1 0x1 ADD PUSH2 0x3A94 JUMP JUMPDEST POP DUP1 PUSH2 0x3A8E JUMP JUMPDEST ADD MLOAD SWAP1 POP DUP9 DUP1 PUSH2 0x31B5 JUMP JUMPDEST SWAP3 POP DUP4 PUSH1 0x0 MSTORE PUSH1 0x20 PUSH1 0x0 KECCAK256 SWAP1 PUSH1 0x0 SWAP4 JUMPDEST PUSH1 0x1F NOT DUP5 AND DUP6 LT PUSH2 0x3B1C JUMPI PUSH1 0x1 SWAP5 POP DUP4 PUSH1 0x1F NOT DUP2 AND LT PUSH2 0x3B03 JUMPI JUMPDEST POP POP POP DUP2 SHL ADD DUP2 SSTORE PUSH2 0x31CA JUMP JUMPDEST ADD MLOAD PUSH1 0x0 NOT PUSH1 0xF8 DUP5 PUSH1 0x3 SHL AND SHR NOT AND SWAP1 SSTORE DUP9 DUP1 DUP1 PUSH2 0x3AF6 JUMP JUMPDEST DUP2 DUP2 ADD MLOAD DUP4 SSTORE PUSH1 0x20 SWAP5 DUP6 ADD SWAP5 PUSH1 0x1 SWAP1 SWAP4 ADD SWAP3 SWAP1 SWAP2 ADD SWAP1 PUSH2 0x3ADB JUMP JUMPDEST SWAP1 SWAP2 POP DUP4 PUSH1 0x0 MSTORE PUSH1 0x20 PUSH1 0x0 KECCAK256 PUSH1 0x1F DUP5 ADD PUSH1 0x5 SHR DUP2 ADD PUSH1 0x20 DUP6 LT PUSH2 0x3B80 JUMPI JUMPDEST SWAP1 DUP5 SWAP4 SWAP3 SWAP2 JUMPDEST PUSH1 0x1F DUP4 ADD PUSH1 0x5 SHR DUP3 ADD DUP2 LT PUSH2 0x3B71 JUMPI POP POP PUSH2 0x319E JUMP JUMPDEST PUSH1 0x0 DUP2 SSTORE DUP6 SWAP5 POP PUSH1 0x1 ADD PUSH2 0x3B5B JUMP JUMPDEST POP DUP1 PUSH2 0x3B55 JUMP JUMPDEST SWAP1 POP DUP4 ADD MLOAD DUP10 PUSH2 0x300D JUMP JUMPDEST SWAP2 POP DUP3 PUSH1 0x0 MSTORE PUSH1 0x20 PUSH1 0x0 KECCAK256 PUSH1 0x0 SWAP3 JUMPDEST PUSH1 0x1F NOT DUP4 AND DUP5 LT PUSH2 0x3BE1 JUMPI PUSH1 0x1 SWAP4 POP DUP3 PUSH1 0x1F NOT DUP2 AND LT PUSH2 0x3BC8 JUMPI JUMPDEST POP POP DUP2 SHL ADD SWAP1 SSTORE PUSH2 0x3021 JUMP JUMPDEST DUP6 ADD MLOAD PUSH1 0x0 NOT PUSH1 0xF8 DUP5 PUSH1 0x3 SHL AND SHR NOT AND SWAP1 SSTORE DUP10 DUP1 PUSH2 0x3BBC JUMP JUMPDEST DUP6 DUP2 ADD MLOAD DUP3 SSTORE PUSH1 0x20 SWAP4 DUP5 ADD SWAP4 PUSH1 0x1 SWAP1 SWAP3 ADD SWAP2 ADD PUSH2 0x3BA1 JUMP JUMPDEST DUP3 PUSH1 0x0 MSTORE PUSH1 0x20 PUSH1 0x0 KECCAK256 PUSH1 0x1F DUP4 ADD PUSH1 0x5 SHR DUP2 ADD PUSH1 0x20 DUP5 LT PUSH2 0x3C36 JUMPI JUMPDEST PUSH1 0x1F DUP4 ADD PUSH1 0x5 SHR DUP3 ADD DUP2 LT PUSH2 0x3C2A JUMPI POP POP PUSH2 0x2FF6 JUMP JUMPDEST PUSH1 0x0 DUP2 SSTORE PUSH1 0x1 ADD PUSH2 0x3C14 JUMP JUMPDEST POP DUP1 PUSH2 0x3C14 JUMP JUMPDEST PUSH1 0x40 MLOAD PUSH4 0x39E35637 PUSH1 0xE1 SHL DUP2 MSTORE PUSH1 0x0 PUSH1 0x4 DUP3 ADD MSTORE PUSH1 0x24 SWAP1 REVERT JUMPDEST PUSH1 0x40 MLOAD PUSH4 0x32505749 PUSH1 0xE1 SHL DUP2 MSTORE PUSH1 0x0 PUSH1 0x4 DUP3 ADD MSTORE PUSH1 0x24 SWAP1 REVERT JUMPDEST PUSH1 0x40 MLOAD PUSH3 0x461BCD PUSH1 0xE5 SHL DUP2 MSTORE PUSH1 0x20 PUSH1 0x4 DUP3 ADD MSTORE PUSH1 0x28 PUSH1 0x24 DUP3 ADD MSTORE PUSH32 0x50726F647563742077697468207468697320626172636F646520616C72656164 PUSH1 0x44 DUP3 ADD MSTORE PUSH8 0x7920657869737473 PUSH1 0xC0 SHL PUSH1 0x64 DUP3 ADD MSTORE PUSH1 0x84 SWAP1 REVERT JUMPDEST PUSH1 0x40 MLOAD PUSH3 0x461BCD PUSH1 0xE5 SHL DUP2 MSTORE PUSH1 0x20 PUSH1 0x4 DUP3 ADD MSTORE PUSH1 0x25 PUSH1 0x24 DUP3 ADD MSTORE PUSH32 0x50726F6475637420776974682074686973205246494420616C72656164792065 PUSH1 0x44 DUP3 ADD MSTORE PUSH5 0x7869737473 PUSH1 0xD8 SHL PUSH1 0x64 DUP3 ADD MSTORE PUSH1 0x84 SWAP1 REVERT JUMPDEST PUSH1 0x40 MLOAD PUSH3 0x461BCD PUSH1 0xE5 SHL DUP2 MSTORE PUSH1 0x20 PUSH1 0x4 DUP3 ADD MSTORE PUSH1 0x1C PUSH1 0x24 DUP3 ADD MSTORE PUSH32 0x50726F64756374206E616D652063616E6E6F7420626520656D70747900000000 PUSH1 0x44 DUP3 ADD MSTORE PUSH1 0x64 SWAP1 REVERT JUMPDEST PUSH1 0x40 MLOAD PUSH3 0x461BCD PUSH1 0xE5 SHL DUP2 MSTORE PUSH1 0x20 PUSH1 0x4 DUP3 ADD MSTORE PUSH1 0x17 PUSH1 0x24 DUP3 ADD MSTORE PUSH32 0x426172636F64652063616E6E6F7420626520656D707479000000000000000000 PUSH1 0x44 DUP3 ADD MSTORE PUSH1 0x64 SWAP1 REVERT JUMPDEST PUSH1 0x40 MLOAD PUSH3 0x461BCD PUSH1 0xE5 SHL DUP2 MSTORE PUSH1 0x20 PUSH1 0x4 DUP3 ADD MSTORE PUSH1 0x19 PUSH1 0x24 DUP3 ADD MSTORE PUSH32 0x5246494420686173682063616E6E6F7420626520656D70747900000000000000 PUSH1 0x44 DUP3 ADD MSTORE PUSH1 0x64 SWAP1 REVERT JUMPDEST PUSH1 0x40 MLOAD PUSH4 0xE2517D3F PUSH1 0xE0 SHL DUP2 MSTORE CALLER PUSH1 0x4 DUP3 ADD MSTORE PUSH32 0xEEFB95E842A3287179D933B4460BE539A1D5AF11AA8B325BB45C5C8DC92DE4ED PUSH1 0x24 DUP3 ADD MSTORE PUSH1 0x44 SWAP1 REVERT JUMPDEST CALLVALUE PUSH2 0x5DA JUMPI PUSH2 0xC29 PUSH2 0x3E36 CALLDATASIZE PUSH2 0x528C JUMP JUMPDEST SWAP1 PUSH1 0x40 MLOAD SWAP3 PUSH2 0x3E44 DUP5 PUSH2 0x5030 JUMP JUMPDEST PUSH1 0x0 DUP5 MSTORE PUSH2 0x573A JUMP JUMPDEST CALLVALUE PUSH2 0x5DA JUMPI PUSH1 0x20 CALLDATASIZE PUSH1 0x3 NOT ADD SLT PUSH2 0x5DA JUMPI PUSH1 0x4 CALLDATALOAD PUSH1 0x1 PUSH1 0x1 PUSH1 0x40 SHL SUB DUP2 GT PUSH2 0x5DA JUMPI PUSH2 0x3E83 PUSH1 0x20 PUSH2 0xD6E DUP2 SWAP4 CALLDATASIZE SWAP1 PUSH1 0x4 ADD PUSH2 0x50F4 JUMP JUMPDEST DUP2 ADD PUSH1 0xD DUP2 MSTORE SUB ADD SWAP1 KECCAK256 SLOAD PUSH1 0x40 MLOAD SWAP1 DUP2 MSTORE RETURN JUMPDEST CALLVALUE PUSH2 0x5DA JUMPI PUSH2 0x3EA4 CALLDATASIZE PUSH2 0x5167 JUMP JUMPDEST SWAP1 PUSH1 0x0 MSTORE PUSH1 0x10 PUSH1 0x20 MSTORE PUSH1 0x40 PUSH1 0x0 KECCAK256 DUP1 SLOAD DUP3 LT ISZERO PUSH2 0x5DA JUMPI PUSH2 0x3F18 SWAP2 PUSH2 0x3EC8 SWAP2 PUSH2 0x52D9 JUMP JUMPDEST POP PUSH1 0x40 MLOAD SWAP1 PUSH2 0x3EE2 DUP3 PUSH2 0x3EDB DUP2 DUP5 PUSH2 0x51E9 JUMP JUMPDEST SUB DUP4 PUSH2 0x5081 JUMP JUMPDEST PUSH1 0x40 MLOAD PUSH2 0x3EF6 DUP2 PUSH2 0x763 DUP2 PUSH1 0x1 DUP7 ADD PUSH2 0x51E9 JUMP JUMPDEST PUSH2 0x3F26 PUSH1 0x3 PUSH1 0x2 DUP5 ADD SLOAD SWAP4 ADD SLOAD SWAP2 PUSH1 0x40 MLOAD SWAP6 DUP7 SWAP6 PUSH1 0xA0 DUP8 MSTORE PUSH1 0xA0 DUP8 ADD SWAP1 PUSH2 0x5135 JUMP JUMPDEST SWAP1 DUP6 DUP3 SUB PUSH1 0x20 DUP8 ADD MSTORE PUSH2 0x5135 JUMP JUMPDEST PUSH1 0xFF DUP4 AND ISZERO ISZERO PUSH1 0x40 DUP6 ADD MSTORE PUSH1 0x8 SWAP3 SWAP1 SWAP3 SHR PUSH1 0x1 PUSH1 0x1 PUSH1 0xA0 SHL SUB AND PUSH1 0x60 DUP5 ADD MSTORE PUSH1 0x80 DUP4 ADD MSTORE SUB SWAP1 RETURN JUMPDEST CALLVALUE PUSH2 0x5DA JUMPI PUSH1 0x40 CALLDATASIZE PUSH1 0x3 NOT ADD SLT PUSH2 0x5DA JUMPI PUSH2 0x3F67 PUSH2 0x4F95 JUMP JUMPDEST CALLER PUSH1 0x1 PUSH1 0x1 PUSH1 0xA0 SHL SUB DUP3 AND SUB PUSH2 0x3F83 JUMPI PUSH2 0xC29 SWAP1 PUSH1 0x4 CALLDATALOAD PUSH2 0x54E8 JUMP JUMPDEST PUSH1 0x40 MLOAD PUSH4 0x334BD919 PUSH1 0xE1 SHL DUP2 MSTORE PUSH1 0x4 SWAP1 REVERT JUMPDEST CALLVALUE PUSH2 0x5DA JUMPI PUSH2 0x3FA3 CALLDATASIZE PUSH2 0x5167 JUMP JUMPDEST SWAP1 PUSH1 0x0 MSTORE PUSH1 0xE PUSH1 0x20 MSTORE PUSH1 0x40 PUSH1 0x0 KECCAK256 DUP1 SLOAD DUP3 LT ISZERO PUSH2 0x5DA JUMPI PUSH1 0x20 SWAP2 PUSH2 0x3FC6 SWAP2 PUSH2 0x52C1 JUMP JUMPDEST SWAP1 SLOAD PUSH1 0x40 MLOAD SWAP2 PUSH1 0x3 SHL SHR DUP2 MSTORE RETURN JUMPDEST CALLVALUE PUSH2 0x5DA JUMPI PUSH1 0x40 CALLDATASIZE PUSH1 0x3 NOT ADD SLT PUSH2 0x5DA JUMPI PUSH2 0xC29 PUSH1 0x4 CALLDATALOAD PUSH2 0x3FF3 PUSH2 0x4F95 JUMP JUMPDEST SWAP1 DUP1 PUSH1 0x0 MSTORE PUSH1 0x7 PUSH1 0x20 MSTORE PUSH2 0x400E PUSH1 0x1 PUSH1 0x40 PUSH1 0x0 KECCAK256 ADD SLOAD PUSH2 0x5442 JUMP JUMPDEST PUSH2 0x5468 JUMP JUMPDEST CALLVALUE PUSH2 0x5DA JUMPI PUSH1 0x20 CALLDATASIZE PUSH1 0x3 NOT ADD SLT PUSH2 0x5DA JUMPI PUSH1 0x4 CALLDATALOAD PUSH1 0x0 MSTORE PUSH1 0xA PUSH1 0x20 MSTORE PUSH1 0x20 PUSH1 0x40 PUSH1 0x0 KECCAK256 PUSH2 0xD34 DUP2 SLOAD SWAP2 PUSH1 0x9 PUSH1 0x1 DUP1 PUSH1 0xA0 SHL SUB SWAP2 DUP3 PUSH1 0x1 DUP3 ADD SLOAD AND PUSH1 0x2 DUP3 ADD SLOAD SWAP4 PUSH1 0x40 MLOAD SWAP5 PUSH2 0x406F DUP7 PUSH2 0x4068 DUP2 PUSH1 0x3 DUP9 ADD PUSH2 0x51E9 JUMP JUMPDEST SUB DUP8 PUSH2 0x5081 JUMP JUMPDEST PUSH2 0x40E1 PUSH1 0x4 DUP6 ADD SLOAD SWAP7 PUSH2 0x40D0 PUSH1 0x5 DUP8 ADD SLOAD SWAP4 PUSH1 0x6 DUP9 ADD SLOAD SWAP6 PUSH1 0x7 DUP10 ADD SLOAD SWAP8 PUSH2 0x40AD PUSH1 0x8 DUP12 ADD SLOAD SWAP11 PUSH2 0x40A6 PUSH1 0x40 MLOAD DUP1 SWAP15 DUP2 SWAP4 ADD PUSH2 0x51E9 JUMP JUMPDEST SUB DUP13 PUSH2 0x5081 JUMP JUMPDEST PUSH1 0x40 MLOAD SWAP15 DUP16 SWAP15 DUP16 SWAP1 DUP2 MSTORE ADD MSTORE DUP2 AND PUSH1 0x40 DUP14 ADD MSTORE PUSH1 0xFF PUSH1 0x60 DUP14 ADD SWAP2 PUSH1 0xA0 SHR AND PUSH2 0x515A JUMP JUMPDEST PUSH2 0x160 DUP1 PUSH1 0x80 DUP13 ADD MSTORE DUP11 ADD SWAP1 PUSH2 0x5135 JUMP JUMPDEST SWAP6 PUSH1 0xA0 DUP10 ADD MSTORE PUSH1 0xC0 DUP9 ADD MSTORE PUSH1 0xE0 DUP8 ADD MSTORE PUSH2 0x100 DUP7 ADD MSTORE PUSH2 0x120 DUP6 ADD MSTORE DUP4 DUP3 SUB PUSH2 0x140 DUP6 ADD MSTORE PUSH2 0x5135 JUMP JUMPDEST CALLVALUE PUSH2 0x5DA JUMPI PUSH1 0x20 DUP1 PUSH1 0x3 NOT CALLDATASIZE ADD SLT PUSH2 0x5DA JUMPI PUSH1 0x4 CALLDATALOAD SWAP1 PUSH2 0x4129 PUSH2 0x5340 JUMP JUMPDEST DUP2 PUSH1 0x0 MSTORE PUSH1 0xA DUP2 MSTORE PUSH1 0xFF PUSH1 0x2 PUSH1 0x40 PUSH1 0x0 KECCAK256 ADD SLOAD PUSH1 0xA0 SHR AND PUSH1 0x5 DUP2 LT ISZERO PUSH2 0x5A6 JUMPI PUSH1 0x1 SUB PUSH2 0x41C6 JUMPI PUSH1 0x40 PUSH1 0x0 DUP1 MLOAD PUSH1 0x20 PUSH2 0x5BAE DUP4 CODECOPY DUP2 MLOAD SWAP2 MSTORE SWAP2 DUP4 PUSH1 0x0 MSTORE PUSH1 0xA DUP2 MSTORE DUP2 PUSH1 0x0 KECCAK256 SLOAD SWAP4 DUP5 PUSH1 0x0 MSTORE PUSH1 0x9 DUP3 MSTORE DUP3 PUSH1 0x0 KECCAK256 PUSH1 0x8 DUP2 ADD PUSH1 0x2 PUSH1 0xFF NOT DUP3 SLOAD AND OR SWAP1 SSTORE PUSH1 0xB TIMESTAMP SWAP2 ADD SSTORE PUSH1 0x0 MSTORE PUSH1 0xA DUP2 MSTORE DUP2 PUSH1 0x0 KECCAK256 PUSH1 0x2 DUP2 ADD PUSH1 0x1 PUSH1 0xA1 SHL PUSH1 0xFF PUSH1 0xA0 SHL NOT DUP3 SLOAD AND OR SWAP1 SSTORE PUSH1 0x6 TIMESTAMP SWAP2 ADD SSTORE DUP2 MLOAD SWAP1 PUSH1 0x2 DUP3 MSTORE CALLER SWAP1 DUP3 ADD MSTORE LOG2 STOP JUMPDEST PUSH1 0x64 SWAP1 PUSH1 0x40 MLOAD SWAP1 PUSH3 0x461BCD PUSH1 0xE5 SHL DUP3 MSTORE PUSH1 0x4 DUP3 ADD MSTORE PUSH1 0x15 PUSH1 0x24 DUP3 ADD MSTORE PUSH21 0x14DA1A5C1B595B9D081B9BDD08185C1C1C9BDD9959 PUSH1 0x5A SHL PUSH1 0x44 DUP3 ADD MSTORE REVERT JUMPDEST CALLVALUE PUSH2 0x5DA JUMPI PUSH1 0x20 CALLDATASIZE PUSH1 0x3 NOT ADD SLT PUSH2 0x5DA JUMPI PUSH1 0x4 CALLDATALOAD PUSH1 0x0 MSTORE PUSH1 0x7 PUSH1 0x20 MSTORE PUSH1 0x20 PUSH1 0x1 PUSH1 0x40 PUSH1 0x0 KECCAK256 ADD SLOAD PUSH1 0x40 MLOAD SWAP1 DUP2 MSTORE RETURN JUMPDEST CALLVALUE PUSH2 0x5DA JUMPI PUSH2 0xC29 PUSH2 0x4242 CALLDATASIZE PUSH2 0x528C JUMP JUMPDEST SWAP2 PUSH2 0x555F JUMP JUMPDEST CALLVALUE PUSH2 0x5DA JUMPI PUSH1 0x0 CALLDATASIZE PUSH1 0x3 NOT ADD SLT PUSH2 0x5DA JUMPI PUSH1 0x20 PUSH1 0x40 MLOAD PUSH32 0x2A5F906C256A5D799494FCD066E1F6C077689DE1CDB65052A1624DE4BACE99BF DUP2 MSTORE RETURN JUMPDEST CALLVALUE PUSH2 0x5DA JUMPI PUSH1 0x0 CALLDATASIZE PUSH1 0x3 NOT ADD SLT PUSH2 0x5DA JUMPI PUSH1 0x20 PUSH1 0x40 MLOAD PUSH32 0x288A15C4A15D470E4CD9CAD2F113B91206B520C26DBD3DD74627F0C057BAA19C DUP2 MSTORE RETURN JUMPDEST CALLVALUE PUSH2 0x5DA JUMPI PUSH1 0x20 DUP1 PUSH1 0x3 NOT CALLDATASIZE ADD SLT PUSH2 0x5DA JUMPI PUSH1 0x4 CALLDATALOAD SWAP1 PUSH2 0x42DC PUSH2 0x539C JUMP JUMPDEST DUP2 PUSH1 0x0 MSTORE PUSH1 0xA DUP2 MSTORE PUSH1 0xFF PUSH1 0x2 PUSH1 0x40 PUSH1 0x0 KECCAK256 ADD SLOAD PUSH1 0xA0 SHR AND PUSH1 0x5 DUP2 LT ISZERO PUSH2 0x5A6 JUMPI PUSH2 0x4366 JUMPI PUSH1 0x3 PUSH32 0xF9011029A94EB60997B710D356797EF53371EC55BFE6DB12AB6899B3BB4703EC SWAP2 DUP4 PUSH1 0x0 MSTORE PUSH1 0xA DUP2 MSTORE PUSH2 0x4361 PUSH1 0x40 PUSH1 0x0 KECCAK256 PUSH1 0x2 DUP2 ADD PUSH1 0x1 PUSH1 0xA0 SHL PUSH1 0xFF PUSH1 0xA0 SHL NOT DUP3 SLOAD AND OR SWAP1 SSTORE TIMESTAMP PUSH1 0x5 DUP3 ADD SSTORE PUSH1 0x40 MLOAD SWAP4 DUP4 DUP6 SWAP5 DUP6 MSTORE DUP5 ADD SWAP2 ADD PUSH2 0x51E9 JUMP JUMPDEST SUB SWAP1 LOG2 STOP JUMPDEST PUSH1 0x64 SWAP1 PUSH1 0x40 MLOAD SWAP1 PUSH3 0x461BCD PUSH1 0xE5 SHL DUP3 MSTORE PUSH1 0x4 DUP3 ADD MSTORE PUSH1 0x1F PUSH1 0x24 DUP3 ADD MSTORE PUSH32 0x536869706D656E74206E6F7420696E2072657175657374656420737461746500 PUSH1 0x44 DUP3 ADD MSTORE REVERT JUMPDEST CALLVALUE PUSH2 0x5DA JUMPI PUSH2 0x43B8 CALLDATASIZE PUSH2 0x5167 JUMP JUMPDEST SWAP1 PUSH1 0x0 MSTORE PUSH1 0xB PUSH1 0x20 MSTORE PUSH1 0x40 PUSH1 0x0 KECCAK256 SWAP1 DUP2 SLOAD DUP2 LT ISZERO PUSH2 0x5DA JUMPI PUSH2 0x43D9 SWAP2 PUSH2 0x517D JUMP JUMPDEST POP DUP1 SLOAD PUSH2 0xD34 PUSH1 0xFF PUSH1 0x1 DUP5 ADD SLOAD AND SWAP3 PUSH1 0x8 PUSH1 0x2 DUP3 ADD SLOAD SWAP2 PUSH1 0x40 MLOAD SWAP3 PUSH2 0x440C DUP5 PUSH2 0x4405 DUP2 PUSH1 0x3 DUP7 ADD PUSH2 0x51E9 JUMP JUMPDEST SUB DUP6 PUSH2 0x5081 JUMP JUMPDEST PUSH2 0x4496 PUSH1 0x40 MLOAD PUSH2 0x4423 DUP2 PUSH2 0x763 DUP2 PUSH1 0x4 DUP9 ADD PUSH2 0x51E9 JUMP JUMPDEST PUSH2 0x4488 PUSH1 0x1 DUP1 PUSH1 0xA0 SHL SUB PUSH1 0x5 DUP7 ADD SLOAD AND SWAP7 PUSH1 0x6 DUP7 ADD SLOAD SWAP5 PUSH2 0x445D PUSH1 0xFF PUSH1 0x7 DUP10 ADD SLOAD AND SWAP8 PUSH2 0x4456 PUSH1 0x40 MLOAD DUP1 SWAP12 DUP2 SWAP4 ADD PUSH2 0x51E9 JUMP JUMPDEST SUB DUP10 PUSH2 0x5081 JUMP JUMPDEST PUSH2 0x4472 PUSH1 0x40 MLOAD SWAP13 DUP14 SWAP13 DUP14 MSTORE PUSH1 0x20 DUP14 ADD SWAP1 PUSH2 0x527F JUMP JUMPDEST PUSH1 0x40 DUP12 ADD MSTORE PUSH2 0x120 DUP1 PUSH1 0x60 DUP13 ADD MSTORE DUP11 ADD SWAP1 PUSH2 0x5135 JUMP JUMPDEST SWAP1 DUP9 DUP3 SUB PUSH1 0x80 DUP11 ADD MSTORE PUSH2 0x5135 JUMP JUMPDEST SWAP4 PUSH1 0xA0 DUP8 ADD MSTORE PUSH1 0xC0 DUP7 ADD MSTORE ISZERO ISZERO PUSH1 0xE0 DUP6 ADD MSTORE DUP4 DUP3 SUB PUSH2 0x100 DUP6 ADD MSTORE PUSH2 0x5135 JUMP JUMPDEST CALLVALUE PUSH2 0x5DA JUMPI PUSH1 0x20 CALLDATASIZE PUSH1 0x3 NOT ADD SLT PUSH2 0x5DA JUMPI PUSH1 0x4 CALLDATALOAD PUSH2 0x44D2 PUSH2 0x539C JUMP JUMPDEST DUP1 PUSH1 0x0 MSTORE PUSH1 0xA PUSH1 0x20 MSTORE PUSH1 0xFF PUSH1 0x2 PUSH1 0x40 PUSH1 0x0 KECCAK256 ADD SLOAD PUSH1 0xA0 SHR AND PUSH1 0x5 DUP2 LT ISZERO PUSH2 0x5A6 JUMPI PUSH1 0x3 SUB PUSH2 0x454F JUMPI DUP1 PUSH1 0x0 MSTORE PUSH1 0xA PUSH1 0x20 MSTORE PUSH1 0x40 PUSH1 0x0 KECCAK256 PUSH1 0x2 DUP2 ADD PUSH1 0x1 PUSH1 0xA2 SHL PUSH1 0xFF PUSH1 0xA0 SHL NOT DUP3 SLOAD AND OR SWAP1 SSTORE PUSH1 0x8 TIMESTAMP SWAP2 ADD SSTORE PUSH32 0xB0AFEAEE5D1E46A6CF0BD9DBF0E8B217CE5E084418AE08D982D3C53E6323091B PUSH1 0x20 PUSH1 0x40 MLOAD TIMESTAMP DUP2 MSTORE LOG2 STOP JUMPDEST PUSH1 0x40 MLOAD PUSH3 0x461BCD PUSH1 0xE5 SHL DUP2 MSTORE PUSH1 0x20 PUSH1 0x4 DUP3 ADD MSTORE PUSH1 0x16 PUSH1 0x24 DUP3 ADD MSTORE PUSH22 0x14DA1A5C1B595B9D081B9BDD0819195B1A5D995C9959 PUSH1 0x52 SHL PUSH1 0x44 DUP3 ADD MSTORE PUSH1 0x64 SWAP1 REVERT JUMPDEST CALLVALUE PUSH2 0x5DA JUMPI PUSH1 0x40 CALLDATASIZE PUSH1 0x3 NOT ADD SLT PUSH2 0x5DA JUMPI PUSH2 0x45A6 PUSH2 0x4FAB JUMP JUMPDEST PUSH1 0x24 CALLDATALOAD PUSH2 0x45B2 DUP2 PUSH2 0x588E JUMP JUMPDEST CALLER ISZERO ISZERO DUP1 PUSH2 0x4661 JUMPI JUMPDEST DUP1 PUSH2 0x4634 JUMPI JUMPDEST PUSH2 0x461C JUMPI PUSH1 0x1 PUSH1 0x1 PUSH1 0xA0 SHL SUB SWAP3 DUP4 AND SWAP3 DUP3 SWAP2 DUP5 SWAP2 AND PUSH32 0x8C5BE1E5EBEC7D5BD14F71427D1E84F3DD0314C0F7B2291E5B200AC8C7C3B925 PUSH1 0x0 DUP1 LOG4 PUSH1 0x0 SWAP1 DUP2 MSTORE PUSH1 0x4 PUSH1 0x20 MSTORE PUSH1 0x40 SWAP1 KECCAK256 DUP1 SLOAD PUSH1 0x1 PUSH1 0x1 PUSH1 0xA0 SHL SUB NOT AND SWAP1 SWAP2 OR SWAP1 SSTORE STOP JUMPDEST PUSH1 0x40 MLOAD PUSH4 0xA9FBF51F PUSH1 0xE0 SHL DUP2 MSTORE CALLER PUSH1 0x4 DUP3 ADD MSTORE PUSH1 0x24 SWAP1 REVERT JUMPDEST POP PUSH1 0x1 DUP1 PUSH1 0xA0 SHL SUB DUP2 AND PUSH1 0x0 MSTORE PUSH1 0x5 PUSH1 0x20 MSTORE PUSH1 0x40 PUSH1 0x0 KECCAK256 CALLER PUSH1 0x0 MSTORE PUSH1 0x20 MSTORE PUSH1 0xFF PUSH1 0x40 PUSH1 0x0 KECCAK256 SLOAD AND ISZERO PUSH2 0x45C1 JUMP JUMPDEST POP PUSH1 0x1 PUSH1 0x1 PUSH1 0xA0 SHL SUB DUP2 AND CALLER EQ ISZERO PUSH2 0x45BB JUMP JUMPDEST CALLVALUE PUSH2 0x5DA JUMPI PUSH1 0x20 CALLDATASIZE PUSH1 0x3 NOT ADD SLT PUSH2 0x5DA JUMPI PUSH1 0x60 PUSH2 0x140 PUSH1 0x40 MLOAD PUSH2 0x4696 DUP2 PUSH2 0x4FC1 JUMP JUMPDEST PUSH1 0x0 DUP2 MSTORE PUSH1 0x0 PUSH1 0x20 DUP3 ADD MSTORE PUSH1 0x0 PUSH1 0x40 DUP3 ADD MSTORE PUSH1 0x0 DUP4 DUP3 ADD MSTORE DUP3 PUSH1 0x80 DUP3 ADD MSTORE PUSH1 0x0 PUSH1 0xA0 DUP3 ADD MSTORE PUSH1 0x0 PUSH1 0xC0 DUP3 ADD MSTORE PUSH1 0x0 PUSH1 0xE0 DUP3 ADD MSTORE PUSH1 0x0 PUSH2 0x100 DUP3 ADD MSTORE PUSH1 0x0 PUSH2 0x120 DUP3 ADD MSTORE ADD MSTORE PUSH1 0x4 CALLDATALOAD PUSH1 0x0 MSTORE PUSH1 0xA PUSH1 0x20 MSTORE PUSH1 0x40 PUSH1 0x0 KECCAK256 PUSH1 0x40 MLOAD PUSH2 0x46F7 DUP2 PUSH2 0x4FC1 JUMP JUMPDEST DUP2 SLOAD DUP2 MSTORE PUSH1 0x1 DUP3 ADD SLOAD PUSH1 0x1 PUSH1 0x1 PUSH1 0xA0 SHL SUB SWAP1 DUP2 AND PUSH1 0x20 DUP4 ADD MSTORE PUSH1 0x2 DUP4 ADD SLOAD SWAP1 DUP2 AND PUSH1 0x40 DUP4 ADD MSTORE PUSH1 0xA0 SHR PUSH1 0xFF AND SWAP2 PUSH1 0x5 DUP4 LT ISZERO PUSH2 0x5A6 JUMPI PUSH2 0x4799 PUSH1 0x9 SWAP2 PUSH2 0xD34 SWAP5 PUSH1 0x60 DUP6 ADD MSTORE PUSH1 0x40 MLOAD PUSH2 0x4750 DUP2 PUSH2 0x763 DUP2 PUSH1 0x3 DUP7 ADD PUSH2 0x51E9 JUMP JUMPDEST PUSH1 0x80 DUP6 ADD MSTORE PUSH1 0x4 DUP2 ADD SLOAD PUSH1 0xA0 DUP6 ADD MSTORE PUSH1 0x5 DUP2 ADD SLOAD PUSH1 0xC0 DUP6 ADD MSTORE PUSH1 0x6 DUP2 ADD SLOAD PUSH1 0xE0 DUP6 ADD MSTORE PUSH1 0x7 DUP2 ADD SLOAD PUSH2 0x100 DUP6 ADD MSTORE PUSH1 0x8 DUP2 ADD SLOAD PUSH2 0x120 DUP6 ADD MSTORE PUSH2 0x763 PUSH1 0x40 MLOAD DUP1 SWAP5 DUP2 SWAP4 ADD PUSH2 0x51E9 JUMP JUMPDEST PUSH2 0x140 DUP3 ADD MSTORE PUSH1 0x40 MLOAD SWAP2 DUP3 SWAP2 PUSH1 0x20 DUP4 MSTORE DUP1 MLOAD PUSH1 0x20 DUP5 ADD MSTORE PUSH1 0x1 DUP1 PUSH1 0xA0 SHL SUB PUSH1 0x20 DUP3 ADD MLOAD AND PUSH1 0x40 DUP5 ADD MSTORE PUSH1 0x1 DUP1 PUSH1 0xA0 SHL SUB PUSH1 0x40 DUP3 ADD MLOAD AND PUSH1 0x60 DUP5 ADD MSTORE PUSH2 0x47E6 PUSH1 0x60 DUP3 ADD MLOAD PUSH1 0x80 DUP6 ADD SWAP1 PUSH2 0x515A JUMP JUMPDEST PUSH1 0x80 DUP2 ADD MLOAD PUSH2 0x140 PUSH2 0x4806 PUSH2 0x160 SWAP3 DUP4 PUSH1 0xA0 DUP9 ADD MSTORE PUSH2 0x180 DUP8 ADD SWAP1 PUSH2 0x5135 JUMP JUMPDEST SWAP3 PUSH1 0xA0 DUP2 ADD MLOAD PUSH1 0xC0 DUP8 ADD MSTORE PUSH1 0xC0 DUP2 ADD MLOAD PUSH1 0xE0 DUP8 ADD MSTORE PUSH1 0xE0 DUP2 ADD MLOAD PUSH2 0x100 DUP8 ADD MSTORE PUSH2 0x100 DUP2 ADD MLOAD PUSH2 0x120 DUP8 ADD MSTORE PUSH2 0x120 DUP2 ADD MLOAD DUP3 DUP8 ADD MSTORE ADD MLOAD SWAP1 PUSH1 0x1F NOT DUP6 DUP5 SUB ADD SWAP1 DUP6 ADD MSTORE PUSH2 0x5135 JUMP JUMPDEST CALLVALUE PUSH2 0x5DA JUMPI PUSH1 0x20 CALLDATASIZE PUSH1 0x3 NOT ADD SLT PUSH2 0x5DA JUMPI PUSH1 0x4 CALLDATALOAD PUSH2 0x486C DUP2 PUSH2 0x588E JUMP JUMPDEST POP PUSH1 0x0 MSTORE PUSH1 0x4 PUSH1 0x20 MSTORE PUSH1 0x20 PUSH1 0x1 DUP1 PUSH1 0xA0 SHL SUB PUSH1 0x40 PUSH1 0x0 KECCAK256 SLOAD AND PUSH1 0x40 MLOAD SWAP1 DUP2 MSTORE RETURN JUMPDEST CALLVALUE PUSH2 0x5DA JUMPI PUSH1 0x20 CALLDATASIZE PUSH1 0x3 NOT ADD SLT PUSH2 0x5DA JUMPI PUSH1 0x20 PUSH2 0x48AB PUSH1 0x4 CALLDATALOAD PUSH2 0x5A54 JUMP JUMPDEST PUSH1 0x40 MLOAD SWAP1 ISZERO ISZERO DUP2 MSTORE RETURN JUMPDEST CALLVALUE PUSH2 0x5DA JUMPI PUSH1 0x0 CALLDATASIZE PUSH1 0x3 NOT ADD SLT PUSH2 0x5DA JUMPI PUSH1 0x20 PUSH1 0x40 MLOAD PUSH32 0x68E79A7BF1E0BC45D0A330C573BC367F9CF464FD326078812F301165FBDA4EF1 DUP2 MSTORE RETURN JUMPDEST CALLVALUE PUSH2 0x5DA JUMPI PUSH1 0x0 CALLDATASIZE PUSH1 0x3 NOT ADD SLT PUSH2 0x5DA JUMPI PUSH1 0x40 MLOAD PUSH1 0x0 DUP1 SLOAD PUSH2 0x4911 DUP2 PUSH2 0x51AF JUMP JUMPDEST DUP1 DUP5 MSTORE SWAP1 PUSH1 0x1 SWAP1 DUP2 DUP2 AND SWAP1 DUP2 ISZERO PUSH2 0x154B JUMPI POP PUSH1 0x1 EQ PUSH2 0x493A JUMPI PUSH2 0xD34 DUP5 PUSH2 0x14DE DUP2 DUP7 SUB DUP3 PUSH2 0x5081 JUMP JUMPDEST PUSH1 0x0 DUP1 DUP1 MSTORE SWAP3 POP PUSH32 0x290DECD9548B62A8D60345A988386FC84BA6BC95484008F6362F93160EF3E563 JUMPDEST DUP3 DUP5 LT PUSH2 0x497B JUMPI POP POP POP DUP2 ADD PUSH1 0x20 ADD PUSH2 0x14DE DUP3 PUSH2 0x14CE JUMP JUMPDEST DUP1 SLOAD PUSH1 0x20 DUP6 DUP8 ADD DUP2 ADD SWAP2 SWAP1 SWAP2 MSTORE SWAP1 SWAP4 ADD SWAP3 DUP2 ADD PUSH2 0x4963 JUMP JUMPDEST CALLVALUE PUSH2 0x5DA JUMPI PUSH1 0x20 CALLDATASIZE PUSH1 0x3 NOT ADD SLT PUSH2 0x5DA JUMPI PUSH1 0x4 CALLDATALOAD PUSH4 0xFFFFFFFF PUSH1 0xE0 SHL DUP2 AND DUP1 SWAP2 SUB PUSH2 0x5DA JUMPI PUSH1 0x20 SWAP1 PUSH4 0x7965DB0B PUSH1 0xE0 SHL DUP2 EQ SWAP1 DUP2 ISZERO PUSH2 0x49D7 JUMPI POP PUSH1 0x40 MLOAD SWAP1 ISZERO ISZERO DUP2 MSTORE RETURN JUMPDEST PUSH4 0x24832483 PUSH1 0xE1 SHL DUP2 EQ SWAP2 POP DUP2 ISZERO PUSH2 0x49F1 JUMPI JUMPDEST POP DUP3 PUSH2 0x236A JUMP JUMPDEST PUSH4 0x80AC58CD PUSH1 0xE0 SHL DUP2 EQ SWAP2 POP DUP2 ISZERO PUSH2 0x4A23 JUMPI JUMPDEST DUP2 ISZERO PUSH2 0x4A12 JUMPI JUMPDEST POP DUP3 PUSH2 0x49EA JUMP JUMPDEST PUSH4 0x1FFC9A7 PUSH1 0xE0 SHL EQ SWAP1 POP DUP3 PUSH2 0x4A0B JUMP JUMPDEST PUSH4 0x5B5E139F PUSH1 0xE0 SHL DUP2 EQ SWAP2 POP PUSH2 0x4A04 JUMP JUMPDEST CALLVALUE PUSH2 0x5DA JUMPI PUSH1 0x80 CALLDATASIZE PUSH1 0x3 NOT ADD SLT PUSH2 0x5DA JUMPI PUSH2 0x4A4D PUSH2 0x4F95 JUMP JUMPDEST PUSH1 0x44 CALLDATALOAD PUSH1 0x1 PUSH1 0x1 PUSH1 0x40 SHL SUB DUP2 GT PUSH2 0x5DA JUMPI PUSH2 0x4A6C SWAP1 CALLDATASIZE SWAP1 PUSH1 0x4 ADD PUSH2 0x50F4 JUMP JUMPDEST PUSH1 0x64 CALLDATALOAD PUSH1 0x1 PUSH1 0x1 PUSH1 0x40 SHL SUB DUP2 GT PUSH2 0x5DA JUMPI PUSH2 0x4A8B SWAP1 CALLDATASIZE SWAP1 PUSH1 0x4 ADD PUSH2 0x50F4 JUMP JUMPDEST SWAP1 PUSH2 0x4A94 PUSH2 0x5340 JUMP JUMPDEST PUSH1 0x4 CALLDATALOAD PUSH1 0x0 SWAP1 DUP2 MSTORE PUSH1 0x2 PUSH1 0x20 MSTORE PUSH1 0x40 SWAP1 KECCAK256 SLOAD PUSH2 0x4ABA SWAP1 PUSH1 0x1 PUSH1 0x1 PUSH1 0xA0 SHL SUB AND ISZERO ISZERO PUSH2 0x58D8 JUMP JUMPDEST PUSH1 0x4 CALLDATALOAD PUSH1 0x0 MSTORE PUSH1 0x9 PUSH1 0x20 MSTORE PUSH1 0xFF PUSH1 0x8 PUSH1 0x40 PUSH1 0x0 KECCAK256 ADD SLOAD AND PUSH1 0x6 DUP2 LT ISZERO PUSH2 0x5A6 JUMPI PUSH1 0x1 EQ DUP1 ISZERO PUSH2 0x4F6C JUMPI JUMPDEST ISZERO PUSH2 0x4F0C JUMPI PUSH2 0x4AFD PUSH1 0x1 PUSH1 0x1 PUSH1 0xA0 SHL SUB DUP5 AND ISZERO ISZERO PUSH2 0x591D JUMP JUMPDEST PUSH1 0x13 SLOAD SWAP2 PUSH2 0x4B0A DUP4 PUSH2 0x58C9 JUMP JUMPDEST PUSH1 0x13 SSTORE PUSH1 0x4 CALLDATALOAD PUSH1 0x0 MSTORE PUSH1 0x9 PUSH1 0x20 MSTORE PUSH1 0x1 DUP1 PUSH1 0xA0 SHL SUB PUSH1 0x9 PUSH1 0x40 PUSH1 0x0 KECCAK256 ADD SLOAD AND SWAP1 PUSH1 0x40 MLOAD SWAP2 PUSH2 0x4B37 DUP4 PUSH2 0x4FC1 JUMP JUMPDEST PUSH1 0x4 CALLDATALOAD DUP4 MSTORE PUSH1 0x20 DUP4 ADD MSTORE PUSH1 0x1 DUP1 PUSH1 0xA0 SHL SUB DUP6 AND PUSH1 0x40 DUP4 ADD MSTORE PUSH1 0x0 PUSH1 0x60 DUP4 ADD MSTORE PUSH1 0x80 DUP3 ADD SWAP3 DUP4 MSTORE TIMESTAMP PUSH1 0xA0 DUP4 ADD MSTORE PUSH1 0x0 PUSH1 0xC0 DUP4 ADD MSTORE PUSH1 0x0 PUSH1 0xE0 DUP4 ADD MSTORE PUSH1 0x0 PUSH2 0x100 DUP4 ADD MSTORE PUSH1 0x0 PUSH2 0x120 DUP4 ADD MSTORE PUSH2 0x140 DUP3 ADD MSTORE DUP3 PUSH1 0x0 MSTORE PUSH1 0xA PUSH1 0x20 MSTORE PUSH1 0x40 PUSH1 0x0 KECCAK256 SWAP2 DUP2 MLOAD DUP4 SSTORE PUSH1 0x1 DUP4 ADD PUSH1 0x1 DUP1 PUSH1 0xA0 SHL SUB PUSH1 0x20 DUP5 ADD MLOAD AND PUSH1 0x1 PUSH1 0x1 PUSH1 0x60 SHL SUB PUSH1 0xA0 SHL DUP3 SLOAD AND OR SWAP1 SSTORE PUSH1 0x2 DUP4 ADD PUSH1 0x1 DUP1 PUSH1 0xA0 SHL SUB PUSH1 0x40 DUP5 ADD MLOAD AND DUP2 SLOAD SWAP1 PUSH1 0x60 DUP6 ADD MLOAD PUSH1 0x5 DUP2 LT ISZERO PUSH2 0x5A6 JUMPI PUSH1 0x1 PUSH1 0x1 PUSH1 0xA8 SHL SUB NOT SWAP1 SWAP3 AND OR PUSH1 0xA0 SWAP2 SWAP1 SWAP2 SHL PUSH1 0xFF PUSH1 0xA0 SHL AND OR SWAP1 SSTORE MLOAD DUP1 MLOAD SWAP1 PUSH1 0x1 PUSH1 0x1 PUSH1 0x40 SHL SUB DUP3 GT PUSH2 0x535 JUMPI PUSH2 0x4C19 PUSH1 0x3 DUP6 ADD SLOAD PUSH2 0x51AF JUMP JUMPDEST PUSH1 0x1F DUP2 GT PUSH2 0x4EC5 JUMPI JUMPDEST POP PUSH1 0x20 SWAP1 PUSH1 0x1F DUP4 GT PUSH1 0x1 EQ PUSH2 0x4E51 JUMPI PUSH2 0x140 SWAP4 SWAP3 SWAP2 PUSH1 0x0 SWAP2 DUP4 PUSH2 0x4E46 JUMPI JUMPDEST POP POP DUP2 PUSH1 0x1 SHL SWAP2 PUSH1 0x0 NOT SWAP1 PUSH1 0x3 SHL SHR NOT AND OR PUSH1 0x3 DUP5 ADD SSTORE JUMPDEST PUSH1 0xA0 DUP2 ADD MLOAD PUSH1 0x4 DUP5 ADD SSTORE PUSH1 0xC0 DUP2 ADD MLOAD PUSH1 0x5 DUP5 ADD SSTORE PUSH1 0xE0 DUP2 ADD MLOAD PUSH1 0x6 DUP5 ADD SSTORE PUSH2 0x100 DUP2 ADD MLOAD PUSH1 0x7 DUP5 ADD SSTORE PUSH2 0x120 DUP2 ADD MLOAD PUSH1 0x8 DUP5 ADD SSTORE ADD MLOAD DUP1 MLOAD SWAP1 PUSH1 0x1 PUSH1 0x1 PUSH1 0x40 SHL SUB DUP3 GT PUSH2 0x535 JUMPI PUSH2 0x4CAC PUSH1 0x9 DUP5 ADD SLOAD PUSH2 0x51AF JUMP JUMPDEST PUSH1 0x1F DUP2 GT PUSH2 0x4DFF JUMPI JUMPDEST POP PUSH1 0x20 SWAP1 PUSH1 0x1F DUP4 GT PUSH1 0x1 EQ PUSH2 0x4D91 JUMPI PUSH1 0x9 SWAP3 SWAP2 PUSH1 0x0 SWAP2 DUP4 PUSH2 0x4D86 JUMPI JUMPDEST POP POP DUP2 PUSH1 0x1 SHL SWAP2 PUSH1 0x0 NOT SWAP1 PUSH1 0x3 SHL SHR NOT AND OR SWAP2 ADD SSTORE JUMPDEST PUSH1 0x4 CALLDATALOAD PUSH1 0x0 MSTORE PUSH1 0xE PUSH1 0x20 MSTORE PUSH1 0x40 PUSH1 0x0 KECCAK256 SWAP2 DUP3 SLOAD SWAP3 PUSH1 0x1 PUSH1 0x40 SHL DUP5 LT ISZERO PUSH2 0x535 JUMPI DUP4 PUSH2 0x4D19 SWAP2 PUSH1 0x1 PUSH1 0x20 SWAP7 ADD DUP2 SSTORE PUSH2 0x52C1 JUMP JUMPDEST DUP2 SLOAD PUSH1 0x0 NOT PUSH1 0x3 SWAP3 SWAP1 SWAP3 SHL SWAP2 DUP3 SHL NOT AND SWAP1 DUP5 SWAP1 SHL OR SWAP1 SSTORE PUSH1 0x4 CALLDATALOAD PUSH1 0x0 DUP2 DUP2 MSTORE PUSH1 0x9 DUP1 DUP7 MSTORE PUSH1 0x40 SWAP2 DUP3 SWAP1 KECCAK256 ADD SLOAD SWAP1 MLOAD PUSH1 0x1 PUSH1 0x1 PUSH1 0xA0 SHL SUB SWAP4 DUP5 AND DUP2 MSTORE SWAP3 AND SWAP2 DUP4 SWAP1 PUSH32 0xA9041659DCC0C60DE34CA5114E2C9ECCA4C93E9A21C9D4E21F29BB0BD3D8CAB8 SWAP1 DUP7 SWAP1 LOG4 PUSH1 0x40 MLOAD SWAP1 DUP2 MSTORE RETURN JUMPDEST ADD MLOAD SWAP1 POP DUP7 DUP1 PUSH2 0x4CD1 JUMP JUMPDEST SWAP1 PUSH1 0x1F NOT DUP4 AND SWAP2 PUSH1 0x9 DUP6 ADD PUSH1 0x0 MSTORE PUSH1 0x20 PUSH1 0x0 KECCAK256 SWAP3 PUSH1 0x0 JUMPDEST DUP2 DUP2 LT PUSH2 0x4DE7 JUMPI POP SWAP2 PUSH1 0x1 SWAP4 SWAP2 DUP6 PUSH1 0x9 SWAP7 SWAP5 LT PUSH2 0x4DCE JUMPI JUMPDEST POP POP POP DUP2 SHL ADD SWAP2 ADD SSTORE PUSH2 0x4CE7 JUMP JUMPDEST ADD MLOAD PUSH1 0x0 NOT PUSH1 0xF8 DUP5 PUSH1 0x3 SHL AND SHR NOT AND SWAP1 SSTORE DUP7 DUP1 DUP1 PUSH2 0x4DC0 JUMP JUMPDEST SWAP3 SWAP4 PUSH1 0x20 PUSH1 0x1 DUP2 SWAP3 DUP8 DUP7 ADD MLOAD DUP2 SSTORE ADD SWAP6 ADD SWAP4 ADD PUSH2 0x4DA8 JUMP JUMPDEST PUSH1 0x9 DUP5 ADD PUSH1 0x0 MSTORE PUSH1 0x20 PUSH1 0x0 KECCAK256 PUSH1 0x1F DUP5 ADD PUSH1 0x5 SHR DUP2 ADD PUSH1 0x20 DUP6 LT PUSH2 0x4E3F JUMPI JUMPDEST PUSH1 0x1F DUP4 ADD PUSH1 0x5 SHR DUP3 ADD DUP2 LT PUSH2 0x4E33 JUMPI POP POP PUSH2 0x4CB5 JUMP JUMPDEST PUSH1 0x0 DUP2 SSTORE PUSH1 0x1 ADD PUSH2 0x4E1D JUMP JUMPDEST POP DUP1 PUSH2 0x4E1D JUMP JUMPDEST ADD MLOAD SWAP1 POP DUP8 DUP1 PUSH2 0x4C40 JUMP JUMPDEST SWAP1 PUSH1 0x3 DUP6 ADD PUSH1 0x0 MSTORE PUSH1 0x20 PUSH1 0x0 KECCAK256 SWAP2 PUSH1 0x0 JUMPDEST PUSH1 0x1F NOT DUP6 AND DUP2 LT PUSH2 0x4EAD JUMPI POP SWAP2 DUP4 SWAP2 PUSH1 0x1 SWAP4 PUSH2 0x140 SWAP7 SWAP6 PUSH1 0x1F NOT DUP2 AND LT PUSH2 0x4E94 JUMPI JUMPDEST POP POP POP DUP2 SHL ADD PUSH1 0x3 DUP5 ADD SSTORE PUSH2 0x4C58 JUMP JUMPDEST ADD MLOAD PUSH1 0x0 NOT PUSH1 0xF8 DUP5 PUSH1 0x3 SHL AND SHR NOT AND SWAP1 SSTORE DUP8 DUP1 DUP1 PUSH2 0x4E84 JUMP JUMPDEST SWAP2 SWAP3 PUSH1 0x20 PUSH1 0x1 DUP2 SWAP3 DUP7 DUP6 ADD MLOAD DUP2 SSTORE ADD SWAP5 ADD SWAP3 ADD PUSH2 0x4E62 JUMP JUMPDEST PUSH1 0x3 DUP6 ADD PUSH1 0x0 MSTORE PUSH1 0x20 PUSH1 0x0 KECCAK256 PUSH1 0x1F DUP5 ADD PUSH1 0x5 SHR DUP2 ADD PUSH1 0x20 DUP6 LT PUSH2 0x4F05 JUMPI JUMPDEST PUSH1 0x1F DUP4 ADD PUSH1 0x5 SHR DUP3 ADD DUP2 LT PUSH2 0x4EF9 JUMPI POP POP PUSH2 0x4C22 JUMP JUMPDEST PUSH1 0x0 DUP2 SSTORE PUSH1 0x1 ADD PUSH2 0x4EE3 JUMP JUMPDEST POP DUP1 PUSH2 0x4EE3 JUMP JUMPDEST PUSH1 0x40 MLOAD PUSH3 0x461BCD PUSH1 0xE5 SHL DUP2 MSTORE PUSH1 0x20 PUSH1 0x4 DUP3 ADD MSTORE PUSH1 0x32 PUSH1 0x24 DUP3 ADD MSTORE PUSH32 0x50726F64756374206D757374206265207061636B61676564206F722072656365 PUSH1 0x44 DUP3 ADD MSTORE PUSH18 0x1A5D9959081D1BC81899481CDA1A5C1C1959 PUSH1 0x72 SHL PUSH1 0x64 DUP3 ADD MSTORE PUSH1 0x84 SWAP1 REVERT JUMPDEST POP PUSH1 0x4 CALLDATALOAD PUSH1 0x0 MSTORE PUSH1 0x9 PUSH1 0x20 MSTORE PUSH1 0xFF PUSH1 0x8 PUSH1 0x40 PUSH1 0x0 KECCAK256 ADD SLOAD AND PUSH1 0x6 DUP2 LT ISZERO PUSH2 0x5A6 JUMPI PUSH1 0x3 EQ PUSH2 0x4AE4 JUMP JUMPDEST PUSH1 0x24 CALLDATALOAD SWAP1 PUSH1 0x1 PUSH1 0x1 PUSH1 0xA0 SHL SUB DUP3 AND DUP3 SUB PUSH2 0x5DA JUMPI JUMP JUMPDEST PUSH1 0x4 CALLDATALOAD SWAP1 PUSH1 0x1 PUSH1 0x1 PUSH1 0xA0 SHL SUB DUP3 AND DUP3 SUB PUSH2 0x5DA JUMPI JUMP JUMPDEST PUSH2 0x160 DUP2 ADD SWAP1 DUP2 LT PUSH1 0x1 PUSH1 0x1 PUSH1 0x40 SHL SUB DUP3 GT OR PUSH2 0x535 JUMPI PUSH1 0x40 MSTORE JUMP JUMPDEST PUSH2 0x1E0 DUP2 ADD SWAP1 DUP2 LT PUSH1 0x1 PUSH1 0x1 PUSH1 0x40 SHL SUB DUP3 GT OR PUSH2 0x535 JUMPI PUSH1 0x40 MSTORE JUMP JUMPDEST PUSH2 0x120 DUP2 ADD SWAP1 DUP2 LT PUSH1 0x1 PUSH1 0x1 PUSH1 0x40 SHL SUB DUP3 GT OR PUSH2 0x535 JUMPI PUSH1 0x40 MSTORE JUMP JUMPDEST PUSH1 0xA0 DUP2 ADD SWAP1 DUP2 LT PUSH1 0x1 PUSH1 0x1 PUSH1 0x40 SHL SUB DUP3 GT OR PUSH2 0x535 JUMPI PUSH1 0x40 MSTORE JUMP JUMPDEST PUSH1 0x20 DUP2 ADD SWAP1 DUP2 LT PUSH1 0x1 PUSH1 0x1 PUSH1 0x40 SHL SUB DUP3 GT OR PUSH2 0x535 JUMPI PUSH1 0x40 MSTORE JUMP JUMPDEST PUSH1 0x40 DUP2 ADD SWAP1 DUP2 LT PUSH1 0x1 PUSH1 0x1 PUSH1 0x40 SHL SUB DUP3 GT OR PUSH2 0x535 JUMPI PUSH1 0x40 MSTORE JUMP JUMPDEST PUSH1 0x80 DUP2 ADD SWAP1 DUP2 LT PUSH1 0x1 PUSH1 0x1 PUSH1 0x40 SHL SUB DUP3 GT OR PUSH2 0x535 JUMPI PUSH1 0x40 MSTORE JUMP JUMPDEST SWAP1 PUSH1 0x1F DUP1 NOT SWAP2 ADD AND DUP2 ADD SWAP1 DUP2 LT PUSH1 0x1 PUSH1 0x1 PUSH1 0x40 SHL SUB DUP3 GT OR PUSH2 0x535 JUMPI PUSH1 0x40 MSTORE JUMP JUMPDEST PUSH1 0x1 PUSH1 0x1 PUSH1 0x40 SHL SUB DUP2 GT PUSH2 0x535 JUMPI PUSH1 0x1F ADD PUSH1 0x1F NOT AND PUSH1 0x20 ADD SWAP1 JUMP JUMPDEST SWAP3 SWAP2 SWAP3 PUSH2 0x50C9 DUP3 PUSH2 0x50A2 JUMP JUMPDEST SWAP2 PUSH2 0x50D7 PUSH1 0x40 MLOAD SWAP4 DUP5 PUSH2 0x5081 JUMP JUMPDEST DUP3 SWAP5 DUP2 DUP5 MSTORE DUP2 DUP4 ADD GT PUSH2 0x5DA JUMPI DUP3 DUP2 PUSH1 0x20 SWAP4 DUP5 PUSH1 0x0 SWAP7 ADD CALLDATACOPY ADD ADD MSTORE JUMP JUMPDEST SWAP1 DUP1 PUSH1 0x1F DUP4 ADD SLT ISZERO PUSH2 0x5DA JUMPI DUP2 PUSH1 0x20 PUSH2 0x510F SWAP4 CALLDATALOAD SWAP2 ADD PUSH2 0x50BD JUMP JUMPDEST SWAP1 JUMP JUMPDEST PUSH1 0x0 JUMPDEST DUP4 DUP2 LT PUSH2 0x5125 JUMPI POP POP PUSH1 0x0 SWAP2 ADD MSTORE JUMP JUMPDEST DUP2 DUP2 ADD MLOAD DUP4 DUP3 ADD MSTORE PUSH1 0x20 ADD PUSH2 0x5115 JUMP JUMPDEST SWAP1 PUSH1 0x20 SWAP2 PUSH2 0x514E DUP2 MLOAD DUP1 SWAP3 DUP2 DUP6 MSTORE DUP6 DUP1 DUP7 ADD SWAP2 ADD PUSH2 0x5112 JUMP JUMPDEST PUSH1 0x1F ADD PUSH1 0x1F NOT AND ADD ADD SWAP1 JUMP JUMPDEST SWAP1 PUSH1 0x5 DUP3 LT ISZERO PUSH2 0x5A6 JUMPI MSTORE JUMP JUMPDEST PUSH1 0x40 SWAP1 PUSH1 0x3 NOT ADD SLT PUSH2 0x5DA JUMPI PUSH1 0x4 CALLDATALOAD SWAP1 PUSH1 0x24 CALLDATALOAD SWAP1 JUMP JUMPDEST DUP1 SLOAD DUP3 LT ISZERO PUSH2 0x5199 JUMPI PUSH1 0x0 MSTORE PUSH1 0x9 PUSH1 0x20 PUSH1 0x0 KECCAK256 SWAP2 MUL ADD SWAP1 PUSH1 0x0 SWAP1 JUMP JUMPDEST PUSH4 0x4E487B71 PUSH1 0xE0 SHL PUSH1 0x0 MSTORE PUSH1 0x32 PUSH1 0x4 MSTORE PUSH1 0x24 PUSH1 0x0 REVERT JUMPDEST SWAP1 PUSH1 0x1 DUP3 DUP2 SHR SWAP3 AND DUP1 ISZERO PUSH2 0x51DF JUMPI JUMPDEST PUSH1 0x20 DUP4 LT EQ PUSH2 0x51C9 JUMPI JUMP JUMPDEST PUSH4 0x4E487B71 PUSH1 0xE0 SHL PUSH1 0x0 MSTORE PUSH1 0x22 PUSH1 0x4 MSTORE PUSH1 0x24 PUSH1 0x0 REVERT JUMPDEST SWAP2 PUSH1 0x7F AND SWAP2 PUSH2 0x51BE JUMP JUMPDEST SWAP1 PUSH1 0x0 SWAP3 SWAP2 DUP1 SLOAD SWAP2 PUSH2 0x51FA DUP4 PUSH2 0x51AF JUMP JUMPDEST SWAP2 DUP3 DUP3 MSTORE PUSH1 0x1 SWAP4 DUP5 DUP2 AND SWAP1 DUP2 PUSH1 0x0 EQ PUSH2 0x525C JUMPI POP PUSH1 0x1 EQ PUSH2 0x521C JUMPI JUMPDEST POP POP POP POP JUMP JUMPDEST SWAP1 SWAP2 SWAP4 SWAP5 POP PUSH1 0x0 MSTORE PUSH1 0x20 SWAP3 DUP4 PUSH1 0x0 KECCAK256 SWAP3 DUP5 PUSH1 0x0 SWAP5 JUMPDEST DUP4 DUP7 LT PUSH2 0x5248 JUMPI POP POP POP POP ADD ADD SWAP1 CODESIZE DUP1 DUP1 DUP1 PUSH2 0x5216 JUMP JUMPDEST DUP1 SLOAD DUP6 DUP8 ADD DUP4 ADD MSTORE SWAP5 ADD SWAP4 DUP6 SWAP1 DUP3 ADD PUSH2 0x5231 JUMP JUMPDEST SWAP3 SWAP5 POP POP POP PUSH1 0x20 SWAP4 SWAP5 POP PUSH1 0xFF NOT AND DUP4 DUP4 ADD MSTORE ISZERO ISZERO PUSH1 0x5 SHL ADD ADD SWAP1 CODESIZE DUP1 DUP1 DUP1 PUSH2 0x5216 JUMP JUMPDEST SWAP1 PUSH1 0x8 DUP3 LT ISZERO PUSH2 0x5A6 JUMPI MSTORE JUMP JUMPDEST PUSH1 0x60 SWAP1 PUSH1 0x3 NOT ADD SLT PUSH2 0x5DA JUMPI PUSH1 0x1 PUSH1 0x1 PUSH1 0xA0 SHL SUB SWAP1 PUSH1 0x4 CALLDATALOAD DUP3 DUP2 AND DUP2 SUB PUSH2 0x5DA JUMPI SWAP2 PUSH1 0x24 CALLDATALOAD SWAP1 DUP2 AND DUP2 SUB PUSH2 0x5DA JUMPI SWAP1 PUSH1 0x44 CALLDATALOAD SWAP1 JUMP JUMPDEST DUP1 SLOAD DUP3 LT ISZERO PUSH2 0x5199 JUMPI PUSH1 0x0 MSTORE PUSH1 0x20 PUSH1 0x0 KECCAK256 ADD SWAP1 PUSH1 0x0 SWAP1 JUMP JUMPDEST DUP1 SLOAD DUP3 LT ISZERO PUSH2 0x5199 JUMPI PUSH1 0x0 MSTORE PUSH1 0x20 PUSH1 0x0 KECCAK256 SWAP1 PUSH1 0x2 SHL ADD SWAP1 PUSH1 0x0 SWAP1 JUMP JUMPDEST SWAP1 PUSH1 0x40 PUSH1 0x3 NOT DUP4 ADD SLT PUSH2 0x5DA JUMPI PUSH1 0x4 CALLDATALOAD SWAP2 PUSH1 0x24 CALLDATALOAD SWAP1 PUSH1 0x1 PUSH1 0x1 PUSH1 0x40 SHL SUB DUP3 GT PUSH2 0x5DA JUMPI PUSH2 0x510F SWAP2 PUSH1 0x4 ADD PUSH2 0x50F4 JUMP JUMPDEST SWAP1 PUSH1 0x6 DUP3 LT ISZERO PUSH2 0x5A6 JUMPI MSTORE JUMP JUMPDEST PUSH1 0x24 CALLDATALOAD SWAP1 DUP2 ISZERO ISZERO DUP3 SUB PUSH2 0x5DA JUMPI JUMP JUMPDEST CALLER PUSH1 0x0 SWAP1 DUP2 MSTORE PUSH32 0x5A4A839A8A41E9C56BEAD82789209CD708F718A22BA06C2110A5BFB3DC4B80BC PUSH1 0x20 MSTORE PUSH1 0x40 SWAP1 KECCAK256 SLOAD PUSH32 0xDDAA901E2FE3BDA354FE0EDE2785152D5C109282A613FE024A056A3E66C41BB3 SWAP1 PUSH1 0xFF AND ISZERO PUSH2 0x5BC JUMPI POP JUMP JUMPDEST CALLER PUSH1 0x0 SWAP1 DUP2 MSTORE PUSH32 0xA70365933F78520EF41D6645BA61E509916296603327302D41466C063E8E2608 PUSH1 0x20 MSTORE PUSH1 0x40 SWAP1 KECCAK256 SLOAD PUSH1 0x0 DUP1 MLOAD PUSH1 0x20 PUSH2 0x5BCE DUP4 CODECOPY DUP2 MLOAD SWAP2 MSTORE SWAP1 PUSH1 0xFF AND ISZERO PUSH2 0x5BC JUMPI POP JUMP JUMPDEST CALLER PUSH1 0x0 SWAP1 DUP2 MSTORE PUSH32 0xC5AB710F8C4CC7C1AFAC50210FF340AB9E3A5797B579FCBB6114569DD517BA0A PUSH1 0x20 MSTORE PUSH1 0x40 SWAP1 KECCAK256 SLOAD PUSH32 0x68E79A7BF1E0BC45D0A330C573BC367F9CF464FD326078812F301165FBDA4EF1 SWAP1 PUSH1 0xFF AND ISZERO PUSH2 0x5BC JUMPI POP JUMP JUMPDEST DUP1 PUSH1 0x0 MSTORE PUSH1 0x7 PUSH1 0x20 MSTORE PUSH1 0x40 PUSH1 0x0 KECCAK256 CALLER PUSH1 0x0 MSTORE PUSH1 0x20 MSTORE PUSH1 0xFF PUSH1 0x40 PUSH1 0x0 KECCAK256 SLOAD AND ISZERO PUSH2 0x5BC JUMPI POP JUMP JUMPDEST SWAP1 PUSH1 0x0 SWAP2 DUP1 DUP4 MSTORE PUSH1 0x7 PUSH1 0x20 MSTORE PUSH1 0x40 DUP4 KECCAK256 SWAP2 PUSH1 0x1 DUP1 PUSH1 0xA0 SHL SUB AND SWAP2 DUP3 DUP5 MSTORE PUSH1 0x20 MSTORE PUSH1 0xFF PUSH1 0x40 DUP5 KECCAK256 SLOAD AND ISZERO PUSH1 0x0 EQ PUSH2 0x54E3 JUMPI DUP1 DUP4 MSTORE PUSH1 0x7 PUSH1 0x20 MSTORE PUSH1 0x40 DUP4 KECCAK256 DUP3 DUP5 MSTORE PUSH1 0x20 MSTORE PUSH1 0x40 DUP4 KECCAK256 PUSH1 0x1 PUSH1 0xFF NOT DUP3 SLOAD AND OR SWAP1 SSTORE PUSH32 0x2F8788117E7EFF1D82E926EC794901D17C78024A50270940304540A733656F0D CALLER SWAP4 DUP1 LOG4 PUSH1 0x1 SWAP1 JUMP JUMPDEST POP POP SWAP1 JUMP JUMPDEST SWAP1 PUSH1 0x0 SWAP2 DUP1 DUP4 MSTORE PUSH1 0x7 PUSH1 0x20 MSTORE PUSH1 0x40 DUP4 KECCAK256 SWAP2 PUSH1 0x1 DUP1 PUSH1 0xA0 SHL SUB AND SWAP2 DUP3 DUP5 MSTORE PUSH1 0x20 MSTORE PUSH1 0xFF PUSH1 0x40 DUP5 KECCAK256 SLOAD AND PUSH1 0x0 EQ PUSH2 0x54E3 JUMPI DUP1 DUP4 MSTORE PUSH1 0x7 PUSH1 0x20 MSTORE PUSH1 0x40 DUP4 KECCAK256 DUP3 DUP5 MSTORE PUSH1 0x20 MSTORE PUSH1 0x40 DUP4 KECCAK256 PUSH1 0xFF NOT DUP2 SLOAD AND SWAP1 SSTORE PUSH32 0xF6391F5C32D9C69D2A47EA670B442974B53935D1EDC7FD64EB21E047A839171B CALLER SWAP4 DUP1 LOG4 PUSH1 0x1 SWAP1 JUMP JUMPDEST SWAP1 PUSH1 0x1 PUSH1 0x1 PUSH1 0xA0 SHL SUB SWAP1 DUP2 AND DUP1 ISZERO PUSH2 0x3C56 JUMPI PUSH1 0x0 SWAP2 DUP5 DUP4 MSTORE PUSH1 0x20 SWAP2 PUSH1 0x2 DUP4 MSTORE PUSH1 0x40 SWAP3 DUP3 DUP5 DUP7 KECCAK256 SLOAD AND PUSH1 0x9 DUP3 MSTORE PUSH1 0xFF PUSH1 0xC DUP7 DUP9 KECCAK256 ADD SLOAD AND SWAP1 DUP2 PUSH2 0x5730 JUMPI JUMPDEST POP PUSH2 0x5718 JUMPI SWAP1 DUP7 SWAP2 DUP3 DUP7 MSTORE PUSH1 0x2 DUP2 MSTORE DUP4 DUP6 DUP8 KECCAK256 SLOAD AND SWAP6 DUP7 SWAP2 CALLER ISZERO ISZERO DUP1 PUSH2 0x5682 JUMPI JUMPDEST POP SWAP1 PUSH1 0x2 PUSH32 0xDDF252AD1BE2C89B69C2B068FC378DAA952BA7F163C4A11628F55A4DF523B3EF SWAP3 DUP5 PUSH2 0x564F JUMPI JUMPDEST DUP6 DUP4 MSTORE PUSH1 0x3 DUP2 MSTORE DUP9 DUP4 KECCAK256 DUP1 SLOAD PUSH1 0x1 ADD SWAP1 SSTORE DUP7 DUP4 MSTORE MSTORE DUP7 DUP2 KECCAK256 DUP1 SLOAD PUSH1 0x1 PUSH1 0x1 PUSH1 0xA0 SHL SUB NOT AND DUP6 OR SWAP1 SSTORE DUP1 LOG4 DUP4 AND DUP3 SUB PUSH2 0x5621 JUMPI POP POP POP POP JUMP JUMPDEST MLOAD PUSH4 0x64283D7B PUSH1 0xE0 SHL DUP2 MSTORE PUSH1 0x1 PUSH1 0x1 PUSH1 0xA0 SHL SUB SWAP3 DUP4 AND PUSH1 0x4 DUP3 ADD MSTORE PUSH1 0x24 DUP2 ADD SWAP4 SWAP1 SWAP4 MSTORE AND PUSH1 0x44 DUP3 ADD MSTORE PUSH1 0x64 SWAP1 REVERT JUMPDEST PUSH1 0x0 DUP8 DUP2 MSTORE PUSH1 0x4 PUSH1 0x20 MSTORE PUSH1 0x40 SWAP1 KECCAK256 DUP1 SLOAD PUSH1 0x1 PUSH1 0x1 PUSH1 0xA0 SHL SUB NOT AND SWAP1 SSTORE DUP5 DUP4 MSTORE PUSH1 0x3 DUP2 MSTORE DUP9 DUP4 KECCAK256 DUP1 SLOAD PUSH1 0x0 NOT ADD SWAP1 SSTORE PUSH2 0x55E9 JUMP JUMPDEST SWAP2 SWAP4 SWAP5 POP SWAP2 POP DUP1 PUSH2 0x56D7 JUMPI JUMPDEST ISZERO PUSH2 0x569E JUMPI DUP8 SWAP3 SWAP2 DUP7 SWAP2 CODESIZE PUSH2 0x55BD JUMP JUMPDEST DUP5 DUP9 DUP8 PUSH2 0x56BB JUMPI PUSH1 0x24 SWAP2 MLOAD SWAP1 PUSH4 0x7E273289 PUSH1 0xE0 SHL DUP3 MSTORE PUSH1 0x4 DUP3 ADD MSTORE REVERT JUMPDEST PUSH1 0x44 SWAP2 MLOAD SWAP1 PUSH4 0x177E802F PUSH1 0xE0 SHL DUP3 MSTORE CALLER PUSH1 0x4 DUP4 ADD MSTORE PUSH1 0x24 DUP3 ADD MSTORE REVERT JUMPDEST POP CALLER DUP7 EQ DUP1 ISZERO PUSH2 0x56FC JUMPI JUMPDEST DUP1 PUSH2 0x568E JUMPI POP DUP8 DUP3 MSTORE PUSH1 0x4 DUP2 MSTORE CALLER DUP5 DUP7 DUP5 KECCAK256 SLOAD AND EQ PUSH2 0x568E JUMP JUMPDEST POP DUP6 DUP3 MSTORE PUSH1 0x5 DUP2 MSTORE DUP5 DUP3 KECCAK256 CALLER DUP4 MSTORE DUP2 MSTORE PUSH1 0xFF DUP6 DUP4 KECCAK256 SLOAD AND PUSH2 0x56E2 JUMP JUMPDEST DUP4 MLOAD PUSH3 0x461BCD PUSH1 0xE5 SHL DUP2 MSTORE DUP1 PUSH2 0x1846 PUSH1 0x4 DUP3 ADD PUSH2 0x59F0 JUMP JUMPDEST SWAP1 POP ISZERO ISZERO CODESIZE PUSH2 0x559C JUMP JUMPDEST SWAP3 SWAP1 SWAP3 PUSH2 0x5748 DUP4 DUP6 DUP4 PUSH2 0x555F JUMP JUMPDEST DUP4 EXTCODESIZE PUSH2 0x5754 JUMPI POP POP POP POP JUMP JUMPDEST PUSH1 0x40 MLOAD PUSH4 0xA85BD01 PUSH1 0xE1 SHL DUP1 DUP3 MSTORE CALLER PUSH1 0x4 DUP4 ADD MSTORE PUSH1 0x1 PUSH1 0x1 PUSH1 0xA0 SHL SUB SWAP3 DUP4 AND PUSH1 0x24 DUP4 ADD MSTORE PUSH1 0x44 DUP3 ADD SWAP5 SWAP1 SWAP5 MSTORE PUSH1 0x80 PUSH1 0x64 DUP3 ADD MSTORE SWAP5 SWAP4 AND SWAP3 PUSH1 0x20 SWAP3 SWAP1 SWAP2 DUP6 SWAP1 PUSH2 0x57A0 SWAP1 PUSH1 0x84 DUP4 ADD SWAP1 PUSH2 0x5135 JUMP JUMPDEST SUB SWAP5 DUP4 DUP2 PUSH1 0x0 SWAP8 DUP2 DUP10 DUP10 GAS CALL DUP7 SWAP2 DUP2 PUSH2 0x584A JUMPI JUMPDEST POP PUSH2 0x5815 JUMPI POP POP POP RETURNDATASIZE PUSH1 0x0 EQ PUSH2 0x580C JUMPI RETURNDATASIZE PUSH2 0x57CE DUP2 PUSH2 0x50A2 JUMP JUMPDEST SWAP1 PUSH2 0x57DC PUSH1 0x40 MLOAD SWAP3 DUP4 PUSH2 0x5081 JUMP JUMPDEST DUP2 MSTORE DUP1 SWAP4 DUP3 RETURNDATASIZE SWAP3 ADD RETURNDATACOPY JUMPDEST DUP3 MLOAD SWAP3 DUP4 PUSH2 0x5807 JUMPI PUSH1 0x40 MLOAD PUSH4 0x32505749 PUSH1 0xE1 SHL DUP2 MSTORE PUSH1 0x4 DUP2 ADD DUP5 SWAP1 MSTORE PUSH1 0x24 SWAP1 REVERT JUMPDEST ADD SWAP1 POP REVERT JUMPDEST PUSH1 0x60 SWAP3 POP PUSH2 0x57E6 JUMP JUMPDEST SWAP2 SWAP5 POP SWAP2 POP PUSH4 0xFFFFFFFF PUSH1 0xE0 SHL AND SUB PUSH2 0x5832 JUMPI POP CODESIZE DUP1 DUP1 DUP1 PUSH2 0x5216 JUMP JUMPDEST PUSH1 0x24 SWAP1 PUSH1 0x40 MLOAD SWAP1 PUSH4 0x32505749 PUSH1 0xE1 SHL DUP3 MSTORE PUSH1 0x4 DUP3 ADD MSTORE REVERT JUMPDEST SWAP1 SWAP2 POP DUP5 DUP2 DUP2 RETURNDATASIZE DUP4 GT PUSH2 0x5887 JUMPI JUMPDEST PUSH2 0x5862 DUP2 DUP4 PUSH2 0x5081 JUMP JUMPDEST DUP2 ADD SUB SLT PUSH2 0x5883 JUMPI MLOAD PUSH1 0x1 PUSH1 0x1 PUSH1 0xE0 SHL SUB NOT DUP2 AND DUP2 SUB PUSH2 0x5883 JUMPI SWAP1 CODESIZE PUSH2 0x57B4 JUMP JUMPDEST DUP7 DUP1 REVERT JUMPDEST POP RETURNDATASIZE PUSH2 0x5858 JUMP JUMPDEST PUSH1 0x0 DUP2 DUP2 MSTORE PUSH1 0x2 PUSH1 0x20 MSTORE PUSH1 0x40 SWAP1 KECCAK256 SLOAD PUSH1 0x1 PUSH1 0x1 PUSH1 0xA0 SHL SUB AND SWAP1 DUP2 ISZERO PUSH2 0x58B1 JUMPI POP SWAP1 JUMP JUMPDEST PUSH1 0x24 SWAP1 PUSH1 0x40 MLOAD SWAP1 PUSH4 0x7E273289 PUSH1 0xE0 SHL DUP3 MSTORE PUSH1 0x4 DUP3 ADD MSTORE REVERT JUMPDEST PUSH1 0x0 NOT DUP2 EQ PUSH2 0xB99 JUMPI PUSH1 0x1 ADD SWAP1 JUMP JUMPDEST ISZERO PUSH2 0x58DF JUMPI JUMP JUMPDEST PUSH1 0x40 MLOAD PUSH3 0x461BCD PUSH1 0xE5 SHL DUP2 MSTORE PUSH1 0x20 PUSH1 0x4 DUP3 ADD MSTORE PUSH1 0x16 PUSH1 0x24 DUP3 ADD MSTORE PUSH22 0x141C9BD91D58DD08191BD95CC81B9BDD08195E1A5CDD PUSH1 0x52 SHL PUSH1 0x44 DUP3 ADD MSTORE PUSH1 0x64 SWAP1 REVERT JUMPDEST ISZERO PUSH2 0x5924 JUMPI JUMP JUMPDEST PUSH1 0x40 MLOAD PUSH3 0x461BCD PUSH1 0xE5 SHL DUP2 MSTORE PUSH1 0x20 PUSH1 0x4 DUP3 ADD MSTORE PUSH1 0x1B PUSH1 0x24 DUP3 ADD MSTORE PUSH32 0x496E76616C69642064657374696E6174696F6E20616464726573730000000000 PUSH1 0x44 DUP3 ADD MSTORE PUSH1 0x64 SWAP1 REVERT JUMPDEST SWAP1 PUSH1 0x1 PUSH1 0x1 PUSH1 0xA0 SHL SUB SWAP1 DUP2 DUP2 AND ISZERO PUSH2 0x3C56 JUMPI DUP4 PUSH2 0x5985 SWAP2 PUSH2 0x5A8D JUMP JUMPDEST SWAP1 DUP1 DUP3 AND SWAP1 DUP2 PUSH2 0x59A8 JUMPI PUSH1 0x40 MLOAD PUSH4 0x7E273289 PUSH1 0xE0 SHL DUP2 MSTORE PUSH1 0x4 DUP2 ADD DUP7 SWAP1 MSTORE PUSH1 0x24 SWAP1 REVERT JUMPDEST DUP4 AND SUB PUSH2 0x59B4 JUMPI POP POP POP JUMP JUMPDEST PUSH1 0x40 MLOAD PUSH4 0x64283D7B PUSH1 0xE0 SHL DUP2 MSTORE PUSH1 0x1 PUSH1 0x1 PUSH1 0xA0 SHL SUB SWAP3 DUP4 AND PUSH1 0x4 DUP3 ADD MSTORE PUSH1 0x24 DUP2 ADD SWAP4 SWAP1 SWAP4 MSTORE AND PUSH1 0x44 DUP3 ADD MSTORE PUSH1 0x64 SWAP1 REVERT JUMPDEST PUSH1 0x8 DUP3 LT ISZERO PUSH2 0x5A6 JUMPI MSTORE JUMP JUMPDEST PUSH1 0x80 SWAP1 PUSH1 0x20 DUP2 MSTORE PUSH1 0x2C PUSH1 0x20 DUP3 ADD MSTORE PUSH32 0x546F6B656E20697320736F756C626F756E6420616E642063616E6E6F74206265 PUSH1 0x40 DUP3 ADD MSTORE PUSH12 0x81D1C985B9CD9995C9C9959 PUSH1 0xA2 SHL PUSH1 0x60 DUP3 ADD MSTORE ADD SWAP1 JUMP JUMPDEST PUSH1 0x1 PUSH1 0x1 PUSH1 0x40 SHL SUB DUP2 GT PUSH2 0x535 JUMPI PUSH1 0x5 SHL PUSH1 0x20 ADD SWAP1 JUMP JUMPDEST PUSH1 0x0 SWAP1 DUP2 MSTORE PUSH1 0x2 PUSH1 0x20 MSTORE PUSH1 0x40 SWAP1 KECCAK256 SLOAD PUSH1 0x1 PUSH1 0x1 PUSH1 0xA0 SHL SUB AND ISZERO PUSH2 0x5A88 JUMPI PUSH1 0x9 PUSH1 0x20 MSTORE PUSH1 0xFF PUSH1 0xC PUSH1 0x40 PUSH1 0x0 KECCAK256 ADD SLOAD PUSH1 0x8 SHR AND SWAP1 JUMP JUMPDEST PUSH1 0x0 SWAP1 JUMP JUMPDEST SWAP1 PUSH1 0x0 SWAP2 DUP2 DUP4 MSTORE PUSH1 0x20 SWAP1 PUSH1 0x2 DUP3 MSTORE PUSH1 0x1 DUP1 PUSH1 0xA0 SHL SUB SWAP4 PUSH1 0x40 DUP6 DUP2 DUP4 KECCAK256 SLOAD AND PUSH1 0x9 DUP6 MSTORE PUSH1 0xFF PUSH1 0xC DUP4 DUP6 KECCAK256 ADD SLOAD AND SWAP1 DUP2 PUSH2 0x5B83 JUMPI JUMPDEST POP PUSH2 0x5B6C JUMPI SWAP1 PUSH32 0xDDF252AD1BE2C89B69C2B068FC378DAA952BA7F163C4A11628F55A4DF523B3EF SWAP2 DUP6 DUP3 MSTORE PUSH1 0x2 DUP6 MSTORE PUSH1 0x2 DUP8 DUP3 DUP5 KECCAK256 SLOAD AND SWAP8 DUP9 SWAP6 DUP7 PUSH2 0x5B39 JUMPI JUMPDEST AND SWAP6 DUP7 PUSH2 0x5B23 JUMPI JUMPDEST DUP8 DUP5 MSTORE MSTORE DUP2 KECCAK256 DUP1 SLOAD PUSH1 0x1 PUSH1 0x1 PUSH1 0xA0 SHL SUB NOT AND DUP6 OR SWAP1 SSTORE DUP1 LOG4 SWAP1 JUMP JUMPDEST DUP7 DUP5 MSTORE PUSH1 0x3 DUP2 MSTORE DUP3 DUP5 KECCAK256 PUSH1 0x1 DUP2 SLOAD ADD SWAP1 SSTORE PUSH2 0x5B08 JUMP JUMPDEST PUSH1 0x0 DUP10 DUP2 MSTORE PUSH1 0x4 PUSH1 0x20 MSTORE PUSH1 0x40 SWAP1 KECCAK256 DUP1 SLOAD PUSH1 0x1 PUSH1 0x1 PUSH1 0xA0 SHL SUB NOT AND SWAP1 SSTORE DUP7 DUP6 MSTORE PUSH1 0x3 DUP9 MSTORE DUP4 DUP6 KECCAK256 DUP1 SLOAD PUSH1 0x0 NOT ADD SWAP1 SSTORE PUSH2 0x5B00 JUMP JUMPDEST MLOAD PUSH3 0x461BCD PUSH1 0xE5 SHL DUP2 MSTORE DUP1 PUSH2 0x1846 PUSH1 0x4 DUP3 ADD PUSH2 0x59F0 JUMP JUMPDEST SWAP1 POP ISZERO ISZERO CODESIZE PUSH2 0x5AC0 JUMP INVALID 0x27 RETURNDATASIZE 0xCF 0x21 CALLDATASIZE 0xC7 0xD8 0xEF PUSH4 0x2BB8EF13 0xDB 0xCA PUSH10 0xA8F36FA620C7468671B3 ISZERO RETURNDATASIZE CHAINID LOG2 GT 0xC0 0x1F 0xEE PUSH6 0xBF2EDE0D34FC PUSH21 0x6EFFD1D457315A439158AFE48D47A09CD92B007FC2 TIMESTAMP LOG4 SWAP9 SMOD KECCAK256 0x5C 0xE4 0xD3 SSTORE MULMOD 0x2E CREATE2 0xA8 LOG1 DUP16 JUMP 0xE8 SWAP2 EXTCODECOPY DELEGATECALL LOG2 ADD 0xFB 0xE2 DUP8 DUP3 JUMPDEST MULMOD JUMP SWAP4 0xC2 OR PUSH22 0xA26469706673582212206AB6C6297329627B5ED3E360 SMOD PUSH20 0xEE5A6CC55C57143CC1148DE55E1822FA6746473 PUSH16 0x6C634300081400332F8788117E7EFF1D DUP3 0xE9 0x26 0xEC PUSH26 0x4901D17C78024A50270940304540A733656F0D00000000000000 "},"methodIdentifiers":{"ADMIN_ROLE()":"75b238fc","CUSTOMER_ROLE()":"204d7923","DEFAULT_ADMIN_ROLE()":"a217fddf","INSPECTOR_ROLE()":"e3a3c522","MANUFACTURER_ROLE()":"965288b0","ORACLE_ROLE()":"07e2cea5","PACKAGER_ROLE()":"a40b9ddf","RETAILER_ROLE()":"2115e7bf","TRANSPORTER_ROLE()":"4eabbe77","WHOLESALER_ROLE()":"d7cb8d34","addZKProof(uint256,string,string)":"78deb9fd","approve(address,uint256)":"095ea7b3","approveShipment(uint256)":"115da32e","authorizedViewers(uint256,address)":"b5788b49","balanceOf(address)":"70a08231","barcodeToTokenId(string)":"4037ee3f","confirmReceipt(uint256,string)":"48fd93d0","confirmShipmentCompletion(uint256)":"0c8b0e57","generateEncryptionKeys(uint256,address,address)":"dc5dad8b","getApproved(uint256)":"081812fc","getIoTData(uint256)":"ee83687b","getProduct(uint256)":"b9db15b4","getProductShipments(uint256)":"ced2dea4","getProductZKProofs(uint256)":"e4aada09","getRoleAdmin(bytes32)":"248a9ca3","getShipment(uint256)":"092b3740","grantRole(bytes32,address)":"2f2ff15d","hasProductAccess(uint256,address)":"4bc39ec2","hasRole(bytes32,address)":"91d14854","isApprovedForAll(address,address)":"e985e9c5","isProductRecalled(uint256)":"08021d1e","logPackaging(uint256,string)":"f04fe44e","mintProduct(string,string,string,string,uint256,string,address)":"4601bef8","name()":"06fdde03","ownerOf(uint256)":"6352211e","productIoTData(uint256,uint256)":"1020f783","productKeys(uint256)":"6b1023dd","productShipments(uint256,uint256)":"2fe9f958","productZKProofs(uint256,uint256)":"395905c6","products(uint256)":"7acc0b20","recallProduct(uint256,string)":"9ce0f973","recordIoT(uint256,uint8,int256,string,string,string)":"4a6323d6","renounceRole(bytes32,address)":"36568abe","requestShipment(uint256,address,string,string)":"01ab6e09","revokeRole(bytes32,address)":"d547741f","rfidToTokenId(string)":"bedd1136","safeTransferFrom(address,address,uint256)":"42842e0e","safeTransferFrom(address,address,uint256,bytes)":"b88d4fde","setApprovalForAll(address,bool)":"a22cb465","setSoulbound(uint256,bool)":"966d964b","shipProduct(uint256)":"2927d1d9","shipments(uint256)":"2ac08a93","supportsInterface(bytes4)":"01ffc9a7","symbol()":"95d89b41","tokenURI(uint256)":"c87b56dd","transferCustody(uint256,address,string)":"910bc3a1","transferFrom(address,address,uint256)":"23b872dd","updateLocation(uint256,string)":"4ec0c9e9","verifyZKProof(uint256,uint256)":"61ce4ade"}}}}}