{
  "_format": "hh-sol-artifact-1",
  "contractName": "SupplyChainEscrow",
  "sourceName": "contracts/SupplyChainEscrow.sol",
  "abi": [
    {
      "inputs": [
        {
          "internalType": "address",
          "name": "_nftContract",
          "type": "address"
        }
      ],
      "stateMutability": "nonpayable",
      "type": "constructor"
    },
    {
      "anonymous": false,
      "inputs": [
        {
          "indexed": true,
          "internalType": "uint256",
          "name": "escrowId",
          "type": "uint256"
        },
        {
          "indexed": true,
          "internalType": "address",
          "name": "initiator",
          "type": "address"
        },
        {
          "indexed": false,
          "internalType": "string",
          "name": "reason",
          "type": "string"
        }
      ],
      "name": "DisputeCreated",
      "type": "event"
    },
    {
      "anonymous": false,
      "inputs": [
        {
          "indexed": true,
          "internalType": "uint256",
          "name": "escrowId",
          "type": "uint256"
        },
        {
          "indexed": true,
          "internalType": "address",
          "name": "arbitrator",
          "type": "address"
        },
        {
          "indexed": false,
          "internalType": "string",
          "name": "resolution",
          "type": "string"
        }
      ],
      "name": "DisputeResolved",
      "type": "event"
    },
    {
      "anonymous": false,
      "inputs": [
        {
          "indexed": true,
          "internalType": "uint256",
          "name": "escrowId",
          "type": "uint256"
        },
        {
          "indexed": true,
          "internalType": "uint256",
          "name": "tokenId",
          "type": "uint256"
        },
        {
          "indexed": true,
          "internalType": "address",
          "name": "buyer",
          "type": "address"
        },
        {
          "indexed": false,
          "internalType": "address",
          "name": "seller",
          "type": "address"
        },
        {
          "indexed": false,
          "internalType": "uint256",
          "name": "amount",
          "type": "uint256"
        }
      ],
      "name": "EscrowCreated",
      "type": "event"
    },
    {
      "anonymous": false,
      "inputs": [
        {
          "indexed": true,
          "internalType": "uint256",
          "name": "escrowId",
          "type": "uint256"
        },
        {
          "indexed": false,
          "internalType": "uint256",
          "name": "amount",
          "type": "uint256"
        }
      ],
      "name": "EscrowFunded",
      "type": "event"
    },
    {
      "anonymous": false,
      "inputs": [
        {
          "indexed": true,
          "internalType": "uint256",
          "name": "escrowId",
          "type": "uint256"
        },
        {
          "indexed": false,
          "internalType": "uint256",
          "name": "amount",
          "type": "uint256"
        },
        {
          "indexed": false,
          "internalType": "address",
          "name": "recipient",
          "type": "address"
        }
      ],
      "name": "EscrowReleased",
      "type": "event"
    },
    {
      "anonymous": false,
      "inputs": [
        {
          "indexed": true,
          "internalType": "uint256",
          "name": "escrowId",
          "type": "uint256"
        },
        {
          "indexed": false,
          "internalType": "uint256",
          "name": "milestoneIndex",
          "type": "uint256"
        },
        {
          "indexed": false,
          "internalType": "address",
          "name": "completedBy",
          "type": "address"
        }
      ],
      "name": "MilestoneCompleted",
      "type": "event"
    },
    {
      "anonymous": false,
      "inputs": [
        {
          "indexed": true,
          "internalType": "uint256",
          "name": "escrowId",
          "type": "uint256"
        },
        {
          "indexed": false,
          "internalType": "uint256",
          "name": "penaltyAmount",
          "type": "uint256"
        },
        {
          "indexed": false,
          "internalType": "string",
          "name": "reason",
          "type": "string"
        }
      ],
      "name": "PenaltyApplied",
      "type": "event"
    },
    {
      "anonymous": false,
      "inputs": [
        {
          "indexed": true,
          "internalType": "bytes32",
          "name": "role",
          "type": "bytes32"
        },
        {
          "indexed": true,
          "internalType": "bytes32",
          "name": "previousAdminRole",
          "type": "bytes32"
        },
        {
          "indexed": true,
          "internalType": "bytes32",
          "name": "newAdminRole",
          "type": "bytes32"
        }
      ],
      "name": "RoleAdminChanged",
      "type": "event"
    },
    {
      "anonymous": false,
      "inputs": [
        {
          "indexed": true,
          "internalType": "bytes32",
          "name": "role",
          "type": "bytes32"
        },
        {
          "indexed": true,
          "internalType": "address",
          "name": "account",
          "type": "address"
        },
        {
          "indexed": true,
          "internalType": "address",
          "name": "sender",
          "type": "address"
        }
      ],
      "name": "RoleGranted",
      "type": "event"
    },
    {
      "anonymous": false,
      "inputs": [
        {
          "indexed": true,
          "internalType": "bytes32",
          "name": "role",
          "type": "bytes32"
        },
        {
          "indexed": true,
          "internalType": "address",
          "name": "account",
          "type": "address"
        },
        {
          "indexed": true,
          "internalType": "address",
          "name": "sender",
          "type": "address"
        }
      ],
      "name": "RoleRevoked",
      "type": "event"
    },
    {
      "anonymous": false,
      "inputs": [
        {
          "indexed": true,
          "internalType": "uint256",
          "name": "escrowId",
          "type": "uint256"
        },
        {
          "indexed": false,
          "internalType": "string",
          "name": "conditionType",
          "type": "string"
        },
        {
          "indexed": false,
          "internalType": "int256",
          "name": "actualValue",
          "type": "int256"
        },
        {
          "indexed": false,
          "internalType": "uint256",
          "name": "penaltyAmount",
          "type": "uint256"
        }
      ],
      "name": "SLAViolation",
      "type": "event"
    },
    {
      "inputs": [],
      "name": "ARBITRATOR_ROLE",
      "outputs": [
        {
          "internalType": "bytes32",
          "name": "",
          "type": "bytes32"
        }
      ],
      "stateMutability": "view",
      "type": "function"
    },
    {
      "inputs": [],
      "name": "DEFAULT_ADMIN_ROLE",
      "outputs": [
        {
          "internalType": "bytes32",
          "name": "",
          "type": "bytes32"
        }
      ],
      "stateMutability": "view",
      "type": "function"
    },
    {
      "inputs": [],
      "name": "ORACLE_ROLE",
      "outputs": [
        {
          "internalType": "bytes32",
          "name": "",
          "type": "bytes32"
        }
      ],
      "stateMutability": "view",
      "type": "function"
    },
    {
      "inputs": [
        {
          "internalType": "uint256",
          "name": "escrowId",
          "type": "uint256"
        },
        {
          "internalType": "string",
          "name": "description",
          "type": "string"
        },
        {
          "internalType": "uint256",
          "name": "amount",
          "type": "uint256"
        }
      ],
      "name": "addMilestone",
      "outputs": [],
      "stateMutability": "nonpayable",
      "type": "function"
    },
    {
      "inputs": [
        {
          "internalType": "uint256",
          "name": "escrowId",
          "type": "uint256"
        },
        {
          "internalType": "string",
          "name": "conditionType",
          "type": "string"
        },
        {
          "internalType": "int256",
          "name": "minValue",
          "type": "int256"
        },
        {
          "internalType": "int256",
          "name": "maxValue",
          "type": "int256"
        },
        {
          "internalType": "uint256",
          "name": "penaltyPercentage",
          "type": "uint256"
        }
      ],
      "name": "addSLACondition",
      "outputs": [],
      "stateMutability": "nonpayable",
      "type": "function"
    },
    {
      "inputs": [
        {
          "internalType": "uint256",
          "name": "escrowId",
          "type": "uint256"
        }
      ],
      "name": "autoConfirmDelivery",
      "outputs": [],
      "stateMutability": "nonpayable",
      "type": "function"
    },
    {
      "inputs": [
        {
          "internalType": "uint256",
          "name": "escrowId",
          "type": "uint256"
        }
      ],
      "name": "cancelEscrow",
      "outputs": [],
      "stateMutability": "nonpayable",
      "type": "function"
    },
    {
      "inputs": [
        {
          "internalType": "uint256",
          "name": "escrowId",
          "type": "uint256"
        },
        {
          "internalType": "uint256",
          "name": "milestoneIndex",
          "type": "uint256"
        }
      ],
      "name": "completeMilestone",
      "outputs": [],
      "stateMutability": "nonpayable",
      "type": "function"
    },
    {
      "inputs": [
        {
          "internalType": "uint256",
          "name": "escrowId",
          "type": "uint256"
        }
      ],
      "name": "confirmDelivery",
      "outputs": [],
      "stateMutability": "nonpayable",
      "type": "function"
    },
    {
      "inputs": [
        {
          "internalType": "uint256",
          "name": "escrowId",
          "type": "uint256"
        },
        {
          "internalType": "string",
          "name": "reason",
          "type": "string"
        }
      ],
      "name": "createDispute",
      "outputs": [],
      "stateMutability": "nonpayable",
      "type": "function"
    },
    {
      "inputs": [
        {
          "internalType": "uint256",
          "name": "tokenId",
          "type": "uint256"
        },
        {
          "internalType": "address",
          "name": "seller",
          "type": "address"
        },
        {
          "internalType": "uint256",
          "name": "expectedDeliveryTime",
          "type": "uint256"
        },
        {
          "internalType": "string",
          "name": "deliveryLocation",
          "type": "string"
        },
        {
          "internalType": "bool",
          "name": "autoRelease",
          "type": "bool"
        }
      ],
      "name": "createEscrow",
      "outputs": [
        {
          "internalType": "uint256",
          "name": "",
          "type": "uint256"
        }
      ],
      "stateMutability": "payable",
      "type": "function"
    },
    {
      "inputs": [
        {
          "internalType": "uint256",
          "name": "",
          "type": "uint256"
        }
      ],
      "name": "escrowDisputes",
      "outputs": [
        {
          "internalType": "address",
          "name": "initiator",
          "type": "address"
        },
        {
          "internalType": "string",
          "name": "reason",
          "type": "string"
        },
        {
          "internalType": "uint256",
          "name": "createdAt",
          "type": "uint256"
        },
        {
          "internalType": "bool",
          "name": "resolved",
          "type": "bool"
        },
        {
          "internalType": "address",
          "name": "arbitrator",
          "type": "address"
        },
        {
          "internalType": "string",
          "name": "resolution",
          "type": "string"
        }
      ],
      "stateMutability": "view",
      "type": "function"
    },
    {
      "inputs": [
        {
          "internalType": "uint256",
          "name": "",
          "type": "uint256"
        },
        {
          "internalType": "uint256",
          "name": "",
          "type": "uint256"
        }
      ],
      "name": "escrowMilestones",
      "outputs": [
        {
          "internalType": "string",
          "name": "description",
          "type": "string"
        },
        {
          "internalType": "uint256",
          "name": "amount",
          "type": "uint256"
        },
        {
          "internalType": "bool",
          "name": "completed",
          "type": "bool"
        },
        {
          "internalType": "uint256",
          "name": "completedAt",
          "type": "uint256"
        },
        {
          "internalType": "address",
          "name": "completedBy",
          "type": "address"
        }
      ],
      "stateMutability": "view",
      "type": "function"
    },
    {
      "inputs": [
        {
          "internalType": "uint256",
          "name": "",
          "type": "uint256"
        }
      ],
      "name": "escrows",
      "outputs": [
        {
          "internalType": "uint256",
          "name": "tokenId",
          "type": "uint256"
        },
        {
          "internalType": "address",
          "name": "buyer",
          "type": "address"
        },
        {
          "internalType": "address",
          "name": "seller",
          "type": "address"
        },
        {
          "internalType": "uint256",
          "name": "totalAmount",
          "type": "uint256"
        },
        {
          "internalType": "uint256",
          "name": "penaltyAmount",
          "type": "uint256"
        },
        {
          "internalType": "uint256",
          "name": "createdAt",
          "type": "uint256"
        },
        {
          "internalType": "uint256",
          "name": "expectedDeliveryTime",
          "type": "uint256"
        },
        {
          "internalType": "enum SupplyChainEscrow.EscrowStatus",
          "name": "status",
          "type": "uint8"
        },
        {
          "internalType": "string",
          "name": "deliveryLocation",
          "type": "string"
        },
        {
          "internalType": "bool",
          "name": "autoRelease",
          "type": "bool"
        }
      ],
      "stateMutability": "view",
      "type": "function"
    },
    {
      "inputs": [],
      "name": "getCurrentEscrowId",
      "outputs": [
        {
          "internalType": "uint256",
          "name": "",
          "type": "uint256"
        }
      ],
      "stateMutability": "view",
      "type": "function"
    },
    {
      "inputs": [
        {
          "internalType": "uint256",
          "name": "escrowId",
          "type": "uint256"
        }
      ],
      "name": "getDispute",
      "outputs": [
        {
          "components": [
            {
              "internalType": "address",
              "name": "initiator",
              "type": "address"
            },
            {
              "internalType": "string",
              "name": "reason",
              "type": "string"
            },
            {
              "internalType": "uint256",
              "name": "createdAt",
              "type": "uint256"
            },
            {
              "internalType": "bool",
              "name": "resolved",
              "type": "bool"
            },
            {
              "internalType": "address",
              "name": "arbitrator",
              "type": "address"
            },
            {
              "internalType": "string",
              "name": "resolution",
              "type": "string"
            }
          ],
          "internalType": "struct SupplyChainEscrow.Dispute",
          "name": "",
          "type": "tuple"
        }
      ],
      "stateMutability": "view",
      "type": "function"
    },
    {
      "inputs": [
        {
          "internalType": "uint256",
          "name": "escrowId",
          "type": "uint256"
        }
      ],
      "name": "getEscrowData",
      "outputs": [
        {
          "internalType": "uint256",
          "name": "tokenId",
          "type": "uint256"
        },
        {
          "internalType": "address",
          "name": "buyer",
          "type": "address"
        },
        {
          "internalType": "address",
          "name": "seller",
          "type": "address"
        },
        {
          "internalType": "uint256",
          "name": "totalAmount",
          "type": "uint256"
        },
        {
          "internalType": "uint256",
          "name": "penaltyAmount",
          "type": "uint256"
        },
        {
          "internalType": "uint256",
          "name": "createdAt",
          "type": "uint256"
        },
        {
          "internalType": "uint256",
          "name": "expectedDeliveryTime",
          "type": "uint256"
        },
        {
          "internalType": "enum SupplyChainEscrow.EscrowStatus",
          "name": "status",
          "type": "uint8"
        },
        {
          "internalType": "string",
          "name": "deliveryLocation",
          "type": "string"
        },
        {
          "internalType": "bool",
          "name": "autoRelease",
          "type": "bool"
        }
      ],
      "stateMutability": "view",
      "type": "function"
    },
    {
      "inputs": [
        {
          "internalType": "uint256",
          "name": "escrowId",
          "type": "uint256"
        }
      ],
      "name": "getMilestones",
      "outputs": [
        {
          "components": [
            {
              "internalType": "string",
              "name": "description",
              "type": "string"
            },
            {
              "internalType": "uint256",
              "name": "amount",
              "type": "uint256"
            },
            {
              "internalType": "bool",
              "name": "completed",
              "type": "bool"
            },
            {
              "internalType": "uint256",
              "name": "completedAt",
              "type": "uint256"
            },
            {
              "internalType": "address",
              "name": "completedBy",
              "type": "address"
            }
          ],
          "internalType": "struct SupplyChainEscrow.Milestone[]",
          "name": "",
          "type": "tuple[]"
        }
      ],
      "stateMutability": "view",
      "type": "function"
    },
    {
      "inputs": [
        {
          "internalType": "bytes32",
          "name": "role",
          "type": "bytes32"
        }
      ],
      "name": "getRoleAdmin",
      "outputs": [
        {
          "internalType": "bytes32",
          "name": "",
          "type": "bytes32"
        }
      ],
      "stateMutability": "view",
      "type": "function"
    },
    {
      "inputs": [
        {
          "internalType": "uint256",
          "name": "escrowId",
          "type": "uint256"
        },
        {
          "internalType": "string",
          "name": "conditionType",
          "type": "string"
        }
      ],
      "name": "getSLACondition",
      "outputs": [
        {
          "components": [
            {
              "internalType": "string",
              "name": "conditionType",
              "type": "string"
            },
            {
              "internalType": "int256",
              "name": "minValue",
              "type": "int256"
            },
            {
              "internalType": "int256",
              "name": "maxValue",
              "type": "int256"
            },
            {
              "internalType": "uint256",
              "name": "penaltyPercentage",
              "type": "uint256"
            },
            {
              "internalType": "bool",
              "name": "isActive",
              "type": "bool"
            }
          ],
          "internalType": "struct SupplyChainEscrow.SLACondition",
          "name": "",
          "type": "tuple"
        }
      ],
      "stateMutability": "view",
      "type": "function"
    },
    {
      "inputs": [
        {
          "internalType": "uint256",
          "name": "escrowId",
          "type": "uint256"
        }
      ],
      "name": "getSLAKeys",
      "outputs": [
        {
          "internalType": "string[]",
          "name": "",
          "type": "string[]"
        }
      ],
      "stateMutability": "view",
      "type": "function"
    },
    {
      "inputs": [
        {
          "internalType": "uint256",
          "name": "escrowId",
          "type": "uint256"
        },
        {
          "internalType": "string",
          "name": "conditionType",
          "type": "string"
        }
      ],
      "name": "getSLAViolations",
      "outputs": [
        {
          "internalType": "int256[]",
          "name": "",
          "type": "int256[]"
        }
      ],
      "stateMutability": "view",
      "type": "function"
    },
    {
      "inputs": [
        {
          "internalType": "bytes32",
          "name": "role",
          "type": "bytes32"
        },
        {
          "internalType": "address",
          "name": "account",
          "type": "address"
        }
      ],
      "name": "grantRole",
      "outputs": [],
      "stateMutability": "nonpayable",
      "type": "function"
    },
    {
      "inputs": [
        {
          "internalType": "bytes32",
          "name": "role",
          "type": "bytes32"
        },
        {
          "internalType": "address",
          "name": "account",
          "type": "address"
        }
      ],
      "name": "hasRole",
      "outputs": [
        {
          "internalType": "bool",
          "name": "",
          "type": "bool"
        }
      ],
      "stateMutability": "view",
      "type": "function"
    },
    {
      "inputs": [],
      "name": "nftContract",
      "outputs": [
        {
          "internalType": "contract ProTrackNFT",
          "name": "",
          "type": "address"
        }
      ],
      "stateMutability": "view",
      "type": "function"
    },
    {
      "inputs": [
        {
          "internalType": "uint256",
          "name": "escrowId",
          "type": "uint256"
        }
      ],
      "name": "releasePayment",
      "outputs": [],
      "stateMutability": "nonpayable",
      "type": "function"
    },
    {
      "inputs": [
        {
          "internalType": "bytes32",
          "name": "role",
          "type": "bytes32"
        },
        {
          "internalType": "address",
          "name": "account",
          "type": "address"
        }
      ],
      "name": "renounceRole",
      "outputs": [],
      "stateMutability": "nonpayable",
      "type": "function"
    },
    {
      "inputs": [
        {
          "internalType": "uint256",
          "name": "escrowId",
          "type": "uint256"
        },
        {
          "internalType": "string",
          "name": "conditionType",
          "type": "string"
        },
        {
          "internalType": "int256",
          "name": "actualValue",
          "type": "int256"
        }
      ],
      "name": "reportSLAViolation",
      "outputs": [],
      "stateMutability": "nonpayable",
      "type": "function"
    },
    {
      "inputs": [
        {
          "internalType": "uint256",
          "name": "escrowId",
          "type": "uint256"
        },
        {
          "internalType": "string",
          "name": "resolution",
          "type": "string"
        },
        {
          "internalType": "uint256",
          "name": "buyerRefund",
          "type": "uint256"
        },
        {
          "internalType": "uint256",
          "name": "sellerPayment",
          "type": "uint256"
        }
      ],
      "name": "resolveDispute",
      "outputs": [],
      "stateMutability": "nonpayable",
      "type": "function"
    },
    {
      "inputs": [
        {
          "internalType": "bytes32",
          "name": "role",
          "type": "bytes32"
        },
        {
          "internalType": "address",
          "name": "account",
          "type": "address"
        }
      ],
      "name": "revokeRole",
      "outputs": [],
      "stateMutability": "nonpayable",
      "type": "function"
    },
    {
      "inputs": [
        {
          "internalType": "uint256",
          "name": "",
          "type": "uint256"
        },
        {
          "internalType": "string",
          "name": "",
          "type": "string"
        },
        {
          "internalType": "uint256",
          "name": "",
          "type": "uint256"
        }
      ],
      "name": "slaViolations",
      "outputs": [
        {
          "internalType": "int256",
          "name": "",
          "type": "int256"
        }
      ],
      "stateMutability": "view",
      "type": "function"
    },
    {
      "inputs": [
        {
          "internalType": "uint256",
          "name": "escrowId",
          "type": "uint256"
        }
      ],
      "name": "startShipment",
      "outputs": [],
      "stateMutability": "nonpayable",
      "type": "function"
    },
    {
      "inputs": [
        {
          "internalType": "bytes4",
          "name": "interfaceId",
          "type": "bytes4"
        }
      ],
      "name": "supportsInterface",
      "outputs": [
        {
          "internalType": "bool",
          "name": "",
          "type": "bool"
        }
      ],
      "stateMutability": "view",
      "type": "function"
    }
  ],
  "bytecode": "0x60a034620001c857601f6200328438819003918201601f1916830192916001600160401b03841183851017620001cd5780839260409586528339602092839181010312620001c857516001600160a01b03811690819003620001c8576001600091818355608052818052808352838220338352835260ff84832054161562000191575b7f68e79a7bf1e0bc45d0a330c573bc367f9cf464fd326078812f301165fbda4ef1808352818452848320338452845260ff85842054161562000158575b507f16ceee8289685dd2a02b9c8ae81d2df373176ce53519e6284e2a2950d6546ffa92838352818152848320338452815260ff8584205416156200011d575b84516130809081620001e4823960805181818161081e0152611edc0152f35b83835281815284832090338452528382209060ff19825416179055339160008051602062003264833981519152339280a438808080620000fe565b80835281845284832033845284528483208260ff1982541617905533903390600080516020620032648339815191528580a438620000bf565b81805280835283822033835283528382208160ff19825416179055333383600080516020620032648339815191528180a462000082565b600080fd5b634e487b7160e01b600052604160045260246000fdfe60406080815260048036101561001457600080fd5b600091823560e01c8063012f52ee1461235357806301ffc9a7146122fd57806307e2cea5146122c257806309abeffa146121c357806311632e4e1461213857806323d1e88414611e64578063248a9ca314611e3a5780632543e08a14611def578063271eed5114611b295780632f2ff15d14611a7c578063321af4ca146119d857806336568abe1461194657806342c549c0146117f9578063609b4b481461132957806371ec7ed41461125357806388685cd9146111be57806391d1485414611177578063937bbb4114610f7957806398df912e14610e245780639c32c44714610bd65780639cea078714610b9b578063a217fddf14610b80578063a53ec6e414610a88578063ae89aeb914610a0f578063afa5b0ec1461093b578063b15871b3146108a5578063d0f08fbe14610886578063d547741f1461084d578063d56d229d14610809578063e018243614610681578063e3a96cbd14610571578063f326206b146102755763fd84cb971461018b57600080fd5b346102715760203660031901126102715781358084526003602052818420600101549092906001600160a01b0316330361022f57828452600360205260ff600783862001541690600882101561021c575060ff916101ed600260099314612d9f565b838552600360205284206007810160038419825416179055015416610210575080f35b61021990612e46565b80f35b634e487b7160e01b855260219052602484fd5b6020606492519162461bcd60e51b8352820152601f60248201527f4f6e6c792062757965722063616e20636f6e6669726d2064656c6976657279006044820152fd5b8280fd5b50903461027157610285366125f9565b81855260036020908152848620600201546001600160a01b03959394919290861633148015610535575b6102b890612d16565b848752818352838720548110156104f35784875281835260ff60026102df83878b20612614565b500154166104b157848752818352816102fa82868a20612614565b5060028101805460ff191660011790554260038201550180546001600160a01b031916339081179091558451828152602081019190915285907f5142be5dffcf006606e1b0e030730d45f5cd24edfb7566efc3dc188625ac3e9c90604090a28487526003835260ff6009858920015416610372578680f35b61038190828452848820612614565b5090848752600383528387209160ff6002820154161561046e5760010192835490600384019283549182841161042c57505060029392916103c191612e39565b905501908580808088865416855490828215610423575bf11561041957549054915190815292166001600160a01b031660208301529060008051602061302b8339815191529080604081010390a23880808080808680f35b82513d87823e3d90fd5b506108fc6103d8565b875162461bcd60e51b815291820152601b60248201527f496e73756666696369656e7420657363726f772062616c616e63650000000000604482015260649150fd5b845162461bcd60e51b8152808301859052601760248201527f4d696c6573746f6e65206e6f7420636f6d706c657465640000000000000000006044820152606490fd5b50915162461bcd60e51b815291820152601b60248201527f4d696c6573746f6e6520616c726561647920636f6d706c6574656400000000006044820152606490fd5b50915162461bcd60e51b815291820152601760248201527f496e76616c6964206d696c6573746f6e6520696e6465780000000000000000006044820152606490fd5b507f68e79a7bf1e0bc45d0a330c573bc367f9cf464fd326078812f301165fbda4ef187526001835283872033885283528387205460ff166102af565b5091903461067d576020918260031936011261067a57908361067692606060a0835161059c81612438565b8381528288820152838582015283838201528360808201520152823581526005855220938051946105cc86612438565b80546001600160a01b039081168752908661064e6105ec6001840161248f565b9488830195865260c0610628600286015498838601998a52600387015496886080606089019860ff8b1615158a52019860081c1688520161248f565b9660a08c019788528a8784519d8e9d8e525116908c015251918a015260e0890190612558565b945160608801525115156080870152511660a085015251838203601f190160c0850152612558565b0390f35b80fd5b5080fd5b50346102715760209081600319360112610805578235916106a0612de3565b8285526003808252828620600101546001600160a01b039591929190861633036107cc5784875282825260ff600785892001541660088110156107b95760010361076c57508386528181528580808086812060078101600660ff19825416179055868a60018301541691015490828215610763575bf1156104195783865281905281852090810154600190910154915190815292166001600160a01b031660208301529060008051602061302b8339815191529080604081010390a26001815580f35b506108fc610715565b60849184519162461bcd60e51b83528201526024808201527f43616e6e6f742063616e63656c20616674657220736869706d656e74207374616044820152631c9d195960e21b6064820152fd5b634e487b7160e01b885260218252602488fd5b60649184519162461bcd60e51b8352820152601560248201527413db9b1e48189d5e595c8818d85b8818d85b98d95b605a1b6044820152fd5b8380fd5b83823461067d578160031936011261067d57517f00000000000000000000000000000000000000000000000000000000000000006001600160a01b03168152602090f35b503461027157806003193601126102715761021991356108816001610870612646565b938387528160205286200154612946565b612a4f565b83823461067d578160031936011261067d576020906002549051908152f35b50913461067a57602036600319011261067a57813581526005602052829020805490926001600160a01b0391821692610676926108e46001870161248f565b956108fa6002820154936003830154920161248f565b926109168551988998895260c060208a015260c0890190612558565b9487015260ff81161515606087015260081c16608085015283820360a0850152612558565b5091903461067d57602090816003193601126102715791909135815260038252600b8382200190815461096d81613013565b9061097a8651928361246e565b8082528482018094845285842084915b8383106109eb57505050508451938085019181865251809252858501958260051b8601019392955b8287106109bf5785850386f35b9091929382806109db600193603f198a82030186528851612558565b96019201960195929190926109b2565b60018881926109fd859b98999b61248f565b8152019201920191909694939661098a565b50823461067a57602036600319011261067a5781610676918435815260036020522080549260018060a01b039485600184015416956002840154169060038401549084015460058501549060068601549260ff60078801541694610a7d600860ff60098b015416990161248f565b96519a8b9a8b61257d565b503461027157602036600319011261027157813591610aa5612758565b828452600360205260ff60078386200154166008811015610b6d576002610acc9114612d9f565b828452600360205260068285200154620151808101809111610b5a57421115610b185750600960ff91838552600360205284206007810160038419825416179055015416610210575080f35b6020606492519162461bcd60e51b8352820152601a60248201527f546f6f206561726c7920666f72206175746f2d636f6e6669726d0000000000006044820152fd5b634e487b7160e01b855260118252602485fd5b634e487b7160e01b855260218252602485fd5b83823461067d578160031936011261067d5751908152602090f35b83823461067d578160031936011261067d57602090517f16ceee8289685dd2a02b9c8ae81d2df373176ce53519e6284e2a2950d6546ffa8152f35b503461027157610be536612726565b90918285526020936003855281862090610c1760018060a01b0392836001820154163314908115610e14575b50612d16565b8487526003865260ff600784892001541660088110156107b9578114610dd1578487526005865260ff6003848920015416610d955784875260038652828720600701805460ff19166005179055825191610c7083612438565b338352868301908582528484019042825260608501918a835260808601908b82528751948b86018681106001600160401b03821117610d8257938693610d63938f8f948f7faf118a7cabdaf54249ddc06dead7ccf57fbd8aec9573381ac712fab04da4afcd9f9d9a969e610d7c9f936005829f9c95610d6b9f948f60a090858d98610d1e9b895252019d8e52835252209a51166001600160601b0360a01b8b5416178a555160018a01612c07565b516002880155610d416003880193511515849060ff801983541691151516179055565b518254610100600160a81b031916911660081b610100600160a81b0316179055565b519101612c07565b519182918683523396830190612558565b0390a380f35b634e487b7160e01b8e526041885260248efd5b825162461bcd60e51b815290810186905260166024820152754469737075746520616c72656164792065786973747360501b6044820152606490fd5b825162461bcd60e51b8152908101869052601860248201527f457363726f7720616c726561647920636f6d706c6574656400000000000000006044820152606490fd5b6002015484163314905038610c11565b50903461027157610e34366126b2565b828652600360205284862060018101546001600160a01b03959491610e649187163314908115610f695750612d16565b808752600360205260ff60078789200154166008811015610f56576001610e8b9114612d53565b86528260205284862094805192610ea184612407565b835260208301918252820186815260608301918783526080840196888852805490600160401b821015610f435790610ede91600182018155612614565b949094610f315790610ef5610f1393925186612c07565b516001850155511515600284019060ff801983541691151516179055565b516003820155019151166001600160601b0360a01b82541617905580f35b634e487b7160e01b8952888652602489fd5b634e487b7160e01b8a526041875260248afd5b634e487b7160e01b885260218552602488fd5b6002015487163314905038610c11565b5082903461067d5760a036600319011261067d578235926024356001600160401b03811161080557610fae903690830161265c565b848452600360205282842060018101546084359691610fe491336001600160a01b039182161491908215611165575b5050612d16565b808552600360205260ff6007858720015416600881101561115257600161100b9114612d53565b612710861161110f578452600360205282842094600a86019560ff8461103189866126e8565b015416156110ac575b50610219949584519461104c86612407565b83865261108461107c602088019260443584528801936064358552606089019586526080890196600188526126e8565b965187612c07565b51600186015551600285015551600384015551151591019060ff801983541691151516179055565b600b01805490600160401b8210156110fc57906110ce9160018201815561270e565b9690966110ea576110e3836102199798612c07565b959461103a565b634e487b7160e01b8652858452602486fd5b634e487b7160e01b875260418552602487fd5b835162461bcd60e51b8152602081850152601a60248201527f50656e616c74792063616e6e6f742065786365656420313030250000000000006044820152606490fd5b634e487b7160e01b865260218452602486fd5b90915060023392015416148880610fdd565b5090346102715781600319360112610271578160209360ff92611198612646565b90358252600186528282206001600160a01b039091168252855220549151911615158152f35b50346102715760203660031901126102715761120861120d9235916111e1612de3565b8285526003602052808520600101546001600160a01b031633149081156112145750612d16565b612e46565b6001815580f35b60ff91507f16ceee8289685dd2a02b9c8ae81d2df373176ce53519e6284e2a2950d6546ffa865260016020528086203387526020528520541638610c11565b509034610271576112a361130b93600a8461126d36612726565b9390816080845161127d81612407565b6060815282602082015282868201528260608201520152815260036020522001906126e8565b918051926112b084612407565b6112b98161248f565b84526001810154926020850193845260ff60028301549184870192835260038401549360608801948552015416926080860193151584528051968796602088525160a0602089015260c0880190612558565b94519086015251606085015251608084015251151560a08301520390f35b503461027157608036600319011261027157813560249182356001600160401b0381116117f55761135d903690860161265c565b9060443593606435907f16ceee8289685dd2a02b9c8ae81d2df373176ce53519e6284e2a2950d6546ffa95868952600197602097898952858b20338c52895260ff868c2054161561164657506113b1612de3565b868a5260039283895260ff6007878d200154166008811015611634576005036115fe576113de8584612ac5565b888c52848a5284878d200154106115c55750868a5260058852848a208381018054610100600160a81b03198c166001600160a81b0319909116173360081b610100600160a81b031617905589918b9160ff199061143e908a908401612c07565b898352858b528783209160078301918254161790558315908115611551575b505050505081159081156114ae575b5050507f7b71d2e00379bd165b2750d54298da2414376699827edca2bce2a096c491d2e9916114a691519182918683523396830190612558565b0390a3815580f35b858952808752888080808660018060a01b03968760028b8520015416908390611548575bf11561153e578589528652828820600201548351928352166001600160a01b031660208201527f7b71d2e00379bd165b2750d54298da2414376699827edca2bce2a096c491d2e9926114a6929091859060008051602061302b83398151915290604090a291819361146c565b83513d8a823e3d90fd5b506108fc6114d2565b82858193829360018060a01b039788910154169083906115bc575bf1156115b257868a52828852848a208901548551928352166001600160a01b03166020820152859060008051602061302b83398151915290604090a2388789828061145d565b84513d8b823e3d90fd5b506108fc61156c565b855162461bcd60e51b81529182018990526014908201527324b73b30b634b2103234b9ba3934b13aba34b7b760611b6044820152606490fd5b855162461bcd60e51b8152918201899052601190820152704e6f20616374697665206469737075746560781b6044820152606490fd5b50634e487b7160e01b8b52602182528afd5b9083868a938d8d61165633612af9565b9284519161166383612453565b604283528883019360603686378351156117e3576030855383518210156117e35790607860218501536041915b81831161177a5750505061173a5760486117369593859361171e9361170f975197889376020b1b1b2b9b9a1b7b73a3937b61d1030b1b1b7bab73a1604d1b8d8601526116e68d8251928391603789019101612535565b8401917001034b99036b4b9b9b4b733903937b6329607d1b603784015251809386840190612535565b0103602881018652018461246e565b5194859462461bcd60e51b8652850152830190612558565b0390fd5b60648688878188519362461bcd60e51b85528401528201527f537472696e67733a20686578206c656e67746820696e73756666696369656e746044820152fd5b909192600f811660108110156117d1576f181899199a1a9b1b9c1cb0b131b232b360811b901a6117aa8587612ae8565b53891c9280156117bf57600019019190611690565b634e487b7160e01b825260118a528882fd5b634e487b7160e01b835260328b528983fd5b634e487b7160e01b8152603289528790fd5b8580fd5b5091903461067d57602090816003193601126102715790918135815281835283812091825461182781613013565b916118348751938461246e565b81835285830190819585528685209085925b8484106118e35750505050508451938085019181865251809252858501868360051b8701019493965b83881061187c5786860387f35b90919293948380600192603f198a82030186528851906118a4825160a0808452830190612558565b918381015184830152868101511515878301526060808201519083015260809081878060a01b039101511691015297019301970196909392919361186f565b6005896001928c9b98999b516118f881612407565b6119018761248f565b815284870154838201528d60ff60028901541615159082015260038701546060820152848060a01b038688015416608082015281520193019301929197959497611846565b5091903461067d578260031936011261067d57611961612646565b90336001600160a01b0383160361197d57906102199135612a4f565b608490602085519162461bcd60e51b8352820152602f60248201527f416363657373436f6e74726f6c3a2063616e206f6e6c792072656e6f756e636560448201526e103937b632b9903337b91039b2b63360891b6064820152fd5b50823461067a57906119e936612726565b92908152611a0060209360068552838320906126e8565b908251808584549182815201908194845286842090845b818110611a685750505081611a2d91038261246e565b83519485948186019282875251809352850193925b828110611a5157505050500390f35b835185528695509381019392810192600101611a42565b825484529288019260019283019201611a17565b5090346102715781600319360112610271573590611a98612646565b908284526001602052611ab060018286200154612946565b828452600160209081528185206001600160a01b039093168086529290528084205460ff1615611ade578380f35b82845260016020528084208285526020528320600160ff1982541617905533917f2f8788117e7eff1d82e926ec794901d17c78024a50270940304540a733656f0d8480a43880808380f35b509034610271576060366003190112610271578035906024356001600160401b038111611deb57611b5d903690830161265c565b9160443592611b6a612758565b8186526020906003825285872090600782019660ff8854166008811015611dd8576002611b979114612d9f565b611ba4600a8401836126e8565b9660ff878901541615611d95578960018901548015159081611d8b575b50611d83575b60028901548015159081611d79575b50611d71575b611be4578980f35b60038401976003895491015490818102918183041490151715611d5e57612710889104940196611c15858954612ac5565b8855868b5260068652611c2a838c20856126e8565b805491600160401b831015611d4b57507f8220856edd619a7550906bd4a67ea0a73aae860876d409365b552ed105dd65ef7ffae8e25d8210164872487204b6f05b204bad9980811c789218062e36c214978697969593611c95848b946001611d21999701815561270e565b81549060031b9083821b91600019901b19161790558351809160608252611cbf6060830188612558565b908a83015288868301520390a2611d0e602f825180946e029a620903b34b7b630ba34b7b71d1608d1b89830152611cfe815180928b8686019101612535565b810103600f81018552018361246e565b8080519586958652850152830190612558565b0390a25490541115611d3a575b80808080808080808980f35b805460ff1916600717905538611d2e565b634e487b7160e01b8d526041905260248cfd5b634e487b7160e01b8b526011885260248bfd5b506001611bdc565b9050821338611bd6565b506001611bc7565b9050821238611bc1565b815162461bcd60e51b8152808801869052601860248201527f534c4120636f6e646974696f6e206e6f742061637469766500000000000000006044820152606490fd5b634e487b7160e01b8a526021875260248afd5b8480fd5b83823461067d57611e1591611e03366126b2565b949183526006602052838320906126e8565b90815484101561067a5750602092611e2c9161270e565b91905490519160031b1c8152f35b50903461027157602036600319011261027157816020936001923581528285522001549051908152f35b50829060a036600319011261067d578235611e7d612646565b90604435946064356001600160401b0381116117f557611ea0903690830161265c565b906084359182151583036121345734156120e55785516331a9108f60e11b81528281018590526020986001600160a01b03969091908a826024817f00000000000000000000000000000000000000000000000000000000000000008c165afa9182156120db579088918b9361209b575b5016968791160361205857428111156120095791611f98600992611faa95946002549a60018c016002558b815260038d528a812094898655600186016001600160601b0360a01b9033828254161790558b6002880191825416179055346003870155850155426005850155600684015560078301600160ff1982541617905560088301612c07565b019060ff801983541691151516179055565b82519182523485830152837fa96863da5e2cb895c2d739ef4b0a2bf93464d7bb3a3bf098c0af12c1b404c43a843394a4817f911052e1be46242b46bf3c2762227ff37c000e5fe38727638096f3a17fbfe170848351348152a251908152f35b865162461bcd60e51b81528084018a9052602360248201527f44656c69766572792074696d65206d75737420626520696e207468652066757460448201526275726560e81b6064820152608490fd5b865162461bcd60e51b81528084018a9052601760248201527f53656c6c6572206d757374206f776e20746865204e46540000000000000000006044820152606490fd5b8c809294508193503d83116120d4575b6120b5818361246e565b810103126120d0575187811681036120d0578790918c611f10565b8980fd5b503d6120ab565b89513d8c823e3d90fd5b855162461bcd60e51b81526020818401526024808201527f457363726f7720616d6f756e74206d75737420626520677265617465722074686044820152630616e20360e41b6064820152608490fd5b8680fd5b503461027157612147366125f9565b939081528260205281812090815485101561067a57506121a99361216a91612614565b506121748161248f565b9260018201549260ff6002840154169260038101549260018060a01b039101541692815196879660a0885260a0880190612558565b946020870152151590850152606084015260808301520390f35b509034610271576020908160031936011261080557803580855260038352838520600201549091906001600160a01b0316330361227f578185526003835260ff6007858720015416600881101561226c5760010361223557508352600390528120600701805460ff1916600217905580f35b835162461bcd60e51b81529081018390526011602482015270115cd8dc9bddc81b9bdd08199d5b991959607a1b6044820152606490fd5b634e487b7160e01b865260218252602486fd5b835162461bcd60e51b8152908101839052601e60248201527f4f6e6c792073656c6c65722063616e20737461727420736869706d656e7400006044820152606490fd5b83823461067d578160031936011261067d57602090517f68e79a7bf1e0bc45d0a330c573bc367f9cf464fd326078812f301165fbda4ef18152f35b50903461027157602036600319011261027157359063ffffffff60e01b82168092036102715760209250637965db0b60e01b8214918215612342575b50519015158152f35b6301ffc9a760e01b14915038612339565b50823461067a57602036600319011261067a578161067691843581526003602052209182549260018060a01b039485600183015416956002830154169060038301549083015460058401549060068501549260ff6007870154169460ff60096123be60088a0161248f565b9801541697519a8b9a8b61257d565b90600182811c921680156123fd575b60208310146123e757565b634e487b7160e01b600052602260045260246000fd5b91607f16916123dc565b60a081019081106001600160401b0382111761242257604052565b634e487b7160e01b600052604160045260246000fd5b60c081019081106001600160401b0382111761242257604052565b608081019081106001600160401b0382111761242257604052565b90601f801991011681019081106001600160401b0382111761242257604052565b90604051918260008254926124a3846123cd565b90818452600194858116908160001461251257506001146124cf575b50506124cd9250038361246e565b565b9093915060005260209081600020936000915b8183106124fa5750506124cd935082010138806124bf565b855488840185015294850194879450918301916124e2565b9150506124cd94506020925060ff191682840152151560051b82010138806124bf565b60005b8381106125485750506000910152565b8181015183820152602001612538565b9060209161257181518092818552858086019101612535565b601f01601f1916010190565b98979695949392909a999a895260018060a01b0380921660208a01521660408801526060870152608086015260a085015260c084015260088110156125e357610120916125db9160e085015261014080610100860152840190612558565b931515910152565b634e487b7160e01b600052602160045260246000fd5b604090600319011261260f576004359060243590565b600080fd5b8054821015612630576000526005602060002091020190600090565b634e487b7160e01b600052603260045260246000fd5b602435906001600160a01b038216820361260f57565b81601f8201121561260f578035906001600160401b0382116124225760405192612690601f8401601f19166020018561246e565b8284526020838301011161260f57816000926020809301838601378301015290565b90606060031983011261260f5760043591602435906001600160401b03821161260f576126e19160040161265c565b9060443590565b602090612702928260405194838680955193849201612535565b82019081520301902090565b80548210156126305760005260206000200190600090565b90604060031983011261260f5760043591602435906001600160401b03821161260f576127559160040161265c565b90565b3360009081527ff7c11a6d0ec535894a90c88b42cba2ccb348cb15b5e3ad22a710d1d4ac632819602090815260408083205490927f68e79a7bf1e0bc45d0a330c573bc367f9cf464fd326078812f301165fbda4ef19160019060ff16156127c0575050505050565b6127c933612af9565b928551916127d683612453565b60428352858301936060368637835115612932576030855383518210156129325790607860218501536041915b8183116128c45750505061288257604861173693869361286693612857985198899376020b1b1b2b9b9a1b7b73a3937b61d1030b1b1b7bab73a1604d1b8a8601526116e6815180928c603789019101612535565b0103602881018752018561246e565b5192839262461bcd60e51b845260048401526024830190612558565b60648486519062461bcd60e51b825280600483015260248201527f537472696e67733a20686578206c656e67746820696e73756666696369656e746044820152fd5b909192600f8116601081101561291e576f181899199a1a9b1b9c1cb0b131b232b360811b901a6128f48587612ae8565b5360041c92801561290a57600019019190612803565b634e487b7160e01b82526011600452602482fd5b634e487b7160e01b83526032600452602483fd5b634e487b7160e01b81526032600452602490fd5b6000818152600191602091838352604093848220338352845260ff858320541615612972575050505050565b61297b33612af9565b9285519161298883612453565b60428352858301936060368637835115612932576030855383518210156129325790607860218501536041915b818311612a095750505061288257604861173693869361286693612857985198899376020b1b1b2b9b9a1b7b73a3937b61d1030b1b1b7bab73a1604d1b8a8601526116e6815180928c603789019101612535565b909192600f8116601081101561291e576f181899199a1a9b1b9c1cb0b131b232b360811b901a612a398587612ae8565b5360041c92801561290a576000190191906129b5565b906000918083526001602052604083209160018060a01b03169182845260205260ff604084205416612a8057505050565b8083526001602052604083208284526020526040832060ff1981541690557ff6391f5c32d9c69d2a47ea670b442974b53935d1edc7fd64eb21e047a839171b339380a4565b91908201809211612ad257565b634e487b7160e01b600052601160045260246000fd5b908151811015612630570160200190565b60405190606082018281106001600160401b0382111761242257604052602a82526020820160403682378251156126305760309053815160019081101561263057607860218401536029905b808211612b99575050612b555790565b606460405162461bcd60e51b815260206004820152602060248201527f537472696e67733a20686578206c656e67746820696e73756666696369656e746044820152fd5b9091600f81166010811015612bf2576f181899199a1a9b1b9c1cb0b131b232b360811b901a612bc88486612ae8565b5360041c918015612bdd576000190190612b45565b60246000634e487b7160e01b81526011600452fd5b60246000634e487b7160e01b81526032600452fd5b91909182516001600160401b03811161242257612c2482546123cd565b601f8111612cce575b50602080601f8311600114612c6a575081929394600092612c5f575b50508160011b916000199060031b1c1916179055565b015190503880612c49565b90601f198316958460005282600020926000905b888210612cb657505083600195969710612c9d575b505050811b019055565b015160001960f88460031b161c19169055388080612c93565b80600185968294968601518155019501930190612c7e565b600083815260208120601f840160051c81019260208510612d0c575b601f0160051c01915b828110612d01575050612c2d565b818155600101612cf3565b9092508290612cea565b15612d1d57565b60405162461bcd60e51b815260206004820152600e60248201526d139bdd08185d5d1a1bdc9a5e995960921b6044820152606490fd5b15612d5a57565b60405162461bcd60e51b815260206004820152601c60248201527f457363726f77206e6f7420696e20636f727265637420737461747573000000006044820152606490fd5b15612da657565b60405162461bcd60e51b8152602060048201526015602482015274115cd8dc9bddc81b9bdd081a5b881d1c985b9cda5d605a1b6044820152606490fd5b600260005414612df4576002600055565b60405162461bcd60e51b815260206004820152601f60248201527f5265656e7472616e637947756172643a207265656e7472616e742063616c6c006044820152606490fd5b91908203918211612ad257565b600081815260036020526040908181206007810191825460ff81166008811015612fff5760038103612fc257600414612f8a576003830154936004612e8f818601548097612e39565b9260ff191617905580158015612f22575b50508215918215612eb4575b505050505050565b60010190808080808760018060a01b039788885416908390612f19575bf115612f0e57505492519182529091166001600160a01b0316602082015260008051602061302b83398151915290604090a2388080808080612eac565b8451903d90823e3d90fd5b506108fc612ed1565b60028401838080808660018060a01b039687875416908390612f81575bf115612f7757548651928352166001600160a01b03166020820152859060008051602061302b83398151915290604090a23880612ea0565b86513d85823e3d90fd5b506108fc612f3f565b845162461bcd60e51b8152602060048201526011602482015270105b1c9958591e4818dbdb5c1b195d1959607a1b6044820152606490fd5b855162461bcd60e51b815260206004820152601660248201527511195b1a5d995c9e481b9bdd0818dbdb999a5c9b595960521b6044820152606490fd5b634e487b7160e01b83526021600452602483fd5b6001600160401b0381116124225760051b6020019056fe42d6d6c9aab3e26747215559fd2bdd240720051c1a64bf30714611cd93939c7aa264697066735822122077e184942cefc30b3b51bb7f629b2a07da353f1d24c2b4d105ae8f900fca58ea64736f6c634300081300332f8788117e7eff1d82e926ec794901d17c78024a50270940304540a733656f0d",
  "linkReferences": {},
  "deployedLinkReferences": {}
}