{
  "_format": "hh-sol-artifact-1",
  "contractName": "ProTrackRFIDTokenizer",
  "sourceName": "contracts/ProTrackRFIDTokenizer.sol",
  "abi": [
    {
      "inputs": [
        {
          "internalType": "address",
          "name": "_supplyChainContract",
          "type": "address"
        },
        {
          "internalType": "address payable",
          "name": "_mpcWallet",
          "type": "address"
        }
      ],
      "stateMutability": "nonpayable",
      "type": "constructor"
    },
    {
      "anonymous": false,
      "inputs": [
        {
          "indexed": true,
          "internalType": "uint256",
          "name": "batchId",
          "type": "uint256"
        },
        {
          "indexed": false,
          "internalType": "string",
          "name": "batchNumber",
          "type": "string"
        },
        {
          "indexed": false,
          "internalType": "uint256",
          "name": "itemCount",
          "type": "uint256"
        },
        {
          "indexed": false,
          "internalType": "bytes32",
          "name": "merkleRoot",
          "type": "bytes32"
        }
      ],
      "name": "BatchCreated",
      "type": "event"
    },
    {
      "anonymous": false,
      "inputs": [
        {
          "indexed": true,
          "internalType": "uint256",
          "name": "batchId",
          "type": "uint256"
        },
        {
          "indexed": false,
          "internalType": "uint256",
          "name": "processedCount",
          "type": "uint256"
        },
        {
          "indexed": false,
          "internalType": "uint256",
          "name": "timestamp",
          "type": "uint256"
        }
      ],
      "name": "BatchProcessed",
      "type": "event"
    },
    {
      "anonymous": false,
      "inputs": [
        {
          "indexed": true,
          "internalType": "uint256",
          "name": "tokenId",
          "type": "uint256"
        },
        {
          "indexed": false,
          "internalType": "bytes32",
          "name": "metadataHash",
          "type": "bytes32"
        },
        {
          "indexed": false,
          "internalType": "uint256",
          "name": "encryptionVersion",
          "type": "uint256"
        }
      ],
      "name": "MetadataEncrypted",
      "type": "event"
    },
    {
      "anonymous": false,
      "inputs": [
        {
          "indexed": true,
          "internalType": "bytes32",
          "name": "eventHash",
          "type": "bytes32"
        },
        {
          "indexed": true,
          "internalType": "address",
          "name": "scanner",
          "type": "address"
        },
        {
          "indexed": false,
          "internalType": "bool",
          "name": "verified",
          "type": "bool"
        }
      ],
      "name": "PrivacyScanVerified",
      "type": "event"
    },
    {
      "anonymous": false,
      "inputs": [
        {
          "indexed": true,
          "internalType": "string",
          "name": "rfidHash",
          "type": "string"
        },
        {
          "indexed": true,
          "internalType": "address",
          "name": "scanner",
          "type": "address"
        },
        {
          "indexed": false,
          "internalType": "uint256",
          "name": "timestamp",
          "type": "uint256"
        },
        {
          "indexed": false,
          "internalType": "bytes32",
          "name": "locationHash",
          "type": "bytes32"
        }
      ],
      "name": "RFIDScanned",
      "type": "event"
    },
    {
      "anonymous": false,
      "inputs": [
        {
          "indexed": true,
          "internalType": "string",
          "name": "rfidHash",
          "type": "string"
        },
        {
          "indexed": true,
          "internalType": "uint256",
          "name": "tokenId",
          "type": "uint256"
        },
        {
          "indexed": true,
          "internalType": "address",
          "name": "manufacturer",
          "type": "address"
        },
        {
          "indexed": false,
          "internalType": "bytes32",
          "name": "metadataHash",
          "type": "bytes32"
        }
      ],
      "name": "RFIDTokenized",
      "type": "event"
    },
    {
      "anonymous": false,
      "inputs": [
        {
          "indexed": true,
          "internalType": "bytes32",
          "name": "role",
          "type": "bytes32"
        },
        {
          "indexed": true,
          "internalType": "bytes32",
          "name": "previousAdminRole",
          "type": "bytes32"
        },
        {
          "indexed": true,
          "internalType": "bytes32",
          "name": "newAdminRole",
          "type": "bytes32"
        }
      ],
      "name": "RoleAdminChanged",
      "type": "event"
    },
    {
      "anonymous": false,
      "inputs": [
        {
          "indexed": true,
          "internalType": "bytes32",
          "name": "role",
          "type": "bytes32"
        },
        {
          "indexed": true,
          "internalType": "address",
          "name": "account",
          "type": "address"
        },
        {
          "indexed": true,
          "internalType": "address",
          "name": "sender",
          "type": "address"
        }
      ],
      "name": "RoleGranted",
      "type": "event"
    },
    {
      "anonymous": false,
      "inputs": [
        {
          "indexed": true,
          "internalType": "bytes32",
          "name": "role",
          "type": "bytes32"
        },
        {
          "indexed": true,
          "internalType": "address",
          "name": "account",
          "type": "address"
        },
        {
          "indexed": true,
          "internalType": "address",
          "name": "sender",
          "type": "address"
        }
      ],
      "name": "RoleRevoked",
      "type": "event"
    },
    {
      "inputs": [],
      "name": "DEFAULT_ADMIN_ROLE",
      "outputs": [
        {
          "internalType": "bytes32",
          "name": "",
          "type": "bytes32"
        }
      ],
      "stateMutability": "view",
      "type": "function"
    },
    {
      "inputs": [],
      "name": "MAX_BATCH_SIZE",
      "outputs": [
        {
          "internalType": "uint256",
          "name": "",
          "type": "uint256"
        }
      ],
      "stateMutability": "view",
      "type": "function"
    },
    {
      "inputs": [],
      "name": "PRIVACY_OPERATOR_ROLE",
      "outputs": [
        {
          "internalType": "bytes32",
          "name": "",
          "type": "bytes32"
        }
      ],
      "stateMutability": "view",
      "type": "function"
    },
    {
      "inputs": [],
      "name": "RFID_SCANNER_ROLE",
      "outputs": [
        {
          "internalType": "bytes32",
          "name": "",
          "type": "bytes32"
        }
      ],
      "stateMutability": "view",
      "type": "function"
    },
    {
      "inputs": [],
      "name": "TOKENIZER_ROLE",
      "outputs": [
        {
          "internalType": "bytes32",
          "name": "",
          "type": "bytes32"
        }
      ],
      "stateMutability": "view",
      "type": "function"
    },
    {
      "inputs": [],
      "name": "batchCounter",
      "outputs": [
        {
          "internalType": "uint256",
          "name": "",
          "type": "uint256"
        }
      ],
      "stateMutability": "view",
      "type": "function"
    },
    {
      "inputs": [
        {
          "internalType": "uint256",
          "name": "",
          "type": "uint256"
        }
      ],
      "name": "batches",
      "outputs": [
        {
          "internalType": "uint256",
          "name": "batchId",
          "type": "uint256"
        },
        {
          "internalType": "string",
          "name": "batchNumber",
          "type": "string"
        },
        {
          "internalType": "uint256",
          "name": "itemCount",
          "type": "uint256"
        },
        {
          "internalType": "bytes32",
          "name": "merkleRoot",
          "type": "bytes32"
        },
        {
          "internalType": "uint256",
          "name": "createdAt",
          "type": "uint256"
        },
        {
          "internalType": "address",
          "name": "manufacturer",
          "type": "address"
        },
        {
          "internalType": "bool",
          "name": "isProcessed",
          "type": "bool"
        }
      ],
      "stateMutability": "view",
      "type": "function"
    },
    {
      "inputs": [
        {
          "internalType": "string",
          "name": "batchNumber",
          "type": "string"
        },
        {
          "internalType": "string[]",
          "name": "rfidList",
          "type": "string[]"
        },
        {
          "internalType": "address",
          "name": "manufacturer",
          "type": "address"
        }
      ],
      "name": "createRFIDBatch",
      "outputs": [
        {
          "internalType": "uint256",
          "name": "",
          "type": "uint256"
        }
      ],
      "stateMutability": "nonpayable",
      "type": "function"
    },
    {
      "inputs": [
        {
          "internalType": "uint256",
          "name": "batchId",
          "type": "uint256"
        }
      ],
      "name": "getBatchInfo",
      "outputs": [
        {
          "internalType": "string",
          "name": "batchNumber",
          "type": "string"
        },
        {
          "internalType": "uint256",
          "name": "itemCount",
          "type": "uint256"
        },
        {
          "internalType": "bytes32",
          "name": "merkleRoot",
          "type": "bytes32"
        },
        {
          "internalType": "bool",
          "name": "isProcessed",
          "type": "bool"
        },
        {
          "internalType": "address",
          "name": "manufacturer",
          "type": "address"
        }
      ],
      "stateMutability": "view",
      "type": "function"
    },
    {
      "inputs": [
        {
          "internalType": "uint256",
          "name": "tokenId",
          "type": "uint256"
        },
        {
          "internalType": "bytes32",
          "name": "decryptionKey",
          "type": "bytes32"
        }
      ],
      "name": "getDecryptedMetadata",
      "outputs": [
        {
          "internalType": "string",
          "name": "",
          "type": "string"
        }
      ],
      "stateMutability": "view",
      "type": "function"
    },
    {
      "inputs": [
        {
          "internalType": "bytes32",
          "name": "role",
          "type": "bytes32"
        }
      ],
      "name": "getRoleAdmin",
      "outputs": [
        {
          "internalType": "bytes32",
          "name": "",
          "type": "bytes32"
        }
      ],
      "stateMutability": "view",
      "type": "function"
    },
    {
      "inputs": [
        {
          "internalType": "address",
          "name": "scanner",
          "type": "address"
        }
      ],
      "name": "getScanHistory",
      "outputs": [
        {
          "internalType": "uint256[]",
          "name": "",
          "type": "uint256[]"
        }
      ],
      "stateMutability": "view",
      "type": "function"
    },
    {
      "inputs": [
        {
          "internalType": "bytes32",
          "name": "role",
          "type": "bytes32"
        },
        {
          "internalType": "address",
          "name": "account",
          "type": "address"
        }
      ],
      "name": "grantRole",
      "outputs": [],
      "stateMutability": "nonpayable",
      "type": "function"
    },
    {
      "inputs": [
        {
          "internalType": "address",
          "name": "account",
          "type": "address"
        }
      ],
      "name": "grantScannerRole",
      "outputs": [],
      "stateMutability": "nonpayable",
      "type": "function"
    },
    {
      "inputs": [
        {
          "internalType": "address",
          "name": "account",
          "type": "address"
        }
      ],
      "name": "grantTokenizerRole",
      "outputs": [],
      "stateMutability": "nonpayable",
      "type": "function"
    },
    {
      "inputs": [
        {
          "internalType": "bytes32",
          "name": "role",
          "type": "bytes32"
        },
        {
          "internalType": "address",
          "name": "account",
          "type": "address"
        }
      ],
      "name": "hasRole",
      "outputs": [
        {
          "internalType": "bool",
          "name": "",
          "type": "bool"
        }
      ],
      "stateMutability": "view",
      "type": "function"
    },
    {
      "inputs": [],
      "name": "mpcWallet",
      "outputs": [
        {
          "internalType": "contract ProTrackMPCWallet",
          "name": "",
          "type": "address"
        }
      ],
      "stateMutability": "view",
      "type": "function"
    },
    {
      "inputs": [
        {
          "internalType": "uint256",
          "name": "batchId",
          "type": "uint256"
        },
        {
          "internalType": "string[]",
          "name": "productNames",
          "type": "string[]"
        },
        {
          "internalType": "uint256[]",
          "name": "expiryDates",
          "type": "uint256[]"
        },
        {
          "internalType": "string[]",
          "name": "encryptedMetadataList",
          "type": "string[]"
        },
        {
          "internalType": "address[]",
          "name": "authorizedUsers",
          "type": "address[]"
        }
      ],
      "name": "processBatch",
      "outputs": [],
      "stateMutability": "nonpayable",
      "type": "function"
    },
    {
      "inputs": [
        {
          "internalType": "string",
          "name": "",
          "type": "string"
        }
      ],
      "name": "processedRFIDs",
      "outputs": [
        {
          "internalType": "bool",
          "name": "",
          "type": "bool"
        }
      ],
      "stateMutability": "view",
      "type": "function"
    },
    {
      "inputs": [
        {
          "internalType": "bytes32",
          "name": "role",
          "type": "bytes32"
        },
        {
          "internalType": "address",
          "name": "account",
          "type": "address"
        }
      ],
      "name": "renounceRole",
      "outputs": [],
      "stateMutability": "nonpayable",
      "type": "function"
    },
    {
      "inputs": [
        {
          "internalType": "bytes32",
          "name": "role",
          "type": "bytes32"
        },
        {
          "internalType": "address",
          "name": "account",
          "type": "address"
        }
      ],
      "name": "revokeRole",
      "outputs": [],
      "stateMutability": "nonpayable",
      "type": "function"
    },
    {
      "inputs": [
        {
          "internalType": "string",
          "name": "",
          "type": "string"
        }
      ],
      "name": "rfidRegistry",
      "outputs": [
        {
          "internalType": "string",
          "name": "rfidHash",
          "type": "string"
        },
        {
          "internalType": "string",
          "name": "rawRFIDData",
          "type": "string"
        },
        {
          "internalType": "uint256",
          "name": "scanTimestamp",
          "type": "uint256"
        },
        {
          "internalType": "address",
          "name": "scanner",
          "type": "address"
        },
        {
          "internalType": "string",
          "name": "scanLocation",
          "type": "string"
        },
        {
          "internalType": "bytes32",
          "name": "merkleRoot",
          "type": "bytes32"
        },
        {
          "internalType": "bool",
          "name": "isTokenized",
          "type": "bool"
        },
        {
          "internalType": "uint256",
          "name": "tokenId",
          "type": "uint256"
        }
      ],
      "stateMutability": "view",
      "type": "function"
    },
    {
      "inputs": [
        {
          "internalType": "uint256",
          "name": "tokenId",
          "type": "uint256"
        },
        {
          "internalType": "string",
          "name": "newEncryptedData",
          "type": "string"
        },
        {
          "internalType": "address[]",
          "name": "newAuthorizedUsers",
          "type": "address[]"
        }
      ],
      "name": "rotateEncryptionKeys",
      "outputs": [],
      "stateMutability": "nonpayable",
      "type": "function"
    },
    {
      "inputs": [
        {
          "internalType": "bytes32",
          "name": "",
          "type": "bytes32"
        }
      ],
      "name": "scanEvents",
      "outputs": [
        {
          "internalType": "bytes32",
          "name": "eventHash",
          "type": "bytes32"
        },
        {
          "internalType": "uint256",
          "name": "timestamp",
          "type": "uint256"
        },
        {
          "internalType": "address",
          "name": "scanner",
          "type": "address"
        },
        {
          "internalType": "bytes32",
          "name": "locationHash",
          "type": "bytes32"
        },
        {
          "internalType": "bytes32",
          "name": "proofHash",
          "type": "bytes32"
        },
        {
          "internalType": "bool",
          "name": "verified",
          "type": "bool"
        }
      ],
      "stateMutability": "view",
      "type": "function"
    },
    {
      "inputs": [
        {
          "internalType": "string",
          "name": "rfidData",
          "type": "string"
        },
        {
          "internalType": "string",
          "name": "gpsLocation",
          "type": "string"
        },
        {
          "internalType": "bytes32[]",
          "name": "merkleProof",
          "type": "bytes32[]"
        },
        {
          "internalType": "bytes32",
          "name": "merkleRoot",
          "type": "bytes32"
        }
      ],
      "name": "scanRFID",
      "outputs": [
        {
          "internalType": "string",
          "name": "",
          "type": "string"
        }
      ],
      "stateMutability": "nonpayable",
      "type": "function"
    },
    {
      "inputs": [
        {
          "internalType": "address",
          "name": "",
          "type": "address"
        },
        {
          "internalType": "uint256",
          "name": "",
          "type": "uint256"
        }
      ],
      "name": "scannerHistory",
      "outputs": [
        {
          "internalType": "uint256",
          "name": "",
          "type": "uint256"
        }
      ],
      "stateMutability": "view",
      "type": "function"
    },
    {
      "inputs": [],
      "name": "supplyChainContract",
      "outputs": [
        {
          "internalType": "contract ProTrackSupplyChain",
          "name": "",
          "type": "address"
        }
      ],
      "stateMutability": "view",
      "type": "function"
    },
    {
      "inputs": [
        {
          "internalType": "bytes4",
          "name": "interfaceId",
          "type": "bytes4"
        }
      ],
      "name": "supportsInterface",
      "outputs": [
        {
          "internalType": "bool",
          "name": "",
          "type": "bool"
        }
      ],
      "stateMutability": "view",
      "type": "function"
    },
    {
      "inputs": [
        {
          "internalType": "uint256",
          "name": "",
          "type": "uint256"
        }
      ],
      "name": "tokenMetadata",
      "outputs": [
        {
          "internalType": "bytes32",
          "name": "metadataHash",
          "type": "bytes32"
        },
        {
          "internalType": "string",
          "name": "encryptedData",
          "type": "string"
        },
        {
          "internalType": "string",
          "name": "ipfsHash",
          "type": "string"
        },
        {
          "internalType": "uint256",
          "name": "encryptionVersion",
          "type": "uint256"
        }
      ],
      "stateMutability": "view",
      "type": "function"
    },
    {
      "inputs": [
        {
          "internalType": "string",
          "name": "rfidHash",
          "type": "string"
        },
        {
          "internalType": "string",
          "name": "productName",
          "type": "string"
        },
        {
          "internalType": "string",
          "name": "batchNumber",
          "type": "string"
        },
        {
          "internalType": "uint256",
          "name": "expiryDate",
          "type": "uint256"
        },
        {
          "internalType": "string",
          "name": "encryptedMetadata",
          "type": "string"
        },
        {
          "internalType": "string",
          "name": "ipfsHash",
          "type": "string"
        },
        {
          "internalType": "address[]",
          "name": "authorizedUsers",
          "type": "address[]"
        }
      ],
      "name": "tokenizeRFID",
      "outputs": [
        {
          "internalType": "uint256",
          "name": "",
          "type": "uint256"
        }
      ],
      "stateMutability": "nonpayable",
      "type": "function"
    },
    {
      "inputs": [
        {
          "internalType": "string",
          "name": "rfidHash",
          "type": "string"
        },
        {
          "internalType": "bytes32[]",
          "name": "zkProof",
          "type": "bytes32[]"
        },
        {
          "internalType": "bytes32",
          "name": "publicInput",
          "type": "bytes32"
        }
      ],
      "name": "verifyRFIDAuthenticity",
      "outputs": [
        {
          "internalType": "bool",
          "name": "",
          "type": "bool"
        }
      ],
      "stateMutability": "view",
      "type": "function"
    }
  ],
  "bytecode": "0x608034620001e05762003b3d90601f38839003908101601f19168201906001600160401b03821183831017620001e55780839160409586948552833981010312620001e05780516001600160a01b039081811690819003620001e057602080930151918216809203620001e0576001805560018060a01b03199081600254161760025560035416176003556000808052808252828120338252825260ff838220541615620001a8575b7fe70d28ebd9d7d9a3dd77d46ae2481f301c80806f395b08de31d8e095b1c46cee808252818352838220338352835260ff8483205416156200016e575b507fd3a3ef2f1429562db7c8028625d8ba4044a997bd269b66631fa75f4e623558c091828252818152838220338352815260ff84832054161562000133575b83516139219081620001fc8239f35b8282528181528382209033835252828120600160ff19825416179055339160008051602062003b1d833981519152339280a438808062000124565b8082528183528382203383528352838220600160ff198254161790553390339060008051602062003b1d8339815191528480a438620000e5565b8080528082528281203382528252828120600160ff1982541617905533338260008051602062003b1d8339815191528180a4620000a8565b600080fd5b634e487b7160e01b600052604160045260246000fdfe610160604052600436101561001357600080fd5b6000803560e01c80620f487c14612aee57806301ffc9a714612a9757806303710454146128a75780630605a3341461286c578063072cdb64146127675780631a0058f5146126dc578063248a9ca3146126b05780632f2ff15d146126025780632fddd364146125c75780633483efac1461204857806336568abe14611fb5578063468177a914611ee45780635060ed5c14611a27578063676c2596146119d157806368233eef146119b35780636914db6014611924578063805bb900146118d557806391d148541461188a578063a01eb31f14611021578063a0f39f2214610c39578063a217fddf14610c1d578063a269cc7a14610bf4578063a55022dc14610bb9578063b32c4d8d14610b19578063ba14580d14610a04578063ce3e7d5c146109db578063cfdbf254146109be578063d547741f1461097e578063e1c465c414610295578063f27763c9146102265763fc8d42ca1461017257600080fd5b346102235760208060031936011261021f576001600160a01b03610194612b49565b168252600881526040822060405192838383549182815201908193835284832090835b81811061020b57505050846101cd910385612c06565b60405193838594850191818652518092526040850193925b8281106101f457505050500390f35b8351855286955093810193928101926001016101e5565b8254845292860192600192830192016101b7565b5080fd5b80fd5b503461022357602036600319011261022357604060c091600435815260076020522080549060018101549060018060a01b0360028201541660038201549060ff6005600485015494015416936040519586526020860152604085015260608401526080830152151560a0820152f35b50346102235760a0366003190112610223576024356001600160401b03811161021f576102c6903690600401612e54565b906044356001600160401b03811161021f573660238201121561021f5780600401356103016102f482612c89565b6040518061010052612c06565b8061010051526024602061010051019160051b8301019136831161097a57602401905b82821061096a575050506064356001600160401b03811161021f5761034d903690600401612e54565b60c0526084356001600160401b03811161021f5761036f903690600401612cfe565b6103776130a1565b6002600154146109255760026001556004358252600660205260ff6005604084208060a052015460a01c166108e0578251600260a05101540361089b578190825b600260a051015481101561084657808452600660a051016020526103e86103ef6040862060405192838092612dbe565b0382612c06565b60a05160050154610409906001600160a01b03168261360b565b9060ff60405160208185516104218183858a01612b75565b81016009815203019020541615610552575b50602061049061044384896134c9565b51926104ef836104d061045988610100516134c9565b516104668960c0516134c9565b516104b96104a26040519a8b998a99630d20fbeb60e21b8b5260e060048c015260e48b0190612b98565b8981036003190160248b015290612b98565b87810360031901604489015260a051600101612dbe565b916064870152600319868303016084870152612b98565b601c848203600319810160a48701528c83520160c4850152018761351a565b038188305af19081610522575b5061050f5761050a906134ad565b6103b8565b9161051c61050a916134ad565b926134ad565b602090813d831161054b575b6105388183612c06565b8101031261054657386104fc565b600080fd5b503d61052e565b60405160208184516105678183858901612b75565b810160048152030190206101205281516001600160401b0381116108325761059f816105966101205154612d84565b61012051613446565b6020601f82116001146107c45790806105d5939289916107b9575b508160011b916000199060031b1c191617610120515561367d565b6001600160401b0381518061014052116107a55761060c610140516106006001610120510154612d84565b60016101205101613446565b602060e052601f61014051116001146107135785610140519182610706575b508160011b916000199060031b1c19161760016101205101555b61012051426002820155600460018060a01b03600560a05101541691600392838201906001600160601b0360a01b825416179055016106848154612d84565b601f81116106e4575b5060206f42415443485f50524f43455353494e4760801b01905560a0510154600561012051015560405160208183516106c98183858801612b75565b81016009815203019020600160ff1982541617905538610433565b6107009082600052601f6020600020910160051c81019061342f565b3861068d565b905060e05101513861062b565b9594906001610120959493955101825260208220608052815b61014051601f191681101561075c576020908160e0516001818c0151608051908155016080520160e0520161072c565b5090949560019094929394610140519081601f19811610610789575b50811b016001610120510155610645565b60e051015160001960f88360031b161c19166080515538610778565b634e487b7160e01b86526041600452602486fd5b9050840151386105ba565b6101205188526020882090885b601f198416811061081a5750916001916105d5949382601f19811610610801575b5050811b01610120515561367d565b86015160001960f88460031b161c1916905538806107f2565b858201518355600190920191602091820191016107d1565b634e487b7160e01b87526041600452602487fd5b505060a051600501805460ff60a01b1916600160a01b17905560408051918252426020830152600435917fd03f99f321df6e5a7f705a548f7e6b4880d02286dda4ffbbf00ff5353381fa899190a26001805580f35b60405162461bcd60e51b815260206004820152601860248201527f4d69736d617463686564206172726179206c656e6774687300000000000000006044820152606490fd5b60405162461bcd60e51b815260206004820152601760248201527f426174636820616c72656164792070726f6365737365640000000000000000006044820152606490fd5b60405162461bcd60e51b815260206004820152601f60248201527f5265656e7472616e637947756172643a207265656e7472616e742063616c6c006044820152606490fd5b8135815260209182019101610324565b8380fd5b5034610223576040366003190112610223576109bb60043561099e612b5f565b90808452836020526109b660016040862001546131e6565b6132f0565b80f35b503461022357806003193601126102235760206040516103e88152f35b50346102235780600319360112610223576003546040516001600160a01b039091168152602090f35b503461022357602036600319011261022357600435906001600160401b03821161022357610add610a506020610a3d3660048701612c42565b8160405193828580945193849201612b75565b8101600481520301902060405190610a7382610a6c8184612dbe565b0383612c06565b604051610a87816103e88160018601612dbe565b600282015491610b0360018060a01b0360038301541693604051610ab2816103e88160048801612dbe565b600584015495610aeb600760ff600688015416960154966040519a8b9a610100808d528c0190612b98565b908a820360208c0152612b98565b92604089015260608801528682036080880152612b98565b9260a0850152151560c084015260e08301520390f35b5034610223576020366003190112610223576040906004358152600660205220805460405191610b5783610b508160018501612dbe565b0384612c06565b60ff6002820154916003810154906005600482015491015491610b8c604051978897885260e0602089015260e0880190612b98565b9460408701526060860152608085015260018060a01b03811660a085015260a01c16151560c08301520390f35b503461022357806003193601126102235760206040517fd3a3ef2f1429562db7c8028625d8ba4044a997bd269b66631fa75f4e623558c08152f35b50346102235780600319360112610223576002546040516001600160a01b039091168152602090f35b5034610223578060031936011261022357602090604051908152f35b5034610223576060366003190112610223576004356001600160401b03811161021f57610c6a903690600401612c42565b6024356001600160401b03811161101d57610c89903690600401612e54565b60443592906001600160a01b038416840361054657610ca66130a1565b805115610fe6576103e8815111610faf57600a54610cc3816134ad565b600a558083526006602052604083209481865584516001600160401b038111610f9b57610d0081610cf760018a0154612d84565b60018a01613446565b6020601f8211600114610f2d579080610d6893928791610f22575b508160011b916000199060031b1c19161760018801555b8351600288018190554260048901556005880180546001600160a81b0319166001600160a01b0390931692909217909155613557565b90835b8351811015610ebc57610d7e81856134c9565b51604051610da960208281610d9c8183019687815193849201612b75565b8101038084520182612c06565b519020610db682856134c9565b52610dc181856134c9565b518186526006880160205260408620908051906001600160401b038211610ea857610df682610df08554612d84565b85613446565b602090601f8311600114610e3c57610e2c94939291899183610e31575b50508160011b916000199060031b1c19161790556134ad565b610d6b565b015190503880610e13565b908389526020892091895b601f1985168110610e905750918391600193610e2c979695601f19811610610e77575b505050811b0190556134ad565b015160001960f88460031b161c19169055388080610e6a565b91926020600181928685015181550194019201610e47565b634e487b7160e01b88526041600452602488fd5b507f1619de23880ac469b702b35b6d98fc09081745b7844135d65a5a3e56110fef2b610f0d8660036020968a610ef287986136cc565b92839101555190604051938493606085526060850190612b98565b918884015260408301520390a2604051908152f35b905087015138610d1b565b6001880186526020862090865b601f1984168110610f83575091600191610d68949382601f19811610610f6a575b5050811b016001880155610d32565b89015160001960f88460031b161c191690553880610f5b565b9091602060018192858c015181550193019101610f3a565b634e487b7160e01b85526041600452602485fd5b60405162461bcd60e51b815260206004820152600f60248201526e426174636820746f6f206c6172676560881b6044820152606490fd5b60405162461bcd60e51b815260206004820152600f60248201526e115b5c1d1e4814919251081b1a5cdd608a1b6044820152606490fd5b8280fd5b5034610223576080366003190112610223576004356001600160401b03811161021f57611052903690600401612c42565b6024356001600160401b03811161101d57611071903690600401612c42565b6044356001600160401b03811161097a57611090903690600401612ca0565b3360009081527f1ceefd6af28d7166c274d9de0df228334349bbf58e704fe2e0d38d0326a3bb1d60205260409020549092907fb5f350b29b506dd97627c9c596eaeadc7ae0516704c4a635fd56a82310893a7d9060ff16156116df57506110f7338261360b565b9260ff604051602081875161110f8183858c01612b75565b8101600981520301902054166116a15780516115e3575b506111309061367d565b60405160208185516111458183858a01612b75565b810160048152030190209083516001600160401b0381116107a55761116e81610df08554612d84565b806020601f8211600114611581578791611576575b508160011b916000199060031b1c19161782555b80516001600160401b0381116107a5578060018401926111c1826111bb8654612d84565b86613446565b602090601f8311600114611512578892611507575b50508160011b916000199060031b1c19161790555b4260028201556003810180546001600160a01b0319163317905581516001600160401b038111610f9b5761122f816112266004850154612d84565b60048501613446565b6020601f821160011461149a57908060069392879161148f575b508160011b916000199060031b1c19161760048201555b6064356005820155019060ff199182815416905560405161129160208281610d9c8183019687815193849201612b75565b5190209060405160208101906112d860748287516112b3818760208c01612b75565b81013360601b6020820152876034820152426054820152036054810184520182612c06565b5190206040516020810190828252672d25afa82927a7a360c11b60408201526028815261130481612bd0565b51902060405160c08101918183106001600160401b0384111761147957600592604052838252602082014281526040830133815260608401918883526080850193845260a0850196600188528b52600760205260408b2094518555516001850155600284019060018060a01b039051166001600160601b0360a01b825416179055516003830155516004820155019051151560ff838354169116179055600160405160208186516113b88183858b01612b75565b8101600981520301902091825416179055338352600860205260408320805493680100000000000000008510156114655750836113fd91600161146196018155612d6c565b81549060031b9042821b91600019901b191617905561141b8261348d565b6040519142835260208301527f5ef7b2416c2b76f61aea841b4a8cf678b9ee70c148e69b19547ca3835de0834c60403393a3604051918291602083526020830190612b98565b0390f35b634e487b7160e01b81526041600452602490fd5b634e487b7160e01b600052604160045260246000fd5b905084015138611249565b6004830186526020862090865b601f19841681106114ef5750916001916006949382601f198116106114d6575b5050811b016004820155611260565b86015160001960f88460031b161c1916905538806114c7565b909160206001819285890151815501930191016114a7565b0151905038806111d6565b848952602089209250601f198416895b81811061155e5750908460019594939210611545575b505050811b0190556111eb565b015160001960f88460031b161c19169055388080611538565b92936020600181928786015181550195019301611522565b905085015138611183565b848852602088209150601f198316885b8181106115cb575090836001949392106115b2575b5050811b018255611197565b87015160001960f88460031b161c1916905538806115a6565b9192602060018192868c015181550194019201611591565b909260405160208101906116026020828851610d9c8187858d01612b75565b5190209285935b83518510156116515761161c85856134c9565b51908181101561163f578752602052611639604087205b946134ad565b93611609565b90875260205261163960408720611633565b919492509250606435036116655738611126565b60405162461bcd60e51b815260206004820152601460248201527324b73b30b634b21036b2b935b63290383937b7b360611b6044820152606490fd5b60405162461bcd60e51b81526020600482015260166024820152751491925108185b1c9958591e481c1c9bd8d95cdcd95960521b6044820152606490fd5b6116e833613375565b604051916116f583612beb565b60428352602083019060603683378351156118745760308253835160019081101561187457607860218601536041905b80821161181a5750506117d65760486117a3926117b2926117d29560405195869376020b1b1b2b9b9a1b7b73a3937b61d1030b1b1b7bab73a1604d1b602086015261177a815180926020603789019101612b75565b8401917001034b99036b4b9b9b4b733903937b6329607d1b603784015251809386840190612b75565b01036028810184520182612c06565b60405162461bcd60e51b8152602060048201529182916024830190612b98565b0390fd5b606460405162461bcd60e51b815260206004820152602060248201527f537472696e67733a20686578206c656e67746820696e73756666696369656e746044820152fd5b9091600f81166010811015611874576f181899199a1a9b1b9c1cb0b131b232b360811b901a6118498488613364565b5360041c91801561185e576000190190611725565b634e487b7160e01b600052601160045260246000fd5b634e487b7160e01b600052603260045260246000fd5b50346102235760403660031901126102235760406118a6612b5f565b91600435815280602052209060018060a01b0316600052602052602060ff604060002054166040519015158152f35b503461022357602036600319011261022357600435906001600160401b03821161022357602060ff61190e82610a3d3660048801612c42565b8101600981520301902054166040519015158152f35b503461022357602036600319011261022357604090600435815260056020522080546040519161195b83610b508160018501612dbe565b6119a960036040519261197c846119758160028501612dbe565b0385612c06565b01549161199b6040519586958652608060208701526080860190612b98565b908482036040860152612b98565b9060608301520390f35b50346102235780600319360112610223576020600a54604051908152f35b5034610223576040366003190112610223576119eb612b49565b6001600160a01b0316815260086020526040812080546024359290831015610223576020611a198484612d6c565b90546040519160031b1c8152f35b5034610223576060366003190112610223576004356001600160401b0360248035828111611ee057611a5d903690600401612c42565b91604435818111611edc57611a76903690600401612cfe565b7fd3a3ef2f1429562db7c8028625d8ba4044a997bd269b66631fa75f4e623558c09283875260209387855260408820338952855260ff60408920541615611d4d5750858752600584526040872092835415611d0957600190818501908751908111611cf6579081611af48b959493611aee8454612d84565b84613446565b87601f8211600114611c9557859082611c8a575b50600019600383901b1c191690831b1790555b6003850196611b2a88546134ad565b8855604051611b668882611b588280611b4c8185019889815193849201612b75565b83010160028c01613589565b428152038084520182612c06565b51902085558260048601825b611c44575b50506003546001600160a01b03169050803b1561101d576040918389611bbb8551978896879586946302d2535b60e31b86526004860152840152604483019061351a565b03925af18015611c3957611bff575b5054915460408051938452918301527f464d8f55d8109969a8e3c61c37768483c554019f8985ba4244524dba945103fb91a280f35b917f464d8f55d8109969a8e3c61c37768483c554019f8985ba4244524dba945103fb939195611c2f604094612bbd565b9591935091611bca565b6040513d88823e3d90fd5b8551821015611c85578291611c7f906001600160a01b03611c65828a6134c9565b51168752828a5260408720805460ff1916851790556134ad565b91611b72565b611b77565b905089015138611b08565b82865288862090601f198316875b8b8d838310611ce05750505090838694939210611cc7575b5050811b019055611b1b565b8b015160001960f88460031b161c191690553880611cbb565b84015185558f9950938701939283019201611ca3565b634e487b7160e01b8a526041600452838afd5b60405162461bcd60e51b8152600481018690526018818401527f546f6b656e206d65746164617461206e6f7420666f756e6400000000000000006044820152606490fd5b849088611d5933613375565b9160405190611d6782612beb565b60428252848201926060368537825115611ec95760308453825190600191821015611eb65790607860218501536041915b818311611e4a57505050611e085760486117d2936117a393611dec9360405195869376020b1b1b2b9b9a1b7b73a3937b61d1030b1b1b7bab73a1604d1b8a86015261177a815180928c603789019101612b75565b60405193849362461bcd60e51b85526004850152830190612b98565b606485856040519162461bcd60e51b83528160048401528201527f537472696e67733a20686578206c656e67746820696e73756666696369656e746044820152fd5b909192600f81166010811015611ea3576f181899199a1a9b1b9c1cb0b131b232b360811b901a611e7a8587613364565b5360041c928015611e9057600019019190611d98565b634e487b7160e01b825260116004528882fd5b634e487b7160e01b835260326004528983fd5b634e487b7160e01b815260326004528790fd5b634e487b7160e01b815260326004528690fd5b8580fd5b8480fd5b50346102235760208060031936011261021f57611eff612b49565b611f07612ed4565b7fb5f350b29b506dd97627c9c596eaeadc7ae0516704c4a635fd56a82310893a7d91828452838152611f3f60016040862001546131e6565b82845283815260408085206001600160a01b0390931680865292825284205460ff1615611f6a578380f35b82845283815260408420908285525260408320600160ff1982541617905533917f2f8788117e7eff1d82e926ec794901d17c78024a50270940304540a733656f0d8480a43880808380f35b503461022357604036600319011261022357611fcf612b5f565b336001600160a01b03821603611feb576109bb906004356132f0565b60405162461bcd60e51b815260206004820152602f60248201527f416363657373436f6e74726f6c3a2063616e206f6e6c792072656e6f756e636560448201526e103937b632b9903337b91039b2b63360891b6064820152608490fd5b50346102235760e0366003190112610223576004356001600160401b03811161021f57612079903690600401612c42565b906024356001600160401b03811161021f57612099903690600401612c42565b906044356001600160401b03811161021f576120b9903690600401612c42565b926084356001600160401b03811161101d576120d9903690600401612c42565b9260a4356001600160401b03811161097a576120f9903690600401612c42565b9460c4356001600160401b038111611ee057612119903690600401612cfe565b926121226130a1565b60405160208183516121378183858801612b75565b810160048152030190209661215661214f8954612d84565b15156134dd565b60ff60068901541661258957602061221193886040516121ad604082866121868183019687815193849201612b75565b810188519061219a828a83018b8d01612b75565b0142888201520386810184520182612c06565b519020956121ff8960018060a01b03600254169261222b604051998a968795869463b5abf64f60e01b865260c060048701526121ed8d60c4880190612b98565b86810360031901602488015290612b98565b84810360031901604486015290612b98565b606435606484015260031983820301608484015288612b98565b3360a483015203925af1928315611c39578693612555575b50828652600560205260408620968488558051906001600160401b038211610ea85781906122818261227860018d0154612d84565b60018d01613446565b602090601f83116001146124e65789926124db575b50508160011b916000199060031b1c19161760018801555b8051906001600160401b0382116108325781906122db826122d260028c0154612d84565b60028c01613446565b602090601f831160011461246957889261245e575b50508160011b916000199060031b1c19161760028701559594955b600160038801556004859701965b845181101561235957612354906001600160a01b0361233882886134c9565b511687528860205260408720600160ff198254161790556134ad565b612319565b50600354869086906001600160a01b031686813b1561101d576123a38392839260405195868094819363d3071ed760e01b83528c600484015260606024840152606483019061351a565b6001604483015203925af190811561245257509461240385948560077f464d8f55d8109969a8e3c61c37768483c554019f8985ba4244524dba945103fb9660409660209b612443575b5060068101805460ff19166001179055015561348d565b848351918383527faffc330ddb52b1653ea0ab0092223380cf56310ca96730e4e7c082fe2a86aed6893394a48151908152600186820152a2604051908152f35b61244c90612bbd565b8b6123ec565b604051903d90823e3d90fd5b0151905038806122f0565b9250600289018852602088209088935b601f19841685106124c0576001945083601f198116106124a7575b505050811b01600287015595949561230b565b015160001960f88460031b161c19169055388080612494565b81810151835560209485019460019093019290910190612479565b015190503880612296565b925060018a018952602089209089935b601f198416851061253a576001945083601f19811610612521575b505050811b0160018801556122ae565b015160001960f88460031b161c19169055388080612511565b818101518355602094850194600190930192909101906124f6565b9092506020813d602011612581575b8161257160209383612c06565b81010312611edc57519138612243565b3d9150612564565b60405162461bcd60e51b81526020600482015260166024820152751491925108185b1c9958591e481d1bdad95b9a5e995960521b6044820152606490fd5b503461022357806003193601126102235760206040517fb5f350b29b506dd97627c9c596eaeadc7ae0516704c4a635fd56a82310893a7d8152f35b50346102235760403660031901126102235760043561261f612b5f565b8183528260205261263660016040852001546131e6565b818352602083815260408085206001600160a01b039093168086529290915283205460ff1615612664578280f35b818352826020526040832081845260205260408320600160ff1982541617905533917f2f8788117e7eff1d82e926ec794901d17c78024a50270940304540a733656f0d8480a438808280f35b503461022357602036600319011261022357600160406020926004358152808452200154604051908152f35b5034610223576020366003190112610223576001604061273992600435815260066020522060028101549060038101546127256005830154926119756040518097819301612dbe565b60405194859460a0865260a0860190612b98565b6020850193909352604084015260a081901c60ff16151560608401526001600160a01b031660808301520390f35b5034610223576060366003190112610223576001600160401b039060043582811161021f5761279a903690600401612c42565b9160243590811161021f576127b3903690600401612ca0565b60405183818095516127cb8160209889809601612b75565b81016004815203019020916127e361214f8454612d84565b60405190818581019384878251919201935b8882821061285557505050612813925003601f198101835282612c06565b5190209060028101546128496040805180936128328883018097613589565b906044358252888201520386810184520182612c06565b51902014604051908152f35b8551845294850194869450909201916001016127f5565b503461022357806003193601126102235760206040517fe70d28ebd9d7d9a3dd77d46ae2481f301c80806f395b08de31d8e095b1c46cee8152f35b5034610223576040366003190112610223576004359081815260209060058252604081209233825260048401835260ff6040832054168015612a0f575b156129ca5760035460405163e8296c4f60e01b815260048101929092523360248301528390829060449082906001600160a01b03165afa91821561245257809261299a575b50506024350361295d57612949600192610a6c6040518095819301612dbe565b611461604051928284938452830190612b98565b6064906040519062461bcd60e51b825260048201526016602482015275496e76616c69642064656372797074696f6e206b657960501b6044820152fd5b9091508282813d83116129c3575b6129b28183612c06565b810103126102235750513880612929565b503d6129a8565b60405162461bcd60e51b815260048101849052601960248201527f4e6f7420617574686f72697a656420746f2064656372797074000000000000006044820152606490fd5b506003546040516325e1cf6160e11b815260048101839052336024820152908490829060449082906001600160a01b03165afa908115612a8c578391612a56575b506128e4565b90508381813d8311612a85575b612a6d8183612c06565b8101031261101d5751801515810361101d5738612a50565b503d612a63565b6040513d85823e3d90fd5b50346102235760203660031901126102235760043563ffffffff60e01b811680910361021f57602090637965db0b60e01b8114908115612add575b506040519015158152f35b6301ffc9a760e01b14905082612ad2565b50346102235760208060031936011261021f57612b09612b49565b612b11612ed4565b7fe70d28ebd9d7d9a3dd77d46ae2481f301c80806f395b08de31d8e095b1c46cee91828452838152611f3f60016040862001546131e6565b600435906001600160a01b038216820361054657565b602435906001600160a01b038216820361054657565b60005b838110612b885750506000910152565b8181015183820152602001612b78565b90602091612bb181518092818552858086019101612b75565b601f01601f1916010190565b6001600160401b03811161147957604052565b606081019081106001600160401b0382111761147957604052565b608081019081106001600160401b0382111761147957604052565b90601f801991011681019081106001600160401b0382111761147957604052565b6001600160401b03811161147957601f01601f191660200190565b81601f8201121561054657803590612c5982612c27565b92612c676040519485612c06565b8284526020838301011161054657816000926020809301838601378301015290565b6001600160401b0381116114795760051b60200190565b81601f8201121561054657803591612cb783612c89565b92612cc56040519485612c06565b808452602092838086019260051b820101928311610546578301905b828210612cef575050505090565b81358152908301908301612ce1565b81601f8201121561054657803591612d1583612c89565b92612d236040519485612c06565b808452602092838086019260051b820101928311610546578301905b828210612d4d575050505090565b81356001600160a01b0381168103610546578152908301908301612d3f565b80548210156118745760005260206000200190600090565b90600182811c92168015612db4575b6020831014612d9e57565b634e487b7160e01b600052602260045260246000fd5b91607f1691612d93565b9060009291805491612dcf83612d84565b918282526001938481169081600014612e315750600114612df1575b50505050565b90919394506000526020928360002092846000945b838610612e1d575050505001019038808080612deb565b805485870183015294019385908201612e06565b9294505050602093945060ff191683830152151560051b01019038808080612deb565b9080601f8301121561054657813590612e6c82612c89565b92612e7a6040519485612c06565b828452602092838086019160051b8301019280841161054657848301915b848310612ea85750505050505090565b82356001600160401b038111610546578691612ec984848094890101612c42565b815201920191612e98565b3360009081527fad3228b676f7d3cd4284a5443f17f1962b36e491b30a40b2405849e597ba5fb5602090815260408083205490929060ff1615612f1657505050565b612f1f33613375565b9080845190612f2d82612beb565b6042825284820192606036853782511561308d576030845382519060019182101561308d5790607860218501536041915b81831161301f57505050612fdd5760486117d2938693612fc193612fb2985198899376020b1b1b2b9b9a1b7b73a3937b61d1030b1b1b7bab73a1604d1b8a86015261177a815180928c603789019101612b75565b01036028810187520185612c06565b5192839262461bcd60e51b845260048401526024830190612b98565b60648486519062461bcd60e51b825280600483015260248201527f537472696e67733a20686578206c656e67746820696e73756666696369656e746044820152fd5b909192600f81166010811015613079576f181899199a1a9b1b9c1cb0b131b232b360811b901a61304f8587613364565b5360041c92801561306557600019019190612f5e565b634e487b7160e01b82526011600452602482fd5b634e487b7160e01b83526032600452602483fd5b634e487b7160e01b81526032600452602490fd5b3360009081527fd794e082c83af78a2a6a572f4231a899bef773ee0851bd2fa0fde1ff322f1c7d602090815260408083205490927fe70d28ebd9d7d9a3dd77d46ae2481f301c80806f395b08de31d8e095b1c46cee9160ff16156131055750505050565b61310e33613375565b9184519061311b82612beb565b6042825284820192606036853782511561308d576030845382519060019182101561308d5790607860218501536041915b8183116131a057505050612fdd5760486117d2938693612fc193612fb2985198899376020b1b1b2b9b9a1b7b73a3937b61d1030b1b1b7bab73a1604d1b8a86015261177a815180928c603789019101612b75565b909192600f81166010811015613079576f181899199a1a9b1b9c1cb0b131b232b360811b901a6131d08587613364565b5360041c9280156130655760001901919061314c565b600090808252602090828252604092838120338252835260ff84822054161561320f5750505050565b61321833613375565b9184519061322582612beb565b6042825284820192606036853782511561308d576030845382519060019182101561308d5790607860218501536041915b8183116132aa57505050612fdd5760486117d2938693612fc193612fb2985198899376020b1b1b2b9b9a1b7b73a3937b61d1030b1b1b7bab73a1604d1b8a86015261177a815180928c603789019101612b75565b909192600f81166010811015613079576f181899199a1a9b1b9c1cb0b131b232b360811b901a6132da8587613364565b5360041c92801561306557600019019190613256565b9060009180835282602052604083209160018060a01b03169182845260205260ff60408420541661332057505050565b80835282602052604083208284526020526040832060ff1981541690557ff6391f5c32d9c69d2a47ea670b442974b53935d1edc7fd64eb21e047a839171b339380a4565b908151811015611874570160200190565b6040519061338282612bd0565b602a82526020820160403682378251156118745760309053815160019081101561187457607860218401536029905b8082116133c15750506117d65790565b9091600f8116601081101561341a576f181899199a1a9b1b9c1cb0b131b232b360811b901a6133f08486613364565b5360041c9180156134055760001901906133b1565b60246000634e487b7160e01b81526011600452fd5b60246000634e487b7160e01b81526032600452fd5b81811061343a575050565b6000815560010161342f565b9190601f811161345557505050565b613481926000526020600020906020601f840160051c83019310613483575b601f0160051c019061342f565b565b9091508190613474565b6134a590602060405192828480945193849201612b75565b810103902090565b600019811461185e5760010190565b8051156118745760200190565b80518210156118745760209160051b010190565b156134e457565b60405162461bcd60e51b815260206004820152600e60248201526d14919251081b9bdd08199bdd5b9960921b6044820152606490fd5b90815180825260208080930193019160005b82811061353a575050505090565b83516001600160a01b03168552938101939281019260010161352c565b9061356182612c89565b61356e6040519182612c06565b828152809261357f601f1991612c89565b0190602036910137565b60009291815461359881612d84565b926001918083169081156135f057506001146135b45750505050565b90919293945060005260209081600020906000915b8583106135df5750505050019038808080612deb565b8054858401529183019181016135c9565b60ff1916845250505081151590910201915038808080612deb565b61367a9161367260656040518093602061362e8184019788815193849201612b75565b8201906001600160601b03199060601b166020820152426034820152701491925117d41492559050d657d4d05315607a1b6054820152036045810184520182612c06565b519020613812565b90565b61367a90604051613672604e82602061369f8183019687815193849201612b75565b81014260208201526d454e4352595054494f4e5f4b455960901b604082015203602e810184520182612c06565b8051156137c757600190818151146136e557815b6136f3575b6136ef91506134bc565b5190565b8051828111156137c1578281018091116134055790826137158193821c613557565b916000915b613727575b5050906136e0565b90919281518310156137ba57820180831161185e57815181101561379c5761375a61375284846134c9565b5191836134c9565b5160408051916020830193845281830152815261377681612bd0565b51902061378583861c856134c9565b525b6002820180921161185e57839291908361371a565b506137a782826134c9565b516137b483861c856134c9565b52613787565b929161371f565b506136e5565b60405162461bcd60e51b8152602060048201526012602482015271456d707479206c656176657320617272617960701b6044820152606490fd5b60ff1660ff811461185e5760010190565b60005b60ff81166020811090816138cd575b50156138385761383390613801565b613815565b9060ff8092169061384882612c27565b916138566040519384612c06565b808352613865601f1991612c27565b0193602094368685013760005b8085169086821080806138b1575b156138a65715611874578161389b856138a1941a9187613364565b53613801565b613872565b505050935050905090565b156118745784831a60f81b6001600160f81b0319161515613880565b90156118745782901a60f81b6001600160f81b03191615153861382456fea2646970667358221220dc8291d76361e8cff52d18e4f43698460c8b2cf2761f2f99fb71549d712c189c64736f6c634300081300332f8788117e7eff1d82e926ec794901d17c78024a50270940304540a733656f0d",
  "linkReferences": {},
  "deployedLinkReferences": {}
}