{
  "_format": "hh-sol-artifact-1",
  "contractName": "SupplyChainGovernance",
  "sourceName": "contracts/SupplyChainGovernance.sol",
  "abi": [
    {
      "inputs": [
        {
          "internalType": "address",
          "name": "_nftContract",
          "type": "address"
        }
      ],
      "stateMutability": "nonpayable",
      "type": "constructor"
    },
    {
      "anonymous": false,
      "inputs": [
        {
          "indexed": false,
          "internalType": "string",
          "name": "parameter",
          "type": "string"
        },
        {
          "indexed": false,
          "internalType": "uint256",
          "name": "newValue",
          "type": "uint256"
        }
      ],
      "name": "GovernanceParameterUpdated",
      "type": "event"
    },
    {
      "anonymous": false,
      "inputs": [
        {
          "indexed": true,
          "internalType": "uint256",
          "name": "proposalId",
          "type": "uint256"
        },
        {
          "indexed": true,
          "internalType": "address",
          "name": "canceller",
          "type": "address"
        }
      ],
      "name": "ProposalCancelled",
      "type": "event"
    },
    {
      "anonymous": false,
      "inputs": [
        {
          "indexed": true,
          "internalType": "uint256",
          "name": "proposalId",
          "type": "uint256"
        },
        {
          "indexed": true,
          "internalType": "address",
          "name": "proposer",
          "type": "address"
        },
        {
          "indexed": false,
          "internalType": "enum SupplyChainGovernance.ProposalType",
          "name": "proposalType",
          "type": "uint8"
        },
        {
          "indexed": false,
          "internalType": "string",
          "name": "title",
          "type": "string"
        }
      ],
      "name": "ProposalCreated",
      "type": "event"
    },
    {
      "anonymous": false,
      "inputs": [
        {
          "indexed": true,
          "internalType": "uint256",
          "name": "proposalId",
          "type": "uint256"
        },
        {
          "indexed": true,
          "internalType": "address",
          "name": "executor",
          "type": "address"
        }
      ],
      "name": "ProposalExecuted",
      "type": "event"
    },
    {
      "anonymous": false,
      "inputs": [
        {
          "indexed": true,
          "internalType": "string",
          "name": "standardName",
          "type": "string"
        },
        {
          "indexed": false,
          "internalType": "string",
          "name": "newRequirements",
          "type": "string"
        }
      ],
      "name": "QualityStandardUpdated",
      "type": "event"
    },
    {
      "anonymous": false,
      "inputs": [
        {
          "indexed": true,
          "internalType": "uint256",
          "name": "proposalId",
          "type": "uint256"
        },
        {
          "indexed": false,
          "internalType": "uint256[]",
          "name": "tokenIds",
          "type": "uint256[]"
        },
        {
          "indexed": false,
          "internalType": "string",
          "name": "reason",
          "type": "string"
        }
      ],
      "name": "RecallInitiated",
      "type": "event"
    },
    {
      "anonymous": false,
      "inputs": [
        {
          "indexed": true,
          "internalType": "bytes32",
          "name": "role",
          "type": "bytes32"
        },
        {
          "indexed": true,
          "internalType": "bytes32",
          "name": "previousAdminRole",
          "type": "bytes32"
        },
        {
          "indexed": true,
          "internalType": "bytes32",
          "name": "newAdminRole",
          "type": "bytes32"
        }
      ],
      "name": "RoleAdminChanged",
      "type": "event"
    },
    {
      "anonymous": false,
      "inputs": [
        {
          "indexed": true,
          "internalType": "bytes32",
          "name": "role",
          "type": "bytes32"
        },
        {
          "indexed": true,
          "internalType": "address",
          "name": "account",
          "type": "address"
        },
        {
          "indexed": true,
          "internalType": "address",
          "name": "sender",
          "type": "address"
        }
      ],
      "name": "RoleGranted",
      "type": "event"
    },
    {
      "anonymous": false,
      "inputs": [
        {
          "indexed": true,
          "internalType": "bytes32",
          "name": "role",
          "type": "bytes32"
        },
        {
          "indexed": true,
          "internalType": "address",
          "name": "account",
          "type": "address"
        },
        {
          "indexed": true,
          "internalType": "address",
          "name": "sender",
          "type": "address"
        }
      ],
      "name": "RoleRevoked",
      "type": "event"
    },
    {
      "anonymous": false,
      "inputs": [
        {
          "indexed": true,
          "internalType": "address",
          "name": "supplier",
          "type": "address"
        },
        {
          "indexed": false,
          "internalType": "string",
          "name": "certificationType",
          "type": "string"
        },
        {
          "indexed": false,
          "internalType": "bool",
          "name": "approved",
          "type": "bool"
        }
      ],
      "name": "SupplierCertificationChanged",
      "type": "event"
    },
    {
      "anonymous": false,
      "inputs": [
        {
          "indexed": true,
          "internalType": "uint256",
          "name": "proposalId",
          "type": "uint256"
        },
        {
          "indexed": true,
          "internalType": "address",
          "name": "voter",
          "type": "address"
        },
        {
          "indexed": false,
          "internalType": "uint8",
          "name": "support",
          "type": "uint8"
        },
        {
          "indexed": false,
          "internalType": "uint256",
          "name": "weight",
          "type": "uint256"
        }
      ],
      "name": "VoteCast",
      "type": "event"
    },
    {
      "anonymous": false,
      "inputs": [
        {
          "indexed": true,
          "internalType": "address",
          "name": "account",
          "type": "address"
        },
        {
          "indexed": false,
          "internalType": "uint256",
          "name": "newPower",
          "type": "uint256"
        }
      ],
      "name": "VotingPowerUpdated",
      "type": "event"
    },
    {
      "inputs": [],
      "name": "DEFAULT_ADMIN_ROLE",
      "outputs": [
        {
          "internalType": "bytes32",
          "name": "",
          "type": "bytes32"
        }
      ],
      "stateMutability": "view",
      "type": "function"
    },
    {
      "inputs": [],
      "name": "EXECUTOR_ROLE",
      "outputs": [
        {
          "internalType": "bytes32",
          "name": "",
          "type": "bytes32"
        }
      ],
      "stateMutability": "view",
      "type": "function"
    },
    {
      "inputs": [],
      "name": "GOVERNOR_ROLE",
      "outputs": [
        {
          "internalType": "bytes32",
          "name": "",
          "type": "bytes32"
        }
      ],
      "stateMutability": "view",
      "type": "function"
    },
    {
      "inputs": [],
      "name": "PROPOSER_ROLE",
      "outputs": [
        {
          "internalType": "bytes32",
          "name": "",
          "type": "bytes32"
        }
      ],
      "stateMutability": "view",
      "type": "function"
    },
    {
      "inputs": [
        {
          "internalType": "uint256",
          "name": "proposalId",
          "type": "uint256"
        }
      ],
      "name": "cancel",
      "outputs": [],
      "stateMutability": "nonpayable",
      "type": "function"
    },
    {
      "inputs": [
        {
          "internalType": "uint256",
          "name": "proposalId",
          "type": "uint256"
        },
        {
          "internalType": "uint8",
          "name": "support",
          "type": "uint8"
        }
      ],
      "name": "castVote",
      "outputs": [],
      "stateMutability": "nonpayable",
      "type": "function"
    },
    {
      "inputs": [
        {
          "internalType": "uint256",
          "name": "proposalId",
          "type": "uint256"
        },
        {
          "internalType": "uint8",
          "name": "support",
          "type": "uint8"
        },
        {
          "internalType": "string",
          "name": "reason",
          "type": "string"
        }
      ],
      "name": "castVoteWithReason",
      "outputs": [],
      "stateMutability": "nonpayable",
      "type": "function"
    },
    {
      "inputs": [
        {
          "internalType": "address",
          "name": "",
          "type": "address"
        }
      ],
      "name": "certifiedSuppliers",
      "outputs": [
        {
          "internalType": "bool",
          "name": "",
          "type": "bool"
        }
      ],
      "stateMutability": "view",
      "type": "function"
    },
    {
      "inputs": [
        {
          "internalType": "uint256",
          "name": "proposalId",
          "type": "uint256"
        }
      ],
      "name": "execute",
      "outputs": [],
      "stateMutability": "nonpayable",
      "type": "function"
    },
    {
      "inputs": [],
      "name": "getCurrentProposalId",
      "outputs": [
        {
          "internalType": "uint256",
          "name": "",
          "type": "uint256"
        }
      ],
      "stateMutability": "view",
      "type": "function"
    },
    {
      "inputs": [
        {
          "internalType": "uint256",
          "name": "proposalId",
          "type": "uint256"
        }
      ],
      "name": "getProposal",
      "outputs": [
        {
          "internalType": "uint256",
          "name": "id",
          "type": "uint256"
        },
        {
          "internalType": "address",
          "name": "proposer",
          "type": "address"
        },
        {
          "internalType": "enum SupplyChainGovernance.ProposalType",
          "name": "proposalType",
          "type": "uint8"
        },
        {
          "internalType": "string",
          "name": "title",
          "type": "string"
        },
        {
          "internalType": "string",
          "name": "description",
          "type": "string"
        },
        {
          "internalType": "uint256",
          "name": "createdAt",
          "type": "uint256"
        },
        {
          "internalType": "uint256",
          "name": "votingStartTime",
          "type": "uint256"
        },
        {
          "internalType": "uint256",
          "name": "votingEndTime",
          "type": "uint256"
        },
        {
          "internalType": "enum SupplyChainGovernance.ProposalStatus",
          "name": "status",
          "type": "uint8"
        },
        {
          "internalType": "uint256",
          "name": "forVotes",
          "type": "uint256"
        },
        {
          "internalType": "uint256",
          "name": "againstVotes",
          "type": "uint256"
        },
        {
          "internalType": "uint256",
          "name": "abstainVotes",
          "type": "uint256"
        },
        {
          "internalType": "bool",
          "name": "executed",
          "type": "bool"
        }
      ],
      "stateMutability": "view",
      "type": "function"
    },
    {
      "inputs": [
        {
          "internalType": "uint256",
          "name": "proposalId",
          "type": "uint256"
        }
      ],
      "name": "getProposalState",
      "outputs": [
        {
          "internalType": "enum SupplyChainGovernance.ProposalStatus",
          "name": "",
          "type": "uint8"
        }
      ],
      "stateMutability": "view",
      "type": "function"
    },
    {
      "inputs": [
        {
          "internalType": "uint256",
          "name": "proposalId",
          "type": "uint256"
        }
      ],
      "name": "getQualityStandardUpdate",
      "outputs": [
        {
          "components": [
            {
              "internalType": "uint256",
              "name": "proposalId",
              "type": "uint256"
            },
            {
              "internalType": "string",
              "name": "standardName",
              "type": "string"
            },
            {
              "internalType": "string",
              "name": "newRequirements",
              "type": "string"
            },
            {
              "internalType": "uint256",
              "name": "effectiveDate",
              "type": "uint256"
            },
            {
              "internalType": "string[]",
              "name": "affectedCategories",
              "type": "string[]"
            }
          ],
          "internalType": "struct SupplyChainGovernance.QualityStandardUpdate",
          "name": "",
          "type": "tuple"
        }
      ],
      "stateMutability": "view",
      "type": "function"
    },
    {
      "inputs": [],
      "name": "getQuorum",
      "outputs": [
        {
          "internalType": "uint256",
          "name": "",
          "type": "uint256"
        }
      ],
      "stateMutability": "view",
      "type": "function"
    },
    {
      "inputs": [
        {
          "internalType": "uint256",
          "name": "proposalId",
          "type": "uint256"
        }
      ],
      "name": "getRecallProposal",
      "outputs": [
        {
          "components": [
            {
              "internalType": "uint256",
              "name": "proposalId",
              "type": "uint256"
            },
            {
              "internalType": "uint256[]",
              "name": "tokenIds",
              "type": "uint256[]"
            },
            {
              "internalType": "string",
              "name": "reason",
              "type": "string"
            },
            {
              "internalType": "string[]",
              "name": "affectedBatches",
              "type": "string[]"
            },
            {
              "internalType": "address[]",
              "name": "notifyAddresses",
              "type": "address[]"
            },
            {
              "internalType": "bool",
              "name": "emergencyRecall",
              "type": "bool"
            },
            {
              "internalType": "uint256",
              "name": "compensationAmount",
              "type": "uint256"
            }
          ],
          "internalType": "struct SupplyChainGovernance.RecallProposal",
          "name": "",
          "type": "tuple"
        }
      ],
      "stateMutability": "view",
      "type": "function"
    },
    {
      "inputs": [
        {
          "internalType": "bytes32",
          "name": "role",
          "type": "bytes32"
        }
      ],
      "name": "getRoleAdmin",
      "outputs": [
        {
          "internalType": "bytes32",
          "name": "",
          "type": "bytes32"
        }
      ],
      "stateMutability": "view",
      "type": "function"
    },
    {
      "inputs": [
        {
          "internalType": "uint256",
          "name": "proposalId",
          "type": "uint256"
        }
      ],
      "name": "getSupplierCertification",
      "outputs": [
        {
          "components": [
            {
              "internalType": "uint256",
              "name": "proposalId",
              "type": "uint256"
            },
            {
              "internalType": "address",
              "name": "supplier",
              "type": "address"
            },
            {
              "internalType": "string",
              "name": "certificationType",
              "type": "string"
            },
            {
              "internalType": "bool",
              "name": "isApproval",
              "type": "bool"
            },
            {
              "internalType": "string",
              "name": "evidence",
              "type": "string"
            },
            {
              "internalType": "uint256",
              "name": "validUntil",
              "type": "uint256"
            }
          ],
          "internalType": "struct SupplyChainGovernance.SupplierCertification",
          "name": "",
          "type": "tuple"
        }
      ],
      "stateMutability": "view",
      "type": "function"
    },
    {
      "inputs": [
        {
          "internalType": "uint256",
          "name": "proposalId",
          "type": "uint256"
        },
        {
          "internalType": "address",
          "name": "voter",
          "type": "address"
        }
      ],
      "name": "getVote",
      "outputs": [
        {
          "internalType": "uint8",
          "name": "",
          "type": "uint8"
        }
      ],
      "stateMutability": "view",
      "type": "function"
    },
    {
      "inputs": [
        {
          "internalType": "bytes32",
          "name": "role",
          "type": "bytes32"
        },
        {
          "internalType": "address",
          "name": "account",
          "type": "address"
        }
      ],
      "name": "grantRole",
      "outputs": [],
      "stateMutability": "nonpayable",
      "type": "function"
    },
    {
      "inputs": [
        {
          "internalType": "bytes32",
          "name": "role",
          "type": "bytes32"
        },
        {
          "internalType": "address",
          "name": "account",
          "type": "address"
        }
      ],
      "name": "hasRole",
      "outputs": [
        {
          "internalType": "bool",
          "name": "",
          "type": "bool"
        }
      ],
      "stateMutability": "view",
      "type": "function"
    },
    {
      "inputs": [
        {
          "internalType": "uint256",
          "name": "proposalId",
          "type": "uint256"
        },
        {
          "internalType": "address",
          "name": "voter",
          "type": "address"
        }
      ],
      "name": "hasVoted",
      "outputs": [
        {
          "internalType": "bool",
          "name": "",
          "type": "bool"
        }
      ],
      "stateMutability": "view",
      "type": "function"
    },
    {
      "inputs": [],
      "name": "nftContract",
      "outputs": [
        {
          "internalType": "contract ProTrackNFT",
          "name": "",
          "type": "address"
        }
      ],
      "stateMutability": "view",
      "type": "function"
    },
    {
      "inputs": [],
      "name": "proposalThreshold",
      "outputs": [
        {
          "internalType": "uint256",
          "name": "",
          "type": "uint256"
        }
      ],
      "stateMutability": "view",
      "type": "function"
    },
    {
      "inputs": [
        {
          "internalType": "uint256",
          "name": "",
          "type": "uint256"
        }
      ],
      "name": "proposals",
      "outputs": [
        {
          "internalType": "uint256",
          "name": "id",
          "type": "uint256"
        },
        {
          "internalType": "address",
          "name": "proposer",
          "type": "address"
        },
        {
          "internalType": "enum SupplyChainGovernance.ProposalType",
          "name": "proposalType",
          "type": "uint8"
        },
        {
          "internalType": "string",
          "name": "title",
          "type": "string"
        },
        {
          "internalType": "string",
          "name": "description",
          "type": "string"
        },
        {
          "internalType": "bytes",
          "name": "executionData",
          "type": "bytes"
        },
        {
          "internalType": "uint256",
          "name": "createdAt",
          "type": "uint256"
        },
        {
          "internalType": "uint256",
          "name": "votingStartTime",
          "type": "uint256"
        },
        {
          "internalType": "uint256",
          "name": "votingEndTime",
          "type": "uint256"
        },
        {
          "internalType": "uint256",
          "name": "executionTime",
          "type": "uint256"
        },
        {
          "internalType": "enum SupplyChainGovernance.ProposalStatus",
          "name": "status",
          "type": "uint8"
        },
        {
          "internalType": "uint256",
          "name": "forVotes",
          "type": "uint256"
        },
        {
          "internalType": "uint256",
          "name": "againstVotes",
          "type": "uint256"
        },
        {
          "internalType": "uint256",
          "name": "abstainVotes",
          "type": "uint256"
        },
        {
          "internalType": "bool",
          "name": "executed",
          "type": "bool"
        }
      ],
      "stateMutability": "view",
      "type": "function"
    },
    {
      "inputs": [
        {
          "internalType": "enum SupplyChainGovernance.ProposalType",
          "name": "proposalType",
          "type": "uint8"
        },
        {
          "internalType": "string",
          "name": "title",
          "type": "string"
        },
        {
          "internalType": "string",
          "name": "description",
          "type": "string"
        },
        {
          "internalType": "bytes",
          "name": "executionData",
          "type": "bytes"
        }
      ],
      "name": "propose",
      "outputs": [
        {
          "internalType": "uint256",
          "name": "",
          "type": "uint256"
        }
      ],
      "stateMutability": "nonpayable",
      "type": "function"
    },
    {
      "inputs": [
        {
          "internalType": "string",
          "name": "standardName",
          "type": "string"
        },
        {
          "internalType": "string",
          "name": "newRequirements",
          "type": "string"
        },
        {
          "internalType": "uint256",
          "name": "effectiveDate",
          "type": "uint256"
        },
        {
          "internalType": "string[]",
          "name": "affectedCategories",
          "type": "string[]"
        }
      ],
      "name": "proposeQualityStandardUpdate",
      "outputs": [
        {
          "internalType": "uint256",
          "name": "",
          "type": "uint256"
        }
      ],
      "stateMutability": "nonpayable",
      "type": "function"
    },
    {
      "inputs": [
        {
          "internalType": "uint256[]",
          "name": "tokenIds",
          "type": "uint256[]"
        },
        {
          "internalType": "string",
          "name": "reason",
          "type": "string"
        },
        {
          "internalType": "string[]",
          "name": "affectedBatches",
          "type": "string[]"
        },
        {
          "internalType": "address[]",
          "name": "notifyAddresses",
          "type": "address[]"
        },
        {
          "internalType": "bool",
          "name": "emergencyRecall",
          "type": "bool"
        },
        {
          "internalType": "uint256",
          "name": "compensationAmount",
          "type": "uint256"
        }
      ],
      "name": "proposeRecall",
      "outputs": [
        {
          "internalType": "uint256",
          "name": "",
          "type": "uint256"
        }
      ],
      "stateMutability": "nonpayable",
      "type": "function"
    },
    {
      "inputs": [
        {
          "internalType": "address",
          "name": "supplier",
          "type": "address"
        },
        {
          "internalType": "string",
          "name": "certificationType",
          "type": "string"
        },
        {
          "internalType": "bool",
          "name": "isApproval",
          "type": "bool"
        },
        {
          "internalType": "string",
          "name": "evidence",
          "type": "string"
        },
        {
          "internalType": "uint256",
          "name": "validUntil",
          "type": "uint256"
        }
      ],
      "name": "proposeSupplierCertification",
      "outputs": [
        {
          "internalType": "uint256",
          "name": "",
          "type": "uint256"
        }
      ],
      "stateMutability": "nonpayable",
      "type": "function"
    },
    {
      "inputs": [
        {
          "internalType": "uint256",
          "name": "",
          "type": "uint256"
        }
      ],
      "name": "qualityStandardUpdates",
      "outputs": [
        {
          "internalType": "uint256",
          "name": "proposalId",
          "type": "uint256"
        },
        {
          "internalType": "string",
          "name": "standardName",
          "type": "string"
        },
        {
          "internalType": "string",
          "name": "newRequirements",
          "type": "string"
        },
        {
          "internalType": "uint256",
          "name": "effectiveDate",
          "type": "uint256"
        }
      ],
      "stateMutability": "view",
      "type": "function"
    },
    {
      "inputs": [
        {
          "internalType": "string",
          "name": "",
          "type": "string"
        }
      ],
      "name": "qualityStandards",
      "outputs": [
        {
          "internalType": "string",
          "name": "",
          "type": "string"
        }
      ],
      "stateMutability": "view",
      "type": "function"
    },
    {
      "inputs": [],
      "name": "quorumPercentage",
      "outputs": [
        {
          "internalType": "uint256",
          "name": "",
          "type": "uint256"
        }
      ],
      "stateMutability": "view",
      "type": "function"
    },
    {
      "inputs": [
        {
          "internalType": "uint256",
          "name": "",
          "type": "uint256"
        }
      ],
      "name": "recallProposals",
      "outputs": [
        {
          "internalType": "uint256",
          "name": "proposalId",
          "type": "uint256"
        },
        {
          "internalType": "string",
          "name": "reason",
          "type": "string"
        },
        {
          "internalType": "bool",
          "name": "emergencyRecall",
          "type": "bool"
        },
        {
          "internalType": "uint256",
          "name": "compensationAmount",
          "type": "uint256"
        }
      ],
      "stateMutability": "view",
      "type": "function"
    },
    {
      "inputs": [
        {
          "internalType": "bytes32",
          "name": "role",
          "type": "bytes32"
        },
        {
          "internalType": "address",
          "name": "account",
          "type": "address"
        }
      ],
      "name": "renounceRole",
      "outputs": [],
      "stateMutability": "nonpayable",
      "type": "function"
    },
    {
      "inputs": [
        {
          "internalType": "bytes32",
          "name": "role",
          "type": "bytes32"
        },
        {
          "internalType": "address",
          "name": "account",
          "type": "address"
        }
      ],
      "name": "revokeRole",
      "outputs": [],
      "stateMutability": "nonpayable",
      "type": "function"
    },
    {
      "inputs": [
        {
          "internalType": "uint256",
          "name": "",
          "type": "uint256"
        }
      ],
      "name": "supplierCertifications",
      "outputs": [
        {
          "internalType": "uint256",
          "name": "proposalId",
          "type": "uint256"
        },
        {
          "internalType": "address",
          "name": "supplier",
          "type": "address"
        },
        {
          "internalType": "string",
          "name": "certificationType",
          "type": "string"
        },
        {
          "internalType": "bool",
          "name": "isApproval",
          "type": "bool"
        },
        {
          "internalType": "string",
          "name": "evidence",
          "type": "string"
        },
        {
          "internalType": "uint256",
          "name": "validUntil",
          "type": "uint256"
        }
      ],
      "stateMutability": "view",
      "type": "function"
    },
    {
      "inputs": [
        {
          "internalType": "bytes4",
          "name": "interfaceId",
          "type": "bytes4"
        }
      ],
      "name": "supportsInterface",
      "outputs": [
        {
          "internalType": "bool",
          "name": "",
          "type": "bool"
        }
      ],
      "stateMutability": "view",
      "type": "function"
    },
    {
      "inputs": [],
      "name": "totalVotingPower",
      "outputs": [
        {
          "internalType": "uint256",
          "name": "",
          "type": "uint256"
        }
      ],
      "stateMutability": "view",
      "type": "function"
    },
    {
      "inputs": [
        {
          "internalType": "string",
          "name": "parameter",
          "type": "string"
        },
        {
          "internalType": "uint256",
          "name": "newValue",
          "type": "uint256"
        }
      ],
      "name": "updateGovernanceParameter",
      "outputs": [],
      "stateMutability": "nonpayable",
      "type": "function"
    },
    {
      "inputs": [
        {
          "internalType": "address",
          "name": "account",
          "type": "address"
        },
        {
          "internalType": "uint256",
          "name": "newPower",
          "type": "uint256"
        }
      ],
      "name": "updateVotingPower",
      "outputs": [],
      "stateMutability": "nonpayable",
      "type": "function"
    },
    {
      "inputs": [],
      "name": "votingDelay",
      "outputs": [
        {
          "internalType": "uint256",
          "name": "",
          "type": "uint256"
        }
      ],
      "stateMutability": "view",
      "type": "function"
    },
    {
      "inputs": [],
      "name": "votingPeriod",
      "outputs": [
        {
          "internalType": "uint256",
          "name": "",
          "type": "uint256"
        }
      ],
      "stateMutability": "view",
      "type": "function"
    },
    {
      "inputs": [
        {
          "internalType": "address",
          "name": "",
          "type": "address"
        }
      ],
      "name": "votingPower",
      "outputs": [
        {
          "internalType": "uint256",
          "name": "",
          "type": "uint256"
        }
      ],
      "stateMutability": "view",
      "type": "function"
    }
  ],
  "bytecode": "0x60a0346200027557601f6200423b38819003918201601f1916830192916001600160401b038411838510176200027a57808392604095865283396020928391810103126200027557516001600160a01b038116919082900362000275576064916007849260019283805562015180600a5562093a80600b5583600c556019600d55608052600092838052838252848420338552825260ff8585205416156200023e575b7f7935bd0ae54bc31f548c14dba4d37c5c64b3f8ca900cb468fb8abd54d5894f55808552848352858520338652835260ff86862054161562000205575b507fb09aa5aeb3702cfd50b6b62bc4532604938f21248a27a1d5ca736082b6819cc1808552848352858520338652835260ff868620541615620001cc575b507fd8aa0f3194971a2a116679f7c2090f6939c8d4e01a2a8d7e41d55e5351469e6390818552848352858520338652835260ff86862054161562000192575b50505220556064600e5551613f8a90816200029182396080518181816102eb01528181610557015281816106a90152610b5a0152f35b81855284835285852033865283528585209060ff19825416179055339033906000805160206200421b8339815191528680a438806200015c565b80855284835285852033865283528585208260ff19825416179055339033906000805160206200421b8339815191528780a4386200011d565b80855284835285852033865283528585208260ff19825416179055339033906000805160206200421b8339815191528780a438620000df565b83805283825284842033855282528484208160ff198254161790553333856000805160206200421b8339815191528180a4620000a2565b600080fd5b634e487b7160e01b600052604160045260246000fdfe6080604052600436101561001257600080fd5b6000803560e01c8063013cf08b14612eff57806301f1da2614612a2e57806301ffc9a7146129d757806302a251a3146129b957806307bd02651461297e5780630838e119146125735780631bc11f6514611e9a578063248a9ca314611e6e5780632f2ff15d14611dc057806336568abe14611d2d57806336f16a4b14611b39578063375bef9214611a8e57806338e6157314611a4f5780633932abb114611a31578063408ddfa7146119c057806340e58ee51461186f57806343859632146118235780634fa76ec91461180557806356781388146117e057806361ec8e0b1461161b578063671b3793146115fd5780637b3c71d3146115b75780638932e40e146110535780638eee49c814610fbd5780638f61f4f514610f825780639080936f14610f5257806391d1485414610f0a578063a217fddf14610eee578063b496d4e714610dee578063b58131b014610dd0578063bc3f931f14610d86578063c07473f614610d4d578063c26c12eb14610d2a578063c7f758a814610c04578063ccc5749014610bc9578063d547741f14610b89578063d56d229d14610b44578063e128328314610ac4578063eadc29c714610a24578063f474696c146108fc578063fe0d94c11461020b5763fe10226d146101eb57600080fd5b346102085780600319360112610208576020600254604051908152f35b80fd5b503461020857602080600319360112610448576004356002600192818454146108b8578184557fd8aa0f3194971a2a116679f7c2090f6939c8d4e01a2a8d7e41d55e5351469e63855284815260408520338652815260ff80604087205416156108735783865260038252604086206009810180548584821661028c816131ff565b148015610856575b1561081357600d8301908154918583166107db5760ff199283168a17905516600417905542600882015585015460a01c81166102cf816131ff565b80610455575050828552600481526040852083928186019291017f00000000000000000000000000000000000000000000000000000000000000006001600160a01b031687875b610397575b50509161036861035b927f36ca24ae7e5a580c75686f82b49a95c1b79a62922b1936a88ec5bd2d106d2ed794604051948594604086526040860190613c2f565b9184830390850152613098565b0390a25b33907f9c85b616f29fca57a17eafe71cf9ff82ffef41766e2cf01ea7f8f7878dd3ec248480a3805580f35b9091929394855482101561044c575084885287818582200154833b156104485760405190633f6ca60960e01b82526004820152816024820152606060448201528181806103e76064820189613098565b038183885af1801561043d57610425575b5050600019811461041157859493929190870187610316565b634e487b7160e01b88526011600452602488fd5b61042e90613195565b6104395787386103f8565b8780fd5b6040513d84823e3d90fd5b5080fd5b9493929161031b565b61046281949293946131ff565b8086036104ed57507f4f102339db793fadedcc584400bfef7991ef403530caec29b79130810fcdbfc39150838652600583526104cd856040882092830192016104c18360405187816104b48187613c6c565b6009815203019020613cee565b60405191828092613c6c565b039020926104e5604051928284938452830190613098565b0390a261036c565b806104f883926131ff565b14610506575b50505061036c565b838652600683526040862090600382019383855416938784019461054a60018060a01b0391828854168c526008855260408c209060ff801983541691151516179055565b86548216156106945789817f00000000000000000000000000000000000000000000000000000000000000001660405163d539139360e01b81528581600481855afa908115610689578391610653575b5083895416823b1561064f57604051632f2ff15d60e01b815260048101929092526001600160a01b031660248201529082908290604490829084905af1801561043d57610637575b50507f2f38cdd2f2aee3a6735853521685a7fccdf1c22e8809b449e91af2d6f4dbde23955b54169554169061062560405194859460408652604086019101613098565b911515908301520390a23880806104fe565b61064090613195565b61064b5789386105e2565b8980fd5b8380fd5b809350868092503d8311610682575b61066c81836131de565b8101031261067d578b91513861059a565b600080fd5b503d610662565b6040513d85823e3d90fd5b60405163d539139360e01b81529599989796957f000000000000000000000000000000000000000000000000000000000000000082168482600481845afa9182156107d0578b9261079d575b50828c541691813b156107995760405163d547741f60e01b815260048101919091526001600160a01b039290921660248301528a908290604490829084905af1801561078e57610757575b507f2f38cdd2f2aee3a6735853521685a7fccdf1c22e8809b449e91af2d6f4dbde239596979899610607565b986107857f2f38cdd2f2aee3a6735853521685a7fccdf1c22e8809b449e91af2d6f4dbde239798999a613195565b9897969561072b565b6040513d8c823e3d90fd5b8b80fd5b9091508481813d83116107c9575b6107b581836131de565b810103126107c5575190386106e0565b8a80fd5b503d6107ab565b6040513d8d823e3d90fd5b60405162461bcd60e51b815260048101889052601060248201526f105b1c9958591e48195e1958dd5d195960821b6044820152606490fd5b6064856040519062461bcd60e51b825280600483015260248201527f50726f706f73616c206e6f7420726561647920666f7220657865637574696f6e6044820152fd5b50600783015442118015610294575061086e87613e49565b610294565b60405162461bcd60e51b815260048101839052601960248201527f4e6f7420617574686f72697a656420746f2065786563757465000000000000006044820152606490fd5b6064906040519062461bcd60e51b82526004820152601f60248201527f5265656e7472616e637947756172643a207265656e7472616e742063616c6c006044820152fd5b50346102085760209081600319360112610208578060409160a083516109218161312e565b828152828682015260608582015282606082015260606080820152015260043581526006835220604051906109558261312e565b80548252610a1960018060a01b0380600184015416928585019384526109fe60405161098f816109888160028701613098565b03826131de565b6040870190815260ff600384015416936060880194151585526005604051946109c6866109bf8160048501613098565b03876131de565b60808a0195865201549660a08901978852604051998a99818b5251908a0152511660408801525160c0606088015260e0870190613242565b91511515608086015251848203601f190160a0860152613242565b905160c08301520390f35b503461020857604036600319011261020857610a3e6132cb565b60243590610a4a6133fa565b6001600160a01b0316808352600760205260408320805490839055600e54919291908103908111610ab05781610aa37f36ac285914fb5fd49dd16e36cab1e696eda836080e3a61ff587c8671cbbdcab993602093613793565b600e55604051908152a280f35b634e487b7160e01b84526011600452602484fd5b503461020857602036600319011261020857600435906001600160401b03821161020857610b40610988610b2c610b166020610b0336600489016132ad565b816040519382858094519384920161321f565b8101600981520301902060405192838092613098565b604051918291602083526020830190613242565b0390f35b50346102085780600319360112610208576040517f00000000000000000000000000000000000000000000000000000000000000006001600160a01b03168152602090f35b503461020857604036600319011261020857610bc6600435610ba96132e1565b9080845283602052610bc16001604086200154613615565b61371f565b80f35b503461020857806003193601126102085760206040517f7935bd0ae54bc31f548c14dba4d37c5c64b3f8ca900cb468fb8abd54d5894f558152f35b503461020857602036600319011261020857600435815260036020526040902080546001820154918260a01c60ff1660058201549160068101546007820154600983015460ff16600a84015491600b85015493600c86015495600d81015460ff16976040519081806002850190610c7a91613098565b03610c8590836131de565b60405180600381950190610c9891613098565b03610ca390846131de565b6040519c8d9c8d52600160a01b600190031660208d0152610cc3816131ff565b60408c01526101a08060608d01528b01610cdc91613242565b8a810360808c0152610ced91613242565b9760a08a015260c089015260e0880152610d06816131ff565b61010087015261012086015261014085015261016084015215156101808301520390f35b50346102085780600319360112610208576020610d45613e2b565b604051908152f35b5034610208576020366003190112610208576020906040906001600160a01b03610d756132cb565b168152600783522054604051908152f35b50346102085760403660031901126102085760ff6040602092610da76132e1565b6004358252600385528282206001600160a01b039091168252600f018452205460405191168152f35b50346102085780600319360112610208576020600c54604051908152f35b5034610208576020908160031936011261020857610b4060406080928151610e158161317a565b818152606094818688819401528285820152838382015201526004358152600585522060405192610e458461317a565b81548452604051610e5d816109888160018701613098565b858501908152610ed7604051610e7a816109888160028901613098565b60408701908152610ec3610e9b6004600388015497878b0198895201613dc6565b9360808901948552604051998a99818b5251908a01525160a060408a015260c0890190613242565b9051601f1994858984030190890152613242565b9251608086015251908483030160a085015261338e565b5034610208578060031936011261020857602090604051908152f35b50346102085760403660031901126102085760ff6040602092610f2b6132e1565b60043582528185528282206001600160a01b03909116825284522054604051911615158152f35b5034610208576020366003190112610208576020610f71600435613e91565b60405190610f7e816131ff565b8152f35b503461020857806003193601126102085760206040517fb09aa5aeb3702cfd50b6b62bc4532604938f21248a27a1d5ca736082b6819cc18152f35b5034610208576020366003190112610208576040906004358152600560205220805460405191610ffb83610ff48160018501613098565b03846131de565b61104960036040519261101c846110158160028501613098565b03856131de565b01549161103b6040519586958652608060208701526080860190613242565b908482036040860152613242565b9060608301520390f35b503461020857600319608036820112610448576004356001600160401b0381116115b3576110859036906004016132ad565b6024356001600160401b03811161064f576110a49036906004016132ad565b60443590606435936001600160401b03851161159c5760206110cd61119596369060040161330e565b91604051608083820152611126816111186111006110ee60a084018c613242565b838103601f1901604085015289613242565b896060840152601f198382030160808401528761338e565b03601f1981018352826131de565b60405162f8ed1360e11b81526001600482015260806024820152601760848201527f5175616c697479205374616e646172642055706461746500000000000000000060a482015260c06044820152978892839261118660c4850189613242565b91848303016064850152613242565b038189305af19485156115a8578695611570575b50604051926111b78461317a565b85845260208401948552604084019283526060840152608083015283855260056020526040852092825184555180516001600160401b03811161155c5780600186019261120e82611208865461305e565b86613902565b602090601f83116001146114f85789926114ed575b50508160011b916000199060031b1c19161790555b518051906001600160401b0382116114d9576112648261125b600287015461305e565b60028701613902565b602090601f831160011461146957608093929187918361145e575b50508160011b916000199060031b1c19161760028401555b60608101516003840155015190815191600160401b831161144a5760048201548360048401558084106113d6575b50602060049101910184526020842084915b8383106112e957602085604051908152f35b80518051906001600160401b0382116113c25761130a82611208865461305e565b602090601f83116001146113555792826001949360209386958c9261134a575b5050600019600383901b1c191690841b1785555b019201920191906112d7565b01519050388061132a565b908489526020892091895b601f19851681106113aa575083602093600196938796938794601f19811610611391575b505050811b01855561133e565b015160001960f88460031b161c19169055388080611384565b91926020600181928685015181550194019201611360565b634e487b7160e01b88526041600452602488fd5b60048301865260208620908482015b81830181106113f55750506112c5565b80886114036001935461305e565b80611411575b5050016113e5565b601f81118414611426575081555b8838611409565b828252611441601f60208420920160051c82018583016138eb565b8183555561141f565b634e487b7160e01b85526041600452602485fd5b01519050388061127f565b906002850187526020872091875b601f19851681106114c1575091839160019360809695601f198116106114a8575b505050811b016002840155611297565b015160001960f88460031b161c19169055388080611498565b91926020600181928685015181550194019201611477565b634e487b7160e01b86526041600452602486fd5b015190503880611223565b848a5260208a209250601f1984168a5b818110611544575090846001959493921061152b575b505050811b019055611238565b015160001960f88460031b161c1916905538808061151e565b92936020600181928786015181550195019301611508565b634e487b7160e01b87526041600452602487fd5b9094506020813d6020116115a0575b8161158c602093836131de565b8101031261159c575193386111a9565b8580fd5b3d915061157f565b6040513d88823e3d90fd5b8280fd5b5034610208576060366003190112610208576115d16133ea565b604435906001600160401b0382116115b3576115f4610bc69236906004016132ad565b5060043561396c565b50346102085780600319360112610208576020600e54604051908152f35b5034610208576040366003190112610208576004356001600160401b0381116104485761164c9036906004016132ad565b6024356116576133fa565b815160208301207f815c18249eb647fd097d84977774dd0942fe83be69bfa837f76a299d2783b40c81036116bf5750600080516020613f3583398151915291816116b392600a555b604051928392604084526040840190613242565b9060208301520390a180f35b7f76f733d2535ffde0b80d69adaccb5c2fb7ee34b4cd295def21acc7430f9cd82481036117045750600080516020613f3583398151915291816116b392600b5561169f565b7f7faea7f707af8d1aab4eb0de7480dbd8f79bab34bd0000e1a6b434e422e9931481036117495750600080516020613f3583398151915291816116b392600c5561169f565b7f40d092112d06f55a732f468565bdf752ab62c20fb54ae927045ac19d9d58641614611789575b600080516020613f35833981519152916116b39161169f565b6064811161179b57600d819055611770565b60405162461bcd60e51b815260206004820152601960248201527f496e76616c69642071756f72756d2070657263656e74616765000000000000006044820152606490fd5b503461020857604036600319011261020857610bc66117fd6133ea565b60043561396c565b50346102085780600319360112610208576020600d54604051908152f35b50346102085760403660031901126102085760ff60406020926118446132e1565b6004358252600385528282206001600160a01b039091168252600e0184522054604051911615158152f35b5034610208576020806003193601126104485760043590818352600381526040832060018060a01b0360018201541633148015611983575b1561193e5760090190815490600460ff83166118c2816131ff565b146118fa575060ff1916600517905533907f74c34a008ce735d9fcf0bd03a9b238d212ad4c441c020661f4ffbb6442645b858380a380f35b6064906040519062461bcd60e51b82526004820152601f60248201527f43616e6e6f742063616e63656c2065786563757465642070726f706f73616c006044820152fd5b60405162461bcd60e51b815260048101839052601860248201527f4e6f7420617574686f72697a656420746f2063616e63656c00000000000000006044820152606490fd5b507f7935bd0ae54bc31f548c14dba4d37c5c64b3f8ca900cb468fb8abd54d5894f55845283825260408420338552825260ff6040852054166118a7565b50346102085760203660031901126102085760409060043581526004602052208054604051916119f783610ff48160028501613098565b600660ff600583015416910154611a206040519485948552608060208601526080850190613242565b911515604084015260608301520390f35b50346102085780600319360112610208576020600a54604051908152f35b50346102085760203660031901126102085760209060ff906040906001600160a01b03611a7a6132cb565b168152600884522054166040519015158152f35b5034610208576020366003190112610208576040906004358152600660205220805460018060a01b0360018301541691611b2f60405191611ad683610ff48160028501613098565b60ff60038201541690611b1a600560405192611af9846110158160048501613098565b0154946040519788978852602088015260c0604088015260c0870190613242565b91151560608601528482036080860152613242565b9060a08301520390f35b5034610208576020908160031936011261020857604051611b598161315f565b8181528160c0606092838682015283604082015283808201528360808201528260a08201520152600435825260048352604082209260405193611b9b8561315f565b8054855260405193600195611bb6866109bf818a8701613c2f565b83810195865260405193611bd885611bd18160028801613098565b03866131de565b60408201948552611beb60038501613dc6565b868301908152600485019260405193848482549182815201918752848720908c885b828110611d11575050505084611c249103856131de565b60808101938452600660ff6005880154169660a08301971515885201549660c0820197885260405199848b526101008b019251858c0152519160e060408c01528251809152846101208c01930190875b8d828210611cff5750505050611cad9291611c9c9151601f199a8b8d840301908d0152613242565b9051888a83030160808b015261338e565b9151958783030160a08801528080875193848152019601925b828110611ce3578451151560c0890152855160e089015287870388f35b83516001600160a01b0316875295810195928101928801611cc6565b83518652948701949287019201611c74565b83546001600160a01b0316855293870193928101928101611c0d565b503461020857604036600319011261020857611d476132e1565b336001600160a01b03821603611d6357610bc69060043561371f565b60405162461bcd60e51b815260206004820152602f60248201527f416363657373436f6e74726f6c3a2063616e206f6e6c792072656e6f756e636560448201526e103937b632b9903337b91039b2b63360891b6064820152608490fd5b503461020857604036600319011261020857600435611ddd6132e1565b81835282602052611df46001604085200154613615565b818352602083815260408085206001600160a01b039093168086529290915283205460ff1615611e22578280f35b818352826020526040832081845260205260408320600160ff1982541617905533917f2f8788117e7eff1d82e926ec794901d17c78024a50270940304540a733656f0d8480a438808280f35b503461020857602036600319011261020857600160406020926004358152808452200154604051908152f35b50346102085760c036600319011261020857600435906001600160401b038211610208573660238301121561020857816004013591611ed8836132f7565b90611ee660405192836131de565b838252602082016024819560051b8301019136831161255f57602401905b828210612563575050506024356001600160401b0381116115b357611f2d9036906004016132ad565b6044356001600160401b03811161064f57611f4c90369060040161330e565b93606435946001600160401b03861161255f573660238701121561255f57856004013591611f79836132f7565b92611f8760405194856131de565b808452602084019081983660248360051b8301011161255b5760248101925b60248360051b8301018410612539575050505060843515156084350361159c576040519060e0820160c06020840152865180915261010083019190885b8181106125235750505061200661201891601f1984820301604085015286613242565b828103601f190160608401528361338e565b601f198282030160808301526020845191828152019790875b81811061250457505050806120676020926120c89899608435151560a083015260a43560c083015203601f1981018352826131de565b6040518097819262f8ed1360e11b83528a600484015260806024840152600e60848401526d141c9bd91d58dd08149958d85b1b60921b60a484015260c060448401526120b660c4840189613242565b83810360031901606485015290613242565b038189305af19485156115a85786956124d0575b50604051926120ea8461315f565b85845260208401948552604084015260608301526080820152608435151560a082015260a43560c08201528284526004602052604084209181518355518051906001600160401b0382116114d957600160401b82116114d9576020600185019161215984845481865585613949565b0190865260208620865b8381106124bc5750505050604081015180516001600160401b0381116114d95780600285019261219782611208865461305e565b602090601f831160011461245857889261244d575b50508160011b916000199060031b1c19161790555b6060810151805190600160401b82116114d95760038401548260038601558083106123d9575b506020016003840186526020862086915b8383106122ec5750505050600482016080820151908151916001600160401b03831161155c57600160401b831161155c5760209061223b84845481865585613949565b0190865260208620865b8381106122cf575050505060c08161227460a060069401511515600586019060ff801983541691151516179055565b015191015560843561228c575b602090604051908152f35b612298600a5442613793565b6201518081018091116122bb576007604084846020965260038652200155612281565b634e487b7160e01b83526011600452602483fd5b82516001600160a01b031681830155602090920191600101612245565b80518051906001600160401b0382116123c55761230d82611208865461305e565b6020908a601f84116001146123585792806020936001969387969261234d575b5050600019600383901b1c191690841b1785555b019201920191906121f8565b01519050388061232d565b85905260208b2091908b5b601f19851681106123ad575083602093600196938796938794601f19811610612394575b505050811b018555612341565b015160001960f88460031b161c19169055388080612387565b91926020600181928685015181550194019201612363565b634e487b7160e01b8a52604160045260248afd5b60038501875260208720908382015b81830181106123f85750506121e7565b80896124066001935461305e565b80612414575b5050016123e8565b601f81118414612429575081555b893861240c565b828252612444601f60208420920160051c82018583016138eb565b81835555612422565b0151905038806121ac565b848952602089209250601f198416895b8181106124a4575090846001959493921061248b575b505050811b0190556121c1565b015160001960f88460031b161c1916905538808061247e565b92936020600181928786015181550195019301612468565b600190602084519401938184015501612163565b9094506020813d6020116124fc575b816124ec602093836131de565b8101031261159c575193386120dc565b3d91506124df565b82516001600160a01b03168a526020998a019990920191600101612031565b8251845260209384019390920191600101611fe3565b83356001600160a01b038116900361064b578335815260209384019301611fa6565b8880fd5b8480fd5b8135815260209182019101611f04565b50346102085760031960a0368201126104485761258e6132cb565b6024356001600160401b03811161064f576125ad9036906004016132ad565b91604435928315159081850361159c57606435946001600160401b03861161292c5760206126ab6125e56111869836906004016132ad565b956126bb6040519160018060a01b03809a1695868685015260a060408501526126468461263061261860c083018c613242565b8c6060840152601f198382030160808401528d613242565b60843560a083015203601f1981018652856131de565b1561294357604051612657816131a8565b601e81527f417070726f766520537570706c6965722043657274696669636174696f6e000086820152925b60405162f8ed1360e11b815260026004820152608060248201529b8c9586956084870190613242565b838682030160448701528b613242565b03818a305af1958615612938578796612900575b50604051936126dd8561312e565b868552602085019182526040850192835260608501938452608085015260843560a08501528587526006602052604087209484518655600186019151166bffffffffffffffffffffffff60a01b825416179055518051906001600160401b03821161155c5761275c82612753600288015461305e565b60028801613902565b602090601f8311600114612892576127a8939291889183612887575b50508160011b916000199060031b1c19161760028501555b511515600384019060ff801983541691151516179055565b6004820160808201518051906001600160401b03821161155c57956020966127d483611208865461305e565b8791601f841160011461281f579260a0949281926005979592612814575b50508160011b916000199060031b1c19161790555b0151910155604051908152f35b0151905038806127f2565b9190601f198416858452898420935b81811061287057509260019285926005989660a0989610612857575b505050811b019055612807565b015160001960f88460031b161c1916905538808061284a565b92938a60018192878601518155019501930161282e565b015190503880612778565b600286018852602088209190601f198416895b8181106128e857509160019391856127a8979694106128cf575b505050811b016002850155612790565b015160001960f88460031b161c191690553880806128bf565b929360206001819287860151815501950193016128a5565b9095506020813d602011612930575b8161291c602093836131de565b8101031261292c575194386126cf565b8680fd5b3d915061290f565b6040513d89823e3d90fd5b60405161294f816131a8565b601d81527f5265766f6b6520537570706c6965722043657274696669636174696f6e0000008682015292612682565b503461020857806003193601126102085760206040517fd8aa0f3194971a2a116679f7c2090f6939c8d4e01a2a8d7e41d55e5351469e638152f35b50346102085780600319360112610208576020600b54604051908152f35b50346102085760203660031901126102085760043563ffffffff60e01b811680910361044857602090637965db0b60e01b8114908115612a1d575b506040519015158152f35b6301ffc9a760e01b14905082612a12565b503461020857608036600319011261020857600760043510156102085760249081356001600160401b03811161044857612a6c9036906004016132ad565b6044356001600160401b0381116115b357612a8b9036906004016132ad565b6064356001600160401b03811161064f573660238201121561064f57612aba9036908681600401359101613267565b907fb09aa5aeb3702cfd50b6b62bc4532604938f21248a27a1d5ca736082b6819cc18452836020526040842033855260205260ff60408520541615612ebb5733845260076020526040842054600c5411612e7757600254936001850160025584815260036020526040812091858355600183018054612b3a6004356131ff565b6001600160a81b0319163360ff60a01b19161760043560a01b60ff60a01b1617905584516001600160401b038111612def57612b7d8161125b600287015461305e565b806020601f8211600114612e0d578491612e02575b508160011b916000199060031b1c19161760028401555b8051906001600160401b038211612def578190612bd682612bcd600388015461305e565b60038801613902565b602090601f8311600114612d80578492612d75575b50508160011b916000199060031b1c19161760038301555b825160048301916001600160401b038211612d625760209750612c3082612c2a855461305e565b85613902565b8790601f8311600114612cfa579060099583612cef575b50508160011b916000199060031b1c19161790555b426005820155612c6e600a5442613793565b6006820155612c8b612c82600a5442613793565b600b5490613793565b60078201550160ff198154169055817f8356bc5007056a642094f44da4e8e22469db3e8a36b5811c0f91f735f1491c79604051612cc96004356131ff565b600435815260408682015280612ce433956040830190613242565b0390a3604051908152f35b015190503880612c47565b91929394601f198416858452898420935b818110612d4b575091600193918560099897969410612d32575b505050811b019055612c5c565b015160001960f88460031b161c19169055388080612d25565b92938a600181928786015181550195019301612d0b565b634e487b7160e01b815260416004528790fd5b015190503880612beb565b9250600385018452602084209084935b601f1984168510612dd4576001945083601f19811610612dbb575b505050811b016003830155612c03565b015160001960f88460031b161c19169055388080612dab565b81810151835560209485019460019093019290910190612d90565b634e487b7160e01b835260416004528783fd5b905086015138612b92565b91506002850184526020842084925b601f1983168410612e5f576001935082601f19811610612e46575b5050811b016002840155612ba9565b88015160001960f88460031b161c191690553880612e37565b88810151825560209384019360019092019101612e1c565b60405162461bcd60e51b8152602060048201526019818701527f496e73756666696369656e7420766f74696e6720706f776572000000000000006044820152606490fd5b60405162461bcd60e51b8152602060048201526019818701527f4e6f7420617574686f72697a656420746f2070726f706f7365000000000000006044820152606490fd5b503461020857602036600319011261020857600435815260036020526040902080546001820154916080612f368160028401613098565b03608090612f43916131de565b60405180612f548160038501613098565b03612f5f90826131de565b6040519182612f718160048401613098565b03612f7c90846131de565b600581015492600682015460078301546008840154600985015460ff1691600a86015493600b87015495600c88015497600d015460ff16986040519c8d9c8d528c600160a01b600190038216906020015260a01c60ff16612fdc816131ff565b60408d01526101e060608d01819052612ff8908d016080613242565b8c810360808e015261300991613242565b8b810360a08d015261301a91613242565b9860c08b015260e08a015261010089015261012088015261303a816131ff565b6101408701526101608601526101808501526101a084015215156101c08301520390f35b90600182811c9216801561308e575b602083101461307857565b634e487b7160e01b600052602260045260246000fd5b91607f169161306d565b90600092918054916130a98361305e565b91828252600193848116908160001461310b57506001146130cb575b50505050565b90919394506000526020928360002092846000945b8386106130f75750505050010190388080806130c5565b8054858701830152940193859082016130e0565b9294505050602093945060ff191683830152151560051b010190388080806130c5565b60c081019081106001600160401b0382111761314957604052565b634e487b7160e01b600052604160045260246000fd5b60e081019081106001600160401b0382111761314957604052565b60a081019081106001600160401b0382111761314957604052565b6001600160401b03811161314957604052565b604081019081106001600160401b0382111761314957604052565b608081019081106001600160401b0382111761314957604052565b90601f801991011681019081106001600160401b0382111761314957604052565b6007111561320957565b634e487b7160e01b600052602160045260246000fd5b60005b8381106132325750506000910152565b8181015183820152602001613222565b9060209161325b8151809281855285808601910161321f565b601f01601f1916010190565b9291926001600160401b0382116131495760405191613290601f8201601f1916602001846131de565b82948184528183011161067d578281602093846000960137010152565b9080601f8301121561067d578160206132c893359101613267565b90565b600435906001600160a01b038216820361067d57565b602435906001600160a01b038216820361067d57565b6001600160401b0381116131495760051b60200190565b9080601f8301121561067d57813590613326826132f7565b9261333460405194856131de565b828452602092838086019160051b8301019280841161067d57848301915b8483106133625750505050505090565b82356001600160401b03811161067d578691613383848480948901016132ad565b815201920191613352565b908082519081815260208091019281808460051b8301019501936000915b8483106133bc5750505050505090565b90919293949584806133da600193601f198682030187528a51613242565b98019301930191949392906133ac565b6024359060ff8216820361067d57565b3360009081527f6f3b488caa0dc03e5f3d9fd6a25fa8755afcfd62ccffb6e436c696bfa6b866de602090815260408083205490927f7935bd0ae54bc31f548c14dba4d37c5c64b3f8ca900cb468fb8abd54d5894f559160ff161561345e5750505050565b613467336137dd565b91845190613474826131c3565b6042825284820192606036853782511561360157603084538251906001918210156136015790607860218501536041915b8183116135935750505061355157604861354d93869361353193613522985198899376020b1b1b2b9b9a1b7b73a3937b61d1030b1b1b7bab73a1604d1b8a8601526134f9815180928c60378901910161321f565b8401917001034b99036b4b9b9b4b733903937b6329607d1b60378401525180938684019061321f565b010360288101875201856131de565b5192839262461bcd60e51b845260048401526024830190613242565b0390fd5b60648486519062461bcd60e51b825280600483015260248201527f537472696e67733a20686578206c656e67746820696e73756666696369656e746044820152fd5b909192600f811660108110156135ed576f181899199a1a9b1b9c1cb0b131b232b360811b901a6135c385876137b6565b5360041c9280156135d9576000190191906134a5565b634e487b7160e01b82526011600452602482fd5b634e487b7160e01b83526032600452602483fd5b634e487b7160e01b81526032600452602490fd5b600090808252602090828252604092838120338252835260ff84822054161561363e5750505050565b613647336137dd565b91845190613654826131c3565b6042825284820192606036853782511561360157603084538251906001918210156136015790607860218501536041915b8183116136d95750505061355157604861354d93869361353193613522985198899376020b1b1b2b9b9a1b7b73a3937b61d1030b1b1b7bab73a1604d1b8a8601526134f9815180928c60378901910161321f565b909192600f811660108110156135ed576f181899199a1a9b1b9c1cb0b131b232b360811b901a61370985876137b6565b5360041c9280156135d957600019019190613685565b9060009180835282602052604083209160018060a01b03169182845260205260ff60408420541661374f57505050565b80835282602052604083208284526020526040832060ff1981541690557ff6391f5c32d9c69d2a47ea670b442974b53935d1edc7fd64eb21e047a839171b339380a4565b919082018092116137a057565b634e487b7160e01b600052601160045260246000fd5b9081518110156137c7570160200190565b634e487b7160e01b600052603260045260246000fd5b60405190606082018281106001600160401b0382111761314957604052602a82526020820160403682378251156137c7576030905381516001908110156137c757607860218401536029905b80821161387d5750506138395790565b606460405162461bcd60e51b815260206004820152602060248201527f537472696e67733a20686578206c656e67746820696e73756666696369656e746044820152fd5b9091600f811660108110156138d6576f181899199a1a9b1b9c1cb0b131b232b360811b901a6138ac84866137b6565b5360041c9180156138c1576000190190613829565b60246000634e487b7160e01b81526011600452fd5b60246000634e487b7160e01b81526032600452fd5b8181106138f6575050565b600081556001016138eb565b9190601f811161391157505050565b61393d926000526020600020906020601f840160051c8301931061393f575b601f0160051c01906138eb565b565b9091508190613930565b9181811061395657505050565b61393d92600052602060002091820191016138eb565b9060ff169060028211613bf65760008181526020916003835260409384832091600983019560ff87541661399f816131ff565b60018114908115613bd0575b5015613b995760078401544211613b6057600e840133865280875260ff8287205416613b2c57338652600787528186205415613af657600a949392917fb83d25c6a5d258561330739951487acb4bd09ba5190b5d32c4f261817d9067929133885288528087209760ff199860018a825416179055600f86018152818820858a8254161790556007815281882054908515600014613aca57600b8701613a51838254613793565b90555b8a548a60ff8216613a64816131ff565b15613abd575b505082519586528501523393a3015490600e5490604b820291808304604b1490151715613aa957506064900410613a9f575050565b8154166002179055565b634e487b7160e01b81526011600452602490fd5b166001178b55388a613a6a565b60018603613ae757878701613ae0838254613793565b9055613a54565b600c8701613ae0838254613793565b815162461bcd60e51b815260048101889052600f60248201526e2737903b37ba34b733903837bbb2b960891b6044820152606490fd5b815162461bcd60e51b815260048101889052600d60248201526c105b1c9958591e481d9bdd1959609a1b6044820152606490fd5b5162461bcd60e51b8152600481018690526013602482015272159bdd1a5b99c81c195c9a5bd908195b991959606a1b6044820152606490fd5b5162461bcd60e51b8152600481018690526011602482015270566f74696e67206e6f742061637469766560781b6044820152606490fd5b9050613bdb816131ff565b1580613be8575b386139ab565b506006840154421015613be2565b60405162461bcd60e51b8152602060048201526011602482015270496e76616c696420766f7465207479706560781b6044820152606490fd5b90815480825260208092019260005281600020916000905b828210613c55575050505090565b835485529384019360019384019390910190613c47565b600092918154613c7b8161305e565b92600191808316908115613cd35750600114613c975750505050565b90919293945060005260209081600020906000915b858310613cc257505050500190388080806130c5565b805485840152918301918101613cac565b60ff19168452505050811515909102019150388080806130c5565b90808214613dc257613d00815461305e565b906001600160401b038211613149578190613d1f82611208865461305e565b600090601f8311600114613d5657600092613d4b575b50508160011b916000199060031b1c1916179055565b015490503880613d35565b81526020808220858352818320935090601f1985169083905b828210613da9575050908460019594939210613d90575b505050811b019055565b015460001960f88460031b161c19169055388080613d86565b8495819295850154815560018091019601940190613d6f565b5050565b908154613dd2816132f7565b92604093613de2855191826131de565b828152809460208092019260005281600020906000935b858510613e0857505050505050565b60018481928451613e1d81610988818a613098565b815201930194019391613df9565b600e54600d54908181029181830414901517156137a0576064900490565b60005260036020526040600020600a810154613e79600b83015492600c613e708585613793565b91015490613793565b613e81613e2b565b11613e8a571190565b5050600090565b60009080825260036020526040822060ff600982015416613eb1816131ff565b600481148015613f21575b613f1a57506006810154421115613f15576007015480421115613f0d576212750081018091116122bb574211613f0657613ef590613e49565b159050613f0157600290565b600390565b5050600690565b505050600190565b505090565b9250505090565b50613f2b816131ff565b60058114613ebc56fe48e381a1babc0380d5de4948672449b79a514434c0e351800509c47a84578f85a264697066735822122073e06b4ed104c8980f539dc29578266c0a809ba5c2ec2e0109b70039b742989b64736f6c634300081300332f8788117e7eff1d82e926ec794901d17c78024a50270940304540a733656f0d",
  "linkReferences": {},
  "deployedLinkReferences": {}
}