{
  "_format": "hh-sol-artifact-1",
  "contractName": "ProTrackOracle",
  "sourceName": "contracts/ProTrackOracle.sol",
  "abi": [
    {
      "inputs": [
        {
          "internalType": "address",
          "name": "_supplyChainContract",
          "type": "address"
        }
      ],
      "stateMutability": "nonpayable",
      "type": "constructor"
    },
    {
      "anonymous": false,
      "inputs": [
        {
          "indexed": true,
          "internalType": "uint256",
          "name": "tokenId",
          "type": "uint256"
        },
        {
          "indexed": false,
          "internalType": "string",
          "name": "alertType",
          "type": "string"
        },
        {
          "indexed": false,
          "internalType": "string",
          "name": "message",
          "type": "string"
        },
        {
          "indexed": false,
          "internalType": "uint256",
          "name": "timestamp",
          "type": "uint256"
        }
      ],
      "name": "AlertTriggered",
      "type": "event"
    },
    {
      "anonymous": false,
      "inputs": [
        {
          "indexed": true,
          "internalType": "uint256",
          "name": "tokenId",
          "type": "uint256"
        },
        {
          "indexed": false,
          "internalType": "string",
          "name": "latitude",
          "type": "string"
        },
        {
          "indexed": false,
          "internalType": "string",
          "name": "longitude",
          "type": "string"
        },
        {
          "indexed": false,
          "internalType": "uint256",
          "name": "timestamp",
          "type": "uint256"
        }
      ],
      "name": "GPSLocationUpdated",
      "type": "event"
    },
    {
      "anonymous": false,
      "inputs": [
        {
          "indexed": true,
          "internalType": "address",
          "name": "deviceAddress",
          "type": "address"
        },
        {
          "indexed": false,
          "internalType": "string",
          "name": "deviceId",
          "type": "string"
        },
        {
          "indexed": false,
          "internalType": "string",
          "name": "deviceType",
          "type": "string"
        }
      ],
      "name": "IoTDeviceRegistered",
      "type": "event"
    },
    {
      "anonymous": false,
      "inputs": [
        {
          "indexed": true,
          "internalType": "bytes32",
          "name": "role",
          "type": "bytes32"
        },
        {
          "indexed": true,
          "internalType": "bytes32",
          "name": "previousAdminRole",
          "type": "bytes32"
        },
        {
          "indexed": true,
          "internalType": "bytes32",
          "name": "newAdminRole",
          "type": "bytes32"
        }
      ],
      "name": "RoleAdminChanged",
      "type": "event"
    },
    {
      "anonymous": false,
      "inputs": [
        {
          "indexed": true,
          "internalType": "bytes32",
          "name": "role",
          "type": "bytes32"
        },
        {
          "indexed": true,
          "internalType": "address",
          "name": "account",
          "type": "address"
        },
        {
          "indexed": true,
          "internalType": "address",
          "name": "sender",
          "type": "address"
        }
      ],
      "name": "RoleGranted",
      "type": "event"
    },
    {
      "anonymous": false,
      "inputs": [
        {
          "indexed": true,
          "internalType": "bytes32",
          "name": "role",
          "type": "bytes32"
        },
        {
          "indexed": true,
          "internalType": "address",
          "name": "account",
          "type": "address"
        },
        {
          "indexed": true,
          "internalType": "address",
          "name": "sender",
          "type": "address"
        }
      ],
      "name": "RoleRevoked",
      "type": "event"
    },
    {
      "anonymous": false,
      "inputs": [
        {
          "indexed": true,
          "internalType": "string",
          "name": "deviceId",
          "type": "string"
        },
        {
          "indexed": true,
          "internalType": "uint256",
          "name": "tokenId",
          "type": "uint256"
        },
        {
          "indexed": false,
          "internalType": "string",
          "name": "sensorType",
          "type": "string"
        },
        {
          "indexed": false,
          "internalType": "int256",
          "name": "value",
          "type": "int256"
        }
      ],
      "name": "SensorDataReceived",
      "type": "event"
    },
    {
      "inputs": [],
      "name": "DEFAULT_ADMIN_ROLE",
      "outputs": [
        {
          "internalType": "bytes32",
          "name": "",
          "type": "bytes32"
        }
      ],
      "stateMutability": "view",
      "type": "function"
    },
    {
      "inputs": [],
      "name": "IOT_DEVICE_ROLE",
      "outputs": [
        {
          "internalType": "bytes32",
          "name": "",
          "type": "bytes32"
        }
      ],
      "stateMutability": "view",
      "type": "function"
    },
    {
      "inputs": [],
      "name": "ORACLE_OPERATOR_ROLE",
      "outputs": [
        {
          "internalType": "bytes32",
          "name": "",
          "type": "bytes32"
        }
      ],
      "stateMutability": "view",
      "type": "function"
    },
    {
      "inputs": [
        {
          "internalType": "string[]",
          "name": "deviceIds",
          "type": "string[]"
        },
        {
          "internalType": "uint256[]",
          "name": "tokenIds",
          "type": "uint256[]"
        },
        {
          "internalType": "string[]",
          "name": "sensorTypes",
          "type": "string[]"
        },
        {
          "internalType": "int256[]",
          "name": "values",
          "type": "int256[]"
        },
        {
          "internalType": "string[]",
          "name": "units",
          "type": "string[]"
        },
        {
          "internalType": "string[]",
          "name": "gpsCoordinates",
          "type": "string[]"
        },
        {
          "internalType": "bytes32[]",
          "name": "dataHashes",
          "type": "bytes32[]"
        }
      ],
      "name": "batchSubmitSensorData",
      "outputs": [],
      "stateMutability": "nonpayable",
      "type": "function"
    },
    {
      "inputs": [
        {
          "internalType": "address",
          "name": "deviceAddress",
          "type": "address"
        }
      ],
      "name": "deactivateDevice",
      "outputs": [],
      "stateMutability": "nonpayable",
      "type": "function"
    },
    {
      "inputs": [
        {
          "internalType": "string",
          "name": "",
          "type": "string"
        }
      ],
      "name": "deviceIdToAddress",
      "outputs": [
        {
          "internalType": "address",
          "name": "",
          "type": "address"
        }
      ],
      "stateMutability": "view",
      "type": "function"
    },
    {
      "inputs": [
        {
          "internalType": "uint256",
          "name": "tokenId",
          "type": "uint256"
        }
      ],
      "name": "getLatestGPSLocation",
      "outputs": [
        {
          "components": [
            {
              "internalType": "string",
              "name": "latitude",
              "type": "string"
            },
            {
              "internalType": "string",
              "name": "longitude",
              "type": "string"
            },
            {
              "internalType": "uint256",
              "name": "timestamp",
              "type": "uint256"
            },
            {
              "internalType": "string",
              "name": "address_location",
              "type": "string"
            },
            {
              "internalType": "uint256",
              "name": "accuracy",
              "type": "uint256"
            }
          ],
          "internalType": "struct ProTrackOracle.GPSLocation",
          "name": "",
          "type": "tuple"
        }
      ],
      "stateMutability": "view",
      "type": "function"
    },
    {
      "inputs": [
        {
          "internalType": "bytes32",
          "name": "role",
          "type": "bytes32"
        }
      ],
      "name": "getRoleAdmin",
      "outputs": [
        {
          "internalType": "bytes32",
          "name": "",
          "type": "bytes32"
        }
      ],
      "stateMutability": "view",
      "type": "function"
    },
    {
      "inputs": [
        {
          "internalType": "uint256",
          "name": "tokenId",
          "type": "uint256"
        }
      ],
      "name": "getTokenGPSHistory",
      "outputs": [
        {
          "components": [
            {
              "internalType": "string",
              "name": "latitude",
              "type": "string"
            },
            {
              "internalType": "string",
              "name": "longitude",
              "type": "string"
            },
            {
              "internalType": "uint256",
              "name": "timestamp",
              "type": "uint256"
            },
            {
              "internalType": "string",
              "name": "address_location",
              "type": "string"
            },
            {
              "internalType": "uint256",
              "name": "accuracy",
              "type": "uint256"
            }
          ],
          "internalType": "struct ProTrackOracle.GPSLocation[]",
          "name": "",
          "type": "tuple[]"
        }
      ],
      "stateMutability": "view",
      "type": "function"
    },
    {
      "inputs": [
        {
          "internalType": "uint256",
          "name": "tokenId",
          "type": "uint256"
        }
      ],
      "name": "getTokenSensorData",
      "outputs": [
        {
          "components": [
            {
              "internalType": "string",
              "name": "deviceId",
              "type": "string"
            },
            {
              "internalType": "uint256",
              "name": "tokenId",
              "type": "uint256"
            },
            {
              "internalType": "string",
              "name": "sensorType",
              "type": "string"
            },
            {
              "internalType": "int256",
              "name": "value",
              "type": "int256"
            },
            {
              "internalType": "string",
              "name": "unit",
              "type": "string"
            },
            {
              "internalType": "string",
              "name": "gpsCoordinates",
              "type": "string"
            },
            {
              "internalType": "uint256",
              "name": "timestamp",
              "type": "uint256"
            },
            {
              "internalType": "bytes32",
              "name": "dataHash",
              "type": "bytes32"
            },
            {
              "internalType": "bool",
              "name": "verified",
              "type": "bool"
            }
          ],
          "internalType": "struct ProTrackOracle.SensorReading[]",
          "name": "",
          "type": "tuple[]"
        }
      ],
      "stateMutability": "view",
      "type": "function"
    },
    {
      "inputs": [
        {
          "internalType": "bytes32",
          "name": "role",
          "type": "bytes32"
        },
        {
          "internalType": "address",
          "name": "account",
          "type": "address"
        }
      ],
      "name": "grantRole",
      "outputs": [],
      "stateMutability": "nonpayable",
      "type": "function"
    },
    {
      "inputs": [
        {
          "internalType": "bytes32",
          "name": "role",
          "type": "bytes32"
        },
        {
          "internalType": "address",
          "name": "account",
          "type": "address"
        }
      ],
      "name": "hasRole",
      "outputs": [
        {
          "internalType": "bool",
          "name": "",
          "type": "bool"
        }
      ],
      "stateMutability": "view",
      "type": "function"
    },
    {
      "inputs": [
        {
          "internalType": "address",
          "name": "",
          "type": "address"
        }
      ],
      "name": "iotDevices",
      "outputs": [
        {
          "internalType": "address",
          "name": "deviceAddress",
          "type": "address"
        },
        {
          "internalType": "string",
          "name": "deviceId",
          "type": "string"
        },
        {
          "internalType": "string",
          "name": "deviceType",
          "type": "string"
        },
        {
          "internalType": "bool",
          "name": "isActive",
          "type": "bool"
        },
        {
          "internalType": "uint256",
          "name": "lastUpdate",
          "type": "uint256"
        },
        {
          "internalType": "address",
          "name": "assignedProduct",
          "type": "address"
        }
      ],
      "stateMutability": "view",
      "type": "function"
    },
    {
      "inputs": [
        {
          "internalType": "bytes32",
          "name": "",
          "type": "bytes32"
        }
      ],
      "name": "processedDataHashes",
      "outputs": [
        {
          "internalType": "bool",
          "name": "",
          "type": "bool"
        }
      ],
      "stateMutability": "view",
      "type": "function"
    },
    {
      "inputs": [
        {
          "internalType": "address",
          "name": "deviceAddress",
          "type": "address"
        },
        {
          "internalType": "string",
          "name": "deviceId",
          "type": "string"
        },
        {
          "internalType": "string",
          "name": "deviceType",
          "type": "string"
        }
      ],
      "name": "registerIoTDevice",
      "outputs": [],
      "stateMutability": "nonpayable",
      "type": "function"
    },
    {
      "inputs": [
        {
          "internalType": "bytes32",
          "name": "role",
          "type": "bytes32"
        },
        {
          "internalType": "address",
          "name": "account",
          "type": "address"
        }
      ],
      "name": "renounceRole",
      "outputs": [],
      "stateMutability": "nonpayable",
      "type": "function"
    },
    {
      "inputs": [
        {
          "internalType": "bytes32",
          "name": "role",
          "type": "bytes32"
        },
        {
          "internalType": "address",
          "name": "account",
          "type": "address"
        }
      ],
      "name": "revokeRole",
      "outputs": [],
      "stateMutability": "nonpayable",
      "type": "function"
    },
    {
      "inputs": [
        {
          "internalType": "string",
          "name": "deviceId",
          "type": "string"
        },
        {
          "internalType": "uint256",
          "name": "tokenId",
          "type": "uint256"
        },
        {
          "internalType": "string",
          "name": "sensorType",
          "type": "string"
        },
        {
          "internalType": "int256",
          "name": "value",
          "type": "int256"
        },
        {
          "internalType": "string",
          "name": "unit",
          "type": "string"
        },
        {
          "internalType": "string",
          "name": "gpsCoordinates",
          "type": "string"
        },
        {
          "internalType": "bytes32",
          "name": "dataHash",
          "type": "bytes32"
        }
      ],
      "name": "submitSensorData",
      "outputs": [],
      "stateMutability": "nonpayable",
      "type": "function"
    },
    {
      "inputs": [],
      "name": "supplyChainContract",
      "outputs": [
        {
          "internalType": "contract ProTrackSupplyChain",
          "name": "",
          "type": "address"
        }
      ],
      "stateMutability": "view",
      "type": "function"
    },
    {
      "inputs": [
        {
          "internalType": "bytes4",
          "name": "interfaceId",
          "type": "bytes4"
        }
      ],
      "name": "supportsInterface",
      "outputs": [
        {
          "internalType": "bool",
          "name": "",
          "type": "bool"
        }
      ],
      "stateMutability": "view",
      "type": "function"
    },
    {
      "inputs": [
        {
          "internalType": "uint256",
          "name": "",
          "type": "uint256"
        },
        {
          "internalType": "uint256",
          "name": "",
          "type": "uint256"
        }
      ],
      "name": "tokenGPSHistory",
      "outputs": [
        {
          "internalType": "string",
          "name": "latitude",
          "type": "string"
        },
        {
          "internalType": "string",
          "name": "longitude",
          "type": "string"
        },
        {
          "internalType": "uint256",
          "name": "timestamp",
          "type": "uint256"
        },
        {
          "internalType": "string",
          "name": "address_location",
          "type": "string"
        },
        {
          "internalType": "uint256",
          "name": "accuracy",
          "type": "uint256"
        }
      ],
      "stateMutability": "view",
      "type": "function"
    },
    {
      "inputs": [
        {
          "internalType": "uint256",
          "name": "",
          "type": "uint256"
        },
        {
          "internalType": "uint256",
          "name": "",
          "type": "uint256"
        }
      ],
      "name": "tokenSensorData",
      "outputs": [
        {
          "internalType": "string",
          "name": "deviceId",
          "type": "string"
        },
        {
          "internalType": "uint256",
          "name": "tokenId",
          "type": "uint256"
        },
        {
          "internalType": "string",
          "name": "sensorType",
          "type": "string"
        },
        {
          "internalType": "int256",
          "name": "value",
          "type": "int256"
        },
        {
          "internalType": "string",
          "name": "unit",
          "type": "string"
        },
        {
          "internalType": "string",
          "name": "gpsCoordinates",
          "type": "string"
        },
        {
          "internalType": "uint256",
          "name": "timestamp",
          "type": "uint256"
        },
        {
          "internalType": "bytes32",
          "name": "dataHash",
          "type": "bytes32"
        },
        {
          "internalType": "bool",
          "name": "verified",
          "type": "bool"
        }
      ],
      "stateMutability": "view",
      "type": "function"
    },
    {
      "inputs": [
        {
          "internalType": "uint256",
          "name": "tokenId",
          "type": "uint256"
        },
        {
          "internalType": "string",
          "name": "alertType",
          "type": "string"
        },
        {
          "internalType": "string",
          "name": "message",
          "type": "string"
        }
      ],
      "name": "triggerManualAlert",
      "outputs": [],
      "stateMutability": "nonpayable",
      "type": "function"
    },
    {
      "inputs": [
        {
          "internalType": "uint256",
          "name": "tokenId",
          "type": "uint256"
        },
        {
          "internalType": "string",
          "name": "latitude",
          "type": "string"
        },
        {
          "internalType": "string",
          "name": "longitude",
          "type": "string"
        },
        {
          "internalType": "string",
          "name": "address_location",
          "type": "string"
        },
        {
          "internalType": "uint256",
          "name": "accuracy",
          "type": "uint256"
        }
      ],
      "name": "updateGPSLocation",
      "outputs": [],
      "stateMutability": "nonpayable",
      "type": "function"
    }
  ],
  "bytecode": "0x6080346200015157601f6200407938819003918201601f1916830192916001600160401b038411838510176200015657808392604095865283396020928391810103126200015157516001600160a01b03811690819003620001515760018055600280546001600160a01b031916919091179055600080805280825282812033825282528281205460ff161562000119575b7ff9b712ed3cd0e90cdc9d1abac8fb677bf018af115fb294c768a96b48bd6922c591828252818152838220338352815260ff848320541615620000de575b8351613eec90816200016d8239f35b8282528181528382209033835252828120600160ff19825416179055339160008051602062004059833981519152339280a4388080620000cf565b8080528082528281203382528252828120600160ff19825416179055333382600080516020620040598339815191528180a462000091565b600080fd5b634e487b7160e01b600052604160045260246000fdfe61012080604052600436101561001457600080fd5b600060e05260003560e01c90816301ffc9a71461321a5750806311d11a5b146131dd57806312405a3f1461308057806322b6d4c814612535578063248a9ca31461250657806324efddab146123e65780632f2ff15d1461232957806336568abe1461229757806346faa48a1461226457806367ac0082146121ba57806372198f4a14611c1957806391d1485414611bcb578063a217fddf14611bad578063a269cc7a14611b82578063aa8e663c14611ad7578063b1bd2bf514611a60578063b2525aa914611970578063c0915bc314610aef578063cf65952c14610a25578063d547741f146109df578063d62e6a1814610977578063dd33d114146107a5578063e554380b146101615763f1a93d4a1461012d57600080fd5b3461015b5760e05180600319360112610158576020604051600080516020613e778339815191528152f35b80fd5b60e05180fd5b3461015b57606036600319011261015b5761017a61341b565b6024356001600160401b03811161015b576101999036906004016133af565b6044356001600160401b03811161015b576101b89036906004016133af565b916101c1613815565b6001600160a01b03811615610767578151156107225760405182516101ea818360208701613272565b60049082019081528190036020019020546001600160a01b03166106dd5760405160c081018181106001600160401b038211176106c75760409081526001600160a01b0383811680845260208085018781528585018990526001606087015242608087015260e0805160a088015280519390935260039091529051928320845181546001600160a01b031916931692909217825551805191926001600160401b0383116106b0575081906102a16001850154613431565b601f8111610659575b5060e05190602091601f84116001146105e7575060e051926105dc575b50508160011b916000199060031b1c19161760018201555b60408201518051906001600160401b0382116105c4576103026002840154613431565b601f811161057a575b5060e05190602091601f84116001146104dd5750610470938361045797947fe02e556f80c83c5eeb1921171cca50bd6eba01a6d3c33f0e11b47c27616a6a5099979460059460e051926104d2575b50508160011b916000199060031b1c19161760028201555b61039060608401511515600383019060ff801983541691151516179055565b60808301516004820155019060a0600180821b03910151166bffffffffffffffffffffffff60a01b82541617905560405160208185516103d38183858a01613272565b60049082019081520301902080546001600160a01b0319166001600160a01b03831690811790915560009081527ff7032175e1d5bdcf6f03fc6d66642c1961a01e71e524ec2e6b0c43aa2958a4906020526040902054600080516020613e778339815191529060ff1615610479575b50604051938493604085526040850190613295565b83810360208501526001600160a01b0390911695613295565b0390a260e05180f35b6000818152602081815260408083206001600160a01b03861680855292528220805460ff19166001179055339290917f2f8788117e7eff1d82e926ec794901d17c78024a50270940304540a733656f0d9080a486610442565b015190508b80610359565b60028501905260e051602081209291905b601f19851681106105625750936001847fe02e556f80c83c5eeb1921171cca50bd6eba01a6d3c33f0e11b47c27616a6a50999794600594610470986104579b98601f19811610610549575b505050811b016002820155610371565b015160001960f88460031b161c191690558b8080610539565b919260206001819286850151815501940192016104ee565b6002840160e0515260e05160208120601f850160051c8101602086106105bd575b601f840160051c820181106105b25750505061030b565b82815560010161059b565b508061059b565b634e487b7160e01b60e051526041600452602460e051fd5b0151905087806102c7565b60018601905260e0516020812090945091905b601f198416851061063e576001945083601f19811610610625575b505050811b0160018201556102df565b015160001960f88460031b161c19169055878080610615565b818101518355602094850194600190930192909101906105fa565b9091506001840160e0515260e05160208120601f850160051c8101602086106106a9575b9085949392915b601f840160051c8201811061069b575050506102aa565b828155869550600101610684565b508061067d565b634e487b7160e01b9052604160045260e051602490fd5b634e487b7160e01b600052604160045260246000fd5b60405162461bcd60e51b815260206004820152601860248201527f44657669636520494420616c72656164792065786973747300000000000000006044820152606490fd5b60405162461bcd60e51b815260206004820152601960248201527f4465766963652049442063616e6e6f7420626520656d707479000000000000006044820152606490fd5b60405162461bcd60e51b8152602060048201526016602482015275496e76616c696420646576696365206164647265737360501b6044820152606490fd5b3461015b5760208060031936011261015b5760043560e05152600590818152604060e051208054916107d683613575565b926107e4604051948561338e565b808452818401809360e0515260e05183812090915b8383106108de5750505050604051928184019082855251809152604081818601961b850101929160e051955b8287106108325785850386f35b909192938280600192603f198982030185528751906108ad61089a61087d6108638551610120808752860190613295565b868601518786015260408601518582036040870152613295565b606080860151908501526080808601519085830390860152613295565b60a0808501519084830390850152613295565b9160c0808201519083015260e081015160e08301526101008091015115159101529601920196019592919092610825565b6009856001926040999799516108f381613329565b6108fc8661346b565b815284860154838201526109126002870161346b565b60408201526003860154606082015261092d6004870161346b565b608082015261093d8c870161346b565b60a0820152600686015460c0820152600786015460e082015260ff60088701541615156101008201528152019201920191909593956107f9565b3461015b57602036600319011261015b576004356001600160401b03811161015b576109a960209136906004016133af565b816109bd6040519283815193849201613272565b600490820190815281900382019020546040516001600160a01b039091168152f35b3461015b57604036600319011261015b57610a1f6004356109fe613405565b908060e05152610a1a6001604060e0518060205220015461395a565b613a64565b60e05180f35b3461015b5760208060031936011261015b57610a3f61341b565b610a47613815565b60018060a01b0316908160e051526003815260e051916003604084200160ff1990818154169055600080516020613e77833981519152928360005260008152604060002083600052815260ff60406000205416610aa2578480f35b83600052600081526040600020908360005252604060002090815416905533917ff6391f5c32d9c69d2a47ea670b442974b53935d1edc7fd64eb21e047a839171b600080a4818080808480f35b3461015b5760e036600319011261015b576004356001600160401b03811161015b57610b1f90369060040161358c565b6024356001600160401b03811161015b573660238201121561015b578060040135610b58610b4c82613575565b6040518060a05261338e565b8060a051526024602060a051019160051b8301019136831161015b57602401905b82821061196057836044356001600160401b03811161015b57610ba090369060040161358c565b60c0526064356001600160401b03811161015b573660238201121561015b578060040135610bdc610bd082613575565b6040518060805261338e565b806080515260246020608051019160051b8301019136831161015b57602401905b82821061195057836084356001600160401b03811161015b57610c2490369060040161358c565b6101005260a4356001600160401b03811161015b57610c4790369060040161358c565b6001600160401b0360c4351161015b5736602360c43501121561015b5760c4356004013590610c7582613575565b91610c83604051938461338e565b808352602083013660248360051b60c43501011161015b57602460c43501905b60248360051b60c4350101821061194057505050610cbf61360c565b610cc7613c7d565b610cd6835160a0515114613d01565b610ce760a0515160c0515114613d01565b610cf860c051516080515114613d01565b60e0515b835181101561193657610d0f8184613d45565b5160e05152600760205260ff604060e05120541615610d52575b6000198114610d3a57600101610cfc565b634e487b7160e01b60e051526011600452602460e051fd5b610d5c8185613d45565b51610d698260a051613d45565b5190610d778360c051613d45565b51610d8484608051613d45565b5191610d938561010051613d45565b5190610d9f8688613d45565b5191610dab878a613d45565b5190610db561360c565b610dbd613c7d565b6040518351610dd0818360208801613272565b60049082019081528190036020019020546001600160a01b031633036118fb578160e05152600760205260ff604060e0512054166118bd573360e051526003602052610e2760ff6003604060e05120015416613bf7565b604051610ea86080828651610e43816020840160208b01613272565b81018b60208201528951610e5f818c6020604086019101613272565b8b60408284010152865191610e7d8360608484010160208b01613272565b0101885190610e93826060830160208d01613272565b0142606082015203606081018452018261338e565b6020815191012082036118785760405190610ec282613329565b83825287602083015285604083015286606083015260808201528360a08201524260c08201528160e082015260016101008201528660e05152600560205260e05160408120805491600160401b8310156106b0575090610f2791600182018155613559565b9190916118615780518051906001600160401b0382116105c457610f4b8454613431565b601f8111611810575b50819060e0519085602092601f85116001146117a657505060e0519261179b575b50508160011b916000199060031b1c19161782555b6020810151600183015560408101518051906001600160401b0382116105c457610fb76002850154613431565b601f8111611747575b5060e05182916020916001601f8511146116d5575060e051926116ca575b50508160011b916000199060031b1c19161760028301555b6060810151600383015560808101518051906001600160401b0382116105c4576110236004850154613431565b601f8111611676575b5060e05182916020916001601f851114611604575060e051926115f9575b50508160011b916000199060031b1c19161760048301555b60a08101518051906001600160401b0382116105c4576110856005850154613431565b601f81116115a5575b5060e05190602091601f841160011461152b57509282600893610100936110fc979660e05192611520575b50508160011b916000199060031b1c19161760058501555b60c0810151600685015560e081015160078501550151151591019060ff801983541691151516179055565b60e05152600760205260e05160408120600160ff198254161790553390526003602052426004604060e05120015561113383613d59565b6002546001600160a01b031692833b1561015b5761116c93604051808096819463309e0f8760e01b83528a60e051978d60048601613c37565b039160e051905af19182156115135785926114f8575b5061119b90602060405192828480945193849201613272565b81010390207ff5eec5ba70060200859db9dfd0362258f3342b2eeee4320db8a08d2a7dc33d2a60405160408152806111d66040820187613295565b8760208301520390a3604051611209602082816111fc8183019687815193849201613272565b810103808452018261338e565b51902060405160208101906a74656d706572617475726560a81b8252600b815261123281613358565b5190208114611463575b60405160208101906768756d696469747960c01b82526008815261125f81613358565b51902081146113d1575b6040516020810190683b34b13930ba34b7b760b91b82526009815261128d81613358565b5190208114611350575b6040516020810190653a30b6b832b960d11b8252600681526112b881613358565b519020146112cc575b505060018055610d29565b60e051126112db575b806112c1565b600080516020613e9783398151915260e060405160608152600c60608201526b15105354115497d05311549560a21b608082015260a06020820152601a60a08201527f50726f647563742074616d706572696e6720646574656374656400000000000060c0820152426040820152a2846112d5565b60648213156112975782600080516020613e9783398151915260e060405160608152600f60608201526e1592509490551253d397d053115495608a1b608082015260a06020820152601c60a08201527f45786365737369766520766962726174696f6e2064657465637465640000000060c0820152426040820152a2611297565b60e05182128015611459575b156112695782600080516020613e9783398151915260e060405160608152600e60608201526d121553525112551657d05311549560921b608082015260a06020820152601a60a08201527f48756d6964697479206f7574206f6620736166652072616e676500000000000060c0820152426040820152a2611269565b50605f82136113dd565b601319821280156114ee575b1561123c5782600080516020613e9783398151915260e0604051606081526011606082015270151153541154905515549157d053115495607a1b608082015260a06020820152601d60a08201527f54656d7065726174757265206f7574206f6620736166652072616e676500000060c0820152426040820152a261123c565b506028821361146f565b611503919250613345565b60e0518061015857908491611182565b6040513d60e051823e3d90fd5b0151905038806110b9565b60058601905260e051602081209291905b601f198516811061158d575083610100936110fc979693600193600897601f19811610611574575b505050811b0160058501556110d1565b015160001960f88460031b161c19169055388080611564565b9192602060018192868501518155019401920161153c565b60059b9e9d9c9b850160e0515260e05160208120601f850160051c8101602086106115f2575b601f840160051c820181106115e7575050509d9a9b9c9d61108e565b8281556001016115cb565b50806115cb565b015190508e8061104a565b60048701905260e0516020812090945091905b601f198416851061165b576001945083601f19811610611642575b505050811b016004830155611062565b015160001960f88460031b161c191690558e8080611632565b81810151835560209485019460019093019290910190611617565b60049b9e9d9c9b850160e0515260e05160208120601f850160051c8101602086106116c3575b601f840160051c820181106116b8575050509d9a9b9c9d61102c565b82815560010161169c565b508061169c565b015190508e80610fde565b60028701905260e0516020812090945091905b601f198416851061172c576001945083601f19811610611713575b505050811b016002830155610ff6565b015160001960f88460031b161c191690558e8080611703565b818101518355602094850194600190930192909101906116e8565b60029b9e9d9c9b850160e0515260e05160208120601f850160051c810160208610611794575b601f840160051c82018110611789575050509d9a9b9c9d610fc0565b82815560010161176d565b508061176d565b015190508e80610f75565b5260e0516020812090945091905b601f19841685106117f5576001945083601f198116106117dc575b505050811b018255610f8a565b015160001960f88460031b161c191690558e80806117cf565b818101518355602094850194600190930192909101906117b4565b849b9e9d9c9b60e0515260e05160208120601f850160051c81016020861061185a575b601f840160051c8201811061184f575050509d9a9b9c9d610f54565b828155600101611833565b5080611833565b634e487b7160e01b60e05152602460e05180600452fd5b60405162461bcd60e51b815260206004820152601b60248201527f4461746120696e7465677269747920636865636b206661696c656400000000006044820152606490fd5b60405162461bcd60e51b815260206004820152601660248201527511185d1848185b1c9958591e481c1c9bd8d95cdcd95960521b6044820152606490fd5b60405162461bcd60e51b8152602060048201526013602482015272556e617574686f72697a65642064657669636560681b6044820152606490fd5b6001805560e05180f35b8135815260209182019101610ca3565b8135815260209182019101610bfd565b8135815260209182019101610b79565b3461015b5761197e36613511565b9060e05152600560205260e0516040812090815483101561015857611a156119a68484613559565b506119b08161346b565b906001810154906119c36002820161346b565b90611a496003820154611a3b6119db6004850161346b565b916119e86005860161346b565b92611a2860068701549860ff600860078a015499015416986040519c8d9c8d610120908181520190613295565b9160208d01528b820360408d0152613295565b9160608a015288820360808a0152613295565b9086820360a0880152613295565b9260c085015260e084015215156101008301520390f35b3461015b57606036600319011261015b576001600160401b0360243581811161015b57611a919036906004016133af565b9060443590811161015b57610470611abc600080516020613e978339815191529236906004016133af565b92611ac5613815565b60405191829160043595429184613cd3565b3461015b57611ae536613511565b9060e05152600660205260e0516040812090815483101561015857611b57611b0d8484613527565b50611b178161346b565b90611b78611b276001830161346b565b91600281015490611b656004611b3f6003840161346b565b9201549460405197889760a0895260a0890190613295565b908782036020890152613295565b9160408601528482036060860152613295565b9060808301520390f35b3461015b5760e05180600319360112610158576002546040516001600160a01b039091168152602090f35b3461015b5760e0518060031936011261015857602090604051908152f35b3461015b57604036600319011261015b57611be4613405565b60043560e05152604060e05180602052209060018060a01b0316600052602052602060ff604060002054166040519015158152f35b3461015b5760a036600319011261015b576024356001600160401b03811161015b57611c499036906004016133af565b6044356001600160401b03811161015b57611c689036906004016133af565b906064356001600160401b03811161015b57611c889036906004016133af565b611c9061360c565b3360e051526003602052611caf60ff6003604060e05120015416613bf7565b60405190611cbc8261330e565b8282528360208301524260408301526060820152608435608082015260043560e05152600660205260e05160408120805491600160401b8310156106b0575090611d0b91600182018155613527565b9190916118615780518051906001600160401b0382116105c4578190611d318554613431565b601f8111612166575b5060e0519085602092601f851160011461210157505060e051926120f6575b50508160011b916000199060031b1c19161782555b60208101518051906001600160401b0382116105c4578190611d936001860154613431565b601f811161209f575b5060e05190602091601f8411600114612032575060e05192612027575b50508160011b916000199060031b1c19161760018301555b6040810151600283015560608101518051906001600160401b0382116105c457611dfe6003850154613431565b601f8111611fdd575b5060e05190602091601f8411600114611f68575091806004949260809460e05192611f5d575b50508160011b916000199060031b1c19161760038501555b01519101553360e051526003602052426004604060e051200155604051611ea96021828451611e7b816020840160208901613272565b8101600b60fa1b6020820152865190611e9a8285830160208b01613272565b0103600181018452018261338e565b6002546001600160a01b031690813b1561015b57604051809263309e0f8760e01b82526004356004830152600360248301526084356044830152608060648301528180611efd60e051956084830190613295565b039160e051905af1801561151357611f48575b506104707f52c29be2f6e742fa27adad514413484e0d58e15e3223a4903dbb4d9023ffdb949160405191829160043595429184613cd3565b611f5190613345565b60e0518015611f105780fd5b015190508880611e2d565b60038601905260e051602081209291905b601f1985168110611fc55750926004949260019260809583601f19811610611fac575b505050811b016003850155611e45565b015160001960f88460031b161c19169055888080611f9c565b91926020600181928685015181550194019201611f79565b6003850160e0515260e05160208120601f850160051c810160208610612020575b601f840160051c8201811061201557505050611e07565b828155600101611ffe565b5080611ffe565b015190508680611db9565b60018701905260e051602081209350601f198516905b818110612087575090846001959493921061206e575b505050811b016001830155611dd1565b015160001960f88460031b161c1916905586808061205e565b92936020600181928786015181550195019301612048565b9091506001850160e0515260e05160208120601f850160051c8101602086106120ef575b9085949392915b601f840160051c820181106120e157505050611d9c565b8281558695506001016120ca565b50806120c3565b015190508680611d59565b5260e051602081209350601f198516905b81811061214e5750908460019594939210612135575b505050811b018255611d6e565b015160001960f88460031b161c19169055868080612128565b92936020600181928786015181550195019301612112565b9091508460e0515260e05160208120601f850160051c8101602086106121b3575b9085949392915b601f840160051c820181106121a557505050611d3a565b82815586955060010161218e565b5080612187565b3461015b57602036600319011261015b576001600160a01b03806121dc61341b565b1660e051526003602052604060e051209080825416906121fe6001840161346b565b9261220b6002820161346b565b9061224e60ff60038301541693600560048401549301541692612240604051978897885260c0602089015260c0880190613295565b908682036040880152613295565b9215156060850152608084015260a08301520390f35b3461015b57602036600319011261015b5760043560e051526007602052602060ff604060e0512054166040519015158152f35b3461015b57604036600319011261015b576122b0613405565b336001600160a01b038216036122cc57610a1f90600435613a64565b60405162461bcd60e51b815260206004820152602f60248201527f416363657373436f6e74726f6c3a2063616e206f6e6c792072656e6f756e636560448201526e103937b632b9903337b91039b2b63360891b6064820152608490fd5b3461015b57604036600319011261015b57600435612345613405565b8160e051526123606001604060e0518060205220015461395a565b81600052600060205260406000209060018060a01b0316908160005260205260ff60406000205416156123935760e05180f35b8160005260006020526040600020816000526020526040600020600160ff1982541617905533917f2f8788117e7eff1d82e926ec794901d17c78024a50270940304540a733656f0d600080a48080610a1f565b3461015b5760208060031936011261015b5760043560e0515260068152604060e051209081549161241683613575565b92612424604051948561338e565b808452828401809260e0515260e05184812090915b8383106124a15750505050604051918083019381845251809452604083019360408160051b850101929160e051955b8287106124755785850386f35b909192938280612491600193603f198a820301865288516132ba565b9601920196019592919092612468565b6005866001926040999899516124b68161330e565b6124bf8661346b565b81526124cc85870161346b565b83820152600286015460408201526124e66003870161346b565b606082015260048601546080820152815201920192019190959495612439565b3461015b57602036600319011261015b5760043560e0515260206001604060e051808452200154604051908152f35b3461015b5760e036600319011261015b576004356001600160401b03811161015b576125659036906004016133af565b6044356001600160401b03811161015b576125849036906004016133af565b906084356001600160401b03811161015b576125a49036906004016133af565b9060a4356001600160401b03811161015b576125c49036906004016133af565b916125cd61360c565b6125d5613c7d565b60405182516125e8818360208701613272565b60049082019081528190036020019020546001600160a01b031633036118fb5760c43560e05152600760205260ff604060e0512054166118bd573360e05152600360205261264160ff6003604060e05120015416613bf7565b6040516126c7608082855161265d816020840160208a01613272565b81016024356020820152885161267a816040840160208d01613272565b6064356040828401015286519161269a8360608484010160208b01613272565b01018751906126b0826060830160208c01613272565b01426060820152606082820301825203018261338e565b6020815191012060c4350361187857604051906126e382613329565b8282526024356020830152846040830152606435606083015260808201528260a08201524260c082015260c43560e0820152600161010082015260243560e05152600560205260e05160408120805491600160401b8310156106b057509061275091600182018155613559565b9190916118615780518051906001600160401b0382116105c45781906127768554613431565b601f811161302c575b5060e0519085602092601f8511600114612fc257505060e05192612fb7575b50508160011b916000199060031b1c19161782555b6020810151600183015560408101518051906001600160401b0382116105c45781906127e26002860154613431565b601f8111612f60575b5060e05190602091601f8411600114612eee575060e05192612ee3575b50508160011b916000199060031b1c19161760028301555b6060810151600383015560808101518051906001600160401b0382116105c457819061284f6004860154613431565b601f8111612e8c575b5060e05190602091601f8411600114612e1a575060e05192612e0f575b50508160011b916000199060031b1c19161760048301555b60a08101518051906001600160401b0382116105c4576128b06005850154613431565b601f8111612dc5575b5060e05190602091601f8411600114612d4c5750928260089361010093612925979660e05192612d415750508160011b916000199060031b1c191617600585015560c0810151600685015560e081015160078501550151151591019060ff801983541691151516179055565b60c43560e05152600760205260e05160408120600160ff198254161790553390526003602052426004604060e05120015561295f83613d59565b6002546001600160a01b031692833b1561015b5761299d93604051808096819463309e0f8760e01b835260e051966064359060243560048601613c37565b039160e051905af1918215611513576129ca92612d32575b50602060405192828480945193849201613272565b810103902060405190604082527ff5eec5ba70060200859db9dfd0362258f3342b2eeee4320db8a08d2a7dc33d2a612a056040840185613295565b92606435602082015280602435940390a3604051612a33602082816111fc8183019687815193849201613272565b51902060405160208101906a74656d706572617475726560a81b8252600b8152612a5c81613358565b5190208114612c96575b60405160208101906768756d696469747960c01b825260088152612a8981613358565b5190208114612bfd575b6040516020810190683b34b13930ba34b7b760b91b825260098152612ab781613358565b5190208114612b78575b6040516020810190653a30b6b832b960d11b825260068152612ae281613358565b51902014612af4576001805560e05180f35b60e05160643513156119365760405160608152600c60608201526b15105354115497d05311549560a21b608082015260a06020820152601a60a08201527f50726f647563742074616d706572696e6720646574656374656400000000000060c0820152426040820152600080516020613e9783398151915260e060243592a2611936565b606480351315612ac15760405160608152600f60608201526e1592509490551253d397d053115495608a1b608082015260a06020820152601c60a08201527f45786365737369766520766962726174696f6e2064657465637465640000000060c0820152426040820152600080516020613e9783398151915260e060243592a2612ac1565b60e051606435128015612c8a575b15612a935760405160608152600e60608201526d121553525112551657d05311549560921b608082015260a06020820152601a60a08201527f48756d6964697479206f7574206f6620736166652072616e676500000000000060c0820152426040820152600080516020613e9783398151915260e060243592a2612a93565b50605f60643513612c0b565b601319606435128015612d26575b15612a6657604051606081526011606082015270151153541154905515549157d053115495607a1b608082015260a06020820152601d60a08201527f54656d7065726174757265206f7574206f6620736166652072616e676500000060c0820152426040820152600080516020613e9783398151915260e060243592a2612a66565b50602860643513612ca4565b612d3b90613345565b836129b5565b015190508a806110b9565b60058601905260e051602081209291905b601f1985168110612dad57508361010093612925979693600193600897601f19811610612d9457505050811b0160058501556110d1565b015160001960f88460031b161c191690558a8080611564565b91926020600181928685015181550194019201612d5d565b6005850160e0515260e05160208120601f850160051c810160208610612e08575b601f840160051c82018110612dfd575050506128b9565b828155600101612de6565b5080612de6565b015190508780612875565b60048701905260e0516020812090945091905b601f1984168510612e71576001945083601f19811610612e58575b505050811b01600483015561288d565b015160001960f88460031b161c19169055878080612e48565b81810151835560209485019460019093019290910190612e2d565b9091506004850160e0515260e05160208120601f850160051c810160208610612edc575b9085949392915b601f840160051c82018110612ece57505050612858565b828155869550600101612eb7565b5080612eb0565b015190508780612808565b60028701905260e0516020812090945091905b601f1984168510612f45576001945083601f19811610612f2c575b505050811b016002830155612820565b015160001960f88460031b161c19169055878080612f1c565b81810151835560209485019460019093019290910190612f01565b9091506002850160e0515260e05160208120601f850160051c810160208610612fb0575b9085949392915b601f840160051c82018110612fa2575050506127eb565b828155869550600101612f8b565b5080612f84565b01519050878061279e565b5260e0516020812090945091905b601f1984168510613011576001945083601f19811610612ff8575b505050811b0182556127b3565b015160001960f88460031b161c19169055878080612feb565b81810151835560209485019460019093019290910190612fd0565b9091508460e0515260e05160208120601f850160051c810160208610613079575b9085949392915b601f840160051c8201811061306b5750505061277f565b828155869550600101613054565b508061304d565b3461015b5760208060031936011261015b5760405161309e8161330e565b606090818152818382015260e0516040820152818082015260e05160808092015260043560e0515260068352604060e051208054916130dc83613575565b936130ea604051958661338e565b8385528585019260e0515260e051918680842093945b86861061317e5750868051156131415780516000198101908111610d3a5761312791613d45565b519061313d6040519282849384528301906132ba565b0390f35b60405162461bcd60e51b81526004810183905260156024820152744e6f20475053206461746120617661696c61626c6560581b6044820152606490fd5b6001916005916040516131908161330e565b6131998861346b565b81526131a685890161346b565b83820152600288015460408201526131c06003890161346b565b878201526004880154868201528152019401940193928790613100565b3461015b5760e051806003193601126101585760206040517ff9b712ed3cd0e90cdc9d1abac8fb677bf018af115fb294c768a96b48bd6922c58152f35b3461326d57602036600319011261326d576004359063ffffffff60e01b821680920361326d57602091637965db0b60e01b811490811561325c575b5015158152f35b6301ffc9a760e01b14905083613255565b600080fd5b60005b8381106132855750506000910152565b8181015183820152602001613275565b906020916132ae81518092818552858086019101613272565b601f01601f1916010190565b906080806133056132e96132d7865160a0875260a0870190613295565b60208701518682036020880152613295565b6040860151604086015260608601518582036060870152613295565b93015191015290565b60a081019081106001600160401b038211176106c757604052565b61012081019081106001600160401b038211176106c757604052565b6001600160401b0381116106c757604052565b604081019081106001600160401b038211176106c757604052565b608081019081106001600160401b038211176106c757604052565b90601f801991011681019081106001600160401b038211176106c757604052565b81601f8201121561326d578035906001600160401b0382116106c757604051926133e3601f8401601f19166020018561338e565b8284526020838301011161326d57816000926020809301838601378301015290565b602435906001600160a01b038216820361326d57565b600435906001600160a01b038216820361326d57565b90600182811c92168015613461575b602083101461344b57565b634e487b7160e01b600052602260045260246000fd5b91607f1691613440565b906040519182600082549261347f84613431565b9081845260019485811690816000146134ee57506001146134ab575b50506134a99250038361338e565b565b9093915060005260209081600020936000915b8183106134d65750506134a99350820101388061349b565b855488840185015294850194879450918301916134be565b9150506134a994506020925060ff191682840152151560051b820101388061349b565b604090600319011261326d576004359060243590565b8054821015613543576000526005602060002091020190600090565b634e487b7160e01b600052603260045260246000fd5b8054821015613543576000526009602060002091020190600090565b6001600160401b0381116106c75760051b60200190565b9080601f8301121561326d578135906135a482613575565b926135b2604051948561338e565b828452602092838086019160051b8301019280841161326d57848301915b8483106135e05750505050505090565b82356001600160401b03811161326d578691613601848480948901016133af565b8152019201916135d0565b3360009081527ff7032175e1d5bdcf6f03fc6d66642c1961a01e71e524ec2e6b0c43aa2958a49060209081526040808320549092600080516020613e778339815191529160ff161561365e5750505050565b61366733613ae9565b9184519061367482613373565b6042825284820192606036853782511561380157603084538251906001918210156138015790607860218501536041915b8183116137935750505061375157604861374d93869361373193613722985198899376020b1b1b2b9b9a1b7b73a3937b61d1030b1b1b7bab73a1604d1b8a8601526136f9815180928c603789019101613272565b8401917001034b99036b4b9b9b4b733903937b6329607d1b603784015251809386840190613272565b0103602881018752018561338e565b5192839262461bcd60e51b845260048401526024830190613295565b0390fd5b60648486519062461bcd60e51b825280600483015260248201527f537472696e67733a20686578206c656e67746820696e73756666696369656e746044820152fd5b909192600f811660108110156137ed576f181899199a1a9b1b9c1cb0b131b232b360811b901a6137c38587613ad8565b5360041c9280156137d9576000190191906136a5565b634e487b7160e01b82526011600452602482fd5b634e487b7160e01b83526032600452602483fd5b634e487b7160e01b81526032600452602490fd5b3360009081527f3b9d37337deb4997847cf5492088ced2ca506425960b62ede7e87d5aa6391a97602090815260408083205490927ff9b712ed3cd0e90cdc9d1abac8fb677bf018af115fb294c768a96b48bd6922c59160ff16156138795750505050565b61388233613ae9565b9184519061388f82613373565b6042825284820192606036853782511561380157603084538251906001918210156138015790607860218501536041915b8183116139145750505061375157604861374d93869361373193613722985198899376020b1b1b2b9b9a1b7b73a3937b61d1030b1b1b7bab73a1604d1b8a8601526136f9815180928c603789019101613272565b909192600f811660108110156137ed576f181899199a1a9b1b9c1cb0b131b232b360811b901a6139448587613ad8565b5360041c9280156137d9576000190191906138c0565b600090808252602090828252604092838120338252835260ff8482205416156139835750505050565b61398c33613ae9565b9184519061399982613373565b6042825284820192606036853782511561380157603084538251906001918210156138015790607860218501536041915b818311613a1e5750505061375157604861374d93869361373193613722985198899376020b1b1b2b9b9a1b7b73a3937b61d1030b1b1b7bab73a1604d1b8a8601526136f9815180928c603789019101613272565b909192600f811660108110156137ed576f181899199a1a9b1b9c1cb0b131b232b360811b901a613a4e8587613ad8565b5360041c9280156137d9576000190191906139ca565b9060009180835282602052604083209160018060a01b03169182845260205260ff604084205416613a9457505050565b80835282602052604083208284526020526040832060ff1981541690557ff6391f5c32d9c69d2a47ea670b442974b53935d1edc7fd64eb21e047a839171b339380a4565b908151811015613543570160200190565b60405190606082018281106001600160401b038211176106c757604052602a82526020820160403682378251156135435760309053815160019081101561354357607860218401536029905b808211613b89575050613b455790565b606460405162461bcd60e51b815260206004820152602060248201527f537472696e67733a20686578206c656e67746820696e73756666696369656e746044820152fd5b9091600f81166010811015613be2576f181899199a1a9b1b9c1cb0b131b232b360811b901a613bb88486613ad8565b5360041c918015613bcd576000190190613b35565b60246000634e487b7160e01b81526011600452fd5b60246000634e487b7160e01b81526032600452fd5b15613bfe57565b60405162461bcd60e51b8152602060048201526011602482015270446576696365206e6f742061637469766560781b6044820152606490fd5b9093929381526005821015613c6757613c6493608092602083015260408201528160608201520190613295565b90565b634e487b7160e01b600052602160045260246000fd5b600260015414613c8e576002600155565b60405162461bcd60e51b815260206004820152601f60248201527f5265656e7472616e637947756172643a207265656e7472616e742063616c6c006044820152606490fd5b939291613cfc90613cee604093606088526060880190613295565b908682036020880152613295565b930152565b15613d0857565b60405162461bcd60e51b8152602060048201526015602482015274082e4e4c2f240d8cadccee8d040dad2e6dac2e8c6d605b1b6044820152606490fd5b80518210156135435760209160051b010190565b604090815190602091613d7b8382816111fc8183019687815193849201613272565b519020918051828101906a74656d706572617475726560a81b8252600b8152613da381613358565b5190208303613db457505050600090565b8051828101906768756d696469747960c01b825260088152613dd581613358565b5190208303613de657505050600190565b805182810190683b34b13930ba34b7b760b91b825260098152613e0881613358565b5190208303613e1957505050600290565b8051828101906267707360e81b825260038152613e3581613358565b5190208303613e4657505050600390565b5190810190653a30b6b832b960d11b825260068152613e6481613358565b51902003613e7157600490565b60009056fe3fd1570350ad82b8536c3ba26e9b65482f86a92bc0631d77bd1bb4bc203574736af8a40f8a661f2ea1898dc041375ba059bc15f9120cb2c9cae247243d14e534a264697066735822122006749d849171832ddc00f1380915cef14bd402a9bdb33679f74b406974a22a9264736f6c634300081300332f8788117e7eff1d82e926ec794901d17c78024a50270940304540a733656f0d",
  "linkReferences": {},
  "deployedLinkReferences": {}
}