{
  "_format": "hh-sol-artifact-1",
  "contractName": "ProTrackSupplyChain",
  "sourceName": "contracts/ProTrackSupplyChain.sol",
  "abi": [
    {
      "inputs": [],
      "stateMutability": "nonpayable",
      "type": "constructor"
    },
    {
      "anonymous": false,
      "inputs": [
        {
          "indexed": true,
          "internalType": "address",
          "name": "owner",
          "type": "address"
        },
        {
          "indexed": true,
          "internalType": "address",
          "name": "approved",
          "type": "address"
        },
        {
          "indexed": true,
          "internalType": "uint256",
          "name": "tokenId",
          "type": "uint256"
        }
      ],
      "name": "Approval",
      "type": "event"
    },
    {
      "anonymous": false,
      "inputs": [
        {
          "indexed": true,
          "internalType": "address",
          "name": "owner",
          "type": "address"
        },
        {
          "indexed": true,
          "internalType": "address",
          "name": "operator",
          "type": "address"
        },
        {
          "indexed": false,
          "internalType": "bool",
          "name": "approved",
          "type": "bool"
        }
      ],
      "name": "ApprovalForAll",
      "type": "event"
    },
    {
      "anonymous": false,
      "inputs": [
        {
          "indexed": false,
          "internalType": "uint256",
          "name": "_fromTokenId",
          "type": "uint256"
        },
        {
          "indexed": false,
          "internalType": "uint256",
          "name": "_toTokenId",
          "type": "uint256"
        }
      ],
      "name": "BatchMetadataUpdate",
      "type": "event"
    },
    {
      "anonymous": false,
      "inputs": [
        {
          "indexed": true,
          "internalType": "uint256",
          "name": "tokenId",
          "type": "uint256"
        },
        {
          "indexed": true,
          "internalType": "address",
          "name": "sender",
          "type": "address"
        },
        {
          "indexed": true,
          "internalType": "address",
          "name": "receiver",
          "type": "address"
        }
      ],
      "name": "EncryptionKeysGenerated",
      "type": "event"
    },
    {
      "anonymous": false,
      "inputs": [
        {
          "indexed": true,
          "internalType": "uint256",
          "name": "tokenId",
          "type": "uint256"
        },
        {
          "indexed": false,
          "internalType": "enum ProTrackSupplyChain.SensorType",
          "name": "sensorType",
          "type": "uint8"
        },
        {
          "indexed": false,
          "internalType": "int256",
          "name": "value",
          "type": "int256"
        },
        {
          "indexed": false,
          "internalType": "string",
          "name": "gpsCoordinates",
          "type": "string"
        }
      ],
      "name": "IoTDataAdded",
      "type": "event"
    },
    {
      "anonymous": false,
      "inputs": [
        {
          "indexed": false,
          "internalType": "uint256",
          "name": "_tokenId",
          "type": "uint256"
        }
      ],
      "name": "MetadataUpdate",
      "type": "event"
    },
    {
      "anonymous": false,
      "inputs": [
        {
          "indexed": true,
          "internalType": "uint256",
          "name": "tokenId",
          "type": "uint256"
        },
        {
          "indexed": false,
          "internalType": "string",
          "name": "rfidHash",
          "type": "string"
        },
        {
          "indexed": true,
          "internalType": "address",
          "name": "manufacturer",
          "type": "address"
        },
        {
          "indexed": false,
          "internalType": "string",
          "name": "batchNumber",
          "type": "string"
        }
      ],
      "name": "ProductMinted",
      "type": "event"
    },
    {
      "anonymous": false,
      "inputs": [
        {
          "indexed": true,
          "internalType": "uint256",
          "name": "tokenId",
          "type": "uint256"
        },
        {
          "indexed": true,
          "internalType": "address",
          "name": "initiator",
          "type": "address"
        },
        {
          "indexed": false,
          "internalType": "string",
          "name": "reason",
          "type": "string"
        }
      ],
      "name": "ProductRecalled",
      "type": "event"
    },
    {
      "anonymous": false,
      "inputs": [
        {
          "indexed": true,
          "internalType": "uint256",
          "name": "tokenId",
          "type": "uint256"
        },
        {
          "indexed": true,
          "internalType": "address",
          "name": "from",
          "type": "address"
        },
        {
          "indexed": true,
          "internalType": "address",
          "name": "to",
          "type": "address"
        },
        {
          "indexed": false,
          "internalType": "enum ProTrackSupplyChain.ProductStatus",
          "name": "newStatus",
          "type": "uint8"
        }
      ],
      "name": "ProductTransferred",
      "type": "event"
    },
    {
      "anonymous": false,
      "inputs": [
        {
          "indexed": true,
          "internalType": "bytes32",
          "name": "role",
          "type": "bytes32"
        },
        {
          "indexed": true,
          "internalType": "bytes32",
          "name": "previousAdminRole",
          "type": "bytes32"
        },
        {
          "indexed": true,
          "internalType": "bytes32",
          "name": "newAdminRole",
          "type": "bytes32"
        }
      ],
      "name": "RoleAdminChanged",
      "type": "event"
    },
    {
      "anonymous": false,
      "inputs": [
        {
          "indexed": true,
          "internalType": "bytes32",
          "name": "role",
          "type": "bytes32"
        },
        {
          "indexed": true,
          "internalType": "address",
          "name": "account",
          "type": "address"
        },
        {
          "indexed": true,
          "internalType": "address",
          "name": "sender",
          "type": "address"
        }
      ],
      "name": "RoleGranted",
      "type": "event"
    },
    {
      "anonymous": false,
      "inputs": [
        {
          "indexed": true,
          "internalType": "bytes32",
          "name": "role",
          "type": "bytes32"
        },
        {
          "indexed": true,
          "internalType": "address",
          "name": "account",
          "type": "address"
        },
        {
          "indexed": true,
          "internalType": "address",
          "name": "sender",
          "type": "address"
        }
      ],
      "name": "RoleRevoked",
      "type": "event"
    },
    {
      "anonymous": false,
      "inputs": [
        {
          "indexed": true,
          "internalType": "address",
          "name": "from",
          "type": "address"
        },
        {
          "indexed": true,
          "internalType": "address",
          "name": "to",
          "type": "address"
        },
        {
          "indexed": true,
          "internalType": "uint256",
          "name": "tokenId",
          "type": "uint256"
        }
      ],
      "name": "Transfer",
      "type": "event"
    },
    {
      "inputs": [],
      "name": "DEFAULT_ADMIN_ROLE",
      "outputs": [
        {
          "internalType": "bytes32",
          "name": "",
          "type": "bytes32"
        }
      ],
      "stateMutability": "view",
      "type": "function"
    },
    {
      "inputs": [],
      "name": "INSPECTOR_ROLE",
      "outputs": [
        {
          "internalType": "bytes32",
          "name": "",
          "type": "bytes32"
        }
      ],
      "stateMutability": "view",
      "type": "function"
    },
    {
      "inputs": [],
      "name": "MANUFACTURER_ROLE",
      "outputs": [
        {
          "internalType": "bytes32",
          "name": "",
          "type": "bytes32"
        }
      ],
      "stateMutability": "view",
      "type": "function"
    },
    {
      "inputs": [],
      "name": "ORACLE_ROLE",
      "outputs": [
        {
          "internalType": "bytes32",
          "name": "",
          "type": "bytes32"
        }
      ],
      "stateMutability": "view",
      "type": "function"
    },
    {
      "inputs": [],
      "name": "PACKAGER_ROLE",
      "outputs": [
        {
          "internalType": "bytes32",
          "name": "",
          "type": "bytes32"
        }
      ],
      "stateMutability": "view",
      "type": "function"
    },
    {
      "inputs": [],
      "name": "RETAILER_ROLE",
      "outputs": [
        {
          "internalType": "bytes32",
          "name": "",
          "type": "bytes32"
        }
      ],
      "stateMutability": "view",
      "type": "function"
    },
    {
      "inputs": [],
      "name": "TRANSPORTER_ROLE",
      "outputs": [
        {
          "internalType": "bytes32",
          "name": "",
          "type": "bytes32"
        }
      ],
      "stateMutability": "view",
      "type": "function"
    },
    {
      "inputs": [],
      "name": "WHOLESALER_ROLE",
      "outputs": [
        {
          "internalType": "bytes32",
          "name": "",
          "type": "bytes32"
        }
      ],
      "stateMutability": "view",
      "type": "function"
    },
    {
      "inputs": [
        {
          "internalType": "uint256",
          "name": "tokenId",
          "type": "uint256"
        },
        {
          "internalType": "enum ProTrackSupplyChain.SensorType",
          "name": "sensorType",
          "type": "uint8"
        },
        {
          "internalType": "int256",
          "name": "value",
          "type": "int256"
        },
        {
          "internalType": "string",
          "name": "gpsCoordinates",
          "type": "string"
        }
      ],
      "name": "addIoTData",
      "outputs": [],
      "stateMutability": "nonpayable",
      "type": "function"
    },
    {
      "inputs": [
        {
          "internalType": "address",
          "name": "to",
          "type": "address"
        },
        {
          "internalType": "uint256",
          "name": "tokenId",
          "type": "uint256"
        }
      ],
      "name": "approve",
      "outputs": [],
      "stateMutability": "nonpayable",
      "type": "function"
    },
    {
      "inputs": [
        {
          "internalType": "uint256",
          "name": "",
          "type": "uint256"
        },
        {
          "internalType": "address",
          "name": "",
          "type": "address"
        }
      ],
      "name": "authorizedAccess",
      "outputs": [
        {
          "internalType": "bool",
          "name": "",
          "type": "bool"
        }
      ],
      "stateMutability": "view",
      "type": "function"
    },
    {
      "inputs": [
        {
          "internalType": "address",
          "name": "owner",
          "type": "address"
        }
      ],
      "name": "balanceOf",
      "outputs": [
        {
          "internalType": "uint256",
          "name": "",
          "type": "uint256"
        }
      ],
      "stateMutability": "view",
      "type": "function"
    },
    {
      "inputs": [
        {
          "internalType": "uint256",
          "name": "tokenId",
          "type": "uint256"
        }
      ],
      "name": "getApproved",
      "outputs": [
        {
          "internalType": "address",
          "name": "",
          "type": "address"
        }
      ],
      "stateMutability": "view",
      "type": "function"
    },
    {
      "inputs": [
        {
          "internalType": "string",
          "name": "rfidHash",
          "type": "string"
        }
      ],
      "name": "getProductByRFID",
      "outputs": [
        {
          "components": [
            {
              "internalType": "uint256",
              "name": "tokenId",
              "type": "uint256"
            },
            {
              "internalType": "string",
              "name": "rfidHash",
              "type": "string"
            },
            {
              "internalType": "string",
              "name": "productName",
              "type": "string"
            },
            {
              "internalType": "string",
              "name": "batchNumber",
              "type": "string"
            },
            {
              "internalType": "uint256",
              "name": "manufacturingDate",
              "type": "uint256"
            },
            {
              "internalType": "uint256",
              "name": "expiryDate",
              "type": "uint256"
            },
            {
              "internalType": "enum ProTrackSupplyChain.ProductStatus",
              "name": "status",
              "type": "uint8"
            },
            {
              "internalType": "address",
              "name": "currentOwner",
              "type": "address"
            },
            {
              "internalType": "string",
              "name": "ipfsMetadataHash",
              "type": "string"
            },
            {
              "internalType": "bool",
              "name": "isRecalled",
              "type": "bool"
            },
            {
              "internalType": "uint256",
              "name": "lastUpdated",
              "type": "uint256"
            }
          ],
          "internalType": "struct ProTrackSupplyChain.Product",
          "name": "",
          "type": "tuple"
        }
      ],
      "stateMutability": "view",
      "type": "function"
    },
    {
      "inputs": [
        {
          "internalType": "uint256",
          "name": "tokenId",
          "type": "uint256"
        }
      ],
      "name": "getProductEvents",
      "outputs": [
        {
          "components": [
            {
              "internalType": "uint256",
              "name": "tokenId",
              "type": "uint256"
            },
            {
              "internalType": "address",
              "name": "from",
              "type": "address"
            },
            {
              "internalType": "address",
              "name": "to",
              "type": "address"
            },
            {
              "internalType": "enum ProTrackSupplyChain.ProductStatus",
              "name": "newStatus",
              "type": "uint8"
            },
            {
              "internalType": "uint256",
              "name": "timestamp",
              "type": "uint256"
            },
            {
              "internalType": "string",
              "name": "location",
              "type": "string"
            },
            {
              "internalType": "string",
              "name": "notes",
              "type": "string"
            },
            {
              "internalType": "bytes32",
              "name": "eventHash",
              "type": "bytes32"
            }
          ],
          "internalType": "struct ProTrackSupplyChain.SupplyChainEvent[]",
          "name": "",
          "type": "tuple[]"
        }
      ],
      "stateMutability": "view",
      "type": "function"
    },
    {
      "inputs": [
        {
          "internalType": "uint256",
          "name": "tokenId",
          "type": "uint256"
        }
      ],
      "name": "getProductIoTData",
      "outputs": [
        {
          "components": [
            {
              "internalType": "enum ProTrackSupplyChain.SensorType",
              "name": "sensorType",
              "type": "uint8"
            },
            {
              "internalType": "int256",
              "name": "value",
              "type": "int256"
            },
            {
              "internalType": "uint256",
              "name": "timestamp",
              "type": "uint256"
            },
            {
              "internalType": "string",
              "name": "gpsCoordinates",
              "type": "string"
            },
            {
              "internalType": "address",
              "name": "oracle",
              "type": "address"
            },
            {
              "internalType": "bool",
              "name": "verified",
              "type": "bool"
            }
          ],
          "internalType": "struct ProTrackSupplyChain.IoTData[]",
          "name": "",
          "type": "tuple[]"
        }
      ],
      "stateMutability": "view",
      "type": "function"
    },
    {
      "inputs": [
        {
          "internalType": "bytes32",
          "name": "role",
          "type": "bytes32"
        }
      ],
      "name": "getRoleAdmin",
      "outputs": [
        {
          "internalType": "bytes32",
          "name": "",
          "type": "bytes32"
        }
      ],
      "stateMutability": "view",
      "type": "function"
    },
    {
      "inputs": [
        {
          "internalType": "address",
          "name": "account",
          "type": "address"
        }
      ],
      "name": "grantInspectorRole",
      "outputs": [],
      "stateMutability": "nonpayable",
      "type": "function"
    },
    {
      "inputs": [
        {
          "internalType": "address",
          "name": "account",
          "type": "address"
        }
      ],
      "name": "grantManufacturerRole",
      "outputs": [],
      "stateMutability": "nonpayable",
      "type": "function"
    },
    {
      "inputs": [
        {
          "internalType": "address",
          "name": "account",
          "type": "address"
        }
      ],
      "name": "grantOracleRole",
      "outputs": [],
      "stateMutability": "nonpayable",
      "type": "function"
    },
    {
      "inputs": [
        {
          "internalType": "address",
          "name": "account",
          "type": "address"
        }
      ],
      "name": "grantPackagerRole",
      "outputs": [],
      "stateMutability": "nonpayable",
      "type": "function"
    },
    {
      "inputs": [
        {
          "internalType": "address",
          "name": "account",
          "type": "address"
        }
      ],
      "name": "grantRetailerRole",
      "outputs": [],
      "stateMutability": "nonpayable",
      "type": "function"
    },
    {
      "inputs": [
        {
          "internalType": "bytes32",
          "name": "role",
          "type": "bytes32"
        },
        {
          "internalType": "address",
          "name": "account",
          "type": "address"
        }
      ],
      "name": "grantRole",
      "outputs": [],
      "stateMutability": "nonpayable",
      "type": "function"
    },
    {
      "inputs": [
        {
          "internalType": "address",
          "name": "account",
          "type": "address"
        }
      ],
      "name": "grantTransporterRole",
      "outputs": [],
      "stateMutability": "nonpayable",
      "type": "function"
    },
    {
      "inputs": [
        {
          "internalType": "address",
          "name": "account",
          "type": "address"
        }
      ],
      "name": "grantWholesalerRole",
      "outputs": [],
      "stateMutability": "nonpayable",
      "type": "function"
    },
    {
      "inputs": [
        {
          "internalType": "uint256",
          "name": "tokenId",
          "type": "uint256"
        },
        {
          "internalType": "address",
          "name": "user",
          "type": "address"
        }
      ],
      "name": "hasProductAccess",
      "outputs": [
        {
          "internalType": "bool",
          "name": "",
          "type": "bool"
        }
      ],
      "stateMutability": "view",
      "type": "function"
    },
    {
      "inputs": [
        {
          "internalType": "bytes32",
          "name": "role",
          "type": "bytes32"
        },
        {
          "internalType": "address",
          "name": "account",
          "type": "address"
        }
      ],
      "name": "hasRole",
      "outputs": [
        {
          "internalType": "bool",
          "name": "",
          "type": "bool"
        }
      ],
      "stateMutability": "view",
      "type": "function"
    },
    {
      "inputs": [
        {
          "internalType": "address",
          "name": "owner",
          "type": "address"
        },
        {
          "internalType": "address",
          "name": "operator",
          "type": "address"
        }
      ],
      "name": "isApprovedForAll",
      "outputs": [
        {
          "internalType": "bool",
          "name": "",
          "type": "bool"
        }
      ],
      "stateMutability": "view",
      "type": "function"
    },
    {
      "inputs": [
        {
          "internalType": "string",
          "name": "rfidHash",
          "type": "string"
        },
        {
          "internalType": "string",
          "name": "productName",
          "type": "string"
        },
        {
          "internalType": "string",
          "name": "batchNumber",
          "type": "string"
        },
        {
          "internalType": "uint256",
          "name": "expiryDate",
          "type": "uint256"
        },
        {
          "internalType": "string",
          "name": "ipfsMetadataHash",
          "type": "string"
        },
        {
          "internalType": "address",
          "name": "manufacturer",
          "type": "address"
        }
      ],
      "name": "mintProduct",
      "outputs": [
        {
          "internalType": "uint256",
          "name": "",
          "type": "uint256"
        }
      ],
      "stateMutability": "nonpayable",
      "type": "function"
    },
    {
      "inputs": [],
      "name": "name",
      "outputs": [
        {
          "internalType": "string",
          "name": "",
          "type": "string"
        }
      ],
      "stateMutability": "view",
      "type": "function"
    },
    {
      "inputs": [
        {
          "internalType": "uint256",
          "name": "tokenId",
          "type": "uint256"
        }
      ],
      "name": "ownerOf",
      "outputs": [
        {
          "internalType": "address",
          "name": "",
          "type": "address"
        }
      ],
      "stateMutability": "view",
      "type": "function"
    },
    {
      "inputs": [
        {
          "internalType": "address",
          "name": "",
          "type": "address"
        },
        {
          "internalType": "uint256",
          "name": "",
          "type": "uint256"
        }
      ],
      "name": "ownerProducts",
      "outputs": [
        {
          "internalType": "uint256",
          "name": "",
          "type": "uint256"
        }
      ],
      "stateMutability": "view",
      "type": "function"
    },
    {
      "inputs": [
        {
          "internalType": "uint256",
          "name": "",
          "type": "uint256"
        },
        {
          "internalType": "uint256",
          "name": "",
          "type": "uint256"
        }
      ],
      "name": "productEvents",
      "outputs": [
        {
          "internalType": "uint256",
          "name": "tokenId",
          "type": "uint256"
        },
        {
          "internalType": "address",
          "name": "from",
          "type": "address"
        },
        {
          "internalType": "address",
          "name": "to",
          "type": "address"
        },
        {
          "internalType": "enum ProTrackSupplyChain.ProductStatus",
          "name": "newStatus",
          "type": "uint8"
        },
        {
          "internalType": "uint256",
          "name": "timestamp",
          "type": "uint256"
        },
        {
          "internalType": "string",
          "name": "location",
          "type": "string"
        },
        {
          "internalType": "string",
          "name": "notes",
          "type": "string"
        },
        {
          "internalType": "bytes32",
          "name": "eventHash",
          "type": "bytes32"
        }
      ],
      "stateMutability": "view",
      "type": "function"
    },
    {
      "inputs": [
        {
          "internalType": "uint256",
          "name": "",
          "type": "uint256"
        },
        {
          "internalType": "uint256",
          "name": "",
          "type": "uint256"
        }
      ],
      "name": "productIoTData",
      "outputs": [
        {
          "internalType": "enum ProTrackSupplyChain.SensorType",
          "name": "sensorType",
          "type": "uint8"
        },
        {
          "internalType": "int256",
          "name": "value",
          "type": "int256"
        },
        {
          "internalType": "uint256",
          "name": "timestamp",
          "type": "uint256"
        },
        {
          "internalType": "string",
          "name": "gpsCoordinates",
          "type": "string"
        },
        {
          "internalType": "address",
          "name": "oracle",
          "type": "address"
        },
        {
          "internalType": "bool",
          "name": "verified",
          "type": "bool"
        }
      ],
      "stateMutability": "view",
      "type": "function"
    },
    {
      "inputs": [
        {
          "internalType": "uint256",
          "name": "",
          "type": "uint256"
        }
      ],
      "name": "productKeys",
      "outputs": [
        {
          "internalType": "bytes32",
          "name": "senderKey",
          "type": "bytes32"
        },
        {
          "internalType": "bytes32",
          "name": "receiverKey",
          "type": "bytes32"
        },
        {
          "internalType": "uint256",
          "name": "keyExpiry",
          "type": "uint256"
        },
        {
          "internalType": "bool",
          "name": "isActive",
          "type": "bool"
        }
      ],
      "stateMutability": "view",
      "type": "function"
    },
    {
      "inputs": [
        {
          "internalType": "uint256",
          "name": "",
          "type": "uint256"
        }
      ],
      "name": "products",
      "outputs": [
        {
          "internalType": "uint256",
          "name": "tokenId",
          "type": "uint256"
        },
        {
          "internalType": "string",
          "name": "rfidHash",
          "type": "string"
        },
        {
          "internalType": "string",
          "name": "productName",
          "type": "string"
        },
        {
          "internalType": "string",
          "name": "batchNumber",
          "type": "string"
        },
        {
          "internalType": "uint256",
          "name": "manufacturingDate",
          "type": "uint256"
        },
        {
          "internalType": "uint256",
          "name": "expiryDate",
          "type": "uint256"
        },
        {
          "internalType": "enum ProTrackSupplyChain.ProductStatus",
          "name": "status",
          "type": "uint8"
        },
        {
          "internalType": "address",
          "name": "currentOwner",
          "type": "address"
        },
        {
          "internalType": "string",
          "name": "ipfsMetadataHash",
          "type": "string"
        },
        {
          "internalType": "bool",
          "name": "isRecalled",
          "type": "bool"
        },
        {
          "internalType": "uint256",
          "name": "lastUpdated",
          "type": "uint256"
        }
      ],
      "stateMutability": "view",
      "type": "function"
    },
    {
      "inputs": [
        {
          "internalType": "uint256",
          "name": "tokenId",
          "type": "uint256"
        },
        {
          "internalType": "string",
          "name": "reason",
          "type": "string"
        }
      ],
      "name": "recallProduct",
      "outputs": [],
      "stateMutability": "nonpayable",
      "type": "function"
    },
    {
      "inputs": [
        {
          "internalType": "bytes32",
          "name": "role",
          "type": "bytes32"
        },
        {
          "internalType": "address",
          "name": "account",
          "type": "address"
        }
      ],
      "name": "renounceRole",
      "outputs": [],
      "stateMutability": "nonpayable",
      "type": "function"
    },
    {
      "inputs": [
        {
          "internalType": "bytes32",
          "name": "role",
          "type": "bytes32"
        },
        {
          "internalType": "address",
          "name": "account",
          "type": "address"
        }
      ],
      "name": "revokeRole",
      "outputs": [],
      "stateMutability": "nonpayable",
      "type": "function"
    },
    {
      "inputs": [
        {
          "internalType": "string",
          "name": "",
          "type": "string"
        }
      ],
      "name": "rfidToTokenId",
      "outputs": [
        {
          "internalType": "uint256",
          "name": "",
          "type": "uint256"
        }
      ],
      "stateMutability": "view",
      "type": "function"
    },
    {
      "inputs": [
        {
          "internalType": "address",
          "name": "from",
          "type": "address"
        },
        {
          "internalType": "address",
          "name": "to",
          "type": "address"
        },
        {
          "internalType": "uint256",
          "name": "tokenId",
          "type": "uint256"
        }
      ],
      "name": "safeTransferFrom",
      "outputs": [],
      "stateMutability": "nonpayable",
      "type": "function"
    },
    {
      "inputs": [
        {
          "internalType": "address",
          "name": "from",
          "type": "address"
        },
        {
          "internalType": "address",
          "name": "to",
          "type": "address"
        },
        {
          "internalType": "uint256",
          "name": "tokenId",
          "type": "uint256"
        },
        {
          "internalType": "bytes",
          "name": "data",
          "type": "bytes"
        }
      ],
      "name": "safeTransferFrom",
      "outputs": [],
      "stateMutability": "nonpayable",
      "type": "function"
    },
    {
      "inputs": [
        {
          "internalType": "address",
          "name": "operator",
          "type": "address"
        },
        {
          "internalType": "bool",
          "name": "approved",
          "type": "bool"
        }
      ],
      "name": "setApprovalForAll",
      "outputs": [],
      "stateMutability": "nonpayable",
      "type": "function"
    },
    {
      "inputs": [
        {
          "internalType": "bytes4",
          "name": "interfaceId",
          "type": "bytes4"
        }
      ],
      "name": "supportsInterface",
      "outputs": [
        {
          "internalType": "bool",
          "name": "",
          "type": "bool"
        }
      ],
      "stateMutability": "view",
      "type": "function"
    },
    {
      "inputs": [],
      "name": "symbol",
      "outputs": [
        {
          "internalType": "string",
          "name": "",
          "type": "string"
        }
      ],
      "stateMutability": "view",
      "type": "function"
    },
    {
      "inputs": [
        {
          "internalType": "uint256",
          "name": "tokenId",
          "type": "uint256"
        }
      ],
      "name": "tokenURI",
      "outputs": [
        {
          "internalType": "string",
          "name": "",
          "type": "string"
        }
      ],
      "stateMutability": "view",
      "type": "function"
    },
    {
      "inputs": [
        {
          "internalType": "address",
          "name": "from",
          "type": "address"
        },
        {
          "internalType": "address",
          "name": "to",
          "type": "address"
        },
        {
          "internalType": "uint256",
          "name": "tokenId",
          "type": "uint256"
        }
      ],
      "name": "transferFrom",
      "outputs": [],
      "stateMutability": "nonpayable",
      "type": "function"
    },
    {
      "inputs": [
        {
          "internalType": "uint256",
          "name": "tokenId",
          "type": "uint256"
        },
        {
          "internalType": "address",
          "name": "to",
          "type": "address"
        },
        {
          "internalType": "enum ProTrackSupplyChain.ProductStatus",
          "name": "newStatus",
          "type": "uint8"
        },
        {
          "internalType": "string",
          "name": "location",
          "type": "string"
        },
        {
          "internalType": "string",
          "name": "notes",
          "type": "string"
        }
      ],
      "name": "transferProduct",
      "outputs": [],
      "stateMutability": "nonpayable",
      "type": "function"
    }
  ],
  "bytecode": "0x608034620003f55760406001600160401b0382820181811184821017620003df578252601583526020907f50726f547261636b20537570706c7920436861696e00000000000000000000008285015282519383850185811083821117620003df57845260048552635054534360e01b83860152805191808311620003df576000928354906001938483811c93168015620003d4575b87841014620003c0578190601f938481116200036d575b50879084831160011462000309578792620002fd575b5050600019600383901b1c191690841b1784555b8651918211620002e95782548381811c91168015620002de575b86821014620002ca5781811162000282575b50849082116001146200021f57839495968293949262000213575b5050600019600383901b1c191690821b1781555b8060085581805260078352838220338352835260ff848320541615620001db575b7f68e79a7bf1e0bc45d0a330c573bc367f9cf464fd326078812f301165fbda4ef19283835260078152848320338452815260ff8584205416156200019f575b845161526e9081620003fb8239f35b8383526007815284832090338452528382209060ff19825416179055339160008051602062005669833981519152339280a43880808062000190565b8180526007835283822033835283528382208160ff19825416179055333383600080516020620056698339815191528180a462000151565b0151905038806200011c565b82845284842090601f198316855b8181106200026c5750978385969798991062000252575b505050811b01815562000130565b015160001960f88460031b161c1916905538808062000244565b898301518455928501929187019187016200022d565b8385528585208280850160051c820192888610620002c0575b0160051c019084905b828110620002b457505062000101565b868155018490620002a4565b925081926200029b565b634e487b7160e01b85526022600452602485fd5b90607f1690620000ef565b634e487b7160e01b84526041600452602484fd5b015190503880620000c1565b8780528888208794509190601f198416895b8b8282106200035657505084116200033c575b505050811b018455620000d5565b015160001960f88460031b161c191690553880806200032e565b8385015186558a979095019493840193016200031b565b9091508680528787208480850160051c8201928a8610620003b6575b918891869594930160051c01915b828110620003a7575050620000ab565b89815585945088910162000397565b9250819262000389565b634e487b7160e01b86526022600452602486fd5b92607f169262000094565b634e487b7160e01b600052604160045260246000fd5b600080fdfe608080604052600436101561001357600080fd5b60003560e01c90816301ffc9a71461440c57508063027a5921146143bf57806306fdde031461431c57806307e2cea5146142e1578063081812fc146142c3578063095ea7b3146141495780631020f783146140a95780632115e7bf1461406e57806323b872dd1461404a578063248a9ca31461401b5780632f2ff15d14613f68578063309e0f87146133b157806336568abe1461331f5780633a94f064146132c2578063409a8fcd1461310f57806342842e0e146130dc5780634bc39ec2146130255780634eabbe7714612fea57806355c4281e14612f8d5780635ed059c914612ec85780636352211e14612e985780636b1023dd14612e4557806370a0823114612dae5780637acc0b2014612cab5780637ed49c5f14612c4e5780638fe91ab514612bf157806391d1485414612ba457806395d89b4114612ac5578063965288b014612a8a5780639b43bc3e146122155780639ce0f97314611cfc578063a16f110f14611a99578063a217fddf14611a7d578063a22cb465146119a2578063a40b9ddf14611967578063a78001641461190f578063b5abf64f146107a0578063b88d4fde1461071b578063bedd1136146106bf578063c87b56dd14610649578063d547741f14610608578063d7126e4f146105ab578063d7cb8d3414610570578063df9c49a314610513578063e3a3c522146104d8578063e985e9c514610482578063f9f806e1146103ad5763faa2b9541461022f57600080fd5b346103a8576020806003193601126103a857600435600052600d815260406000209081549161025d836151fc565b9261026b604051948561462f565b8084528284018092600052836000206000915b8383106103315750505050604051918083019381845251809452604083019360408160051b85010192916000955b8287106102b95785850386f35b909192938280600192603f198982030185528751906102d98183516146f6565b8282015183820152604082015160408201526103046060808401519060c080918501528301906144fa565b916080868060a01b0381830151169083015260a080910151151591015296019201960195929190926102ac565b6005866001926040999899516103468161458b565b60ff61035581885416836151f0565b85870154848301526002870154604083015261037360038801614650565b6060830152600487015490868060a01b038216608084015260a091821c1615159082015281520192019201919095949561027e565b600080fd5b346103a8576020806003193601126103a8576103c76144c1565b6103cf6147e9565b7f2a5f906c256a5d799494fcd066e1f6c077689de1cdb65052a1624de4bace99bf91826000526007815261040a6001604060002001546149b6565b60008381526007825260408082206001600160a01b0390941680835293835290205460ff161561043657005b826000526007815260406000209082600052526040600020600160ff1982541617905533917f2f8788117e7eff1d82e926ec794901d17c78024a50270940304540a733656f0d600080a4005b346103a85760403660031901126103a85761049b6144c1565b6104a36144ab565b9060018060a01b03809116600052600560205260406000209116600052602052602060ff604060002054166040519015158152f35b346103a85760003660031901126103a85760206040517f273dcf2136c7d8ef632bb8ef13dbca69a8f36fa620c7468671b3153d46a211c08152f35b346103a8576020806003193601126103a85761052d6144c1565b6105356147e9565b7f68e79a7bf1e0bc45d0a330c573bc367f9cf464fd326078812f301165fbda4ef191826000526007815261040a6001604060002001546149b6565b346103a85760003660031901126103a85760206040517fe34aaecbfe1f40867dcba8678fbed9f4ffa5782221fa3bb500b71b2a804303188152f35b346103a8576020806003193601126103a8576105c56144c1565b6105cd6147e9565b7fe34aaecbfe1f40867dcba8678fbed9f4ffa5782221fa3bb500b71b2a8043031891826000526007815261040a6001604060002001546149b6565b346103a85760403660031901126103a8576106476004356106276144ab565b908060005260076020526106426001604060002001546149b6565b614ac1565b005b346103a85760203660031901126103a857600435600081815260026020526040902054610680906001600160a01b03161515614b37565b60005260066020526106bb6106986040600020614650565b60006040516106a6816145f9565b526040519182916020835260208301906144fa565b0390f35b346103a85760203660031901126103a8576004356001600160401b0381116103a85761070860206106f58193369060040161478a565b81604051938285809451938492016144d7565b8101600c81520301902054604051908152f35b346103a85760803660031901126103a8576107346144c1565b61073c6144ab565b90606435906044356001600160401b0383116103a857366023840112156103a8576106479361077861079b943690602481600401359101614753565b9261078b6107868433614cb9565b614be4565b610796838383614d81565b614fb2565b614c99565b346103a85760c03660031901126103a8576004356001600160401b0381116103a8576107d090369060040161478a565b6024356001600160401b0381116103a8576107ef90369060040161478a565b6044356001600160401b0381116103a85761080e90369060040161478a565b6084356001600160401b0381116103a85761082d90369060040161478a565b60a4356001600160a01b03811690036103a8573360009081527f74bb1ca9260fc37125f5e18e451ff1e642aa55b4eec93cdfb89e91bff73aafdd602052604090205460ff1615611743578351156116fe5760405160208186516108938183858b016144d7565b8101600c815203019020546116c35742606435111561167e576009549260018401600955604051906108c4826145c2565b848252856020830152604082015282606082015242608082015260643560a0820152600060c082015260018060a01b0360a4351660e08201528161010082015260006101208201524261014082015283600052600b6020526040600020908051825560208101518051906001600160401b0382116110cd57819061094b6001860154614551565b601f811161162b575b50602090601f83116001146115b9576000926115ae575b50508160011b916000199060031b1c19161760018301555b60408101518051906001600160401b0382116110cd5781906109a86002860154614551565b601f811161155b575b50602090601f83116001146114e9576000926114de575b50508160011b916000199060031b1c19161760028301555b60608101518051906001600160401b0382116110cd578190610a056003860154614551565b601f811161148b575b50602090601f83116001146114195760009261140e575b50508160011b916000199060031b1c19161760038301555b6080810151600483015560a0810151600583015560c081015160068110156111b357610a9890610a71600685019182615124565b60e08301518154610100600160a81b03191660089190911b610100600160a81b0316179055565b6101008101518051906001600160401b0382116110cd57610abc6007850154614551565b601f81116113c7575b50602090601f83116001146113515791806009949261014094600092611346575b50508160011b916000199060031b1c19161760078501555b610b1e6101208201511515600886019060ff801983541691151516179055565b0151910155826040516020818751610b398183858c016144d7565b8101600c8152030190205560018060a01b0360a435166000526010602052610b6583604060002061513c565b604051610b71816145f9565b6000815260a4356001600160a01b03161561130257600084815260026020526040902054610c449161079b91610bb3906001600160a01b031615155b1561515f565b600086815260026020526040902054610bd6906001600160a01b03161515610bad565b60a4356001600160a01b03166000818152600360209081526040808320805460010190558983526002909152812080546001600160a01b031916831790558791907fddf252ad1be2c89b69c2b068fc378daa952ba7f163c4a11628f55a4df523b3ef8180a48560a435614e92565b6000838152600260205260409020546001600160a01b0316156112a6578260005260066020526040600020908051906001600160401b0382116110cd578190610c8d8454614551565b601f8111611256575b50602090601f83116001146111ea576000926111df575b50508160011b916000199060031b1c19161790555b7ff8e1a15aba9398e019f0b49df1a4fde98ee17ae345cb5f6b5e2c27f5033e8ce76020604051848152a1604051610cf8816145de565b60168152754d616e75666163747572696e6720666163696c69747960501b60208201526040518060608101106001600160401b036060830111176110cd5760608101604052602281527f50726f64756374206d616e75666163747572656420616e6420746f6b656e697a602082015261195960f21b60408201526040516020810190858252600060408201526001600160601b031960a43560601b16605482015260006068820152426088820152610dce60a8828651610dbe8184840160208b016144d7565b810103608881018452018261462f565b5190209060405192610ddf846145a6565b8584526000602085015260018060a01b0360a4351660408501526000606085015242608085015260a084015260c083015260e082015282600052600e60205260406000208054600160401b8110156110cd57610e40916001820181556147b5565b9190916111c9578051825560208101516001830180546001600160a01b0319166001600160a01b039283161790556040820151600284018054606085015191939092169060068110156111b3576001600160a81b03199092161760a091821b60ff60a01b1617909155608082015160038401558101518051906001600160401b0382116110cd578190610ed66004860154614551565b601f8111611160575b50602090601f83116001146110ee576000926110e3575b50508160011b916000199060031b1c19161760048301555b60c08101518051906001600160401b0382116110cd57610f316005850154614551565b601f8111611086575b5091859391602097938890601f8311600114610fea577f50794d1f70b35dc9b759037d2749856f69e87ffa0771d58c384aaa065171a98c959383610fbb969460069460e094600092610fdf575b50508160011b916000199060031b1c19161760058501555b0151910155610fd46040519283926040845260408401906144fa565b8281038984015260a4356001600160a01b0316966144fa565b0390a3604051908152f35b015190508d80610f87565b9060058501600052896000209160005b601f198516811061106c57509360018460069460e0947f50794d1f70b35dc9b759037d2749856f69e87ffa0771d58c384aaa065171a98c9a98610fbb9a98601f19811610611053575b505050811b016005850155610f9f565b015160001960f88460031b161c191690558d8080611043565b8183015184558a9850600190930192918b01918b01610ffa565b600585016000526020600020601f840160051c8101602085106110c6575b601f830160051c820181106110ba575050610f3a565b600081556001016110a4565b50806110a4565b634e487b7160e01b600052604160045260246000fd5b015190508780610ef6565b9250600485016000526020600020906000935b601f1984168510611145576001945083601f1981161061112c575b505050811b016004830155610f0e565b015160001960f88460031b161c1916905587808061111c565b81810151835560209485019460019093019290910190611101565b909150600485016000526020600020601f840160051c8101602085106111ac575b90849392915b601f830160051c8201811061119d575050610edf565b60008155859450600101611187565b5080611181565b634e487b7160e01b600052602160045260246000fd5b634e487b7160e01b600052600060045260246000fd5b015190508680610cad565b9250836000526020600020906000935b601f198416851061123b576001945083601f19811610611222575b505050811b019055610cc2565b015160001960f88460031b161c19169055868080611215565b818101518355602094850194600190930192909101906111fa565b909150836000526020600020601f840160051c81016020851061129f575b90849392915b601f830160051c82018110611290575050610c96565b6000815585945060010161127a565b5080611274565b60405162461bcd60e51b815260206004820152602e60248201527f45524337323155524953746f726167653a2055524920736574206f66206e6f6e60448201526d32bc34b9ba32b73a103a37b5b2b760911b6064820152608490fd5b606460405162461bcd60e51b815260206004820152602060248201527f4552433732313a206d696e7420746f20746865207a65726f20616464726573736044820152fd5b015190508a80610ae6565b906007850160005260206000209160005b601f19851681106113af575092600994926001926101409583601f19811610611396575b505050811b016007850155610afe565b015160001960f88460031b161c191690558a8080611386565b91926020600181928685015181550194019201611362565b600785016000526020600020601f840160051c810160208510611407575b601f830160051c820181106113fb575050610ac5565b600081556001016113e5565b50806113e5565b015190508880610a25565b9250600385016000526020600020906000935b601f1984168510611470576001945083601f19811610611457575b505050811b016003830155610a3d565b015160001960f88460031b161c19169055888080611447565b8181015183556020948501946001909301929091019061142c565b909150600385016000526020600020601f840160051c8101602085106114d7575b90849392915b601f830160051c820181106114c8575050610a0e565b600081558594506001016114b2565b50806114ac565b0151905088806109c8565b9250600285016000526020600020906000935b601f1984168510611540576001945083601f19811610611527575b505050811b0160028301556109e0565b015160001960f88460031b161c19169055888080611517565b818101518355602094850194600190930192909101906114fc565b909150600285016000526020600020601f840160051c8101602085106115a7575b90849392915b601f830160051c820181106115985750506109b1565b60008155859450600101611582565b508061157c565b01519050888061096b565b9250600185016000526020600020906000935b601f1984168510611610576001945083601f198116106115f7575b505050811b016001830155610983565b015160001960f88460031b161c191690558880806115e7565b818101518355602094850194600190930192909101906115cc565b909150600185016000526020600020601f840160051c810160208510611677575b90849392915b601f830160051c82018110611668575050610954565b60008155859450600101611652565b508061164c565b60405162461bcd60e51b815260206004820152601d60248201527f4578706972792064617465206d75737420626520696e206675747572650000006044820152606490fd5b60405162461bcd60e51b81526020600482015260136024820152725246494420616c72656164792065786973747360681b6044820152606490fd5b60405162461bcd60e51b815260206004820152601960248201527f5246494420686173682063616e6e6f7420626520656d707479000000000000006044820152606490fd5b61174c3361504e565b604051907feefb95e842a3287179d933b4460be539a1d5af11aa8b325bb45c5c8dc92de4ed61177a83614614565b60428352602083019060603683378351156118f9576030825383516001908110156118f957607860218601536041905b80821161189f57505061185b57604861182892611837926118579560405195869376020b1b1b2b9b9a1b7b73a3937b61d1030b1b1b7bab73a1604d1b60208601526117ff8151809260206037890191016144d7565b8401917001034b99036b4b9b9b4b733903937b6329607d1b6037840152518093868401906144d7565b0103602881018452018261462f565b60405162461bcd60e51b81526020600482015291829160248301906144fa565b0390fd5b606460405162461bcd60e51b815260206004820152602060248201527f537472696e67733a20686578206c656e67746820696e73756666696369656e746044820152fd5b9091600f811660108110156118f9576f181899199a1a9b1b9c1cb0b131b232b360811b901a6118ce848861503d565b5360041c9180156118e35760001901906117aa565b634e487b7160e01b600052601160045260246000fd5b634e487b7160e01b600052603260045260246000fd5b346103a85760403660031901126103a8576119286144c1565b6001600160a01b03166000908152601060205260409020805460243591908210156103a857602091611959916147d1565b90546040519160031b1c8152f35b346103a85760003660031901126103a85760206040517f6e94c7ed7681edd364a52ba21181e7713b286d5c7e6bbaca72cfe62d41ea09d98152f35b346103a85760403660031901126103a8576119bb6144c1565b60243590811515908183036103a8576001600160a01b031691338314611a3857611a0a9033600052600560205260406000208460005260205260406000209060ff801983541691151516179055565b6040519081527f17307eab39ab6107e8899845ad3d59bd9653f200f220920489ca2b5937696c3160203392a3005b60405162461bcd60e51b815260206004820152601960248201527f4552433732313a20617070726f766520746f2063616c6c6572000000000000006044820152606490fd5b346103a85760003660031901126103a857602060405160008152f35b346103a85760203660031901126103a8576004356001600160401b0381116103a8576020611ace611b3192369060040161478a565b6000610140604051611adf816145c2565b828152606085820152606060408201526060808201528260808201528260a08201528260c08201528260e0820152606061010082015282610120820152015281604051938285809451938492016144d7565b8101600c815203019020548015611cc657600052600b6020526040600020600960405191611b5e836145c2565b80548352611b6e60018201614650565b6020840152611b7f60028201614650565b6040840152611b9060038201614650565b606084015260048101546080840152600581015460a08401526006810154611bbe60ff821660c08601615118565b60081c6001600160a01b031660e0840152611bdb60078201614650565b61010084015260ff6008820154161515610120840152015461014082015260405180916020825280516020830152610140611cad611c2a602084015161016060408701526101808601906144fa565b611c5d611c49604086015192601f1993848983030160608a01526144fa565b6060860151838883030160808901526144fa565b90608085015160a087015260a085015160c0870152611c8460c086015160e08801906147a8565b60018060a01b0360e08601511661010087015261010085015190868303016101208701526144fa565b9161012081015115158285015201516101608301520390f35b60405162461bcd60e51b815260206004820152600e60248201526d14919251081b9bdd08199bdd5b9960921b6044820152606490fd5b346103a85760403660031901126103a8576024356001600160401b0381116103a857611d2c90369060040161478a565b600435600090815260026020526040902054611d57906001600160a01b031615156151ab565b6151ab565b3360009081527f4737975f69b9423f1935dbed18763129f1f2f9739723c3436b1571873c7b5c33602052604090205460ff1680156121dd575b1561219857600435600052600b60205260406000206008810160ff19906001828254161790556005600683019182541617905560094291015560405190611dd6826145de565b60068252602082016553797374656d60d01b8152604051611e2860a88260208101946004358652600060408301526000605483015260056068830152426088830152610dbe88518092858501906144d7565b51902060405192611e38846145a6565b600435845260006020850152600060408501526005606085015242608085015260a08401528160c084015260e0830152600435600052600e60205260406000208054600160401b8110156110cd57611e95916001820181556147b5565b6111c9578251815560208301516001820180546001600160a01b0319166001600160a01b039283161790556040840151600283018054606087015191939092169060068110156111b35760ff60a01b9060a01b16916001600160581b0360a81b16171790556080830151600382015560a08301519283516001600160401b0381116110cd57611f276004840154614551565b601f8111612151575b506020601f82116001146120e25781929394956000926120d7575b50508160011b916000199060031b1c19161760048301555b60c08101518051906001600160401b0382116110cd57611f866005850154614551565b601f811161208c575b50602090601f83116001146120195791806006949260e09460009261200e575b50508160011b916000199060031b1c19161760058501555b015191015560405190602082527fc836b58f1d2b092e3af919aae9a0607bb0c4fe552aa37d0d7ed26885488b73993392806120096004359460208301906144fa565b0390a3005b015190508780611faf565b90601f198316916005860160005260206000209260005b818110612074575092600192859260e096600698961061205b575b505050811b016005850155611fc7565b015160001960f88460031b161c1916905587808061204b565b92936020600181928786015181550195019301612030565b600585016000526020600020601f840160051c810191602085106120cd575b601f0160051c01905b8181106120c15750611f8f565b600081556001016120b4565b90915081906120ab565b015190508580611f4b565b6004840160005260206000209060005b601f1984168110612139575060019394959683601f19811610612120575b505050811b016004830155611f63565b015160001960f88460031b161c19169055858080612110565b9091602060018192858b0151815501930191016120f2565b600484016000526020600020601f830160051c810160208410612191575b601f830160051c82018110612185575050611f30565b6000815560010161216f565b508061216f565b60405162461bcd60e51b815260206004820152601860248201527f4e6f7420617574686f72697a656420746f20726563616c6c00000000000000006044820152606490fd5b503360009081527f74bb1ca9260fc37125f5e18e451ff1e642aa55b4eec93cdfb89e91bff73aafdd602052604090205460ff16611d90565b346103a85760a03660031901126103a85761222e6144ab565b600660443510156103a8576064356001600160401b0381116103a85761225890369060040161478a565b6084356001600160401b0381116103a85761227790369060040161478a565b91600260085414612a455760026008556122ab611d52600435600052600260205260018060a01b0360406000205416151590565b6122b6600435614b83565b336001600160a01b0390911603612a10576001600160a01b038116156129d757600435600052600b60205260ff6008604060002001541661299c57604051602081019060043582523360601b60408201524260548201526529a2a72222a960d11b6074820152605a815261232981614614565b519020604051602081019060043582526001600160601b03198460601b166040820152426054820152672922a1a2a4ab22a960c11b6074820152605c815261237081614614565b51902062278d00420142116118e357604051908160808101106001600160401b036080840111176110cd5761240392608083016040528252602082015262278d004201604082015260016060820152600435600052600f602052600360606040600020928051845560208101516001850155604081015160028501550151151591019060ff801983541691151516179055565b6001600160a01b038116336004357fe5ae2c71a551297bc826cbfe2e8b4c507f92adcdcb6bbccf652456e59245fb9e600080a4600b60205260406000206006018054610100600160a81b031916600883901b610100600160a81b031617815561246f9060443590615124565b600435600052600b6020524260096040600020015533600052601060205260406000209260005b845480821015612991576124aa82876147d1565b60043591549060031b1c146124cb575060001981146118e357600101612496565b90600095929394951982019182116118e3576124fb6124ed61251493856147d1565b90549060031b1c91846147d1565b90919082549060031b91821b91600019901b1916179055565b8054801561297b57600019019061252b82826147d1565b8154906000199060031b1b19169055555b60018060a01b038216600052601060205261255d600435604060002061513c565b60043560008181526011602090815260408083206001600160a01b03871684529091529020805460ff19166001179055612598908333614d81565b604051602081019060043582526001600160601b03193360601b1660408201526001600160601b03198460601b16605482015260443560688201524260888201526125f160a8828751610dbe8184840160208c016144d7565b5190209060405193612602856145a6565b60043585523360208601526001600160a01b038416604086015261262b60443560608701615118565b42608086015260a085015260c084015260e0830152600435600052600e60205260406000208054600160401b8110156110cd5761266d916001820181556147b5565b6111c9578251815560208301516001820180546001600160a01b0319166001600160a01b039283161790556040840151600283018054606087015191939092169060068110156111b35760ff60a01b9060a01b16916001600160581b0360a81b16171790556080830151600382015560a08301519283516001600160401b0381116110cd576126ff6004840154614551565b601f8111612934575b506020601f82116001146128c55781929394956000926128ba575b50508160011b916000199060031b1c19161760048301555b60c08101518051906001600160401b0382116110cd5761275e6005850154614551565b601f811161286f575b50602090601f83116001146127fc5791806006949260e0946000926127f1575b50508160011b916000199060031b1c19161760058501555b0151910155604051906127b4826044356147a8565b6001600160a01b0316903390600435907fb8ec5bed6096f539515867ed6d75eac9421558314f8dcb1349f7c60978cad29890602090a46001600855005b015190508780612787565b90601f198316916005860160005260206000209260005b818110612857575092600192859260e096600698961061283e575b505050811b01600585015561279f565b015160001960f88460031b161c1916905587808061282e565b92936020600181928786015181550195019301612813565b600585016000526020600020601f840160051c810191602085106128b0575b601f0160051c01905b8181106128a45750612767565b60008155600101612897565b909150819061288e565b015190508580612723565b6004840160005260206000209060005b601f198416811061291c575060019394959683601f19811610612903575b505050811b01600483015561273b565b015160001960f88460031b161c191690558580806128f3565b9091602060018192858b0151815501930191016128d5565b600484016000526020600020601f830160051c810160208410612974575b601f830160051c82018110612968575050612708565b60008155600101612952565b5080612952565b634e487b7160e01b600052603160045260246000fd5b50509091925061253c565b60405162461bcd60e51b8152602060048201526013602482015272141c9bd91d58dd081a5cc81c9958d85b1b1959606a1b6044820152606490fd5b60405162461bcd60e51b8152602060048201526011602482015270125b9d985b1a59081c9958da5c1a595b9d607a1b6044820152606490fd5b60405162461bcd60e51b815260206004820152600d60248201526c2737ba103a34329037bbb732b960991b6044820152606490fd5b60405162461bcd60e51b815260206004820152601f60248201527f5265656e7472616e637947756172643a207265656e7472616e742063616c6c006044820152606490fd5b346103a85760003660031901126103a85760206040517feefb95e842a3287179d933b4460be539a1d5af11aa8b325bb45c5c8dc92de4ed8152f35b346103a85760003660031901126103a85760405160006001805490612ae982614551565b80855291818116908115612b7d5750600114612b24575b6106bb84612b108186038261462f565b6040519182916020835260208301906144fa565b600081815292507fb10e2d527612073b26eecdfd717e6a320cf44b4afac2b0732d9fcbe2b7fa0cf65b828410612b65575050508101602001612b1082612b00565b80546020858701810191909152909301928101612b4d565b60ff191660208087019190915292151560051b85019092019250612b109150839050612b00565b346103a85760403660031901126103a857612bbd6144ab565b600435600052600760205260406000209060018060a01b0316600052602052602060ff604060002054166040519015158152f35b346103a8576020806003193601126103a857612c0b6144c1565b612c136147e9565b7f6e94c7ed7681edd364a52ba21181e7713b286d5c7e6bbaca72cfe62d41ea09d991826000526007815261040a6001604060002001546149b6565b346103a8576020806003193601126103a857612c686144c1565b612c706147e9565b7f273dcf2136c7d8ef632bb8ef13dbca69a8f36fa620c7468671b3153d46a211c091826000526007815261040a6001604060002001546149b6565b346103a85760203660031901126103a857600435600052600b60205260406000208054612cda60018301614650565b91612ce760028201614650565b612d9b612cf660038401614650565b6004840154906005850154600686015490612d61612d1660078901614650565b93612d53600960ff60088c0154169a015498612d456040519d8e9d8e528d6101609081602082015201906144fa565b8c810360408e0152906144fa565b908a820360608c01526144fa565b93608089015260a0880152612d7c60c0880160ff83166147a8565b60081c6001600160a01b031660e08701528582036101008701526144fa565b9115156101208401526101408301520390f35b346103a85760203660031901126103a8576001600160a01b03612dcf6144c1565b168015612dee5760005260036020526020604060002054604051908152f35b60405162461bcd60e51b815260206004820152602960248201527f4552433732313a2061646472657373207a65726f206973206e6f7420612076616044820152683634b21037bbb732b960b91b6064820152608490fd5b346103a85760203660031901126103a857600435600052600f6020526080604060002080549060018101549060ff6003600283015492015416916040519384526020840152604083015215156060820152f35b346103a85760203660031901126103a8576020612eb6600435614b83565b6040516001600160a01b039091168152f35b346103a857612ed63661451f565b90600052600e60205260406000209081548110156103a857612ef7916147b5565b50805460018060a01b03612f838160018501541693612f7560028201546003830154612f5f612f2860048601614650565b926006612f3760058801614650565b960154976040519a8b9a8b5260208b0152811660408a015260ff60608a019160a01c166147a8565b60808701526101008060a08801528601906144fa565b9084820360c08601526144fa565b9060e08301520390f35b346103a8576020806003193601126103a857612fa76144c1565b612faf6147e9565b7feefb95e842a3287179d933b4460be539a1d5af11aa8b325bb45c5c8dc92de4ed91826000526007815261040a6001604060002001546149b6565b346103a85760003660031901126103a85760206040517fddaa901e2fe3bda354fe0ede2785152d5c109282a613fe024a056a3e66c41bb38152f35b346103a85760403660031901126103a8576004356130416144ab565b90806000526011602052604060002060018060a01b038093169283918260005260205260ff604060002054169283156130c6575b505050801561308c575b6020906040519015158152f35b5060009081527f4737975f69b9423f1935dbed18763129f1f2f9739723c3436b1571873c7b5c33602090815260409091205460ff1661307f565b6130d291929350614b83565b1614818380613075565b346103a85761064761079b6130f036614703565b90604051926130fe846145f9565b6000845261078b6107868433614cb9565b346103a8576020806003193601126103a857600435600052600e815260406000209081549161313d836151fc565b9261314b604051948561462f565b8084528284018092600052836000206000915b8383106132325750505050604051918083019381845251809452604083019360408160051b85010192916000955b8287106131995785850386f35b909192938280600192603f1989820301855287519081518152848060a01b038084840151168483015260408301511660408201526131df606080840151908301906147a8565b6080808301519082015260e08061321c61320960a0808701519061010080918801528601906144fa565b60c08087015190868303908701526144fa565b930151910152960192019601959291909261318c565b600786600192604099989951613247816145a6565b85548152848060a01b03808688015416848301526002870154908116604083015261327c60ff60a092831c1660608401615118565b6003870154608083015261329260048801614650565b908201526132a260058701614650565b60c0820152600686015460e082015281520192019201919095949561315e565b346103a8576020806003193601126103a8576132dc6144c1565b6132e46147e9565b7fddaa901e2fe3bda354fe0ede2785152d5c109282a613fe024a056a3e66c41bb391826000526007815261040a6001604060002001546149b6565b346103a85760403660031901126103a8576133386144ab565b336001600160a01b038216036133545761064790600435614ac1565b60405162461bcd60e51b815260206004820152602f60248201527f416363657373436f6e74726f6c3a2063616e206f6e6c792072656e6f756e636560448201526e103937b632b9903337b91039b2b63360891b6064820152608490fd5b346103a85760803660031901126103a857600560243510156103a8576064356001600160401b0381116103a8576133ec90369060040161478a565b3360009081527fc5ab710f8c4cc7c1afac50210ff340ab9e3a5797b579fcbb6114569dd517ba0a60205260409020547f68e79a7bf1e0bc45d0a330c573bc367f9cf464fd326078812f301165fbda4ef19060ff1615613e89575060043560009081526002602052604090205461346c906001600160a01b031615156151ab565b604051906134798261458b565b613485602435836151f0565b6044356020830152426040830152806060830152336080830152600160a0830152600435600052600d60205260406000208054600160401b8110156110cd576134d391600182018155614535565b9290926111c957805160058110156111b35760ff80198554169116178355602081015160018401556040810151600284015560608101519283516001600160401b0381116110cd576135286003830154614551565b601f8111613e42575b506020601f8211600114613dcf5781906004949596600092613dc4575b50508160011b916000199060031b1c19161760038201555b019060018060a01b0360808201511682549160a060ff811b910151151560a01b16916001600160581b0360a81b16171790557f9e790bec92cf1108abf55680d50cdb110de7db007c83a320baa2f848e929d8446040516135c8816024356146f6565b604435602082015260606040820152806135e96004359460608301906144fa565b0390a2602435156139ed575b60016024351461360157005b60006044351280156139e1575b61361457005b600435600052600b60205260ff60066040600020015416613633615213565b60405161363f816145de565b601b81527f48756d6964697479207468726573686f6c642065786365656465640000000000602082015260068310156111b3576040516020810190600435825260006040820152600060548201528460688201524260888201526136b160a8828651610dbe8184840160208b016144d7565b519020916136e1604051946136c5866145a6565b6004358652600060208701526000604087015260608601615118565b42608085015260a084015260c083015260e0820152600435600052600e60205260406000208054600160401b8110156110cd57613723916001820181556147b5565b9190916111c9578051825560208101516001830180546001600160a01b0319166001600160a01b039283161790556040820151600284018054606085015191939092169060068110156111b35760ff60a01b9060a01b16916001600160581b0360a81b16171790556080810151600383015560a08101519182516001600160401b0381116110cd576137b86004830154614551565b601f8111613996575b506020601f821160011461392a578192939460009261391f575b50508160011b916000199060031b1c19161760048201555b600581019160c08101519283516001600160401b0381116110cd576138188254614551565b601f81116138d7575b506020601f821160011461386957908060e09493926006969760009261385e575b50508160011b916000199060031b1c19161790555b0151910155005b015190508780613842565b601f198216958360005260206000209660005b8181106138bf575096600192849260e09796956006999a106138a6575b505050811b019055613857565b015160001960f88460031b161c19169055878080613899565b8383015189556001909801976020938401930161387c565b826000526020600020601f830160051c81019160208410613915575b601f0160051c01905b8181106139095750613821565b600081556001016138fc565b90915081906138f3565b0151905084806137db565b601f198216906004840160005260206000209160005b81811061397e57509583600195969710613965575b505050811b0160048201556137f3565b015160001960f88460031b161c19169055848080613955565b9192602060018192868b015181550194019201613940565b600483016000526020600020601f830160051c810191602084106139d7575b601f0160051c01905b8181106139cb57506137c1565b600081556001016139be565b90915081906139b5565b50605f6044351361360e565b601319604435128015613db8575b156135f557600435600052600b60205260ff60066040600020015416613a1f615213565b604051613a2b816145de565b601e81527f54656d7065726174757265207468726573686f6c642065786365656465640000602082015260068310156111b357604051602081019060043582526000604082015260006054820152846068820152426088820152613a9d60a8828651610dbe8184840160208b016144d7565b51902091613ab1604051946136c5866145a6565b42608085015260a084015260c083015260e0820152600435600052600e60205260406000208054600160401b8110156110cd57613af3916001820181556147b5565b6111c9578151815560208201516001820180546001600160a01b0319166001600160a01b039283161790556040830151600283015460608501519092919091169060068110156111b3576001600160a81b03199092161760a091821b60ff60a01b161760028301556080830151600383015582015180519092906001600160401b0381116110cd57613b886004840154614551565b601f8111613d71575b506020601f8211600114613d035781929394600092613cf8575b50508160011b916000199060031b1c19161760048301555b60c08101518051906001600160401b0382116110cd57613be66005850154614551565b601f8111613cb1575b50602090601f8311600114613c3c5791806006949260e094600092613c31575b50508160011b916000199060031b1c19161760058501555b01519101556135f5565b015190508680613c0f565b906005850160005260206000209160005b601f1985168110613c995750926006949260019260e09583601f19811610613c80575b505050811b016005850155613c27565b015160001960f88460031b161c19169055868080613c70565b91926020600181928685015181550194019201613c4d565b600585016000526020600020601f840160051c810160208510613cf1575b601f830160051c82018110613ce5575050613bef565b60008155600101613ccf565b5080613ccf565b015190508480613bab565b6004840160005260206000209060005b601f1984168110613d595750600193949583601f19811610613d40575b505050811b016004830155613bc3565b015160001960f88460031b161c19169055848080613d30565b9091602060018192858a015181550193019101613d13565b600484016000526020600020601f830160051c810160208410613db1575b601f830160051c82018110613da5575050613b91565b60008155600101613d8f565b5080613d8f565b506028604435136139fb565b01519050868061354e565b6003830160005260206000209560005b601f1984168110613e2a57509582916004959697600194601f19811610613e11575b505050811b016003820155613566565b015160001960f88460031b161c19169055868080613e01565b82820151885560019097019660209283019201613ddf565b600383016000526020600020601f830160051c810160208410613e82575b601f830160051c82018110613e76575050613531565b60008155600101613e60565b5080613e60565b613e923361504e565b60405191613e9f83614614565b60428352602083019060603683378351156118f9576030825383516001908110156118f957607860218601536041905b808211613f2457505061185b57604861182892611837926118579560405195869376020b1b1b2b9b9a1b7b73a3937b61d1030b1b1b7bab73a1604d1b60208601526117ff8151809260206037890191016144d7565b9091600f811660108110156118f9576f181899199a1a9b1b9c1cb0b131b232b360811b901a613f53848861503d565b5360041c9180156118e3576000190190613ecf565b346103a85760403660031901126103a857600435613f846144ab565b816000526007602052613f9e6001604060002001546149b6565b81600052600760205260406000209060018060a01b0316908160005260205260ff6040600020541615613fcd57005b8160005260076020526040600020816000526020526040600020600160ff1982541617905533917f2f8788117e7eff1d82e926ec794901d17c78024a50270940304540a733656f0d600080a4005b346103a85760203660031901126103a85760043560005260076020526020600160406000200154604051908152f35b346103a85761064761405b36614703565b916140696107868433614cb9565b614d81565b346103a85760003660031901126103a85760206040517f2a5f906c256a5d799494fcd066e1f6c077689de1cdb65052a1624de4bace99bf8152f35b346103a8576140b73661451f565b90600052600d602052604060002080548210156103a857614110916140db91614535565b5060ff8154169060ff61412b6001830154926002810154600461410060038401614650565b92015494604051978880986146f6565b6020870152604086015260c0606086015260c08501906144fa565b9160018060a01b038116608085015260a01c16151560a08301520390f35b346103a85760403660031901126103a8576141626144c1565b602435906001600160a01b03808061417985614b83565b169216918083146142745780331490811561424f575b50156141e457600083815260046020526040902080546001600160a01b031916831790556141bc83614b83565b167f8c5be1e5ebec7d5bd14f71427d1e84f3dd0314c0f7b2291e5b200ac8c7c3b925600080a4005b60405162461bcd60e51b815260206004820152603d60248201527f4552433732313a20617070726f76652063616c6c6572206973206e6f7420746f60448201527f6b656e206f776e6572206f7220617070726f76656420666f7220616c6c0000006064820152608490fd5b9050600052600560205260406000203360005260205260ff604060002054168461418f565b60405162461bcd60e51b815260206004820152602160248201527f4552433732313a20617070726f76616c20746f2063757272656e74206f776e656044820152603960f91b6064820152608490fd5b346103a85760203660031901126103a8576020612eb6600435614ba6565b346103a85760003660031901126103a85760206040517f68e79a7bf1e0bc45d0a330c573bc367f9cf464fd326078812f301165fbda4ef18152f35b346103a85760003660031901126103a8576040516000805461433d81614551565b80845290600190818116908115612b7d5750600114614366576106bb84612b108186038261462f565b600080805292507f290decd9548b62a8d60345a988386fc84ba6bc95484008f6362f93160ef3e5635b8284106143a7575050508101602001612b1082612b00565b8054602085870181019190915290930192810161438f565b346103a85760403660031901126103a8576143d86144ab565b600435600052601160205260406000209060018060a01b0316600052602052602060ff604060002054166040519015158152f35b346103a85760203660031901126103a8576004359063ffffffff60e01b82168092036103a857602091637965db0b60e01b811490811561444e575b5015158152f35b632483248360e11b811491508115614468575b5083614447565b6380ac58cd60e01b81149150811561449a575b8115614489575b5083614461565b6301ffc9a760e01b14905083614482565b635b5e139f60e01b8114915061447b565b602435906001600160a01b03821682036103a857565b600435906001600160a01b03821682036103a857565b60005b8381106144ea5750506000910152565b81810151838201526020016144da565b90602091614513815180928185528580860191016144d7565b601f01601f1916010190565b60409060031901126103a8576004359060243590565b80548210156118f9576000526005602060002091020190600090565b90600182811c92168015614581575b602083101461456b57565b634e487b7160e01b600052602260045260246000fd5b91607f1691614560565b60c081019081106001600160401b038211176110cd57604052565b61010081019081106001600160401b038211176110cd57604052565b61016081019081106001600160401b038211176110cd57604052565b604081019081106001600160401b038211176110cd57604052565b602081019081106001600160401b038211176110cd57604052565b608081019081106001600160401b038211176110cd57604052565b90601f801991011681019081106001600160401b038211176110cd57604052565b906040519182600082549261466484614551565b9081845260019485811690816000146146d35750600114614690575b505061468e9250038361462f565b565b9093915060005260209081600020936000915b8183106146bb57505061468e93508201013880614680565b855488840185015294850194879450918301916146a3565b91505061468e94506020925060ff191682840152151560051b8201013880614680565b9060058210156111b35752565b60609060031901126103a8576001600160a01b039060043582811681036103a8579160243590811681036103a8579060443590565b6001600160401b0381116110cd57601f01601f191660200190565b92919261475f82614738565b9161476d604051938461462f565b8294818452818301116103a8578281602093846000960137010152565b9080601f830112156103a8578160206147a593359101614753565b90565b9060068210156111b35752565b80548210156118f9576000526007602060002091020190600090565b80548210156118f95760005260206000200190600090565b3360009081527f6d5257204ebe7d88fd91ae87941cb2dd9d8062b64ae5a2bd2d28ec40b9fbf6df602090815260408083205490929060ff161561482b57505050565b6148343361504e565b908084519061484282614614565b604282528482019260603685378251156149a257603084538251906001918210156149a25790607860218501536041915b818311614934575050506148f25760486118579386936148d6936148c7985198899376020b1b1b2b9b9a1b7b73a3937b61d1030b1b1b7bab73a1604d1b8a8601526117ff815180928c6037890191016144d7565b0103602881018752018561462f565b5192839262461bcd60e51b8452600484015260248301906144fa565b60648486519062461bcd60e51b825280600483015260248201527f537472696e67733a20686578206c656e67746820696e73756666696369656e746044820152fd5b909192600f8116601081101561498e576f181899199a1a9b1b9c1cb0b131b232b360811b901a614964858761503d565b5360041c92801561497a57600019019190614873565b634e487b7160e01b82526011600452602482fd5b634e487b7160e01b83526032600452602483fd5b634e487b7160e01b81526032600452602490fd5b60009080825260209060078252604092838120338252835260ff8482205416156149e05750505050565b6149e93361504e565b918451906149f682614614565b604282528482019260603685378251156149a257603084538251906001918210156149a25790607860218501536041915b818311614a7b575050506148f25760486118579386936148d6936148c7985198899376020b1b1b2b9b9a1b7b73a3937b61d1030b1b1b7bab73a1604d1b8a8601526117ff815180928c6037890191016144d7565b909192600f8116601081101561498e576f181899199a1a9b1b9c1cb0b131b232b360811b901a614aab858761503d565b5360041c92801561497a57600019019190614a27565b906000918083526007602052604083209160018060a01b03169182845260205260ff604084205416614af257505050565b8083526007602052604083208284526020526040832060ff1981541690557ff6391f5c32d9c69d2a47ea670b442974b53935d1edc7fd64eb21e047a839171b339380a4565b15614b3e57565b60405162461bcd60e51b815260206004820152601860248201527f4552433732313a20696e76616c696420746f6b656e20494400000000000000006044820152606490fd5b6000908152600260205260409020546001600160a01b03166147a5811515614b37565b600081815260026020526040902054614bc9906001600160a01b03161515614b37565b6000908152600460205260409020546001600160a01b031690565b15614beb57565b60405162461bcd60e51b815260206004820152602d60248201527f4552433732313a2063616c6c6572206973206e6f7420746f6b656e206f776e6560448201526c1c881bdc88185c1c1c9bdd9959609a1b6064820152608490fd5b60809060208152603260208201527f4552433732313a207472616e7366657220746f206e6f6e20455243373231526560408201527131b2b4bb32b91034b6b83632b6b2b73a32b960711b60608201520190565b15614ca057565b60405162461bcd60e51b81528061185760048201614c46565b906001600160a01b038080614ccd84614b83565b16931691838314938415614d00575b508315614cea575b50505090565b614cf691929350614ba6565b1614388080614ce4565b909350600052600560205260406000208260005260205260ff604060002054169238614cdc565b15614d2e57565b60405162461bcd60e51b815260206004820152602560248201527f4552433732313a207472616e736665722066726f6d20696e636f72726563742060448201526437bbb732b960d91b6064820152608490fd5b90614da991614d8f84614b83565b6001600160a01b0393918416928492909183168414614d27565b16918215614e415781614dc691614dbf86614b83565b1614614d27565b7fddf252ad1be2c89b69c2b068fc378daa952ba7f163c4a11628f55a4df523b3ef60008481526004602052604081206001600160601b0360a01b9081815416905583825260036020526040822060001981540190558482526040822060018154019055858252600260205284604083209182541617905580a4565b60405162461bcd60e51b8152602060048201526024808201527f4552433732313a207472616e7366657220746f20746865207a65726f206164646044820152637265737360e01b6064820152608490fd5b9192600092909190803b15614fa857614ee0946040518092630a85bd0160e11b9485835233600484015287602484015260448301526080606483015281878160209a8b9660848301906144fa565b03926001600160a01b03165af1849181614f64575b50614f53575050503d600014614f4b573d614f0f81614738565b90614f1d604051928361462f565b81528091833d92013e5b80519182614f485760405162461bcd60e51b81528061185760048201614c46565b01fd5b506060614f27565b6001600160e01b0319161492509050565b9091508581813d8311614fa1575b614f7c818361462f565b81010312614f9d57516001600160e01b031981168103614f9d579038614ef5565b8480fd5b503d614f72565b5050915050600190565b9293600093909291803b156150325794849161500c9660405180948193630a85bd0160e11b9788845233600485015260018060a01b0380921660248501526044840152608060648401528260209b8c9760848301906144fa565b0393165af1849181614f645750614f53575050503d600014614f4b573d614f0f81614738565b505050915050600190565b9081518110156118f9570160200190565b60405190606082018281106001600160401b038211176110cd57604052602a82526020820160403682378251156118f9576030905381516001908110156118f957607860218401536029905b8082116150aa57505061185b5790565b9091600f81166010811015615103576f181899199a1a9b1b9c1cb0b131b232b360811b901a6150d9848661503d565b5360041c9180156150ee57600019019061509a565b60246000634e487b7160e01b81526011600452fd5b60246000634e487b7160e01b81526032600452fd5b60068210156111b35752565b9060068110156111b35760ff80198354169116179055565b90815491600160401b8310156110cd57826124fb91600161468e950181556147d1565b1561516657565b60405162461bcd60e51b815260206004820152601c60248201527f4552433732313a20746f6b656e20616c7265616479206d696e746564000000006044820152606490fd5b156151b257565b60405162461bcd60e51b8152602060048201526016602482015275141c9bd91d58dd08191bd95cc81b9bdd08195e1a5cdd60521b6044820152606490fd5b60058210156111b35752565b6001600160401b0381116110cd5760051b60200190565b60405190615220826145de565b6009825268125bd508105b195c9d60ba1b602083015256fea2646970667358221220be0d72892c88c66d5ffa6f0b502e436e0562b4e4fded8430479c3ad04a54612464736f6c634300081300332f8788117e7eff1d82e926ec794901d17c78024a50270940304540a733656f0d",
  "linkReferences": {},
  "deployedLinkReferences": {}
}