{
  "_format": "hh-sol-artifact-1",
  "contractName": "ProTrack",
  "sourceName": "contracts/ProTrack.sol",
  "abi": [
    {
      "inputs": [],
      "stateMutability": "nonpayable",
      "type": "constructor"
    },
    {
      "inputs": [],
      "name": "AccessControlBadConfirmation",
      "type": "error"
    },
    {
      "inputs": [
        {
          "internalType": "address",
          "name": "account",
          "type": "address"
        },
        {
          "internalType": "bytes32",
          "name": "neededRole",
          "type": "bytes32"
        }
      ],
      "name": "AccessControlUnauthorizedAccount",
      "type": "error"
    },
    {
      "inputs": [
        {
          "internalType": "address",
          "name": "sender",
          "type": "address"
        },
        {
          "internalType": "uint256",
          "name": "tokenId",
          "type": "uint256"
        },
        {
          "internalType": "address",
          "name": "owner",
          "type": "address"
        }
      ],
      "name": "ERC721IncorrectOwner",
      "type": "error"
    },
    {
      "inputs": [
        {
          "internalType": "address",
          "name": "operator",
          "type": "address"
        },
        {
          "internalType": "uint256",
          "name": "tokenId",
          "type": "uint256"
        }
      ],
      "name": "ERC721InsufficientApproval",
      "type": "error"
    },
    {
      "inputs": [
        {
          "internalType": "address",
          "name": "approver",
          "type": "address"
        }
      ],
      "name": "ERC721InvalidApprover",
      "type": "error"
    },
    {
      "inputs": [
        {
          "internalType": "address",
          "name": "operator",
          "type": "address"
        }
      ],
      "name": "ERC721InvalidOperator",
      "type": "error"
    },
    {
      "inputs": [
        {
          "internalType": "address",
          "name": "owner",
          "type": "address"
        }
      ],
      "name": "ERC721InvalidOwner",
      "type": "error"
    },
    {
      "inputs": [
        {
          "internalType": "address",
          "name": "receiver",
          "type": "address"
        }
      ],
      "name": "ERC721InvalidReceiver",
      "type": "error"
    },
    {
      "inputs": [
        {
          "internalType": "address",
          "name": "sender",
          "type": "address"
        }
      ],
      "name": "ERC721InvalidSender",
      "type": "error"
    },
    {
      "inputs": [
        {
          "internalType": "uint256",
          "name": "tokenId",
          "type": "uint256"
        }
      ],
      "name": "ERC721NonexistentToken",
      "type": "error"
    },
    {
      "inputs": [],
      "name": "ReentrancyGuardReentrantCall",
      "type": "error"
    },
    {
      "anonymous": false,
      "inputs": [
        {
          "indexed": true,
          "internalType": "address",
          "name": "owner",
          "type": "address"
        },
        {
          "indexed": true,
          "internalType": "address",
          "name": "approved",
          "type": "address"
        },
        {
          "indexed": true,
          "internalType": "uint256",
          "name": "tokenId",
          "type": "uint256"
        }
      ],
      "name": "Approval",
      "type": "event"
    },
    {
      "anonymous": false,
      "inputs": [
        {
          "indexed": true,
          "internalType": "address",
          "name": "owner",
          "type": "address"
        },
        {
          "indexed": true,
          "internalType": "address",
          "name": "operator",
          "type": "address"
        },
        {
          "indexed": false,
          "internalType": "bool",
          "name": "approved",
          "type": "bool"
        }
      ],
      "name": "ApprovalForAll",
      "type": "event"
    },
    {
      "anonymous": false,
      "inputs": [
        {
          "indexed": false,
          "internalType": "uint256",
          "name": "_fromTokenId",
          "type": "uint256"
        },
        {
          "indexed": false,
          "internalType": "uint256",
          "name": "_toTokenId",
          "type": "uint256"
        }
      ],
      "name": "BatchMetadataUpdate",
      "type": "event"
    },
    {
      "anonymous": false,
      "inputs": [
        {
          "indexed": true,
          "internalType": "uint256",
          "name": "tokenId",
          "type": "uint256"
        },
        {
          "indexed": true,
          "internalType": "address",
          "name": "from",
          "type": "address"
        },
        {
          "indexed": true,
          "internalType": "address",
          "name": "to",
          "type": "address"
        },
        {
          "indexed": false,
          "internalType": "string",
          "name": "location",
          "type": "string"
        }
      ],
      "name": "CustodyTransferred",
      "type": "event"
    },
    {
      "anonymous": false,
      "inputs": [
        {
          "indexed": true,
          "internalType": "uint256",
          "name": "tokenId",
          "type": "uint256"
        },
        {
          "indexed": false,
          "internalType": "enum ProTrack.SensorType",
          "name": "sensorType",
          "type": "uint8"
        },
        {
          "indexed": false,
          "internalType": "int256",
          "name": "value",
          "type": "int256"
        },
        {
          "indexed": false,
          "internalType": "uint256",
          "name": "timestamp",
          "type": "uint256"
        }
      ],
      "name": "IoTDataRecorded",
      "type": "event"
    },
    {
      "anonymous": false,
      "inputs": [
        {
          "indexed": false,
          "internalType": "uint256",
          "name": "_tokenId",
          "type": "uint256"
        }
      ],
      "name": "MetadataUpdate",
      "type": "event"
    },
    {
      "anonymous": false,
      "inputs": [
        {
          "indexed": true,
          "internalType": "uint256",
          "name": "tokenId",
          "type": "uint256"
        },
        {
          "indexed": false,
          "internalType": "string",
          "name": "rfidHash",
          "type": "string"
        },
        {
          "indexed": false,
          "internalType": "string",
          "name": "barcode",
          "type": "string"
        },
        {
          "indexed": true,
          "internalType": "address",
          "name": "manufacturer",
          "type": "address"
        },
        {
          "indexed": false,
          "internalType": "string",
          "name": "productName",
          "type": "string"
        }
      ],
      "name": "ProductMinted",
      "type": "event"
    },
    {
      "anonymous": false,
      "inputs": [
        {
          "indexed": true,
          "internalType": "uint256",
          "name": "tokenId",
          "type": "uint256"
        },
        {
          "indexed": false,
          "internalType": "string",
          "name": "batchId",
          "type": "string"
        }
      ],
      "name": "ProductPackaged",
      "type": "event"
    },
    {
      "anonymous": false,
      "inputs": [
        {
          "indexed": true,
          "internalType": "uint256",
          "name": "tokenId",
          "type": "uint256"
        },
        {
          "indexed": true,
          "internalType": "address",
          "name": "initiator",
          "type": "address"
        },
        {
          "indexed": false,
          "internalType": "string",
          "name": "reason",
          "type": "string"
        }
      ],
      "name": "ProductRecalled",
      "type": "event"
    },
    {
      "anonymous": false,
      "inputs": [
        {
          "indexed": true,
          "internalType": "uint256",
          "name": "tokenId",
          "type": "uint256"
        },
        {
          "indexed": false,
          "internalType": "enum ProTrack.ProductStatus",
          "name": "status",
          "type": "uint8"
        },
        {
          "indexed": false,
          "internalType": "address",
          "name": "updatedBy",
          "type": "address"
        }
      ],
      "name": "ProductStatusUpdated",
      "type": "event"
    },
    {
      "anonymous": false,
      "inputs": [
        {
          "indexed": true,
          "internalType": "bytes32",
          "name": "role",
          "type": "bytes32"
        },
        {
          "indexed": true,
          "internalType": "bytes32",
          "name": "previousAdminRole",
          "type": "bytes32"
        },
        {
          "indexed": true,
          "internalType": "bytes32",
          "name": "newAdminRole",
          "type": "bytes32"
        }
      ],
      "name": "RoleAdminChanged",
      "type": "event"
    },
    {
      "anonymous": false,
      "inputs": [
        {
          "indexed": true,
          "internalType": "bytes32",
          "name": "role",
          "type": "bytes32"
        },
        {
          "indexed": true,
          "internalType": "address",
          "name": "account",
          "type": "address"
        },
        {
          "indexed": true,
          "internalType": "address",
          "name": "sender",
          "type": "address"
        }
      ],
      "name": "RoleGranted",
      "type": "event"
    },
    {
      "anonymous": false,
      "inputs": [
        {
          "indexed": true,
          "internalType": "bytes32",
          "name": "role",
          "type": "bytes32"
        },
        {
          "indexed": true,
          "internalType": "address",
          "name": "account",
          "type": "address"
        },
        {
          "indexed": true,
          "internalType": "address",
          "name": "sender",
          "type": "address"
        }
      ],
      "name": "RoleRevoked",
      "type": "event"
    },
    {
      "anonymous": false,
      "inputs": [
        {
          "indexed": true,
          "internalType": "uint256",
          "name": "shipmentId",
          "type": "uint256"
        },
        {
          "indexed": false,
          "internalType": "string",
          "name": "tempKeyId",
          "type": "string"
        }
      ],
      "name": "ShipmentApproved",
      "type": "event"
    },
    {
      "anonymous": false,
      "inputs": [
        {
          "indexed": true,
          "internalType": "uint256",
          "name": "shipmentId",
          "type": "uint256"
        },
        {
          "indexed": false,
          "internalType": "uint256",
          "name": "confirmedAt",
          "type": "uint256"
        }
      ],
      "name": "ShipmentConfirmed",
      "type": "event"
    },
    {
      "anonymous": false,
      "inputs": [
        {
          "indexed": true,
          "internalType": "uint256",
          "name": "shipmentId",
          "type": "uint256"
        },
        {
          "indexed": false,
          "internalType": "uint256",
          "name": "deliveredAt",
          "type": "uint256"
        }
      ],
      "name": "ShipmentDelivered",
      "type": "event"
    },
    {
      "anonymous": false,
      "inputs": [
        {
          "indexed": true,
          "internalType": "uint256",
          "name": "shipmentId",
          "type": "uint256"
        },
        {
          "indexed": true,
          "internalType": "uint256",
          "name": "productId",
          "type": "uint256"
        },
        {
          "indexed": true,
          "internalType": "address",
          "name": "from",
          "type": "address"
        },
        {
          "indexed": false,
          "internalType": "address",
          "name": "to",
          "type": "address"
        }
      ],
      "name": "ShipmentRequested",
      "type": "event"
    },
    {
      "anonymous": false,
      "inputs": [
        {
          "indexed": true,
          "internalType": "address",
          "name": "from",
          "type": "address"
        },
        {
          "indexed": true,
          "internalType": "address",
          "name": "to",
          "type": "address"
        },
        {
          "indexed": true,
          "internalType": "uint256",
          "name": "tokenId",
          "type": "uint256"
        }
      ],
      "name": "Transfer",
      "type": "event"
    },
    {
      "inputs": [],
      "name": "ADMIN_ROLE",
      "outputs": [
        {
          "internalType": "bytes32",
          "name": "",
          "type": "bytes32"
        }
      ],
      "stateMutability": "view",
      "type": "function"
    },
    {
      "inputs": [],
      "name": "CUSTOMER_ROLE",
      "outputs": [
        {
          "internalType": "bytes32",
          "name": "",
          "type": "bytes32"
        }
      ],
      "stateMutability": "view",
      "type": "function"
    },
    {
      "inputs": [],
      "name": "DEFAULT_ADMIN_ROLE",
      "outputs": [
        {
          "internalType": "bytes32",
          "name": "",
          "type": "bytes32"
        }
      ],
      "stateMutability": "view",
      "type": "function"
    },
    {
      "inputs": [],
      "name": "INSPECTOR_ROLE",
      "outputs": [
        {
          "internalType": "bytes32",
          "name": "",
          "type": "bytes32"
        }
      ],
      "stateMutability": "view",
      "type": "function"
    },
    {
      "inputs": [],
      "name": "MANUFACTURER_ROLE",
      "outputs": [
        {
          "internalType": "bytes32",
          "name": "",
          "type": "bytes32"
        }
      ],
      "stateMutability": "view",
      "type": "function"
    },
    {
      "inputs": [],
      "name": "ORACLE_ROLE",
      "outputs": [
        {
          "internalType": "bytes32",
          "name": "",
          "type": "bytes32"
        }
      ],
      "stateMutability": "view",
      "type": "function"
    },
    {
      "inputs": [],
      "name": "PACKAGER_ROLE",
      "outputs": [
        {
          "internalType": "bytes32",
          "name": "",
          "type": "bytes32"
        }
      ],
      "stateMutability": "view",
      "type": "function"
    },
    {
      "inputs": [],
      "name": "RETAILER_ROLE",
      "outputs": [
        {
          "internalType": "bytes32",
          "name": "",
          "type": "bytes32"
        }
      ],
      "stateMutability": "view",
      "type": "function"
    },
    {
      "inputs": [],
      "name": "TRANSPORTER_ROLE",
      "outputs": [
        {
          "internalType": "bytes32",
          "name": "",
          "type": "bytes32"
        }
      ],
      "stateMutability": "view",
      "type": "function"
    },
    {
      "inputs": [],
      "name": "WHOLESALER_ROLE",
      "outputs": [
        {
          "internalType": "bytes32",
          "name": "",
          "type": "bytes32"
        }
      ],
      "stateMutability": "view",
      "type": "function"
    },
    {
      "inputs": [
        {
          "internalType": "address",
          "name": "to",
          "type": "address"
        },
        {
          "internalType": "uint256",
          "name": "tokenId",
          "type": "uint256"
        }
      ],
      "name": "approve",
      "outputs": [],
      "stateMutability": "nonpayable",
      "type": "function"
    },
    {
      "inputs": [
        {
          "internalType": "uint256",
          "name": "shipmentId",
          "type": "uint256"
        }
      ],
      "name": "approveShipment",
      "outputs": [],
      "stateMutability": "nonpayable",
      "type": "function"
    },
    {
      "inputs": [
        {
          "internalType": "uint256",
          "name": "",
          "type": "uint256"
        },
        {
          "internalType": "address",
          "name": "",
          "type": "address"
        }
      ],
      "name": "authorizedViewers",
      "outputs": [
        {
          "internalType": "bool",
          "name": "",
          "type": "bool"
        }
      ],
      "stateMutability": "view",
      "type": "function"
    },
    {
      "inputs": [
        {
          "internalType": "address",
          "name": "owner",
          "type": "address"
        }
      ],
      "name": "balanceOf",
      "outputs": [
        {
          "internalType": "uint256",
          "name": "",
          "type": "uint256"
        }
      ],
      "stateMutability": "view",
      "type": "function"
    },
    {
      "inputs": [
        {
          "internalType": "string",
          "name": "",
          "type": "string"
        }
      ],
      "name": "barcodeToTokenId",
      "outputs": [
        {
          "internalType": "uint256",
          "name": "",
          "type": "uint256"
        }
      ],
      "stateMutability": "view",
      "type": "function"
    },
    {
      "inputs": [
        {
          "internalType": "uint256",
          "name": "shipmentId",
          "type": "uint256"
        },
        {
          "internalType": "string",
          "name": "location",
          "type": "string"
        }
      ],
      "name": "confirmReceipt",
      "outputs": [],
      "stateMutability": "nonpayable",
      "type": "function"
    },
    {
      "inputs": [
        {
          "internalType": "uint256",
          "name": "shipmentId",
          "type": "uint256"
        }
      ],
      "name": "confirmShipmentCompletion",
      "outputs": [],
      "stateMutability": "nonpayable",
      "type": "function"
    },
    {
      "inputs": [
        {
          "internalType": "uint256",
          "name": "tokenId",
          "type": "uint256"
        }
      ],
      "name": "getApproved",
      "outputs": [
        {
          "internalType": "address",
          "name": "",
          "type": "address"
        }
      ],
      "stateMutability": "view",
      "type": "function"
    },
    {
      "inputs": [
        {
          "internalType": "uint256",
          "name": "tokenId",
          "type": "uint256"
        }
      ],
      "name": "getIoTData",
      "outputs": [
        {
          "components": [
            {
              "internalType": "uint256",
              "name": "productId",
              "type": "uint256"
            },
            {
              "internalType": "enum ProTrack.SensorType",
              "name": "sensorType",
              "type": "uint8"
            },
            {
              "internalType": "int256",
              "name": "value",
              "type": "int256"
            },
            {
              "internalType": "string",
              "name": "unit",
              "type": "string"
            },
            {
              "internalType": "string",
              "name": "gpsCoordinates",
              "type": "string"
            },
            {
              "internalType": "address",
              "name": "provider",
              "type": "address"
            },
            {
              "internalType": "uint256",
              "name": "timestamp",
              "type": "uint256"
            },
            {
              "internalType": "bool",
              "name": "verified",
              "type": "bool"
            },
            {
              "internalType": "string",
              "name": "ipfsCID",
              "type": "string"
            }
          ],
          "internalType": "struct ProTrack.IoTData[]",
          "name": "",
          "type": "tuple[]"
        }
      ],
      "stateMutability": "view",
      "type": "function"
    },
    {
      "inputs": [
        {
          "internalType": "uint256",
          "name": "tokenId",
          "type": "uint256"
        }
      ],
      "name": "getProduct",
      "outputs": [
        {
          "components": [
            {
              "internalType": "string",
              "name": "rfidHash",
              "type": "string"
            },
            {
              "internalType": "string",
              "name": "barcode",
              "type": "string"
            },
            {
              "internalType": "string",
              "name": "productName",
              "type": "string"
            },
            {
              "internalType": "string",
              "name": "batchId",
              "type": "string"
            },
            {
              "internalType": "uint256",
              "name": "manufactureDate",
              "type": "uint256"
            },
            {
              "internalType": "uint256",
              "name": "expiryDate",
              "type": "uint256"
            },
            {
              "internalType": "string",
              "name": "ipfsMetadataCID",
              "type": "string"
            },
            {
              "internalType": "enum ProTrack.ProductStatus",
              "name": "status",
              "type": "uint8"
            },
            {
              "internalType": "address",
              "name": "manufacturer",
              "type": "address"
            },
            {
              "internalType": "address",
              "name": "currentCustodian",
              "type": "address"
            },
            {
              "internalType": "string",
              "name": "currentLocation",
              "type": "string"
            },
            {
              "internalType": "uint256",
              "name": "lastUpdated",
              "type": "uint256"
            },
            {
              "internalType": "bool",
              "name": "isSoulbound",
              "type": "bool"
            },
            {
              "internalType": "bool",
              "name": "isRecalled",
              "type": "bool"
            }
          ],
          "internalType": "struct ProTrack.Product",
          "name": "",
          "type": "tuple"
        }
      ],
      "stateMutability": "view",
      "type": "function"
    },
    {
      "inputs": [
        {
          "internalType": "uint256",
          "name": "tokenId",
          "type": "uint256"
        }
      ],
      "name": "getProductShipments",
      "outputs": [
        {
          "internalType": "uint256[]",
          "name": "",
          "type": "uint256[]"
        }
      ],
      "stateMutability": "view",
      "type": "function"
    },
    {
      "inputs": [
        {
          "internalType": "bytes32",
          "name": "role",
          "type": "bytes32"
        }
      ],
      "name": "getRoleAdmin",
      "outputs": [
        {
          "internalType": "bytes32",
          "name": "",
          "type": "bytes32"
        }
      ],
      "stateMutability": "view",
      "type": "function"
    },
    {
      "inputs": [
        {
          "internalType": "uint256",
          "name": "shipmentId",
          "type": "uint256"
        }
      ],
      "name": "getShipment",
      "outputs": [
        {
          "components": [
            {
              "internalType": "uint256",
              "name": "productId",
              "type": "uint256"
            },
            {
              "internalType": "address",
              "name": "fromParty",
              "type": "address"
            },
            {
              "internalType": "address",
              "name": "toParty",
              "type": "address"
            },
            {
              "internalType": "enum ProTrack.ShipmentStatus",
              "name": "status",
              "type": "uint8"
            },
            {
              "internalType": "string",
              "name": "tempKeyId",
              "type": "string"
            },
            {
              "internalType": "string",
              "name": "trackingInfo",
              "type": "string"
            },
            {
              "internalType": "uint256",
              "name": "requestedAt",
              "type": "uint256"
            },
            {
              "internalType": "uint256",
              "name": "approvedAt",
              "type": "uint256"
            },
            {
              "internalType": "uint256",
              "name": "shippedAt",
              "type": "uint256"
            },
            {
              "internalType": "uint256",
              "name": "deliveredAt",
              "type": "uint256"
            },
            {
              "internalType": "uint256",
              "name": "confirmedAt",
              "type": "uint256"
            }
          ],
          "internalType": "struct ProTrack.Shipment",
          "name": "",
          "type": "tuple"
        }
      ],
      "stateMutability": "view",
      "type": "function"
    },
    {
      "inputs": [
        {
          "internalType": "bytes32",
          "name": "role",
          "type": "bytes32"
        },
        {
          "internalType": "address",
          "name": "account",
          "type": "address"
        }
      ],
      "name": "grantRole",
      "outputs": [],
      "stateMutability": "nonpayable",
      "type": "function"
    },
    {
      "inputs": [
        {
          "internalType": "uint256",
          "name": "tokenId",
          "type": "uint256"
        },
        {
          "internalType": "address",
          "name": "user",
          "type": "address"
        }
      ],
      "name": "hasProductAccess",
      "outputs": [
        {
          "internalType": "bool",
          "name": "",
          "type": "bool"
        }
      ],
      "stateMutability": "view",
      "type": "function"
    },
    {
      "inputs": [
        {
          "internalType": "bytes32",
          "name": "role",
          "type": "bytes32"
        },
        {
          "internalType": "address",
          "name": "account",
          "type": "address"
        }
      ],
      "name": "hasRole",
      "outputs": [
        {
          "internalType": "bool",
          "name": "",
          "type": "bool"
        }
      ],
      "stateMutability": "view",
      "type": "function"
    },
    {
      "inputs": [
        {
          "internalType": "address",
          "name": "owner",
          "type": "address"
        },
        {
          "internalType": "address",
          "name": "operator",
          "type": "address"
        }
      ],
      "name": "isApprovedForAll",
      "outputs": [
        {
          "internalType": "bool",
          "name": "",
          "type": "bool"
        }
      ],
      "stateMutability": "view",
      "type": "function"
    },
    {
      "inputs": [
        {
          "internalType": "uint256",
          "name": "tokenId",
          "type": "uint256"
        }
      ],
      "name": "isProductRecalled",
      "outputs": [
        {
          "internalType": "bool",
          "name": "",
          "type": "bool"
        }
      ],
      "stateMutability": "view",
      "type": "function"
    },
    {
      "inputs": [
        {
          "internalType": "uint256",
          "name": "tokenId",
          "type": "uint256"
        },
        {
          "internalType": "string",
          "name": "batchId",
          "type": "string"
        }
      ],
      "name": "logPackaging",
      "outputs": [],
      "stateMutability": "nonpayable",
      "type": "function"
    },
    {
      "inputs": [
        {
          "internalType": "uint256",
          "name": "tokenId",
          "type": "uint256"
        }
      ],
      "name": "makeSoulbound",
      "outputs": [],
      "stateMutability": "nonpayable",
      "type": "function"
    },
    {
      "inputs": [
        {
          "internalType": "string",
          "name": "rfidHash",
          "type": "string"
        },
        {
          "internalType": "string",
          "name": "barcode",
          "type": "string"
        },
        {
          "internalType": "string",
          "name": "productName",
          "type": "string"
        },
        {
          "internalType": "string",
          "name": "batchId",
          "type": "string"
        },
        {
          "internalType": "uint256",
          "name": "expiryDate",
          "type": "uint256"
        },
        {
          "internalType": "string",
          "name": "ipfsMetadataCID",
          "type": "string"
        },
        {
          "internalType": "address",
          "name": "owner",
          "type": "address"
        }
      ],
      "name": "mintProduct",
      "outputs": [
        {
          "internalType": "uint256",
          "name": "",
          "type": "uint256"
        }
      ],
      "stateMutability": "nonpayable",
      "type": "function"
    },
    {
      "inputs": [],
      "name": "name",
      "outputs": [
        {
          "internalType": "string",
          "name": "",
          "type": "string"
        }
      ],
      "stateMutability": "view",
      "type": "function"
    },
    {
      "inputs": [
        {
          "internalType": "uint256",
          "name": "tokenId",
          "type": "uint256"
        }
      ],
      "name": "ownerOf",
      "outputs": [
        {
          "internalType": "address",
          "name": "",
          "type": "address"
        }
      ],
      "stateMutability": "view",
      "type": "function"
    },
    {
      "inputs": [
        {
          "internalType": "uint256",
          "name": "",
          "type": "uint256"
        },
        {
          "internalType": "uint256",
          "name": "",
          "type": "uint256"
        }
      ],
      "name": "productIoTData",
      "outputs": [
        {
          "internalType": "uint256",
          "name": "productId",
          "type": "uint256"
        },
        {
          "internalType": "enum ProTrack.SensorType",
          "name": "sensorType",
          "type": "uint8"
        },
        {
          "internalType": "int256",
          "name": "value",
          "type": "int256"
        },
        {
          "internalType": "string",
          "name": "unit",
          "type": "string"
        },
        {
          "internalType": "string",
          "name": "gpsCoordinates",
          "type": "string"
        },
        {
          "internalType": "address",
          "name": "provider",
          "type": "address"
        },
        {
          "internalType": "uint256",
          "name": "timestamp",
          "type": "uint256"
        },
        {
          "internalType": "bool",
          "name": "verified",
          "type": "bool"
        },
        {
          "internalType": "string",
          "name": "ipfsCID",
          "type": "string"
        }
      ],
      "stateMutability": "view",
      "type": "function"
    },
    {
      "inputs": [
        {
          "internalType": "uint256",
          "name": "",
          "type": "uint256"
        }
      ],
      "name": "productKeys",
      "outputs": [
        {
          "internalType": "bytes32",
          "name": "senderKey",
          "type": "bytes32"
        },
        {
          "internalType": "bytes32",
          "name": "receiverKey",
          "type": "bytes32"
        },
        {
          "internalType": "uint256",
          "name": "createdAt",
          "type": "uint256"
        },
        {
          "internalType": "uint256",
          "name": "expiresAt",
          "type": "uint256"
        }
      ],
      "stateMutability": "view",
      "type": "function"
    },
    {
      "inputs": [
        {
          "internalType": "uint256",
          "name": "",
          "type": "uint256"
        },
        {
          "internalType": "uint256",
          "name": "",
          "type": "uint256"
        }
      ],
      "name": "productShipments",
      "outputs": [
        {
          "internalType": "uint256",
          "name": "",
          "type": "uint256"
        }
      ],
      "stateMutability": "view",
      "type": "function"
    },
    {
      "inputs": [
        {
          "internalType": "uint256",
          "name": "",
          "type": "uint256"
        }
      ],
      "name": "products",
      "outputs": [
        {
          "internalType": "string",
          "name": "rfidHash",
          "type": "string"
        },
        {
          "internalType": "string",
          "name": "barcode",
          "type": "string"
        },
        {
          "internalType": "string",
          "name": "productName",
          "type": "string"
        },
        {
          "internalType": "string",
          "name": "batchId",
          "type": "string"
        },
        {
          "internalType": "uint256",
          "name": "manufactureDate",
          "type": "uint256"
        },
        {
          "internalType": "uint256",
          "name": "expiryDate",
          "type": "uint256"
        },
        {
          "internalType": "string",
          "name": "ipfsMetadataCID",
          "type": "string"
        },
        {
          "internalType": "enum ProTrack.ProductStatus",
          "name": "status",
          "type": "uint8"
        },
        {
          "internalType": "address",
          "name": "manufacturer",
          "type": "address"
        },
        {
          "internalType": "address",
          "name": "currentCustodian",
          "type": "address"
        },
        {
          "internalType": "string",
          "name": "currentLocation",
          "type": "string"
        },
        {
          "internalType": "uint256",
          "name": "lastUpdated",
          "type": "uint256"
        },
        {
          "internalType": "bool",
          "name": "isSoulbound",
          "type": "bool"
        },
        {
          "internalType": "bool",
          "name": "isRecalled",
          "type": "bool"
        }
      ],
      "stateMutability": "view",
      "type": "function"
    },
    {
      "inputs": [
        {
          "internalType": "uint256",
          "name": "tokenId",
          "type": "uint256"
        },
        {
          "internalType": "string",
          "name": "reason",
          "type": "string"
        }
      ],
      "name": "recallProduct",
      "outputs": [],
      "stateMutability": "nonpayable",
      "type": "function"
    },
    {
      "inputs": [
        {
          "internalType": "uint256",
          "name": "tokenId",
          "type": "uint256"
        },
        {
          "internalType": "enum ProTrack.SensorType",
          "name": "sensorType",
          "type": "uint8"
        },
        {
          "internalType": "int256",
          "name": "value",
          "type": "int256"
        },
        {
          "internalType": "string",
          "name": "unit",
          "type": "string"
        },
        {
          "internalType": "string",
          "name": "gpsCoordinates",
          "type": "string"
        },
        {
          "internalType": "string",
          "name": "ipfsCID",
          "type": "string"
        }
      ],
      "name": "recordIoT",
      "outputs": [],
      "stateMutability": "nonpayable",
      "type": "function"
    },
    {
      "inputs": [
        {
          "internalType": "bytes32",
          "name": "role",
          "type": "bytes32"
        },
        {
          "internalType": "address",
          "name": "callerConfirmation",
          "type": "address"
        }
      ],
      "name": "renounceRole",
      "outputs": [],
      "stateMutability": "nonpayable",
      "type": "function"
    },
    {
      "inputs": [
        {
          "internalType": "uint256",
          "name": "tokenId",
          "type": "uint256"
        },
        {
          "internalType": "address",
          "name": "to",
          "type": "address"
        },
        {
          "internalType": "string",
          "name": "tempKeyId",
          "type": "string"
        },
        {
          "internalType": "string",
          "name": "trackingInfo",
          "type": "string"
        }
      ],
      "name": "requestShipment",
      "outputs": [
        {
          "internalType": "uint256",
          "name": "",
          "type": "uint256"
        }
      ],
      "stateMutability": "nonpayable",
      "type": "function"
    },
    {
      "inputs": [
        {
          "internalType": "bytes32",
          "name": "role",
          "type": "bytes32"
        },
        {
          "internalType": "address",
          "name": "account",
          "type": "address"
        }
      ],
      "name": "revokeRole",
      "outputs": [],
      "stateMutability": "nonpayable",
      "type": "function"
    },
    {
      "inputs": [
        {
          "internalType": "string",
          "name": "",
          "type": "string"
        }
      ],
      "name": "rfidToTokenId",
      "outputs": [
        {
          "internalType": "uint256",
          "name": "",
          "type": "uint256"
        }
      ],
      "stateMutability": "view",
      "type": "function"
    },
    {
      "inputs": [
        {
          "internalType": "address",
          "name": "from",
          "type": "address"
        },
        {
          "internalType": "address",
          "name": "to",
          "type": "address"
        },
        {
          "internalType": "uint256",
          "name": "tokenId",
          "type": "uint256"
        }
      ],
      "name": "safeTransferFrom",
      "outputs": [],
      "stateMutability": "nonpayable",
      "type": "function"
    },
    {
      "inputs": [
        {
          "internalType": "address",
          "name": "from",
          "type": "address"
        },
        {
          "internalType": "address",
          "name": "to",
          "type": "address"
        },
        {
          "internalType": "uint256",
          "name": "tokenId",
          "type": "uint256"
        },
        {
          "internalType": "bytes",
          "name": "data",
          "type": "bytes"
        }
      ],
      "name": "safeTransferFrom",
      "outputs": [],
      "stateMutability": "nonpayable",
      "type": "function"
    },
    {
      "inputs": [
        {
          "internalType": "address",
          "name": "operator",
          "type": "address"
        },
        {
          "internalType": "bool",
          "name": "approved",
          "type": "bool"
        }
      ],
      "name": "setApprovalForAll",
      "outputs": [],
      "stateMutability": "nonpayable",
      "type": "function"
    },
    {
      "inputs": [
        {
          "internalType": "uint256",
          "name": "shipmentId",
          "type": "uint256"
        }
      ],
      "name": "shipProduct",
      "outputs": [],
      "stateMutability": "nonpayable",
      "type": "function"
    },
    {
      "inputs": [
        {
          "internalType": "uint256",
          "name": "",
          "type": "uint256"
        }
      ],
      "name": "shipments",
      "outputs": [
        {
          "internalType": "uint256",
          "name": "productId",
          "type": "uint256"
        },
        {
          "internalType": "address",
          "name": "fromParty",
          "type": "address"
        },
        {
          "internalType": "address",
          "name": "toParty",
          "type": "address"
        },
        {
          "internalType": "enum ProTrack.ShipmentStatus",
          "name": "status",
          "type": "uint8"
        },
        {
          "internalType": "string",
          "name": "tempKeyId",
          "type": "string"
        },
        {
          "internalType": "string",
          "name": "trackingInfo",
          "type": "string"
        },
        {
          "internalType": "uint256",
          "name": "requestedAt",
          "type": "uint256"
        },
        {
          "internalType": "uint256",
          "name": "approvedAt",
          "type": "uint256"
        },
        {
          "internalType": "uint256",
          "name": "shippedAt",
          "type": "uint256"
        },
        {
          "internalType": "uint256",
          "name": "deliveredAt",
          "type": "uint256"
        },
        {
          "internalType": "uint256",
          "name": "confirmedAt",
          "type": "uint256"
        }
      ],
      "stateMutability": "view",
      "type": "function"
    },
    {
      "inputs": [
        {
          "internalType": "bytes4",
          "name": "interfaceId",
          "type": "bytes4"
        }
      ],
      "name": "supportsInterface",
      "outputs": [
        {
          "internalType": "bool",
          "name": "",
          "type": "bool"
        }
      ],
      "stateMutability": "view",
      "type": "function"
    },
    {
      "inputs": [],
      "name": "symbol",
      "outputs": [
        {
          "internalType": "string",
          "name": "",
          "type": "string"
        }
      ],
      "stateMutability": "view",
      "type": "function"
    },
    {
      "inputs": [
        {
          "internalType": "uint256",
          "name": "tokenId",
          "type": "uint256"
        }
      ],
      "name": "tokenURI",
      "outputs": [
        {
          "internalType": "string",
          "name": "",
          "type": "string"
        }
      ],
      "stateMutability": "view",
      "type": "function"
    },
    {
      "inputs": [
        {
          "internalType": "uint256",
          "name": "tokenId",
          "type": "uint256"
        },
        {
          "internalType": "address",
          "name": "to",
          "type": "address"
        },
        {
          "internalType": "string",
          "name": "location",
          "type": "string"
        }
      ],
      "name": "transferCustody",
      "outputs": [],
      "stateMutability": "nonpayable",
      "type": "function"
    },
    {
      "inputs": [
        {
          "internalType": "address",
          "name": "from",
          "type": "address"
        },
        {
          "internalType": "address",
          "name": "to",
          "type": "address"
        },
        {
          "internalType": "uint256",
          "name": "tokenId",
          "type": "uint256"
        }
      ],
      "name": "transferFrom",
      "outputs": [],
      "stateMutability": "nonpayable",
      "type": "function"
    },
    {
      "inputs": [
        {
          "internalType": "uint256",
          "name": "tokenId",
          "type": "uint256"
        },
        {
          "internalType": "string",
          "name": "location",
          "type": "string"
        }
      ],
      "name": "updateLocation",
      "outputs": [],
      "stateMutability": "nonpayable",
      "type": "function"
    }
  ],
  "bytecode": "0x60803462000344576001600160401b0390604090808201838111828210176200032e578252601581526020927f50726f547261636b20537570706c7920436861696e0000000000000000000000848301528251838101818110838211176200032e57845260048152635054534360e01b858201528251908282116200032e5760008054926001958685811c9516801562000323575b898610146200030f578190601f95868111620002bc575b508990868311600114620002585784926200024c575b5050600019600383901b1c191690861b1781555b8151938411620002385784548581811c911680156200022d575b888210146200021957838111620001d1575b50869284116001146200016b578394959650926200015f575b5050600019600383901b1c191690821b1781555b806008556200013d3362000349565b506200014933620003ca565b50806011556012555161516490816200046e8239f35b0151905038806200011a565b9190601f1984169685845280842093905b888210620001b957505083859697106200019f575b505050811b0181556200012e565b015160001960f88460031b161c1916905538808062000191565b8087859682949686015181550195019301906200017c565b8582528782208480870160051c8201928a88106200020f575b0160051c019086905b8281106200020357505062000101565b838155018690620001f3565b92508192620001ea565b634e487b7160e01b82526022600452602482fd5b90607f1690620000ef565b634e487b7160e01b81526041600452602490fd5b015190503880620000c1565b8480528a85208994509190601f198416865b8d828210620002a557505084116200028b575b505050811b018155620000d5565b015160001960f88460031b161c191690553880806200027d565b8385015186558c979095019493840193016200026a565b9091508380528984208680850160051c8201928c861062000305575b918a91869594930160051c01915b828110620002f6575050620000ab565b8681558594508a9101620002e6565b92508192620002d8565b634e487b7160e01b83526022600452602483fd5b94607f169462000094565b634e487b7160e01b600052604160045260246000fd5b600080fd5b6001600160a01b031660008181527f6d5257204ebe7d88fd91ae87941cb2dd9d8062b64ae5a2bd2d28ec40b9fbf6df602052604081205490919060ff16620003c65781805260076020526040822081835260205260408220600160ff198254161790553391600080516020620055d28339815191528180a4600190565b5090565b6001600160a01b031660008181527fa70365933f78520ef41d6645ba61e509916296603327302d41466c063e8e260860205260408120549091907fa49807205ce4d355092ef5a8a18f56e8913cf4a201fbe287825b095693c217759060ff16620004685780835260076020526040832082845260205260408320600160ff19825416179055600080516020620055d2833981519152339380a4600190565b50509056fe6080604052600436101561001257600080fd5b60003560e01c806301ab6e0914613f4a57806301ffc9a714613ea957806306fdde0314613e0657806307e2cea514613dcb57806308021d1e14613da3578063081812fc14613d65578063092b374014613b90578063095ea7b314613aa95780630c8b0e57146139d25780631020f783146138c6578063115da32e146137da578063204d79231461379f5780632115e7bf1461376457806323b872dd1461374d578063248a9ca31461371e5780632927d1d9146136275780632ac08a93146135325780632f2ff15d146134f35780632fe9f958146134b457806336568abe1461346d5780634037ee3f1461342457806342842e0e146133fc5780634601bef8146124d657806348fd93d0146121485780634a6323d614611acb5780634bc39ec2146119d45780634eabbe77146119995780634ec0c9e91461177b5780636352211e1461174b5780636b1023dd146116fd57806370a08231146116a457806375b238fc1461167b5780637acc0b20146114c4578063910bc3a1146111f457806391d14854146111a757806395d89b41146110c8578063965288b01461108d5780639ce0f97314610f67578063a217fddf14610f4b578063a22cb46514610e9d578063a40b9ddf14610e62578063a591eea114610da7578063b5788b4914610d5a578063b88d4fde14610cfb578063b9db15b414610a22578063bedd1136146109c6578063c87b56dd1461095f578063ced2dea4146108b9578063d547741f14610878578063d7cb8d341461083d578063e3a3c52214610802578063e985e9c5146107ac578063ee83687b146105a85763f04fe44e1461026e57600080fd5b346105a35761027c366148d8565b3360009081527fac424760c614b43c69c667e7978906b93f2529d8f189750a0fe2c43d25b8120860209081526040909120549091907f6e94c7ed7681edd364a52ba21181e7713b286d5c7e6bbaca72cfe62d41ea09d99060ff1615610585575060008381526002835260409020546102fe906001600160a01b03161515614e50565b826000526009825260ff60076040600020015416600681101561056f576105145782600052600982526003604060002001908051916001600160401b0383116104fe57849261034d82546147ae565b601f81116104a9575b5084601f821160011461040a576000805160206150ef833981519152959360409593837fe96ef10f180f263bdeac0d9641cf09dc9a2aa47fe9399f417c14a782338cbe10946103ed946000916103ff575b508160011b916000199060031b1c19161790555b83600052600985528560002060078101600160ff19825416179055600a42910155855191829186835286830190614734565b0390a2815190600182523390820152a2005b9050830151386103a7565b601f1982169083600052866000209160005b81811061048f5750936001846103ed946000805160206150ef8339815191529a98947fe96ef10f180f263bdeac0d9641cf09dc9a2aa47fe9399f417c14a782338cbe109760409b9910610476575b5050811b0190556103bb565b85015160001960f88460031b161c19169055388061046a565b82870151845589975060019093019291880191880161041c565b90918093945060005284600020601f830160051c8101918684106104f4575b90601f8896959493920160051c01905b8181106104e55750610356565b600081558795506001016104d8565b90915081906104c8565b634e487b7160e01b600052604160045260246000fd5b60405162461bcd60e51b815260048101839052602d60248201527f50726f64756374206d757374206265206d616e7566616374757265642062656660448201526c6f7265207061636b6167696e6760981b6064820152608490fd5b634e487b7160e01b600052602160045260246000fd5b6044906040519063e2517d3f60e01b82523360048301526024820152fd5b600080fd5b346105a3576020806003193601126105a357600435600052600b81526040600020908154916001600160401b0383116104fe57604051916005936105f08282871b0185614680565b8084528184018093600052826000206000915b8383106106eb5750505050604051928184019082855251809152604081818601961b85010192916000955b82871061063b5785850386f35b9091929382806106db600193603f198a8203018652885180518252610666848201518584019061487e565b604081015160408301526106a061068d606080840151906101208091870152850190614734565b6080808401519085830390860152614734565b9160a0878060a01b0381840151169082015260c0808301519082015260e0820151151560e08201526101008092015191818403910152614734565b960192019601959291909261062e565b60098560019260409997995161070081614613565b8554815260ff610717818789015416858401614f5c565b6002870154604083015260405161073c816107358160038c016147e8565b0382614680565b6060830152604051610755816107358160048c016147e8565b6080830152858060a01b038d8801541660a0830152600687015460c0830152600787015416151560e0820152604051610795816107358160088b016147e8565b610100820152815201920192019190959395610603565b346105a35760403660031901126105a3576107c56145c5565b6107cd6145af565b9060018060a01b03809116600052600560205260406000209116600052602052602060ff604060002054166040519015158152f35b346105a35760003660031901126105a35760206040517f273dcf2136c7d8ef632bb8ef13dbca69a8f36fa620c7468671b3153d46a211c08152f35b346105a35760003660031901126105a35760206040517fe34aaecbfe1f40867dcba8678fbed9f4ffa5782221fa3bb500b71b2a804303188152f35b346105a35760403660031901126105a3576108b76004356108976145af565b908060005260076020526108b26001604060002001546149ba565b614a60565b005b346105a3576020806003193601126105a357600435600052600e8152604060002060405190818382549182815201908192600052846000209060005b8682821061094b57868661090b82880383614680565b604051928392818401908285525180915260408401929160005b82811061093457505050500390f35b835185528695509381019392810192600101610925565b8354855290930192600192830192016108f5565b346105a35760203660031901126105a35760043561097c81614e06565b5060005260066020526109c261073561099f6040600020604051928380926147e8565b60006040516109ad8161464a565b52604051918291602083526020830190614734565b0390f35b346105a35760203660031901126105a3576004356001600160401b0381116105a357610a0f60206109fc819336906004016146f3565b8160405193828580945193849201614711565b8101600c81520301902054604051908152f35b346105a35760203660031901126105a35760043560006101a0604051610a47816145f7565b6060815260606020820152606060408201526060808201528260808201528260a0820152606060c08201528260e08201528261010082015282610120820152606061014082015282610160820152826101808201520152806000526002602052610abf60018060a01b03604060002054161515614e50565b6000526009602052604060002060405190610ad9826145f7565b604051610aea8161073581856147e8565b8252604051610b008161073581600186016147e8565b6020830152604051610b198161073581600286016147e8565b6040830152604051610b328161073581600386016147e8565b606083015260048101546080830152600581015460a0830152604051610b5f8161073581600686016147e8565b60c08301526007810154600660ff8216101561056f5760ff81811660e08501526001600160a01b03600892831c8116610100860152918301549091166101208401526040519091600b91610bba8161073581600986016147e8565b610140850152600a8101546101608501520154818116151561018084015260081c1615156101a08201526040518091602082526101a0610cd4610c83610c59610c43610c2d610c1787516101c060208b01526101e08a0190614734565b6020880151898203601f190160408b0152614734565b6040870151888203601f190160608a0152614734565b6060860151878203601f19016080890152614734565b608085015160a087015260a085015160c087015260c0850151601f198783030160e0880152614734565b610c9660e0850151610100870190614907565b6101008401516001600160a01b03908116610120878101919091528501511661014080870191909152840151858203601f1901610160870152614734565b91610160810151610180850152610180810151151582850152015115156101c08301520390f35b346105a35760803660031901126105a357610d146145c5565b610d1c6145af565b606435916001600160401b0383116105a357366023840112156105a357610d506108b79336906024816004013591016146bc565b9160443591614cb2565b346105a35760403660031901126105a357610d736145af565b600435600052601060205260406000209060018060a01b0316600052602052602060ff604060002054166040519015158152f35b346105a35760203660031901126105a357600435610dc3614970565b600081815260026020526040902054610de6906001600160a01b03161515614e50565b80600052600960205260ff600b6040600020015416610e1d576000908152600960205260409020600b01805460ff19166001179055005b60405162461bcd60e51b815260206004820152601760248201527f546f6b656e20616c726561647920736f756c626f756e640000000000000000006044820152606490fd5b346105a35760003660031901126105a35760206040517f6e94c7ed7681edd364a52ba21181e7713b286d5c7e6bbaca72cfe62d41ea09d98152f35b346105a35760403660031901126105a357610eb66145c5565b60243590811515908183036105a3576001600160a01b0316918215610f3257610f049033600052600560205260406000208460005260205260406000209060ff801983541691151516179055565b6040519081527f17307eab39ab6107e8899845ad3d59bd9653f200f220920489ca2b5937696c3160203392a3005b604051630b61174360e31b815260048101849052602490fd5b346105a35760003660031901126105a357602060405160008152f35b346105a357610f75366148d8565b610f7d614970565b8160005260209060028252610fa060018060a01b03604060002054161515614e50565b826000526009825260ff600b6040600020015460081c16611048576000805160206150ef83398151915291604091846000526009825282600020600b810161010061ff001982541617905560078101600560ff19825416179055600a42910155847fc836b58f1d2b092e3af919aae9a0607bb0c4fe552aa37d0d7ed26885488b7399845184815280611036339587830190614734565b0390a3815190600582523390820152a2005b60405162461bcd60e51b815260048101839052601860248201527f50726f6475637420616c726561647920726563616c6c656400000000000000006044820152606490fd5b346105a35760003660031901126105a35760206040517feefb95e842a3287179d933b4460be539a1d5af11aa8b325bb45c5c8dc92de4ed8152f35b346105a35760003660031901126105a357604051600060018054906110ec826147ae565b808552918181169081156111805750600114611127575b6109c28461111381860382614680565b604051918291602083526020830190614734565b600081815292507fb10e2d527612073b26eecdfd717e6a320cf44b4afac2b0732d9fcbe2b7fa0cf65b82841061116857505050810160200161111382611103565b80546020858701810191909152909301928101611150565b60ff191660208087019190915292151560051b850190920192506111139150839050611103565b346105a35760403660031901126105a3576111c06145af565b600435600052600760205260406000209060018060a01b0316600052602052602060ff604060002054166040519015158152f35b346105a35760603660031901126105a3576004356112106145af565b6001600160401b036044358181116105a3576112309036906004016146f3565b92806000526020916002835260018060a01b039061125682604060002054161515614e50565b61125f83614e06565b823391160361147f5781851694611277861515614e95565b836000526009855260ff600b604060002001541661146257836000526009855260406000209160096008840193845494896001600160601b0360a01b8716179055019088519081116104fe576112cd82546147ae565b601f811161141c575b5086601f821160011461138a579561137a938198999a9383611367947fd67aa7c45f61c95d774abbdd7384089523fabb58f544debbc64c53e937d977419a60009161137f575b508160011b916000199060031b1c19161790555b8160005260098a5242600a6040600020015560108a5260406000208b6000528a526040600020600160ff1982541617905533614ee1565b6040519384938885521696830190614734565b0390a4005b90508601518e61131c565b601f1982169083600052886000209160005b8181106114055750936001848a9b9c9d969461137a9894611367977fd67aa7c45f61c95d774abbdd7384089523fabb58f544debbc64c53e937d977419d97106113ec575b5050811b019055611330565b88015160001960f88460031b161c191690558e806113e0565b91928a600181928f8701518155019401920161139c565b8260005287600020601f830160051c810191898410611458575b601f0160051c01905b81811061144c57506112d6565b6000815560010161143f565b9091508190611436565b60405162461bcd60e51b81528061147b60048201614f68565b0390fd5b60405162461bcd60e51b815260048101859052601c60248201527f4e6f7420746865206f776e6572206f66207468652070726f64756374000000006044820152606490fd5b346105a35760203660031901126105a35760043560005260096020526040600020604051806114f381846147e8565b036114fe9082614680565b604051918261151081600184016147e8565b0361151b9084614680565b6040518061152c81600285016147e8565b036115379082614680565b6040518061154881600386016147e8565b036115539082614680565b60048301546005840154604051918261156f81600689016147e8565b0361157a9084614680565b600786015492600160a01b6001900391826008890154169360405196878060098c01906115a6916147e8565b036115b19089614680565b600a8a015499600b0154986040519c8d9c8d6101c090818152016115d491614734565b8d810360208f01526115e591614734565b8c810360408e01526115f691614734565b8b810360608d015261160791614734565b9160808b015260a08a015288810360c08a015261162391614734565b9261163460e0890160ff8316614907565b60081c1661010087015261012086015284810361014086015261165691614734565b9161016084015260ff8116151561018084015260081c60ff1615156101a08301520390f35b346105a35760003660031901126105a357602060405160008051602061510f8339815191528152f35b346105a35760203660031901126105a3576001600160a01b036116c56145c5565b1680156116e45760005260036020526020604060002054604051908152f35b6040516322718ad960e21b815260006004820152602490fd5b346105a35760203660031901126105a357600435600052600f602052608060406000208054906001810154906003600282015491015491604051938452602084015260408301526060820152f35b346105a35760203660031901126105a3576020611769600435614e06565b6040516001600160a01b039091168152f35b346105a357611789366148d8565b90806000526020906002825260018060a01b036117ae81604060002054161515614e50565b6117b782614e06565b8116331490811561197c575b50801561194c575b156118fd578060005260098252600960406000200183516001600160401b0381116104fe576117fa82546147ae565b601f81116118b7575b508394601f82116001146118505760099560009183611845575b50508160011b916000199060031b1c19161790555b6000525242600a60406000200155600080f35b01519050868061181d565b601f1982169583600052856000209160005b8881106118a057509083929160019460099910611887575b505050811b019055611832565b015160001960f88460031b161c1916905586808061187a565b919287600181928685015181550194019201611862565b8260005284600020601f830160051c8101918684106118f3575b601f0160051c01905b8181106118e75750611803565b600081556001016118da565b90915081906118d1565b60405162461bcd60e51b815260048101839052602160248201527f4e6f7420617574686f72697a656420746f20757064617465206c6f636174696f6044820152603760f91b6064820152608490fd5b5060008051602061510f83398151915260005260078252604060002033600052825260ff604060002054166117cb565b9050816000526009835233906008604060002001541614846117c3565b346105a35760003660031901126105a35760206040517fddaa901e2fe3bda354fe0ede2785152d5c109282a613fe024a056a3e66c41bb38152f35b346105a35760403660031901126105a3576004356119f06145af565b90806000526020916010835260406000209060018060a01b038091169182600052845260ff60406000205416928315611ab5575b50508115611a83575b8115611a3f575b506040519015158152f35b90507f273dcf2136c7d8ef632bb8ef13dbca69a8f36fa620c7468671b3153d46a211c060005260078252604060002090600052815260ff6040600020541682611a34565b905060008051602061510f83398151915260005260078252604060002081600052825260ff6040600020541690611a2d565b829350611ac190614e06565b1614908380611a24565b346105a35760c03660031901126105a357600860243510156105a3576064356001600160401b0381116105a357611b069036906004016146f3565b6084356001600160401b0381116105a357611b259036906004016146f3565b60a4356001600160401b0381116105a357611b449036906004016146f3565b3360009081527fc5ab710f8c4cc7c1afac50210ff340ab9e3a5797b579fcbb6114569dd517ba0a60205260409020549091907f68e79a7bf1e0bc45d0a330c573bc367f9cf464fd326078812f301165fbda4ef19060ff16156105855750600435600090815260026020526040902054611bc7906001600160a01b03161515614e50565b60405192611bd484614613565b6004358452611be860243560208601614f5c565b6044356040850152606084015260808301523360a08301524260c0830152600160e0830152610100820152600435600052600b60205260406000208054600160401b8110156104fe57611c409160018201815561477c565b9190916121325780518255600182016020820151600881101561056f5760ff801983541691161790556040810151600283015560608101519182516001600160401b0381116104fe57611c9660038301546147ae565b601f81116120eb575b506020601f821160011461207d5781929394600092612072575b50508160011b916000199060031b1c19161760038201555b60808201518051906001600160401b0382116104fe57611cf460048401546147ae565b601f811161202b575b50602090601f8311600114611fb55791806101009492600894600092611faa575b50508160011b916000199060031b1c19161760048201555b6005810160018060a01b0360a0860151166001600160601b0360a01b82541617905560c08401516006820155611d8160e08501511515600783019060ff801983541691151516179055565b019101519081516001600160401b0381116104fe57611da082546147ae565b601f8111611f62575b50602092601f8211600114611efe5792819293600092611ef3575b50508160011b916000199060031b1c19161790555b604051611de88160243561487e565b60443560208201524260408201527f4a4200d10f50281fb36abe1c43b2c85f53e92f4bffe4cc227695f9c949f60f81606060043592a26000602435611e9657601319604435128015611e8a575b611e82575b611e4057005b600435600052600960205260ff60076040600020015416611e646040518092614907565b3060208201526000805160206150ef833981519152604060043592a2005b506001611e3a565b50602860443513611e35565b602435600103611ec3576000604435128015611eb7575b611e82575b611e3a565b50605f60443513611ead565b600260243503611e3a576000604435128015611ee7575b15611eb257506001611e3a565b50606460443513611eda565b015190508380611dc4565b601f198216938360005260206000209160005b868110611f4a5750836001959610611f31575b505050811b019055611dd9565b015160001960f88460031b161c19169055838080611f24565b91926020600181928685015181550194019201611f11565b826000526020600020601f830160051c81019160208410611fa0575b601f0160051c01905b818110611f945750611da9565b60008155600101611f87565b9091508190611f7e565b015190508680611d1e565b906004840160005260206000209160005b601f1985168110612013575092610100949260019260089583601f19811610611ffa575b505050811b016004820155611d36565b015160001960f88460031b161c19169055868080611fea565b91926020600181928685015181550194019201611fc6565b600484016000526020600020601f840160051c81016020851061206b575b601f830160051c8201811061205f575050611cfd565b60008155600101612049565b5080612049565b015190508480611cb9565b6003830160005260206000209060005b601f19841681106120d35750600193949583601f198116106120ba575b505050811b016003820155611cd1565b015160001960f88460031b161c191690558480806120aa565b9091602060018192858a01518155019301910161208d565b600383016000526020600020601f830160051c81016020841061212b575b601f830160051c8201811061211f575050611c9f565b60008155600101612109565b5080612109565b634e487b7160e01b600052600060045260246000fd5b346105a357612156366148d8565b90806000526020600a815260018060a01b03928360026040600020015416331480156124a6575b156124455782600052600a825260ff60026040600020015460a01c16600581101561056f576002036124005782600052600a8252604060002054908160005260098352600960406000206008810180549788169733906001600160601b0360a01b1617905501948151956001600160401b0387116104fe576121ff81546147ae565b601f81116123ba575b508496601f811160011461233657807fdd3eafcd99a3f4d8b6ce7d52cf71f07a3e59d9d6c0b066eaa314812456b6b855979860009161232b575b508160011b916000199060031b1c19161790555b82600052600984526040600020600781019060ff1991600383825416179055600a42910155601085526040600020336000528552600160406000209182541617905585600052600a8452604060002060028101600360a01b60ff60a01b198254161790556008429101556122cb833383614ee1565b827fd67aa7c45f61c95d774abbdd7384089523fabb58f544debbc64c53e937d9774160405186815280612302339689830190614734565b0390a46000805160206150ef83398151915260408051600381523385820152a2604051428152a2005b905084015189612242565b601f19811682600052866000209060005b8181106123a35750907fdd3eafcd99a3f4d8b6ce7d52cf71f07a3e59d9d6c0b066eaa314812456b6b855989983600194931061238a575b5050811b019055612256565b86015160001960f88460031b161c19169055898061237e565b868b01518355998801996001909201918801612347565b8160005285600020601f890160051c810191878a106123f6575b601f0160051c01905b8181106123ea5750612208565b600081556001016123dd565b90915081906123d4565b60405162461bcd60e51b815260048101839052601760248201527f536869706d656e74206e6f7420696e207472616e7369740000000000000000006044820152606490fd5b60405162461bcd60e51b815260048101839052603360248201527f4f6e6c792064657374696e6174696f6e207061727479206f722061646d696e2060448201527218d85b8818dbdb999a5c9b481c9958d95a5c1d606a1b6064820152608490fd5b5060008051602061510f83398151915260005260078252604060002033600052825260ff6040600020541661217d565b346105a35760e03660031901126105a3576004356001600160401b0381116105a3576125069036906004016146f3565b6024356001600160401b0381116105a3576125259036906004016146f3565b906044356001600160401b0381116105a3576125459036906004016146f3565b6064356001600160401b0381116105a3576125649036906004016146f3565b9160a4356001600160401b0381116105a3576125849036906004016146f3565b9260c4356001600160a01b03811690036105a3573360009081527f74bb1ca9260fc37125f5e18e451ff1e642aa55b4eec93cdfb89e91bff73aafdd602052604090205460ff16156133be5781511561337957845115613334578251156132ef5760405160208184516125f98183858901614711565b8101600c8152030190205461329c57604051602081875161261d8183858c01614711565b8101600d81520301902054613246576011549361263985614e41565b60115560c4356001600160a01b03161561322d576001600160a01b036126618660c435614fee565b1661321457846000526006602052604060002081516001600160401b0381116104fe5761268e82546147ae565b601f81116131d0575b50806020601f82116001146131695760009161315e575b508160011b916000199060031b1c19161790555b7ff8e1a15aba9398e019f0b49df1a4fde98ee17ae345cb5f6b5e2c27f5033e8ce76020604051878152a1604051916126f9836145f7565b838352866020840152846040840152606083015242608083015260843560a083015260c0820152600060e08201523361010082015260018060a01b0360c435166101208201526040518060408101106001600160401b036040830111176104fe576040810160405260168152754d616e75666163747572696e6720466163696c69747960501b602082015261014082015242610160820152600061018082015260006101a0820152836000526009602052604060002081518051906001600160401b0382116104fe5781906127ce84546147ae565b601f811161310e575b50602090601f83116001146130a257600092613097575b50508160011b916000199060031b1c19161781555b60208201518051906001600160401b0382116104fe57819061282860018501546147ae565b601f8111613044575b50602090601f8311600114612fd257600092612fc7575b50508160011b916000199060031b1c19161760018201555b60408201518051906001600160401b0382116104fe57819061288560028501546147ae565b601f8111612f74575b50602090601f8311600114612f0257600092612ef7575b50508160011b916000199060031b1c19161760028201555b60608201518051906001600160401b0382116104fe5781906128e260038501546147ae565b601f8111612ea4575b50602090601f8311600114612e3257600092612e27575b50508160011b916000199060031b1c19161760038201555b6080820151600482015560a0820151600582015560c08201518051906001600160401b0382116104fe57819061295360068501546147ae565b601f8111612dd4575b50602090601f8311600114612d6257600092612d57575b50508160011b916000199060031b1c19161760068201555b6007810160e0830151600681101561056f57815460ff610100600160a81b0361010087015160081b169216906affffffffffffffffffffff60a81b16171790556008810160018060a01b03610120840151166001600160601b0360a01b8254161790556101408201518051906001600160401b0382116104fe57612a1260098401546147ae565b601f8111612d10575b50602090601f8311600114612c9a5791806101a09492600b94600092612c8f575b50508160011b916000199060031b1c19161760098201555b610160840151600a8201550191612a7e6101808201511515849060ff801983541691151516179055565b0151151561ff0082549160081b169061ff001916179055826040516020818451612aab8183858901614711565b8101600c81520301902055826040516020818751612acc8183858c01614711565b8101600d81520301902055826000526010602052604060002060018060a01b0360c435166000526020526040600020600160ff1982541617905560405160208101908482523360601b60408201524260548201526529a2a72222a960d11b6074820152605a8152612b3c81614665565b51902060405160208101908582526001600160601b031960c43560601b166040820152426054820152672922a1a2a4ab22a960c11b6074820152605c8152612b8381614665565b5190209162278d00420190814211612c79576040519360808501938585106001600160401b038611176104fe5760209888966003612c3496612c5095612c41957f2e81e137755e5a5eb258f5b5e1258007a5e96e970880d7c8ee40e68f91db8a4d9a60405284528d84019081526040840190428252606085019283528b600052600f8f5260406000209451855551600185015551600284015551910155604051948594606086526060860190614734565b908482038b860152614734565b82810360408401523396614734565b0390a3806000805160206150ef83398151915260408051600081523386820152a2604051908152f35b634e487b7160e01b600052601160045260246000fd5b015190508a80612a3c565b906009840160005260206000209160005b601f1985168110612cf85750926101a09492600192600b9583601f19811610612cdf575b505050811b016009820155612a54565b015160001960f88460031b161c191690558a8080612ccf565b91926020600181928685015181550194019201612cab565b600984016000526020600020601f840160051c810160208510612d50575b601f830160051c82018110612d44575050612a1b565b60008155600101612d2e565b5080612d2e565b015190508880612973565b9250600684016000526020600020906000935b601f1984168510612db9576001945083601f19811610612da0575b505050811b01600682015561298b565b015160001960f88460031b161c19169055888080612d90565b81810151835560209485019460019093019290910190612d75565b909150600684016000526020600020601f840160051c810160208510612e20575b90849392915b601f830160051c82018110612e1157505061295c565b60008155859450600101612dfb565b5080612df5565b015190508880612902565b9250600384016000526020600020906000935b601f1984168510612e89576001945083601f19811610612e70575b505050811b01600382015561291a565b015160001960f88460031b161c19169055888080612e60565b81810151835560209485019460019093019290910190612e45565b909150600384016000526020600020601f840160051c810160208510612ef0575b90849392915b601f830160051c82018110612ee15750506128eb565b60008155859450600101612ecb565b5080612ec5565b0151905088806128a5565b9250600284016000526020600020906000935b601f1984168510612f59576001945083601f19811610612f40575b505050811b0160028201556128bd565b015160001960f88460031b161c19169055888080612f30565b81810151835560209485019460019093019290910190612f15565b909150600284016000526020600020601f840160051c810160208510612fc0575b90849392915b601f830160051c82018110612fb157505061288e565b60008155859450600101612f9b565b5080612f95565b015190508880612848565b9250600184016000526020600020906000935b601f1984168510613029576001945083601f19811610613010575b505050811b016001820155612860565b015160001960f88460031b161c19169055888080613000565b81810151835560209485019460019093019290910190612fe5565b909150600184016000526020600020601f840160051c810160208510613090575b90849392915b601f830160051c82018110613081575050612831565b6000815585945060010161306b565b5080613065565b0151905088806127ee565b9250836000526020600020906000935b601f19841685106130f3576001945083601f198116106130da575b505050811b018155612803565b015160001960f88460031b161c191690558880806130cd565b818101518355602094850194600190930192909101906130b2565b909150836000526020600020601f840160051c810160208510613157575b90849392915b601f830160051c820181106131485750506127d7565b60008155859450600101613132565b508061312c565b9050830151896126ae565b91508260005260206000206000925b601f19831684106131b8576001935082601f1981161061319f575b5050811b0190556126c2565b85015160001960f88460031b161c191690558980613193565b85810151825560209384019360019092019101613178565b826000526020600020601f830160051c81016020841061320d575b601f830160051c82018110613201575050612697565b600081556001016131eb565b50806131eb565b6040516339e3563760e11b815260006004820152602490fd5b604051633250574960e11b815260006004820152602490fd5b60405162461bcd60e51b815260206004820152602860248201527f50726f647563742077697468207468697320626172636f646520616c72656164604482015267792065786973747360c01b6064820152608490fd5b60405162461bcd60e51b815260206004820152602560248201527f50726f6475637420776974682074686973205246494420616c72656164792065604482015264786973747360d81b6064820152608490fd5b60405162461bcd60e51b815260206004820152601c60248201527f50726f64756374206e616d652063616e6e6f7420626520656d707479000000006044820152606490fd5b60405162461bcd60e51b815260206004820152601760248201527f426172636f64652063616e6e6f7420626520656d7074790000000000000000006044820152606490fd5b60405162461bcd60e51b815260206004820152601960248201527f5246494420686173682063616e6e6f7420626520656d707479000000000000006044820152606490fd5b60405163e2517d3f60e01b81523360048201527feefb95e842a3287179d933b4460be539a1d5af11aa8b325bb45c5c8dc92de4ed6024820152604490fd5b346105a3576108b761340d3661488b565b906040519261341b8461464a565b60008452614cb2565b346105a35760203660031901126105a3576004356001600160401b0381116105a35761345a60206109fc819336906004016146f3565b8101600d81520301902054604051908152f35b346105a35760403660031901126105a3576134866145af565b336001600160a01b038216036134a2576108b790600435614a60565b60405163334bd91960e11b8152600490fd5b346105a3576134c236614766565b90600052600e602052604060002080548210156105a3576020916134e5916148c0565b90546040519160031b1c8152f35b346105a35760403660031901126105a3576108b76004356135126145af565b9080600052600760205261352d6001604060002001546149ba565b6149e0565b346105a35760203660031901126105a357600435600052600a6020526020604060002080549060018060a01b039081600182015416906002810154926040519361358a8561358381600387016147e8565b0386614680565b6136066040516135a18161073581600489016147e8565b6135f86005860154976135e7600688015495600789015497600960088b01549a01549a6040519e8f9e8f9081520152811660408d015260ff60608d019160a01c16614759565b6101608060808c01528a0190614734565b9088820360a08a0152614734565b9460c087015260e08601526101008501526101208401526101408301520390f35b346105a3576020806003193601126105a35760043590613645614914565b81600052600a815260ff60026040600020015460a01c16600581101561056f576001036136e25760406000805160206150ef8339815191529183600052600a815281600020549384600052600982528260002060078101600260ff19825416179055600a42910155600052600a81528160002060028101600160a11b60ff60a01b19825416179055600742910155815190600282523390820152a2005b6064906040519062461bcd60e51b82526004820152601560248201527414da1a5c1b595b9d081b9bdd08185c1c1c9bdd9959605a1b6044820152fd5b346105a35760203660031901126105a35760043560005260076020526020600160406000200154604051908152f35b346105a3576108b761375e3661488b565b91614ad7565b346105a35760003660031901126105a35760206040517f2a5f906c256a5d799494fcd066e1f6c077689de1cdb65052a1624de4bace99bf8152f35b346105a35760003660031901126105a35760206040517f288a15c4a15d470e4cd9cad2f113b91206b520c26dbd3dd74627f0c057baa19c8152f35b346105a3576020806003193601126105a357600435906137f8614970565b81600052600a815260ff60026040600020015460a01c16600581101561056f576138825760037ff9011029a94eb60997b710d356797ef53371ec55bfe6db12ab6899b3bb4703ec9183600052600a815261387d604060002060028101600160a01b60ff60a01b19825416179055426006820155604051938385948552840191016147e8565b0390a2005b6064906040519062461bcd60e51b82526004820152601f60248201527f536869706d656e74206e6f7420696e20726571756573746564207374617465006044820152fd5b346105a3576138d436614766565b90600052600b60205260406000209081548110156105a3576138f59161477c565b5080546109c260ff600184015416926008600282015491604051926139288461392181600386016147e8565b0385614680565b6139b260405161393f8161073581600488016147e8565b6139a460018060a01b036005860154169660068601549461397960ff60078901541697613972604051809b8193016147e8565b0389614680565b61398e6040519c8d9c8d5260208d019061487e565b60408b01526101208060608c01528a0190614734565b9088820360808a0152614734565b9360a087015260c0860152151560e0850152838203610100850152614734565b346105a35760203660031901126105a3576004356139ee614970565b80600052600a60205260ff60026040600020015460a01c16600581101561056f57600303613a6b5780600052600a602052604060002060028101600160a21b60ff60a01b198254161790556009429101557fb0afeaee5d1e46a6cf0bd9dbf0e8b217ce5e084418ae08d982d3c53e6323091b6020604051428152a2005b60405162461bcd60e51b815260206004820152601660248201527514da1a5c1b595b9d081b9bdd0819195b1a5d995c995960521b6044820152606490fd5b346105a35760403660031901126105a357613ac26145c5565b602435613ace81614e06565b33151580613b7d575b80613b50575b613b38576001600160a01b039283169282918491167f8c5be1e5ebec7d5bd14f71427d1e84f3dd0314c0f7b2291e5b200ac8c7c3b925600080a4600090815260046020526040902080546001600160a01b0319169091179055005b60405163a9fbf51f60e01b8152336004820152602490fd5b5060018060a01b038116600052600560205260406000203360005260205260ff6040600020541615613add565b506001600160a01b038116331415613ad7565b346105a35760203660031901126105a3576000610140604051613bb2816145db565b82815282602082015282604082015282606082015260606080820152606060a08201528260c08201528260e082015282610100820152826101208201520152600435600052600a602052604060002060405190613c0e826145db565b8054825260018101546001600160a01b0390811660208401526002820154908116604084015260a01c60ff1690600582101561056f576009916060840152604051613c608161073581600386016147e8565b6080840152604051613c798161073581600486016147e8565b60a0840152600581015460c0840152600681015460e08401526007810154610100840152600881015461012084015201546101408201526040518091602082528051602083015260018060a01b03602082015116604083015260018060a01b036040820151166060830152613cf660608201516080840190614759565b6080810151610140613d2f613d19610160938460a0880152610180870190614734565b60a0850151868203601f190160c0880152614734565b9260c081015160e086015260e0810151610100860152610100810151610120860152610120810151828601520151908301520390f35b346105a35760203660031901126105a357600435613d8281614e06565b506000526004602052602060018060a01b0360406000205416604051908152f35b346105a35760203660031901126105a3576020613dc1600435614fb5565b6040519015158152f35b346105a35760003660031901126105a35760206040517f68e79a7bf1e0bc45d0a330c573bc367f9cf464fd326078812f301165fbda4ef18152f35b346105a35760003660031901126105a35760405160008054613e27816147ae565b808452906001908181169081156111805750600114613e50576109c28461111381860382614680565b600080805292507f290decd9548b62a8d60345a988386fc84ba6bc95484008f6362f93160ef3e5635b828410613e9157505050810160200161111382611103565b80546020858701810191909152909301928101613e79565b346105a35760203660031901126105a35760043563ffffffff60e01b81168091036105a357602090637965db0b60e01b8114908115613eed57506040519015158152f35b632483248360e11b811491508115613f07575b5082611a34565b6380ac58cd60e01b811491508115613f39575b8115613f28575b5082613f00565b6301ffc9a760e01b14905082613f21565b635b5e139f60e01b81149150613f1a565b346105a35760803660031901126105a357613f636145af565b6044356001600160401b0381116105a357613f829036906004016146f3565b6064356001600160401b0381116105a357613fa19036906004016146f3565b90613faa614914565b600435600090815260026020526040902054613fd0906001600160a01b03161515614e50565b600435600052600960205260ff60076040600020015416600681101561056f576001148015614586575b15614526576140136001600160a01b0384161515614e95565b6012549161402083614e41565b601255600435600052600960205260018060a01b0360086040600020015416916040519261404d846145db565b6004358452602084015260018060a01b038516604084015260006060840152608083015260a08201524260c0820152600060e082015260006101008201526000610120820152600061014082015281600052600a602052604060002090805182556001820160018060a01b036020830151166001600160601b0360a01b8254161790556002820160018060a01b036040830151168154906060840151600581101561056f576001600160a81b03199092161760a09190911b60ff60a01b1617905560808101518051906001600160401b0382116104fe57819061413360038601546147ae565b601f81116144d3575b50602090601f831160011461446157600092614456575b50508160011b916000199060031b1c19161760038301555b60a08101518051906001600160401b0382116104fe5761418e60048501546147ae565b601f811161440f575b50602090601f8311600114614399579180600994926101409460009261438e575b50508160011b916000199060031b1c19161760048501555b60c0810151600585015560e08101516006850155610100810151600785015561012081015160088501550151910155600435600052600e60205260406000208054600160401b8110156104fe5761422c916001820181556148c0565b81549060031b9083821b91600019901b19161790556004356000526009602052600860406000200154604051602081019060043582526001600160601b0319809360601b1660408201524260548201526e14d15391115497d4d2125413515395608a1b6074820152836083820152608381526142a78161462f565b51902090604051602081019160043583528560601b16604082015242605482015270149150d15255915497d4d2125413515395607a1b6074820152836085820152608581526142f58161462f565b519020600435600052600f6020526040600020918255600182015560024291015562278d00420191824211612c7957602092600435600052600f84526003604060002001556009835260018060a01b0360086040600020015416906040519060018060a01b03168152827fa9041659dcc0c60de34ca5114e2c9ecca4c93e9a21c9d4e21f29bb0bd3d8cab88560043593a4604051908152f35b0151905088806141b8565b906004850160005260206000209160005b601f19851681106143f7575092600994926001926101409583601f198116106143de575b505050811b0160048501556141d0565b015160001960f88460031b161c191690558880806143ce565b919260206001819286850151815501940192016143aa565b600485016000526020600020601f840160051c81016020851061444f575b601f830160051c82018110614443575050614197565b6000815560010161442d565b508061442d565b015190508680614153565b9250600385016000526020600020906000935b601f19841685106144b8576001945083601f1981161061449f575b505050811b01600383015561416b565b015160001960f88460031b161c1916905586808061448f565b81810151835560209485019460019093019290910190614474565b909150600385016000526020600020601f840160051c81016020851061451f575b90849392915b601f830160051c8201811061451057505061413c565b600081558594506001016144fa565b50806144f4565b60405162461bcd60e51b815260206004820152603260248201527f50726f64756374206d757374206265207061636b61676564206f7220726563656044820152711a5d9959081d1bc81899481cda1a5c1c195960721b6064820152608490fd5b50600435600052600960205260ff60076040600020015416600681101561056f57600314613ffa565b602435906001600160a01b03821682036105a357565b600435906001600160a01b03821682036105a357565b61016081019081106001600160401b038211176104fe57604052565b6101c081019081106001600160401b038211176104fe57604052565b61012081019081106001600160401b038211176104fe57604052565b60c081019081106001600160401b038211176104fe57604052565b602081019081106001600160401b038211176104fe57604052565b608081019081106001600160401b038211176104fe57604052565b90601f801991011681019081106001600160401b038211176104fe57604052565b6001600160401b0381116104fe57601f01601f191660200190565b9291926146c8826146a1565b916146d66040519384614680565b8294818452818301116105a3578281602093846000960137010152565b9080601f830112156105a35781602061470e933591016146bc565b90565b60005b8381106147245750506000910152565b8181015183820152602001614714565b9060209161474d81518092818552858086019101614711565b601f01601f1916010190565b90600582101561056f5752565b60409060031901126105a3576004359060243590565b8054821015614798576000526009602060002091020190600090565b634e487b7160e01b600052603260045260246000fd5b90600182811c921680156147de575b60208310146147c857565b634e487b7160e01b600052602260045260246000fd5b91607f16916147bd565b90600092918054916147f9836147ae565b91828252600193848116908160001461485b575060011461481b575b50505050565b90919394506000526020928360002092846000945b838610614847575050505001019038808080614815565b805485870183015294019385908201614830565b9294505050602093945060ff191683830152151560051b01019038808080614815565b90600882101561056f5752565b60609060031901126105a3576001600160a01b039060043582811681036105a3579160243590811681036105a3579060443590565b80548210156147985760005260206000200190600090565b9060406003198301126105a35760043591602435906001600160401b0382116105a35761470e916004016146f3565b90600682101561056f5752565b3360009081527f5a4a839a8a41e9c56bead82789209cd708f718a22ba06c2110a5bfb3dc4b80bc60205260409020547fddaa901e2fe3bda354fe0ede2785152d5c109282a613fe024a056a3e66c41bb39060ff16156105855750565b3360009081527fa70365933f78520ef41d6645ba61e509916296603327302d41466c063e8e2608602052604090205460008051602061510f8339815191529060ff16156105855750565b80600052600760205260406000203360005260205260ff60406000205416156105855750565b906000918083526007602052604083209160018060a01b03169182845260205260ff60408420541615600014614a5b5780835260076020526040832082845260205260408320600160ff198254161790557f2f8788117e7eff1d82e926ec794901d17c78024a50270940304540a733656f0d339380a4600190565b505090565b906000918083526007602052604083209160018060a01b03169182845260205260ff604084205416600014614a5b578083526007602052604083208284526020526040832060ff1981541690557ff6391f5c32d9c69d2a47ea670b442974b53935d1edc7fd64eb21e047a839171b339380a4600190565b906001600160a01b03908116801561322d57600091848352602091600283526040928284862054166009825260ff600b8688200154169081614ca8575b50614c90579086918286526002815283858720541695869133151580614bfa575b509060027fddf252ad1be2c89b69c2b068fc378daa952ba7f163c4a11628f55a4df523b3ef9284614bc7575b85835260038152888320805460010190558683525286812080546001600160a01b0319168517905580a483168203614b995750505050565b516364283d7b60e01b81526001600160a01b0392831660048201526024810193909352166044820152606490fd5b600087815260046020526040902080546001600160a01b0319169055848352600381528883208054600019019055614b61565b91939450915080614c4f575b15614c1657879291869138614b35565b848887614c33576024915190637e27328960e01b82526004820152fd5b604491519063177e802f60e01b82523360048301526024820152fd5b503386148015614c74575b80614c065750878252600481523384868420541614614c06565b5085825260058152848220338352815260ff8583205416614c5a565b835162461bcd60e51b81528061147b60048201614f68565b9050151538614b14565b929092614cc0838583614ad7565b833b614ccc5750505050565b604051630a85bd0160e11b8082523360048301526001600160a01b0392831660248301526044820194909452608060648201529493169260209290918590614d18906084830190614734565b039483816000978189895af1869181614dc2575b50614d8d575050503d600014614d84573d614d46816146a1565b90614d546040519283614680565b81528093823d92013e5b82519283614d7f57604051633250574960e11b815260048101849052602490fd5b019050fd5b60609250614d5e565b919450915063ffffffff60e01b1603614daa575038808080614815565b60249060405190633250574960e11b82526004820152fd5b9091508481813d8311614dff575b614dda8183614680565b81010312614dfb57516001600160e01b031981168103614dfb579038614d2c565b8680fd5b503d614dd0565b6000818152600260205260409020546001600160a01b0316908115614e29575090565b60249060405190637e27328960e01b82526004820152fd5b6000198114612c795760010190565b15614e5757565b60405162461bcd60e51b8152602060048201526016602482015275141c9bd91d58dd08191bd95cc81b9bdd08195e1a5cdd60521b6044820152606490fd5b15614e9c57565b60405162461bcd60e51b815260206004820152601b60248201527f496e76616c69642064657374696e6174696f6e206164647265737300000000006044820152606490fd5b906001600160a01b03908181161561322d5783614efd91614fee565b908082169081614f2057604051637e27328960e01b815260048101869052602490fd5b831603614f2c57505050565b6040516364283d7b60e01b81526001600160a01b0392831660048201526024810193909352166044820152606490fd5b600882101561056f5752565b60809060208152602c60208201527f546f6b656e20697320736f756c626f756e6420616e642063616e6e6f7420626560408201526b081d1c985b9cd9995c9c995960a21b60608201520190565b6000908152600260205260409020546001600160a01b031615614fe957600960205260ff600b6040600020015460081c1690565b600090565b906000918183526020906002825260018060a01b039360408581832054166009855260ff600b83852001541690816150e4575b506150cd57907fddf252ad1be2c89b69c2b068fc378daa952ba7f163c4a11628f55a4df523b3ef918582526002855260028782842054169788958661509a575b169586615084575b87845252812080546001600160a01b0319168517905580a490565b8684526003815282842060018154019055615069565b600089815260046020526040902080546001600160a01b0319169055868552600388528385208054600019019055615061565b5162461bcd60e51b81528061147b60048201614f68565b905015153861502156fe1fee65bf2ede0d34fc746effd1d457315a439158afe48d47a09cd92b007fc242a49807205ce4d355092ef5a8a18f56e8913cf4a201fbe287825b095693c21775a26469706673582212209cf73ece2c54eb007e214b94be8cdfa63147e2872f36bbdbec7266af7e8ac8bc64736f6c634300081400332f8788117e7eff1d82e926ec794901d17c78024a50270940304540a733656f0d",
  "linkReferences": {},
  "deployedLinkReferences": {}
}