{
  "_format": "hh-sol-artifact-1",
  "contractName": "SimpleProTrack",
  "sourceName": "contracts/SimpleProTrack.sol",
  "abi": [
    {
      "inputs": [],
      "stateMutability": "nonpayable",
      "type": "constructor"
    },
    {
      "inputs": [],
      "name": "getName",
      "outputs": [
        {
          "internalType": "string",
          "name": "",
          "type": "string"
        }
      ],
      "stateMutability": "view",
      "type": "function"
    },
    {
      "inputs": [],
      "name": "name",
      "outputs": [
        {
          "internalType": "string",
          "name": "",
          "type": "string"
        }
      ],
      "stateMutability": "view",
      "type": "function"
    },
    {
      "inputs": [],
      "name": "owner",
      "outputs": [
        {
          "internalType": "address",
          "name": "",
          "type": "address"
        }
      ],
      "stateMutability": "view",
      "type": "function"
    }
  ],
  "bytecode": "0x60c0604052600e60809081526d53696d706c6550726f547261636b60901b60a05260009061002d90826100f1565b5034801561003a57600080fd5b50600180546001600160a01b031916331790556101b0565b634e487b7160e01b600052604160045260246000fd5b600181811c9082168061007c57607f821691505b60208210810361009c57634e487b7160e01b600052602260045260246000fd5b50919050565b601f8211156100ec57600081815260208120601f850160051c810160208610156100c95750805b601f850160051c820191505b818110156100e8578281556001016100d5565b5050505b505050565b81516001600160401b0381111561010a5761010a610052565b61011e816101188454610068565b846100a2565b602080601f831160018114610153576000841561013b5750858301515b600019600386901b1c1916600185901b1785556100e8565b600085815260208120601f198616915b8281101561018257888601518255948401946001909101908401610163565b50858210156101a05787850151600019600388901b60f8161c191681555b5050505050600190811b01905550565b610275806101bf6000396000f3fe608060405234801561001057600080fd5b50600436106100415760003560e01c806306fdde031461004657806317d7de7c146100645780638da5cb5b1461006c575b600080fd5b61004e610097565b60405161005b91906101b7565b60405180910390f35b61004e610125565b60015461007f906001600160a01b031681565b6040516001600160a01b03909116815260200161005b565b600080546100a490610205565b80601f01602080910402602001604051908101604052809291908181526020018280546100d090610205565b801561011d5780601f106100f25761010080835404028352916020019161011d565b820191906000526020600020905b81548152906001019060200180831161010057829003601f168201915b505050505081565b60606000805461013490610205565b80601f016020809104026020016040519081016040528092919081815260200182805461016090610205565b80156101ad5780601f10610182576101008083540402835291602001916101ad565b820191906000526020600020905b81548152906001019060200180831161019057829003601f168201915b5050505050905090565b600060208083528351808285015260005b818110156101e4578581018301518582016040015282016101c8565b506000604082860101526040601f19601f8301168501019250505092915050565b600181811c9082168061021957607f821691505b60208210810361023957634e487b7160e01b600052602260045260246000fd5b5091905056fea2646970667358221220b82883a003153b95fba710179a3c799e54d8b60054e19b953a8ef8998808c0d864736f6c63430008140033",
  "linkReferences": {},
  "deployedLinkReferences": {}
}