{
  "_format": "hh-sol-artifact-1",
  "contractName": "ProTrackMPCWallet",
  "sourceName": "contracts/ProTrackMPCWallet.sol",
  "abi": [
    {
      "inputs": [],
      "stateMutability": "nonpayable",
      "type": "constructor"
    },
    {
      "anonymous": false,
      "inputs": [
        {
          "indexed": true,
          "internalType": "uint256",
          "name": "walletId",
          "type": "uint256"
        },
        {
          "indexed": true,
          "internalType": "address",
          "name": "holder",
          "type": "address"
        },
        {
          "indexed": false,
          "internalType": "uint256",
          "name": "shareIndex",
          "type": "uint256"
        }
      ],
      "name": "KeyShareGenerated",
      "type": "event"
    },
    {
      "anonymous": false,
      "inputs": [
        {
          "indexed": true,
          "internalType": "uint256",
          "name": "walletId",
          "type": "uint256"
        },
        {
          "indexed": false,
          "internalType": "address[]",
          "name": "signers",
          "type": "address[]"
        },
        {
          "indexed": false,
          "internalType": "uint256",
          "name": "threshold",
          "type": "uint256"
        }
      ],
      "name": "MPCWalletCreated",
      "type": "event"
    },
    {
      "anonymous": false,
      "inputs": [
        {
          "indexed": true,
          "internalType": "uint256",
          "name": "productId",
          "type": "uint256"
        },
        {
          "indexed": false,
          "internalType": "bool",
          "name": "enabled",
          "type": "bool"
        }
      ],
      "name": "PrivacyModeToggled",
      "type": "event"
    },
    {
      "anonymous": false,
      "inputs": [
        {
          "indexed": true,
          "internalType": "uint256",
          "name": "productId",
          "type": "uint256"
        },
        {
          "indexed": false,
          "internalType": "uint256",
          "name": "timestamp",
          "type": "uint256"
        }
      ],
      "name": "ProductKeysRotated",
      "type": "event"
    },
    {
      "anonymous": false,
      "inputs": [
        {
          "indexed": true,
          "internalType": "bytes32",
          "name": "role",
          "type": "bytes32"
        },
        {
          "indexed": true,
          "internalType": "bytes32",
          "name": "previousAdminRole",
          "type": "bytes32"
        },
        {
          "indexed": true,
          "internalType": "bytes32",
          "name": "newAdminRole",
          "type": "bytes32"
        }
      ],
      "name": "RoleAdminChanged",
      "type": "event"
    },
    {
      "anonymous": false,
      "inputs": [
        {
          "indexed": true,
          "internalType": "bytes32",
          "name": "role",
          "type": "bytes32"
        },
        {
          "indexed": true,
          "internalType": "address",
          "name": "account",
          "type": "address"
        },
        {
          "indexed": true,
          "internalType": "address",
          "name": "sender",
          "type": "address"
        }
      ],
      "name": "RoleGranted",
      "type": "event"
    },
    {
      "anonymous": false,
      "inputs": [
        {
          "indexed": true,
          "internalType": "bytes32",
          "name": "role",
          "type": "bytes32"
        },
        {
          "indexed": true,
          "internalType": "address",
          "name": "account",
          "type": "address"
        },
        {
          "indexed": true,
          "internalType": "address",
          "name": "sender",
          "type": "address"
        }
      ],
      "name": "RoleRevoked",
      "type": "event"
    },
    {
      "anonymous": false,
      "inputs": [
        {
          "indexed": true,
          "internalType": "bytes32",
          "name": "txHash",
          "type": "bytes32"
        },
        {
          "indexed": true,
          "internalType": "uint256",
          "name": "walletId",
          "type": "uint256"
        },
        {
          "indexed": false,
          "internalType": "bool",
          "name": "success",
          "type": "bool"
        }
      ],
      "name": "TransactionExecuted",
      "type": "event"
    },
    {
      "anonymous": false,
      "inputs": [
        {
          "indexed": true,
          "internalType": "bytes32",
          "name": "txHash",
          "type": "bytes32"
        },
        {
          "indexed": true,
          "internalType": "uint256",
          "name": "walletId",
          "type": "uint256"
        },
        {
          "indexed": true,
          "internalType": "address",
          "name": "proposer",
          "type": "address"
        },
        {
          "indexed": false,
          "internalType": "string",
          "name": "operation",
          "type": "string"
        }
      ],
      "name": "TransactionProposed",
      "type": "event"
    },
    {
      "anonymous": false,
      "inputs": [
        {
          "indexed": true,
          "internalType": "bytes32",
          "name": "txHash",
          "type": "bytes32"
        },
        {
          "indexed": true,
          "internalType": "address",
          "name": "signer",
          "type": "address"
        },
        {
          "indexed": false,
          "internalType": "uint256",
          "name": "signatureCount",
          "type": "uint256"
        }
      ],
      "name": "TransactionSigned",
      "type": "event"
    },
    {
      "stateMutability": "payable",
      "type": "fallback"
    },
    {
      "inputs": [],
      "name": "DEFAULT_ADMIN_ROLE",
      "outputs": [
        {
          "internalType": "bytes32",
          "name": "",
          "type": "bytes32"
        }
      ],
      "stateMutability": "view",
      "type": "function"
    },
    {
      "inputs": [],
      "name": "MAX_SIGNERS",
      "outputs": [
        {
          "internalType": "uint256",
          "name": "",
          "type": "uint256"
        }
      ],
      "stateMutability": "view",
      "type": "function"
    },
    {
      "inputs": [],
      "name": "MIN_THRESHOLD",
      "outputs": [
        {
          "internalType": "uint256",
          "name": "",
          "type": "uint256"
        }
      ],
      "stateMutability": "view",
      "type": "function"
    },
    {
      "inputs": [],
      "name": "MPC_OPERATOR_ROLE",
      "outputs": [
        {
          "internalType": "bytes32",
          "name": "",
          "type": "bytes32"
        }
      ],
      "stateMutability": "view",
      "type": "function"
    },
    {
      "inputs": [],
      "name": "SUPPLY_CHAIN_ROLE",
      "outputs": [
        {
          "internalType": "bytes32",
          "name": "",
          "type": "bytes32"
        }
      ],
      "stateMutability": "view",
      "type": "function"
    },
    {
      "inputs": [],
      "name": "THRESHOLD_SIGNER_ROLE",
      "outputs": [
        {
          "internalType": "bytes32",
          "name": "",
          "type": "bytes32"
        }
      ],
      "stateMutability": "view",
      "type": "function"
    },
    {
      "inputs": [
        {
          "internalType": "address[]",
          "name": "signers",
          "type": "address[]"
        },
        {
          "internalType": "uint256",
          "name": "threshold",
          "type": "uint256"
        }
      ],
      "name": "createMPCWallet",
      "outputs": [
        {
          "internalType": "uint256",
          "name": "",
          "type": "uint256"
        }
      ],
      "stateMutability": "nonpayable",
      "type": "function"
    },
    {
      "inputs": [
        {
          "internalType": "uint256",
          "name": "walletId",
          "type": "uint256"
        }
      ],
      "name": "deactivateWallet",
      "outputs": [],
      "stateMutability": "nonpayable",
      "type": "function"
    },
    {
      "inputs": [
        {
          "internalType": "uint256",
          "name": "walletId",
          "type": "uint256"
        },
        {
          "internalType": "bytes32",
          "name": "txHash",
          "type": "bytes32"
        }
      ],
      "name": "executeTransaction",
      "outputs": [],
      "stateMutability": "nonpayable",
      "type": "function"
    },
    {
      "inputs": [
        {
          "internalType": "uint256",
          "name": "productId",
          "type": "uint256"
        },
        {
          "internalType": "address[]",
          "name": "authorizedUsers",
          "type": "address[]"
        },
        {
          "internalType": "bool",
          "name": "enablePrivacy",
          "type": "bool"
        }
      ],
      "name": "generateProductKeys",
      "outputs": [],
      "stateMutability": "nonpayable",
      "type": "function"
    },
    {
      "inputs": [
        {
          "internalType": "bytes32",
          "name": "role",
          "type": "bytes32"
        }
      ],
      "name": "getRoleAdmin",
      "outputs": [
        {
          "internalType": "bytes32",
          "name": "",
          "type": "bytes32"
        }
      ],
      "stateMutability": "view",
      "type": "function"
    },
    {
      "inputs": [
        {
          "internalType": "uint256",
          "name": "walletId",
          "type": "uint256"
        },
        {
          "internalType": "bytes32",
          "name": "txHash",
          "type": "bytes32"
        }
      ],
      "name": "getSignatureCount",
      "outputs": [
        {
          "internalType": "uint256",
          "name": "",
          "type": "uint256"
        }
      ],
      "stateMutability": "view",
      "type": "function"
    },
    {
      "inputs": [
        {
          "internalType": "uint256",
          "name": "productId",
          "type": "uint256"
        },
        {
          "internalType": "address",
          "name": "user",
          "type": "address"
        }
      ],
      "name": "getUserDecryptionKey",
      "outputs": [
        {
          "internalType": "bytes32",
          "name": "",
          "type": "bytes32"
        }
      ],
      "stateMutability": "view",
      "type": "function"
    },
    {
      "inputs": [
        {
          "internalType": "uint256",
          "name": "walletId",
          "type": "uint256"
        }
      ],
      "name": "getWalletInfo",
      "outputs": [
        {
          "internalType": "uint256",
          "name": "threshold",
          "type": "uint256"
        },
        {
          "internalType": "uint256",
          "name": "totalSigners",
          "type": "uint256"
        },
        {
          "internalType": "bool",
          "name": "isActive",
          "type": "bool"
        },
        {
          "internalType": "uint256",
          "name": "nonce",
          "type": "uint256"
        }
      ],
      "stateMutability": "view",
      "type": "function"
    },
    {
      "inputs": [
        {
          "internalType": "bytes32",
          "name": "role",
          "type": "bytes32"
        },
        {
          "internalType": "address",
          "name": "account",
          "type": "address"
        }
      ],
      "name": "grantRole",
      "outputs": [],
      "stateMutability": "nonpayable",
      "type": "function"
    },
    {
      "inputs": [
        {
          "internalType": "uint256",
          "name": "productId",
          "type": "uint256"
        },
        {
          "internalType": "address",
          "name": "user",
          "type": "address"
        }
      ],
      "name": "hasProductAccess",
      "outputs": [
        {
          "internalType": "bool",
          "name": "",
          "type": "bool"
        }
      ],
      "stateMutability": "view",
      "type": "function"
    },
    {
      "inputs": [
        {
          "internalType": "bytes32",
          "name": "role",
          "type": "bytes32"
        },
        {
          "internalType": "address",
          "name": "account",
          "type": "address"
        }
      ],
      "name": "hasRole",
      "outputs": [
        {
          "internalType": "bool",
          "name": "",
          "type": "bool"
        }
      ],
      "stateMutability": "view",
      "type": "function"
    },
    {
      "inputs": [
        {
          "internalType": "uint256",
          "name": "walletId",
          "type": "uint256"
        },
        {
          "internalType": "address",
          "name": "account",
          "type": "address"
        }
      ],
      "name": "isSigner",
      "outputs": [
        {
          "internalType": "bool",
          "name": "",
          "type": "bool"
        }
      ],
      "stateMutability": "view",
      "type": "function"
    },
    {
      "inputs": [
        {
          "internalType": "uint256",
          "name": "",
          "type": "uint256"
        }
      ],
      "name": "productEncryption",
      "outputs": [
        {
          "internalType": "bytes32",
          "name": "masterKeyHash",
          "type": "bytes32"
        },
        {
          "internalType": "uint256",
          "name": "keyRotationTime",
          "type": "uint256"
        },
        {
          "internalType": "bool",
          "name": "privacyEnabled",
          "type": "bool"
        }
      ],
      "stateMutability": "view",
      "type": "function"
    },
    {
      "inputs": [
        {
          "internalType": "uint256",
          "name": "walletId",
          "type": "uint256"
        },
        {
          "internalType": "address",
          "name": "to",
          "type": "address"
        },
        {
          "internalType": "uint256",
          "name": "value",
          "type": "uint256"
        },
        {
          "internalType": "bytes",
          "name": "data",
          "type": "bytes"
        },
        {
          "internalType": "string",
          "name": "operation",
          "type": "string"
        }
      ],
      "name": "proposeTransaction",
      "outputs": [
        {
          "internalType": "bytes32",
          "name": "",
          "type": "bytes32"
        }
      ],
      "stateMutability": "nonpayable",
      "type": "function"
    },
    {
      "inputs": [
        {
          "internalType": "bytes32",
          "name": "role",
          "type": "bytes32"
        },
        {
          "internalType": "address",
          "name": "account",
          "type": "address"
        }
      ],
      "name": "renounceRole",
      "outputs": [],
      "stateMutability": "nonpayable",
      "type": "function"
    },
    {
      "inputs": [
        {
          "internalType": "bytes32",
          "name": "role",
          "type": "bytes32"
        },
        {
          "internalType": "address",
          "name": "account",
          "type": "address"
        }
      ],
      "name": "revokeRole",
      "outputs": [],
      "stateMutability": "nonpayable",
      "type": "function"
    },
    {
      "inputs": [
        {
          "internalType": "uint256",
          "name": "productId",
          "type": "uint256"
        },
        {
          "internalType": "address[]",
          "name": "newAuthorizedUsers",
          "type": "address[]"
        }
      ],
      "name": "rotateProductKeys",
      "outputs": [],
      "stateMutability": "nonpayable",
      "type": "function"
    },
    {
      "inputs": [
        {
          "internalType": "uint256",
          "name": "walletId",
          "type": "uint256"
        },
        {
          "internalType": "bytes32",
          "name": "txHash",
          "type": "bytes32"
        }
      ],
      "name": "signTransaction",
      "outputs": [],
      "stateMutability": "nonpayable",
      "type": "function"
    },
    {
      "inputs": [
        {
          "internalType": "bytes4",
          "name": "interfaceId",
          "type": "bytes4"
        }
      ],
      "name": "supportsInterface",
      "outputs": [
        {
          "internalType": "bool",
          "name": "",
          "type": "bool"
        }
      ],
      "stateMutability": "view",
      "type": "function"
    },
    {
      "inputs": [
        {
          "internalType": "uint256",
          "name": "productId",
          "type": "uint256"
        },
        {
          "internalType": "bool",
          "name": "enable",
          "type": "bool"
        }
      ],
      "name": "togglePrivacyMode",
      "outputs": [],
      "stateMutability": "nonpayable",
      "type": "function"
    },
    {
      "inputs": [
        {
          "internalType": "bytes32",
          "name": "",
          "type": "bytes32"
        }
      ],
      "name": "transactions",
      "outputs": [
        {
          "internalType": "bytes32",
          "name": "txHash",
          "type": "bytes32"
        },
        {
          "internalType": "address",
          "name": "to",
          "type": "address"
        },
        {
          "internalType": "uint256",
          "name": "value",
          "type": "uint256"
        },
        {
          "internalType": "bytes",
          "name": "data",
          "type": "bytes"
        },
        {
          "internalType": "uint256",
          "name": "nonce",
          "type": "uint256"
        },
        {
          "internalType": "uint256",
          "name": "timestamp",
          "type": "uint256"
        },
        {
          "internalType": "bool",
          "name": "executed",
          "type": "bool"
        },
        {
          "internalType": "string",
          "name": "operation",
          "type": "string"
        }
      ],
      "stateMutability": "view",
      "type": "function"
    },
    {
      "inputs": [
        {
          "internalType": "address",
          "name": "",
          "type": "address"
        },
        {
          "internalType": "uint256",
          "name": "",
          "type": "uint256"
        }
      ],
      "name": "userWallets",
      "outputs": [
        {
          "internalType": "uint256",
          "name": "",
          "type": "uint256"
        }
      ],
      "stateMutability": "view",
      "type": "function"
    },
    {
      "inputs": [],
      "name": "walletCounter",
      "outputs": [
        {
          "internalType": "uint256",
          "name": "",
          "type": "uint256"
        }
      ],
      "stateMutability": "view",
      "type": "function"
    },
    {
      "inputs": [
        {
          "internalType": "uint256",
          "name": "",
          "type": "uint256"
        },
        {
          "internalType": "uint256",
          "name": "",
          "type": "uint256"
        }
      ],
      "name": "walletKeyShares",
      "outputs": [
        {
          "internalType": "bytes32",
          "name": "shareHash",
          "type": "bytes32"
        },
        {
          "internalType": "address",
          "name": "holder",
          "type": "address"
        },
        {
          "internalType": "uint256",
          "name": "shareIndex",
          "type": "uint256"
        },
        {
          "internalType": "bool",
          "name": "isActive",
          "type": "bool"
        },
        {
          "internalType": "uint256",
          "name": "lastUsed",
          "type": "uint256"
        }
      ],
      "stateMutability": "view",
      "type": "function"
    },
    {
      "inputs": [
        {
          "internalType": "uint256",
          "name": "",
          "type": "uint256"
        }
      ],
      "name": "wallets",
      "outputs": [
        {
          "internalType": "uint256",
          "name": "threshold",
          "type": "uint256"
        },
        {
          "internalType": "uint256",
          "name": "totalSigners",
          "type": "uint256"
        },
        {
          "internalType": "bool",
          "name": "isActive",
          "type": "bool"
        },
        {
          "internalType": "uint256",
          "name": "nonce",
          "type": "uint256"
        }
      ],
      "stateMutability": "view",
      "type": "function"
    },
    {
      "stateMutability": "payable",
      "type": "receive"
    }
  ],
  "bytecode": "0x6080604081815234620000ef57600180556000808052602091818352808220338352835260ff818320541615620000b7575b7f34c79eb9fd17cbe499d693afc3027574e6043a9383cc7f02ec0dd532d8b3995492838352828152818320338452815260ff8284205416156200007c575b6125d18581620000f58239f35b83835282815281832090338452528120600160ff198254161790553391600080516020620026c6833981519152339280a4388080806200006f565b8180528183528082203383528352808220600160ff19825416179055333383600080516020620026c68339815191528180a462000031565b600080fdfe60806040526004361015610018575b361561001657005b005b60003560e01c80630155e09814611c3557806301ffc9a714611bdf57806304bdbc1914611b63578063142060431461195557806316929ad814611797578063184ea1ad14610a37578063248a9ca314611768578063280b6b631461105a5780632f2ff15d14610fa757806334c9837214610f6c5780633510eee814610e8d57806336568abe14610dfb57806348bcbd2d14610dab5780634a0c217314610bb25780634bc39ec214610b6257806359ecd65714610b46578063642f2eaf14610a9a5780637ad71f7214610a3757806391d14854146109ea5780639f63d4ef146109a2578063a217fddf14610986578063a800c5881461094b578063a890e936146108d0578063afa1fd4a146104ae578063bd11c4c014610492578063d3071ed7146102e6578063d52d1b77146102b0578063d547741f14610271578063e8296c4f146101d0578063f24cb034146101955763f64d70600361000e5734610190576000366003190112610190576020600754604051908152f35b600080fd5b346101905760003660031901126101905760206040517f9fdd832c63a06cff8edefff7231d8026fd177377608db1841f7c881716ea19bc8152f35b34610190576040366003190112610190576101e9611c8f565b600435600052600560205260406000209060018060a01b031690816000526002810160205260ff604060002054161561023657600191600052016020526020604060002054604051908152f35b60405162461bcd60e51b8152602060048201526013602482015272155cd95c881b9bdd08185d5d1a1bdc9a5e9959606a1b6044820152606490fd5b3461019057604036600319011261019057610016600435610290611c8f565b908060005260006020526102ab600160406000200154612140565b61224a565b34610190576102be36611cbd565b9060005260026020526005604060002001906000526020526020604060002054604051908152f35b34610190576060366003190112610190576004356024356001600160401b03811161019057610319903690600401611d46565b60443580151581036101905761032d611f52565b8260005260209060058252604060002060405183810190868252426040820152446060820152694d41535445525f4b455960b01b6080820152606a815261037381611cef565b5190208155816000946001809681928286019160028701935b6103e5575b505050505060046103b492426003820155019060ff801983541691151516179055565b6103ba57005b7f1d8b577f957d646729ec9c15ee7e53227813eda1f32917d61d8adbc61709e20d91604051908152a2005b9091929394825182101561048b575061047f906001600160a01b0361040a82856123a8565b518854604051808d0191825292909116606081901b6bffffffffffffffffffffffff19166020830152426034830152605482018490529161045881607484015b03601f198101835282611d25565b51902090600052848a5260406000205584895260406000208660ff19825416179055612399565b9084939291879561038c565b9493610391565b3461019057600036600319011261019057602060405160028152f35b346101905760a0366003190112610190576104c7611c8f565b6044356064356001600160401b0381116101905736602382011215610190576104fa903690602481600401359101611f1b565b6084356001600160401b03811161019057366023820112156101905761052a903690602481600401359101611f1b565b90600435600052600260205261054a60ff600260406000200154166123bc565b600435600052600260205260046040600020013360005260205261057560ff604060002054166123fc565b600435600052600260205260036040600020019081549161059583612399565b9055604051602081019060043582526001600160601b03198760601b16604082015285605482015261060660b48285516105d6816074840160208a01611e9c565b81018760748201524260948201528851906105f78285830160208d01611e9c565b01036094810184520182611d25565b519020936040519561061787611cd3565b85875260018060a01b031660208701526040860152606085015260808401524260a0840152600060c08401528060e08401528160005260036020526040600020835181556001810160018060a01b036020860151166001600160601b0360a01b8254161790556040840151600282015560608401518051906001600160401b03821161083a576106b7826106ae6003860154611dbc565b60038601612437565b602090601f831160011461085b57918060e09492600794600092610850575b50508160011b916000199060031b1c19161760038201555b6080860151600482015560a0860151600582015561072160c08701511515600683019060ff801983541691151516179055565b019301519283516001600160401b03811161083a578060209561074e826107488654611dbc565b86612437565b8690601f83116001146107d6576000926107cb575b50508160011b916000199060031b1c19161790555b61078482600435612507565b60405190838252827f44a81411458a2e4175560003b04d7814e2fce98166f0c06b8cc557f2c2a36b3f3393806107c06004359589830190611ebf565b0390a4604051908152f35b015190508680610763565b60008581528881209350601f198516905b818110610823575090846001959493921061080a575b505050811b019055610778565b015160001960f88460031b161c191690558680806107fd565b9293896001819287860151815501950193016107e7565b634e487b7160e01b600052604160045260246000fd5b0151905088806106d6565b906003840160005260206000209160005b601f19851681106108b857509260e0949260019260079583601f1981161061089f575b505050811b0160038201556106ee565b015160001960f88460031b161c1916905588808061088f565b9192602060018192868501518155019401920161086c565b34610190576040366003190112610190576024356004356000526004602052604060002080548210156101905760a09161090991611ee4565b50805490600180841b03600182015416906002810154600460ff6003840154169201549260405194855260208501526040840152151560608301526080820152f35b346101905760003660031901126101905760206040517f34c79eb9fd17cbe499d693afc3027574e6043a9383cc7f02ec0dd532d8b399548152f35b3461019057600036600319011261019057602060405160008152f35b346101905760203660031901126101905760043560005260056020526060604060002080549060ff600460038301549201541690604051928352602083015215156040820152f35b3461019057604036600319011261019057610a03611c8f565b600435600052600060205260406000209060018060a01b0316600052602052602060ff604060002054166040519015158152f35b3461019057602036600319011261019057600435600052600260205260406000208054610a96600183015492600360ff600283015416910154906040519485948590949392606092608083019683526020830152151560408201520152565b0390f35b3461019057602036600319011261019057600435600052600360205260406000208054610a9660018060a01b03600184015416926002810154610adf60038301611df6565b91600481015492610b27600583015491610b03600760ff6006870154169501611df6565b94604051998a998a5260208a015260408901526101008060608a0152880190611ebf565b93608087015260a0860152151560c085015283820360e0850152611ebf565b3461019057600036600319011261019057602060405160148152f35b3461019057604036600319011261019057610b7b611c8f565b600435600052600560205260026040600020019060018060a01b0316600052602052602060ff604060002054166040519015158152f35b3461019057602080600319360112610190576000805260008152604060002033600052815260ff6040600020541615610c045760029060043560005252600260406000200160ff198154169055600080f35b610c0d336122cf565b906000604051610c1c81611d0a565b60428152828101916060368437815115610d9557603083538151600190811015610d9557607860218401536041905b808211610d3b575050610cf857610cc493610cd39260489260405196879376020b1b1b2b9b9a1b7b73a3937b61d1030b1b1b7bab73a1604d1b88860152610c9b815180928a603789019101611e9c565b8401917001034b99036b4b9b9b4b733903937b6329607d1b603784015251809386840190611e9c565b01036028810185520183611d25565b610cf460405192839262461bcd60e51b845260048401526024830190611ebf565b0390fd5b6064836040519062461bcd60e51b825280600483015260248201527f537472696e67733a20686578206c656e67746820696e73756666696369656e746044820152fd5b9091600f81166010811015610d95576f181899199a1a9b1b9c1cb0b131b232b360811b901a610d6a84866122be565b5360041c918015610d7f576000190190610c4b565b634e487b7160e01b600052601160045260246000fd5b634e487b7160e01b600052603260045260246000fd5b3461019057604036600319011261019057610dc4611c8f565b600435600052600260205260046040600020019060018060a01b0316600052602052602060ff604060002054166040519015158152f35b3461019057604036600319011261019057610e14611c8f565b336001600160a01b03821603610e30576100169060043561224a565b60405162461bcd60e51b815260206004820152602f60248201527f416363657373436f6e74726f6c3a2063616e206f6e6c792072656e6f756e636560448201526e103937b632b9903337b91039b2b63360891b6064820152608490fd5b3461019057610e9b36611cbd565b8160005260209160028352610eba60ff600260406000200154166123bc565b80600052600283526004604060002001336000528352610ee160ff604060002054166123fc565b8160005260038352610efe60ff600660406000200154161561248b565b80600052600283526006604060002001826000528352604060002033600052835260ff60406000205416610f36576100169250612507565b60405162461bcd60e51b815260048101849052600e60248201526d105b1c9958591e481cda59db995960921b6044820152606490fd5b346101905760003660031901126101905760206040517f4a4e8f960ad8dfe51c9e1fdb04f325d6817ac9f472c6b81f8d6fa824411d920a8152f35b3461019057604036600319011261019057600435610fc3611c8f565b816000526000602052610fdd600160406000200154612140565b81600052600060205260406000209060018060a01b0316908160005260205260ff604060002054161561100c57005b8160005260006020526040600020816000526020526040600020600160ff1982541617905533917f2f8788117e7eff1d82e926ec794901d17c78024a50270940304540a733656f0d600080a4005b34610190576040366003190112610190576004356001600160401b0381116101905761108a903690600401611d46565b3360009081527ff88ff5cb37489233e018b23937a1723ebd4086dab3d78fe9335dbc7c83c7578d60205260409020547f34c79eb9fd17cbe499d693afc3027574e6043a9383cc7f02ec0dd532d8b399549060ff1615611616575060028151106115da5760148151116115a25760026024351061156957805160243511611524576007549061111782612399565b60075581600052600260205260406000209060243582558051600183015560028201600160ff198254161790556000600383015560005b8151811015611305576001600160a01b0361116982846123a8565b5116156112c7576001600160a01b0361118282846123a8565b511660009081526004840160205260409020805460ff191660011790556001600160a01b036111b182846123a8565b51166000526006602052604060002090815491600160401b83101561083a57826111e391600161126f95018155611ca5565b815460001960039290921b91821b19169087901b1790556001600160a01b0361120c82856123a8565b511660008181527f4ecb7fc4a9137e7f349b09db6baddcb29d7ca9527e667cf615c95b61da8a10fc60205260409020547f4a4e8f960ad8dfe51c9e1fdb04f325d6817ac9f472c6b81f8d6fa824411d920a919060ff1615611274575b5050612399565b61114e565b8160005260006020526040600020816000526020526040600020600160ff1982541617905533917f2f8788117e7eff1d82e926ec794901d17c78024a50270940304540a733656f0d600080a48580611268565b60405162461bcd60e51b8152602060048201526016602482015275496e76616c6964207369676e6572206164647265737360501b6044820152606490fd5b508260005b82518110156114a65761131d81846123a8565b5160405160208101918483526001600160601b03199060601b166040820152426054820152826074820152684b45595f534841524560b81b6094820152607d815261136781611cef565b519020906001600160a01b0361137d82866123a8565b5116604051928360a08101106001600160401b0360a08601111761083a5760a08401604052835260208301528060408301526001606083015242608083015282600052600460205260406000208054600160401b81101561083a576113e791600182018155611ee4565b61149057600460808461148b955184556001840160018060a01b036020830151166001600160601b0360a01b8254161790556040810151600285015561144260608201511515600386019060ff801983541691151516179055565b01519101556001600160a01b0361145982866123a8565b5116837f61c451cc1dd79c713b8706656c05a309deed4338f0aa059b0815ec2836c2e2416020604051858152a3612399565b61130a565b634e487b7160e01b600052600060045260246000fd5b50604051916040830160408452815180915260206060850192019060005b81811061150557602085807f9e186c3f64e87a986c0f242fee86906463e408fe969bf56e0aaab29924264df6898089602435878301520390a2604051908152f35b82516001600160a01b03168452602093840193909201916001016114c4565b60405162461bcd60e51b815260206004820152601960248201527f5468726573686f6c642065786365656473207369676e657273000000000000006044820152606490fd5b60405162461bcd60e51b81526020600482015260116024820152705468726573686f6c6420746f6f206c6f7760781b6044820152606490fd5b60405162461bcd60e51b815260206004820152601060248201526f546f6f206d616e79207369676e65727360801b6044820152606490fd5b60405162461bcd60e51b8152602060048201526014602482015273496e73756666696369656e74207369676e65727360601b6044820152606490fd5b61161f336122cf565b6040519161162c83611d0a565b6042835260208301906060368337835115610d9557603082538351600190811015610d9557607860218601536041905b8082116117245750506116e05760486116b1926116c092610cf49560405195869376020b1b1b2b9b9a1b7b73a3937b61d1030b1b1b7bab73a1604d1b6020860152610c9b815180926020603789019101611e9c565b01036028810184520182611d25565b60405162461bcd60e51b8152602060048201529182916024830190611ebf565b606460405162461bcd60e51b815260206004820152602060248201527f537472696e67733a20686578206c656e67746820696e73756666696369656e746044820152fd5b9091600f81166010811015610d95576f181899199a1a9b1b9c1cb0b131b232b360811b901a61175384886122be565b5360041c918015610d7f57600019019061165c565b346101905760203660031901126101905760043560005260006020526020600160406000200154604051908152f35b34610190576040366003190112610190576004356024356001600160401b038111610190576117ca903690600401611d46565b6117d2611f52565b816000526020600581526040600020805415611910576040518281019085825242604082015244606082015271524f54415445445f4d41535445525f4b455960701b60808201526072815261182681611cef565b51902081556001926002820190848301906000865b611873575b877fbaa4a053efa4864176a329c4206b6cc264b24b4286dc4ed300a4c157ae6400d68787600342910155604051428152a2005b815181101561190b578693929190611902906001600160a01b0361189782856123a8565b518854604051808c0191825292909116606081901b6bffffffffffffffffffffffff1916602083015242603483015260548201849052916118db816074840161044a565b5190209060005284895260406000205584885260406000208660ff19825416179055612399565b9091929361183b565b611840565b60405162461bcd60e51b815260048101839052601c60248201527f50726f64756374206b657973206e6f7420696e697469616c697a6564000000006044820152606490fd5b346101905761196336611cbd565b9060029160019280845414611b1e578084558260005260209080825261199260ff8260406000200154166123bc565b82600052600382526119af60ff600660406000200154161561248b565b8360005280825260056040600020018360005282526040600020548460005281835260406000205411611ad95790600080867fd06bf4fbcb7fca12f6f05bee1ad9894d18bd861b0cfb7d0c461ad45425f7a00e94868352600385526040832090600682018360ff1982541617905560405190611a2a82611cd3565b8254825260018060a01b039160e0611a886007858888015416948b85019586528701549660408501978852611a6160038201611df6565b9860608601998a5260048201546080870152600582015460a087015260c086015201611df6565b910152825115158514611abb57511690519151918583519301915af1611aac6124d7565b505b6040519015158152a38055005b51925180519390870192508491165af1611ad36124d7565b50611aae565b60405162461bcd60e51b815260048101839052601760248201527f496e73756666696369656e74207369676e6174757265730000000000000000006044820152606490fd5b60405162461bcd60e51b815260206004820152601f60248201527f5265656e7472616e637947756172643a207265656e7472616e742063616c6c006044820152606490fd5b346101905760403660031901126101905760043560243580151590818103610190577f1d8b577f957d646729ec9c15ee7e53227813eda1f32917d61d8adbc61709e20d91611bd6602092611bb5611f52565b856000526005845260046040600020019060ff801983541691151516179055565b604051908152a2005b346101905760203660031901126101905760043563ffffffff60e01b811680910361019057602090637965db0b60e01b8114908115611c24575b506040519015158152f35b6301ffc9a760e01b14905082611c19565b34610190576040366003190112610190576004356001600160a01b03811690819003610190576024359060005260066020526040600020805482101561019057602091611c8191611ca5565b90546040519160031b1c8152f35b602435906001600160a01b038216820361019057565b8054821015610d955760005260206000200190600090565b6040906003190112610190576004359060243590565b61010081019081106001600160401b0382111761083a57604052565b60a081019081106001600160401b0382111761083a57604052565b608081019081106001600160401b0382111761083a57604052565b90601f801991011681019081106001600160401b0382111761083a57604052565b9080601f83011215610190578135906001600160401b03821161083a578160051b60405193602093611d7a85840187611d25565b85528380860192820101928311610190578301905b828210611d9d575050505090565b81356001600160a01b0381168103610190578152908301908301611d8f565b90600182811c92168015611dec575b6020831014611dd657565b634e487b7160e01b600052602260045260246000fd5b91607f1691611dcb565b9060405191826000825492611e0a84611dbc565b908184526001948581169081600014611e795750600114611e36575b5050611e3492500383611d25565b565b9093915060005260209081600020936000915b818310611e61575050611e3493508201013880611e26565b85548884018501529485019487945091830191611e49565b915050611e3494506020925060ff191682840152151560051b8201013880611e26565b60005b838110611eaf5750506000910152565b8181015183820152602001611e9f565b90602091611ed881518092818552858086019101611e9c565b601f01601f1916010190565b8054821015610d95576000526005602060002091020190600090565b6001600160401b03811161083a57601f01601f191660200190565b929192611f2782611f00565b91611f356040519384611d25565b829481845281830111610190578281602093846000960137010152565b3360009081527f5e5787a31ae8d25f12375b495109ad844822e42e52ddb92802f02e9bc4fce6af602090815260408083205490927f9fdd832c63a06cff8edefff7231d8026fd177377608db1841f7c881716ea19bc9160ff1615611fb65750505050565b611fbf336122cf565b91845190611fcc82611d0a565b6042825284820192606036853782511561212c576030845382519060019182101561212c5790607860218501536041915b8183116120be5750505061207c576048610cf493869361206093612051985198899376020b1b1b2b9b9a1b7b73a3937b61d1030b1b1b7bab73a1604d1b8a860152610c9b815180928c603789019101611e9c565b01036028810187520185611d25565b5192839262461bcd60e51b845260048401526024830190611ebf565b60648486519062461bcd60e51b825280600483015260248201527f537472696e67733a20686578206c656e67746820696e73756666696369656e746044820152fd5b909192600f81166010811015612118576f181899199a1a9b1b9c1cb0b131b232b360811b901a6120ee85876122be565b5360041c92801561210457600019019190611ffd565b634e487b7160e01b82526011600452602482fd5b634e487b7160e01b83526032600452602483fd5b634e487b7160e01b81526032600452602490fd5b600090808252602090828252604092838120338252835260ff8482205416156121695750505050565b612172336122cf565b9184519061217f82611d0a565b6042825284820192606036853782511561212c576030845382519060019182101561212c5790607860218501536041915b8183116122045750505061207c576048610cf493869361206093612051985198899376020b1b1b2b9b9a1b7b73a3937b61d1030b1b1b7bab73a1604d1b8a860152610c9b815180928c603789019101611e9c565b909192600f81166010811015612118576f181899199a1a9b1b9c1cb0b131b232b360811b901a61223485876122be565b5360041c928015612104576000190191906121b0565b9060009180835282602052604083209160018060a01b03169182845260205260ff60408420541661227a57505050565b80835282602052604083208284526020526040832060ff1981541690557ff6391f5c32d9c69d2a47ea670b442974b53935d1edc7fd64eb21e047a839171b339380a4565b908151811015610d95570160200190565b60405190606082018281106001600160401b0382111761083a57604052602a8252602082016040368237825115610d9557603090538151600190811015610d9557607860218401536029905b80821161232b5750506116e05790565b9091600f81166010811015612384576f181899199a1a9b1b9c1cb0b131b232b360811b901a61235a84866122be565b5360041c91801561236f57600019019061231b565b60246000634e487b7160e01b81526011600452fd5b60246000634e487b7160e01b81526032600452fd5b6000198114610d7f5760010190565b8051821015610d955760209160051b010190565b156123c357565b60405162461bcd60e51b815260206004820152601160248201527057616c6c6574206e6f742061637469766560781b6044820152606490fd5b1561240357565b60405162461bcd60e51b815260206004820152600c60248201526b2737ba10309039b4b3b732b960a11b6044820152606490fd5b90601f811161244557505050565b600091825260208220906020601f850160051c83019410612481575b601f0160051c01915b82811061247657505050565b81815560010161246a565b9092508290612461565b1561249257565b60405162461bcd60e51b815260206004820152601c60248201527f5472616e73616374696f6e20616c7265616479206578656375746564000000006044820152606490fd5b3d15612502573d906124e882611f00565b916124f66040519384611d25565b82523d6000602084013e565b606090565b60008181526002602081815260408084208685526006810183528185203386528352818520805460ff191660011790558685526005018252808420805493969295949391929161255690612399565b905583835285855260058284200181845285528183205491519182527f6bcf69b7435529359bfdef2098fc90b2487208122394145ff307120e089bd50c853393a3525256fea264697066735822122073fe3d4fc7a4ccab6bb2244f599dd3e829c35d114c820ab72e9746cc7b328d8b64736f6c634300081300332f8788117e7eff1d82e926ec794901d17c78024a50270940304540a733656f0d",
  "linkReferences": {},
  "deployedLinkReferences": {}
}