{
  "_format": "hh-sol-artifact-1",
  "contractName": "ProTrackAdvancedIoT",
  "sourceName": "contracts/ProTrackAdvancedIoT.sol",
  "abi": [
    {
      "inputs": [
        {
          "internalType": "address",
          "name": "_supplyChainContract",
          "type": "address"
        },
        {
          "internalType": "address payable",
          "name": "_mpcWallet",
          "type": "address"
        }
      ],
      "stateMutability": "nonpayable",
      "type": "constructor"
    },
    {
      "anonymous": false,
      "inputs": [
        {
          "indexed": true,
          "internalType": "address",
          "name": "deviceAddress",
          "type": "address"
        },
        {
          "indexed": false,
          "internalType": "string",
          "name": "deviceId",
          "type": "string"
        },
        {
          "indexed": false,
          "internalType": "string",
          "name": "deviceType",
          "type": "string"
        },
        {
          "indexed": false,
          "internalType": "string",
          "name": "protocol",
          "type": "string"
        }
      ],
      "name": "AdvancedDeviceRegistered",
      "type": "event"
    },
    {
      "anonymous": false,
      "inputs": [
        {
          "indexed": true,
          "internalType": "uint256",
          "name": "ruleId",
          "type": "uint256"
        },
        {
          "indexed": false,
          "internalType": "string",
          "name": "sensorType",
          "type": "string"
        },
        {
          "indexed": false,
          "internalType": "int256",
          "name": "minThreshold",
          "type": "int256"
        },
        {
          "indexed": false,
          "internalType": "int256",
          "name": "maxThreshold",
          "type": "int256"
        }
      ],
      "name": "AlertRuleCreated",
      "type": "event"
    },
    {
      "anonymous": false,
      "inputs": [
        {
          "indexed": true,
          "internalType": "uint256",
          "name": "ruleId",
          "type": "uint256"
        },
        {
          "indexed": true,
          "internalType": "uint256",
          "name": "tokenId",
          "type": "uint256"
        },
        {
          "indexed": false,
          "internalType": "string",
          "name": "alertType",
          "type": "string"
        },
        {
          "indexed": false,
          "internalType": "int256",
          "name": "value",
          "type": "int256"
        }
      ],
      "name": "AutomatedAlertTriggered",
      "type": "event"
    },
    {
      "anonymous": false,
      "inputs": [
        {
          "indexed": true,
          "internalType": "string",
          "name": "deviceId",
          "type": "string"
        },
        {
          "indexed": false,
          "internalType": "bytes32",
          "name": "expectedHash",
          "type": "bytes32"
        },
        {
          "indexed": false,
          "internalType": "bytes32",
          "name": "receivedHash",
          "type": "bytes32"
        }
      ],
      "name": "DataIntegrityViolation",
      "type": "event"
    },
    {
      "anonymous": false,
      "inputs": [
        {
          "indexed": true,
          "internalType": "address",
          "name": "deviceAddress",
          "type": "address"
        },
        {
          "indexed": false,
          "internalType": "uint256",
          "name": "batteryLevel",
          "type": "uint256"
        },
        {
          "indexed": false,
          "internalType": "string",
          "name": "gpsLocation",
          "type": "string"
        }
      ],
      "name": "DeviceHeartbeat",
      "type": "event"
    },
    {
      "anonymous": false,
      "inputs": [
        {
          "indexed": true,
          "internalType": "string",
          "name": "deviceId",
          "type": "string"
        },
        {
          "indexed": true,
          "internalType": "uint256",
          "name": "tokenId",
          "type": "uint256"
        },
        {
          "indexed": false,
          "internalType": "bytes32",
          "name": "dataHash",
          "type": "bytes32"
        },
        {
          "indexed": false,
          "internalType": "uint256",
          "name": "sequenceNumber",
          "type": "uint256"
        }
      ],
      "name": "EncryptedDataReceived",
      "type": "event"
    },
    {
      "anonymous": false,
      "inputs": [
        {
          "indexed": true,
          "internalType": "string",
          "name": "networkId",
          "type": "string"
        },
        {
          "indexed": true,
          "internalType": "address",
          "name": "gateway",
          "type": "address"
        },
        {
          "indexed": false,
          "internalType": "uint256",
          "name": "frequency",
          "type": "uint256"
        }
      ],
      "name": "LoRaNetworkConfigured",
      "type": "event"
    },
    {
      "anonymous": false,
      "inputs": [
        {
          "indexed": true,
          "internalType": "string",
          "name": "brokerId",
          "type": "string"
        },
        {
          "indexed": true,
          "internalType": "address",
          "name": "broker",
          "type": "address"
        },
        {
          "indexed": false,
          "internalType": "string",
          "name": "brokerUrl",
          "type": "string"
        }
      ],
      "name": "MQTTBrokerConfigured",
      "type": "event"
    },
    {
      "anonymous": false,
      "inputs": [
        {
          "indexed": true,
          "internalType": "uint256",
          "name": "modelId",
          "type": "uint256"
        },
        {
          "indexed": false,
          "internalType": "string",
          "name": "modelType",
          "type": "string"
        },
        {
          "indexed": false,
          "internalType": "uint256",
          "name": "accuracy",
          "type": "uint256"
        }
      ],
      "name": "PredictiveModelUpdated",
      "type": "event"
    },
    {
      "anonymous": false,
      "inputs": [
        {
          "indexed": true,
          "internalType": "bytes32",
          "name": "role",
          "type": "bytes32"
        },
        {
          "indexed": true,
          "internalType": "bytes32",
          "name": "previousAdminRole",
          "type": "bytes32"
        },
        {
          "indexed": true,
          "internalType": "bytes32",
          "name": "newAdminRole",
          "type": "bytes32"
        }
      ],
      "name": "RoleAdminChanged",
      "type": "event"
    },
    {
      "anonymous": false,
      "inputs": [
        {
          "indexed": true,
          "internalType": "bytes32",
          "name": "role",
          "type": "bytes32"
        },
        {
          "indexed": true,
          "internalType": "address",
          "name": "account",
          "type": "address"
        },
        {
          "indexed": true,
          "internalType": "address",
          "name": "sender",
          "type": "address"
        }
      ],
      "name": "RoleGranted",
      "type": "event"
    },
    {
      "anonymous": false,
      "inputs": [
        {
          "indexed": true,
          "internalType": "bytes32",
          "name": "role",
          "type": "bytes32"
        },
        {
          "indexed": true,
          "internalType": "address",
          "name": "account",
          "type": "address"
        },
        {
          "indexed": true,
          "internalType": "address",
          "name": "sender",
          "type": "address"
        }
      ],
      "name": "RoleRevoked",
      "type": "event"
    },
    {
      "inputs": [],
      "name": "ANALYTICS_ROLE",
      "outputs": [
        {
          "internalType": "bytes32",
          "name": "",
          "type": "bytes32"
        }
      ],
      "stateMutability": "view",
      "type": "function"
    },
    {
      "inputs": [],
      "name": "DEFAULT_ADMIN_ROLE",
      "outputs": [
        {
          "internalType": "bytes32",
          "name": "",
          "type": "bytes32"
        }
      ],
      "stateMutability": "view",
      "type": "function"
    },
    {
      "inputs": [],
      "name": "IOT_DEVICE_ROLE",
      "outputs": [
        {
          "internalType": "bytes32",
          "name": "",
          "type": "bytes32"
        }
      ],
      "stateMutability": "view",
      "type": "function"
    },
    {
      "inputs": [],
      "name": "IOT_GATEWAY_ROLE",
      "outputs": [
        {
          "internalType": "bytes32",
          "name": "",
          "type": "bytes32"
        }
      ],
      "stateMutability": "view",
      "type": "function"
    },
    {
      "inputs": [],
      "name": "LORA_NODE_ROLE",
      "outputs": [
        {
          "internalType": "bytes32",
          "name": "",
          "type": "bytes32"
        }
      ],
      "stateMutability": "view",
      "type": "function"
    },
    {
      "inputs": [],
      "name": "MQTT_BROKER_ROLE",
      "outputs": [
        {
          "internalType": "bytes32",
          "name": "",
          "type": "bytes32"
        }
      ],
      "stateMutability": "view",
      "type": "function"
    },
    {
      "inputs": [],
      "name": "alertRuleCounter",
      "outputs": [
        {
          "internalType": "uint256",
          "name": "",
          "type": "uint256"
        }
      ],
      "stateMutability": "view",
      "type": "function"
    },
    {
      "inputs": [
        {
          "internalType": "uint256",
          "name": "",
          "type": "uint256"
        }
      ],
      "name": "alertRules",
      "outputs": [
        {
          "internalType": "uint256",
          "name": "ruleId",
          "type": "uint256"
        },
        {
          "internalType": "string",
          "name": "sensorType",
          "type": "string"
        },
        {
          "internalType": "int256",
          "name": "minThreshold",
          "type": "int256"
        },
        {
          "internalType": "int256",
          "name": "maxThreshold",
          "type": "int256"
        },
        {
          "internalType": "uint256",
          "name": "timeWindow",
          "type": "uint256"
        },
        {
          "internalType": "bool",
          "name": "isActive",
          "type": "bool"
        },
        {
          "internalType": "string",
          "name": "alertMessage",
          "type": "string"
        },
        {
          "internalType": "uint256",
          "name": "cooldownPeriod",
          "type": "uint256"
        },
        {
          "internalType": "uint256",
          "name": "lastTriggered",
          "type": "uint256"
        }
      ],
      "stateMutability": "view",
      "type": "function"
    },
    {
      "inputs": [
        {
          "internalType": "address",
          "name": "deviceAddress",
          "type": "address"
        },
        {
          "internalType": "uint256[]",
          "name": "productIds",
          "type": "uint256[]"
        }
      ],
      "name": "assignDeviceToProducts",
      "outputs": [],
      "stateMutability": "nonpayable",
      "type": "function"
    },
    {
      "inputs": [
        {
          "internalType": "string[]",
          "name": "deviceIds",
          "type": "string[]"
        },
        {
          "internalType": "uint256[]",
          "name": "tokenIds",
          "type": "uint256[]"
        },
        {
          "internalType": "bytes[]",
          "name": "encryptedValues",
          "type": "bytes[]"
        },
        {
          "internalType": "bytes32[]",
          "name": "dataHashes",
          "type": "bytes32[]"
        }
      ],
      "name": "batchProcessIoTData",
      "outputs": [],
      "stateMutability": "nonpayable",
      "type": "function"
    },
    {
      "inputs": [
        {
          "internalType": "string",
          "name": "networkId",
          "type": "string"
        },
        {
          "internalType": "address",
          "name": "gatewayAddress",
          "type": "address"
        },
        {
          "internalType": "uint256",
          "name": "frequency",
          "type": "uint256"
        },
        {
          "internalType": "uint8",
          "name": "spreadingFactor",
          "type": "uint8"
        },
        {
          "internalType": "uint8",
          "name": "bandwidth",
          "type": "uint8"
        }
      ],
      "name": "configureLoRaNetwork",
      "outputs": [],
      "stateMutability": "nonpayable",
      "type": "function"
    },
    {
      "inputs": [
        {
          "internalType": "string",
          "name": "brokerId",
          "type": "string"
        },
        {
          "internalType": "address",
          "name": "brokerAddress",
          "type": "address"
        },
        {
          "internalType": "string",
          "name": "brokerUrl",
          "type": "string"
        },
        {
          "internalType": "uint16",
          "name": "port",
          "type": "uint16"
        },
        {
          "internalType": "bool",
          "name": "requiresAuth",
          "type": "bool"
        },
        {
          "internalType": "bool",
          "name": "isSecure",
          "type": "bool"
        }
      ],
      "name": "configureMQTTBroker",
      "outputs": [],
      "stateMutability": "nonpayable",
      "type": "function"
    },
    {
      "inputs": [
        {
          "internalType": "string",
          "name": "sensorType",
          "type": "string"
        },
        {
          "internalType": "int256",
          "name": "minThreshold",
          "type": "int256"
        },
        {
          "internalType": "int256",
          "name": "maxThreshold",
          "type": "int256"
        },
        {
          "internalType": "uint256",
          "name": "timeWindow",
          "type": "uint256"
        },
        {
          "internalType": "address[]",
          "name": "notificationTargets",
          "type": "address[]"
        },
        {
          "internalType": "string",
          "name": "alertMessage",
          "type": "string"
        },
        {
          "internalType": "uint256",
          "name": "cooldownPeriod",
          "type": "uint256"
        }
      ],
      "name": "createAlertRule",
      "outputs": [
        {
          "internalType": "uint256",
          "name": "",
          "type": "uint256"
        }
      ],
      "stateMutability": "nonpayable",
      "type": "function"
    },
    {
      "inputs": [],
      "name": "dashboard",
      "outputs": [
        {
          "internalType": "uint256",
          "name": "totalDevices",
          "type": "uint256"
        },
        {
          "internalType": "uint256",
          "name": "activeDevices",
          "type": "uint256"
        },
        {
          "internalType": "uint256",
          "name": "alertsLast24h",
          "type": "uint256"
        },
        {
          "internalType": "uint256",
          "name": "dataPointsToday",
          "type": "uint256"
        }
      ],
      "stateMutability": "view",
      "type": "function"
    },
    {
      "inputs": [
        {
          "internalType": "uint256",
          "name": "tokenId",
          "type": "uint256"
        },
        {
          "internalType": "uint256",
          "name": "readingIndex",
          "type": "uint256"
        },
        {
          "internalType": "bytes32",
          "name": "decryptionKey",
          "type": "bytes32"
        }
      ],
      "name": "decryptSensorData",
      "outputs": [
        {
          "internalType": "bytes",
          "name": "",
          "type": "bytes"
        },
        {
          "internalType": "bytes",
          "name": "",
          "type": "bytes"
        }
      ],
      "stateMutability": "view",
      "type": "function"
    },
    {
      "inputs": [
        {
          "internalType": "address",
          "name": "",
          "type": "address"
        },
        {
          "internalType": "uint256",
          "name": "",
          "type": "uint256"
        }
      ],
      "name": "deviceAlerts",
      "outputs": [
        {
          "internalType": "uint256",
          "name": "",
          "type": "uint256"
        }
      ],
      "stateMutability": "view",
      "type": "function"
    },
    {
      "inputs": [
        {
          "internalType": "string",
          "name": "deviceId",
          "type": "string"
        },
        {
          "internalType": "uint256",
          "name": "batteryLevel",
          "type": "uint256"
        },
        {
          "internalType": "string",
          "name": "gpsLocation",
          "type": "string"
        }
      ],
      "name": "deviceHeartbeat",
      "outputs": [],
      "stateMutability": "nonpayable",
      "type": "function"
    },
    {
      "inputs": [
        {
          "internalType": "string",
          "name": "",
          "type": "string"
        }
      ],
      "name": "deviceIdToAddress",
      "outputs": [
        {
          "internalType": "address",
          "name": "",
          "type": "address"
        }
      ],
      "stateMutability": "view",
      "type": "function"
    },
    {
      "inputs": [
        {
          "internalType": "address",
          "name": "deviceAddress",
          "type": "address"
        }
      ],
      "name": "emergencyDeactivateDevice",
      "outputs": [],
      "stateMutability": "nonpayable",
      "type": "function"
    },
    {
      "inputs": [
        {
          "internalType": "uint256",
          "name": "ruleId",
          "type": "uint256"
        }
      ],
      "name": "getAlertRule",
      "outputs": [
        {
          "internalType": "string",
          "name": "sensorType",
          "type": "string"
        },
        {
          "internalType": "int256",
          "name": "minThreshold",
          "type": "int256"
        },
        {
          "internalType": "int256",
          "name": "maxThreshold",
          "type": "int256"
        },
        {
          "internalType": "bool",
          "name": "isActive",
          "type": "bool"
        },
        {
          "internalType": "uint256",
          "name": "lastTriggered",
          "type": "uint256"
        }
      ],
      "stateMutability": "view",
      "type": "function"
    },
    {
      "inputs": [],
      "name": "getDashboardData",
      "outputs": [
        {
          "internalType": "uint256",
          "name": "totalDevices",
          "type": "uint256"
        },
        {
          "internalType": "uint256",
          "name": "activeDevices",
          "type": "uint256"
        },
        {
          "internalType": "uint256",
          "name": "alertsLast24h",
          "type": "uint256"
        },
        {
          "internalType": "uint256",
          "name": "dataPointsToday",
          "type": "uint256"
        }
      ],
      "stateMutability": "view",
      "type": "function"
    },
    {
      "inputs": [
        {
          "internalType": "address",
          "name": "deviceAddress",
          "type": "address"
        }
      ],
      "name": "getDeviceInfo",
      "outputs": [
        {
          "internalType": "string",
          "name": "deviceId",
          "type": "string"
        },
        {
          "internalType": "string",
          "name": "deviceType",
          "type": "string"
        },
        {
          "internalType": "string",
          "name": "protocol",
          "type": "string"
        },
        {
          "internalType": "bool",
          "name": "isActive",
          "type": "bool"
        },
        {
          "internalType": "uint256",
          "name": "batteryLevel",
          "type": "uint256"
        },
        {
          "internalType": "uint256",
          "name": "lastHeartbeat",
          "type": "uint256"
        }
      ],
      "stateMutability": "view",
      "type": "function"
    },
    {
      "inputs": [
        {
          "internalType": "bytes32",
          "name": "role",
          "type": "bytes32"
        }
      ],
      "name": "getRoleAdmin",
      "outputs": [
        {
          "internalType": "bytes32",
          "name": "",
          "type": "bytes32"
        }
      ],
      "stateMutability": "view",
      "type": "function"
    },
    {
      "inputs": [
        {
          "internalType": "bytes32",
          "name": "role",
          "type": "bytes32"
        },
        {
          "internalType": "address",
          "name": "account",
          "type": "address"
        }
      ],
      "name": "grantRole",
      "outputs": [],
      "stateMutability": "nonpayable",
      "type": "function"
    },
    {
      "inputs": [
        {
          "internalType": "bytes32",
          "name": "role",
          "type": "bytes32"
        },
        {
          "internalType": "address",
          "name": "account",
          "type": "address"
        }
      ],
      "name": "hasRole",
      "outputs": [
        {
          "internalType": "bool",
          "name": "",
          "type": "bool"
        }
      ],
      "stateMutability": "view",
      "type": "function"
    },
    {
      "inputs": [
        {
          "internalType": "address",
          "name": "",
          "type": "address"
        }
      ],
      "name": "iotDevices",
      "outputs": [
        {
          "internalType": "address",
          "name": "deviceAddress",
          "type": "address"
        },
        {
          "internalType": "string",
          "name": "deviceId",
          "type": "string"
        },
        {
          "internalType": "string",
          "name": "deviceType",
          "type": "string"
        },
        {
          "internalType": "string",
          "name": "protocol",
          "type": "string"
        },
        {
          "internalType": "string",
          "name": "firmwareVersion",
          "type": "string"
        },
        {
          "internalType": "uint256",
          "name": "batteryLevel",
          "type": "uint256"
        },
        {
          "internalType": "bool",
          "name": "isActive",
          "type": "bool"
        },
        {
          "internalType": "bool",
          "name": "isEncrypted",
          "type": "bool"
        },
        {
          "internalType": "uint256",
          "name": "lastHeartbeat",
          "type": "uint256"
        },
        {
          "internalType": "uint256",
          "name": "dataFrequency",
          "type": "uint256"
        },
        {
          "internalType": "string",
          "name": "gpsLocation",
          "type": "string"
        },
        {
          "internalType": "bytes32",
          "name": "encryptionKey",
          "type": "bytes32"
        }
      ],
      "stateMutability": "view",
      "type": "function"
    },
    {
      "inputs": [
        {
          "internalType": "string",
          "name": "",
          "type": "string"
        }
      ],
      "name": "loraNetworks",
      "outputs": [
        {
          "internalType": "string",
          "name": "networkId",
          "type": "string"
        },
        {
          "internalType": "address",
          "name": "gatewayAddress",
          "type": "address"
        },
        {
          "internalType": "uint256",
          "name": "frequency",
          "type": "uint256"
        },
        {
          "internalType": "uint8",
          "name": "spreadingFactor",
          "type": "uint8"
        },
        {
          "internalType": "uint8",
          "name": "bandwidth",
          "type": "uint8"
        },
        {
          "internalType": "bool",
          "name": "isActive",
          "type": "bool"
        },
        {
          "internalType": "uint256",
          "name": "nodeCount",
          "type": "uint256"
        }
      ],
      "stateMutability": "view",
      "type": "function"
    },
    {
      "inputs": [],
      "name": "modelCounter",
      "outputs": [
        {
          "internalType": "uint256",
          "name": "",
          "type": "uint256"
        }
      ],
      "stateMutability": "view",
      "type": "function"
    },
    {
      "inputs": [],
      "name": "mpcWallet",
      "outputs": [
        {
          "internalType": "contract ProTrackMPCWallet",
          "name": "",
          "type": "address"
        }
      ],
      "stateMutability": "view",
      "type": "function"
    },
    {
      "inputs": [
        {
          "internalType": "string",
          "name": "",
          "type": "string"
        }
      ],
      "name": "mqttBrokers",
      "outputs": [
        {
          "internalType": "string",
          "name": "brokerId",
          "type": "string"
        },
        {
          "internalType": "address",
          "name": "brokerAddress",
          "type": "address"
        },
        {
          "internalType": "string",
          "name": "brokerUrl",
          "type": "string"
        },
        {
          "internalType": "uint16",
          "name": "port",
          "type": "uint16"
        },
        {
          "internalType": "bool",
          "name": "requiresAuth",
          "type": "bool"
        },
        {
          "internalType": "bool",
          "name": "isSecure",
          "type": "bool"
        },
        {
          "internalType": "uint256",
          "name": "subscriberCount",
          "type": "uint256"
        }
      ],
      "stateMutability": "view",
      "type": "function"
    },
    {
      "inputs": [
        {
          "internalType": "uint256",
          "name": "",
          "type": "uint256"
        }
      ],
      "name": "predictiveModels",
      "outputs": [
        {
          "internalType": "uint256",
          "name": "modelId",
          "type": "uint256"
        },
        {
          "internalType": "string",
          "name": "modelType",
          "type": "string"
        },
        {
          "internalType": "bytes32",
          "name": "modelHash",
          "type": "bytes32"
        },
        {
          "internalType": "uint256",
          "name": "accuracy",
          "type": "uint256"
        },
        {
          "internalType": "uint256",
          "name": "lastUpdated",
          "type": "uint256"
        },
        {
          "internalType": "bool",
          "name": "isActive",
          "type": "bool"
        }
      ],
      "stateMutability": "view",
      "type": "function"
    },
    {
      "inputs": [
        {
          "internalType": "bytes32",
          "name": "",
          "type": "bytes32"
        }
      ],
      "name": "processedDataHashes",
      "outputs": [
        {
          "internalType": "bool",
          "name": "",
          "type": "bool"
        }
      ],
      "stateMutability": "view",
      "type": "function"
    },
    {
      "inputs": [
        {
          "internalType": "address",
          "name": "deviceAddress",
          "type": "address"
        },
        {
          "internalType": "string",
          "name": "deviceId",
          "type": "string"
        },
        {
          "internalType": "string",
          "name": "deviceType",
          "type": "string"
        },
        {
          "internalType": "string",
          "name": "protocol",
          "type": "string"
        },
        {
          "internalType": "string",
          "name": "firmwareVersion",
          "type": "string"
        },
        {
          "internalType": "bool",
          "name": "enableEncryption",
          "type": "bool"
        }
      ],
      "name": "registerAdvancedDevice",
      "outputs": [],
      "stateMutability": "nonpayable",
      "type": "function"
    },
    {
      "inputs": [
        {
          "internalType": "bytes32",
          "name": "role",
          "type": "bytes32"
        },
        {
          "internalType": "address",
          "name": "account",
          "type": "address"
        }
      ],
      "name": "renounceRole",
      "outputs": [],
      "stateMutability": "nonpayable",
      "type": "function"
    },
    {
      "inputs": [
        {
          "internalType": "bytes32",
          "name": "role",
          "type": "bytes32"
        },
        {
          "internalType": "address",
          "name": "account",
          "type": "address"
        }
      ],
      "name": "revokeRole",
      "outputs": [],
      "stateMutability": "nonpayable",
      "type": "function"
    },
    {
      "inputs": [
        {
          "internalType": "string",
          "name": "deviceId",
          "type": "string"
        },
        {
          "internalType": "uint256",
          "name": "tokenId",
          "type": "uint256"
        },
        {
          "internalType": "string",
          "name": "sensorType",
          "type": "string"
        },
        {
          "internalType": "bytes",
          "name": "encryptedValue",
          "type": "bytes"
        },
        {
          "internalType": "bytes",
          "name": "encryptedMetadata",
          "type": "bytes"
        },
        {
          "internalType": "string",
          "name": "unit",
          "type": "string"
        },
        {
          "internalType": "string",
          "name": "gpsCoordinates",
          "type": "string"
        },
        {
          "internalType": "uint256",
          "name": "sequenceNumber",
          "type": "uint256"
        },
        {
          "internalType": "bytes32",
          "name": "dataHash",
          "type": "bytes32"
        },
        {
          "internalType": "bytes32",
          "name": "signature",
          "type": "bytes32"
        }
      ],
      "name": "submitEncryptedSensorData",
      "outputs": [],
      "stateMutability": "nonpayable",
      "type": "function"
    },
    {
      "inputs": [],
      "name": "supplyChainContract",
      "outputs": [
        {
          "internalType": "contract ProTrackSupplyChain",
          "name": "",
          "type": "address"
        }
      ],
      "stateMutability": "view",
      "type": "function"
    },
    {
      "inputs": [
        {
          "internalType": "bytes4",
          "name": "interfaceId",
          "type": "bytes4"
        }
      ],
      "name": "supportsInterface",
      "outputs": [
        {
          "internalType": "bool",
          "name": "",
          "type": "bool"
        }
      ],
      "stateMutability": "view",
      "type": "function"
    },
    {
      "inputs": [
        {
          "internalType": "uint256",
          "name": "",
          "type": "uint256"
        },
        {
          "internalType": "uint256",
          "name": "",
          "type": "uint256"
        }
      ],
      "name": "tokenSensorData",
      "outputs": [
        {
          "internalType": "string",
          "name": "deviceId",
          "type": "string"
        },
        {
          "internalType": "uint256",
          "name": "tokenId",
          "type": "uint256"
        },
        {
          "internalType": "string",
          "name": "sensorType",
          "type": "string"
        },
        {
          "internalType": "bytes",
          "name": "encryptedValue",
          "type": "bytes"
        },
        {
          "internalType": "bytes",
          "name": "encryptedMetadata",
          "type": "bytes"
        },
        {
          "internalType": "string",
          "name": "unit",
          "type": "string"
        },
        {
          "internalType": "string",
          "name": "gpsCoordinates",
          "type": "string"
        },
        {
          "internalType": "uint256",
          "name": "timestamp",
          "type": "uint256"
        },
        {
          "internalType": "bytes32",
          "name": "dataHash",
          "type": "bytes32"
        },
        {
          "internalType": "bytes32",
          "name": "signature",
          "type": "bytes32"
        },
        {
          "internalType": "bool",
          "name": "verified",
          "type": "bool"
        },
        {
          "internalType": "bool",
          "name": "isEncrypted",
          "type": "bool"
        },
        {
          "internalType": "uint256",
          "name": "sequenceNumber",
          "type": "uint256"
        }
      ],
      "stateMutability": "view",
      "type": "function"
    },
    {
      "inputs": [
        {
          "internalType": "string",
          "name": "modelType",
          "type": "string"
        },
        {
          "internalType": "bytes32",
          "name": "modelHash",
          "type": "bytes32"
        },
        {
          "internalType": "uint256",
          "name": "accuracy",
          "type": "uint256"
        }
      ],
      "name": "updatePredictiveModel",
      "outputs": [
        {
          "internalType": "uint256",
          "name": "",
          "type": "uint256"
        }
      ],
      "stateMutability": "nonpayable",
      "type": "function"
    }
  ],
  "bytecode": "0x608034620001685762004af690601f38839003908101601f19168201906001600160401b038211838310176200016d5780839160409586948552833981010312620001685780516001600160a01b039081811690819003620001685760208093015191821680920362000168576001805560018060a01b03199081600254161760025560035416176003556000808052808252828120338252825260ff83822054161562000130575b7f1392683b4fe604b030f727da71b11fe86de118903712aeeae60f8bf8183bbf1b91828252818152838220338352815260ff848320541615620000f5575b83516149529081620001848239f35b8282528181528382209033835252828120600160ff19825416179055339160008051602062004ad6833981519152339280a4388080620000e6565b8080528082528281203382528252828120600160ff1982541617905533338260008051602062004ad68339815191528180a4620000a8565b600080fd5b634e487b7160e01b600052604160045260246000fdfe608080604052600436101561001357600080fd5b60003560e01c90816301ffc9a714613db3575080630c5f75fe14613b665780631abd602b14613b2b5780632286ba1814613613578063248a9ca3146135e45780632b9b325b146135a95780632f2ff15d1461350857806335a14eee1461288957806336568abe146127f7578063446cc2d7146127d957806346faa48a146127a85780634869fe26146126d15780634ffa7cfc14612603578063541ee0ad1461257a57806356021129146124bf57806367ac0082146123455780636819ba75146122ed5780636f188bd2146122265780637a6399e014611fd75780638847a7871461149d57806391d1485414611450578063a030d9db1461129f578063a217fddf14611283578063a269cc7a1461125a578063a2c9409914610aff578063a2f6f61514611066578063b2525aa914610eb8578063b6822c0814610dbb578063c0a2d91814610d32578063c38f445614610cf7578063cc408b8a14610cd9578063ce3e7d5c14610cb0578063d547741f14610c6f578063d62e6a1814610c07578063d70dad3314610b3d578063d9708d4814610aff578063f1a93d4a14610ad6578063f70495e21461060e578063f7bde455146105d35763f7d0039d146101d757600080fd5b346105ae5760e03660031901126105ae576004356001600160401b0381116105ae57610207903690600401613eab565b6084356001600160401b0381116105ae57366023820112156105ae5780600401359061023282613e94565b61023f6040519182613e73565b8281526020810180926024809560051b820101903682116105ae578501915b8183106105b35750505060a4356001600160401b0381116105ae57610287903690600401613eab565b926102906143c2565b6013549361029d856147a1565b60135584600052600960205260406000209185835586516001600160401b038111610599576102dc816102d36001870154613fe2565b60018701614737565b806020601f821160011461052b57600091610520575b508160011b916000199060031b1c19161760018401555b80359485600285015560443594856003860155606435600486015560058501600160ff19825416179055600685019051916001600160401b03831161050b57600160401b831161050b576103628383548185558461477e565b90600052602060002060005b8381106104ee575050505060078301918051916001600160401b0383116104da5750918160209895936103ae899896946103a88554613fe2565b85614737565b8990601f831160011461044557937fd72b1a5ad925adbda3eba7e24d736a2e277176930629746285d1a69c53751233979593836000946009946104259a98879261043a575b50508160011b9186199060031b1c19161790555b60c43560088201550155604051938493606085526060850190613fbd565b918884015260408301520390a2604051908152f35b0151905038806103f3565b90601f19831691846000528b6000209260005b8181106104c05750846009946104259a98947fd72b1a5ad925adbda3eba7e24d736a2e277176930629746285d1a69c537512339c9a9894600098600195106104a8575b505050811b019055610407565b0151871960f88460031b161c1916905538808061049b565b8284015185558c9b50600190940193928d01928d01610458565b634e487b7160e01b60009081526041600452fd5b82516001600160a01b03168183015560209092019160010161036e565b83634e487b7160e01b60005260416004526000fd5b9050880151386102f2565b91506001850160005260206000206000925b8a601f198416851061058257506001935082601f19811610610569575b5050811b016001840155610309565b8a015160001960f88460031b161c19169055388061055a565b81015182556020938401936001909201910161053d565b50634e487b7160e01b60009081526041600452fd5b600080fd5b82356001600160a01b03811681036105ae5781526020928301920161025e565b346105ae5760003660031901126105ae5760206040517ffdbffaae77a719a309f32ae713a75924dd877ced3e260626efad36ed10392e4c8152f35b346105ae5760a03660031901126105ae576001600160401b036004358181116105ae5761063f903690600401613eab565b610647613f5f565b604435916064359360ff85168095036105ae576084359460ff861686036105ae573360009081527f2c69b6de49a22eaaab0d8e31789f3e63fd3f5a4bb8f4d23d7aee28387808449660209081526040909120549094907ffdbffaae77a719a309f32ae713a75924dd877ced3e260626efad36ed10392e4c9060ff161561095257506001600160a01b031695861561090d5785156108d4576007821015806108c9575b1561088457604051858186516107028183858b01613f9a565b8101600781520301902092845190811161086e5761072a816107248654613fe2565b86614737565b85601f82116001146107db57937fcd194fc8cc4b9a1ba0182f47bf31823767519d616546c3d0b37e0fcb0823eb8796959362010000600094846005956107c69988916107d0575b508160011b9188199060031b1c19161784555b600184018c6bffffffffffffffffffffffff60a01b8254161790558a600285015561ff00600385019362ffffff19855416179160081b16171790550155614832565b92604051908152a3005b90508801518e610771565b601f1982169085600052876000209160005b81811061085757506000946001856107c699957fcd194fc8cc4b9a1ba0182f47bf31823767519d616546c3d0b37e0fcb0823eb879c9b999560059862010000961061083f575b5050811b018455610784565b8a0151891960f88460031b161c191690558e80610833565b91928960018192868c0151815501940192016107ed565b634e487b7160e01b600052604160045260246000fd5b60405162461bcd60e51b815260048101869052601860248201527f496e76616c696420737072656164696e6720666163746f7200000000000000006044820152606490fd5b50600c8211156106e9565b60405162461bcd60e51b8152600481018690526011602482015270496e76616c6964206672657175656e637960781b6044820152606490fd5b60405162461bcd60e51b815260048101869052601760248201527f496e76616c6964206761746577617920616464726573730000000000000000006044820152606490fd5b8561095c33614675565b9160405161096981613e58565b60428152828101916060368437815115610ac057603083538151600190811015610ac057607860218401536041905b808211610a7c575050610a3957610a0593610a14926048926040519687936000805160206148dd833981519152888601526109dc815180928a603789019101613f9a565b8401917001034b99036b4b9b9b4b733903937b6329607d1b603784015251809386840190613f9a565b01036028810185520183613e73565b610a3560405192839262461bcd60e51b845260048401526024830190613fbd565b0390fd5b6064836040519062461bcd60e51b825280600483015260248201527f537472696e67733a20686578206c656e67746820696e73756666696369656e746044820152fd5b9091600f8116906010821015610ac057610aba916f181899199a1a9b1b9c1cb0b131b232b360811b901a610ab08587614657565b5360041c92614668565b90610998565b634e487b7160e01b600052603260045260246000fd5b346105ae5760003660031901126105ae5760206040516000805160206148fd8339815191528152f35b346105ae5760003660031901126105ae57600d54600e54600f54601054604080519485526020850193909352918301526060820152608090f35b0390f35b346105ae5760203660031901126105ae5760043560005260096020526040600020805460405191610b7c83610b75816001850161401c565b0384613e73565b6002810154610bf7600383015491600484015460ff60058601541660405191610bac83610b758160078b0161401c565b6009600888015497015495610bd36040519a8b9a8b526101208060208d01528b0190613fbd565b9460408a015260608901526080880152151560a087015285820360c0870152613fbd565b9160e08401526101008301520390f35b346105ae5760203660031901126105ae576004356001600160401b0381116105ae57610c396020913690600401613eab565b81610c4d6040519283815193849201613f9a565b600590820190815281900382019020546040516001600160a01b039091168152f35b346105ae5760403660031901126105ae57610cae600435610c8e613f5f565b90806000526000602052610ca96001604060002001546144f0565b6145e3565b005b346105ae5760003660031901126105ae576003546040516001600160a01b039091168152602090f35b346105ae5760003660031901126105ae576020601454604051908152f35b346105ae5760003660031901126105ae5760206040517f388f18057507a059e096d1eb4a179e0a1e0410c108e4346f57deaf4d6210bc588152f35b346105ae5760203660031901126105ae57600435600052600a6020526040600020805460405191610d6a83610b75816001850161401c565b60028101549060038101549060ff600560048301549201541691610da0604051968796875260c0602088015260c0870190613fbd565b93604086015260608501526080840152151560a08301520390f35b346105ae5760203660031901126105ae576004356001600160401b0381116105ae57610e066020610df3610e79933690600401613eab565b8160405193828580945193849201613f9a565b8101600881520301902060405190610e2982610e22818461401c565b0383613e73565b60018101546040519060ff90610e8c906001600160a01b0316610e5a84610e53816002890161401c565b0385613e73565b600560038601549501549360405197889760e0895260e0890190613fbd565b9160208801528682036040880152613fbd565b9261ffff81166060860152818160101c161515608086015260181c16151560a084015260c08301520390f35b346105ae5760403660031901126105ae57602435600435600052600660205260406000209081548110156105ae57610eef916140ca565b5060405180610efe818461401c565b03610f099082613e73565b60018201549160405180806002840190610f229161401c565b03610f2d9082613e73565b6040519182610f3f816003840161401c565b03610f4a9084613e73565b6040519283610f5c816004850161401c565b03610f679085613e73565b6040519384610f79816005860161401c565b03610f849086613e73565b60405180610f95816006870161401c565b03610fa09082613e73565b600784015495600885015492600986015494600a87015496600b0154976040519b8c9b8c6101a08091528d01610fd591613fbd565b9060208d01528b810360408d0152610fec91613fbd565b8a810360608c0152610ffd91613fbd565b89810360808b015261100e91613fbd565b88810360a08a015261101f91613fbd565b87810360c089015261103091613fbd565b9460e087015261010086015261012085015260ff8116151561014085015260081c60ff1615156101608401526101808301520390f35b346105ae5760603660031901126105ae576001600160401b036004358181116105ae57611097903690600401613eab565b602435906044358381116105ae576110b3903690600401613eab565b926110bc6140e6565b6110f160405183516110d381836020809801613f9a565b81019060058252848160018060a01b039303019020541633146147b0565b33600052600482526040600020904260078301558360058301556009820190855190811161086e5761112d816111278454613fe2565b84614737565b83601f82116001146111d0579181604094927f58ec7f84c07fb545edd116a773744eadd37db91b7ec5f524e73646b2c149c3c59796946000916111c5575b508160011b916000199060031b1c19161790555b600a84106111a6575b508151928352820152806111a133946040830190613fbd565b0390a2005b60060160ff1981541690556111bc600e54614668565b600e5585611188565b90508801518961116b565b601f1982169083600052856000209160005b8181106112435750927f58ec7f84c07fb545edd116a773744eadd37db91b7ec5f524e73646b2c149c3c59796949260019282604098961061122a575b5050811b01905561117f565b8a015160001960f88460031b161c19169055898061121e565b91928760018192868d0151815501940192016111e2565b346105ae5760003660031901126105ae576002546040516001600160a01b039091168152602090f35b346105ae5760003660031901126105ae57602060405160008152f35b346105ae5760603660031901126105ae576001600160401b036004358181116105ae576112d0903690600401613eab565b604435916112dc6143c2565b601454916112e9836147a1565b60145582600052602093600a85526040600020848155600190818101845195861161086e578561131e88976111278454613fe2565b88601f82116001146113c157927f02a518e45c7c2af51cac8ed988cc68b24fe2430300a8ade3f675835d571cf716969492826005936113a698966000916113b6575b50600019600383901b1c191690851b1790555b6024356002820155836003820155426004820155019060ff19825416179055604051928392604084526040840190613fbd565b90878301520390a2604051908152f35b90508701518d611360565b601f19821690836000528a6000209160005b8c82821061143957505095836113a69896938296936005967f02a518e45c7c2af51cac8ed988cc68b24fe2430300a8ade3f675835d571cf7169c9a10611420575b5050811b019055611373565b89015160001960f88460031b161c191690558d80611414565b8a84015185558c9b509388019392830192016113d3565b346105ae5760403660031901126105ae57611469613f5f565b600435600052600060205260406000209060018060a01b0316600052602052602060ff604060002054166040519015158152f35b346105ae5760c03660031901126105ae576114b6613f75565b6024356001600160401b0381116105ae576114d5903690600401613eab565b6044356001600160401b0381116105ae576114f4903690600401613eab565b916064356001600160401b0381116105ae57611514903690600401613eab565b926084356001600160401b0381116105ae57611534903690600401613eab565b61153c613f8b565b6115446142b5565b6001600160a01b03841615611f9957845115611f5457604051855161156d818360208a01613f9a565b60059082019081528190036020019020546001600160a01b0316611f0f578015611f085760405160208101906115da604a8260206115b18b87815193849201613f9a565b8101426020820152694445564943455f4b455960b01b604082015203602a810184520182613e73565b5190205b604051916115eb83613e22565b60008352604051936115fc85613e06565b60018060a01b03871685528760208601528560408601528860608601526080850152606460a0850152600160c0850152151560e08401524261010084015261012c61012084015260405161164f81613e22565b6000815261014084015261016083015261018082015260018060a01b0383166000526004602052604060002060018060a01b038251166bffffffffffffffffffffffff60a01b82541617815560208201518051906001600160401b03821161086e5781906116c4826102d36001870154613fe2565b602090601f8311600114611e9657600092611e8b575b50508160011b916000199060031b1c19161760018201555b60408201518051906001600160401b03821161086e5781906117248261171b6002870154613fe2565b60028701614737565b602090601f8311600114611e1957600092611e0e575b50508160011b916000199060031b1c19161760028201555b60608201518051906001600160401b03821161086e5781906117848261177b6003870154613fe2565b60038701614737565b602090601f8311600114611d9c57600092611d91575b50508160011b916000199060031b1c19161760038201555b60808201518051906001600160401b03821161086e5781906117e4826117db6004870154613fe2565b60048701614737565b602090601f8311600114611d1f57600092611d14575b50508160011b916000199060031b1c19161760048201555b60a0820151600582015561185a6006820161183f60c08501511515829060ff801983541691151516179055565b60e0840151815461ff00191690151560081b61ff0016179055565b610100820151600782015561012082015160088201556101408201518051906001600160401b03821161086e576118a1826118986009860154613fe2565b60098601614737565b602090601f8311600114611c9e5791806101809492600b94600092611c93575b50508160011b916000199060031b1c19161760098201555b610160840151600a82015501910151908151916001600160401b03831161086e57600160401b831161086e576020906119178484548186558561477e565b0190600052602060002060005b838110611c7f57877f853b412c43dfa71342500aefdb2892a4821d733d780a7a3a53fa62f9f1592e85611ad4896111a18a611ae28b604051602081875161196e8183858c01613f9a565b60059082019081520301902080546001600160a01b0319166001600160a01b03851617905560405188516020808b01928181019290916119c29183906119b5818789613f9a565b8101038084520182613e73565b5190206040516020810190634c6f526160e01b8252600481526119e481613e3d565b51902003611b8957506001600160a01b03831660009081527f8e4907d7eed1fa8822ac6ed0bc8e0d218d52363976fa29714ef0f2af51873e7960205260409020547fe4170d86ee29aeb69678fe1ca9fd07d73c6769d3257835680768e03c820657aa9060ff1615611b42575b505b6001600160a01b03831660009081527ff7032175e1d5bdcf6f03fc6d66642c1961a01e71e524ec2e6b0c43aa2958a49060205260409020546000805160206148fd8339815191529060ff1615611afb575b50611aaf600d546147a1565b600d55611abd600e546147a1565b600e55604051958695606087526060870190613fbd565b908582036020870152613fbd565b83810360408501526001600160a01b0390911695613fbd565b6000818152602081815260408083206001600160a01b03881680855292528220805460ff19166001179055339290916000805160206148bd8339815191529080a488611aa3565b6000818152602081815260408083206001600160a01b03881680855292528220805460ff19166001179055339290916000805160206148bd8339815191529080a488611a50565b604051611ba56020828c6119b583830196879251928391613f9a565b5190206040516020810190631354551560e21b825260048152611bc781613e3d565b51902003611a52576001600160a01b03831660009081527f330ed4ac2a3f0c8ed4e66a01e6c0389b81ae2f925f984ba0e2e051ceb1d9bc5d60205260409020547f388f18057507a059e096d1eb4a179e0a1e0410c108e4346f57deaf4d6210bc589060ff1615611c38575b50611a52565b6000818152602081815260408083206001600160a01b03881680855292528220805460ff19166001179055339290916000805160206148bd8339815191529080a488611c32565b600190602084519401938184015501611924565b015190508a806118c1565b906009840160005260206000209160005b601f1985168110611cfc5750926101809492600192600b9583601f19811610611ce3575b505050811b0160098201556118d9565b015160001960f88460031b161c191690558a8080611cd3565b91926020600181928685015181550194019201611caf565b0151905088806117fa565b9250600484016000526020600020906000935b601f1984168510611d76576001945083601f19811610611d5d575b505050811b016004820155611812565b015160001960f88460031b161c19169055888080611d4d565b81810151835560209485019460019093019290910190611d32565b01519050888061179a565b9250600384016000526020600020906000935b601f1984168510611df3576001945083601f19811610611dda575b505050811b0160038201556117b2565b015160001960f88460031b161c19169055888080611dca565b81810151835560209485019460019093019290910190611daf565b01519050888061173a565b9250600284016000526020600020906000935b601f1984168510611e70576001945083601f19811610611e57575b505050811b016002820155611752565b015160001960f88460031b161c19169055888080611e47565b81810151835560209485019460019093019290910190611e2c565b0151905088806116da565b9250600184016000526020600020906000935b601f1984168510611eed576001945083601f19811610611ed4575b505050811b0160018201556116f2565b015160001960f88460031b161c19169055888080611ec4565b81810151835560209485019460019093019290910190611ea9565b60006115de565b60405162461bcd60e51b815260206004820152601860248201527f44657669636520494420616c72656164792065786973747300000000000000006044820152606490fd5b60405162461bcd60e51b815260206004820152601960248201527f4465766963652049442063616e6e6f7420626520656d707479000000000000006044820152606490fd5b60405162461bcd60e51b8152602060048201526016602482015275496e76616c696420646576696365206164647265737360501b6044820152606490fd5b346105ae5760603660031901126105ae576003546040516325e1cf6160e11b8152600480359082018190523360248301526020926001600160a01b0316918381604481865afa908115612165576000916121f0575b50156121ab57806000526006835261204a60243560406000206140ca565b509160ff600a84015460081c16156121715760405163e8296c4f60e01b815260048101929092523360248301528390829060449082905afa90811561216557600091612138575b50604435036120fa57610b396120ed9260046120d9604051946120c2866120bb816003850161401c565b0387613e73565b6120d2604051809481930161401c565b0382613e73565b604051948594604086526040860190613fbd565b9184830390850152613fbd565b60405162461bcd60e51b8152600481018390526016602482015275496e76616c69642064656372797074696f6e206b657960501b6044820152606490fd5b90508281813d831161215e575b61214f8183613e73565b810103126105ae575183612091565b503d612145565b6040513d6000823e3d90fd5b60405162461bcd60e51b815260048101859052601260248201527111185d18481b9bdd08195b98dc9e5c1d195960721b6044820152606490fd5b60405162461bcd60e51b815260048101849052601960248201527f4e6f7420617574686f72697a656420746f2064656372797074000000000000006044820152606490fd5b90508381813d831161221f575b6122078183613e73565b810103126105ae575180151581036105ae578461202c565b503d6121fd565b346105ae5760403660031901126105ae5761223f613f75565b6001600160401b036024358181116105ae5761225f903690600401613f01565b916122686142b5565b60018060a01b031691826000526020926004845261229060ff600660406000200154166147f2565b60005260048352600b60406000200190805192831161086e57600160401b831161086e5783906122c58484548186558561477e565b0190600052826000209260005b8381106122db57005b825185820155918101916001016122d2565b346105ae5760403660031901126105ae57612306613f75565b6001600160a01b03166000908152600c60205260409020805460243591908210156105ae57602091612337916140b2565b90546040519160031b1c8152f35b346105ae5760203660031901126105ae576001600160a01b0380612367613f75565b166000526004602052604060002090815416604051918280600183019061238d9161401c565b036123989084613e73565b60405190816123aa816002840161401c565b036123b59083613e73565b604051806123c6816003850161401c565b036123d19082613e73565b60405190816123e3816004860161401c565b036123ee9083613e73565b600583015491600684015460078501549160088601549360405196878060098301906124199161401c565b036124249089613e73565b600a0154976040519a8b9a8b526101808060208d01528b0161244591613fbd565b8a810360408c015261245691613fbd565b89810360608b015261246791613fbd565b88810360808a015261247891613fbd565b9360a088015260ff8116151560c088015260081c60ff16151560e08701526101008601526101208501528381036101408501526124b491613fbd565b906101608301520390f35b346105ae5760203660031901126105ae576004356001600160401b0381116105ae576124f76020610df3612548933690600401613eab565b810160078152030190206040519061251382610e22818461401c565b60018060a01b036001820154169060ff600282015491600560038201549101549260405196879660e0885260e0880190613fbd565b94602087015260408601528181166060860152818160081c16608086015260101c16151560a084015260c08301520390f35b346105ae5760203660031901126105ae5760043560005260096020526125e860016040600020600281015490600381015460ff600583015416906125d46009840154936125cd604051809881930161401c565b0386613e73565b60405195869560a0875260a0870190613fbd565b93602086015260408501521515606084015260808301520390f35b346105ae576020806003193601126105ae5761261d613f75565b6126256142b5565b6001600160a01b031660008181526004835260409020600601805460ff19908116909155600e5461265590614668565b600e556000805160206148fd833981519152928360005260008152604060002083600052815260ff6040600020541661268a57005b83600052600081526040600020908360005252604060002090815416905533917ff6391f5c32d9c69d2a47ea670b442974b53935d1edc7fd64eb21e047a839171b600080a4005b346105ae5760203660031901126105ae576001600160a01b036126f2613f75565b166000526004602052612776604060002060ff600682015416600582015460078301549061279260036127846040519661273a88612733816001850161401c565b0389613e73565b6127626040519161275283610b75816002850161401c565b610b75604051809681930161401c565b60405198899860c08a5260c08a0190613fbd565b9088820360208a0152613fbd565b908682036040880152613fbd565b9215156060850152608084015260a08301520390f35b346105ae5760203660031901126105ae57600435600052600b602052602060ff604060002054166040519015158152f35b346105ae5760003660031901126105ae576020601354604051908152f35b346105ae5760403660031901126105ae57612810613f5f565b336001600160a01b0382160361282c57610cae906004356145e3565b60405162461bcd60e51b815260206004820152602f60248201527f416363657373436f6e74726f6c3a2063616e206f6e6c792072656e6f756e636560448201526e103937b632b9903337b91039b2b63360891b6064820152608490fd5b346105ae576101403660031901126105ae576004356001600160401b0381116105ae576128ba903690600401613eab565b6044356001600160401b0381116105ae576128d9903690600401613eab565b6064356001600160401b0381116105ae576128f8903690600401613eab565b906084356001600160401b0381116105ae57612918903690600401613eab565b9260a4356001600160401b0381116105ae57612938903690600401613eab565b60c4356001600160401b0381116105ae57612957903690600401613eab565b61295f6140e6565b612967614852565b61299c604051845161297d818360208901613f9a565b8101906005825260208160018060a01b039303019020541633146147b0565b61010435600052600b60205260ff604060002054166134ca573360005260046020526129d260ff600660406000200154166147f2565b602435600052600660205260406000208054908161345a575b5050604051612a756080828651612a09816020840160208b01613f9a565b602435602082840101528851612a288160408486010160208d01613f9a565b8a5191612a4083858301840160400160208f01613f9a565b83010101855190612a58826040830160208a01613f9a565b0160e4356040820152426060820152036060810184520182613e73565b60208151910120610104350361341557336000526004602052600a60406000200154604051906101043560208301526040820152604081528060608101106001600160401b0360608301111761086e57606081016040528051602082012061012435036133db57509060ff913360005260046020526006604060002001549160405197612b0189613e06565b85895260243560208a01528660408a01528760608a0152608089015260a088015260c08701524260e08701526101043561010087015261012435610120870152600161014087015260081c16151561016085015260e435610180850152602435600052600660205260406000208054600160401b81101561086e57612b8b916001820181556140ca565b6133c55784518051906001600160401b03821161086e578190612bb2826107248654613fe2565b602090601f83116001146133595760009261334e575b50508160011b916000199060031b1c19161781555b6020850151600182015560408501518051906001600160401b03821161086e578190612c108261171b6002870154613fe2565b602090601f83116001146132dc576000926132d1575b50508160011b916000199060031b1c19161760028201555b60608501518051906001600160401b03821161086e578190612c678261177b6003870154613fe2565b602090601f831160011461325f57600092613254575b50508160011b916000199060031b1c19161760038201555b60808501518051906001600160401b03821161086e578190612cbe826117db6004870154613fe2565b602090601f83116001146131e2576000926131d7575b50508160011b916000199060031b1c19161760048201555b60a08501518051906001600160401b03821161086e578190612d1e82612d156005870154613fe2565b60058701614737565b602090601f83116001146131655760009261315a575b50508160011b916000199060031b1c19161760058201555b60c08501519485516001600160401b03811161086e57612d7c81612d736006860154613fe2565b60068601614737565b6020601f82116001146130e057918161018092600b94612e8c98999a6000926130d5575b50508160011b916000199060031b1c19161760068501555b60e0810151600785015561010081015160088501556101208101516009850155612e18600a8501612dfc6101408401511515829060ff801983541691151516179055565b610160830151815461ff00191690151560081b61ff0016179055565b015191015561010435600052600b6020526040600020600160ff1982541617905533600052600460205242600760406000200155612e576010546147a1565b6010556040516020818551612e6f8183858a01613f9a565b601181830152810103019020612e8581546147a1565b9055614832565b6040519061010435825260e43560208301527f0fe261b3875f02dd1ee3a34c6b681778a15b4530452838a950ceb01da1e7c3d1604060243593a360005b6013548110156130cf57806000526009602052604060002060ff60058201541615612f95576040516001820154816000612f0283613fe2565b92600181169081156130b1575060011461306e575b612f2a925003601f198101835282613e73565b602081519101206040516020810190612f4e60208288516119b58187858d01613f9a565b51902003612f9557600981015460088201548101809111613058574210612f9557600281015460038201546064865160208801200691821291821561304e575b5050612fa4575b50612f9f906147a1565b612ec9565b426009820155600f612fb681546147a1565b9055817f5694372fa375ac40043ea9540f4bcfa413e9019440e208ce8e170be872f43169612ff26040519360408552600160408601910161401c565b926000602082015280602435940390a333600052600c602052604060002090815491600160401b83101561086e5782613033916001612f9f950181556140b2565b81549060031b9042821b91600019901b191617905590612f95565b1390508580612f8e565b634e487b7160e01b600052601160045260246000fd5b50506001830160005260206000206000905b828210613098575050816020612f2a92820101612f17565b8054602083860181019190915290910190600101613080565b60209250612f2a94915060ff19168284015280151502820101612f17565b60018055005b015190508a80612da0565b6006840160005260206000209760005b601f1984168110613142575082612e8c979899600b959360019361018096601f19811610613129575b505050811b016006850155612db8565b015160001960f88460031b161c191690558a8080613119565b828201518a55600190990198602092830192016130f0565b015190508780612d34565b9250600584016000526020600020906000935b601f19841685106131bc576001945083601f198116106131a3575b505050811b016005820155612d4c565b015160001960f88460031b161c19169055878080613193565b81810151835560209485019460019093019290910190613178565b015190508780612cd4565b9250600484016000526020600020906000935b601f1984168510613239576001945083601f19811610613220575b505050811b016004820155612cec565b015160001960f88460031b161c19169055878080613210565b818101518355602094850194600190930192909101906131f5565b015190508780612c7d565b9250600384016000526020600020906000935b601f19841685106132b6576001945083601f1981161061329d575b505050811b016003820155612c95565b015160001960f88460031b161c1916905587808061328d565b81810151835560209485019460019093019290910190613272565b015190508780612c26565b9250600284016000526020600020906000935b601f1984168510613333576001945083601f1981161061331a575b505050811b016002820155612c3e565b015160001960f88460031b161c1916905587808061330a565b818101518355602094850194600190930192909101906132ef565b015190508780612bc8565b9250836000526020600020906000935b601f19841685106133aa576001945083601f19811610613391575b505050811b018155612bdd565b015160001960f88460031b161c19169055878080613384565b81810151835560209485019460019093019290910190613369565b634e487b7160e01b600052600060045260246000fd5b606060649162461bcd60e51b828201526020838201526011608482015270496e76616c6964207369676e617475726560781b60a482015201fd5b60405162461bcd60e51b815260206004820152601b60248201527f4461746120696e7465677269747920636865636b206661696c656400000000006044820152606490fd5b600019820191821161305857600b91613472916140ca565b50015460e43511156134855786806129eb565b60405162461bcd60e51b815260206004820152601760248201527f496e76616c69642073657175656e6365206e756d6265720000000000000000006044820152606490fd5b60405162461bcd60e51b815260206004820152601660248201527511185d1848185b1c9958591e481c1c9bd8d95cdcd95960521b6044820152606490fd5b346105ae5760403660031901126105ae57600435613524613f5f565b81600052600060205261353e6001604060002001546144f0565b81600052600060205260406000209060018060a01b0316908160005260205260ff604060002054161561356d57005b8160005260006020526040600020816000526020526040600020600160ff1982541617905533916000805160206148bd833981519152600080a4005b346105ae5760003660031901126105ae5760206040517fe4170d86ee29aeb69678fe1ca9fd07d73c6769d3257835680768e03c820657aa8152f35b346105ae5760203660031901126105ae5760043560005260006020526020600160406000200154604051908152f35b346105ae5760c03660031901126105ae576001600160401b036004358181116105ae57613644903690600401613eab565b61364c613f5f565b906044358381116105ae57613665903690600401613eab565b9260643561ffff811681036105ae576084359081151582036105ae57613689613f8b565b3360009081527f330ed4ac2a3f0c8ed4e66a01e6c0389b81ae2f925f984ba0e2e051ceb1d9bc5d60205260409020549092907f388f18057507a059e096d1eb4a179e0a1e0410c108e4346f57deaf4d6210bc589060ff16156139ef57506001600160a01b038616156139b1578651156139775760405160208187516137118183858c01613f9a565b8101600881520301902093855181811161086e57613739816137338854613fe2565b88614737565b806020601f821160011461391157600091613906575b508160011b916000199060031b1c19161785555b6001850180546001600160a01b0319166001600160a01b038916179055875190811161086e576137a38161379a6002880154613fe2565b60028801614737565b6020601f82116001146138655794613837947f780f083b28a5695a0aca70c562fb59d451b4dda6934d03f712a921d3b56eac939794600094846005956138559a889161385a575b508160011b9188199060031b1c19161760028501555b62ff0000600385019361ffff63ff000000865492151560181b1694169063ffffffff19161791151560101b16171790550155614832565b926040519182916020835260018060a01b0316956020830190613fbd565b0390a3005b90508d01518e6137ea565b600286016000526020600020908960005b601f19851681106138ec5750946000946001856138559a956138379a957f780f083b28a5695a0aca70c562fb59d451b4dda6934d03f712a921d3b56eac939d9a600599601f198116106138d4575b505050811b016002850155613800565b0151891960f88460031b161c191690558e808f6138c4565b9082015183556001909201916020918201918b9101613876565b90508701518a61374f565b6000888152602081209250601f198416905b8a82821061395f5750509083600194939210613946575b5050811b018555613763565b89015160001960f88460031b161c191690558a8061393a565b60018495602093958493015181550194019201613923565b60405162461bcd60e51b8152602060048201526012602482015271125b9d985b1a5908189c9bdad95c8815549360721b6044820152606490fd5b60405162461bcd60e51b8152602060048201526016602482015275496e76616c69642062726f6b6572206164647265737360501b6044820152606490fd5b6139f833614675565b60405191613a0583613e58565b6042835260208301906060368337835115610ac057603082538351600190811015610ac057607860218601536041905b808211613af1575050613aad576048613a7e92613a8d92610a35956040519586936000805160206148dd83398151915260208601526109dc815180926020603789019101613f9a565b01036028810184520182613e73565b60405162461bcd60e51b8152602060048201529182916024830190613fbd565b606460405162461bcd60e51b815260206004820152602060248201527f537472696e67733a20686578206c656e67746820696e73756666696369656e746044820152fd5b9091600f8116906010821015610ac057613b25916f181899199a1a9b1b9c1cb0b131b232b360811b901a610ab08589614657565b90613a35565b346105ae5760003660031901126105ae5760206040517f1392683b4fe604b030f727da71b11fe86de118903712aeeae60f8bf8183bbf1b8152f35b346105ae5760803660031901126105ae576004356001600160401b038082116105ae57366023830112156105ae57816004013590613ba382613e94565b91613bb16040519384613e73565b8083526020938484016024809360051b830101913683116105ae57838101915b838310613d8d575050505080358281116105ae57613bf3903690600401613f01565b6044358381116105ae57366023820112156105ae5780600401358387613c1883613e94565b613c256040519182613e73565b838152019160051b830101913683116105ae57848101915b838310613d6757505050506064359283116105ae57366023840112156105ae578260040135613c6b81613e94565b93613c796040519586613e73565b818552838786019260051b820101913683116105ae5784889201905b838210613d585750505050613ca86140e6565b613cb0614852565b8351905103613d1d575060005b82518110156130cf5780613cd4613cf292846148a8565b51600052600b80865260ff6040600020541615613cf7575b506147a1565b613cbd565b613d0182856148a8565b5160005285526040600020600160ff1982541617905585613cec565b8360156064926040519262461bcd60e51b8452600484015282015274082e4e4c2f240d8cadccee8d040dad2e6dac2e8c6d605b1b6044820152fd5b81358152908201908201613c95565b82358781116105ae578991613d828392893691870101613eab565b815201920191613c3d565b82358681116105ae578891613da88392883691870101613eab565b815201920191613bd1565b346105ae5760203660031901126105ae576004359063ffffffff60e01b82168092036105ae57602091637965db0b60e01b8114908115613df5575b5015158152f35b6301ffc9a760e01b14905083613dee565b6101a081019081106001600160401b0382111761086e57604052565b602081019081106001600160401b0382111761086e57604052565b604081019081106001600160401b0382111761086e57604052565b608081019081106001600160401b0382111761086e57604052565b90601f801991011681019081106001600160401b0382111761086e57604052565b6001600160401b03811161086e5760051b60200190565b81601f820112156105ae578035906001600160401b03821161086e5760405192613edf601f8401601f191660200185613e73565b828452602083830101116105ae57816000926020809301838601378301015290565b81601f820112156105ae57803591613f1883613e94565b92613f266040519485613e73565b808452602092838086019260051b8201019283116105ae578301905b828210613f50575050505090565b81358152908301908301613f42565b602435906001600160a01b03821682036105ae57565b600435906001600160a01b03821682036105ae57565b60a4359081151582036105ae57565b60005b838110613fad5750506000910152565b8181015183820152602001613f9d565b90602091613fd681518092818552858086019101613f9a565b601f01601f1916010190565b90600182811c92168015614012575b6020831014613ffc57565b634e487b7160e01b600052602260045260246000fd5b91607f1691613ff1565b906000929180549161402d83613fe2565b91828252600193848116908160001461408f575060011461404f575b50505050565b90919394506000526020928360002092846000945b83861061407b575050505001019038808080614049565b805485870183015294019385908201614064565b9294505050602093945060ff191683830152151560051b01019038808080614049565b8054821015610ac05760005260206000200190600090565b8054821015610ac057600052600c602060002091020190600090565b3360009081527ff7032175e1d5bdcf6f03fc6d66642c1961a01e71e524ec2e6b0c43aa2958a490602090815260408083205490926000805160206148fd8339815191529160ff16156141385750505050565b61414133614675565b9184519061414e82613e58565b604282528482019260603685378251156142a15760308453825160019081101561428d5790607860218501536041915b808311614233575050506141f1576048610a359386936141d5936141c698519889936000805160206148dd8339815191528a8601526109dc815180928c603789019101613f9a565b01036028810187520185613e73565b5192839262461bcd60e51b845260048401526024830190613fbd565b60648486519062461bcd60e51b825280600483015260248201527f537472696e67733a20686578206c656e67746820696e73756666696369656e746044820152fd5b909192600f811660108110156142795761427291906f181899199a1a9b1b9c1cb0b131b232b360811b901a6142688688614657565b5360041c93614668565b919061417e565b634e487b7160e01b84526032600452602484fd5b634e487b7160e01b82526032600452602482fd5b634e487b7160e01b81526032600452602490fd5b3360009081527fad3228b676f7d3cd4284a5443f17f1962b36e491b30a40b2405849e597ba5fb5602090815260408083205490929060ff16156142f757505050565b61430033614675565b908084519061430e82613e58565b604282528482019260603685378251156142a15760308453825160019081101561428d5790607860218501536041915b808311614386575050506141f1576048610a359386936141d5936141c698519889936000805160206148dd8339815191528a8601526109dc815180928c603789019101613f9a565b909192600f81166010811015614279576143bb91906f181899199a1a9b1b9c1cb0b131b232b360811b901a6142688688614657565b919061433e565b3360009081527ff6ebb6c4d9a4fc86b0ef2e91413c5fa92fe66b304006227e65489ee2c880eb5d602090815260408083205490927f1392683b4fe604b030f727da71b11fe86de118903712aeeae60f8bf8183bbf1b9160ff16156144265750505050565b61442f33614675565b9184519061443c82613e58565b604282528482019260603685378251156142a15760308453825160019081101561428d5790607860218501536041915b8083116144b4575050506141f1576048610a359386936141d5936141c698519889936000805160206148dd8339815191528a8601526109dc815180928c603789019101613f9a565b909192600f81166010811015614279576144e991906f181899199a1a9b1b9c1cb0b131b232b360811b901a6142688688614657565b919061446c565b600090808252602090828252604092838120338252835260ff8482205416156145195750505050565b61452233614675565b9184519061452f82613e58565b604282528482019260603685378251156142a15760308453825160019081101561428d5790607860218501536041915b8083116145a7575050506141f1576048610a359386936141d5936141c698519889936000805160206148dd8339815191528a8601526109dc815180928c603789019101613f9a565b909192600f81166010811015614279576145dc91906f181899199a1a9b1b9c1cb0b131b232b360811b901a6142688688614657565b919061455f565b9060009180835282602052604083209160018060a01b03169182845260205260ff60408420541661461357505050565b80835282602052604083208284526020526040832060ff1981541690557ff6391f5c32d9c69d2a47ea670b442974b53935d1edc7fd64eb21e047a839171b339380a4565b908151811015610ac0570160200190565b8015613058576000190190565b60405190606082018281106001600160401b0382111761086e57604052602a8252602082016040368237825115610ac057603090538151600190811015610ac057607860218401536029905b8082116146d1575050613aad5790565b9091600f811690601082101561470b57614705916f181899199a1a9b1b9c1cb0b131b232b360811b901a610ab08587614657565b906146c1565b60246000634e487b7160e01b81526032600452fd5b81811061472b575050565b60008155600101614720565b9190601f811161474657505050565b614772926000526020600020906020601f840160051c83019310614774575b601f0160051c0190614720565b565b9091508190614765565b9181811061478b57505050565b6147729260005260206000209182019101614720565b60001981146130585760010190565b156147b757565b60405162461bcd60e51b8152602060048201526013602482015272556e617574686f72697a65642064657669636560681b6044820152606490fd5b156147f957565b60405162461bcd60e51b8152602060048201526011602482015270446576696365206e6f742061637469766560781b6044820152606490fd5b61484a90602060405192828480945193849201613f9a565b810103902090565b600260015414614863576002600155565b60405162461bcd60e51b815260206004820152601f60248201527f5265656e7472616e637947756172643a207265656e7472616e742063616c6c006044820152606490fd5b8051821015610ac05760209160051b01019056fe2f8788117e7eff1d82e926ec794901d17c78024a50270940304540a733656f0d416363657373436f6e74726f6c3a206163636f756e74200000000000000000003fd1570350ad82b8536c3ba26e9b65482f86a92bc0631d77bd1bb4bc20357473a264697066735822122019c66e9a170df80ad893e45247549effba2a4da7e6049a0d780800c82c53fd6464736f6c634300081300332f8788117e7eff1d82e926ec794901d17c78024a50270940304540a733656f0d",
  "linkReferences": {},
  "deployedLinkReferences": {}
}